{
  "abi": [
    {
      "inputs": [
        {
          "internalType": "address",
          "name": "_accountingEngine",
          "type": "address"
        },
        {
          "internalType": "address",
          "name": "_stabilityFeeTreasury",
          "type": "address"
        },
        {
          "internalType": "uint256",
          "name": "_rewardAmount",
          "type": "uint256"
        }
      ],
      "stateMutability": "nonpayable",
      "type": "constructor"
    },
    {
      "inputs": [],
      "name": "AlreadyAuthorized",
      "type": "error"
    },
    {
      "inputs": [],
      "name": "NotAuthorized",
      "type": "error"
    },
    {
      "inputs": [],
      "name": "NotWorkable",
      "type": "error"
    },
    {
      "inputs": [],
      "name": "Unauthorized",
      "type": "error"
    },
    {
      "inputs": [],
      "name": "UnrecognizedCType",
      "type": "error"
    },
    {
      "inputs": [],
      "name": "UnrecognizedParam",
      "type": "error"
    },
    {
      "anonymous": false,
      "inputs": [
        {
          "indexed": false,
          "internalType": "address",
          "name": "_account",
          "type": "address"
        }
      ],
      "name": "AddAuthorization",
      "type": "event"
    },
    {
      "anonymous": false,
      "inputs": [
        {
          "indexed": true,
          "internalType": "bytes32",
          "name": "_param",
          "type": "bytes32"
        },
        {
          "indexed": true,
          "internalType": "bytes32",
          "name": "_cType",
          "type": "bytes32"
        },
        {
          "indexed": false,
          "internalType": "bytes",
          "name": "_data",
          "type": "bytes"
        }
      ],
      "name": "ModifyParameters",
      "type": "event"
    },
    {
      "anonymous": false,
      "inputs": [
        {
          "indexed": false,
          "internalType": "address",
          "name": "_account",
          "type": "address"
        }
      ],
      "name": "RemoveAuthorization",
      "type": "event"
    },
    {
      "anonymous": false,
      "inputs": [
        {
          "indexed": false,
          "internalType": "address",
          "name": "_rewardedAccount",
          "type": "address"
        },
        {
          "indexed": false,
          "internalType": "uint256",
          "name": "_rewardAmount",
          "type": "uint256"
        }
      ],
      "name": "Rewarded",
      "type": "event"
    },
    {
      "inputs": [],
      "name": "accountingEngine",
      "outputs": [
        {
          "internalType": "contract IAccountingEngine",
          "name": "",
          "type": "address"
        }
      ],
      "stateMutability": "view",
      "type": "function"
    },
    {
      "inputs": [
        {
          "internalType": "address",
          "name": "_account",
          "type": "address"
        }
      ],
      "name": "addAuthorization",
      "outputs": [],
      "stateMutability": "nonpayable",
      "type": "function"
    },
    {
      "inputs": [
        {
          "internalType": "address",
          "name": "_account",
          "type": "address"
        }
      ],
      "name": "authorizedAccounts",
      "outputs": [
        {
          "internalType": "bool",
          "name": "_authorized",
          "type": "bool"
        }
      ],
      "stateMutability": "view",
      "type": "function"
    },
    {
      "inputs": [],
      "name": "authorizedAccounts",
      "outputs": [
        {
          "internalType": "address[]",
          "name": "_accounts",
          "type": "address[]"
        }
      ],
      "stateMutability": "view",
      "type": "function"
    },
    {
      "inputs": [
        {
          "internalType": "bytes32",
          "name": "_cType",
          "type": "bytes32"
        },
        {
          "internalType": "bytes32",
          "name": "_param",
          "type": "bytes32"
        },
        {
          "internalType": "bytes",
          "name": "_data",
          "type": "bytes"
        }
      ],
      "name": "modifyParameters",
      "outputs": [],
      "stateMutability": "nonpayable",
      "type": "function"
    },
    {
      "inputs": [
        {
          "internalType": "bytes32",
          "name": "_param",
          "type": "bytes32"
        },
        {
          "internalType": "bytes",
          "name": "_data",
          "type": "bytes"
        }
      ],
      "name": "modifyParameters",
      "outputs": [],
      "stateMutability": "nonpayable",
      "type": "function"
    },
    {
      "inputs": [
        {
          "internalType": "address",
          "name": "_account",
          "type": "address"
        }
      ],
      "name": "removeAuthorization",
      "outputs": [],
      "stateMutability": "nonpayable",
      "type": "function"
    },
    {
      "inputs": [],
      "name": "rewardAmount",
      "outputs": [
        {
          "internalType": "uint256",
          "name": "",
          "type": "uint256"
        }
      ],
      "stateMutability": "view",
      "type": "function"
    },
    {
      "inputs": [],
      "name": "shouldWorkAuctionDebt",
      "outputs": [
        {
          "internalType": "bool",
          "name": "",
          "type": "bool"
        }
      ],
      "stateMutability": "view",
      "type": "function"
    },
    {
      "inputs": [],
      "name": "shouldWorkAuctionSurplus",
      "outputs": [
        {
          "internalType": "bool",
          "name": "",
          "type": "bool"
        }
      ],
      "stateMutability": "view",
      "type": "function"
    },
    {
      "inputs": [],
      "name": "shouldWorkPopDebtFromQueue",
      "outputs": [
        {
          "internalType": "bool",
          "name": "",
          "type": "bool"
        }
      ],
      "stateMutability": "view",
      "type": "function"
    },
    {
      "inputs": [],
      "name": "shouldWorkTransferExtraSurplus",
      "outputs": [
        {
          "internalType": "bool",
          "name": "",
          "type": "bool"
        }
      ],
      "stateMutability": "view",
      "type": "function"
    },
    {
      "inputs": [],
      "name": "stabilityFeeTreasury",
      "outputs": [
        {
          "internalType": "contract IStabilityFeeTreasury",
          "name": "",
          "type": "address"
        }
      ],
      "stateMutability": "view",
      "type": "function"
    },
    {
      "inputs": [],
      "name": "workAuctionDebt",
      "outputs": [],
      "stateMutability": "nonpayable",
      "type": "function"
    },
    {
      "inputs": [],
      "name": "workAuctionSurplus",
      "outputs": [],
      "stateMutability": "nonpayable",
      "type": "function"
    },
    {
      "inputs": [
        {
          "internalType": "uint256",
          "name": "_debtBlockTimestamp",
          "type": "uint256"
        }
      ],
      "name": "workPopDebtFromQueue",
      "outputs": [],
      "stateMutability": "nonpayable",
      "type": "function"
    },
    {
      "inputs": [],
      "name": "workTransferExtraSurplus",
      "outputs": [],
      "stateMutability": "nonpayable",
      "type": "function"
    }
  ],
  "bytecode": {
    "object": "0x60806040523480156200001157600080fd5b50604051620014e1380380620014e18339810160408190526200003491620001aa565b600180546001600160a01b0319166001600160a01b0384161790556000819055336200006081620000b0565b505060048054600163ffffff01600160c01b03199091166401000000006001600160a01b03959095169490940260ff1916939093179290921763ffffff00191663010101001790915550620001eb565b620000bd6002826200011b565b1562000102576040516001600160a01b03821681527f599a298163e1678bb1c676052a8930bf0b8a1261ed6e01b8a2391e55f70001029060200160405180910390a150565b604051633013e93f60e11b815260040160405180910390fd5b600062000132836001600160a01b0384166200013b565b90505b92915050565b6000818152600183016020526040812054620001845750815460018181018455600084815260208082209093018490558454848252828601909352604090209190915562000135565b50600062000135565b80516001600160a01b0381168114620001a557600080fd5b919050565b600080600060608486031215620001c057600080fd5b620001cb846200018d565b9250620001db602085016200018d565b9150604084015190509250925092565b6112e680620001fb6000396000f3fe608060405234801561001057600080fd5b506004361061011b5760003560e01c806358d1141f116100b25780638482081411610081578063961d45c411610066578063961d45c41461024e578063da8a4bb814610276578063f7b2a7be1461028957600080fd5b8063848208141461023357806394f3f81d1461023b57600080fd5b806358d1141f146101bc5780635eadae8e146101c95780636e5d9d1a146101dc57806372b6f12a146101ee57600080fd5b80632e391876116100ee5780632e3918761461016d57806335b28153146101825780635140d0421461019557806357fbd947146101a857600080fd5b8063063501fa1461012057806312f335261461012a57806324ba58841461013d5780632781ef1c14610165575b600080fd5b6101286102a0565b005b610128610138366004611053565b610432565b61015061014b3660046110a3565b6104bd565b60405190151581526020015b60405180910390f35b6101286104ce565b610175610602565b60405161015c91906110d9565b6101286101903660046110a3565b610613565b6004546101509062010000900460ff1681565b600454610150906301000000900460ff1681565b6004546101509060ff1681565b6101286101d7366004611133565b61065e565b60045461015090610100900460ff1681565b60015461020e9073ffffffffffffffffffffffffffffffffffffffff1681565b60405173ffffffffffffffffffffffffffffffffffffffff909116815260200161015c565b6101286107f4565b6101286102493660046110a3565b6108a3565b60045461020e90640100000000900473ffffffffffffffffffffffffffffffffffffffff1681565b61012861028436600461114c565b6108eb565b61029260005481565b60405190815260200161015c565b6004546301000000900460ff166102e3576040517f3bf5822400000000000000000000000000000000000000000000000000000000815260040160405180910390fd5b60048054906101000a900473ffffffffffffffffffffffffffffffffffffffff1673ffffffffffffffffffffffffffffffffffffffff166344e330c46040518163ffffffff1660e01b8152600401600060405180830381600087803b15801561034b57600080fd5b505af115801561035f573d6000803e3d6000fd5b50506001546000546040517fc6cdbcbb000000000000000000000000000000000000000000000000000000008152336004820152602481019190915273ffffffffffffffffffffffffffffffffffffffff909116925063c6cdbcbb91506044015b600060405180830381600087803b1580156103da57600080fd5b505af11580156103ee573d6000803e3d6000fd5b50506000546040805133815260208101929092527fb3b7a071186534c03b40695710096f289fd4ed6c1a374aff0bb648955e4fe563935001905060405180910390a1565b61043b33610974565b610471576040517f82b4290000000000000000000000000000000000000000000000000000000000815260040160405180910390fd5b8261047d8484846109a1565b83837fe436a8be7dc6aab90b400800ecc86e46fb600f2e18989b5d0389840fdabbf2ed846040516104ae9190611193565b60405180910390a35b50505050565b60006104c882610974565b92915050565b600454610100900460ff1661050f576040517f3bf5822400000000000000000000000000000000000000000000000000000000815260040160405180910390fd5b60048054906101000a900473ffffffffffffffffffffffffffffffffffffffff1673ffffffffffffffffffffffffffffffffffffffff16633d2fa89b6040518163ffffffff1660e01b81526004016020604051808303816000875af115801561057c573d6000803e3d6000fd5b505050506040513d601f19601f820116820180604052508101906105a091906111ff565b506001546000546040517fc6cdbcbb000000000000000000000000000000000000000000000000000000008152336004820152602481019190915273ffffffffffffffffffffffffffffffffffffffff9091169063c6cdbcbb906044016103c0565b606061060e60026109d3565b905090565b61061c33610974565b610652576040517f82b4290000000000000000000000000000000000000000000000000000000000815260040160405180910390fd5b61065b816109e7565b50565b60045460ff1661069a576040517f3bf5822400000000000000000000000000000000000000000000000000000000815260040160405180910390fd5b600480546040517f8b24dc3e000000000000000000000000000000000000000000000000000000008152918201839052640100000000900473ffffffffffffffffffffffffffffffffffffffff1690638b24dc3e90602401600060405180830381600087803b15801561070c57600080fd5b505af1158015610720573d6000803e3d6000fd5b50506001546000546040517fc6cdbcbb000000000000000000000000000000000000000000000000000000008152336004820152602481019190915273ffffffffffffffffffffffffffffffffffffffff909116925063c6cdbcbb9150604401600060405180830381600087803b15801561079a57600080fd5b505af11580156107ae573d6000803e3d6000fd5b50506000546040805133815260208101929092527fb3b7a071186534c03b40695710096f289fd4ed6c1a374aff0bb648955e4fe56393500190505b60405180910390a150565b60045462010000900460ff16610836576040517f3bf5822400000000000000000000000000000000000000000000000000000000815260040160405180910390fd5b60048054906101000a900473ffffffffffffffffffffffffffffffffffffffff1673ffffffffffffffffffffffffffffffffffffffff1663ff713a9f6040518163ffffffff1660e01b81526004016020604051808303816000875af115801561057c573d6000803e3d6000fd5b6108ac33610974565b6108e2576040517f82b4290000000000000000000000000000000000000000000000000000000000815260040160405180910390fd5b61065b81610a6f565b6108f433610974565b61092a576040517f82b4290000000000000000000000000000000000000000000000000000000000815260040160405180910390fd5b6109348282610af7565b6000801b827fe436a8be7dc6aab90b400800ecc86e46fb600f2e18989b5d0389840fdabbf2ed836040516109689190611193565b60405180910390a35050565b73ffffffffffffffffffffffffffffffffffffffff811660009081526003602052604081205415156104c8565b6040517f9d2ff48000000000000000000000000000000000000000000000000000000000815260040160405180910390fd5b606060006109e083610d97565b9392505050565b6109f2600282610df3565b15610a3d5760405173ffffffffffffffffffffffffffffffffffffffff821681527f599a298163e1678bb1c676052a8930bf0b8a1261ed6e01b8a2391e55f7000102906020016107e9565b6040517f6027d27e00000000000000000000000000000000000000000000000000000000815260040160405180910390fd5b610a7a600282610e15565b15610ac55760405173ffffffffffffffffffffffffffffffffffffffff821681527f8834a87e641e9716be4f34527af5d23e11624f1ddeefede6ad75a9acfc31b903906020016107e9565b6040517fea8e4eb500000000000000000000000000000000000000000000000000000000815260040160405180910390fd5b6000610b04826020015190565b90506000610b13836020015190565b9050837f6163636f756e74696e67456e67696e650000000000000000000000000000000003610b8857600480547fffffffffffffffff0000000000000000000000000000000000000000ffffffff1664010000000073ffffffffffffffffffffffffffffffffffffffff8516021790556104b7565b837f73746162696c697479466565547265617375727900000000000000000000000003610bf457600180547fffffffffffffffffffffffff00000000000000000000000000000000000000001673ffffffffffffffffffffffffffffffffffffffff84161790556104b7565b837f73686f756c64576f726b506f704465627446726f6d517565756500000000000003610c4c57600480547fffffffffffffffffffffffffffffffffffffffffffffffffffffffffffffff00168215151790556104b7565b837f73686f756c64576f726b41756374696f6e44656274000000000000000000000003610ca857600480547fffffffffffffffffffffffffffffffffffffffffffffffffffffffffffff00ff16610100831515021790556104b7565b837f73686f756c64576f726b41756374696f6e537572706c7573000000000000000003610d0557600480547fffffffffffffffffffffffffffffffffffffffffffffffffffffffffff00ffff1662010000831515021790556104b7565b837f73686f756c64576f726b5472616e736665724578747261537572706c7573000003610d6357600480547fffffffffffffffffffffffffffffffffffffffffffffffffffffffff00ffffff166301000000831515021790556104b7565b837f726577617264416d6f756e740000000000000000000000000000000000000000036109a15760208301516000556104b7565b606081600001805480602002602001604051908101604052809291908181526020018280548015610de757602002820191906000526020600020905b815481526020019060010190808311610dd3575b50505050509050919050565b60006109e08373ffffffffffffffffffffffffffffffffffffffff8416610e37565b60006109e08373ffffffffffffffffffffffffffffffffffffffff8416610e86565b6000818152600183016020526040812054610e7e575081546001818101845560008481526020808220909301849055845484825282860190935260409020919091556104c8565b5060006104c8565b60008181526001830160205260408120548015610f6f576000610eaa600183611218565b8554909150600090610ebe90600190611218565b9050818114610f23576000866000018281548110610ede57610ede611252565b9060005260206000200154905080876000018481548110610f0157610f01611252565b6000918252602080832090910192909255918252600188019052604090208390555b8554869080610f3457610f34611281565b6001900381819060005260206000200160009055905585600101600086815260200190815260200160002060009055600193505050506104c8565b60009150506104c8565b7f4e487b7100000000000000000000000000000000000000000000000000000000600052604160045260246000fd5b600082601f830112610fb957600080fd5b813567ffffffffffffffff80821115610fd457610fd4610f79565b604051601f83017fffffffffffffffffffffffffffffffffffffffffffffffffffffffffffffffe0908116603f0116810190828211818310171561101a5761101a610f79565b8160405283815286602085880101111561103357600080fd5b836020870160208301376000602085830101528094505050505092915050565b60008060006060848603121561106857600080fd5b8335925060208401359150604084013567ffffffffffffffff81111561108d57600080fd5b61109986828701610fa8565b9150509250925092565b6000602082840312156110b557600080fd5b813573ffffffffffffffffffffffffffffffffffffffff811681146109e057600080fd5b6020808252825182820181905260009190848201906040850190845b8181101561112757835173ffffffffffffffffffffffffffffffffffffffff16835292840192918401916001016110f5565b50909695505050505050565b60006020828403121561114557600080fd5b5035919050565b6000806040838503121561115f57600080fd5b82359150602083013567ffffffffffffffff81111561117d57600080fd5b61118985828601610fa8565b9150509250929050565b600060208083528351808285015260005b818110156111c0578581018301518582016040015282016111a4565b5060006040828601015260407fffffffffffffffffffffffffffffffffffffffffffffffffffffffffffffffe0601f8301168501019250505092915050565b60006020828403121561121157600080fd5b5051919050565b818103818111156104c8577f4e487b7100000000000000000000000000000000000000000000000000000000600052601160045260246000fd5b7f4e487b7100000000000000000000000000000000000000000000000000000000600052603260045260246000fd5b7f4e487b7100000000000000000000000000000000000000000000000000000000600052603160045260246000fdfea26469706673582212206a233ac0ce20fedd924609445acc4bdb19d538e4e074fa47374e5b5ceb4a374364736f6c63430008130033",
    "linkReferences": {}
  },
  "methodIdentifiers": {
    "accountingEngine()": "961d45c4",
    "addAuthorization(address)": "35b28153",
    "authorizedAccounts()": "2e391876",
    "authorizedAccounts(address)": "24ba5884",
    "modifyParameters(bytes32,bytes)": "da8a4bb8",
    "modifyParameters(bytes32,bytes32,bytes)": "12f33526",
    "removeAuthorization(address)": "94f3f81d",
    "rewardAmount()": "f7b2a7be",
    "shouldWorkAuctionDebt()": "6e5d9d1a",
    "shouldWorkAuctionSurplus()": "5140d042",
    "shouldWorkPopDebtFromQueue()": "58d1141f",
    "shouldWorkTransferExtraSurplus()": "57fbd947",
    "stabilityFeeTreasury()": "72b6f12a",
    "workAuctionDebt()": "2781ef1c",
    "workAuctionSurplus()": "84820814",
    "workPopDebtFromQueue(uint256)": "5eadae8e",
    "workTransferExtraSurplus()": "063501fa"
  },
  "id": 111
}