{
  "abi": [
    {
      "inputs": [
        {
          "internalType": "address",
          "name": "_safeEngine",
          "type": "address"
        },
        {
          "internalType": "address",
          "name": "_surplusAuctionHouse",
          "type": "address"
        },
        {
          "internalType": "address",
          "name": "_debtAuctionHouse",
          "type": "address"
        },
        {
          "components": [
            {
              "internalType": "uint256",
              "name": "surplusIsTransferred",
              "type": "uint256"
            },
            {
              "internalType": "uint256",
              "name": "surplusDelay",
              "type": "uint256"
            },
            {
              "internalType": "uint256",
              "name": "popDebtDelay",
              "type": "uint256"
            },
            {
              "internalType": "uint256",
              "name": "disableCooldown",
              "type": "uint256"
            },
            {
              "internalType": "uint256",
              "name": "surplusAmount",
              "type": "uint256"
            },
            {
              "internalType": "uint256",
              "name": "surplusBuffer",
              "type": "uint256"
            },
            {
              "internalType": "uint256",
              "name": "debtAuctionMintedTokens",
              "type": "uint256"
            },
            {
              "internalType": "uint256",
              "name": "debtAuctionBidSize",
              "type": "uint256"
            }
          ],
          "internalType": "struct IAccountingEngine.AccountingEngineParams",
          "name": "_accEngineParams",
          "type": "tuple"
        }
      ],
      "stateMutability": "nonpayable",
      "type": "constructor"
    },
    {
      "inputs": [],
      "name": "AccEng_DebtAuctionDisabled",
      "type": "error"
    },
    {
      "inputs": [],
      "name": "AccEng_DebtNotZero",
      "type": "error"
    },
    {
      "inputs": [],
      "name": "AccEng_InsufficientDebt",
      "type": "error"
    },
    {
      "inputs": [],
      "name": "AccEng_InsufficientSurplus",
      "type": "error"
    },
    {
      "inputs": [],
      "name": "AccEng_NullAmount",
      "type": "error"
    },
    {
      "inputs": [],
      "name": "AccEng_NullSurplusReceiver",
      "type": "error"
    },
    {
      "inputs": [],
      "name": "AccEng_PopDebtCooldown",
      "type": "error"
    },
    {
      "inputs": [],
      "name": "AccEng_PostSettlementCooldown",
      "type": "error"
    },
    {
      "inputs": [],
      "name": "AccEng_SurplusAuctionDisabled",
      "type": "error"
    },
    {
      "inputs": [],
      "name": "AccEng_SurplusCooldown",
      "type": "error"
    },
    {
      "inputs": [],
      "name": "AccEng_SurplusNotZero",
      "type": "error"
    },
    {
      "inputs": [],
      "name": "AccEng_SurplusTransferDisabled",
      "type": "error"
    },
    {
      "inputs": [],
      "name": "AlreadyAuthorized",
      "type": "error"
    },
    {
      "inputs": [],
      "name": "ContractIsDisabled",
      "type": "error"
    },
    {
      "inputs": [],
      "name": "ContractIsEnabled",
      "type": "error"
    },
    {
      "inputs": [],
      "name": "NonDisableable",
      "type": "error"
    },
    {
      "inputs": [],
      "name": "NotAuthorized",
      "type": "error"
    },
    {
      "inputs": [],
      "name": "NullAddress",
      "type": "error"
    },
    {
      "inputs": [],
      "name": "Unauthorized",
      "type": "error"
    },
    {
      "inputs": [],
      "name": "UnrecognizedCType",
      "type": "error"
    },
    {
      "inputs": [],
      "name": "UnrecognizedParam",
      "type": "error"
    },
    {
      "anonymous": false,
      "inputs": [
        {
          "indexed": false,
          "internalType": "address",
          "name": "_account",
          "type": "address"
        }
      ],
      "name": "AddAuthorization",
      "type": "event"
    },
    {
      "anonymous": false,
      "inputs": [
        {
          "indexed": true,
          "internalType": "uint256",
          "name": "_id",
          "type": "uint256"
        },
        {
          "indexed": false,
          "internalType": "uint256",
          "name": "_initialBid",
          "type": "uint256"
        },
        {
          "indexed": false,
          "internalType": "uint256",
          "name": "_debtAuctioned",
          "type": "uint256"
        }
      ],
      "name": "AuctionDebt",
      "type": "event"
    },
    {
      "anonymous": false,
      "inputs": [
        {
          "indexed": true,
          "internalType": "uint256",
          "name": "_id",
          "type": "uint256"
        },
        {
          "indexed": false,
          "internalType": "uint256",
          "name": "_initialBid",
          "type": "uint256"
        },
        {
          "indexed": false,
          "internalType": "uint256",
          "name": "_surplusAuctioned",
          "type": "uint256"
        }
      ],
      "name": "AuctionSurplus",
      "type": "event"
    },
    {
      "anonymous": false,
      "inputs": [
        {
          "indexed": false,
          "internalType": "uint256",
          "name": "_rad",
          "type": "uint256"
        },
        {
          "indexed": false,
          "internalType": "uint256",
          "name": "_coinBalance",
          "type": "uint256"
        },
        {
          "indexed": false,
          "internalType": "uint256",
          "name": "_debtBalance",
          "type": "uint256"
        }
      ],
      "name": "CancelDebt",
      "type": "event"
    },
    {
      "anonymous": false,
      "inputs": [],
      "name": "DisableContract",
      "type": "event"
    },
    {
      "anonymous": false,
      "inputs": [
        {
          "indexed": true,
          "internalType": "bytes32",
          "name": "_param",
          "type": "bytes32"
        },
        {
          "indexed": true,
          "internalType": "bytes32",
          "name": "_cType",
          "type": "bytes32"
        },
        {
          "indexed": false,
          "internalType": "bytes",
          "name": "_data",
          "type": "bytes"
        }
      ],
      "name": "ModifyParameters",
      "type": "event"
    },
    {
      "anonymous": false,
      "inputs": [
        {
          "indexed": true,
          "internalType": "uint256",
          "name": "_timestamp",
          "type": "uint256"
        },
        {
          "indexed": false,
          "internalType": "uint256",
          "name": "_debtAmount",
          "type": "uint256"
        }
      ],
      "name": "PopDebtFromQueue",
      "type": "event"
    },
    {
      "anonymous": false,
      "inputs": [
        {
          "indexed": true,
          "internalType": "uint256",
          "name": "_timestamp",
          "type": "uint256"
        },
        {
          "indexed": false,
          "internalType": "uint256",
          "name": "_debtAmount",
          "type": "uint256"
        }
      ],
      "name": "PushDebtToQueue",
      "type": "event"
    },
    {
      "anonymous": false,
      "inputs": [
        {
          "indexed": false,
          "internalType": "address",
          "name": "_account",
          "type": "address"
        }
      ],
      "name": "RemoveAuthorization",
      "type": "event"
    },
    {
      "anonymous": false,
      "inputs": [
        {
          "indexed": false,
          "internalType": "uint256",
          "name": "_rad",
          "type": "uint256"
        },
        {
          "indexed": false,
          "internalType": "uint256",
          "name": "_coinBalance",
          "type": "uint256"
        },
        {
          "indexed": false,
          "internalType": "uint256",
          "name": "_debtBalance",
          "type": "uint256"
        }
      ],
      "name": "SettleDebt",
      "type": "event"
    },
    {
      "anonymous": false,
      "inputs": [
        {
          "indexed": true,
          "internalType": "address",
          "name": "_extraSurplusReceiver",
          "type": "address"
        },
        {
          "indexed": false,
          "internalType": "uint256",
          "name": "_surplusTransferred",
          "type": "uint256"
        }
      ],
      "name": "TransferSurplus",
      "type": "event"
    },
    {
      "inputs": [],
      "name": "_params",
      "outputs": [
        {
          "internalType": "uint256",
          "name": "surplusIsTransferred",
          "type": "uint256"
        },
        {
          "internalType": "uint256",
          "name": "surplusDelay",
          "type": "uint256"
        },
        {
          "internalType": "uint256",
          "name": "popDebtDelay",
          "type": "uint256"
        },
        {
          "internalType": "uint256",
          "name": "disableCooldown",
          "type": "uint256"
        },
        {
          "internalType": "uint256",
          "name": "surplusAmount",
          "type": "uint256"
        },
        {
          "internalType": "uint256",
          "name": "surplusBuffer",
          "type": "uint256"
        },
        {
          "internalType": "uint256",
          "name": "debtAuctionMintedTokens",
          "type": "uint256"
        },
        {
          "internalType": "uint256",
          "name": "debtAuctionBidSize",
          "type": "uint256"
        }
      ],
      "stateMutability": "view",
      "type": "function"
    },
    {
      "inputs": [
        {
          "internalType": "address",
          "name": "_account",
          "type": "address"
        }
      ],
      "name": "addAuthorization",
      "outputs": [],
      "stateMutability": "nonpayable",
      "type": "function"
    },
    {
      "inputs": [],
      "name": "auctionDebt",
      "outputs": [
        {
          "internalType": "uint256",
          "name": "_id",
          "type": "uint256"
        }
      ],
      "stateMutability": "nonpayable",
      "type": "function"
    },
    {
      "inputs": [],
      "name": "auctionSurplus",
      "outputs": [
        {
          "internalType": "uint256",
          "name": "_id",
          "type": "uint256"
        }
      ],
      "stateMutability": "nonpayable",
      "type": "function"
    },
    {
      "inputs": [
        {
          "internalType": "address",
          "name": "_account",
          "type": "address"
        }
      ],
      "name": "authorizedAccounts",
      "outputs": [
        {
          "internalType": "bool",
          "name": "_authorized",
          "type": "bool"
        }
      ],
      "stateMutability": "view",
      "type": "function"
    },
    {
      "inputs": [],
      "name": "authorizedAccounts",
      "outputs": [
        {
          "internalType": "address[]",
          "name": "_accounts",
          "type": "address[]"
        }
      ],
      "stateMutability": "view",
      "type": "function"
    },
    {
      "inputs": [
        {
          "internalType": "uint256",
          "name": "_rad",
          "type": "uint256"
        }
      ],
      "name": "cancelAuctionedDebtWithSurplus",
      "outputs": [],
      "stateMutability": "nonpayable",
      "type": "function"
    },
    {
      "inputs": [],
      "name": "contractEnabled",
      "outputs": [
        {
          "internalType": "bool",
          "name": "",
          "type": "bool"
        }
      ],
      "stateMutability": "view",
      "type": "function"
    },
    {
      "inputs": [],
      "name": "debtAuctionHouse",
      "outputs": [
        {
          "internalType": "contract IDebtAuctionHouse",
          "name": "",
          "type": "address"
        }
      ],
      "stateMutability": "view",
      "type": "function"
    },
    {
      "inputs": [
        {
          "internalType": "uint256",
          "name": "",
          "type": "uint256"
        }
      ],
      "name": "debtQueue",
      "outputs": [
        {
          "internalType": "uint256",
          "name": "",
          "type": "uint256"
        }
      ],
      "stateMutability": "view",
      "type": "function"
    },
    {
      "inputs": [],
      "name": "disableContract",
      "outputs": [],
      "stateMutability": "nonpayable",
      "type": "function"
    },
    {
      "inputs": [],
      "name": "disableTimestamp",
      "outputs": [
        {
          "internalType": "uint256",
          "name": "",
          "type": "uint256"
        }
      ],
      "stateMutability": "view",
      "type": "function"
    },
    {
      "inputs": [],
      "name": "extraSurplusReceiver",
      "outputs": [
        {
          "internalType": "address",
          "name": "",
          "type": "address"
        }
      ],
      "stateMutability": "view",
      "type": "function"
    },
    {
      "inputs": [],
      "name": "lastSurplusTime",
      "outputs": [
        {
          "internalType": "uint256",
          "name": "",
          "type": "uint256"
        }
      ],
      "stateMutability": "view",
      "type": "function"
    },
    {
      "inputs": [
        {
          "internalType": "bytes32",
          "name": "_cType",
          "type": "bytes32"
        },
        {
          "internalType": "bytes32",
          "name": "_param",
          "type": "bytes32"
        },
        {
          "internalType": "bytes",
          "name": "_data",
          "type": "bytes"
        }
      ],
      "name": "modifyParameters",
      "outputs": [],
      "stateMutability": "nonpayable",
      "type": "function"
    },
    {
      "inputs": [
        {
          "internalType": "bytes32",
          "name": "_param",
          "type": "bytes32"
        },
        {
          "internalType": "bytes",
          "name": "_data",
          "type": "bytes"
        }
      ],
      "name": "modifyParameters",
      "outputs": [],
      "stateMutability": "nonpayable",
      "type": "function"
    },
    {
      "inputs": [],
      "name": "params",
      "outputs": [
        {
          "components": [
            {
              "internalType": "uint256",
              "name": "surplusIsTransferred",
              "type": "uint256"
            },
            {
              "internalType": "uint256",
              "name": "surplusDelay",
              "type": "uint256"
            },
            {
              "internalType": "uint256",
              "name": "popDebtDelay",
              "type": "uint256"
            },
            {
              "internalType": "uint256",
              "name": "disableCooldown",
              "type": "uint256"
            },
            {
              "internalType": "uint256",
              "name": "surplusAmount",
              "type": "uint256"
            },
            {
              "internalType": "uint256",
              "name": "surplusBuffer",
              "type": "uint256"
            },
            {
              "internalType": "uint256",
              "name": "debtAuctionMintedTokens",
              "type": "uint256"
            },
            {
              "internalType": "uint256",
              "name": "debtAuctionBidSize",
              "type": "uint256"
            }
          ],
          "internalType": "struct IAccountingEngine.AccountingEngineParams",
          "name": "_accEngineParams",
          "type": "tuple"
        }
      ],
      "stateMutability": "view",
      "type": "function"
    },
    {
      "inputs": [
        {
          "internalType": "uint256",
          "name": "_debtBlockTimestamp",
          "type": "uint256"
        }
      ],
      "name": "popDebtFromQueue",
      "outputs": [],
      "stateMutability": "nonpayable",
      "type": "function"
    },
    {
      "inputs": [],
      "name": "postSettlementSurplusDrain",
      "outputs": [
        {
          "internalType": "address",
          "name": "",
          "type": "address"
        }
      ],
      "stateMutability": "view",
      "type": "function"
    },
    {
      "inputs": [
        {
          "internalType": "uint256",
          "name": "_debtBlock",
          "type": "uint256"
        }
      ],
      "name": "pushDebtToQueue",
      "outputs": [],
      "stateMutability": "nonpayable",
      "type": "function"
    },
    {
      "inputs": [
        {
          "internalType": "address",
          "name": "_account",
          "type": "address"
        }
      ],
      "name": "removeAuthorization",
      "outputs": [],
      "stateMutability": "nonpayable",
      "type": "function"
    },
    {
      "inputs": [],
      "name": "safeEngine",
      "outputs": [
        {
          "internalType": "contract ISAFEEngine",
          "name": "",
          "type": "address"
        }
      ],
      "stateMutability": "view",
      "type": "function"
    },
    {
      "inputs": [
        {
          "internalType": "uint256",
          "name": "_rad",
          "type": "uint256"
        }
      ],
      "name": "settleDebt",
      "outputs": [],
      "stateMutability": "nonpayable",
      "type": "function"
    },
    {
      "inputs": [],
      "name": "surplusAuctionHouse",
      "outputs": [
        {
          "internalType": "contract ISurplusAuctionHouse",
          "name": "",
          "type": "address"
        }
      ],
      "stateMutability": "view",
      "type": "function"
    },
    {
      "inputs": [],
      "name": "totalOnAuctionDebt",
      "outputs": [
        {
          "internalType": "uint256",
          "name": "",
          "type": "uint256"
        }
      ],
      "stateMutability": "view",
      "type": "function"
    },
    {
      "inputs": [],
      "name": "totalQueuedDebt",
      "outputs": [
        {
          "internalType": "uint256",
          "name": "",
          "type": "uint256"
        }
      ],
      "stateMutability": "view",
      "type": "function"
    },
    {
      "inputs": [],
      "name": "transferExtraSurplus",
      "outputs": [],
      "stateMutability": "nonpayable",
      "type": "function"
    },
    {
      "inputs": [],
      "name": "transferPostSettlementSurplus",
      "outputs": [],
      "stateMutability": "nonpayable",
      "type": "function"
    },
    {
      "inputs": [],
      "name": "unqueuedUnauctionedDebt",
      "outputs": [
        {
          "internalType": "uint256",
          "name": "__unqueuedUnauctionedDebt",
          "type": "uint256"
        }
      ],
      "stateMutability": "view",
      "type": "function"
    }
  ],
  "bytecode": {
    "object": "0x60806040526002805460ff191660011790553480156200001e57600080fd5b5060405162002d6638038062002d66833981016040819052620000419162000359565b336200004d8162000104565b50620000626001600160a01b03851662000172565b600280546001600160a01b039290921661010002610100600160a81b03199092169190911790556200009483620001a0565b600480546001600160a01b0319166001600160a01b038416179055426012558051600755602081015160085560408101516009556060810151600a556080810151600b5560a0810151600c5560c0810151600d5560e0810151600e55620000fa6200029b565b5050505062000447565b62000111600082620002ca565b1562000156576040516001600160a01b03821681527f599a298163e1678bb1c676052a8930bf0b8a1261ed6e01b8a2391e55f70001029060200160405180910390a150565b604051633013e93f60e11b815260040160405180910390fd5b50565b60006001600160a01b0382166200019c5760405163e99d5ac560e01b815260040160405180910390fd5b5090565b6003546001600160a01b0316156200021b5760025460035460405163d49d786760e01b81526001600160a01b039182166004820152610100909204169063d49d786790602401600060405180830381600087803b1580156200020157600080fd5b505af115801562000216573d6000803e3d6000fd5b505050505b600380546001600160a01b0319166001600160a01b03838116918217909255600254604051631b29a84160e31b8152600481019290925261010090049091169063d94d420890602401600060405180830381600087803b1580156200027f57600080fd5b505af115801562000294573d6000803e3d6000fd5b5050505050565b600354620002b2906001600160a01b031662000172565b506004546200016f906001600160a01b031662000172565b6000620002e1836001600160a01b038416620002ea565b90505b92915050565b60008181526001830160205260408120546200033357508154600181810184556000848152602080822090930184905584548482528286019093526040902091909155620002e4565b506000620002e4565b80516001600160a01b03811681146200035457600080fd5b919050565b6000806000808486036101608112156200037257600080fd5b6200037d866200033c565b94506200038d602087016200033c565b93506200039d604087016200033c565b925061010080605f1983011215620003b457600080fd5b60405191508082016001600160401b0381118382101715620003e657634e487b7160e01b600052604160045260246000fd5b8060405250606087015182526080870151602083015260a0870151604083015260c0870151606083015260e087015160808301528087015160a08301525061012086015160c082015261014086015160e08201528091505092959194509250565b61290f80620004576000396000f3fe608060405234801561001057600080fd5b50600436106101cf5760003560e01c8063552b16ab11610104578063b39f841c116100a2578063d8872aeb11610071578063d8872aeb14610455578063da8a4bb81461045d578063fa8838af14610470578063ff713a9f1461047857600080fd5b8063b39f841c146103b3578063cdacaaca146103c6578063cff0ab96146103d9578063d68813671461044257600080fd5b8063894ba833116100de578063894ba833146103725780638b24dc3e1461037a57806394f3f81d1461038d578063a8b30a9f146103a057600080fd5b8063552b16ab146102f057806367aea3131461035157806369264ffa1461036957600080fd5b80633977a3191161017157806341b3a0d91161014b57806341b3a0d9146102a757806344e330c4146102b4578063492f9b3a146102bc5780634e6afb9e146102c557600080fd5b80633977a3191461026c5780633d2fa89b1461028c5780633dc4ab1d1461029457600080fd5b806327a0bb33116101ad57806327a0bb33146102285780632d09f11d1461023b5780632e3918761461024457806335b281531461025957600080fd5b80630f44d6bd146101d457806312f33526146101f057806324ba588414610205575b600080fd5b6101dd60115481565b6040519081526020015b60405180910390f35b6102036101fe36600461267b565b610480565b005b6102186102133660046126cb565b61050b565b60405190151581526020016101e7565b6102036102363660046126f4565b61051c565b6101dd60105481565b61024c61063c565b6040516101e7919061270d565b6102036102673660046126cb565b61064d565b6101dd61027a3660046126f4565b600f6020526000908152604090205481565b6101dd6106d4565b6102036102a23660046126f4565b610988565b6002546102189060ff1681565b610203610bf5565b6101dd60135481565b6006546102d8906001600160a01b031681565b6040516001600160a01b0390911681526020016101e7565b600754600854600954600a54600b54600c54600d54600e54610316979695949392919088565b604080519889526020890197909752958701949094526060860192909252608085015260a084015260c083015260e0820152610100016101e7565b6002546102d89061010090046001600160a01b031681565b6101dd60125481565b610203610f5f565b6102036103883660046126f4565b611035565b61020361039b3660046126cb565b61111a565b6102036103ae3660046126f4565b611162565b6004546102d8906001600160a01b031681565b6003546102d8906001600160a01b031681565b6103e1611215565b6040516101e79190600061010082019050825182526020830151602083015260408301516040830152606083015160608301526080830151608083015260a083015160a083015260c083015160c083015260e083015160e083015292915050565b6005546102d8906001600160a01b031681565b6101dd6112ab565b61020361046b36600461275a565b611340565b6102036113d1565b6101dd6116aa565b610489336119c9565b6104bf576040517f82b4290000000000000000000000000000000000000000000000000000000000815260040160405180910390fd5b826104cb8484846119d5565b83837fe436a8be7dc6aab90b400800ecc86e46fb600f2e18989b5d0389840fdabbf2ed846040516104fc91906127a1565b60405180910390a35b50505050565b6000610516826119c9565b92915050565b6002546040517ffabde80c0000000000000000000000000000000000000000000000000000000081523060048201526106379161010090046001600160a01b03169063fabde80c90602401602060405180830381865afa158015610584573d6000803e3d6000fd5b505050506040513d601f19601f820116820180604052508101906105a8919061280d565b6002546040517f11005b070000000000000000000000000000000000000000000000000000000081523060048201526101009091046001600160a01b0316906311005b0790602401602060405180830381865afa15801561060d573d6000803e3d6000fd5b505050506040513d601f19601f82011682018060405250810190610631919061280d565b83611a07565b505050565b60606106486000611b65565b905090565b610656336119c9565b61068c576040517f82b4290000000000000000000000000000000000000000000000000000000000815260040160405180910390fd5b60025460ff166106c8576040517f7abbf1c900000000000000000000000000000000000000000000000000000000815260040160405180910390fd5b6106d181611b79565b50565b600e546000908103610712576040517fd294732600000000000000000000000000000000000000000000000000000000815260040160405180910390fd5b6002546040517ffabde80c00000000000000000000000000000000000000000000000000000000815230600482015260009161010090046001600160a01b03169063fabde80c90602401602060405180830381865afa158015610779573d6000803e3d6000fd5b505050506040513d601f19601f8201168201806040525081019061079d919061280d565b6002546040517f11005b070000000000000000000000000000000000000000000000000000000081523060048201529192506000916101009091046001600160a01b0316906311005b0790602401602060405180830381865afa158015610808573d6000803e3d6000fd5b505050506040513d601f19601f8201168201806040525081019061082c919061280d565b905061083781611bfb565b600e541115610872576040517fd0119cde00000000000000000000000000000000000000000000000000000000815260040160405180910390fd5b61087d828284611a07565b600e546011805493955091935091600090610899908490612855565b909155505060048054600d54600e546040517f56dd47550000000000000000000000000000000000000000000000000000000081523094810194909452602484019190915260448301526001600160a01b0316906356dd4755906064016020604051808303816000875af1158015610915573d6000803e3d6000fd5b505050506040513d601f19601f82011682018060405250810190610939919061280d565b600d54600e5460405192955085927fa92a5e554d2e8bfa74170e5591680f0c7eb5e56c545c5f53e253500e50d6d52d9261097b92908252602082015260400190565b60405180910390a2505090565b6011548111156109c4576040517fd0119cde00000000000000000000000000000000000000000000000000000000815260040160405180910390fd5b6002546040517ffabde80c00000000000000000000000000000000000000000000000000000000815230600482015260009161010090046001600160a01b03169063fabde80c90602401602060405180830381865afa158015610a2b573d6000803e3d6000fd5b505050506040513d601f19601f82011682018060405250810190610a4f919061280d565b905080821115610a8b576040517fb77941c900000000000000000000000000000000000000000000000000000000815260040160405180910390fd5b6002546040517f27a0bb33000000000000000000000000000000000000000000000000000000008152600481018490526101009091046001600160a01b0316906327a0bb3390602401600060405180830381600087803b158015610aee57600080fd5b505af1158015610b02573d6000803e3d6000fd5b505050508160116000828254610b189190612868565b909155507f9e487d1a6c836179e16bb5fcf0610ad9ade7ab1e5457c350b9fc72a324cabf4d905082610b4a8184612868565b6002546040517f11005b070000000000000000000000000000000000000000000000000000000081523060048201526101009091046001600160a01b0316906311005b0790602401602060405180830381865afa158015610baf573d6000803e3d6000fd5b505050506040513d601f19601f82011682018060405250810190610bd3919061280d565b6040805193845260208401929092529082015260600160405180910390a15050565b600754600114610c31576040517ffffd596f00000000000000000000000000000000000000000000000000000000815260040160405180910390fd5b6006546001600160a01b0316610c73576040517feb486ece00000000000000000000000000000000000000000000000000000000815260040160405180910390fd5b600b54600003610caf576040517f2e9c2cad00000000000000000000000000000000000000000000000000000000815260040160405180910390fd5b600854601254610cbf9190612855565b421015610cf8576040517fcadb9a1900000000000000000000000000000000000000000000000000000000815260040160405180910390fd5b6002546040517ffabde80c00000000000000000000000000000000000000000000000000000000815230600482015260009161010090046001600160a01b03169063fabde80c90602401602060405180830381865afa158015610d5f573d6000803e3d6000fd5b505050506040513d601f19601f82011682018060405250810190610d83919061280d565b6002546040517f11005b070000000000000000000000000000000000000000000000000000000081523060048201529192506000916101009091046001600160a01b0316906311005b0790602401602060405180830381865afa158015610dee573d6000803e3d6000fd5b505050506040513d601f19601f82011682018060405250810190610e12919061280d565b9050610e278282610e2284611bfb565b611a07565b600c54600b5492945090925090610e3e9083612855565b610e489190612855565b821015610e81576040517fb77941c900000000000000000000000000000000000000000000000000000000815260040160405180910390fd5b600254600654600b546040517fefabcadc0000000000000000000000000000000000000000000000000000000081523060048201526001600160a01b0392831660248201526044810191909152610100909204169063efabcadc90606401600060405180830381600087803b158015610ef957600080fd5b505af1158015610f0d573d6000803e3d6000fd5b5050426012555050600654600b546040519081526001600160a01b03909116907f10fec8a672c9827d4853167c0f560fdf755764ecdc8f2cdc6fb563f9e061db57906020015b60405180910390a25050565b610f68336119c9565b610f9e576040517f82b4290000000000000000000000000000000000000000000000000000000000815260040160405180910390fd5b60025460ff16610fda576040517f7abbf1c900000000000000000000000000000000000000000000000000000000815260040160405180910390fd5b600280547fffffffffffffffffffffffffffffffffffffffffffffffffffffffffffffff0016905561100a611c18565b6040517f2d4b4ecff7bd7503135271925520a2f6c0d98c9473ffc1a1e72c92502f51b25e90600090a1565b6009546110429082612855565b42101561107b576040517fda389b7c00000000000000000000000000000000000000000000000000000000815260040160405180910390fd5b6000818152600f6020526040812054908190036110c4576040517f2e9c2cad00000000000000000000000000000000000000000000000000000000815260040160405180910390fd5b806010546110d29190612868565b6010556000828152600f6020526040808220919091555182907ff982c8f78f5eb8f5f0416a30912a37e7b791d2857f7193598b9d88ffd1baf16090610f539084815260200190565b611123336119c9565b611159576040517f82b4290000000000000000000000000000000000000000000000000000000000815260040160405180910390fd5b6106d181611eac565b61116b336119c9565b6111a1576040517f82b4290000000000000000000000000000000000000000000000000000000000815260040160405180910390fd5b426000908152600f60205260409020546111bc908290612855565b426000908152600f60205260409020556010546111da908290612855565b60105560405181815242907fe92891ade9a090ee87df4ab2aaa0b6ee7df7fd2445cab665c1149c9d8ab79f289060200160405180910390a250565b61125d60405180610100016040528060008152602001600081526020016000815260200160008152602001600081526020016000815260200160008152602001600081525090565b5060408051610100810182526007548152600854602082015260095491810191909152600a546060820152600b546080820152600c5460a0820152600d5460c0820152600e5460e082015290565b6002546040517f11005b07000000000000000000000000000000000000000000000000000000008152306004820152600091610648916101009091046001600160a01b0316906311005b0790602401602060405180830381865afa158015611317573d6000803e3d6000fd5b505050506040513d601f19601f8201168201806040525081019061133b919061280d565b611bfb565b611349336119c9565b61137f576040517f82b4290000000000000000000000000000000000000000000000000000000000815260040160405180910390fd5b6113898282611f27565b6000801b827fe436a8be7dc6aab90b400800ecc86e46fb600f2e18989b5d0389840fdabbf2ed836040516113bd91906127a1565b60405180910390a36113cd61221f565b5050565b60025460ff161561140e576040517ff59a25d600000000000000000000000000000000000000000000000000000000815260040160405180910390fd5b6005546001600160a01b0316611450576040517feb486ece00000000000000000000000000000000000000000000000000000000815260040160405180910390fd5b600a546013546114609190612855565b421015611499576040517fde42e63b00000000000000000000000000000000000000000000000000000000815260040160405180910390fd5b6002546040517ffabde80c00000000000000000000000000000000000000000000000000000000815230600482015260009161010090046001600160a01b03169063fabde80c90602401602060405180830381865afa158015611500573d6000803e3d6000fd5b505050506040513d601f19601f82011682018060405250810190611524919061280d565b6002546040517f11005b070000000000000000000000000000000000000000000000000000000081523060048201529192506000916101009091046001600160a01b0316906311005b0790602401602060405180830381865afa15801561158f573d6000803e3d6000fd5b505050506040513d601f19601f820116820180604052508101906115b3919061280d565b905060006115c1838361224a565b90506115ce838383611a07565b5092508215610637576002546005546040517fefabcadc0000000000000000000000000000000000000000000000000000000081523060048201526001600160a01b03918216602482015260448101869052610100909204169063efabcadc90606401600060405180830381600087803b15801561164b57600080fd5b505af115801561165f573d6000803e3d6000fd5b50506005546040518681526001600160a01b0390911692507f10fec8a672c9827d4853167c0f560fdf755764ecdc8f2cdc6fb563f9e061db57915060200160405180910390a2505050565b6007546000906001036116e9576040517f18c6359500000000000000000000000000000000000000000000000000000000815260040160405180910390fd5b600b54600003611725576040517f2e9c2cad00000000000000000000000000000000000000000000000000000000815260040160405180910390fd5b6008546012546117359190612855565b42101561176e576040517fcadb9a1900000000000000000000000000000000000000000000000000000000815260040160405180910390fd5b6002546040517ffabde80c00000000000000000000000000000000000000000000000000000000815230600482015260009161010090046001600160a01b03169063fabde80c90602401602060405180830381865afa1580156117d5573d6000803e3d6000fd5b505050506040513d601f19601f820116820180604052508101906117f9919061280d565b6002546040517f11005b070000000000000000000000000000000000000000000000000000000081523060048201529192506000916101009091046001600160a01b0316906311005b0790602401602060405180830381865afa158015611864573d6000803e3d6000fd5b505050506040513d601f19601f82011682018060405250810190611888919061280d565b90506118988282610e2284611bfb565b600c54600b54929450909250906118af9083612855565b6118b99190612855565b8210156118f2576040517fb77941c900000000000000000000000000000000000000000000000000000000815260040160405180910390fd5b600354600b546040517f4fee13fc0000000000000000000000000000000000000000000000000000000081526004810191909152600060248201526001600160a01b0390911690634fee13fc906044016020604051808303816000875af1158015611961573d6000803e3d6000fd5b505050506040513d601f19601f82011682018060405250810190611985919061280d565b42601255600b546040805160008152602081019290925291945084917f7d0821ff1f59d07fef9cd0f28753cd787fc228208807379c23b9eecddccd6b07910161097b565b60006105168183612261565b6040517f9d2ff48000000000000000000000000000000000000000000000000000000000815260040160405180910390fd5b60008084831115611a44576040517fb77941c900000000000000000000000000000000000000000000000000000000815260040160405180910390fd5b611a4d84611bfb565b831115611a86576040517fd0119cde00000000000000000000000000000000000000000000000000000000815260040160405180910390fd5b6002546040517f27a0bb33000000000000000000000000000000000000000000000000000000008152600481018590526101009091046001600160a01b0316906327a0bb3390602401600060405180830381600087803b158015611ae957600080fd5b505af1158015611afd573d6000803e3d6000fd5b505050508285611b0d9190612868565b9150611b198385612868565b60408051858152602081018590529081018290529091507faa3cda6ae2bb6ad9e5234a74ba9fede531dec740965eafd0b7ac9d3b90443f869060600160405180910390a1935093915050565b60606000611b7283612283565b9392505050565b611b846000826122df565b15611bc9576040516001600160a01b03821681527f599a298163e1678bb1c676052a8930bf0b8a1261ed6e01b8a2391e55f7000102906020015b60405180910390a150565b6040517f6027d27e00000000000000000000000000000000000000000000000000000000815260040160405180910390fd5b600060115460105483611c0e9190612868565b6105169190612868565b60006010819055601181905542601355600354604080517f894ba83300000000000000000000000000000000000000000000000000000000815290516001600160a01b039092169263894ba8339260048084019382900301818387803b158015611c8157600080fd5b505af1158015611c95573d6000803e3d6000fd5b505060048054604080517f894ba83300000000000000000000000000000000000000000000000000000000815290516001600160a01b03909216945063894ba8339350808301926000929182900301818387803b158015611cf557600080fd5b505af1158015611d09573d6000803e3d6000fd5b50506002546040517ffabde80c00000000000000000000000000000000000000000000000000000000815230600482015260009350611e2b92506101009091046001600160a01b03169063fabde80c90602401602060405180830381865afa158015611d79573d6000803e3d6000fd5b505050506040513d601f19601f82011682018060405250810190611d9d919061280d565b6002546040517f11005b070000000000000000000000000000000000000000000000000000000081523060048201526101009091046001600160a01b0316906311005b0790602401602060405180830381865afa158015611e02573d6000803e3d6000fd5b505050506040513d601f19601f82011682018060405250810190611e26919061280d565b61224a565b6002546040517f27a0bb330000000000000000000000000000000000000000000000000000000081526004810183905291925061010090046001600160a01b0316906327a0bb33906024015b600060405180830381600087803b158015611e9157600080fd5b505af1158015611ea5573d6000803e3d6000fd5b5050505050565b611eb76000826122f4565b15611ef5576040516001600160a01b03821681527f8834a87e641e9716be4f34527af5d23e11624f1ddeefede6ad75a9acfc31b90390602001611bbe565b6040517fea8e4eb500000000000000000000000000000000000000000000000000000000815260040160405180910390fd5b6000611f34826020015190565b90506000611f43836020015190565b9050837f737572706c757349735472616e7366657272656400000000000000000000000003611f76576007829055610505565b837f737572706c757344656c6179000000000000000000000000000000000000000003611fa7576008829055610505565b837f706f704465627444656c6179000000000000000000000000000000000000000003611fd8576009829055610505565b837f64697361626c65436f6f6c646f776e00000000000000000000000000000000000361200957600a829055610505565b837f737572706c7573416d6f756e74000000000000000000000000000000000000000361203a57600b829055610505565b837f6465627441756374696f6e42696453697a6500000000000000000000000000000361206b57600e829055610505565b837f6465627441756374696f6e4d696e746564546f6b656e730000000000000000000361209c57600d829055610505565b837f737572706c757342756666657200000000000000000000000000000000000000036120cd57600c829055610505565b837f737572706c757341756374696f6e486f7573650000000000000000000000000003612102576120fd81612309565b610505565b837f6465627441756374696f6e486f757365000000000000000000000000000000000361216157600480547fffffffffffffffffffffffff0000000000000000000000000000000000000000166001600160a01b038316179055610505565b837f706f7374536574746c656d656e74537572706c7573447261696e000000000000036121c057600580547fffffffffffffffffffffffff0000000000000000000000000000000000000000166001600160a01b038316179055610505565b837f6578747261537572706c75735265636569766572000000000000000000000000036119d557600680547fffffffffffffffffffffffff0000000000000000000000000000000000000000166001600160a01b038316179055610505565b600354612234906001600160a01b0316612419565b506004546106d1906001600160a01b0316612419565b60008183111561225a5781611b72565b5090919050565b6001600160a01b03811660009081526001830160205260408120541515611b72565b6060816000018054806020026020016040519081016040528092919081815260200182805480156122d357602002820191906000526020600020905b8154815260200190600101908083116122bf575b50505050509050919050565b6000611b72836001600160a01b03841661245f565b6000611b72836001600160a01b0384166124ae565b6003546001600160a01b03161561239a576002546003546040517fd49d78670000000000000000000000000000000000000000000000000000000081526001600160a01b039182166004820152610100909204169063d49d786790602401600060405180830381600087803b15801561238157600080fd5b505af1158015612395573d6000803e3d6000fd5b505050505b600380547fffffffffffffffffffffffff0000000000000000000000000000000000000000166001600160a01b038381169182179092556002546040517fd94d4208000000000000000000000000000000000000000000000000000000008152600481019290925261010090049091169063d94d420890602401611e77565b60006001600160a01b03821661245b576040517fe99d5ac500000000000000000000000000000000000000000000000000000000815260040160405180910390fd5b5090565b60008181526001830160205260408120546124a657508154600181810184556000848152602080822090930184905584548482528286019093526040902091909155610516565b506000610516565b600081815260018301602052604081205480156125975760006124d2600183612868565b85549091506000906124e690600190612868565b905081811461254b5760008660000182815481106125065761250661287b565b90600052602060002001549050808760000184815481106125295761252961287b565b6000918252602080832090910192909255918252600188019052604090208390555b855486908061255c5761255c6128aa565b600190038181906000526020600020016000905590558560010160008681526020019081526020016000206000905560019350505050610516565b6000915050610516565b7f4e487b7100000000000000000000000000000000000000000000000000000000600052604160045260246000fd5b600082601f8301126125e157600080fd5b813567ffffffffffffffff808211156125fc576125fc6125a1565b604051601f83017fffffffffffffffffffffffffffffffffffffffffffffffffffffffffffffffe0908116603f01168101908282118183101715612642576126426125a1565b8160405283815286602085880101111561265b57600080fd5b836020870160208301376000602085830101528094505050505092915050565b60008060006060848603121561269057600080fd5b8335925060208401359150604084013567ffffffffffffffff8111156126b557600080fd5b6126c1868287016125d0565b9150509250925092565b6000602082840312156126dd57600080fd5b81356001600160a01b0381168114611b7257600080fd5b60006020828403121561270657600080fd5b5035919050565b6020808252825182820181905260009190848201906040850190845b8181101561274e5783516001600160a01b031683529284019291840191600101612729565b50909695505050505050565b6000806040838503121561276d57600080fd5b82359150602083013567ffffffffffffffff81111561278b57600080fd5b612797858286016125d0565b9150509250929050565b600060208083528351808285015260005b818110156127ce578581018301518582016040015282016127b2565b5060006040828601015260407fffffffffffffffffffffffffffffffffffffffffffffffffffffffffffffffe0601f8301168501019250505092915050565b60006020828403121561281f57600080fd5b5051919050565b7f4e487b7100000000000000000000000000000000000000000000000000000000600052601160045260246000fd5b8082018082111561051657610516612826565b8181038181111561051657610516612826565b7f4e487b7100000000000000000000000000000000000000000000000000000000600052603260045260246000fd5b7f4e487b7100000000000000000000000000000000000000000000000000000000600052603160045260246000fdfea264697066735822122095b3ad231d49982a000f3904ef96a22a3ff9e0e715ced1fa547dcd0c89e13fe564736f6c63430008130033",
    "linkReferences": {}
  },
  "methodIdentifiers": {
    "_params()": "552b16ab",
    "addAuthorization(address)": "35b28153",
    "auctionDebt()": "3d2fa89b",
    "auctionSurplus()": "ff713a9f",
    "authorizedAccounts()": "2e391876",
    "authorizedAccounts(address)": "24ba5884",
    "cancelAuctionedDebtWithSurplus(uint256)": "3dc4ab1d",
    "contractEnabled()": "41b3a0d9",
    "debtAuctionHouse()": "b39f841c",
    "debtQueue(uint256)": "3977a319",
    "disableContract()": "894ba833",
    "disableTimestamp()": "492f9b3a",
    "extraSurplusReceiver()": "4e6afb9e",
    "lastSurplusTime()": "69264ffa",
    "modifyParameters(bytes32,bytes)": "da8a4bb8",
    "modifyParameters(bytes32,bytes32,bytes)": "12f33526",
    "params()": "cff0ab96",
    "popDebtFromQueue(uint256)": "8b24dc3e",
    "postSettlementSurplusDrain()": "d6881367",
    "pushDebtToQueue(uint256)": "a8b30a9f",
    "removeAuthorization(address)": "94f3f81d",
    "safeEngine()": "67aea313",
    "settleDebt(uint256)": "27a0bb33",
    "surplusAuctionHouse()": "cdacaaca",
    "totalOnAuctionDebt()": "0f44d6bd",
    "totalQueuedDebt()": "2d09f11d",
    "transferExtraSurplus()": "44e330c4",
    "transferPostSettlementSurplus()": "fa8838af",
    "unqueuedUnauctionedDebt()": "d8872aeb"
  },
  "id": 51
}