{
  "abi": [
    {
      "inputs": [],
      "name": "IntOverflow",
      "type": "error"
    },
    {
      "inputs": [],
      "name": "OnlyDelegateCalls",
      "type": "error"
    },
    {
      "inputs": [
        {
          "internalType": "address",
          "name": "_coinJoin",
          "type": "address"
        }
      ],
      "name": "exitAllSystemCoins",
      "outputs": [],
      "stateMutability": "nonpayable",
      "type": "function"
    },
    {
      "inputs": [
        {
          "internalType": "address",
          "name": "_collateralJoin",
          "type": "address"
        },
        {
          "internalType": "uint256",
          "name": "_wad",
          "type": "uint256"
        }
      ],
      "name": "exitCollateral",
      "outputs": [],
      "stateMutability": "nonpayable",
      "type": "function"
    },
    {
      "inputs": [
        {
          "internalType": "address",
          "name": "_coinJoin",
          "type": "address"
        },
        {
          "internalType": "uint256",
          "name": "_coinsToExit",
          "type": "uint256"
        }
      ],
      "name": "exitSystemCoins",
      "outputs": [],
      "stateMutability": "nonpayable",
      "type": "function"
    },
    {
      "inputs": [
        {
          "internalType": "address",
          "name": "_manager",
          "type": "address"
        },
        {
          "internalType": "address",
          "name": "_collateralJoin",
          "type": "address"
        },
        {
          "internalType": "uint256",
          "name": "_safeId",
          "type": "uint256"
        },
        {
          "internalType": "uint256",
          "name": "_deltaWad",
          "type": "uint256"
        }
      ],
      "name": "freeTokenCollateral",
      "outputs": [],
      "stateMutability": "nonpayable",
      "type": "function"
    },
    {
      "inputs": [
        {
          "internalType": "address",
          "name": "_manager",
          "type": "address"
        },
        {
          "internalType": "address",
          "name": "_taxCollector",
          "type": "address"
        },
        {
          "internalType": "address",
          "name": "_coinJoin",
          "type": "address"
        },
        {
          "internalType": "uint256",
          "name": "_safeId",
          "type": "uint256"
        },
        {
          "internalType": "uint256",
          "name": "_deltaWad",
          "type": "uint256"
        }
      ],
      "name": "generateDebt",
      "outputs": [],
      "stateMutability": "nonpayable",
      "type": "function"
    },
    {
      "inputs": [
        {
          "internalType": "address",
          "name": "_coinJoin",
          "type": "address"
        },
        {
          "internalType": "address",
          "name": "_dst",
          "type": "address"
        },
        {
          "internalType": "uint256",
          "name": "_wad",
          "type": "uint256"
        }
      ],
      "name": "joinSystemCoins",
      "outputs": [],
      "stateMutability": "nonpayable",
      "type": "function"
    },
    {
      "inputs": [
        {
          "internalType": "address",
          "name": "_manager",
          "type": "address"
        },
        {
          "internalType": "address",
          "name": "_collateralJoin",
          "type": "address"
        },
        {
          "internalType": "uint256",
          "name": "_safeId",
          "type": "uint256"
        },
        {
          "internalType": "uint256",
          "name": "_deltaWad",
          "type": "uint256"
        }
      ],
      "name": "lockTokenCollateral",
      "outputs": [],
      "stateMutability": "nonpayable",
      "type": "function"
    },
    {
      "inputs": [
        {
          "internalType": "address",
          "name": "_manager",
          "type": "address"
        },
        {
          "internalType": "address",
          "name": "_taxCollector",
          "type": "address"
        },
        {
          "internalType": "address",
          "name": "_collateralJoin",
          "type": "address"
        },
        {
          "internalType": "address",
          "name": "_coinJoin",
          "type": "address"
        },
        {
          "internalType": "uint256",
          "name": "_safe",
          "type": "uint256"
        },
        {
          "internalType": "uint256",
          "name": "_collateralAmount",
          "type": "uint256"
        },
        {
          "internalType": "uint256",
          "name": "_deltaWad",
          "type": "uint256"
        }
      ],
      "name": "lockTokenCollateralAndGenerateDebt",
      "outputs": [],
      "stateMutability": "nonpayable",
      "type": "function"
    },
    {
      "inputs": [
        {
          "internalType": "address",
          "name": "_manager",
          "type": "address"
        },
        {
          "internalType": "address",
          "name": "_taxCollector",
          "type": "address"
        },
        {
          "internalType": "address",
          "name": "_collateralJoin",
          "type": "address"
        },
        {
          "internalType": "address",
          "name": "_coinJoin",
          "type": "address"
        },
        {
          "internalType": "bytes32",
          "name": "_cType",
          "type": "bytes32"
        },
        {
          "internalType": "uint256",
          "name": "_collateralAmount",
          "type": "uint256"
        },
        {
          "internalType": "uint256",
          "name": "_deltaWad",
          "type": "uint256"
        }
      ],
      "name": "openLockTokenCollateralAndGenerateDebt",
      "outputs": [
        {
          "internalType": "uint256",
          "name": "_safe",
          "type": "uint256"
        }
      ],
      "stateMutability": "nonpayable",
      "type": "function"
    },
    {
      "inputs": [
        {
          "internalType": "address",
          "name": "_manager",
          "type": "address"
        },
        {
          "internalType": "bytes32",
          "name": "_cType",
          "type": "bytes32"
        },
        {
          "internalType": "address",
          "name": "_usr",
          "type": "address"
        }
      ],
      "name": "openSAFE",
      "outputs": [
        {
          "internalType": "uint256",
          "name": "_safeId",
          "type": "uint256"
        }
      ],
      "stateMutability": "nonpayable",
      "type": "function"
    },
    {
      "inputs": [
        {
          "internalType": "address",
          "name": "_manager",
          "type": "address"
        },
        {
          "internalType": "address",
          "name": "_taxCollector",
          "type": "address"
        },
        {
          "internalType": "address",
          "name": "_coinJoin",
          "type": "address"
        },
        {
          "internalType": "uint256",
          "name": "_safeId",
          "type": "uint256"
        }
      ],
      "name": "repayAllDebt",
      "outputs": [],
      "stateMutability": "nonpayable",
      "type": "function"
    },
    {
      "inputs": [
        {
          "internalType": "address",
          "name": "_manager",
          "type": "address"
        },
        {
          "internalType": "address",
          "name": "_taxCollector",
          "type": "address"
        },
        {
          "internalType": "address",
          "name": "_collateralJoin",
          "type": "address"
        },
        {
          "internalType": "address",
          "name": "_coinJoin",
          "type": "address"
        },
        {
          "internalType": "uint256",
          "name": "_safeId",
          "type": "uint256"
        },
        {
          "internalType": "uint256",
          "name": "_collateralWad",
          "type": "uint256"
        }
      ],
      "name": "repayAllDebtAndFreeTokenCollateral",
      "outputs": [],
      "stateMutability": "nonpayable",
      "type": "function"
    },
    {
      "inputs": [
        {
          "internalType": "address",
          "name": "_manager",
          "type": "address"
        },
        {
          "internalType": "address",
          "name": "_taxCollector",
          "type": "address"
        },
        {
          "internalType": "address",
          "name": "_coinJoin",
          "type": "address"
        },
        {
          "internalType": "uint256",
          "name": "_safeId",
          "type": "uint256"
        },
        {
          "internalType": "uint256",
          "name": "_deltaWad",
          "type": "uint256"
        }
      ],
      "name": "repayDebt",
      "outputs": [],
      "stateMutability": "nonpayable",
      "type": "function"
    },
    {
      "inputs": [
        {
          "internalType": "address",
          "name": "_manager",
          "type": "address"
        },
        {
          "internalType": "address",
          "name": "_taxCollector",
          "type": "address"
        },
        {
          "internalType": "address",
          "name": "_collateralJoin",
          "type": "address"
        },
        {
          "internalType": "address",
          "name": "_coinJoin",
          "type": "address"
        },
        {
          "internalType": "uint256",
          "name": "_safeId",
          "type": "uint256"
        },
        {
          "internalType": "uint256",
          "name": "_collateralWad",
          "type": "uint256"
        },
        {
          "internalType": "uint256",
          "name": "_debtWad",
          "type": "uint256"
        }
      ],
      "name": "repayDebtAndFreeTokenCollateral",
      "outputs": [],
      "stateMutability": "nonpayable",
      "type": "function"
    }
  ],
  "bytecode": {
    "object": "0x60a06040523060805234801561001457600080fd5b50608051612ce061008b600039600081816102170152818161056e015281816105ca0152818161070a015281816109e101528181610a3401528181610aaf01528181610b1f01528181610b8001528181610c7401528181610ccd01528181610d2301528181610f240152610f770152612ce06000f3fe608060405234801561001057600080fd5b50600436106100ea5760003560e01c80637f5b1a1b1161008c578063b02f9e3d11610066578063b02f9e3d146101c1578063c3500b79146101d4578063d6f25400146101e7578063fd5418a6146101fa57600080fd5b80637f5b1a1b146101885780638f86e0151461019b578063902746d7146101ae57600080fd5b80634e8a5e3a116100c85780634e8a5e3a1461013c5780634f127f431461014f5780636093c975146101625780637a4d9a471461017557600080fd5b806309eb0899146100ef578063252fa0f6146101045780632da4673414610129575b600080fd5b6101026100fd3660046125ad565b61020d565b005b6101176101123660046125fe565b610562565b60405190815260200160405180910390f35b610102610137366004612640565b6105c0565b61010261014a366004612664565b610700565b61010261015d3660046126d2565b6109d7565b6101026101703660046126fe565b610a2a565b610117610183366004612744565b610aa3565b610102610196366004612744565b610b15565b6101026101a93660046126fe565b610b76565b6101026101bc3660046127bb565b610c6a565b6101026101cf3660046127fc565b610cc3565b6101026101e2366004612744565b610d19565b6101026101f53660046126d2565b610f1a565b6101026102083660046127fc565b610f6d565b6001600160a01b037f000000000000000000000000000000000000000000000000000000000000000016300361025657604051630406dd4b60e01b815260040160405180910390fd5b6000846001600160a01b03166367aea3136040518163ffffffff1660e01b8152600401602060405180830381865afa158015610296573d6000803e3d6000fd5b505050506040513d601f19601f820116820180604052508101906102ba9190612857565b6040517f35c9c6e9000000000000000000000000000000000000000000000000000000008152600481018490529091506000906001600160a01b038716906335c9c6e990602401606060405180830381865afa15801561031e573d6000803e3d6000fd5b505050506040513d601f19601f820116820180604052508101906103429190612874565b60408082015190517f6c50dbba0000000000000000000000000000000000000000000000000000000081529192506001600160a01b03871691636c50dbba916103919160040190815260200190565b6020604051808303816000875af11580156103b0573d6000803e3d6000fd5b505050506040513d601f19601f820116820180604052508101906103d49190612906565b50604080820151602083015191517f3d4225040000000000000000000000000000000000000000000000000000000081526000926001600160a01b03861692633d4225049261043892906004019182526001600160a01b0316602082015260400190565b6040805180830381865afa158015610454573d6000803e3d6000fd5b505050506040513d601f19601f82011682018060405250810190610478919061291f565b90506104988530610493863087604001518860200151610fc3565b6111d8565b826001600160a01b03166399bec315836040015184602001513030600087602001516104c3906129c4565b6040517fffffffff0000000000000000000000000000000000000000000000000000000060e089901b16815260048101969096526001600160a01b039485166024870152928416604486015292166064840152608483019190915260a482015260c4015b600060405180830381600087803b15801561054157600080fd5b505af1158015610555573d6000803e3d6000fd5b5050505050505050505050565b60006001600160a01b037f00000000000000000000000000000000000000000000000000000000000000001630036105ad57604051630406dd4b60e01b815260040160405180910390fd5b6105b88484846113ec565b949350505050565b6001600160a01b037f000000000000000000000000000000000000000000000000000000000000000016300361060957604051630406dd4b60e01b815260040160405180910390fd5b6000816001600160a01b03166367aea3136040518163ffffffff1660e01b8152600401602060405180830381865afa158015610649573d6000803e3d6000fd5b505050506040513d601f19601f8201168201806040525081019061066d9190612857565b6040517ffabde80c0000000000000000000000000000000000000000000000000000000081523060048201526001600160a01b03919091169063fabde80c90602401602060405180830381865afa1580156106cc573d6000803e3d6000fd5b505050506040513d601f19601f820116820180604052508101906106f09190612906565b90506106fc828261147c565b5050565b6001600160a01b037f000000000000000000000000000000000000000000000000000000000000000016300361074957604051630406dd4b60e01b815260040160405180910390fd5b6000866001600160a01b03166367aea3136040518163ffffffff1660e01b8152600401602060405180830381865afa158015610789573d6000803e3d6000fd5b505050506040513d601f19601f820116820180604052508101906107ad9190612857565b6040517f35c9c6e9000000000000000000000000000000000000000000000000000000008152600481018590529091506000906001600160a01b038916906335c9c6e990602401606060405180830381865afa158015610811573d6000803e3d6000fd5b505050506040513d601f19601f820116820180604052508101906108359190612874565b60408082015190517f6c50dbba0000000000000000000000000000000000000000000000000000000081529192506001600160a01b03891691636c50dbba916108849160040190815260200190565b6020604051808303816000875af11580156108a3573d6000803e3d6000fd5b505050506040513d601f19601f820116820180604052508101906108c79190612906565b50604080820151602083015191517f3d4225040000000000000000000000000000000000000000000000000000000081526000926001600160a01b03861692633d4225049261092b92906004019182526001600160a01b0316602082015260400190565b6040805180830381865afa158015610947573d6000803e3d6000fd5b505050506040513d601f19601f8201168201806040525081019061096b919061291f565b905061098e86836020015161049386866020015187604001518860200151610fc3565b6109c0898661099c87611666565b6109a5906129c4565b6109b28560200151611666565b6109bb906129c4565b6116a7565b6109cc898887876116fb565b505050505050505050565b6001600160a01b037f0000000000000000000000000000000000000000000000000000000000000000163003610a2057604051630406dd4b60e01b815260040160405180910390fd5b6106fc828261147c565b6001600160a01b037f0000000000000000000000000000000000000000000000000000000000000000163003610a7357604051630406dd4b60e01b815260040160405180910390fd5b610a918483610a8184611666565b610a8a906129c4565b60006116a7565b610a9d848484846116fb565b50505050565b60006001600160a01b037f0000000000000000000000000000000000000000000000000000000000000000163003610aee57604051630406dd4b60e01b815260040160405180910390fd5b610af98885306113ec565b9050610b0a88888888858888611711565b979650505050505050565b6001600160a01b037f0000000000000000000000000000000000000000000000000000000000000000163003610b5e57604051630406dd4b60e01b815260040160405180910390fd5b610b6d87878787878787611711565b50505050505050565b6001600160a01b037f0000000000000000000000000000000000000000000000000000000000000000163003610bbf57604051630406dd4b60e01b815260040160405180910390fd5b6040517f35c9c6e9000000000000000000000000000000000000000000000000000000008152600481018390526000906001600160a01b038616906335c9c6e990602401606060405180830381865afa158015610c20573d6000803e3d6000fd5b505050506040513d601f19601f82011682018060405250810190610c449190612874565b9050610c55848260200151846118cd565b610c638584610a8a85611666565b5050505050565b6001600160a01b037f0000000000000000000000000000000000000000000000000000000000000000163003610cb357604051630406dd4b60e01b815260040160405180910390fd5b610cbe8383836111d8565b505050565b6001600160a01b037f0000000000000000000000000000000000000000000000000000000000000000163003610d0c57604051630406dd4b60e01b815260040160405180910390fd5b610c638585858585611b42565b6001600160a01b037f0000000000000000000000000000000000000000000000000000000000000000163003610d6257604051630406dd4b60e01b815260040160405180910390fd5b6000876001600160a01b03166367aea3136040518163ffffffff1660e01b8152600401602060405180830381865afa158015610da2573d6000803e3d6000fd5b505050506040513d601f19601f82011682018060405250810190610dc69190612857565b6040517f35c9c6e9000000000000000000000000000000000000000000000000000000008152600481018690529091506000906001600160a01b038a16906335c9c6e990602401606060405180830381865afa158015610e2a573d6000803e3d6000fd5b505050506040513d601f19601f82011682018060405250810190610e4e9190612874565b60408082015190517f6c50dbba0000000000000000000000000000000000000000000000000000000081529192506001600160a01b038a1691636c50dbba91610e9d9160040190815260200190565b6020604051808303816000875af1158015610ebc573d6000803e3d6000fd5b505050506040513d601f19601f82011682018060405250810190610ee09190612906565b50610ef0868260200151856111d8565b6109c08986610efe87611666565b610f07906129c4565b6109bb8686604001518760200151611ce8565b6001600160a01b037f0000000000000000000000000000000000000000000000000000000000000000163003610f6357604051630406dd4b60e01b815260040160405180910390fd5b6106fc8282611ece565b6001600160a01b037f0000000000000000000000000000000000000000000000000000000000000000163003610fb657604051630406dd4b60e01b815260040160405180910390fd5b610c638585858585612155565b6040517fb6e05a2e0000000000000000000000000000000000000000000000000000000081526004810183905260009081906001600160a01b0387169063b6e05a2e9060240160a060405180830381865afa158015611026573d6000803e3d6000fd5b505050506040513d601f19601f8201168201806040525081019061104a91906129fc565b60409081015190517f3d422504000000000000000000000000000000000000000000000000000000008152600481018690526001600160a01b038581166024830152919250600091881690633d422504906044016040805180830381865afa1580156110ba573d6000803e3d6000fd5b505050506040513d601f19601f820116820180604052508101906110de919061291f565b602001516040517ffabde80c0000000000000000000000000000000000000000000000000000000081526001600160a01b03888116600483015291925060009189169063fabde80c90602401602060405180830381865afa158015611147573d6000803e3d6000fd5b505050506040513d601f19601f8201168201806040525081019061116b9190612906565b905060008161117a8585612a93565b6111849190612ab0565b905061119c6b033b2e3c9fd0803ce800000082612ac3565b9450806111b56b033b2e3c9fd0803ce800000087612a93565b106111c057846111cb565b6111cb856001612afe565b9998505050505050505050565b806000036111e557505050565b6000836001600160a01b031663a7e944556040518163ffffffff1660e01b8152600401602060405180830381865afa158015611225573d6000803e3d6000fd5b505050506040513d601f19601f820116820180604052508101906112499190612857565b6040517f23b872dd000000000000000000000000000000000000000000000000000000008152336004820152306024820152604481018490529091506001600160a01b038216906323b872dd906064016020604051808303816000875af11580156112b8573d6000803e3d6000fd5b505050506040513d601f19601f820116820180604052508101906112dc9190612b11565b506040517f095ea7b30000000000000000000000000000000000000000000000000000000081526001600160a01b0385811660048301526024820184905282169063095ea7b3906044016020604051808303816000875af1158015611345573d6000803e3d6000fd5b505050506040513d601f19601f820116820180604052508101906113699190612b11565b506040517f3b4da69f0000000000000000000000000000000000000000000000000000000081526001600160a01b03848116600483015260248201849052851690633b4da69f906044015b600060405180830381600087803b1580156113ce57600080fd5b505af11580156113e2573d6000803e3d6000fd5b5050505050505050565b6040517fd983ff95000000000000000000000000000000000000000000000000000000008152600481018390526001600160a01b0382811660248301526000919085169063d983ff95906044016020604051808303816000875af1158015611458573d6000803e3d6000fd5b505050506040513d601f19601f820116820180604052508101906105b89190612906565b80600003611488575050565b60008290506000816001600160a01b03166367aea3136040518163ffffffff1660e01b8152600401602060405180830381865afa1580156114cd573d6000803e3d6000fd5b505050506040513d601f19601f820116820180604052508101906114f19190612857565b6040517f50de215d0000000000000000000000000000000000000000000000000000000081523060048201526001600160a01b038681166024830152919250908216906350de215d90604401602060405180830381865afa15801561155a573d6000803e3d6000fd5b505050506040513d601f19601f8201168201806040525081019061157e9190612b11565b6115f7576040517fd94d42080000000000000000000000000000000000000000000000000000000081526001600160a01b03858116600483015282169063d94d420890602401600060405180830381600087803b1580156115de57600080fd5b505af11580156115f2573d6000803e3d6000fd5b505050505b6001600160a01b03821663ef693bed3361161d6b033b2e3c9fd0803ce800000087612ac3565b6040517fffffffff0000000000000000000000000000000000000000000000000000000060e085901b1681526001600160a01b03909216600483015260248201526044016113b4565b8060008112156116a2576040517f44dddea200000000000000000000000000000000000000000000000000000000815260040160405180910390fd5b919050565b6040517fc78101f80000000000000000000000000000000000000000000000000000000081526004810184905260248101839052604481018290526001600160a01b0385169063c78101f8906064016113b4565b611707848330846122fd565b610a9d8382611ece565b6000876001600160a01b03166367aea3136040518163ffffffff1660e01b8152600401602060405180830381865afa158015611751573d6000803e3d6000fd5b505050506040513d601f19601f820116820180604052508101906117759190612857565b6040517f35c9c6e9000000000000000000000000000000000000000000000000000000008152600481018690529091506000906001600160a01b038a16906335c9c6e990602401606060405180830381865afa1580156117d9573d6000803e3d6000fd5b505050506040513d601f19601f820116820180604052508101906117fd9190612874565b60408082015190517f6c50dbba0000000000000000000000000000000000000000000000000000000081529192506001600160a01b038a1691636c50dbba9161184c9160040190815260200190565b6020604051808303816000875af115801561186b573d6000803e3d6000fd5b505050506040513d601f19601f8201168201806040525081019061188f9190612906565b5061189f878260200151866118cd565b6118c189866118ad87611666565b6109bb86866040015187602001518a612358565b6109cc89878786612500565b60008390506000816001600160a01b031663d8dfeb456040518163ffffffff1660e01b8152600401602060405180830381865afa158015611912573d6000803e3d6000fd5b505050506040513d601f19601f820116820180604052508101906119369190612857565b90506000816001600160a01b031663313ce5676040518163ffffffff1660e01b8152600401602060405180830381865afa158015611978573d6000803e3d6000fd5b505050506040513d601f19601f8201168201806040525081019061199c9190612b33565b60ff16905060006119ae826012612ab0565b6119b990600a612c76565b6119c39086612ac3565b9050806000036119d65750505050505050565b6040517f23b872dd000000000000000000000000000000000000000000000000000000008152336004820152306024820152604481018290526001600160a01b038416906323b872dd906064016020604051808303816000875af1158015611a42573d6000803e3d6000fd5b505050506040513d601f19601f82011682018060405250810190611a669190612b11565b506040517f095ea7b30000000000000000000000000000000000000000000000000000000081526001600160a01b0388811660048301526024820183905284169063095ea7b3906044016020604051808303816000875af1158015611acf573d6000803e3d6000fd5b505050506040513d601f19601f82011682018060405250810190611af39190612b11565b506040517f3b4da69f0000000000000000000000000000000000000000000000000000000081526001600160a01b03878116600483015260248201839052851690633b4da69f90604401610527565b6000856001600160a01b03166367aea3136040518163ffffffff1660e01b8152600401602060405180830381865afa158015611b82573d6000803e3d6000fd5b505050506040513d601f19601f82011682018060405250810190611ba69190612857565b6040517f35c9c6e9000000000000000000000000000000000000000000000000000000008152600481018590529091506000906001600160a01b038816906335c9c6e990602401606060405180830381865afa158015611c0a573d6000803e3d6000fd5b505050506040513d601f19601f82011682018060405250810190611c2e9190612874565b60408082015190517f6c50dbba0000000000000000000000000000000000000000000000000000000081529192506001600160a01b03881691636c50dbba91611c7d9160040190815260200190565b6020604051808303816000875af1158015611c9c573d6000803e3d6000fd5b505050506040513d601f19601f82011682018060405250810190611cc09190612906565b50611cdc878560006109bb86866040015187602001518a612358565b610b6d87868686612500565b6040517fb6e05a2e0000000000000000000000000000000000000000000000000000000081526004810183905260009081906001600160a01b0386169063b6e05a2e9060240160a060405180830381865afa158015611d4b573d6000803e3d6000fd5b505050506040513d601f19601f82011682018060405250810190611d6f91906129fc565b60409081015190517f3d422504000000000000000000000000000000000000000000000000000000008152600481018690526001600160a01b038581166024830152919250600091871690633d422504906044016040805180830381865afa158015611ddf573d6000803e3d6000fd5b505050506040513d601f19601f82011682018060405250810190611e03919061291f565b602001516040517ffabde80c0000000000000000000000000000000000000000000000000000000081526001600160a01b03868116600483015291925060009188169063fabde80c90602401602060405180830381865afa158015611e6c573d6000803e3d6000fd5b505050506040513d601f19601f82011682018060405250810190611e909190612906565b9050611ea4611e9f8483612ac3565b611666565b935081841115611ec557611eb782611666565b611ec0906129c4565b610b0a565b610b0a846129c4565b80600003611eda575050565b60008290506000816001600160a01b03166367aea3136040518163ffffffff1660e01b8152600401602060405180830381865afa158015611f1f573d6000803e3d6000fd5b505050506040513d601f19601f82011682018060405250810190611f439190612857565b6040517f50de215d0000000000000000000000000000000000000000000000000000000081523060048201526001600160a01b038681166024830152919250908216906350de215d90604401602060405180830381865afa158015611fac573d6000803e3d6000fd5b505050506040513d601f19601f82011682018060405250810190611fd09190612b11565b612049576040517fd94d42080000000000000000000000000000000000000000000000000000000081526001600160a01b03858116600483015282169063d94d420890602401600060405180830381600087803b15801561203057600080fd5b505af1158015612044573d6000803e3d6000fd5b505050505b6000826001600160a01b031663313ce5676040518163ffffffff1660e01b8152600401602060405180830381865afa158015612089573d6000803e3d6000fd5b505050506040513d601f19601f820116820180604052508101906120ad9190612906565b905060006120bc826012612ab0565b6120c790600a612c76565b6120d19086612ac3565b6040517fef693bed000000000000000000000000000000000000000000000000000000008152336004820152602481018290529091506001600160a01b0385169063ef693bed90604401600060405180830381600087803b15801561213557600080fd5b505af1158015612149573d6000803e3d6000fd5b50505050505050505050565b6000856001600160a01b03166367aea3136040518163ffffffff1660e01b8152600401602060405180830381865afa158015612195573d6000803e3d6000fd5b505050506040513d601f19601f820116820180604052508101906121b99190612857565b6040517f35c9c6e9000000000000000000000000000000000000000000000000000000008152600481018590529091506000906001600160a01b038816906335c9c6e990602401606060405180830381865afa15801561221d573d6000803e3d6000fd5b505050506040513d601f19601f820116820180604052508101906122419190612874565b60408082015190517f6c50dbba0000000000000000000000000000000000000000000000000000000081529192506001600160a01b03881691636c50dbba916122909160040190815260200190565b6020604051808303816000875af11580156122af573d6000803e3d6000fd5b505050506040513d601f19601f820116820180604052508101906122d39190612906565b506122e3858260200151856111d8565b610b6d878560006109bb8686604001518760200151611ce8565b8015610a9d576040517f871581a2000000000000000000000000000000000000000000000000000000008152600481018490526001600160a01b0383811660248301526044820183905285169063871581a2906064016113b4565b6040517fb6e05a2e0000000000000000000000000000000000000000000000000000000081526004810184905260009081906001600160a01b0387169063b6e05a2e9060240160a060405180830381865afa1580156123bb573d6000803e3d6000fd5b505050506040513d601f19601f820116820180604052508101906123df91906129fc565b60409081015190517ffabde80c0000000000000000000000000000000000000000000000000000000081526001600160a01b03868116600483015291925060009188169063fabde80c90602401602060405180830381865afa158015612449573d6000803e3d6000fd5b505050506040513d601f19601f8201168201806040525081019061246d9190612906565b90506124856b033b2e3c9fd0803ce800000085612a93565b8110156124f6576124bb82826124a76b033b2e3c9fd0803ce800000088612a93565b6124b19190612ab0565b611e9f9190612ac3565b92506124d36b033b2e3c9fd0803ce800000085612a93565b6124dd8385612a93565b106124e857826124f3565b6124f3836001612c82565b92505b5050949350505050565b61252184833061251c6b033b2e3c9fd0803ce800000086612a93565b612540565b610a9d8361253b6b033b2e3c9fd0803ce800000084612a93565b61147c565b6040517f660e1607000000000000000000000000000000000000000000000000000000008152600481018490526001600160a01b0383811660248301526044820183905285169063660e1607906064016113b4565b6001600160a01b03811681146125aa57600080fd5b50565b600080600080608085870312156125c357600080fd5b84356125ce81612595565b935060208501356125de81612595565b925060408501356125ee81612595565b9396929550929360600135925050565b60008060006060848603121561261357600080fd5b833561261e81612595565b925060208401359150604084013561263581612595565b809150509250925092565b60006020828403121561265257600080fd5b813561265d81612595565b9392505050565b60008060008060008060c0878903121561267d57600080fd5b863561268881612595565b9550602087013561269881612595565b945060408701356126a881612595565b935060608701356126b881612595565b9598949750929560808101359460a0909101359350915050565b600080604083850312156126e557600080fd5b82356126f081612595565b946020939093013593505050565b6000806000806080858703121561271457600080fd5b843561271f81612595565b9350602085013561272f81612595565b93969395505050506040820135916060013590565b600080600080600080600060e0888a03121561275f57600080fd5b873561276a81612595565b9650602088013561277a81612595565b9550604088013561278a81612595565b9450606088013561279a81612595565b9699959850939660808101359560a0820135955060c0909101359350915050565b6000806000606084860312156127d057600080fd5b83356127db81612595565b925060208401356127eb81612595565b929592945050506040919091013590565b600080600080600060a0868803121561281457600080fd5b853561281f81612595565b9450602086013561282f81612595565b9350604086013561283f81612595565b94979396509394606081013594506080013592915050565b60006020828403121561286957600080fd5b815161265d81612595565b60006060828403121561288657600080fd5b6040516060810181811067ffffffffffffffff821117156128d0577f4e487b7100000000000000000000000000000000000000000000000000000000600052604160045260246000fd5b60405282516128de81612595565b815260208301516128ee81612595565b60208201526040928301519281019290925250919050565b60006020828403121561291857600080fd5b5051919050565b60006040828403121561293157600080fd5b6040516040810181811067ffffffffffffffff8211171561297b577f4e487b7100000000000000000000000000000000000000000000000000000000600052604160045260246000fd5b604052825181526020928301519281019290925250919050565b7f4e487b7100000000000000000000000000000000000000000000000000000000600052601160045260246000fd5b60007f800000000000000000000000000000000000000000000000000000000000000082036129f5576129f5612995565b5060000390565b600060a08284031215612a0e57600080fd5b60405160a0810181811067ffffffffffffffff82111715612a58577f4e487b7100000000000000000000000000000000000000000000000000000000600052604160045260246000fd5b806040525082518152602083015160208201526040830151604082015260608301516060820152608083015160808201528091505092915050565b8082028115828204841417612aaa57612aaa612995565b92915050565b81810381811115612aaa57612aaa612995565b600082612af9577f4e487b7100000000000000000000000000000000000000000000000000000000600052601260045260246000fd5b500490565b80820180821115612aaa57612aaa612995565b600060208284031215612b2357600080fd5b8151801515811461265d57600080fd5b600060208284031215612b4557600080fd5b815160ff8116811461265d57600080fd5b600181815b80851115612baf57817fffffffffffffffffffffffffffffffffffffffffffffffffffffffffffffffff04821115612b9557612b95612995565b80851615612ba257918102915b93841c9390800290612b5b565b509250929050565b600082612bc657506001612aaa565b81612bd357506000612aaa565b8160018114612be95760028114612bf357612c0f565b6001915050612aaa565b60ff841115612c0457612c04612995565b50506001821b612aaa565b5060208310610133831016604e8410600b8410161715612c32575081810a612aaa565b612c3c8383612b56565b807fffffffffffffffffffffffffffffffffffffffffffffffffffffffffffffffff04821115612c6e57612c6e612995565b029392505050565b600061265d8383612bb7565b8082018281126000831280158216821582161715612ca257612ca2612995565b50509291505056fea2646970667358221220f356fb44aca368198ec3a5b65f97664c7d7677345ca96a7429caed61835b40f564736f6c63430008130033",
    "linkReferences": {}
  },
  "methodIdentifiers": {
    "exitAllSystemCoins(address)": "2da46734",
    "exitCollateral(address,uint256)": "d6f25400",
    "exitSystemCoins(address,uint256)": "4f127f43",
    "freeTokenCollateral(address,address,uint256,uint256)": "6093c975",
    "generateDebt(address,address,address,uint256,uint256)": "b02f9e3d",
    "joinSystemCoins(address,address,uint256)": "902746d7",
    "lockTokenCollateral(address,address,uint256,uint256)": "8f86e015",
    "lockTokenCollateralAndGenerateDebt(address,address,address,address,uint256,uint256,uint256)": "7f5b1a1b",
    "openLockTokenCollateralAndGenerateDebt(address,address,address,address,bytes32,uint256,uint256)": "7a4d9a47",
    "openSAFE(address,bytes32,address)": "252fa0f6",
    "repayAllDebt(address,address,address,uint256)": "09eb0899",
    "repayAllDebtAndFreeTokenCollateral(address,address,address,address,uint256,uint256)": "4e8a5e3a",
    "repayDebt(address,address,address,uint256,uint256)": "fd5418a6",
    "repayDebtAndFreeTokenCollateral(address,address,address,address,uint256,uint256,uint256)": "c3500b79"
  },
  "id": 124
}