{
  "abi": [
    {
      "inputs": [],
      "name": "IntOverflow",
      "type": "error"
    },
    {
      "inputs": [],
      "name": "OnlyDelegateCalls",
      "type": "error"
    },
    {
      "inputs": [
        {
          "internalType": "address",
          "name": "_coinJoin",
          "type": "address"
        }
      ],
      "name": "exitAllSystemCoins",
      "outputs": [],
      "stateMutability": "nonpayable",
      "type": "function"
    },
    {
      "inputs": [
        {
          "internalType": "address",
          "name": "_collateralJoin",
          "type": "address"
        },
        {
          "internalType": "uint256",
          "name": "_wad",
          "type": "uint256"
        }
      ],
      "name": "exitCollateral",
      "outputs": [],
      "stateMutability": "nonpayable",
      "type": "function"
    },
    {
      "inputs": [
        {
          "internalType": "address",
          "name": "_coinJoin",
          "type": "address"
        },
        {
          "internalType": "uint256",
          "name": "_coinsToExit",
          "type": "uint256"
        }
      ],
      "name": "exitSystemCoins",
      "outputs": [],
      "stateMutability": "nonpayable",
      "type": "function"
    },
    {
      "inputs": [
        {
          "internalType": "address",
          "name": "_manager",
          "type": "address"
        },
        {
          "internalType": "address",
          "name": "_collateralJoin",
          "type": "address"
        },
        {
          "internalType": "uint256",
          "name": "_safeId",
          "type": "uint256"
        },
        {
          "internalType": "uint256",
          "name": "_deltaWad",
          "type": "uint256"
        }
      ],
      "name": "freeTokenCollateral",
      "outputs": [],
      "stateMutability": "nonpayable",
      "type": "function"
    },
    {
      "inputs": [
        {
          "internalType": "address",
          "name": "_manager",
          "type": "address"
        },
        {
          "internalType": "address",
          "name": "_taxCollector",
          "type": "address"
        },
        {
          "internalType": "address",
          "name": "_coinJoin",
          "type": "address"
        },
        {
          "internalType": "uint256",
          "name": "_safeId",
          "type": "uint256"
        },
        {
          "internalType": "uint256",
          "name": "_deltaWad",
          "type": "uint256"
        }
      ],
      "name": "generateDebt",
      "outputs": [],
      "stateMutability": "nonpayable",
      "type": "function"
    },
    {
      "inputs": [
        {
          "internalType": "address",
          "name": "_coinJoin",
          "type": "address"
        },
        {
          "internalType": "address",
          "name": "_dst",
          "type": "address"
        },
        {
          "internalType": "uint256",
          "name": "_wad",
          "type": "uint256"
        }
      ],
      "name": "joinSystemCoins",
      "outputs": [],
      "stateMutability": "nonpayable",
      "type": "function"
    },
    {
      "inputs": [
        {
          "internalType": "address",
          "name": "_manager",
          "type": "address"
        },
        {
          "internalType": "address",
          "name": "_collateralJoin",
          "type": "address"
        },
        {
          "internalType": "uint256",
          "name": "_safeId",
          "type": "uint256"
        },
        {
          "internalType": "uint256",
          "name": "_deltaWad",
          "type": "uint256"
        }
      ],
      "name": "lockTokenCollateral",
      "outputs": [],
      "stateMutability": "nonpayable",
      "type": "function"
    },
    {
      "inputs": [
        {
          "internalType": "address",
          "name": "_manager",
          "type": "address"
        },
        {
          "internalType": "address",
          "name": "_taxCollector",
          "type": "address"
        },
        {
          "internalType": "address",
          "name": "_collateralJoin",
          "type": "address"
        },
        {
          "internalType": "address",
          "name": "_coinJoin",
          "type": "address"
        },
        {
          "internalType": "uint256",
          "name": "_safe",
          "type": "uint256"
        },
        {
          "internalType": "uint256",
          "name": "_collateralAmount",
          "type": "uint256"
        },
        {
          "internalType": "uint256",
          "name": "_deltaWad",
          "type": "uint256"
        }
      ],
      "name": "lockTokenCollateralAndGenerateDebt",
      "outputs": [],
      "stateMutability": "nonpayable",
      "type": "function"
    },
    {
      "inputs": [
        {
          "internalType": "address",
          "name": "_manager",
          "type": "address"
        },
        {
          "internalType": "address",
          "name": "_taxCollector",
          "type": "address"
        },
        {
          "internalType": "address",
          "name": "_collateralJoin",
          "type": "address"
        },
        {
          "internalType": "address",
          "name": "_coinJoin",
          "type": "address"
        },
        {
          "internalType": "bytes32",
          "name": "_cType",
          "type": "bytes32"
        },
        {
          "internalType": "uint256",
          "name": "_collateralAmount",
          "type": "uint256"
        },
        {
          "internalType": "uint256",
          "name": "_deltaWad",
          "type": "uint256"
        }
      ],
      "name": "openLockTokenCollateralAndGenerateDebt",
      "outputs": [
        {
          "internalType": "uint256",
          "name": "_safe",
          "type": "uint256"
        }
      ],
      "stateMutability": "nonpayable",
      "type": "function"
    },
    {
      "inputs": [
        {
          "internalType": "address",
          "name": "_manager",
          "type": "address"
        },
        {
          "internalType": "bytes32",
          "name": "_cType",
          "type": "bytes32"
        },
        {
          "internalType": "address",
          "name": "_usr",
          "type": "address"
        }
      ],
      "name": "openSAFE",
      "outputs": [
        {
          "internalType": "uint256",
          "name": "_safeId",
          "type": "uint256"
        }
      ],
      "stateMutability": "nonpayable",
      "type": "function"
    },
    {
      "inputs": [
        {
          "internalType": "address",
          "name": "_manager",
          "type": "address"
        },
        {
          "internalType": "address",
          "name": "_taxCollector",
          "type": "address"
        },
        {
          "internalType": "address",
          "name": "_coinJoin",
          "type": "address"
        },
        {
          "internalType": "uint256",
          "name": "_safeId",
          "type": "uint256"
        }
      ],
      "name": "repayAllDebt",
      "outputs": [],
      "stateMutability": "nonpayable",
      "type": "function"
    },
    {
      "inputs": [
        {
          "internalType": "address",
          "name": "_manager",
          "type": "address"
        },
        {
          "internalType": "address",
          "name": "_taxCollector",
          "type": "address"
        },
        {
          "internalType": "address",
          "name": "_collateralJoin",
          "type": "address"
        },
        {
          "internalType": "address",
          "name": "_coinJoin",
          "type": "address"
        },
        {
          "internalType": "uint256",
          "name": "_safeId",
          "type": "uint256"
        },
        {
          "internalType": "uint256",
          "name": "_collateralWad",
          "type": "uint256"
        }
      ],
      "name": "repayAllDebtAndFreeTokenCollateral",
      "outputs": [],
      "stateMutability": "nonpayable",
      "type": "function"
    },
    {
      "inputs": [
        {
          "internalType": "address",
          "name": "_manager",
          "type": "address"
        },
        {
          "internalType": "address",
          "name": "_taxCollector",
          "type": "address"
        },
        {
          "internalType": "address",
          "name": "_coinJoin",
          "type": "address"
        },
        {
          "internalType": "uint256",
          "name": "_safeId",
          "type": "uint256"
        },
        {
          "internalType": "uint256",
          "name": "_deltaWad",
          "type": "uint256"
        }
      ],
      "name": "repayDebt",
      "outputs": [],
      "stateMutability": "nonpayable",
      "type": "function"
    },
    {
      "inputs": [
        {
          "internalType": "address",
          "name": "_manager",
          "type": "address"
        },
        {
          "internalType": "address",
          "name": "_taxCollector",
          "type": "address"
        },
        {
          "internalType": "address",
          "name": "_collateralJoin",
          "type": "address"
        },
        {
          "internalType": "address",
          "name": "_coinJoin",
          "type": "address"
        },
        {
          "internalType": "uint256",
          "name": "_safeId",
          "type": "uint256"
        },
        {
          "internalType": "uint256",
          "name": "_collateralWad",
          "type": "uint256"
        },
        {
          "internalType": "uint256",
          "name": "_debtWad",
          "type": "uint256"
        }
      ],
      "name": "repayDebtAndFreeTokenCollateral",
      "outputs": [],
      "stateMutability": "nonpayable",
      "type": "function"
    }
  ],
  "bytecode": {
    "object": "0x60a06040523060805234801561001457600080fd5b50608051612c5561008b600039600081816102170152818161056e015281816105ca0152818161070a015281816109e101528181610a3401528181610aaf01528181610b1f01528181610b8001528181610be201528181610c3b01528181610c9801528181610e990152610eec0152612c556000f3fe608060405234801561001057600080fd5b50600436106100ea5760003560e01c80637f5b1a1b1161008c578063b02f9e3d11610066578063b02f9e3d146101c1578063c3500b79146101d4578063d6f25400146101e7578063fd5418a6146101fa57600080fd5b80637f5b1a1b146101885780638f86e0151461019b578063902746d7146101ae57600080fd5b80634e8a5e3a116100c85780634e8a5e3a1461013c5780634f127f431461014f5780636093c975146101625780637a4d9a471461017557600080fd5b806309eb0899146100ef578063252fa0f6146101045780632da4673414610129575b600080fd5b6101026100fd366004612522565b61020d565b005b610117610112366004612573565b610562565b60405190815260200160405180910390f35b6101026101373660046125b5565b6105c0565b61010261014a3660046125d9565b610700565b61010261015d366004612647565b6109d7565b610102610170366004612673565b610a2a565b6101176101833660046126b9565b610aa3565b6101026101963660046126b9565b610b15565b6101026101a9366004612673565b610b76565b6101026101bc366004612730565b610bd8565b6101026101cf366004612771565b610c31565b6101026101e23660046126b9565b610c8e565b6101026101f5366004612647565b610e8f565b610102610208366004612771565b610ee2565b6001600160a01b037f000000000000000000000000000000000000000000000000000000000000000016300361025657604051630406dd4b60e01b815260040160405180910390fd5b6000846001600160a01b03166367aea3136040518163ffffffff1660e01b8152600401602060405180830381865afa158015610296573d6000803e3d6000fd5b505050506040513d601f19601f820116820180604052508101906102ba91906127cc565b6040517f35c9c6e9000000000000000000000000000000000000000000000000000000008152600481018490529091506000906001600160a01b038716906335c9c6e990602401606060405180830381865afa15801561031e573d6000803e3d6000fd5b505050506040513d601f19601f8201168201806040525081019061034291906127e9565b60408082015190517f6c50dbba0000000000000000000000000000000000000000000000000000000081529192506001600160a01b03871691636c50dbba916103919160040190815260200190565b6020604051808303816000875af11580156103b0573d6000803e3d6000fd5b505050506040513d601f19601f820116820180604052508101906103d4919061287b565b50604080820151602083015191517f3d4225040000000000000000000000000000000000000000000000000000000081526000926001600160a01b03861692633d4225049261043892906004019182526001600160a01b0316602082015260400190565b6040805180830381865afa158015610454573d6000803e3d6000fd5b505050506040513d601f19601f820116820180604052508101906104789190612894565b90506104988530610493863087604001518860200151610f38565b61114d565b826001600160a01b03166399bec315836040015184602001513030600087602001516104c390612939565b6040517fffffffff0000000000000000000000000000000000000000000000000000000060e089901b16815260048101969096526001600160a01b039485166024870152928416604486015292166064840152608483019190915260a482015260c4015b600060405180830381600087803b15801561054157600080fd5b505af1158015610555573d6000803e3d6000fd5b5050505050505050505050565b60006001600160a01b037f00000000000000000000000000000000000000000000000000000000000000001630036105ad57604051630406dd4b60e01b815260040160405180910390fd5b6105b8848484611361565b949350505050565b6001600160a01b037f000000000000000000000000000000000000000000000000000000000000000016300361060957604051630406dd4b60e01b815260040160405180910390fd5b6000816001600160a01b03166367aea3136040518163ffffffff1660e01b8152600401602060405180830381865afa158015610649573d6000803e3d6000fd5b505050506040513d601f19601f8201168201806040525081019061066d91906127cc565b6040517ffabde80c0000000000000000000000000000000000000000000000000000000081523060048201526001600160a01b03919091169063fabde80c90602401602060405180830381865afa1580156106cc573d6000803e3d6000fd5b505050506040513d601f19601f820116820180604052508101906106f0919061287b565b90506106fc82826113f1565b5050565b6001600160a01b037f000000000000000000000000000000000000000000000000000000000000000016300361074957604051630406dd4b60e01b815260040160405180910390fd5b6000866001600160a01b03166367aea3136040518163ffffffff1660e01b8152600401602060405180830381865afa158015610789573d6000803e3d6000fd5b505050506040513d601f19601f820116820180604052508101906107ad91906127cc565b6040517f35c9c6e9000000000000000000000000000000000000000000000000000000008152600481018590529091506000906001600160a01b038916906335c9c6e990602401606060405180830381865afa158015610811573d6000803e3d6000fd5b505050506040513d601f19601f8201168201806040525081019061083591906127e9565b60408082015190517f6c50dbba0000000000000000000000000000000000000000000000000000000081529192506001600160a01b03891691636c50dbba916108849160040190815260200190565b6020604051808303816000875af11580156108a3573d6000803e3d6000fd5b505050506040513d601f19601f820116820180604052508101906108c7919061287b565b50604080820151602083015191517f3d4225040000000000000000000000000000000000000000000000000000000081526000926001600160a01b03861692633d4225049261092b92906004019182526001600160a01b0316602082015260400190565b6040805180830381865afa158015610947573d6000803e3d6000fd5b505050506040513d601f19601f8201168201806040525081019061096b9190612894565b905061098e86836020015161049386866020015187604001518860200151610f38565b6109c0898661099c876115db565b6109a590612939565b6109b285602001516115db565b6109bb90612939565b61161c565b6109cc89888787611670565b505050505050505050565b6001600160a01b037f0000000000000000000000000000000000000000000000000000000000000000163003610a2057604051630406dd4b60e01b815260040160405180910390fd5b6106fc82826113f1565b6001600160a01b037f0000000000000000000000000000000000000000000000000000000000000000163003610a7357604051630406dd4b60e01b815260040160405180910390fd5b610a918483610a81846115db565b610a8a90612939565b600061161c565b610a9d84848484611670565b50505050565b60006001600160a01b037f0000000000000000000000000000000000000000000000000000000000000000163003610aee57604051630406dd4b60e01b815260040160405180910390fd5b610af9888530611361565b9050610b0a88888888858888611686565b979650505050505050565b6001600160a01b037f0000000000000000000000000000000000000000000000000000000000000000163003610b5e57604051630406dd4b60e01b815260040160405180910390fd5b610b6d87878787878787611686565b50505050505050565b6001600160a01b037f0000000000000000000000000000000000000000000000000000000000000000163003610bbf57604051630406dd4b60e01b815260040160405180910390fd5b610bca833083611842565b610a9d8483610a8a846115db565b6001600160a01b037f0000000000000000000000000000000000000000000000000000000000000000163003610c2157604051630406dd4b60e01b815260040160405180910390fd5b610c2c83838361114d565b505050565b6001600160a01b037f0000000000000000000000000000000000000000000000000000000000000000163003610c7a57604051630406dd4b60e01b815260040160405180910390fd5b610c878585858585611ab7565b5050505050565b6001600160a01b037f0000000000000000000000000000000000000000000000000000000000000000163003610cd757604051630406dd4b60e01b815260040160405180910390fd5b6000876001600160a01b03166367aea3136040518163ffffffff1660e01b8152600401602060405180830381865afa158015610d17573d6000803e3d6000fd5b505050506040513d601f19601f82011682018060405250810190610d3b91906127cc565b6040517f35c9c6e9000000000000000000000000000000000000000000000000000000008152600481018690529091506000906001600160a01b038a16906335c9c6e990602401606060405180830381865afa158015610d9f573d6000803e3d6000fd5b505050506040513d601f19601f82011682018060405250810190610dc391906127e9565b60408082015190517f6c50dbba0000000000000000000000000000000000000000000000000000000081529192506001600160a01b038a1691636c50dbba91610e129160040190815260200190565b6020604051808303816000875af1158015610e31573d6000803e3d6000fd5b505050506040513d601f19601f82011682018060405250810190610e55919061287b565b50610e658682602001518561114d565b6109c08986610e73876115db565b610e7c90612939565b6109bb8686604001518760200151611c5d565b6001600160a01b037f0000000000000000000000000000000000000000000000000000000000000000163003610ed857604051630406dd4b60e01b815260040160405180910390fd5b6106fc8282611e43565b6001600160a01b037f0000000000000000000000000000000000000000000000000000000000000000163003610f2b57604051630406dd4b60e01b815260040160405180910390fd5b610c8785858585856120ca565b6040517fb6e05a2e0000000000000000000000000000000000000000000000000000000081526004810183905260009081906001600160a01b0387169063b6e05a2e9060240160a060405180830381865afa158015610f9b573d6000803e3d6000fd5b505050506040513d601f19601f82011682018060405250810190610fbf9190612971565b60409081015190517f3d422504000000000000000000000000000000000000000000000000000000008152600481018690526001600160a01b038581166024830152919250600091881690633d422504906044016040805180830381865afa15801561102f573d6000803e3d6000fd5b505050506040513d601f19601f820116820180604052508101906110539190612894565b602001516040517ffabde80c0000000000000000000000000000000000000000000000000000000081526001600160a01b03888116600483015291925060009189169063fabde80c90602401602060405180830381865afa1580156110bc573d6000803e3d6000fd5b505050506040513d601f19601f820116820180604052508101906110e0919061287b565b90506000816110ef8585612a08565b6110f99190612a25565b90506111116b033b2e3c9fd0803ce800000082612a38565b94508061112a6b033b2e3c9fd0803ce800000087612a08565b106111355784611140565b611140856001612a73565b9998505050505050505050565b8060000361115a57505050565b6000836001600160a01b031663a7e944556040518163ffffffff1660e01b8152600401602060405180830381865afa15801561119a573d6000803e3d6000fd5b505050506040513d601f19601f820116820180604052508101906111be91906127cc565b6040517f23b872dd000000000000000000000000000000000000000000000000000000008152336004820152306024820152604481018490529091506001600160a01b038216906323b872dd906064016020604051808303816000875af115801561122d573d6000803e3d6000fd5b505050506040513d601f19601f820116820180604052508101906112519190612a86565b506040517f095ea7b30000000000000000000000000000000000000000000000000000000081526001600160a01b0385811660048301526024820184905282169063095ea7b3906044016020604051808303816000875af11580156112ba573d6000803e3d6000fd5b505050506040513d601f19601f820116820180604052508101906112de9190612a86565b506040517f3b4da69f0000000000000000000000000000000000000000000000000000000081526001600160a01b03848116600483015260248201849052851690633b4da69f906044015b600060405180830381600087803b15801561134357600080fd5b505af1158015611357573d6000803e3d6000fd5b5050505050505050565b6040517fd983ff95000000000000000000000000000000000000000000000000000000008152600481018390526001600160a01b0382811660248301526000919085169063d983ff95906044016020604051808303816000875af11580156113cd573d6000803e3d6000fd5b505050506040513d601f19601f820116820180604052508101906105b8919061287b565b806000036113fd575050565b60008290506000816001600160a01b03166367aea3136040518163ffffffff1660e01b8152600401602060405180830381865afa158015611442573d6000803e3d6000fd5b505050506040513d601f19601f8201168201806040525081019061146691906127cc565b6040517f50de215d0000000000000000000000000000000000000000000000000000000081523060048201526001600160a01b038681166024830152919250908216906350de215d90604401602060405180830381865afa1580156114cf573d6000803e3d6000fd5b505050506040513d601f19601f820116820180604052508101906114f39190612a86565b61156c576040517fd94d42080000000000000000000000000000000000000000000000000000000081526001600160a01b03858116600483015282169063d94d420890602401600060405180830381600087803b15801561155357600080fd5b505af1158015611567573d6000803e3d6000fd5b505050505b6001600160a01b03821663ef693bed336115926b033b2e3c9fd0803ce800000087612a38565b6040517fffffffff0000000000000000000000000000000000000000000000000000000060e085901b1681526001600160a01b0390921660048301526024820152604401611329565b806000811215611617576040517f44dddea200000000000000000000000000000000000000000000000000000000815260040160405180910390fd5b919050565b6040517fc78101f80000000000000000000000000000000000000000000000000000000081526004810184905260248101839052604481018290526001600160a01b0385169063c78101f890606401611329565b61167c84833084612272565b610a9d8382611e43565b6000876001600160a01b03166367aea3136040518163ffffffff1660e01b8152600401602060405180830381865afa1580156116c6573d6000803e3d6000fd5b505050506040513d601f19601f820116820180604052508101906116ea91906127cc565b6040517f35c9c6e9000000000000000000000000000000000000000000000000000000008152600481018690529091506000906001600160a01b038a16906335c9c6e990602401606060405180830381865afa15801561174e573d6000803e3d6000fd5b505050506040513d601f19601f8201168201806040525081019061177291906127e9565b60408082015190517f6c50dbba0000000000000000000000000000000000000000000000000000000081529192506001600160a01b038a1691636c50dbba916117c19160040190815260200190565b6020604051808303816000875af11580156117e0573d6000803e3d6000fd5b505050506040513d601f19601f82011682018060405250810190611804919061287b565b5061181487826020015186611842565b6118368986611822876115db565b6109bb86866040015187602001518a6122cd565b6109cc89878786612475565b60008390506000816001600160a01b031663d8dfeb456040518163ffffffff1660e01b8152600401602060405180830381865afa158015611887573d6000803e3d6000fd5b505050506040513d601f19601f820116820180604052508101906118ab91906127cc565b90506000816001600160a01b031663313ce5676040518163ffffffff1660e01b8152600401602060405180830381865afa1580156118ed573d6000803e3d6000fd5b505050506040513d601f19601f820116820180604052508101906119119190612aa8565b60ff1690506000611923826012612a25565b61192e90600a612beb565b6119389086612a38565b90508060000361194b5750505050505050565b6040517f23b872dd000000000000000000000000000000000000000000000000000000008152336004820152306024820152604481018290526001600160a01b038416906323b872dd906064016020604051808303816000875af11580156119b7573d6000803e3d6000fd5b505050506040513d601f19601f820116820180604052508101906119db9190612a86565b506040517f095ea7b30000000000000000000000000000000000000000000000000000000081526001600160a01b0388811660048301526024820183905284169063095ea7b3906044016020604051808303816000875af1158015611a44573d6000803e3d6000fd5b505050506040513d601f19601f82011682018060405250810190611a689190612a86565b506040517f3b4da69f0000000000000000000000000000000000000000000000000000000081526001600160a01b03878116600483015260248201839052851690633b4da69f90604401610527565b6000856001600160a01b03166367aea3136040518163ffffffff1660e01b8152600401602060405180830381865afa158015611af7573d6000803e3d6000fd5b505050506040513d601f19601f82011682018060405250810190611b1b91906127cc565b6040517f35c9c6e9000000000000000000000000000000000000000000000000000000008152600481018590529091506000906001600160a01b038816906335c9c6e990602401606060405180830381865afa158015611b7f573d6000803e3d6000fd5b505050506040513d601f19601f82011682018060405250810190611ba391906127e9565b60408082015190517f6c50dbba0000000000000000000000000000000000000000000000000000000081529192506001600160a01b03881691636c50dbba91611bf29160040190815260200190565b6020604051808303816000875af1158015611c11573d6000803e3d6000fd5b505050506040513d601f19601f82011682018060405250810190611c35919061287b565b50611c51878560006109bb86866040015187602001518a6122cd565b610b6d87868686612475565b6040517fb6e05a2e0000000000000000000000000000000000000000000000000000000081526004810183905260009081906001600160a01b0386169063b6e05a2e9060240160a060405180830381865afa158015611cc0573d6000803e3d6000fd5b505050506040513d601f19601f82011682018060405250810190611ce49190612971565b60409081015190517f3d422504000000000000000000000000000000000000000000000000000000008152600481018690526001600160a01b038581166024830152919250600091871690633d422504906044016040805180830381865afa158015611d54573d6000803e3d6000fd5b505050506040513d601f19601f82011682018060405250810190611d789190612894565b602001516040517ffabde80c0000000000000000000000000000000000000000000000000000000081526001600160a01b03868116600483015291925060009188169063fabde80c90602401602060405180830381865afa158015611de1573d6000803e3d6000fd5b505050506040513d601f19601f82011682018060405250810190611e05919061287b565b9050611e19611e148483612a38565b6115db565b935081841115611e3a57611e2c826115db565b611e3590612939565b610b0a565b610b0a84612939565b80600003611e4f575050565b60008290506000816001600160a01b03166367aea3136040518163ffffffff1660e01b8152600401602060405180830381865afa158015611e94573d6000803e3d6000fd5b505050506040513d601f19601f82011682018060405250810190611eb891906127cc565b6040517f50de215d0000000000000000000000000000000000000000000000000000000081523060048201526001600160a01b038681166024830152919250908216906350de215d90604401602060405180830381865afa158015611f21573d6000803e3d6000fd5b505050506040513d601f19601f82011682018060405250810190611f459190612a86565b611fbe576040517fd94d42080000000000000000000000000000000000000000000000000000000081526001600160a01b03858116600483015282169063d94d420890602401600060405180830381600087803b158015611fa557600080fd5b505af1158015611fb9573d6000803e3d6000fd5b505050505b6000826001600160a01b031663313ce5676040518163ffffffff1660e01b8152600401602060405180830381865afa158015611ffe573d6000803e3d6000fd5b505050506040513d601f19601f82011682018060405250810190612022919061287b565b90506000612031826012612a25565b61203c90600a612beb565b6120469086612a38565b6040517fef693bed000000000000000000000000000000000000000000000000000000008152336004820152602481018290529091506001600160a01b0385169063ef693bed90604401600060405180830381600087803b1580156120aa57600080fd5b505af11580156120be573d6000803e3d6000fd5b50505050505050505050565b6000856001600160a01b03166367aea3136040518163ffffffff1660e01b8152600401602060405180830381865afa15801561210a573d6000803e3d6000fd5b505050506040513d601f19601f8201168201806040525081019061212e91906127cc565b6040517f35c9c6e9000000000000000000000000000000000000000000000000000000008152600481018590529091506000906001600160a01b038816906335c9c6e990602401606060405180830381865afa158015612192573d6000803e3d6000fd5b505050506040513d601f19601f820116820180604052508101906121b691906127e9565b60408082015190517f6c50dbba0000000000000000000000000000000000000000000000000000000081529192506001600160a01b03881691636c50dbba916122059160040190815260200190565b6020604051808303816000875af1158015612224573d6000803e3d6000fd5b505050506040513d601f19601f82011682018060405250810190612248919061287b565b506122588582602001518561114d565b610b6d878560006109bb8686604001518760200151611c5d565b8015610a9d576040517f871581a2000000000000000000000000000000000000000000000000000000008152600481018490526001600160a01b0383811660248301526044820183905285169063871581a290606401611329565b6040517fb6e05a2e0000000000000000000000000000000000000000000000000000000081526004810184905260009081906001600160a01b0387169063b6e05a2e9060240160a060405180830381865afa158015612330573d6000803e3d6000fd5b505050506040513d601f19601f820116820180604052508101906123549190612971565b60409081015190517ffabde80c0000000000000000000000000000000000000000000000000000000081526001600160a01b03868116600483015291925060009188169063fabde80c90602401602060405180830381865afa1580156123be573d6000803e3d6000fd5b505050506040513d601f19601f820116820180604052508101906123e2919061287b565b90506123fa6b033b2e3c9fd0803ce800000085612a08565b81101561246b57612430828261241c6b033b2e3c9fd0803ce800000088612a08565b6124269190612a25565b611e149190612a38565b92506124486b033b2e3c9fd0803ce800000085612a08565b6124528385612a08565b1061245d5782612468565b612468836001612bf7565b92505b5050949350505050565b6124968483306124916b033b2e3c9fd0803ce800000086612a08565b6124b5565b610a9d836124b06b033b2e3c9fd0803ce800000084612a08565b6113f1565b6040517f660e1607000000000000000000000000000000000000000000000000000000008152600481018490526001600160a01b0383811660248301526044820183905285169063660e160790606401611329565b6001600160a01b038116811461251f57600080fd5b50565b6000806000806080858703121561253857600080fd5b84356125438161250a565b935060208501356125538161250a565b925060408501356125638161250a565b9396929550929360600135925050565b60008060006060848603121561258857600080fd5b83356125938161250a565b92506020840135915060408401356125aa8161250a565b809150509250925092565b6000602082840312156125c757600080fd5b81356125d28161250a565b9392505050565b60008060008060008060c087890312156125f257600080fd5b86356125fd8161250a565b9550602087013561260d8161250a565b9450604087013561261d8161250a565b9350606087013561262d8161250a565b9598949750929560808101359460a0909101359350915050565b6000806040838503121561265a57600080fd5b82356126658161250a565b946020939093013593505050565b6000806000806080858703121561268957600080fd5b84356126948161250a565b935060208501356126a48161250a565b93969395505050506040820135916060013590565b600080600080600080600060e0888a0312156126d457600080fd5b87356126df8161250a565b965060208801356126ef8161250a565b955060408801356126ff8161250a565b9450606088013561270f8161250a565b9699959850939660808101359560a0820135955060c0909101359350915050565b60008060006060848603121561274557600080fd5b83356127508161250a565b925060208401356127608161250a565b929592945050506040919091013590565b600080600080600060a0868803121561278957600080fd5b85356127948161250a565b945060208601356127a48161250a565b935060408601356127b48161250a565b94979396509394606081013594506080013592915050565b6000602082840312156127de57600080fd5b81516125d28161250a565b6000606082840312156127fb57600080fd5b6040516060810181811067ffffffffffffffff82111715612845577f4e487b7100000000000000000000000000000000000000000000000000000000600052604160045260246000fd5b60405282516128538161250a565b815260208301516128638161250a565b60208201526040928301519281019290925250919050565b60006020828403121561288d57600080fd5b5051919050565b6000604082840312156128a657600080fd5b6040516040810181811067ffffffffffffffff821117156128f0577f4e487b7100000000000000000000000000000000000000000000000000000000600052604160045260246000fd5b604052825181526020928301519281019290925250919050565b7f4e487b7100000000000000000000000000000000000000000000000000000000600052601160045260246000fd5b60007f8000000000000000000000000000000000000000000000000000000000000000820361296a5761296a61290a565b5060000390565b600060a0828403121561298357600080fd5b60405160a0810181811067ffffffffffffffff821117156129cd577f4e487b7100000000000000000000000000000000000000000000000000000000600052604160045260246000fd5b806040525082518152602083015160208201526040830151604082015260608301516060820152608083015160808201528091505092915050565b8082028115828204841417612a1f57612a1f61290a565b92915050565b81810381811115612a1f57612a1f61290a565b600082612a6e577f4e487b7100000000000000000000000000000000000000000000000000000000600052601260045260246000fd5b500490565b80820180821115612a1f57612a1f61290a565b600060208284031215612a9857600080fd5b815180151581146125d257600080fd5b600060208284031215612aba57600080fd5b815160ff811681146125d257600080fd5b600181815b80851115612b2457817fffffffffffffffffffffffffffffffffffffffffffffffffffffffffffffffff04821115612b0a57612b0a61290a565b80851615612b1757918102915b93841c9390800290612ad0565b509250929050565b600082612b3b57506001612a1f565b81612b4857506000612a1f565b8160018114612b5e5760028114612b6857612b84565b6001915050612a1f565b60ff841115612b7957612b7961290a565b50506001821b612a1f565b5060208310610133831016604e8410600b8410161715612ba7575081810a612a1f565b612bb18383612acb565b807fffffffffffffffffffffffffffffffffffffffffffffffffffffffffffffffff04821115612be357612be361290a565b029392505050565b60006125d28383612b2c565b8082018281126000831280158216821582161715612c1757612c1761290a565b50509291505056fea2646970667358221220a00bd9a4252714cd55c07577925118492e297fb6ae0d0e3042b602014a550dbe64736f6c63430008130033",
    "linkReferences": {}
  },
  "methodIdentifiers": {
    "exitAllSystemCoins(address)": "2da46734",
    "exitCollateral(address,uint256)": "d6f25400",
    "exitSystemCoins(address,uint256)": "4f127f43",
    "freeTokenCollateral(address,address,uint256,uint256)": "6093c975",
    "generateDebt(address,address,address,uint256,uint256)": "b02f9e3d",
    "joinSystemCoins(address,address,uint256)": "902746d7",
    "lockTokenCollateral(address,address,uint256,uint256)": "8f86e015",
    "lockTokenCollateralAndGenerateDebt(address,address,address,address,uint256,uint256,uint256)": "7f5b1a1b",
    "openLockTokenCollateralAndGenerateDebt(address,address,address,address,bytes32,uint256,uint256)": "7a4d9a47",
    "openSAFE(address,bytes32,address)": "252fa0f6",
    "repayAllDebt(address,address,address,uint256)": "09eb0899",
    "repayAllDebtAndFreeTokenCollateral(address,address,address,address,uint256,uint256)": "4e8a5e3a",
    "repayDebt(address,address,address,uint256,uint256)": "fd5418a6",
    "repayDebtAndFreeTokenCollateral(address,address,address,address,uint256,uint256,uint256)": "c3500b79"
  },
  "id": 123
}