{
  "abi": [
    {
      "inputs": [
        {
          "internalType": "address",
          "name": "_safeEngine",
          "type": "address"
        },
        {
          "internalType": "address",
          "name": "_systemCoin",
          "type": "address"
        }
      ],
      "stateMutability": "nonpayable",
      "type": "constructor"
    },
    {
      "inputs": [],
      "name": "AlreadyAuthorized",
      "type": "error"
    },
    {
      "inputs": [],
      "name": "ContractIsDisabled",
      "type": "error"
    },
    {
      "inputs": [],
      "name": "ContractIsEnabled",
      "type": "error"
    },
    {
      "inputs": [],
      "name": "NonDisableable",
      "type": "error"
    },
    {
      "inputs": [],
      "name": "NotAuthorized",
      "type": "error"
    },
    {
      "inputs": [],
      "name": "NullAddress",
      "type": "error"
    },
    {
      "inputs": [],
      "name": "Unauthorized",
      "type": "error"
    },
    {
      "anonymous": false,
      "inputs": [
        {
          "indexed": false,
          "internalType": "address",
          "name": "_account",
          "type": "address"
        }
      ],
      "name": "AddAuthorization",
      "type": "event"
    },
    {
      "anonymous": false,
      "inputs": [],
      "name": "DisableContract",
      "type": "event"
    },
    {
      "anonymous": false,
      "inputs": [
        {
          "indexed": false,
          "internalType": "address",
          "name": "_sender",
          "type": "address"
        },
        {
          "indexed": false,
          "internalType": "address",
          "name": "_account",
          "type": "address"
        },
        {
          "indexed": false,
          "internalType": "uint256",
          "name": "_wad",
          "type": "uint256"
        }
      ],
      "name": "Exit",
      "type": "event"
    },
    {
      "anonymous": false,
      "inputs": [
        {
          "indexed": false,
          "internalType": "address",
          "name": "_sender",
          "type": "address"
        },
        {
          "indexed": false,
          "internalType": "address",
          "name": "_account",
          "type": "address"
        },
        {
          "indexed": false,
          "internalType": "uint256",
          "name": "_wad",
          "type": "uint256"
        }
      ],
      "name": "Join",
      "type": "event"
    },
    {
      "anonymous": false,
      "inputs": [
        {
          "indexed": false,
          "internalType": "address",
          "name": "_account",
          "type": "address"
        }
      ],
      "name": "RemoveAuthorization",
      "type": "event"
    },
    {
      "inputs": [
        {
          "internalType": "address",
          "name": "_account",
          "type": "address"
        }
      ],
      "name": "addAuthorization",
      "outputs": [],
      "stateMutability": "nonpayable",
      "type": "function"
    },
    {
      "inputs": [
        {
          "internalType": "address",
          "name": "_account",
          "type": "address"
        }
      ],
      "name": "authorizedAccounts",
      "outputs": [
        {
          "internalType": "bool",
          "name": "_authorized",
          "type": "bool"
        }
      ],
      "stateMutability": "view",
      "type": "function"
    },
    {
      "inputs": [],
      "name": "authorizedAccounts",
      "outputs": [
        {
          "internalType": "address[]",
          "name": "_accounts",
          "type": "address[]"
        }
      ],
      "stateMutability": "view",
      "type": "function"
    },
    {
      "inputs": [],
      "name": "contractEnabled",
      "outputs": [
        {
          "internalType": "bool",
          "name": "",
          "type": "bool"
        }
      ],
      "stateMutability": "view",
      "type": "function"
    },
    {
      "inputs": [],
      "name": "decimals",
      "outputs": [
        {
          "internalType": "uint256",
          "name": "",
          "type": "uint256"
        }
      ],
      "stateMutability": "view",
      "type": "function"
    },
    {
      "inputs": [],
      "name": "disableContract",
      "outputs": [],
      "stateMutability": "nonpayable",
      "type": "function"
    },
    {
      "inputs": [
        {
          "internalType": "address",
          "name": "_account",
          "type": "address"
        },
        {
          "internalType": "uint256",
          "name": "_wad",
          "type": "uint256"
        }
      ],
      "name": "exit",
      "outputs": [],
      "stateMutability": "nonpayable",
      "type": "function"
    },
    {
      "inputs": [
        {
          "internalType": "address",
          "name": "_account",
          "type": "address"
        },
        {
          "internalType": "uint256",
          "name": "_wad",
          "type": "uint256"
        }
      ],
      "name": "join",
      "outputs": [],
      "stateMutability": "nonpayable",
      "type": "function"
    },
    {
      "inputs": [
        {
          "internalType": "address",
          "name": "_account",
          "type": "address"
        }
      ],
      "name": "removeAuthorization",
      "outputs": [],
      "stateMutability": "nonpayable",
      "type": "function"
    },
    {
      "inputs": [],
      "name": "safeEngine",
      "outputs": [
        {
          "internalType": "contract ISAFEEngine",
          "name": "",
          "type": "address"
        }
      ],
      "stateMutability": "view",
      "type": "function"
    },
    {
      "inputs": [],
      "name": "systemCoin",
      "outputs": [
        {
          "internalType": "contract ISystemCoin",
          "name": "",
          "type": "address"
        }
      ],
      "stateMutability": "view",
      "type": "function"
    }
  ],
  "bytecode": {
    "object": "0x60806040526002805460ff191660011790553480156200001e57600080fd5b5060405162000e1e38038062000e1e8339810160408190526200004191620001e5565b336200004d81620000bd565b50620000626001600160a01b03831662000128565b60028054610100600160a81b0319166101006001600160a01b03938416021790556200009090821662000128565b600380546001600160a01b0319166001600160a01b0392909216919091179055505060126004556200021d565b620000ca60008262000156565b156200010f576040516001600160a01b03821681527f599a298163e1678bb1c676052a8930bf0b8a1261ed6e01b8a2391e55f70001029060200160405180910390a150565b604051633013e93f60e11b815260040160405180910390fd5b60006001600160a01b038216620001525760405163e99d5ac560e01b815260040160405180910390fd5b5090565b60006200016d836001600160a01b03841662000176565b90505b92915050565b6000818152600183016020526040812054620001bf5750815460018181018455600084815260208082209093018490558454848252828601909352604090209190915562000170565b50600062000170565b80516001600160a01b0381168114620001e057600080fd5b919050565b60008060408385031215620001f957600080fd5b6200020483620001c8565b91506200021460208401620001c8565b90509250929050565b610bf1806200022d6000396000f3fe608060405234801561001057600080fd5b50600436106100c95760003560e01c806341b3a0d91161008157806394f3f81d1161005b57806394f3f81d146101a9578063a7e94455146101bc578063ef693bed146101dc57600080fd5b806341b3a0d91461014a57806367aea31314610157578063894ba833146101a157600080fd5b8063313ce567116100b2578063313ce5671461010b57806335b28153146101225780633b4da69f1461013757600080fd5b806324ba5884146100ce5780632e391876146100f6575b600080fd5b6100e16100dc366004610a65565b6101ef565b60405190151581526020015b60405180910390f35b6100fe610200565b6040516100ed9190610a80565b61011460045481565b6040519081526020016100ed565b610135610130366004610a65565b610211565b005b610135610145366004610ada565b61025c565b6002546100e19060ff1681565b60025461017c90610100900473ffffffffffffffffffffffffffffffffffffffff1681565b60405173ffffffffffffffffffffffffffffffffffffffff90911681526020016100ed565b610135610409565b6101356101b7366004610a65565b6104d7565b60035461017c9073ffffffffffffffffffffffffffffffffffffffff1681565b6101356101ea366004610ada565b61051f565b60006101fa82610702565b92915050565b606061020c600061072f565b905090565b61021a33610702565b610250576040517f82b4290000000000000000000000000000000000000000000000000000000000815260040160405180910390fd5b61025981610743565b50565b600254610100900473ffffffffffffffffffffffffffffffffffffffff1663efabcadc3084610297856b033b2e3c9fd0803ce8000000610b33565b6040517fffffffff0000000000000000000000000000000000000000000000000000000060e086901b16815273ffffffffffffffffffffffffffffffffffffffff93841660048201529290911660248301526044820152606401600060405180830381600087803b15801561030b57600080fd5b505af115801561031f573d6000803e3d6000fd5b50506003546040517f9dc29fac0000000000000000000000000000000000000000000000000000000081523360048201526024810185905273ffffffffffffffffffffffffffffffffffffffff9091169250639dc29fac9150604401600060405180830381600087803b15801561039557600080fd5b505af11580156103a9573d6000803e3d6000fd5b50506040805133815273ffffffffffffffffffffffffffffffffffffffff861660208201529081018490527f0e64978d073561c3dfd4d4e3e4dce066cde2ab246a44f990fabb0a21a4a3bd95925060600190505b60405180910390a15050565b61041233610702565b610448576040517f82b4290000000000000000000000000000000000000000000000000000000000815260040160405180910390fd5b60025460ff16610484576040517f7abbf1c900000000000000000000000000000000000000000000000000000000815260040160405180910390fd5b600280547fffffffffffffffffffffffffffffffffffffffffffffffffffffffffffffff001690556040517f2d4b4ecff7bd7503135271925520a2f6c0d98c9473ffc1a1e72c92502f51b25e90600090a1565b6104e033610702565b610516576040517f82b4290000000000000000000000000000000000000000000000000000000000815260040160405180910390fd5b610259816107d2565b60025460ff1661055b576040517f7abbf1c900000000000000000000000000000000000000000000000000000000815260040160405180910390fd5b600254610100900473ffffffffffffffffffffffffffffffffffffffff1663efabcadc3330610596856b033b2e3c9fd0803ce8000000610b33565b6040517fffffffff0000000000000000000000000000000000000000000000000000000060e086901b16815273ffffffffffffffffffffffffffffffffffffffff93841660048201529290911660248301526044820152606401600060405180830381600087803b15801561060a57600080fd5b505af115801561061e573d6000803e3d6000fd5b50506003546040517f40c10f1900000000000000000000000000000000000000000000000000000000815273ffffffffffffffffffffffffffffffffffffffff86811660048301526024820186905290911692506340c10f199150604401600060405180830381600087803b15801561069657600080fd5b505af11580156106aa573d6000803e3d6000fd5b50506040805133815273ffffffffffffffffffffffffffffffffffffffff861660208201529081018490527fbc2a67d422c268da6fe45f3e7d194e1d98906d221f1cfad62a5c80f2cd209f4c925060600190506103fd565b73ffffffffffffffffffffffffffffffffffffffff811660009081526001602052604081205415156101fa565b6060600061073c8361085a565b9392505050565b61074e6000826108b6565b156107a05760405173ffffffffffffffffffffffffffffffffffffffff821681527f599a298163e1678bb1c676052a8930bf0b8a1261ed6e01b8a2391e55f7000102906020015b60405180910390a150565b6040517f6027d27e00000000000000000000000000000000000000000000000000000000815260040160405180910390fd5b6107dd6000826108d8565b156108285760405173ffffffffffffffffffffffffffffffffffffffff821681527f8834a87e641e9716be4f34527af5d23e11624f1ddeefede6ad75a9acfc31b90390602001610795565b6040517fea8e4eb500000000000000000000000000000000000000000000000000000000815260040160405180910390fd5b6060816000018054806020026020016040519081016040528092919081815260200182805480156108aa57602002820191906000526020600020905b815481526020019060010190808311610896575b50505050509050919050565b600061073c8373ffffffffffffffffffffffffffffffffffffffff84166108fa565b600061073c8373ffffffffffffffffffffffffffffffffffffffff8416610949565b6000818152600183016020526040812054610941575081546001818101845560008481526020808220909301849055845484825282860190935260409020919091556101fa565b5060006101fa565b60008181526001830160205260408120548015610a3257600061096d600183610b4a565b855490915060009061098190600190610b4a565b90508181146109e65760008660000182815481106109a1576109a1610b5d565b90600052602060002001549050808760000184815481106109c4576109c4610b5d565b6000918252602080832090910192909255918252600188019052604090208390555b85548690806109f7576109f7610b8c565b6001900381819060005260206000200160009055905585600101600086815260200190815260200160002060009055600193505050506101fa565b60009150506101fa565b803573ffffffffffffffffffffffffffffffffffffffff81168114610a6057600080fd5b919050565b600060208284031215610a7757600080fd5b61073c82610a3c565b6020808252825182820181905260009190848201906040850190845b81811015610ace57835173ffffffffffffffffffffffffffffffffffffffff1683529284019291840191600101610a9c565b50909695505050505050565b60008060408385031215610aed57600080fd5b610af683610a3c565b946020939093013593505050565b7f4e487b7100000000000000000000000000000000000000000000000000000000600052601160045260246000fd5b80820281158282048414176101fa576101fa610b04565b818103818111156101fa576101fa610b04565b7f4e487b7100000000000000000000000000000000000000000000000000000000600052603260045260246000fd5b7f4e487b7100000000000000000000000000000000000000000000000000000000600052603160045260246000fdfea2646970667358221220475852cbec95e80da06d124e695905a2ad5373b2d635a7c7d997046df91ac5b264736f6c63430008130033",
    "linkReferences": {}
  },
  "methodIdentifiers": {
    "addAuthorization(address)": "35b28153",
    "authorizedAccounts()": "2e391876",
    "authorizedAccounts(address)": "24ba5884",
    "contractEnabled()": "41b3a0d9",
    "decimals()": "313ce567",
    "disableContract()": "894ba833",
    "exit(address,uint256)": "ef693bed",
    "join(address,uint256)": "3b4da69f",
    "removeAuthorization(address)": "94f3f81d",
    "safeEngine()": "67aea313",
    "systemCoin()": "a7e94455"
  },
  "id": 136
}