{
  "abi": [
    {
      "inputs": [],
      "name": "OnlyDelegateCalls",
      "type": "error"
    },
    {
      "inputs": [
        {
          "internalType": "address",
          "name": "_coinJoin",
          "type": "address"
        },
        {
          "internalType": "address",
          "name": "_collateralJoin",
          "type": "address"
        },
        {
          "internalType": "address",
          "name": "_collateralAuctionHouse",
          "type": "address"
        },
        {
          "internalType": "uint256",
          "name": "_auctionId",
          "type": "uint256"
        },
        {
          "internalType": "uint256",
          "name": "_minCollateralAmount",
          "type": "uint256"
        },
        {
          "internalType": "uint256",
          "name": "_bidAmount",
          "type": "uint256"
        }
      ],
      "name": "buyCollateral",
      "outputs": [],
      "stateMutability": "nonpayable",
      "type": "function"
    },
    {
      "inputs": [
        {
          "internalType": "address",
          "name": "_coinJoin",
          "type": "address"
        }
      ],
      "name": "exitAllSystemCoins",
      "outputs": [],
      "stateMutability": "nonpayable",
      "type": "function"
    },
    {
      "inputs": [
        {
          "internalType": "address",
          "name": "_collateralJoin",
          "type": "address"
        },
        {
          "internalType": "uint256",
          "name": "_wad",
          "type": "uint256"
        }
      ],
      "name": "exitCollateral",
      "outputs": [],
      "stateMutability": "nonpayable",
      "type": "function"
    },
    {
      "inputs": [
        {
          "internalType": "address",
          "name": "_coinJoin",
          "type": "address"
        },
        {
          "internalType": "uint256",
          "name": "_coinsToExit",
          "type": "uint256"
        }
      ],
      "name": "exitSystemCoins",
      "outputs": [],
      "stateMutability": "nonpayable",
      "type": "function"
    },
    {
      "inputs": [
        {
          "internalType": "address",
          "name": "_coinJoin",
          "type": "address"
        },
        {
          "internalType": "address",
          "name": "_dst",
          "type": "address"
        },
        {
          "internalType": "uint256",
          "name": "_wad",
          "type": "uint256"
        }
      ],
      "name": "joinSystemCoins",
      "outputs": [],
      "stateMutability": "nonpayable",
      "type": "function"
    }
  ],
  "bytecode": {
    "object": "0x60a06040523060805234801561001457600080fd5b506080516113db61004b6000396000818160e401528181610264015281816102dd0152818161086701526108e601526113db6000f3fe608060405234801561001057600080fd5b50600436106100675760003560e01c80637ef5e89d116100505780637ef5e89d14610094578063902746d7146100a7578063d6f25400146100ba57600080fd5b80632da467341461006c5780634f127f4314610081575b600080fd5b61007f61007a3660046110a8565b6100cd565b005b61007f61008f3660046110cc565b61024d565b61007f6100a23660046110f8565b6102c6565b61007f6100b536600461115d565b610850565b61007f6100c83660046110cc565b6108cf565b73ffffffffffffffffffffffffffffffffffffffff7f000000000000000000000000000000000000000000000000000000000000000016300361013c576040517f0406dd4b00000000000000000000000000000000000000000000000000000000815260040160405180910390fd5b60008173ffffffffffffffffffffffffffffffffffffffff166367aea3136040518163ffffffff1660e01b8152600401602060405180830381865afa158015610189573d6000803e3d6000fd5b505050506040513d601f19601f820116820180604052508101906101ad919061119e565b6040517ffabde80c00000000000000000000000000000000000000000000000000000000815230600482015273ffffffffffffffffffffffffffffffffffffffff919091169063fabde80c90602401602060405180830381865afa158015610219573d6000803e3d6000fd5b505050506040513d601f19601f8201168201806040525081019061023d91906111bb565b90506102498282610948565b5050565b73ffffffffffffffffffffffffffffffffffffffff7f00000000000000000000000000000000000000000000000000000000000000001630036102bc576040517f0406dd4b00000000000000000000000000000000000000000000000000000000815260040160405180910390fd5b6102498282610948565b73ffffffffffffffffffffffffffffffffffffffff7f0000000000000000000000000000000000000000000000000000000000000000163003610335576040517f0406dd4b00000000000000000000000000000000000000000000000000000000815260040160405180910390fd5b60008673ffffffffffffffffffffffffffffffffffffffff166367aea3136040518163ffffffff1660e01b8152600401602060405180830381865afa158015610382573d6000803e3d6000fd5b505050506040513d601f19601f820116820180604052508101906103a6919061119e565b6040517ffabde80c0000000000000000000000000000000000000000000000000000000081523060048201529091506000906b033b2e3c9fd0803ce80000009073ffffffffffffffffffffffffffffffffffffffff84169063fabde80c90602401602060405180830381865afa158015610424573d6000803e3d6000fd5b505050506040513d601f19601f8201168201806040525081019061044891906111bb565b6104529190611203565b90508281101561047057610470883061046b848761123e565b610ba7565b6040517f50de215d00000000000000000000000000000000000000000000000000000000815230600482015273ffffffffffffffffffffffffffffffffffffffff87811660248301528316906350de215d90604401602060405180830381865afa1580156104e2573d6000803e3d6000fd5b505050506040513d601f19601f820116820180604052508101906105069190611257565b61058c576040517fd94d420800000000000000000000000000000000000000000000000000000000815273ffffffffffffffffffffffffffffffffffffffff878116600483015283169063d94d420890602401600060405180830381600087803b15801561057357600080fd5b505af1158015610587573d6000803e3d6000fd5b505050505b60008673ffffffffffffffffffffffffffffffffffffffff1663e824600f6040518163ffffffff1660e01b8152600401602060405180830381865afa1580156105d9573d6000803e3d6000fd5b505050506040513d601f19601f820116820180604052508101906105fd91906111bb565b6040517f76e0b4ca0000000000000000000000000000000000000000000000000000000081526004810182905230602482015290915060009073ffffffffffffffffffffffffffffffffffffffff8516906376e0b4ca90604401602060405180830381865afa158015610674573d6000803e3d6000fd5b505050506040513d601f19601f8201168201806040525081019061069891906111bb565b6040517f54ece2d3000000000000000000000000000000000000000000000000000000008152600481018990526024810187905290915073ffffffffffffffffffffffffffffffffffffffff8916906354ece2d390604401600060405180830381600087803b15801561070a57600080fd5b505af115801561071e573d6000803e3d6000fd5b50506040517f76e0b4ca000000000000000000000000000000000000000000000000000000008152600481018590523060248201526000925073ffffffffffffffffffffffffffffffffffffffff871691506376e0b4ca90604401602060405180830381865afa158015610796573d6000803e3d6000fd5b505050506040513d601f19601f820116820180604052508101906107ba91906111bb565b905060006107c8838361123e565b905087811015610838576040517f08c379a000000000000000000000000000000000000000000000000000000000815260206004820152601560248201527f496e76616c696420626f7567687420616d6f756e740000000000000000000000604482015260640160405180910390fd5b6108428b82610dbb565b505050505050505050505050565b73ffffffffffffffffffffffffffffffffffffffff7f00000000000000000000000000000000000000000000000000000000000000001630036108bf576040517f0406dd4b00000000000000000000000000000000000000000000000000000000815260040160405180910390fd5b6108ca838383610ba7565b505050565b73ffffffffffffffffffffffffffffffffffffffff7f000000000000000000000000000000000000000000000000000000000000000016300361093e576040517f0406dd4b00000000000000000000000000000000000000000000000000000000815260040160405180910390fd5b6102498282610dbb565b80600003610954575050565b600082905060008173ffffffffffffffffffffffffffffffffffffffff166367aea3136040518163ffffffff1660e01b8152600401602060405180830381865afa1580156109a6573d6000803e3d6000fd5b505050506040513d601f19601f820116820180604052508101906109ca919061119e565b6040517f50de215d00000000000000000000000000000000000000000000000000000000815230600482015273ffffffffffffffffffffffffffffffffffffffff8681166024830152919250908216906350de215d90604401602060405180830381865afa158015610a40573d6000803e3d6000fd5b505050506040513d601f19601f82011682018060405250810190610a649190611257565b610aea576040517fd94d420800000000000000000000000000000000000000000000000000000000815273ffffffffffffffffffffffffffffffffffffffff858116600483015282169063d94d420890602401600060405180830381600087803b158015610ad157600080fd5b505af1158015610ae5573d6000803e3d6000fd5b505050505b73ffffffffffffffffffffffffffffffffffffffff821663ef693bed33610b1d6b033b2e3c9fd0803ce800000087611203565b6040517fffffffff0000000000000000000000000000000000000000000000000000000060e085901b16815273ffffffffffffffffffffffffffffffffffffffff909216600483015260248201526044015b600060405180830381600087803b158015610b8957600080fd5b505af1158015610b9d573d6000803e3d6000fd5b5050505050505050565b80600003610bb457505050565b60008373ffffffffffffffffffffffffffffffffffffffff1663a7e944556040518163ffffffff1660e01b8152600401602060405180830381865afa158015610c01573d6000803e3d6000fd5b505050506040513d601f19601f82011682018060405250810190610c25919061119e565b6040517f23b872dd0000000000000000000000000000000000000000000000000000000081523360048201523060248201526044810184905290915073ffffffffffffffffffffffffffffffffffffffff8216906323b872dd906064016020604051808303816000875af1158015610ca1573d6000803e3d6000fd5b505050506040513d601f19601f82011682018060405250810190610cc59190611257565b506040517f095ea7b300000000000000000000000000000000000000000000000000000000815273ffffffffffffffffffffffffffffffffffffffff85811660048301526024820184905282169063095ea7b3906044016020604051808303816000875af1158015610d3b573d6000803e3d6000fd5b505050506040513d601f19601f82011682018060405250810190610d5f9190611257565b506040517f3b4da69f00000000000000000000000000000000000000000000000000000000815273ffffffffffffffffffffffffffffffffffffffff848116600483015260248201849052851690633b4da69f90604401610b6f565b80600003610dc7575050565b600082905060008173ffffffffffffffffffffffffffffffffffffffff166367aea3136040518163ffffffff1660e01b8152600401602060405180830381865afa158015610e19573d6000803e3d6000fd5b505050506040513d601f19601f82011682018060405250810190610e3d919061119e565b6040517f50de215d00000000000000000000000000000000000000000000000000000000815230600482015273ffffffffffffffffffffffffffffffffffffffff8681166024830152919250908216906350de215d90604401602060405180830381865afa158015610eb3573d6000803e3d6000fd5b505050506040513d601f19601f82011682018060405250810190610ed79190611257565b610f5d576040517fd94d420800000000000000000000000000000000000000000000000000000000815273ffffffffffffffffffffffffffffffffffffffff858116600483015282169063d94d420890602401600060405180830381600087803b158015610f4457600080fd5b505af1158015610f58573d6000803e3d6000fd5b505050505b60008273ffffffffffffffffffffffffffffffffffffffff1663313ce5676040518163ffffffff1660e01b8152600401602060405180830381865afa158015610faa573d6000803e3d6000fd5b505050506040513d601f19601f82011682018060405250810190610fce91906111bb565b90506000610fdd82601261123e565b610fe890600a611399565b610ff29086611203565b6040517fef693bed0000000000000000000000000000000000000000000000000000000081523360048201526024810182905290915073ffffffffffffffffffffffffffffffffffffffff85169063ef693bed90604401600060405180830381600087803b15801561106357600080fd5b505af1158015611077573d6000803e3d6000fd5b50505050505050505050565b73ffffffffffffffffffffffffffffffffffffffff811681146110a557600080fd5b50565b6000602082840312156110ba57600080fd5b81356110c581611083565b9392505050565b600080604083850312156110df57600080fd5b82356110ea81611083565b946020939093013593505050565b60008060008060008060c0878903121561111157600080fd5b863561111c81611083565b9550602087013561112c81611083565b9450604087013561113c81611083565b959894975094956060810135955060808101359460a0909101359350915050565b60008060006060848603121561117257600080fd5b833561117d81611083565b9250602084013561118d81611083565b929592945050506040919091013590565b6000602082840312156111b057600080fd5b81516110c581611083565b6000602082840312156111cd57600080fd5b5051919050565b7f4e487b7100000000000000000000000000000000000000000000000000000000600052601160045260246000fd5b600082611239577f4e487b7100000000000000000000000000000000000000000000000000000000600052601260045260246000fd5b500490565b81810381811115611251576112516111d4565b92915050565b60006020828403121561126957600080fd5b815180151581146110c557600080fd5b600181815b808511156112d257817fffffffffffffffffffffffffffffffffffffffffffffffffffffffffffffffff048211156112b8576112b86111d4565b808516156112c557918102915b93841c939080029061127e565b509250929050565b6000826112e957506001611251565b816112f657506000611251565b816001811461130c576002811461131657611332565b6001915050611251565b60ff841115611327576113276111d4565b50506001821b611251565b5060208310610133831016604e8410600b8410161715611355575081810a611251565b61135f8383611279565b807fffffffffffffffffffffffffffffffffffffffffffffffffffffffffffffffff04821115611391576113916111d4565b029392505050565b60006110c583836112da56fea2646970667358221220d4de49a5c9b74e63436e5eac3d8556712b9efe0122bd0222b3c65377def125e364736f6c63430008130033",
    "linkReferences": {}
  },
  "methodIdentifiers": {
    "buyCollateral(address,address,address,uint256,uint256,uint256)": "7ef5e89d",
    "exitAllSystemCoins(address)": "2da46734",
    "exitCollateral(address,uint256)": "d6f25400",
    "exitSystemCoins(address,uint256)": "4f127f43",
    "joinSystemCoins(address,address,uint256)": "902746d7"
  },
  "id": 124
}