{
  "abi": [
    {
      "inputs": [
        {
          "internalType": "address",
          "name": "_safeEngine",
          "type": "address"
        },
        {
          "internalType": "address",
          "name": "__liquidationEngine",
          "type": "address"
        },
        {
          "internalType": "address",
          "name": "__oracleRelayer",
          "type": "address"
        },
        {
          "internalType": "bytes32",
          "name": "_cType",
          "type": "bytes32"
        },
        {
          "components": [
            {
              "internalType": "uint256",
              "name": "minimumBid",
              "type": "uint256"
            },
            {
              "internalType": "uint256",
              "name": "minDiscount",
              "type": "uint256"
            },
            {
              "internalType": "uint256",
              "name": "maxDiscount",
              "type": "uint256"
            },
            {
              "internalType": "uint256",
              "name": "perSecondDiscountUpdateRate",
              "type": "uint256"
            }
          ],
          "internalType": "struct ICollateralAuctionHouse.CollateralAuctionHouseParams",
          "name": "_cahParams",
          "type": "tuple"
        }
      ],
      "stateMutability": "nonpayable",
      "type": "constructor"
    },
    {
      "inputs": [],
      "name": "AlreadyAuthorized",
      "type": "error"
    },
    {
      "inputs": [],
      "name": "CAH_CollateralOracleInvalidValue",
      "type": "error"
    },
    {
      "inputs": [],
      "name": "CAH_DustyAuction",
      "type": "error"
    },
    {
      "inputs": [],
      "name": "CAH_InexistentAuction",
      "type": "error"
    },
    {
      "inputs": [],
      "name": "CAH_InvalidBid",
      "type": "error"
    },
    {
      "inputs": [],
      "name": "CAH_InvalidLeftToRaise",
      "type": "error"
    },
    {
      "inputs": [],
      "name": "CAH_InvalidRedemptionPriceProvided",
      "type": "error"
    },
    {
      "inputs": [],
      "name": "CAH_NoCollateralForSale",
      "type": "error"
    },
    {
      "inputs": [],
      "name": "CAH_NothingToRaise",
      "type": "error"
    },
    {
      "inputs": [],
      "name": "CAH_NullBoughtAmount",
      "type": "error"
    },
    {
      "inputs": [],
      "name": "ContractIsDisabled",
      "type": "error"
    },
    {
      "inputs": [],
      "name": "ContractIsEnabled",
      "type": "error"
    },
    {
      "inputs": [],
      "name": "NonDisableable",
      "type": "error"
    },
    {
      "inputs": [],
      "name": "NotAuthorized",
      "type": "error"
    },
    {
      "inputs": [
        {
          "internalType": "uint256",
          "name": "_x",
          "type": "uint256"
        },
        {
          "internalType": "uint256",
          "name": "_y",
          "type": "uint256"
        }
      ],
      "name": "NotGreaterOrEqualThan",
      "type": "error"
    },
    {
      "inputs": [
        {
          "internalType": "uint256",
          "name": "_x",
          "type": "uint256"
        },
        {
          "internalType": "uint256",
          "name": "_y",
          "type": "uint256"
        }
      ],
      "name": "NotGreaterThan",
      "type": "error"
    },
    {
      "inputs": [
        {
          "internalType": "uint256",
          "name": "_x",
          "type": "uint256"
        },
        {
          "internalType": "uint256",
          "name": "_y",
          "type": "uint256"
        }
      ],
      "name": "NotLesserOrEqualThan",
      "type": "error"
    },
    {
      "inputs": [],
      "name": "NullAddress",
      "type": "error"
    },
    {
      "inputs": [],
      "name": "Unauthorized",
      "type": "error"
    },
    {
      "inputs": [],
      "name": "UnrecognizedCType",
      "type": "error"
    },
    {
      "inputs": [],
      "name": "UnrecognizedParam",
      "type": "error"
    },
    {
      "anonymous": false,
      "inputs": [
        {
          "indexed": false,
          "internalType": "address",
          "name": "_account",
          "type": "address"
        }
      ],
      "name": "AddAuthorization",
      "type": "event"
    },
    {
      "anonymous": false,
      "inputs": [
        {
          "indexed": true,
          "internalType": "uint256",
          "name": "_id",
          "type": "uint256"
        },
        {
          "indexed": false,
          "internalType": "address",
          "name": "_bidder",
          "type": "address"
        },
        {
          "indexed": false,
          "internalType": "uint256",
          "name": "_blockTimestamp",
          "type": "uint256"
        },
        {
          "indexed": false,
          "internalType": "uint256",
          "name": "_raisedAmount",
          "type": "uint256"
        },
        {
          "indexed": false,
          "internalType": "uint256",
          "name": "_soldAmount",
          "type": "uint256"
        }
      ],
      "name": "BuyCollateral",
      "type": "event"
    },
    {
      "anonymous": false,
      "inputs": [],
      "name": "DisableContract",
      "type": "event"
    },
    {
      "anonymous": false,
      "inputs": [
        {
          "indexed": true,
          "internalType": "bytes32",
          "name": "_param",
          "type": "bytes32"
        },
        {
          "indexed": true,
          "internalType": "bytes32",
          "name": "_cType",
          "type": "bytes32"
        },
        {
          "indexed": false,
          "internalType": "bytes",
          "name": "_data",
          "type": "bytes"
        }
      ],
      "name": "ModifyParameters",
      "type": "event"
    },
    {
      "anonymous": false,
      "inputs": [
        {
          "indexed": false,
          "internalType": "address",
          "name": "_account",
          "type": "address"
        }
      ],
      "name": "RemoveAuthorization",
      "type": "event"
    },
    {
      "anonymous": false,
      "inputs": [
        {
          "indexed": true,
          "internalType": "uint256",
          "name": "_id",
          "type": "uint256"
        },
        {
          "indexed": false,
          "internalType": "uint256",
          "name": "_blockTimestamp",
          "type": "uint256"
        },
        {
          "indexed": false,
          "internalType": "address",
          "name": "_leftoverReceiver",
          "type": "address"
        },
        {
          "indexed": false,
          "internalType": "uint256",
          "name": "_leftoverCollateral",
          "type": "uint256"
        }
      ],
      "name": "SettleAuction",
      "type": "event"
    },
    {
      "anonymous": false,
      "inputs": [
        {
          "indexed": true,
          "internalType": "uint256",
          "name": "_id",
          "type": "uint256"
        },
        {
          "indexed": true,
          "internalType": "address",
          "name": "_auctioneer",
          "type": "address"
        },
        {
          "indexed": false,
          "internalType": "uint256",
          "name": "_blockTimestamp",
          "type": "uint256"
        },
        {
          "indexed": false,
          "internalType": "uint256",
          "name": "_amountToSell",
          "type": "uint256"
        },
        {
          "indexed": false,
          "internalType": "uint256",
          "name": "_amountToRaise",
          "type": "uint256"
        }
      ],
      "name": "StartAuction",
      "type": "event"
    },
    {
      "anonymous": false,
      "inputs": [
        {
          "indexed": true,
          "internalType": "uint256",
          "name": "_id",
          "type": "uint256"
        },
        {
          "indexed": false,
          "internalType": "uint256",
          "name": "_blockTimestamp",
          "type": "uint256"
        },
        {
          "indexed": false,
          "internalType": "address",
          "name": "_leftoverReceiver",
          "type": "address"
        },
        {
          "indexed": false,
          "internalType": "uint256",
          "name": "_leftoverCollateral",
          "type": "uint256"
        }
      ],
      "name": "TerminateAuctionPrematurely",
      "type": "event"
    },
    {
      "inputs": [],
      "name": "AUCTION_HOUSE_TYPE",
      "outputs": [
        {
          "internalType": "bytes32",
          "name": "",
          "type": "bytes32"
        }
      ],
      "stateMutability": "view",
      "type": "function"
    },
    {
      "inputs": [
        {
          "internalType": "uint256",
          "name": "_auctionId",
          "type": "uint256"
        }
      ],
      "name": "_auctions",
      "outputs": [
        {
          "internalType": "uint256",
          "name": "amountToSell",
          "type": "uint256"
        },
        {
          "internalType": "uint256",
          "name": "amountToRaise",
          "type": "uint256"
        },
        {
          "internalType": "uint256",
          "name": "initialTimestamp",
          "type": "uint256"
        },
        {
          "internalType": "address",
          "name": "forgoneCollateralReceiver",
          "type": "address"
        },
        {
          "internalType": "address",
          "name": "auctionIncomeRecipient",
          "type": "address"
        }
      ],
      "stateMutability": "view",
      "type": "function"
    },
    {
      "inputs": [],
      "name": "_params",
      "outputs": [
        {
          "internalType": "uint256",
          "name": "minimumBid",
          "type": "uint256"
        },
        {
          "internalType": "uint256",
          "name": "minDiscount",
          "type": "uint256"
        },
        {
          "internalType": "uint256",
          "name": "maxDiscount",
          "type": "uint256"
        },
        {
          "internalType": "uint256",
          "name": "perSecondDiscountUpdateRate",
          "type": "uint256"
        }
      ],
      "stateMutability": "view",
      "type": "function"
    },
    {
      "inputs": [
        {
          "internalType": "address",
          "name": "_account",
          "type": "address"
        }
      ],
      "name": "addAuthorization",
      "outputs": [],
      "stateMutability": "nonpayable",
      "type": "function"
    },
    {
      "inputs": [
        {
          "internalType": "uint256",
          "name": "_auctionId",
          "type": "uint256"
        }
      ],
      "name": "auctions",
      "outputs": [
        {
          "components": [
            {
              "internalType": "uint256",
              "name": "amountToSell",
              "type": "uint256"
            },
            {
              "internalType": "uint256",
              "name": "amountToRaise",
              "type": "uint256"
            },
            {
              "internalType": "uint256",
              "name": "initialTimestamp",
              "type": "uint256"
            },
            {
              "internalType": "address",
              "name": "forgoneCollateralReceiver",
              "type": "address"
            },
            {
              "internalType": "address",
              "name": "auctionIncomeRecipient",
              "type": "address"
            }
          ],
          "internalType": "struct ICollateralAuctionHouse.Auction",
          "name": "_auction",
          "type": "tuple"
        }
      ],
      "stateMutability": "view",
      "type": "function"
    },
    {
      "inputs": [],
      "name": "auctionsStarted",
      "outputs": [
        {
          "internalType": "uint256",
          "name": "",
          "type": "uint256"
        }
      ],
      "stateMutability": "view",
      "type": "function"
    },
    {
      "inputs": [
        {
          "internalType": "address",
          "name": "_account",
          "type": "address"
        }
      ],
      "name": "authorizedAccounts",
      "outputs": [
        {
          "internalType": "bool",
          "name": "_authorized",
          "type": "bool"
        }
      ],
      "stateMutability": "view",
      "type": "function"
    },
    {
      "inputs": [],
      "name": "authorizedAccounts",
      "outputs": [
        {
          "internalType": "address[]",
          "name": "_accounts",
          "type": "address[]"
        }
      ],
      "stateMutability": "view",
      "type": "function"
    },
    {
      "inputs": [
        {
          "internalType": "uint256",
          "name": "_id",
          "type": "uint256"
        },
        {
          "internalType": "uint256",
          "name": "_wad",
          "type": "uint256"
        }
      ],
      "name": "buyCollateral",
      "outputs": [
        {
          "internalType": "uint256",
          "name": "_boughtCollateral",
          "type": "uint256"
        },
        {
          "internalType": "uint256",
          "name": "_adjustedBid",
          "type": "uint256"
        }
      ],
      "stateMutability": "nonpayable",
      "type": "function"
    },
    {
      "inputs": [],
      "name": "collateralType",
      "outputs": [
        {
          "internalType": "bytes32",
          "name": "",
          "type": "bytes32"
        }
      ],
      "stateMutability": "view",
      "type": "function"
    },
    {
      "inputs": [],
      "name": "contractEnabled",
      "outputs": [
        {
          "internalType": "bool",
          "name": "",
          "type": "bool"
        }
      ],
      "stateMutability": "view",
      "type": "function"
    },
    {
      "inputs": [],
      "name": "disableContract",
      "outputs": [],
      "stateMutability": "nonpayable",
      "type": "function"
    },
    {
      "inputs": [
        {
          "internalType": "uint256",
          "name": "_id",
          "type": "uint256"
        }
      ],
      "name": "getAuctionDiscount",
      "outputs": [
        {
          "internalType": "uint256",
          "name": "_auctionDiscount",
          "type": "uint256"
        }
      ],
      "stateMutability": "view",
      "type": "function"
    },
    {
      "inputs": [
        {
          "internalType": "uint256",
          "name": "_id",
          "type": "uint256"
        },
        {
          "internalType": "uint256",
          "name": "_wad",
          "type": "uint256"
        }
      ],
      "name": "getCollateralBought",
      "outputs": [
        {
          "internalType": "uint256",
          "name": "_boughtCollateral",
          "type": "uint256"
        },
        {
          "internalType": "uint256",
          "name": "_adjustedBid",
          "type": "uint256"
        }
      ],
      "stateMutability": "view",
      "type": "function"
    },
    {
      "inputs": [],
      "name": "liquidationEngine",
      "outputs": [
        {
          "internalType": "contract ILiquidationEngine",
          "name": "__liquidationEngine",
          "type": "address"
        }
      ],
      "stateMutability": "view",
      "type": "function"
    },
    {
      "inputs": [
        {
          "internalType": "bytes32",
          "name": "_cType",
          "type": "bytes32"
        },
        {
          "internalType": "bytes32",
          "name": "_param",
          "type": "bytes32"
        },
        {
          "internalType": "bytes",
          "name": "_data",
          "type": "bytes"
        }
      ],
      "name": "modifyParameters",
      "outputs": [],
      "stateMutability": "nonpayable",
      "type": "function"
    },
    {
      "inputs": [
        {
          "internalType": "bytes32",
          "name": "_param",
          "type": "bytes32"
        },
        {
          "internalType": "bytes",
          "name": "_data",
          "type": "bytes"
        }
      ],
      "name": "modifyParameters",
      "outputs": [],
      "stateMutability": "nonpayable",
      "type": "function"
    },
    {
      "inputs": [],
      "name": "oracleRelayer",
      "outputs": [
        {
          "internalType": "contract IOracleRelayer",
          "name": "__oracleRelayer",
          "type": "address"
        }
      ],
      "stateMutability": "view",
      "type": "function"
    },
    {
      "inputs": [],
      "name": "params",
      "outputs": [
        {
          "components": [
            {
              "internalType": "uint256",
              "name": "minimumBid",
              "type": "uint256"
            },
            {
              "internalType": "uint256",
              "name": "minDiscount",
              "type": "uint256"
            },
            {
              "internalType": "uint256",
              "name": "maxDiscount",
              "type": "uint256"
            },
            {
              "internalType": "uint256",
              "name": "perSecondDiscountUpdateRate",
              "type": "uint256"
            }
          ],
          "internalType": "struct ICollateralAuctionHouse.CollateralAuctionHouseParams",
          "name": "_cahParams",
          "type": "tuple"
        }
      ],
      "stateMutability": "view",
      "type": "function"
    },
    {
      "inputs": [
        {
          "internalType": "address",
          "name": "_account",
          "type": "address"
        }
      ],
      "name": "removeAuthorization",
      "outputs": [],
      "stateMutability": "nonpayable",
      "type": "function"
    },
    {
      "inputs": [],
      "name": "safeEngine",
      "outputs": [
        {
          "internalType": "contract ISAFEEngine",
          "name": "",
          "type": "address"
        }
      ],
      "stateMutability": "view",
      "type": "function"
    },
    {
      "inputs": [
        {
          "internalType": "uint256",
          "name": "",
          "type": "uint256"
        }
      ],
      "name": "settleAuction",
      "outputs": [],
      "stateMutability": "pure",
      "type": "function"
    },
    {
      "inputs": [
        {
          "internalType": "address",
          "name": "_forgoneCollateralReceiver",
          "type": "address"
        },
        {
          "internalType": "address",
          "name": "_auctionIncomeRecipient",
          "type": "address"
        },
        {
          "internalType": "uint256",
          "name": "_amountToRaise",
          "type": "uint256"
        },
        {
          "internalType": "uint256",
          "name": "_amountToSell",
          "type": "uint256"
        }
      ],
      "name": "startAuction",
      "outputs": [
        {
          "internalType": "uint256",
          "name": "_id",
          "type": "uint256"
        }
      ],
      "stateMutability": "nonpayable",
      "type": "function"
    },
    {
      "inputs": [
        {
          "internalType": "uint256",
          "name": "_id",
          "type": "uint256"
        }
      ],
      "name": "terminateAuctionPrematurely",
      "outputs": [],
      "stateMutability": "nonpayable",
      "type": "function"
    }
  ],
  "bytecode": {
    "object": "0x60806040526002805460ff191660011790553480156200001e57600080fd5b5060405162002dd838038062002dd8833981016040819052620000419162000506565b336200004d81620000e6565b50620000626001600160a01b03861662000155565b600280546001600160a01b039290921661010002610100600160a81b0319909216919091179055620000948462000183565b600480546001600160a01b0319166001600160a01b0385161790556005829055805160085560208101516009556040810151600a556060810151600b55620000db620001d2565b50505050506200061c565b620000f360008262000265565b1562000139576040516001600160a01b03821681527f599a298163e1678bb1c676052a8930bf0b8a1261ed6e01b8a2391e55f7000102906020015b60405180910390a150565b604051633013e93f60e11b815260040160405180910390fd5b50565b60006001600160a01b0382166200017f5760405163e99d5ac560e01b815260040160405180910390fd5b5090565b6003546001600160a01b031615620001ac57600354620001ac906001600160a01b031662000285565b600380546001600160a01b0319166001600160a01b0383161790556200015281620000e6565b620001f8620001e96003546001600160a01b031690565b6001600160a01b031662000155565b5062000210620001e96004546001600160a01b031690565b50600a546009546200023891670de0b6b3a7640000916200023191620002eb565b9062000325565b50600a546200024990600062000354565b50600b5462000152906b033b2e3c9fd0803ce800000062000325565b60006200027c836001600160a01b03841662000382565b90505b92915050565b62000292600082620003d4565b15620002d2576040516001600160a01b03821681527f8834a87e641e9716be4f34527af5d23e11624f1ddeefede6ad75a9acfc31b903906020016200012e565b60405163ea8e4eb560e01b815260040160405180910390fd5b6000818310156200031e57604051631d7ee3a360e01b815260048101849052602481018390526044015b60405180910390fd5b5090919050565b6000818311156200031e576040516347df8ef360e01b8152600481018490526024810183905260440162000315565b60008183116200031e5760405163130ac85760e21b8152600481018490526024810183905260440162000315565b6000818152600183016020526040812054620003cb575081546001818101845560008481526020808220909301849055845484825282860190935260409020919091556200027f565b5060006200027f565b60006200027c836001600160a01b03841660008181526001830160205260408120548015620004de5760006200040c600183620005ce565b85549091506000906200042290600190620005ce565b90508181146200048e576000866000018281548110620004465762000446620005f0565b90600052602060002001549050808760000184815481106200046c576200046c620005f0565b6000918252602080832090910192909255918252600188019052604090208390555b8554869080620004a257620004a262000606565b6001900381819060005260206000200160009055905585600101600086815260200190815260200160002060009055600193505050506200027f565b60009150506200027f565b80516001600160a01b03811681146200050157600080fd5b919050565b60008060008060008587036101008112156200052157600080fd5b6200052c87620004e9565b95506200053c60208801620004e9565b94506200054c60408801620004e9565b9350606087015192506080607f19820112156200056857600080fd5b50604051608081016001600160401b03811182821017156200059a57634e487b7160e01b600052604160045260246000fd5b60409081526080880151825260a0880151602083015260c08801519082015260e09096015160608701525092959194509290565b818103818111156200027f57634e487b7160e01b600052601160045260246000fd5b634e487b7160e01b600052603260045260246000fd5b634e487b7160e01b600052603160045260246000fd5b6127ac806200062c6000396000f3fe608060405234801561001057600080fd5b50600436106101985760003560e01c806354ece2d3116100e3578063933f76081161008c578063da8a4bb811610066578063da8a4bb8146104d5578063e824600f146104e8578063f9e127ed146104f157600080fd5b8063933f76081461047457806394f3f81d14610487578063cff0ab961461049a57600080fd5b8063571a26a0116100bd578063571a26a0146103d657806367aea31314610447578063894ba8331461046c57600080fd5b806354ece2d314610384578063551cb3b114610397578063552b16ab146103a057600080fd5b806335b281531161014557806344bf3c721161011f57806344bf3c72146103145780634c33b223146103535780634faf61ab1461036657600080fd5b806335b28153146102cc578063394e954d146102df57806341b3a0d91461030757600080fd5b806324ba58841161017657806324ba5884146102835780632e391876146102a65780632e993611146102bb57600080fd5b80631266fb941461019d57806312f33526146101d757806317dc6bf6146101ec575b600080fd5b6101c47f434f4c4c41544552414c0000000000000000000000000000000000000000000081565b6040519081526020015b60405180910390f35b6101ea6101e536600461236c565b610504565b005b6102426101fa3660046123bc565b6007602052600090815260409020805460018201546002830154600384015460049094015492939192909173ffffffffffffffffffffffffffffffffffffffff908116911685565b6040805195865260208601949094529284019190915273ffffffffffffffffffffffffffffffffffffffff908116606084015216608082015260a0016101ce565b6102966102913660046123f7565b61058f565b60405190151581526020016101ce565b6102ae6105a0565b6040516101ce9190612414565b6101ea6102c93660046123bc565b50565b6101ea6102da3660046123f7565b6105b1565b6102f26102ed36600461246e565b6105f9565b604080519283526020830191909152016101ce565b6002546102969060ff1681565b60035473ffffffffffffffffffffffffffffffffffffffff165b60405173ffffffffffffffffffffffffffffffffffffffff90911681526020016101ce565b6101c4610361366004612490565b61073a565b60045473ffffffffffffffffffffffffffffffffffffffff1661032e565b6102f261039236600461246e565b610a0c565b6101c460065481565b600854600954600a54600b546103b69392919084565b6040805194855260208501939093529183015260608201526080016101ce565b6103e96103e43660046123bc565b61116c565b6040516101ce9190600060a082019050825182526020830151602083015260408301516040830152606083015173ffffffffffffffffffffffffffffffffffffffff8082166060850152806080860151166080850152505092915050565b60025461032e90610100900473ffffffffffffffffffffffffffffffffffffffff1681565b6101ea611234565b6101ea6104823660046123bc565b611302565b6101ea6104953660046123f7565b6115cc565b6104a2611614565b6040516101ce91908151815260208083015190820152604080830151908201526060918201519181019190915260800190565b6101ea6104e33660046124d6565b61166c565b6101c460055481565b6101c46104ff3660046123bc565b6116fd565b61050d33611708565b610543576040517f82b4290000000000000000000000000000000000000000000000000000000000815260040160405180910390fd5b8261054f848484611714565b83837fe436a8be7dc6aab90b400800ecc86e46fb600f2e18989b5d0389840fdabbf2ed84604051610580919061251d565b60405180910390a35b50505050565b600061059a82611708565b92915050565b60606105ac6000611746565b905090565b6105ba33611708565b6105f0576040517f82b4290000000000000000000000000000000000000000000000000000000000815260040160405180910390fd5b6102c98161175a565b60008061060684846117e9565b90508060000361061b57506000905080610733565b600061063c60045473ffffffffffffffffffffffffffffffffffffffff1690565b73ffffffffffffffffffffffffffffffffffffffff1663b65fdaf86040518163ffffffff1660e01b8152600401602060405180830381865afa158015610686573d6000803e3d6000fd5b505050506040513d601f19601f820116820180604052508101906106aa9190612589565b9050806000036106e6576040517f4fd467f200000000000000000000000000000000000000000000000000000000815260040160405180910390fd5b60006106f06118bb565b90508060000361070557600093505050610733565b60008681526007602052604090205461072b9082908490866107268b6119e8565b611a59565b909450925050505b9250929050565b600061074533611708565b61077b576040517f82b4290000000000000000000000000000000000000000000000000000000000815260040160405180910390fd5b60025460ff166107b7576040517f7abbf1c900000000000000000000000000000000000000000000000000000000815260040160405180910390fd5b816000036107f1576040517f94bc22de00000000000000000000000000000000000000000000000000000000815260040160405180910390fd5b8260000361082b576040517f42aa37b500000000000000000000000000000000000000000000000000000000815260040160405180910390fd5b6b033b2e3c9fd0803ce8000000831015610871576040517f44befff500000000000000000000000000000000000000000000000000000000815260040160405180910390fd5b600660008154610880906125d1565b91829055506040805160a08101825284815260208082018781524283850190815273ffffffffffffffffffffffffffffffffffffffff8b8116606086019081528b82166080870190815260008981526007909652948790209551865592516001860155905160028086019190915591516003850180549183167fffffffffffffffffffffffff000000000000000000000000000000000000000092831617905592516004948501805491831691909416179092555460055493517f4e5111a6000000000000000000000000000000000000000000000000000000008152928301939093523360248301523060448301526064820186905292935061010090910490911690634e5111a690608401600060405180830381600087803b1580156109a757600080fd5b505af11580156109bb573d6000803e3d6000fd5b505060408051428152602081018690529081018690523392508391507f12debc2e95b4855c4501785a964ecc023c4e0ef8bcacc733f72647820048a5b39060600160405180910390a3949350505050565b600080610a1b60025460ff1690565b610a51576040517f7abbf1c900000000000000000000000000000000000000000000000000000000815260040160405180910390fd5b6000848152600760205260409020831580610a6d575060085484105b15610aa4576040517f6b065b6400000000000000000000000000000000000000000000000000000000815260040160405180910390fd5b610aae85856117e9565b915081600003610aea576040517ff21f9b2500000000000000000000000000000000000000000000000000000000815260040160405180910390fd5b6000610b0b60045473ffffffffffffffffffffffffffffffffffffffff1690565b73ffffffffffffffffffffffffffffffffffffffff1663c5b748c06040518163ffffffff1660e01b81526004016020604051808303816000875af1158015610b57573d6000803e3d6000fd5b505050506040513d601f19601f82011682018060405250810190610b7b9190612589565b905080600003610bb7576040517f4fd467f200000000000000000000000000000000000000000000000000000000815260040160405180910390fd5b6000610bc16118bb565b905080600003610bfd576040517f5e8b115100000000000000000000000000000000000000000000000000000000815260040160405180910390fd5b610c1181838560000154876107268c6119e8565b90955093506000859003610c51576040517f5a2b7be000000000000000000000000000000000000000000000000000000000815260040160405180910390fd5b600254600484015473ffffffffffffffffffffffffffffffffffffffff61010090920482169163efabcadc91339116610c966b033b2e3c9fd0803ce800000089612609565b6040517fffffffff0000000000000000000000000000000000000000000000000000000060e086901b16815273ffffffffffffffffffffffffffffffffffffffff93841660048201529290911660248301526044820152606401600060405180830381600087803b158015610d0a57600080fd5b505af1158015610d1e573d6000803e3d6000fd5b50506002546005546040517f4e5111a600000000000000000000000000000000000000000000000000000000815260048101919091523060248201523360448201526064810189905261010090910473ffffffffffffffffffffffffffffffffffffffff169250634e5111a69150608401600060405180830381600087803b158015610da957600080fd5b505af1158015610dbd573d6000803e3d6000fd5b505050506001830154610ddc6b033b2e3c9fd0803ce800000086612609565b108015610de95750825485105b15610f165784836000016000828254610e029190612620565b90915550610e1e90506b033b2e3c9fd0803ce800000085612609565b836001016000828254610e319190612620565b9091555050600854610e50906b033b2e3c9fd0803ce800000090612609565b83600101541015610e8d576040517fb1b2b1ae00000000000000000000000000000000000000000000000000000000815260040160405180910390fd5b60035473ffffffffffffffffffffffffffffffffffffffff1663332bef11610ec16b033b2e3c9fd0803ce800000087612609565b6040518263ffffffff1660e01b8152600401610edf91815260200190565b600060405180830381600087803b158015610ef957600080fd5b505af1158015610f0d573d6000803e3d6000fd5b50505050611119565b8254600090610f26908790612620565b90508015610fd75760025460055460038601546040517f4e5111a6000000000000000000000000000000000000000000000000000000008152600481019290925230602483015273ffffffffffffffffffffffffffffffffffffffff90811660448301526064820184905261010090920490911690634e5111a690608401600060405180830381600087803b158015610fbe57600080fd5b505af1158015610fd2573d6000803e3d6000fd5b505050505b60035460018501546040517f332bef11000000000000000000000000000000000000000000000000000000008152600481019190915273ffffffffffffffffffffffffffffffffffffffff9091169063332bef1190602401600060405180830381600087803b15801561104957600080fd5b505af115801561105d573d6000803e3d6000fd5b5050505060038401546040805142815273ffffffffffffffffffffffffffffffffffffffff9092166020830152810182905288907fce605a43280ed04bb2cf4231276a425e3650af62821a5e1f0c8daf63beba6c349060600160405180910390a25060008781526007602052604081208181556001810182905560028101919091556003810180547fffffffffffffffffffffffff00000000000000000000000000000000000000009081169091556004909101805490911690555b604080513381524260208201529081018590526060810186905287907f3863cd386fc3724e4a2a503e086d66a44f7bf877e30ff90e183129671281aa399060800160405180910390a25050509250929050565b6111ca6040518060a00160405280600081526020016000815260200160008152602001600073ffffffffffffffffffffffffffffffffffffffff168152602001600073ffffffffffffffffffffffffffffffffffffffff1681525090565b50600090815260076020908152604091829020825160a08101845281548152600182015492810192909252600281015492820192909252600382015473ffffffffffffffffffffffffffffffffffffffff9081166060830152600490920154909116608082015290565b61123d33611708565b611273576040517f82b4290000000000000000000000000000000000000000000000000000000000815260040160405180910390fd5b60025460ff166112af576040517f7abbf1c900000000000000000000000000000000000000000000000000000000815260040160405180910390fd5b600280547fffffffffffffffffffffffffffffffffffffffffffffffffffffffffffffff001690556040517f2d4b4ecff7bd7503135271925520a2f6c0d98c9473ffc1a1e72c92502f51b25e90600090a1565b61130b33611708565b611341576040517f82b4290000000000000000000000000000000000000000000000000000000000815260040160405180910390fd5b600081815260076020908152604091829020825160a0810184528154808252600183015493820193909352600282015493810193909352600381015473ffffffffffffffffffffffffffffffffffffffff908116606085015260049091015416608083015215806113b457506020810151155b156113eb576040517ff21f9b2500000000000000000000000000000000000000000000000000000000815260040160405180910390fd5b60035460208201516040517f332bef11000000000000000000000000000000000000000000000000000000008152600481019190915273ffffffffffffffffffffffffffffffffffffffff9091169063332bef1190602401600060405180830381600087803b15801561145d57600080fd5b505af1158015611471573d6000803e3d6000fd5b505060025460055484516040517f4e5111a60000000000000000000000000000000000000000000000000000000081526004810192909252306024830152336044830152606482015261010090910473ffffffffffffffffffffffffffffffffffffffff169250634e5111a69150608401600060405180830381600087803b1580156114fc57600080fd5b505af1158015611510573d6000803e3d6000fd5b5050505060608181015182516040805142815273ffffffffffffffffffffffffffffffffffffffff909316602084015282015283917f728fcceeefd42b7de1122fe9fef58c0bacd081dcbd7a141315835ba00d29b4b1910160405180910390a25060009081526007602052604081208181556001810182905560028101919091556003810180547fffffffffffffffffffffffff0000000000000000000000000000000000000000908116909155600490910180549091169055565b6115d533611708565b61160b576040517f82b4290000000000000000000000000000000000000000000000000000000000815260040160405180910390fd5b6102c981611ab5565b61163f6040518060800160405280600081526020016000815260200160008152602001600081525090565b506040805160808101825260085481526009546020820152600a5491810191909152600b54606082015290565b61167533611708565b6116ab576040517f82b4290000000000000000000000000000000000000000000000000000000000815260040160405180910390fd5b6116b58282611b3d565b6000801b827fe436a8be7dc6aab90b400800ecc86e46fb600f2e18989b5d0389840fdabbf2ed836040516116e9919061251d565b60405180910390a36116f9611cc0565b5050565b600061059a826119e8565b600061059a8183611d6d565b6040517f9d2ff48000000000000000000000000000000000000000000000000000000000815260040160405180910390fd5b6060600061175383611d9c565b9392505050565b611765600082611df8565b156117b75760405173ffffffffffffffffffffffffffffffffffffffff821681527f599a298163e1678bb1c676052a8930bf0b8a1261ed6e01b8a2391e55f7000102906020015b60405180910390a150565b6040517f6027d27e00000000000000000000000000000000000000000000000000000000815260040160405180910390fd5b6000828152600760209081526040808320815160a081018352815481526001820154938101849052600282015492810192909252600381015473ffffffffffffffffffffffffffffffffffffffff908116606084015260049091015416608082015290158061185757508051155b1561186657600091505061059a565b60208101518392506118846b033b2e3c9fd0803ce800000084612609565b11156118b4576b033b2e3c9fd0803ce800000081602001516118a69190612633565b6118b190600161266e565b91505b5092915050565b6000806118dd60045473ffffffffffffffffffffffffffffffffffffffff1690565b73ffffffffffffffffffffffffffffffffffffffff1663e54201f66005546040518263ffffffff1660e01b815260040161191991815260200190565b606060405180830381865afa158015611936573d6000803e3d6000fd5b505050506040513d601f19601f8201168201806040525081019061195a9190612681565b60000151905060008173ffffffffffffffffffffffffffffffffffffffff16634fd0ada86040518163ffffffff1660e01b81526004016040805180830381865afa1580156119ac573d6000803e3d6000fd5b505050506040513d601f19601f820116820180604052508101906119d091906126e3565b9093509050806119e35760009250505090565b505090565b600081815260076020526040812060020154808203611a115750670de0b6b3a764000092915050565b6000611a1d8242612620565b600954600b54919250611a3a91611a349084611e1a565b90611f0f565b600a54909350831015611a52575050600a5492915050565b5050919050565b60008080611a7184611a6b8a8a611f32565b90611f4b565b9050611a7d8582611f60565b9250858311611a8f5750839050611aab565b82611a9a8787612609565b611aa49190612633565b9150859250505b9550959350505050565b611ac0600082611f75565b15611b0b5760405173ffffffffffffffffffffffffffffffffffffffff821681527f8834a87e641e9716be4f34527af5d23e11624f1ddeefede6ad75a9acfc31b903906020016117ac565b6040517fea8e4eb500000000000000000000000000000000000000000000000000000000815260040160405180910390fd5b6000611b4a826020015190565b90506000611b59836020015190565b9050837f6c69717569646174696f6e456e67696e6500000000000000000000000000000003611b9057611b8b82611f97565b610589565b837f6f7261636c6552656c617965720000000000000000000000000000000000000003611bfc57600480547fffffffffffffffffffffffff00000000000000000000000000000000000000001673ffffffffffffffffffffffffffffffffffffffff8416179055610589565b837f6d696e696d756d4269640000000000000000000000000000000000000000000003611c2d576008819055610589565b837f6d696e446973636f756e7400000000000000000000000000000000000000000003611c5e576009819055610589565b837f6d6178446973636f756e7400000000000000000000000000000000000000000003611c8f57600a819055610589565b837f7065725365636f6e64446973636f756e745570646174655261746500000000000361171457600b819055610589565b611cfd611ce260035473ffffffffffffffffffffffffffffffffffffffff1690565b73ffffffffffffffffffffffffffffffffffffffff16612020565b50611d20611ce260045473ffffffffffffffffffffffffffffffffffffffff1690565b50600a54600954611d4491670de0b6b3a764000091611d3e91612073565b906120c5565b50600a54611d5390600061210b565b50600b546102c9906b033b2e3c9fd0803ce80000006120c5565b73ffffffffffffffffffffffffffffffffffffffff811660009081526001830160205260408120541515611753565b606081600001805480602002602001604051908101604052809291908181526020018280548015611dec57602002820191906000526020600020905b815481526020019060010190808311611dd8575b50505050509050919050565b60006117538373ffffffffffffffffffffffffffffffffffffffff8416612150565b6000828015611ee757600183168015611e3557849250611e45565b6b033b2e3c9fd0803ce800000092505b506002909204916b019d971e4fe8401e740000005b8315611ee1578485028586820414611e7157600080fd5b81810181811015611e8157600080fd5b6b033b2e3c9fd0803ce800000090049550506001841615611ed6578483028386820414158615151615611eb357600080fd5b81810181811015611ec357600080fd5b6b033b2e3c9fd0803ce800000090049350505b600284049350611e5a565b506118b4565b828015611ef75760009250611f07565b6b033b2e3c9fd0803ce800000092505b505092915050565b60006b033b2e3c9fd0803ce8000000611f288385612609565b6117539190612633565b600081611f286b033b2e3c9fd0803ce800000085612609565b6000670de0b6b3a7640000611f288385612609565b600081611f28670de0b6b3a764000085612609565b60006117538373ffffffffffffffffffffffffffffffffffffffff841661219f565b60035473ffffffffffffffffffffffffffffffffffffffff1615611fd757600354611fd79073ffffffffffffffffffffffffffffffffffffffff16611ab5565b600380547fffffffffffffffffffffffff00000000000000000000000000000000000000001673ffffffffffffffffffffffffffffffffffffffff83161790556102c98161175a565b600073ffffffffffffffffffffffffffffffffffffffff821661206f576040517fe99d5ac500000000000000000000000000000000000000000000000000000000815260040160405180910390fd5b5090565b6000818310156120be576040517f1d7ee3a300000000000000000000000000000000000000000000000000000000815260048101849052602481018390526044015b60405180910390fd5b5090919050565b6000818311156120be576040517f47df8ef300000000000000000000000000000000000000000000000000000000815260048101849052602481018390526044016120b5565b60008183116120be576040517f4c2b215c00000000000000000000000000000000000000000000000000000000815260048101849052602481018390526044016120b5565b60008181526001830160205260408120546121975750815460018181018455600084815260208082209093018490558454848252828601909352604090209190915561059a565b50600061059a565b600081815260018301602052604081205480156122885760006121c3600183612620565b85549091506000906121d790600190612620565b905081811461223c5760008660000182815481106121f7576121f7612718565b906000526020600020015490508087600001848154811061221a5761221a612718565b6000918252602080832090910192909255918252600188019052604090208390555b855486908061224d5761224d612747565b60019003818190600052602060002001600090559055856001016000868152602001908152602001600020600090556001935050505061059a565b600091505061059a565b7f4e487b7100000000000000000000000000000000000000000000000000000000600052604160045260246000fd5b600082601f8301126122d257600080fd5b813567ffffffffffffffff808211156122ed576122ed612292565b604051601f83017fffffffffffffffffffffffffffffffffffffffffffffffffffffffffffffffe0908116603f0116810190828211818310171561233357612333612292565b8160405283815286602085880101111561234c57600080fd5b836020870160208301376000602085830101528094505050505092915050565b60008060006060848603121561238157600080fd5b8335925060208401359150604084013567ffffffffffffffff8111156123a657600080fd5b6123b2868287016122c1565b9150509250925092565b6000602082840312156123ce57600080fd5b5035919050565b73ffffffffffffffffffffffffffffffffffffffff811681146102c957600080fd5b60006020828403121561240957600080fd5b8135611753816123d5565b6020808252825182820181905260009190848201906040850190845b8181101561246257835173ffffffffffffffffffffffffffffffffffffffff1683529284019291840191600101612430565b50909695505050505050565b6000806040838503121561248157600080fd5b50508035926020909101359150565b600080600080608085870312156124a657600080fd5b84356124b1816123d5565b935060208501356124c1816123d5565b93969395505050506040820135916060013590565b600080604083850312156124e957600080fd5b82359150602083013567ffffffffffffffff81111561250757600080fd5b612513858286016122c1565b9150509250929050565b600060208083528351808285015260005b8181101561254a5785810183015185820160400152820161252e565b5060006040828601015260407fffffffffffffffffffffffffffffffffffffffffffffffffffffffffffffffe0601f8301168501019250505092915050565b60006020828403121561259b57600080fd5b5051919050565b7f4e487b7100000000000000000000000000000000000000000000000000000000600052601160045260246000fd5b60007fffffffffffffffffffffffffffffffffffffffffffffffffffffffffffffffff8203612602576126026125a2565b5060010190565b808202811582820484141761059a5761059a6125a2565b8181038181111561059a5761059a6125a2565b600082612669577f4e487b7100000000000000000000000000000000000000000000000000000000600052601260045260246000fd5b500490565b8082018082111561059a5761059a6125a2565b60006060828403121561269357600080fd5b6040516060810181811067ffffffffffffffff821117156126b6576126b6612292565b60405282516126c4816123d5565b8152602083810151908201526040928301519281019290925250919050565b600080604083850312156126f657600080fd5b825191506020830151801515811461270d57600080fd5b809150509250929050565b7f4e487b7100000000000000000000000000000000000000000000000000000000600052603260045260246000fd5b7f4e487b7100000000000000000000000000000000000000000000000000000000600052603160045260246000fdfea2646970667358221220f4b736a2f4f2725eea1ac6238bba8ea17f4e6d368c180070f53eac0bfe6256ad64736f6c63430008130033",
    "linkReferences": {}
  },
  "methodIdentifiers": {
    "AUCTION_HOUSE_TYPE()": "1266fb94",
    "_auctions(uint256)": "17dc6bf6",
    "_params()": "552b16ab",
    "addAuthorization(address)": "35b28153",
    "auctions(uint256)": "571a26a0",
    "auctionsStarted()": "551cb3b1",
    "authorizedAccounts()": "2e391876",
    "authorizedAccounts(address)": "24ba5884",
    "buyCollateral(uint256,uint256)": "54ece2d3",
    "collateralType()": "e824600f",
    "contractEnabled()": "41b3a0d9",
    "disableContract()": "894ba833",
    "getAuctionDiscount(uint256)": "f9e127ed",
    "getCollateralBought(uint256,uint256)": "394e954d",
    "liquidationEngine()": "44bf3c72",
    "modifyParameters(bytes32,bytes)": "da8a4bb8",
    "modifyParameters(bytes32,bytes32,bytes)": "12f33526",
    "oracleRelayer()": "4faf61ab",
    "params()": "cff0ab96",
    "removeAuthorization(address)": "94f3f81d",
    "safeEngine()": "67aea313",
    "settleAuction(uint256)": "2e993611",
    "startAuction(address,address,uint256,uint256)": "4c33b223",
    "terminateAuctionPrematurely(uint256)": "933f7608"
  },
  "id": 52
}