{
  "abi": [
    {
      "inputs": [],
      "name": "OnlyDelegateCalls",
      "type": "error"
    },
    {
      "inputs": [
        {
          "internalType": "address",
          "name": "_coinJoin",
          "type": "address"
        },
        {
          "internalType": "address",
          "name": "_collateralJoin",
          "type": "address"
        },
        {
          "internalType": "address",
          "name": "_collateralAuctionHouse",
          "type": "address"
        },
        {
          "internalType": "uint256",
          "name": "_auctionId",
          "type": "uint256"
        },
        {
          "internalType": "uint256",
          "name": "_minCollateralAmount",
          "type": "uint256"
        },
        {
          "internalType": "uint256",
          "name": "_bidAmount",
          "type": "uint256"
        }
      ],
      "name": "buyCollateral",
      "outputs": [],
      "stateMutability": "nonpayable",
      "type": "function"
    },
    {
      "inputs": [
        {
          "internalType": "address",
          "name": "_coinJoin",
          "type": "address"
        }
      ],
      "name": "exitAllSystemCoins",
      "outputs": [],
      "stateMutability": "nonpayable",
      "type": "function"
    },
    {
      "inputs": [
        {
          "internalType": "address",
          "name": "_collateralJoin",
          "type": "address"
        },
        {
          "internalType": "uint256",
          "name": "_wad",
          "type": "uint256"
        }
      ],
      "name": "exitCollateral",
      "outputs": [],
      "stateMutability": "nonpayable",
      "type": "function"
    },
    {
      "inputs": [
        {
          "internalType": "address",
          "name": "_coinJoin",
          "type": "address"
        },
        {
          "internalType": "uint256",
          "name": "_coinsToExit",
          "type": "uint256"
        }
      ],
      "name": "exitSystemCoins",
      "outputs": [],
      "stateMutability": "nonpayable",
      "type": "function"
    },
    {
      "inputs": [
        {
          "internalType": "address",
          "name": "_coinJoin",
          "type": "address"
        },
        {
          "internalType": "address",
          "name": "_dst",
          "type": "address"
        },
        {
          "internalType": "uint256",
          "name": "_wad",
          "type": "uint256"
        }
      ],
      "name": "joinSystemCoins",
      "outputs": [],
      "stateMutability": "nonpayable",
      "type": "function"
    }
  ],
  "bytecode": {
    "object": "0x60a06040523060805234801561001457600080fd5b506080516112be61004b6000396000818160e401528181610264015281816102dd0152818161073201526107b101526112be6000f3fe608060405234801561001057600080fd5b50600436106100675760003560e01c80637ef5e89d116100505780637ef5e89d14610094578063902746d7146100a7578063d6f25400146100ba57600080fd5b80632da467341461006c5780634f127f4314610081575b600080fd5b61007f61007a366004610f67565b6100cd565b005b61007f61008f366004610f8b565b61024d565b61007f6100a2366004610fb7565b6102c6565b61007f6100b536600461101c565b61071b565b61007f6100c8366004610f8b565b61079a565b73ffffffffffffffffffffffffffffffffffffffff7f000000000000000000000000000000000000000000000000000000000000000016300361013c576040517f0406dd4b00000000000000000000000000000000000000000000000000000000815260040160405180910390fd5b60008173ffffffffffffffffffffffffffffffffffffffff166367aea3136040518163ffffffff1660e01b8152600401602060405180830381865afa158015610189573d6000803e3d6000fd5b505050506040513d601f19601f820116820180604052508101906101ad919061105d565b6040517ffabde80c00000000000000000000000000000000000000000000000000000000815230600482015273ffffffffffffffffffffffffffffffffffffffff919091169063fabde80c90602401602060405180830381865afa158015610219573d6000803e3d6000fd5b505050506040513d601f19601f8201168201806040525081019061023d919061107a565b90506102498282610813565b5050565b73ffffffffffffffffffffffffffffffffffffffff7f00000000000000000000000000000000000000000000000000000000000000001630036102bc576040517f0406dd4b00000000000000000000000000000000000000000000000000000000815260040160405180910390fd5b6102498282610813565b73ffffffffffffffffffffffffffffffffffffffff7f0000000000000000000000000000000000000000000000000000000000000000163003610335576040517f0406dd4b00000000000000000000000000000000000000000000000000000000815260040160405180910390fd5b60008673ffffffffffffffffffffffffffffffffffffffff166367aea3136040518163ffffffff1660e01b8152600401602060405180830381865afa158015610382573d6000803e3d6000fd5b505050506040513d601f19601f820116820180604052508101906103a6919061105d565b6040517ffabde80c0000000000000000000000000000000000000000000000000000000081523060048201529091506000906b033b2e3c9fd0803ce80000009073ffffffffffffffffffffffffffffffffffffffff84169063fabde80c90602401602060405180830381865afa158015610424573d6000803e3d6000fd5b505050506040513d601f19601f82011682018060405250810190610448919061107a565b61045291906110c2565b90508281101561047057610470883061046b84876110fd565b610a72565b6040517f50de215d00000000000000000000000000000000000000000000000000000000815230600482015273ffffffffffffffffffffffffffffffffffffffff87811660248301528316906350de215d90604401602060405180830381865afa1580156104e2573d6000803e3d6000fd5b505050506040513d601f19601f820116820180604052508101906105069190611116565b61058c576040517fd94d420800000000000000000000000000000000000000000000000000000000815273ffffffffffffffffffffffffffffffffffffffff878116600483015283169063d94d420890602401600060405180830381600087803b15801561057357600080fd5b505af1158015610587573d6000803e3d6000fd5b505050505b6040517f54ece2d30000000000000000000000000000000000000000000000000000000081526004810186905260248101849052600090819073ffffffffffffffffffffffffffffffffffffffff8916906354ece2d39060440160408051808303816000875af1158015610604573d6000803e3d6000fd5b505050506040513d601f19601f820116820180604052508101906106289190611138565b915091508481111561069b576040517f08c379a000000000000000000000000000000000000000000000000000000000815260206004820152601460248201527f496e76616c69642061646a75737465642062696400000000000000000000000060448201526064015b60405180910390fd5b85821015610705576040517f08c379a000000000000000000000000000000000000000000000000000000000815260206004820152601560248201527f496e76616c696420626f7567687420616d6f756e7400000000000000000000006044820152606401610692565b61070f8983610c86565b50505050505050505050565b73ffffffffffffffffffffffffffffffffffffffff7f000000000000000000000000000000000000000000000000000000000000000016300361078a576040517f0406dd4b00000000000000000000000000000000000000000000000000000000815260040160405180910390fd5b610795838383610a72565b505050565b73ffffffffffffffffffffffffffffffffffffffff7f0000000000000000000000000000000000000000000000000000000000000000163003610809576040517f0406dd4b00000000000000000000000000000000000000000000000000000000815260040160405180910390fd5b6102498282610c86565b8060000361081f575050565b600082905060008173ffffffffffffffffffffffffffffffffffffffff166367aea3136040518163ffffffff1660e01b8152600401602060405180830381865afa158015610871573d6000803e3d6000fd5b505050506040513d601f19601f82011682018060405250810190610895919061105d565b6040517f50de215d00000000000000000000000000000000000000000000000000000000815230600482015273ffffffffffffffffffffffffffffffffffffffff8681166024830152919250908216906350de215d90604401602060405180830381865afa15801561090b573d6000803e3d6000fd5b505050506040513d601f19601f8201168201806040525081019061092f9190611116565b6109b5576040517fd94d420800000000000000000000000000000000000000000000000000000000815273ffffffffffffffffffffffffffffffffffffffff858116600483015282169063d94d420890602401600060405180830381600087803b15801561099c57600080fd5b505af11580156109b0573d6000803e3d6000fd5b505050505b73ffffffffffffffffffffffffffffffffffffffff821663ef693bed336109e86b033b2e3c9fd0803ce8000000876110c2565b6040517fffffffff0000000000000000000000000000000000000000000000000000000060e085901b16815273ffffffffffffffffffffffffffffffffffffffff909216600483015260248201526044015b600060405180830381600087803b158015610a5457600080fd5b505af1158015610a68573d6000803e3d6000fd5b5050505050505050565b80600003610a7f57505050565b60008373ffffffffffffffffffffffffffffffffffffffff1663a7e944556040518163ffffffff1660e01b8152600401602060405180830381865afa158015610acc573d6000803e3d6000fd5b505050506040513d601f19601f82011682018060405250810190610af0919061105d565b6040517f23b872dd0000000000000000000000000000000000000000000000000000000081523360048201523060248201526044810184905290915073ffffffffffffffffffffffffffffffffffffffff8216906323b872dd906064016020604051808303816000875af1158015610b6c573d6000803e3d6000fd5b505050506040513d601f19601f82011682018060405250810190610b909190611116565b506040517f095ea7b300000000000000000000000000000000000000000000000000000000815273ffffffffffffffffffffffffffffffffffffffff85811660048301526024820184905282169063095ea7b3906044016020604051808303816000875af1158015610c06573d6000803e3d6000fd5b505050506040513d601f19601f82011682018060405250810190610c2a9190611116565b506040517f3b4da69f00000000000000000000000000000000000000000000000000000000815273ffffffffffffffffffffffffffffffffffffffff848116600483015260248201849052851690633b4da69f90604401610a3a565b80600003610c92575050565b600082905060008173ffffffffffffffffffffffffffffffffffffffff166367aea3136040518163ffffffff1660e01b8152600401602060405180830381865afa158015610ce4573d6000803e3d6000fd5b505050506040513d601f19601f82011682018060405250810190610d08919061105d565b6040517f50de215d00000000000000000000000000000000000000000000000000000000815230600482015273ffffffffffffffffffffffffffffffffffffffff8681166024830152919250908216906350de215d90604401602060405180830381865afa158015610d7e573d6000803e3d6000fd5b505050506040513d601f19601f82011682018060405250810190610da29190611116565b610e28576040517fd94d420800000000000000000000000000000000000000000000000000000000815273ffffffffffffffffffffffffffffffffffffffff858116600483015282169063d94d420890602401600060405180830381600087803b158015610e0f57600080fd5b505af1158015610e23573d6000803e3d6000fd5b505050505b60008273ffffffffffffffffffffffffffffffffffffffff1663313ce5676040518163ffffffff1660e01b8152600401602060405180830381865afa158015610e75573d6000803e3d6000fd5b505050506040513d601f19601f82011682018060405250810190610e99919061107a565b90506000610ea88260126110fd565b610eb390600a61127c565b610ebd90866110c2565b6040517fef693bed0000000000000000000000000000000000000000000000000000000081523360048201526024810182905290915073ffffffffffffffffffffffffffffffffffffffff85169063ef693bed90604401600060405180830381600087803b158015610f2e57600080fd5b505af115801561070f573d6000803e3d6000fd5b73ffffffffffffffffffffffffffffffffffffffff81168114610f6457600080fd5b50565b600060208284031215610f7957600080fd5b8135610f8481610f42565b9392505050565b60008060408385031215610f9e57600080fd5b8235610fa981610f42565b946020939093013593505050565b60008060008060008060c08789031215610fd057600080fd5b8635610fdb81610f42565b95506020870135610feb81610f42565b94506040870135610ffb81610f42565b959894975094956060810135955060808101359460a0909101359350915050565b60008060006060848603121561103157600080fd5b833561103c81610f42565b9250602084013561104c81610f42565b929592945050506040919091013590565b60006020828403121561106f57600080fd5b8151610f8481610f42565b60006020828403121561108c57600080fd5b5051919050565b7f4e487b7100000000000000000000000000000000000000000000000000000000600052601160045260246000fd5b6000826110f8577f4e487b7100000000000000000000000000000000000000000000000000000000600052601260045260246000fd5b500490565b8181038181111561111057611110611093565b92915050565b60006020828403121561112857600080fd5b81518015158114610f8457600080fd5b6000806040838503121561114b57600080fd5b505080516020909101519092909150565b600181815b808511156111b557817fffffffffffffffffffffffffffffffffffffffffffffffffffffffffffffffff0482111561119b5761119b611093565b808516156111a857918102915b93841c9390800290611161565b509250929050565b6000826111cc57506001611110565b816111d957506000611110565b81600181146111ef57600281146111f957611215565b6001915050611110565b60ff84111561120a5761120a611093565b50506001821b611110565b5060208310610133831016604e8410600b8410161715611238575081810a611110565b611242838361115c565b807fffffffffffffffffffffffffffffffffffffffffffffffffffffffffffffffff0482111561127457611274611093565b029392505050565b6000610f8483836111bd56fea26469706673582212209a7229ff2e3708bb723c658c9db0678c310deabc56bbf16786b2e1557ad724cf64736f6c63430008130033",
    "linkReferences": {}
  },
  "methodIdentifiers": {
    "buyCollateral(address,address,address,uint256,uint256,uint256)": "7ef5e89d",
    "exitAllSystemCoins(address)": "2da46734",
    "exitCollateral(address,uint256)": "d6f25400",
    "exitSystemCoins(address,uint256)": "4f127f43",
    "joinSystemCoins(address,address,uint256)": "902746d7"
  },
  "id": 125
}