{
  "abi": [
    {
      "inputs": [
        {
          "internalType": "address",
          "name": "_safeEngine",
          "type": "address"
        },
        {
          "internalType": "address",
          "name": "__oracleRelayer",
          "type": "address"
        },
        {
          "internalType": "address",
          "name": "__liquidationEngine",
          "type": "address"
        },
        {
          "internalType": "bytes32",
          "name": "_cType",
          "type": "bytes32"
        },
        {
          "components": [
            {
              "internalType": "uint256",
              "name": "minSystemCoinDeviation",
              "type": "uint256"
            },
            {
              "internalType": "uint256",
              "name": "lowerSystemCoinDeviation",
              "type": "uint256"
            },
            {
              "internalType": "uint256",
              "name": "upperSystemCoinDeviation",
              "type": "uint256"
            }
          ],
          "internalType": "struct ICollateralAuctionHouse.CollateralAuctionHouseSystemCoinParams",
          "name": "_cahParams",
          "type": "tuple"
        },
        {
          "components": [
            {
              "internalType": "uint256",
              "name": "minimumBid",
              "type": "uint256"
            },
            {
              "internalType": "uint256",
              "name": "minDiscount",
              "type": "uint256"
            },
            {
              "internalType": "uint256",
              "name": "maxDiscount",
              "type": "uint256"
            },
            {
              "internalType": "uint256",
              "name": "perSecondDiscountUpdateRate",
              "type": "uint256"
            },
            {
              "internalType": "uint256",
              "name": "lowerCollateralDeviation",
              "type": "uint256"
            },
            {
              "internalType": "uint256",
              "name": "upperCollateralDeviation",
              "type": "uint256"
            }
          ],
          "internalType": "struct ICollateralAuctionHouse.CollateralAuctionHouseParams",
          "name": "_cahCParams",
          "type": "tuple"
        }
      ],
      "stateMutability": "nonpayable",
      "type": "constructor"
    },
    {
      "inputs": [],
      "name": "AlreadyAuthorized",
      "type": "error"
    },
    {
      "inputs": [],
      "name": "CAH_CollateralFSMInvalidValue",
      "type": "error"
    },
    {
      "inputs": [],
      "name": "CAH_DustyAuction",
      "type": "error"
    },
    {
      "inputs": [],
      "name": "CAH_InexistentAuction",
      "type": "error"
    },
    {
      "inputs": [],
      "name": "CAH_InvalidBid",
      "type": "error"
    },
    {
      "inputs": [],
      "name": "CAH_InvalidLeftToRaise",
      "type": "error"
    },
    {
      "inputs": [],
      "name": "CAH_InvalidRedemptionPriceProvided",
      "type": "error"
    },
    {
      "inputs": [],
      "name": "CAH_NoCollateralForSale",
      "type": "error"
    },
    {
      "inputs": [],
      "name": "CAH_NothingToRaise",
      "type": "error"
    },
    {
      "inputs": [],
      "name": "CAH_NullBoughtAmount",
      "type": "error"
    },
    {
      "inputs": [],
      "name": "NotAuthorized",
      "type": "error"
    },
    {
      "inputs": [
        {
          "internalType": "uint256",
          "name": "_x",
          "type": "uint256"
        },
        {
          "internalType": "uint256",
          "name": "_y",
          "type": "uint256"
        }
      ],
      "name": "NotGreaterOrEqualThan",
      "type": "error"
    },
    {
      "inputs": [
        {
          "internalType": "uint256",
          "name": "_x",
          "type": "uint256"
        },
        {
          "internalType": "uint256",
          "name": "_y",
          "type": "uint256"
        }
      ],
      "name": "NotGreaterThan",
      "type": "error"
    },
    {
      "inputs": [
        {
          "internalType": "uint256",
          "name": "_x",
          "type": "uint256"
        },
        {
          "internalType": "uint256",
          "name": "_y",
          "type": "uint256"
        }
      ],
      "name": "NotLesserOrEqualThan",
      "type": "error"
    },
    {
      "inputs": [],
      "name": "NullAddress",
      "type": "error"
    },
    {
      "inputs": [],
      "name": "Unauthorized",
      "type": "error"
    },
    {
      "inputs": [],
      "name": "UnrecognizedCType",
      "type": "error"
    },
    {
      "inputs": [],
      "name": "UnrecognizedParam",
      "type": "error"
    },
    {
      "anonymous": false,
      "inputs": [
        {
          "indexed": false,
          "internalType": "address",
          "name": "_account",
          "type": "address"
        }
      ],
      "name": "AddAuthorization",
      "type": "event"
    },
    {
      "anonymous": false,
      "inputs": [
        {
          "indexed": true,
          "internalType": "uint256",
          "name": "_id",
          "type": "uint256"
        },
        {
          "indexed": false,
          "internalType": "address",
          "name": "_bidder",
          "type": "address"
        },
        {
          "indexed": false,
          "internalType": "uint256",
          "name": "_blockTimestamp",
          "type": "uint256"
        },
        {
          "indexed": false,
          "internalType": "uint256",
          "name": "_raisedAmount",
          "type": "uint256"
        },
        {
          "indexed": false,
          "internalType": "uint256",
          "name": "_soldAmount",
          "type": "uint256"
        }
      ],
      "name": "BuyCollateral",
      "type": "event"
    },
    {
      "anonymous": false,
      "inputs": [
        {
          "indexed": true,
          "internalType": "bytes32",
          "name": "_param",
          "type": "bytes32"
        },
        {
          "indexed": true,
          "internalType": "bytes32",
          "name": "_cType",
          "type": "bytes32"
        },
        {
          "indexed": false,
          "internalType": "bytes",
          "name": "_data",
          "type": "bytes"
        }
      ],
      "name": "ModifyParameters",
      "type": "event"
    },
    {
      "anonymous": false,
      "inputs": [
        {
          "indexed": false,
          "internalType": "address",
          "name": "_account",
          "type": "address"
        }
      ],
      "name": "RemoveAuthorization",
      "type": "event"
    },
    {
      "anonymous": false,
      "inputs": [
        {
          "indexed": true,
          "internalType": "uint256",
          "name": "_id",
          "type": "uint256"
        },
        {
          "indexed": false,
          "internalType": "uint256",
          "name": "_blockTimestamp",
          "type": "uint256"
        },
        {
          "indexed": false,
          "internalType": "address",
          "name": "_leftoverReceiver",
          "type": "address"
        },
        {
          "indexed": false,
          "internalType": "uint256",
          "name": "_leftoverCollateral",
          "type": "uint256"
        }
      ],
      "name": "SettleAuction",
      "type": "event"
    },
    {
      "anonymous": false,
      "inputs": [
        {
          "indexed": true,
          "internalType": "uint256",
          "name": "_id",
          "type": "uint256"
        },
        {
          "indexed": false,
          "internalType": "uint256",
          "name": "_blockTimestamp",
          "type": "uint256"
        },
        {
          "indexed": false,
          "internalType": "uint256",
          "name": "_amountToSell",
          "type": "uint256"
        },
        {
          "indexed": false,
          "internalType": "uint256",
          "name": "_amountToRaise",
          "type": "uint256"
        },
        {
          "indexed": false,
          "internalType": "uint256",
          "name": "_initialDiscount",
          "type": "uint256"
        },
        {
          "indexed": false,
          "internalType": "uint256",
          "name": "_maxDiscount",
          "type": "uint256"
        },
        {
          "indexed": false,
          "internalType": "uint256",
          "name": "_perSecondDiscountUpdateRate",
          "type": "uint256"
        }
      ],
      "name": "StartAuction",
      "type": "event"
    },
    {
      "anonymous": false,
      "inputs": [
        {
          "indexed": true,
          "internalType": "uint256",
          "name": "_id",
          "type": "uint256"
        },
        {
          "indexed": false,
          "internalType": "uint256",
          "name": "_blockTimestamp",
          "type": "uint256"
        },
        {
          "indexed": false,
          "internalType": "address",
          "name": "_leftoverReceiver",
          "type": "address"
        },
        {
          "indexed": false,
          "internalType": "uint256",
          "name": "_leftoverCollateral",
          "type": "uint256"
        }
      ],
      "name": "TerminateAuctionPrematurely",
      "type": "event"
    },
    {
      "inputs": [],
      "name": "AUCTION_HOUSE_TYPE",
      "outputs": [
        {
          "internalType": "bytes32",
          "name": "",
          "type": "bytes32"
        }
      ],
      "stateMutability": "view",
      "type": "function"
    },
    {
      "inputs": [],
      "name": "AUCTION_TYPE",
      "outputs": [
        {
          "internalType": "bytes32",
          "name": "",
          "type": "bytes32"
        }
      ],
      "stateMutability": "view",
      "type": "function"
    },
    {
      "inputs": [
        {
          "internalType": "uint256",
          "name": "_auctionId",
          "type": "uint256"
        }
      ],
      "name": "_auctions",
      "outputs": [
        {
          "internalType": "uint256",
          "name": "amountToSell",
          "type": "uint256"
        },
        {
          "internalType": "uint256",
          "name": "amountToRaise",
          "type": "uint256"
        },
        {
          "internalType": "uint256",
          "name": "currentDiscount",
          "type": "uint256"
        },
        {
          "internalType": "uint256",
          "name": "maxDiscount",
          "type": "uint256"
        },
        {
          "internalType": "uint256",
          "name": "perSecondDiscountUpdateRate",
          "type": "uint256"
        },
        {
          "internalType": "uint256",
          "name": "latestDiscountUpdateTime",
          "type": "uint256"
        },
        {
          "internalType": "address",
          "name": "forgoneCollateralReceiver",
          "type": "address"
        },
        {
          "internalType": "address",
          "name": "auctionIncomeRecipient",
          "type": "address"
        }
      ],
      "stateMutability": "view",
      "type": "function"
    },
    {
      "inputs": [],
      "name": "_cParams",
      "outputs": [
        {
          "internalType": "uint256",
          "name": "minimumBid",
          "type": "uint256"
        },
        {
          "internalType": "uint256",
          "name": "minDiscount",
          "type": "uint256"
        },
        {
          "internalType": "uint256",
          "name": "maxDiscount",
          "type": "uint256"
        },
        {
          "internalType": "uint256",
          "name": "perSecondDiscountUpdateRate",
          "type": "uint256"
        },
        {
          "internalType": "uint256",
          "name": "lowerCollateralDeviation",
          "type": "uint256"
        },
        {
          "internalType": "uint256",
          "name": "upperCollateralDeviation",
          "type": "uint256"
        }
      ],
      "stateMutability": "view",
      "type": "function"
    },
    {
      "inputs": [],
      "name": "_params",
      "outputs": [
        {
          "internalType": "uint256",
          "name": "_minSystemCoinDeviation",
          "type": "uint256"
        },
        {
          "internalType": "uint256",
          "name": "_lowerSystemCoinDeviation",
          "type": "uint256"
        },
        {
          "internalType": "uint256",
          "name": "_upperSystemCoinDeviation",
          "type": "uint256"
        }
      ],
      "stateMutability": "view",
      "type": "function"
    },
    {
      "inputs": [
        {
          "internalType": "address",
          "name": "_account",
          "type": "address"
        }
      ],
      "name": "addAuthorization",
      "outputs": [],
      "stateMutability": "nonpayable",
      "type": "function"
    },
    {
      "inputs": [
        {
          "internalType": "uint256",
          "name": "_id",
          "type": "uint256"
        }
      ],
      "name": "amountToRaise",
      "outputs": [
        {
          "internalType": "uint256",
          "name": "_amountToRaise",
          "type": "uint256"
        }
      ],
      "stateMutability": "view",
      "type": "function"
    },
    {
      "inputs": [
        {
          "internalType": "uint256",
          "name": "_auctionId",
          "type": "uint256"
        }
      ],
      "name": "auctions",
      "outputs": [
        {
          "components": [
            {
              "internalType": "uint256",
              "name": "amountToSell",
              "type": "uint256"
            },
            {
              "internalType": "uint256",
              "name": "amountToRaise",
              "type": "uint256"
            },
            {
              "internalType": "uint256",
              "name": "currentDiscount",
              "type": "uint256"
            },
            {
              "internalType": "uint256",
              "name": "maxDiscount",
              "type": "uint256"
            },
            {
              "internalType": "uint256",
              "name": "perSecondDiscountUpdateRate",
              "type": "uint256"
            },
            {
              "internalType": "uint256",
              "name": "latestDiscountUpdateTime",
              "type": "uint256"
            },
            {
              "internalType": "address",
              "name": "forgoneCollateralReceiver",
              "type": "address"
            },
            {
              "internalType": "address",
              "name": "auctionIncomeRecipient",
              "type": "address"
            }
          ],
          "internalType": "struct ICollateralAuctionHouse.Auction",
          "name": "_auction",
          "type": "tuple"
        }
      ],
      "stateMutability": "view",
      "type": "function"
    },
    {
      "inputs": [],
      "name": "auctionsStarted",
      "outputs": [
        {
          "internalType": "uint256",
          "name": "",
          "type": "uint256"
        }
      ],
      "stateMutability": "view",
      "type": "function"
    },
    {
      "inputs": [
        {
          "internalType": "address",
          "name": "_account",
          "type": "address"
        }
      ],
      "name": "authorizedAccounts",
      "outputs": [
        {
          "internalType": "bool",
          "name": "_authorized",
          "type": "bool"
        }
      ],
      "stateMutability": "view",
      "type": "function"
    },
    {
      "inputs": [],
      "name": "authorizedAccounts",
      "outputs": [
        {
          "internalType": "address[]",
          "name": "_accounts",
          "type": "address[]"
        }
      ],
      "stateMutability": "view",
      "type": "function"
    },
    {
      "inputs": [
        {
          "internalType": "uint256",
          "name": "",
          "type": "uint256"
        }
      ],
      "name": "bidAmount",
      "outputs": [
        {
          "internalType": "uint256",
          "name": "_bidAmount",
          "type": "uint256"
        }
      ],
      "stateMutability": "pure",
      "type": "function"
    },
    {
      "inputs": [
        {
          "internalType": "uint256",
          "name": "_id",
          "type": "uint256"
        },
        {
          "internalType": "uint256",
          "name": "_wad",
          "type": "uint256"
        }
      ],
      "name": "buyCollateral",
      "outputs": [],
      "stateMutability": "nonpayable",
      "type": "function"
    },
    {
      "inputs": [],
      "name": "cParams",
      "outputs": [
        {
          "components": [
            {
              "internalType": "uint256",
              "name": "minimumBid",
              "type": "uint256"
            },
            {
              "internalType": "uint256",
              "name": "minDiscount",
              "type": "uint256"
            },
            {
              "internalType": "uint256",
              "name": "maxDiscount",
              "type": "uint256"
            },
            {
              "internalType": "uint256",
              "name": "perSecondDiscountUpdateRate",
              "type": "uint256"
            },
            {
              "internalType": "uint256",
              "name": "lowerCollateralDeviation",
              "type": "uint256"
            },
            {
              "internalType": "uint256",
              "name": "upperCollateralDeviation",
              "type": "uint256"
            }
          ],
          "internalType": "struct ICollateralAuctionHouse.CollateralAuctionHouseParams",
          "name": "_cahCParams",
          "type": "tuple"
        }
      ],
      "stateMutability": "view",
      "type": "function"
    },
    {
      "inputs": [],
      "name": "collateralType",
      "outputs": [
        {
          "internalType": "bytes32",
          "name": "",
          "type": "bytes32"
        }
      ],
      "stateMutability": "view",
      "type": "function"
    },
    {
      "inputs": [
        {
          "internalType": "uint256",
          "name": "_id",
          "type": "uint256"
        }
      ],
      "name": "forgoneCollateralReceiver",
      "outputs": [
        {
          "internalType": "address",
          "name": "_forgoneCollateralReceiver",
          "type": "address"
        }
      ],
      "stateMutability": "view",
      "type": "function"
    },
    {
      "inputs": [
        {
          "internalType": "uint256",
          "name": "_id",
          "type": "uint256"
        },
        {
          "internalType": "uint256",
          "name": "_wad",
          "type": "uint256"
        }
      ],
      "name": "getAdjustedBid",
      "outputs": [
        {
          "internalType": "bool",
          "name": "_valid",
          "type": "bool"
        },
        {
          "internalType": "uint256",
          "name": "_adjustedBid",
          "type": "uint256"
        }
      ],
      "stateMutability": "view",
      "type": "function"
    },
    {
      "inputs": [
        {
          "internalType": "uint256",
          "name": "_id",
          "type": "uint256"
        },
        {
          "internalType": "uint256",
          "name": "_wad",
          "type": "uint256"
        }
      ],
      "name": "getApproximateCollateralBought",
      "outputs": [
        {
          "internalType": "uint256",
          "name": "_boughtCollateral",
          "type": "uint256"
        },
        {
          "internalType": "uint256",
          "name": "_adjustedBid",
          "type": "uint256"
        }
      ],
      "stateMutability": "view",
      "type": "function"
    },
    {
      "inputs": [
        {
          "internalType": "uint256",
          "name": "_id",
          "type": "uint256"
        },
        {
          "internalType": "uint256",
          "name": "_wad",
          "type": "uint256"
        }
      ],
      "name": "getCollateralBought",
      "outputs": [
        {
          "internalType": "uint256",
          "name": "_boughtCollateral",
          "type": "uint256"
        },
        {
          "internalType": "uint256",
          "name": "_adjustedBid",
          "type": "uint256"
        }
      ],
      "stateMutability": "nonpayable",
      "type": "function"
    },
    {
      "inputs": [
        {
          "internalType": "uint256",
          "name": "_systemCoinRedemptionPrice",
          "type": "uint256"
        }
      ],
      "name": "getCollateralFSMAndFinalSystemCoinPrices",
      "outputs": [
        {
          "internalType": "uint256",
          "name": "_cFsmPriceFeedValue",
          "type": "uint256"
        },
        {
          "internalType": "uint256",
          "name": "_sCoinAdjustedPrice",
          "type": "uint256"
        }
      ],
      "stateMutability": "view",
      "type": "function"
    },
    {
      "inputs": [],
      "name": "getCollateralMarketPrice",
      "outputs": [
        {
          "internalType": "uint256",
          "name": "_priceFeed",
          "type": "uint256"
        }
      ],
      "stateMutability": "view",
      "type": "function"
    },
    {
      "inputs": [
        {
          "internalType": "uint256",
          "name": "_collateralFsmPriceFeedValue",
          "type": "uint256"
        },
        {
          "internalType": "uint256",
          "name": "_collateralMarketPriceFeedValue",
          "type": "uint256"
        },
        {
          "internalType": "uint256",
          "name": "_systemCoinPriceFeedValue",
          "type": "uint256"
        },
        {
          "internalType": "uint256",
          "name": "_customDiscount",
          "type": "uint256"
        }
      ],
      "name": "getDiscountedCollateralPrice",
      "outputs": [
        {
          "internalType": "uint256",
          "name": "_discountedCollateralPrice",
          "type": "uint256"
        }
      ],
      "stateMutability": "view",
      "type": "function"
    },
    {
      "inputs": [
        {
          "internalType": "uint256",
          "name": "_collateralFsmPriceFeedValue",
          "type": "uint256"
        },
        {
          "internalType": "uint256",
          "name": "_collateralMarketPriceFeedValue",
          "type": "uint256"
        }
      ],
      "name": "getFinalBaseCollateralPrice",
      "outputs": [
        {
          "internalType": "uint256",
          "name": "_adjustedMarketPrice",
          "type": "uint256"
        }
      ],
      "stateMutability": "view",
      "type": "function"
    },
    {
      "inputs": [
        {
          "internalType": "uint256",
          "name": "_systemCoinRedemptionPrice",
          "type": "uint256"
        },
        {
          "internalType": "uint256",
          "name": "_systemCoinMarketPrice",
          "type": "uint256"
        }
      ],
      "name": "getFinalSystemCoinPrice",
      "outputs": [
        {
          "internalType": "uint256",
          "name": "_finalSystemCoinPrice",
          "type": "uint256"
        }
      ],
      "stateMutability": "view",
      "type": "function"
    },
    {
      "inputs": [
        {
          "internalType": "uint256",
          "name": "_id",
          "type": "uint256"
        }
      ],
      "name": "getNextCurrentDiscount",
      "outputs": [
        {
          "internalType": "uint256",
          "name": "_nextDiscount",
          "type": "uint256"
        }
      ],
      "stateMutability": "view",
      "type": "function"
    },
    {
      "inputs": [
        {
          "internalType": "uint256",
          "name": "_redemptionPrice",
          "type": "uint256"
        }
      ],
      "name": "getSystemCoinCeilingDeviatedPrice",
      "outputs": [
        {
          "internalType": "uint256",
          "name": "_ceilingPrice",
          "type": "uint256"
        }
      ],
      "stateMutability": "view",
      "type": "function"
    },
    {
      "inputs": [
        {
          "internalType": "uint256",
          "name": "_redemptionPrice",
          "type": "uint256"
        }
      ],
      "name": "getSystemCoinFloorDeviatedPrice",
      "outputs": [
        {
          "internalType": "uint256",
          "name": "_floorPrice",
          "type": "uint256"
        }
      ],
      "stateMutability": "view",
      "type": "function"
    },
    {
      "inputs": [],
      "name": "getSystemCoinMarketPrice",
      "outputs": [
        {
          "internalType": "uint256",
          "name": "_priceFeed",
          "type": "uint256"
        }
      ],
      "stateMutability": "view",
      "type": "function"
    },
    {
      "inputs": [],
      "name": "lastReadRedemptionPrice",
      "outputs": [
        {
          "internalType": "uint256",
          "name": "",
          "type": "uint256"
        }
      ],
      "stateMutability": "view",
      "type": "function"
    },
    {
      "inputs": [],
      "name": "liquidationEngine",
      "outputs": [
        {
          "internalType": "contract ILiquidationEngine",
          "name": "__liquidationEngine",
          "type": "address"
        }
      ],
      "stateMutability": "view",
      "type": "function"
    },
    {
      "inputs": [
        {
          "internalType": "bytes32",
          "name": "_cType",
          "type": "bytes32"
        },
        {
          "internalType": "bytes32",
          "name": "_param",
          "type": "bytes32"
        },
        {
          "internalType": "bytes",
          "name": "_data",
          "type": "bytes"
        }
      ],
      "name": "modifyParameters",
      "outputs": [],
      "stateMutability": "nonpayable",
      "type": "function"
    },
    {
      "inputs": [
        {
          "internalType": "bytes32",
          "name": "_param",
          "type": "bytes32"
        },
        {
          "internalType": "bytes",
          "name": "_data",
          "type": "bytes"
        }
      ],
      "name": "modifyParameters",
      "outputs": [],
      "stateMutability": "nonpayable",
      "type": "function"
    },
    {
      "inputs": [],
      "name": "oracleRelayer",
      "outputs": [
        {
          "internalType": "contract IOracleRelayer",
          "name": "__oracleRelayer",
          "type": "address"
        }
      ],
      "stateMutability": "view",
      "type": "function"
    },
    {
      "inputs": [],
      "name": "params",
      "outputs": [
        {
          "components": [
            {
              "internalType": "uint256",
              "name": "minSystemCoinDeviation",
              "type": "uint256"
            },
            {
              "internalType": "uint256",
              "name": "lowerSystemCoinDeviation",
              "type": "uint256"
            },
            {
              "internalType": "uint256",
              "name": "upperSystemCoinDeviation",
              "type": "uint256"
            }
          ],
          "internalType": "struct ICollateralAuctionHouse.CollateralAuctionHouseSystemCoinParams",
          "name": "_cahParams",
          "type": "tuple"
        }
      ],
      "stateMutability": "view",
      "type": "function"
    },
    {
      "inputs": [
        {
          "internalType": "uint256",
          "name": "",
          "type": "uint256"
        }
      ],
      "name": "raisedAmount",
      "outputs": [
        {
          "internalType": "uint256",
          "name": "_raisedAmount",
          "type": "uint256"
        }
      ],
      "stateMutability": "pure",
      "type": "function"
    },
    {
      "inputs": [
        {
          "internalType": "uint256",
          "name": "_id",
          "type": "uint256"
        }
      ],
      "name": "remainingAmountToSell",
      "outputs": [
        {
          "internalType": "uint256",
          "name": "_remainingAmountToSell",
          "type": "uint256"
        }
      ],
      "stateMutability": "view",
      "type": "function"
    },
    {
      "inputs": [
        {
          "internalType": "address",
          "name": "_account",
          "type": "address"
        }
      ],
      "name": "removeAuthorization",
      "outputs": [],
      "stateMutability": "nonpayable",
      "type": "function"
    },
    {
      "inputs": [],
      "name": "safeEngine",
      "outputs": [
        {
          "internalType": "contract ISAFEEngine",
          "name": "",
          "type": "address"
        }
      ],
      "stateMutability": "view",
      "type": "function"
    },
    {
      "inputs": [
        {
          "internalType": "uint256",
          "name": "",
          "type": "uint256"
        }
      ],
      "name": "settleAuction",
      "outputs": [],
      "stateMutability": "pure",
      "type": "function"
    },
    {
      "inputs": [
        {
          "internalType": "address",
          "name": "_forgoneCollateralReceiver",
          "type": "address"
        },
        {
          "internalType": "address",
          "name": "_auctionIncomeRecipient",
          "type": "address"
        },
        {
          "internalType": "uint256",
          "name": "_amountToRaise",
          "type": "uint256"
        },
        {
          "internalType": "uint256",
          "name": "_amountToSell",
          "type": "uint256"
        }
      ],
      "name": "startAuction",
      "outputs": [
        {
          "internalType": "uint256",
          "name": "_id",
          "type": "uint256"
        }
      ],
      "stateMutability": "nonpayable",
      "type": "function"
    },
    {
      "inputs": [
        {
          "internalType": "uint256",
          "name": "_id",
          "type": "uint256"
        }
      ],
      "name": "terminateAuctionPrematurely",
      "outputs": [],
      "stateMutability": "nonpayable",
      "type": "function"
    }
  ],
  "bytecode": {
    "object": "0x60806040523480156200001157600080fd5b5060405162003abf38038062003abf83398101604081905262000034916200066a565b336200004081620000f8565b5082620000566001600160a01b03881662000167565b600280546001600160a01b03199081166001600160a01b039384161790915560038054909116918816919091179055620000908562000195565b60058490558251600955602080840151600a55604080850151600b558351600c5590830151600d55820151600e556060820151600f55608082015160105560a0820151601155620000e181620001e4565b50620000ec62000275565b50505050505062000789565b62000105600082620002f6565b156200014b576040516001600160a01b03821681527f599a298163e1678bb1c676052a8930bf0b8a1261ed6e01b8a2391e55f7000102906020015b60405180910390a150565b604051633013e93f60e11b815260040160405180910390fd5b50565b60006001600160a01b038216620001915760405163e99d5ac560e01b815260040160405180910390fd5b5090565b6004546001600160a01b031615620001be57600454620001be906001600160a01b031662000316565b600480546001600160a01b0319166001600160a01b0383161790556200016481620000f8565b600e54600d546200020b91670de0b6b3a76400009162000204916200037c565b90620003b6565b50600d54600e5462000225919062000204906000620003e5565b50600f5462000241906b033b2e3c9fd0803ce8000000620003b6565b506010546200025990670de0b6b3a7640000620003b6565b506011546200027190670de0b6b3a7640000620003b6565b5050565b60006200028162000413565b60208101519091506200029d90670de0b6b3a7640000620003b6565b506040810151620002b790670de0b6b3a7640000620003b6565b50620002de620002cf6003546001600160a01b031690565b6001600160a01b031662000167565b5062000271620002cf6004546001600160a01b031690565b60006200030d836001600160a01b0384166200045d565b90505b92915050565b62000323600082620004af565b1562000363576040516001600160a01b03821681527f8834a87e641e9716be4f34527af5d23e11624f1ddeefede6ad75a9acfc31b9039060200162000140565b60405163ea8e4eb560e01b815260040160405180910390fd5b600081831015620003af57604051631d7ee3a360e01b815260048101849052602481018390526044015b60405180910390fd5b5090919050565b600081831115620003af576040516347df8ef360e01b81526004810184905260248101839052604401620003a6565b6000818311620003af5760405163130ac85760e21b81526004810184905260248101839052604401620003a6565b6200043860405180606001604052806000815260200160008152602001600081525090565b50604080516060810182526009548152600a546020820152600b549181019190915290565b6000818152600183016020526040812054620004a65750815460018181018455600084815260208082209093018490558454848252828601909352604090209190915562000310565b50600062000310565b60006200030d836001600160a01b03841660008181526001830160205260408120548015620005b9576000620004e76001836200073b565b8554909150600090620004fd906001906200073b565b9050818114620005695760008660000182815481106200052157620005216200075d565b90600052602060002001549050808760000184815481106200054757620005476200075d565b6000918252602080832090910192909255918252600188019052604090208390555b85548690806200057d576200057d62000773565b60019003818190600052602060002001600090559055856001016000868152602001908152602001600020600090556001935050505062000310565b600091505062000310565b80516001600160a01b0381168114620005dc57600080fd5b919050565b600060c08284031215620005f457600080fd5b60405160c081016001600160401b03811182821017156200062557634e487b7160e01b600052604160045260246000fd5b8060405250809150825181526020830151602082015260408301516040820152606083015160608201526080830151608082015260a083015160a08201525092915050565b6000806000806000808688036101a08112156200068657600080fd5b6200069188620005c4565b9650620006a160208901620005c4565b9550620006b160408901620005c4565b9450606088015193506060607f1982011215620006cd57600080fd5b50604051606081016001600160401b0381118282101715620006ff57634e487b7160e01b600052604160045260246000fd5b60409081526080890151825260a0890151602083015260c08901519082015291506200072f8860e08901620005e1565b90509295509295509295565b818103818111156200031057634e487b7160e01b600052601160045260246000fd5b634e487b7160e01b600052603260045260246000fd5b634e487b7160e01b600052603160045260246000fd5b61332680620007996000396000f3fe608060405234801561001057600080fd5b50600436106102d35760003560e01c8063552b16ab11610186578063933f7608116100e3578063ca84814911610097578063e824600f11610071578063e824600f146107c3578063f16e0fc1146107cc578063ff8dad75146107ec57600080fd5b8063ca84814914610773578063cff0ab9614610786578063da8a4bb8146107b057600080fd5b8063b0185928116100c8578063b0185928146106f9578063b261c39a1461074d578063b64c1d551461076057600080fd5b8063933f7608146106d357806394f3f81d146106e657600080fd5b806375bd7a721161013a57806383ba1afc1161011f57806383ba1afc146106a55780638c236d05146106b85780638d68836c146106c057600080fd5b806375bd7a721461065a578063763536271461050357600080fd5b80635e3a02cb1161016b5780635e3a02cb1461061157806364272b861461063457806367aea3131461064757600080fd5b8063552b16ab1461056a578063571a26a01461058e57600080fd5b80633d6f4911116102345780634a71b469116101e85780634faf61ab116101cd5780634faf61ab1461053d57806354ece2d31461054e578063551cb3b11461056157600080fd5b80634a71b469146105175780634c33b2231461052a57600080fd5b806345edd29b1161021957806345edd29b146104ad57806346585f61146104d957806348d9be161461050357600080fd5b80633d6f49111461048057806344bf3c721461048857600080fd5b80632e9936111161028b578063355a475311610270578063355a47531461041e57806335b2815314610445578063394e954d1461045857600080fd5b80632e9936111461040457806334f36bb81461041557600080fd5b806317dc6bf6116102bc57806317dc6bf61461032757806324ba5884146103cc5780632e391876146103ef57600080fd5b80631266fb94146102d857806312f3352614610312575b600080fd5b6102ff7f434f4c4c41544552414c0000000000000000000000000000000000000000000081565b6040519081526020015b60405180910390f35b610325610320366004612eb1565b6107ff565b005b610385610335366004612f01565b600860205260009081526040902080546001820154600283015460038401546004850154600586015460068701546007909701549596949593949293919290916001600160a01b03918216911688565b604080519889526020890197909752958701949094526060860192909252608085015260a08401526001600160a01b0390811660c08401521660e082015261010001610309565b6103df6103da366004612f2f565b610892565b6040519015158152602001610309565b6103f76108a3565b6040516103099190612f4c565b610325610412366004612f01565b50565b6102ff60075481565b6102ff7f494e4352454153494e475f444953434f554e540000000000000000000000000081565b610325610453366004612f2f565b6108b4565b61046b610466366004612f99565b6108fc565b60408051928352602083019190915201610309565b6102ff610915565b6004546001600160a01b03165b6040516001600160a01b039091168152602001610309565b6104956104bb366004612f01565b6000908152600860205260409020600601546001600160a01b031690565b6104ec6104e7366004612f99565b61091f565b604080519215158352602083019190915201610309565b6102ff610511366004612f01565b50600090565b6102ff610525366004612f01565b61092c565b6102ff610538366004612fbb565b610937565b6003546001600160a01b0316610495565b61032561055c366004612f99565b61098d565b6102ff60065481565b600954600a54600b5460408051938452602084019290925290820152606001610309565b6105a161059c366004612f01565b6110a4565b6040516103099190600061010082019050825182526020830151602083015260408301516040830152606083015160608301526080830151608083015260a083015160a083015260c08301516001600160a01b0380821660c08501528060e08601511660e0850152505092915050565b6102ff61061f366004612f01565b60009081526008602052604090206001015490565b6102ff610642366004612f99565b61117a565b600254610495906001600160a01b031681565b600c54600d54600e54600f5460105460115461067895949392919086565b604080519687526020870195909552938501929092526060840152608083015260a082015260c001610309565b6102ff6106b3366004613001565b61118d565b6102ff61119b565b61046b6106ce366004612f99565b6111a5565b6103256106e1366004612f01565b611236565b6103256106f4366004612f2f565b6114f8565b610701611540565b6040516103099190600060c082019050825182526020830151602083015260408301516040830152606083015160608301526080830151608083015260a083015160a083015292915050565b6102ff61075b366004612f01565b6115b6565b61046b61076e366004612f01565b6115c1565b6102ff610781366004612f99565b6115d6565b61078e6115e2565b6040805182518152602080840151908201529181015190820152606001610309565b6103256107be366004613033565b61162b565b6102ff60055481565b6102ff6107da366004612f01565b60009081526008602052604090205490565b6102ff6107fa366004612f01565b6116bc565b610808336116c7565b61083e576040517f82b4290000000000000000000000000000000000000000000000000000000000815260040160405180910390fd5b8261084a8484846116d3565b83837fe436a8be7dc6aab90b400800ecc86e46fb600f2e18989b5d0389840fdabbf2ed8460405161087b919061307a565b60405180910390a361088c81611875565b50505050565b600061089d826116c7565b92915050565b60606108af60006118f5565b905090565b6108bd336116c7565b6108f3576040517f82b4290000000000000000000000000000000000000000000000000000000000815260040160405180910390fd5b61041281611902565b6000806109098484611984565b915091505b9250929050565b60006108af611a59565b6000806109098484611bb8565b600061089d82611d1d565b6000610942336116c7565b610978576040517f82b4290000000000000000000000000000000000000000000000000000000000815260040160405180910390fd5b61098485858585611d91565b95945050505050565b6000828152600860205260409020805415806109ab57506001810154155b156109e2576040517ff21f9b2500000000000000000000000000000000000000000000000000000000815260040160405180910390fd5b8115806109f05750600c5482105b15610a27576040517f6b065b6400000000000000000000000000000000000000000000000000000000815260040160405180910390fd5b60018101548290610a446b033b2e3c9fd0803ce800000083613115565b1115610a74576b033b2e3c9fd0803ce80000008260010154610a66919061312c565b610a71906001613167565b90505b6003546001600160a01b03166001600160a01b031663c5b748c06040518163ffffffff1660e01b81526004016020604051808303816000875af1158015610abf573d6000803e3d6000fd5b505050506040513d601f19601f82011682018060405250810190610ae3919061317a565b600781905550600080610af760075461202f565b9150915081600003610b35576040517f0c4f29c900000000000000000000000000000000000000000000000000000000815260040160405180910390fd5b6000610b548784610b4461219f565b8588610b4f8d6123be565b6123ec565b905080600003610b90576040517f5a2b7be000000000000000000000000000000000000000000000000000000000815260040160405180910390fd5b8454610b9d908290613193565b85556001850154600090610bbd6b033b2e3c9fd0803ce800000089613115565b101580610bc957508554155b610bf757610be36b033b2e3c9fd0803ce800000088613115565b8660010154610bf29190613193565b610bfd565b85600101545b6001870154909150610c1b6b033b2e3c9fd0803ce800000087613115565b11610c4a57610c366b033b2e3c9fd0803ce800000086613115565b8660010154610c459190613193565b610c4d565b60005b6001870181905515801590610c7157506b033b2e3c9fd0803ce80000008660010154105b15610ca8576040517fb1b2b1ae00000000000000000000000000000000000000000000000000000000815260040160405180910390fd5b60025460078701546001600160a01b039182169163efabcadc91339116610cdb6b033b2e3c9fd0803ce80000008a613115565b6040517fffffffff0000000000000000000000000000000000000000000000000000000060e086901b1681526001600160a01b0393841660048201529290911660248301526044820152606401600060405180830381600087803b158015610d4257600080fd5b505af1158015610d56573d6000803e3d6000fd5b50506002546005546040517f4e5111a60000000000000000000000000000000000000000000000000000000081526004810191909152306024820152336044820152606481018690526001600160a01b039091169250634e5111a69150608401600060405180830381600087803b158015610dd057600080fd5b505af1158015610de4573d6000803e3d6000fd5b505060408051338152426020820152908101889052606081018590528a92507f3863cd386fc3724e4a2a503e086d66a44f7bf877e30ff90e183129671281aa39915060800160405180910390a26000866001015460001480610e4557508654155b90508015610ec757600480546040517f332bef110000000000000000000000000000000000000000000000000000000081529182018490526001600160a01b03169063332bef1190602401600060405180830381600087803b158015610eaa57600080fd5b505af1158015610ebe573d6000803e3d6000fd5b50505050610f3f565b6004546001600160a01b031663332bef11610eee6b033b2e3c9fd0803ce800000089613115565b6040518263ffffffff1660e01b8152600401610f0c91815260200190565b600060405180830381600087803b158015610f2657600080fd5b505af1158015610f3a573d6000803e3d6000fd5b505050505b801561109957600254600554600689015489546040517f4e5111a600000000000000000000000000000000000000000000000000000000815260048101939093523060248401526001600160a01b039182166044840152606483015290911690634e5111a690608401600060405180830381600087803b158015610fc257600080fd5b505af1158015610fd6573d6000803e3d6000fd5b5050505060068701548754604080514281526001600160a01b03909316602084015282015289907fce605a43280ed04bb2cf4231276a425e3650af62821a5e1f0c8daf63beba6c349060600160405180910390a260008981526008602052604081208181556001810182905560028101829055600381018290556004810182905560058101919091556006810180547fffffffffffffffffffffffff00000000000000000000000000000000000000009081169091556007909101805490911690555b505050505050505050565b6110fe60405180610100016040528060008152602001600081526020016000815260200160008152602001600081526020016000815260200160006001600160a01b0316815260200160006001600160a01b031681525090565b50600090815260086020908152604091829020825161010081018452815481526001820154928101929092526002810154928201929092526003820154606082015260048201546080820152600582015460a082015260068201546001600160a01b0390811660c083015260079092015490911660e082015290565b6000611186838361249e565b9392505050565b6000610984858585856124e7565b60006108af61219f565b6000806007546000036111bd5750600090508161090e565b60006111c98585611bb8565b92509050806111dc57600092505061090e565b6000806111ea60075461202f565b9150915081600003611202576000945050505061090e565b61122a878361120f61219f565b60008b815260086020526040902060020154859089906123ec565b94505050509250929050565b61123f336116c7565b611275576040517f82b4290000000000000000000000000000000000000000000000000000000000815260040160405180910390fd5b60008181526008602090815260409182902082516101008101845281548082526001830154938201939093526002820154938101939093526003810154606084015260048101546080840152600581015460a084015260068101546001600160a01b0390811660c08501526007909101541660e083015215806112fa57506020810151155b15611331576040517ff21f9b2500000000000000000000000000000000000000000000000000000000815260040160405180910390fd5b6004805460208301516040517f332bef11000000000000000000000000000000000000000000000000000000008152928301526001600160a01b03169063332bef1190602401600060405180830381600087803b15801561139157600080fd5b505af11580156113a5573d6000803e3d6000fd5b505060025460055484516040517f4e5111a6000000000000000000000000000000000000000000000000000000008152600481019290925230602483015233604483015260648201526001600160a01b039091169250634e5111a69150608401600060405180830381600087803b15801561141f57600080fd5b505af1158015611433573d6000803e3d6000fd5b5050505060c08101518151604080514281526001600160a01b03909316602084015282015282907f728fcceeefd42b7de1122fe9fef58c0bacd081dcbd7a141315835ba00d29b4b19060600160405180910390a25060009081526008602052604081208181556001810182905560028101829055600381018290556004810182905560058101919091556006810180547fffffffffffffffffffffffff0000000000000000000000000000000000000000908116909155600790910180549091169055565b611501336116c7565b611537576040517f82b4290000000000000000000000000000000000000000000000000000000000815260040160405180910390fd5b61041281612507565b6115796040518060c001604052806000815260200160008152602001600081526020016000815260200160008152602001600081525090565b506040805160c081018252600c548152600d546020820152600e5491810191909152600f546060820152601054608082015260115460a082015290565b600061089d82612582565b6000806115cd8361202f565b91509150915091565b60006111868383612679565b61160660405180606001604052806000815260200160008152602001600081525090565b50604080516060810182526009548152600a546020820152600b549181019190915290565b611634336116c7565b61166a576040517f82b4290000000000000000000000000000000000000000000000000000000000815260040160405180910390fd5b61167482826126eb565b6000801b827fe436a8be7dc6aab90b400800ecc86e46fb600f2e18989b5d0389840fdabbf2ed836040516116a8919061307a565b60405180910390a36116b8612830565b5050565b600061089d826128a6565b600061089d81836128ed565b60006116e0826020015190565b9050600554841461171d576040517f98fc17bd00000000000000000000000000000000000000000000000000000000815260040160405180910390fd5b827f6d696e446973636f756e740000000000000000000000000000000000000000000361174e57600d81905561088c565b827f6d6178446973636f756e740000000000000000000000000000000000000000000361177f57600e81905561088c565b827f7065725365636f6e64446973636f756e74557064617465526174650000000000036117b057600f81905561088c565b827f6c6f776572436f6c6c61746572616c446576696174696f6e0000000000000000036117e157601081905561088c565b827f7570706572436f6c6c61746572616c446576696174696f6e00000000000000000361181257601181905561088c565b827f6d696e696d756d426964000000000000000000000000000000000000000000000361184357600c81905561088c565b6040517f9d2ff48000000000000000000000000000000000000000000000000000000000815260040160405180910390fd5b600e54600d5461189891670de0b6b3a7640000916118929161290f565b90612961565b50600d54600e546118af91906118929060006129a7565b50600f546118c9906b033b2e3c9fd0803ce8000000612961565b506010546118df90670de0b6b3a7640000612961565b506011546116b890670de0b6b3a7640000612961565b60606000611186836129ec565b61190d600082612a48565b15611952576040516001600160a01b03821681527f599a298163e1678bb1c676052a8930bf0b8a1261ed6e01b8a2391e55f7000102906020015b60405180910390a150565b6040517f6027d27e00000000000000000000000000000000000000000000000000000000815260040160405180910390fd5b60008060006119938585611bb8565b92509050806119a657600092505061090e565b6003546001600160a01b03166001600160a01b031663c5b748c06040518163ffffffff1660e01b81526004016020604051808303816000875af11580156119f1573d6000803e3d6000fd5b505050506040513d601f19601f82011682018060405250810190611a15919061317a565b600781905550600080611a2960075461202f565b9150915081600003611a41576000945050505061090e565b61122a8783611a4e61219f565b8488610b4f8d6123be565b600080611a6e6003546001600160a01b031690565b6001600160a01b031663e818ac216040518163ffffffff1660e01b8152600401602060405180830381865afa158015611aab573d6000803e3d6000fd5b505050506040513d601f19601f82011682018060405250810190611acf91906131a6565b90506001600160a01b038116611ae757600091505090565b806001600160a01b0316634fd0ada86040518163ffffffff1660e01b81526004016040805180830381865afa925050508015611b5e575060408051601f3d9081017fffffffffffffffffffffffffffffffffffffffffffffffffffffffffffffffe0168201909252611b5b918101906131c3565b60015b611b9b573d808015611b8c576040519150601f19603f3d011682016040523d82523d6000602084013e611b91565b606091505b5060009250505090565b8015611bb257611baf82633b9aca00613115565b93505b50505090565b600082815260086020908152604080832081516101008101835281548082526001830154948201949094526002820154928101929092526003810154606083015260048101546080830152600581015460a083015260068101546001600160a01b0390811660c08401526007909101541660e082015282911580611c3e57506020810151155b80611c47575083155b80611c535750600c5484105b15611c6557600084925092505061090e565b602081015184925080611c846b033b2e3c9fd0803ce800000085613115565b1115611cae57611ca06b033b2e3c9fd0803ce80000008261312c565b611cab906001613167565b92505b80611cc56b033b2e3c9fd0803ce800000085613115565b11611cf457611ce06b033b2e3c9fd0803ce800000084613115565b8260200151611cef9190613193565b611cf7565b60005b9050801580611d1257506b033b2e3c9fd0803ce80000008110155b935050509250929050565b600080611d286115e2565b8051909150600090611d5890611d47670de0b6b3a76400006002613115565b611d519190613193565b8590612a5d565b9050611d778260400151670de0b6b3a76400006002611d479190613115565b925080831015611d875783611d89565b825b949350505050565b600081600003611dcd576040517f94bc22de00000000000000000000000000000000000000000000000000000000815260040160405180910390fd5b82600003611e07576040517f42aa37b500000000000000000000000000000000000000000000000000000000815260040160405180910390fd5b6b033b2e3c9fd0803ce8000000831015611e4d576040517f44befff500000000000000000000000000000000000000000000000000000000815260040160405180910390fd5b600660008154611e5c906131f8565b918290555060408051610100810182528481526020808201878152600d54838501908152600e5460608501908152600f54608086019081524260a087019081526001600160a01b038e811660c089019081528e821660e08a0190815260008c81526008909952978a902098518955955160018901559351600280890191909155925160038801559051600480880191909155905160058088019190915593516006870180549185167fffffffffffffffffffffffff000000000000000000000000000000000000000092831617905594516007909601805496841696909516959095179093559154905493517f4e5111a60000000000000000000000000000000000000000000000000000000081529283019390935233602483015230604483015260648201869052929350911690634e5111a690608401600060405180830381600087803b158015611fae57600080fd5b505af1158015611fc2573d6000803e3d6000fd5b5050600d54600e54600f5460408051428152602081018990529081018990526060810193909352608083019190915260a08201528392507f7700697d94ca0dfb850c6d8af6cb313f8ca5083b29fd1a4ce25cabb7cac10901915060c00160405180910390a2949350505050565b6000808260000361206c576040517f4fd467f200000000000000000000000000000000000000000000000000000000815260040160405180910390fd5b60006120806003546001600160a01b031690565b6001600160a01b031663e54201f66005546040518263ffffffff1660e01b81526004016120af91815260200190565b606060405180830381865afa1580156120cc573d6000803e3d6000fd5b505050506040513d601f19601f820116820180604052508101906120f09190613230565b600001519050600080826001600160a01b0316634fd0ada86040518163ffffffff1660e01b81526004016040805180830381865afa158015612136573d6000803e3d6000fd5b505050506040513d601f19601f8201168201806040525081019061215a91906131c3565b915091508061217157506000958695509350505050565b85600061217c611a59565b905080156121915761218e888261249e565b91505b509196919550909350505050565b6000806121b46003546001600160a01b031690565b6001600160a01b031663e54201f66005546040518263ffffffff1660e01b81526004016121e391815260200190565b606060405180830381865afa158015612200573d6000803e3d6000fd5b505050506040513d601f19601f820116820180604052508101906122249190613230565b6000015190506000816001600160a01b03166320531bc96040518163ffffffff1660e01b8152600401602060405180830381865afa9250505080156122a4575060408051601f3d9081017fffffffffffffffffffffffffffffffffffffffffffffffffffffffffffffffe01682019092526122a1918101906131a6565b60015b6122de573d8080156122d2576040519150601f19603f3d011682016040523d82523d6000602084013e6122d7565b606091505b50506122e1565b90505b6001600160a01b0381166122f85760009250505090565b806001600160a01b0316634fd0ada86040518163ffffffff1660e01b81526004016040805180830381865afa92505050801561236f575060408051601f3d9081017fffffffffffffffffffffffffffffffffffffffffffffffffffffffffffffffe016820190925261236c918101906131c3565b60015b6123ad573d80801561239d576040519150601f19603f3d011682016040523d82523d6000602084013e6123a2565b606091505b506000935050505090565b80156123b7578194505b5050505090565b60008181526008602052604081206123d583612582565b600282018190554260059092019190915592915050565b6000806123fb878787866124e7565b90506124078482612a7c565b60008981526008602090815260409182902082516101008101845281548082526001830154938201939093526002820154938101939093526003810154606084015260048101546080840152600581015460a084015260068101546001600160a01b0390811660c08501526007909101541660e083015291935090831161248e5782612491565b80515b9998505050505050505050565b6000806124aa846128a6565b905060006124b785611d1d565b9050848410156124d2576124cb8483612a91565b92506124df565b6124dc8482612aa1565b92505b505092915050565b600061098482612501856124fb8989612679565b90612ab1565b90612a5d565b612512600082612aca565b15612550576040516001600160a01b03821681527f8834a87e641e9716be4f34527af5d23e11624f1ddeefede6ad75a9acfc31b90390602001611947565b6040517fea8e4eb500000000000000000000000000000000000000000000000000000000815260040160405180910390fd5b6000818152600860209081526040808320815161010081018352815481526001820154938101939093526002810154918301919091526003810154606083015260048101546080830152600581015460a083015260068101546001600160a01b0390811660c084018190526007909201541660e083015261261157506b033b2e3c9fd0803ce800000092915050565b6040810151606082015190925082111561266b57612651816040015161264b8360a00151426126409190613193565b608085015190612adf565b90612bd4565b91508060600151821161266657806060015191505b612673565b806060015191505b50919050565b601054600090819061268c908590612a5d565b6011549091506000906126bd906126ac670de0b6b3a76400006002613115565b6126b69190613193565b8690612a5d565b905083156126cb57836126cd565b845b9250848310156126e1576124cb8383612a91565b6124dc8382612aa1565b60006126f8826020015190565b90506000612707836020015190565b9050837f6f7261636c6552656c61796572000000000000000000000000000000000000000361276857600380547fffffffffffffffffffffffff0000000000000000000000000000000000000000166001600160a01b03831617905561088c565b837f6c69717569646174696f6e456e67696e650000000000000000000000000000000361279d5761279881612bed565b61088c565b837f6c6f77657253797374656d436f696e446576696174696f6e0000000000000000036127ce57600a82905561088c565b837f757070657253797374656d436f696e446576696174696f6e0000000000000000036127ff57600b82905561088c565b837f6d696e53797374656d436f696e446576696174696f6e000000000000000000000361184357600982905561088c565b600061283a6115e2565b602081015190915061285490670de0b6b3a7640000612961565b50604081015161286c90670de0b6b3a7640000612961565b506128906128826003546001600160a01b031690565b6001600160a01b0316612c4f565b506116b86128826004546001600160a01b031690565b6000806128b16115e2565b80519091506000906128c4908590612a5d565b90506128dd826020015185612a5d90919063ffffffff16565b925080831115611d875783611d89565b6001600160a01b03811660009081526001830160205260408120541515611186565b60008183101561295a576040517f1d7ee3a300000000000000000000000000000000000000000000000000000000815260048101849052602481018390526044015b60405180910390fd5b5090919050565b60008183111561295a576040517f47df8ef30000000000000000000000000000000000000000000000000000000081526004810184905260248101839052604401612951565b600081831161295a576040517f4c2b215c0000000000000000000000000000000000000000000000000000000081526004810184905260248101839052604401612951565b606081600001805480602002602001604051908101604052809291908181526020018280548015612a3c57602002820191906000526020600020905b815481526020019060010190808311612a28575b50505050509050919050565b6000611186836001600160a01b038416612c95565b6000670de0b6b3a7640000612a728385613115565b611186919061312c565b600081612a72670de0b6b3a764000085613115565b60008183101561295a5781611186565b60008183111561295a5781611186565b600081612a726b033b2e3c9fd0803ce800000085613115565b6000611186836001600160a01b038416612ce4565b6000828015612bac57600183168015612afa57849250612b0a565b6b033b2e3c9fd0803ce800000092505b506002909204916b019d971e4fe8401e740000005b8315612ba6578485028586820414612b3657600080fd5b81810181811015612b4657600080fd5b6b033b2e3c9fd0803ce800000090049550506001841615612b9b578483028386820414158615151615612b7857600080fd5b81810181811015612b8857600080fd5b6b033b2e3c9fd0803ce800000090049350505b600284049350612b1f565b50612bcd565b828015612bbc57600092506124df565b6b033b2e3c9fd0803ce80000009250505b5092915050565b60006b033b2e3c9fd0803ce8000000612a728385613115565b6004546001600160a01b031615612c1357600454612c13906001600160a01b0316612507565b600480547fffffffffffffffffffffffff0000000000000000000000000000000000000000166001600160a01b03831617905561041281611902565b60006001600160a01b038216612c91576040517fe99d5ac500000000000000000000000000000000000000000000000000000000815260040160405180910390fd5b5090565b6000818152600183016020526040812054612cdc5750815460018181018455600084815260208082209093018490558454848252828601909352604090209190915561089d565b50600061089d565b60008181526001830160205260408120548015612dcd576000612d08600183613193565b8554909150600090612d1c90600190613193565b9050818114612d81576000866000018281548110612d3c57612d3c613292565b9060005260206000200154905080876000018481548110612d5f57612d5f613292565b6000918252602080832090910192909255918252600188019052604090208390555b8554869080612d9257612d926132c1565b60019003818190600052602060002001600090559055856001016000868152602001908152602001600020600090556001935050505061089d565b600091505061089d565b7f4e487b7100000000000000000000000000000000000000000000000000000000600052604160045260246000fd5b600082601f830112612e1757600080fd5b813567ffffffffffffffff80821115612e3257612e32612dd7565b604051601f83017fffffffffffffffffffffffffffffffffffffffffffffffffffffffffffffffe0908116603f01168101908282118183101715612e7857612e78612dd7565b81604052838152866020858801011115612e9157600080fd5b836020870160208301376000602085830101528094505050505092915050565b600080600060608486031215612ec657600080fd5b8335925060208401359150604084013567ffffffffffffffff811115612eeb57600080fd5b612ef786828701612e06565b9150509250925092565b600060208284031215612f1357600080fd5b5035919050565b6001600160a01b038116811461041257600080fd5b600060208284031215612f4157600080fd5b813561118681612f1a565b6020808252825182820181905260009190848201906040850190845b81811015612f8d5783516001600160a01b031683529284019291840191600101612f68565b50909695505050505050565b60008060408385031215612fac57600080fd5b50508035926020909101359150565b60008060008060808587031215612fd157600080fd5b8435612fdc81612f1a565b93506020850135612fec81612f1a565b93969395505050506040820135916060013590565b6000806000806080858703121561301757600080fd5b5050823594602084013594506040840135936060013592509050565b6000806040838503121561304657600080fd5b82359150602083013567ffffffffffffffff81111561306457600080fd5b61307085828601612e06565b9150509250929050565b600060208083528351808285015260005b818110156130a75785810183015185820160400152820161308b565b5060006040828601015260407fffffffffffffffffffffffffffffffffffffffffffffffffffffffffffffffe0601f8301168501019250505092915050565b7f4e487b7100000000000000000000000000000000000000000000000000000000600052601160045260246000fd5b808202811582820484141761089d5761089d6130e6565b600082613162577f4e487b7100000000000000000000000000000000000000000000000000000000600052601260045260246000fd5b500490565b8082018082111561089d5761089d6130e6565b60006020828403121561318c57600080fd5b5051919050565b8181038181111561089d5761089d6130e6565b6000602082840312156131b857600080fd5b815161118681612f1a565b600080604083850312156131d657600080fd5b82519150602083015180151581146131ed57600080fd5b809150509250929050565b60007fffffffffffffffffffffffffffffffffffffffffffffffffffffffffffffffff8203613229576132296130e6565b5060010190565b60006060828403121561324257600080fd5b6040516060810181811067ffffffffffffffff8211171561326557613265612dd7565b604052825161327381612f1a565b8152602083810151908201526040928301519281019290925250919050565b7f4e487b7100000000000000000000000000000000000000000000000000000000600052603260045260246000fd5b7f4e487b7100000000000000000000000000000000000000000000000000000000600052603160045260246000fdfea2646970667358221220d2b68bf2fe364356e973bea02a16b4d0dfd49c4cb59bc833236b48038e1372fb64736f6c63430008130033",
    "linkReferences": {}
  },
  "methodIdentifiers": {
    "AUCTION_HOUSE_TYPE()": "1266fb94",
    "AUCTION_TYPE()": "355a4753",
    "_auctions(uint256)": "17dc6bf6",
    "_cParams()": "75bd7a72",
    "_params()": "552b16ab",
    "addAuthorization(address)": "35b28153",
    "amountToRaise(uint256)": "5e3a02cb",
    "auctions(uint256)": "571a26a0",
    "auctionsStarted()": "551cb3b1",
    "authorizedAccounts()": "2e391876",
    "authorizedAccounts(address)": "24ba5884",
    "bidAmount(uint256)": "48d9be16",
    "buyCollateral(uint256,uint256)": "54ece2d3",
    "cParams()": "b0185928",
    "collateralType()": "e824600f",
    "forgoneCollateralReceiver(uint256)": "45edd29b",
    "getAdjustedBid(uint256,uint256)": "46585f61",
    "getApproximateCollateralBought(uint256,uint256)": "8d68836c",
    "getCollateralBought(uint256,uint256)": "394e954d",
    "getCollateralFSMAndFinalSystemCoinPrices(uint256)": "b64c1d55",
    "getCollateralMarketPrice()": "8c236d05",
    "getDiscountedCollateralPrice(uint256,uint256,uint256,uint256)": "83ba1afc",
    "getFinalBaseCollateralPrice(uint256,uint256)": "ca848149",
    "getFinalSystemCoinPrice(uint256,uint256)": "64272b86",
    "getNextCurrentDiscount(uint256)": "b261c39a",
    "getSystemCoinCeilingDeviatedPrice(uint256)": "4a71b469",
    "getSystemCoinFloorDeviatedPrice(uint256)": "ff8dad75",
    "getSystemCoinMarketPrice()": "3d6f4911",
    "lastReadRedemptionPrice()": "34f36bb8",
    "liquidationEngine()": "44bf3c72",
    "modifyParameters(bytes32,bytes)": "da8a4bb8",
    "modifyParameters(bytes32,bytes32,bytes)": "12f33526",
    "oracleRelayer()": "4faf61ab",
    "params()": "cff0ab96",
    "raisedAmount(uint256)": "76353627",
    "remainingAmountToSell(uint256)": "f16e0fc1",
    "removeAuthorization(address)": "94f3f81d",
    "safeEngine()": "67aea313",
    "settleAuction(uint256)": "2e993611",
    "startAuction(address,address,uint256,uint256)": "4c33b223",
    "terminateAuctionPrematurely(uint256)": "933f7608"
  },
  "id": 52
}