{
  "abi": [
    {
      "inputs": [
        {
          "internalType": "address",
          "name": "_safeEngine",
          "type": "address"
        },
        {
          "internalType": "bytes32",
          "name": "_cType",
          "type": "bytes32"
        },
        {
          "internalType": "address",
          "name": "_collateral",
          "type": "address"
        }
      ],
      "stateMutability": "nonpayable",
      "type": "constructor"
    },
    {
      "inputs": [],
      "name": "AlreadyAuthorized",
      "type": "error"
    },
    {
      "inputs": [],
      "name": "ContractIsDisabled",
      "type": "error"
    },
    {
      "inputs": [],
      "name": "ContractIsEnabled",
      "type": "error"
    },
    {
      "inputs": [],
      "name": "IntOverflow",
      "type": "error"
    },
    {
      "inputs": [],
      "name": "NonDisableable",
      "type": "error"
    },
    {
      "inputs": [],
      "name": "NotAuthorized",
      "type": "error"
    },
    {
      "inputs": [],
      "name": "NullAddress",
      "type": "error"
    },
    {
      "inputs": [],
      "name": "Unauthorized",
      "type": "error"
    },
    {
      "anonymous": false,
      "inputs": [
        {
          "indexed": false,
          "internalType": "address",
          "name": "_account",
          "type": "address"
        }
      ],
      "name": "AddAuthorization",
      "type": "event"
    },
    {
      "anonymous": false,
      "inputs": [],
      "name": "DisableContract",
      "type": "event"
    },
    {
      "anonymous": false,
      "inputs": [
        {
          "indexed": false,
          "internalType": "address",
          "name": "_sender",
          "type": "address"
        },
        {
          "indexed": false,
          "internalType": "address",
          "name": "_account",
          "type": "address"
        },
        {
          "indexed": false,
          "internalType": "uint256",
          "name": "_wad",
          "type": "uint256"
        }
      ],
      "name": "Exit",
      "type": "event"
    },
    {
      "anonymous": false,
      "inputs": [
        {
          "indexed": false,
          "internalType": "address",
          "name": "_sender",
          "type": "address"
        },
        {
          "indexed": false,
          "internalType": "address",
          "name": "_account",
          "type": "address"
        },
        {
          "indexed": false,
          "internalType": "uint256",
          "name": "_wad",
          "type": "uint256"
        }
      ],
      "name": "Join",
      "type": "event"
    },
    {
      "anonymous": false,
      "inputs": [
        {
          "indexed": false,
          "internalType": "address",
          "name": "_account",
          "type": "address"
        }
      ],
      "name": "RemoveAuthorization",
      "type": "event"
    },
    {
      "inputs": [
        {
          "internalType": "address",
          "name": "_account",
          "type": "address"
        }
      ],
      "name": "addAuthorization",
      "outputs": [],
      "stateMutability": "nonpayable",
      "type": "function"
    },
    {
      "inputs": [
        {
          "internalType": "address",
          "name": "_account",
          "type": "address"
        }
      ],
      "name": "authorizedAccounts",
      "outputs": [
        {
          "internalType": "bool",
          "name": "_authorized",
          "type": "bool"
        }
      ],
      "stateMutability": "view",
      "type": "function"
    },
    {
      "inputs": [],
      "name": "authorizedAccounts",
      "outputs": [
        {
          "internalType": "address[]",
          "name": "_accounts",
          "type": "address[]"
        }
      ],
      "stateMutability": "view",
      "type": "function"
    },
    {
      "inputs": [],
      "name": "collateral",
      "outputs": [
        {
          "internalType": "contract IERC20Metadata",
          "name": "",
          "type": "address"
        }
      ],
      "stateMutability": "view",
      "type": "function"
    },
    {
      "inputs": [],
      "name": "collateralType",
      "outputs": [
        {
          "internalType": "bytes32",
          "name": "",
          "type": "bytes32"
        }
      ],
      "stateMutability": "view",
      "type": "function"
    },
    {
      "inputs": [],
      "name": "contractEnabled",
      "outputs": [
        {
          "internalType": "bool",
          "name": "",
          "type": "bool"
        }
      ],
      "stateMutability": "view",
      "type": "function"
    },
    {
      "inputs": [],
      "name": "decimals",
      "outputs": [
        {
          "internalType": "uint256",
          "name": "",
          "type": "uint256"
        }
      ],
      "stateMutability": "view",
      "type": "function"
    },
    {
      "inputs": [],
      "name": "disableContract",
      "outputs": [],
      "stateMutability": "nonpayable",
      "type": "function"
    },
    {
      "inputs": [
        {
          "internalType": "address",
          "name": "_account",
          "type": "address"
        },
        {
          "internalType": "uint256",
          "name": "_wei",
          "type": "uint256"
        }
      ],
      "name": "exit",
      "outputs": [],
      "stateMutability": "nonpayable",
      "type": "function"
    },
    {
      "inputs": [
        {
          "internalType": "address",
          "name": "_account",
          "type": "address"
        },
        {
          "internalType": "uint256",
          "name": "_wei",
          "type": "uint256"
        }
      ],
      "name": "join",
      "outputs": [],
      "stateMutability": "nonpayable",
      "type": "function"
    },
    {
      "inputs": [],
      "name": "multiplier",
      "outputs": [
        {
          "internalType": "uint256",
          "name": "",
          "type": "uint256"
        }
      ],
      "stateMutability": "view",
      "type": "function"
    },
    {
      "inputs": [
        {
          "internalType": "address",
          "name": "_account",
          "type": "address"
        }
      ],
      "name": "removeAuthorization",
      "outputs": [],
      "stateMutability": "nonpayable",
      "type": "function"
    },
    {
      "inputs": [],
      "name": "safeEngine",
      "outputs": [
        {
          "internalType": "contract ISAFEEngine",
          "name": "",
          "type": "address"
        }
      ],
      "stateMutability": "view",
      "type": "function"
    }
  ],
  "bytecode": {
    "object": "0x60806040526002805460ff191660011790553480156200001e57600080fd5b506040516200151438038062001514833981016040819052620000419162000247565b336200004d816200011f565b50620000626001600160a01b0384166200018a565b60028054610100600160a81b0319166101006001600160a01b03938416021790556004838155600380546001600160a01b03191692841692831790556040805163313ce56760e01b8152905163313ce567928281019260209291908290030181865afa158015620000d7573d6000803e3d6000fd5b505050506040513d601f19601f82011682018060405250810190620000fd919062000288565b60ff16600581905562000112906012620002b4565b60065550620002d6915050565b6200012c600082620001b8565b1562000171576040516001600160a01b03821681527f599a298163e1678bb1c676052a8930bf0b8a1261ed6e01b8a2391e55f70001029060200160405180910390a150565b604051633013e93f60e11b815260040160405180910390fd5b60006001600160a01b038216620001b45760405163e99d5ac560e01b815260040160405180910390fd5b5090565b6000620001cf836001600160a01b038416620001d8565b90505b92915050565b60008181526001830160205260408120546200022157508154600181810184556000848152602080822090930184905584548482528286019093526040902091909155620001d2565b506000620001d2565b80516001600160a01b03811681146200024257600080fd5b919050565b6000806000606084860312156200025d57600080fd5b62000268846200022a565b9250602084015191506200027f604085016200022a565b90509250925092565b6000602082840312156200029b57600080fd5b815160ff81168114620002ad57600080fd5b9392505050565b81810381811115620001d257634e487b7160e01b600052601160045260246000fd5b61122e80620002e66000396000f3fe608060405234801561001057600080fd5b50600436106100df5760003560e01c806341b3a0d91161008c57806394f3f81d1161006657806394f3f81d146101c8578063d8dfeb45146101db578063e824600f146101fb578063ef693bed1461020457600080fd5b806341b3a0d91461016957806367aea31314610176578063894ba833146101c057600080fd5b8063313ce567116100bd578063313ce5671461013857806335b28153146101415780633b4da69f1461015657600080fd5b80631b3ed722146100e457806324ba5884146101005780632e39187614610123575b600080fd5b6100ed60065481565b6040519081526020015b60405180910390f35b61011361010e366004610e8b565b610217565b60405190151581526020016100f7565b61012b610228565b6040516100f79190610ea6565b6100ed60055481565b61015461014f366004610e8b565b610239565b005b610154610164366004610f00565b610284565b6002546101139060ff1681565b60025461019b90610100900473ffffffffffffffffffffffffffffffffffffffff1681565b60405173ffffffffffffffffffffffffffffffffffffffff90911681526020016100f7565b61015461041d565b6101546101d6366004610e8b565b6104eb565b60035461019b9073ffffffffffffffffffffffffffffffffffffffff1681565b6100ed60045481565b610154610212366004610f00565b610533565b60006102228261068f565b92915050565b606061023460006106bc565b905090565b6102423361068f565b610278576040517f82b4290000000000000000000000000000000000000000000000000000000000815260040160405180910390fd5b610281816106d0565b50565b60025460ff166102c0576040517f7abbf1c900000000000000000000000000000000000000000000000000000000815260040160405180910390fd5b6003546102e59073ffffffffffffffffffffffffffffffffffffffff1633308461075f565b6000600654600a6102f69190611079565b6103009083611085565b600254600454919250610100900473ffffffffffffffffffffffffffffffffffffffff1690634a11825e908561033585610841565b6040517fffffffff0000000000000000000000000000000000000000000000000000000060e086901b168152600481019390935273ffffffffffffffffffffffffffffffffffffffff90911660248301526044820152606401600060405180830381600087803b1580156103a857600080fd5b505af11580156103bc573d6000803e3d6000fd5b50506040805133815273ffffffffffffffffffffffffffffffffffffffff871660208201529081018490527f0e64978d073561c3dfd4d4e3e4dce066cde2ab246a44f990fabb0a21a4a3bd95925060600190505b60405180910390a1505050565b6104263361068f565b61045c576040517f82b4290000000000000000000000000000000000000000000000000000000000815260040160405180910390fd5b60025460ff16610498576040517f7abbf1c900000000000000000000000000000000000000000000000000000000815260040160405180910390fd5b600280547fffffffffffffffffffffffffffffffffffffffffffffffffffffffffffffff001690556040517f2d4b4ecff7bd7503135271925520a2f6c0d98c9473ffc1a1e72c92502f51b25e90600090a1565b6104f43361068f565b61052a576040517f82b4290000000000000000000000000000000000000000000000000000000000815260040160405180910390fd5b61028181610882565b6003546105579073ffffffffffffffffffffffffffffffffffffffff16838361090a565b6000600654600a6105689190611079565b6105729083611085565b600254600454919250610100900473ffffffffffffffffffffffffffffffffffffffff1690634a11825e90336105a785610841565b6105b09061109c565b6040517fffffffff0000000000000000000000000000000000000000000000000000000060e086901b168152600481019390935273ffffffffffffffffffffffffffffffffffffffff90911660248301526044820152606401600060405180830381600087803b15801561062357600080fd5b505af1158015610637573d6000803e3d6000fd5b50506040805133815273ffffffffffffffffffffffffffffffffffffffff871660208201529081018490527fbc2a67d422c268da6fe45f3e7d194e1d98906d221f1cfad62a5c80f2cd209f4c92506060019050610410565b73ffffffffffffffffffffffffffffffffffffffff81166000908152600160205260408120541515610222565b606060006106c983610965565b9392505050565b6106db6000826109c1565b1561072d5760405173ffffffffffffffffffffffffffffffffffffffff821681527f599a298163e1678bb1c676052a8930bf0b8a1261ed6e01b8a2391e55f7000102906020015b60405180910390a150565b6040517f6027d27e00000000000000000000000000000000000000000000000000000000815260040160405180910390fd5b60405173ffffffffffffffffffffffffffffffffffffffff8085166024830152831660448201526064810182905261083b9085907f23b872dd00000000000000000000000000000000000000000000000000000000906084015b604080517fffffffffffffffffffffffffffffffffffffffffffffffffffffffffffffffe08184030181529190526020810180517bffffffffffffffffffffffffffffffffffffffffffffffffffffffff167fffffffff00000000000000000000000000000000000000000000000000000000909316929092179091526109e3565b50505050565b80600081121561087d576040517f44dddea200000000000000000000000000000000000000000000000000000000815260040160405180910390fd5b919050565b61088d600082610af4565b156108d85760405173ffffffffffffffffffffffffffffffffffffffff821681527f8834a87e641e9716be4f34527af5d23e11624f1ddeefede6ad75a9acfc31b90390602001610722565b6040517fea8e4eb500000000000000000000000000000000000000000000000000000000815260040160405180910390fd5b60405173ffffffffffffffffffffffffffffffffffffffff83166024820152604481018290526109609084907fa9059cbb00000000000000000000000000000000000000000000000000000000906064016107b9565b505050565b6060816000018054806020026020016040519081016040528092919081815260200182805480156109b557602002820191906000526020600020905b8154815260200190600101908083116109a1575b50505050509050919050565b60006106c98373ffffffffffffffffffffffffffffffffffffffff8416610b16565b6000610a45826040518060400160405280602081526020017f5361666545524332303a206c6f772d6c6576656c2063616c6c206661696c65648152508573ffffffffffffffffffffffffffffffffffffffff16610b659092919063ffffffff16565b8051909150156109605780806020019051810190610a6391906110d4565b610960576040517f08c379a000000000000000000000000000000000000000000000000000000000815260206004820152602a60248201527f5361666545524332303a204552433230206f7065726174696f6e20646964206e60448201527f6f7420737563636565640000000000000000000000000000000000000000000060648201526084015b60405180910390fd5b60006106c98373ffffffffffffffffffffffffffffffffffffffff8416610b7c565b6000818152600183016020526040812054610b5d57508154600181810184556000848152602080822090930184905584548482528286019093526040902091909155610222565b506000610222565b6060610b748484600085610c6f565b949350505050565b60008181526001830160205260408120548015610c65576000610ba06001836110f6565b8554909150600090610bb4906001906110f6565b9050818114610c19576000866000018281548110610bd457610bd4611109565b9060005260206000200154905080876000018481548110610bf757610bf7611109565b6000918252602080832090910192909255918252600188019052604090208390555b8554869080610c2a57610c2a611138565b600190038181906000526020600020016000905590558560010160008681526020019081526020016000206000905560019350505050610222565b6000915050610222565b606082471015610d01576040517f08c379a000000000000000000000000000000000000000000000000000000000815260206004820152602660248201527f416464726573733a20696e73756666696369656e742062616c616e636520666f60448201527f722063616c6c00000000000000000000000000000000000000000000000000006064820152608401610aeb565b6000808673ffffffffffffffffffffffffffffffffffffffff168587604051610d2a919061118b565b60006040518083038185875af1925050503d8060008114610d67576040519150601f19603f3d011682016040523d82523d6000602084013e610d6c565b606091505b5091509150610d7d87838387610d88565b979650505050505050565b60608315610e1e578251600003610e175773ffffffffffffffffffffffffffffffffffffffff85163b610e17576040517f08c379a000000000000000000000000000000000000000000000000000000000815260206004820152601d60248201527f416464726573733a2063616c6c20746f206e6f6e2d636f6e74726163740000006044820152606401610aeb565b5081610b74565b610b748383815115610e335781518083602001fd5b806040517f08c379a0000000000000000000000000000000000000000000000000000000008152600401610aeb91906111a7565b803573ffffffffffffffffffffffffffffffffffffffff8116811461087d57600080fd5b600060208284031215610e9d57600080fd5b6106c982610e67565b6020808252825182820181905260009190848201906040850190845b81811015610ef457835173ffffffffffffffffffffffffffffffffffffffff1683529284019291840191600101610ec2565b50909695505050505050565b60008060408385031215610f1357600080fd5b610f1c83610e67565b946020939093013593505050565b7f4e487b7100000000000000000000000000000000000000000000000000000000600052601160045260246000fd5b600181815b80851115610fb257817fffffffffffffffffffffffffffffffffffffffffffffffffffffffffffffffff04821115610f9857610f98610f2a565b80851615610fa557918102915b93841c9390800290610f5e565b509250929050565b600082610fc957506001610222565b81610fd657506000610222565b8160018114610fec5760028114610ff657611012565b6001915050610222565b60ff84111561100757611007610f2a565b50506001821b610222565b5060208310610133831016604e8410600b8410161715611035575081810a610222565b61103f8383610f59565b807fffffffffffffffffffffffffffffffffffffffffffffffffffffffffffffffff0482111561107157611071610f2a565b029392505050565b60006106c98383610fba565b808202811582820484141761022257610222610f2a565b60007f800000000000000000000000000000000000000000000000000000000000000082036110cd576110cd610f2a565b5060000390565b6000602082840312156110e657600080fd5b815180151581146106c957600080fd5b8181038181111561022257610222610f2a565b7f4e487b7100000000000000000000000000000000000000000000000000000000600052603260045260246000fd5b7f4e487b7100000000000000000000000000000000000000000000000000000000600052603160045260246000fd5b60005b8381101561118257818101518382015260200161116a565b50506000910152565b6000825161119d818460208701611167565b9190910192915050565b60208152600082518060208401526111c6816040850160208701611167565b601f017fffffffffffffffffffffffffffffffffffffffffffffffffffffffffffffffe016919091016040019291505056fea2646970667358221220538c2403daaf5675da4f585f217f702135cbd24e4bf275cadc7b47ffad16cf6b64736f6c63430008130033",
    "linkReferences": {}
  },
  "methodIdentifiers": {
    "addAuthorization(address)": "35b28153",
    "authorizedAccounts()": "2e391876",
    "authorizedAccounts(address)": "24ba5884",
    "collateral()": "d8dfeb45",
    "collateralType()": "e824600f",
    "contractEnabled()": "41b3a0d9",
    "decimals()": "313ce567",
    "disableContract()": "894ba833",
    "exit(address,uint256)": "ef693bed",
    "join(address,uint256)": "3b4da69f",
    "multiplier()": "1b3ed722",
    "removeAuthorization(address)": "94f3f81d",
    "safeEngine()": "67aea313"
  },
  "id": 140
}