{
  "abi": [
    {
      "inputs": [],
      "name": "OnlyDelegateCalls",
      "type": "error"
    },
    {
      "inputs": [
        {
          "internalType": "address",
          "name": "_protocolToken",
          "type": "address"
        }
      ],
      "name": "collectProtocolTokens",
      "outputs": [],
      "stateMutability": "nonpayable",
      "type": "function"
    },
    {
      "inputs": [
        {
          "internalType": "address",
          "name": "_coinJoin",
          "type": "address"
        },
        {
          "internalType": "address",
          "name": "_debtAuctionHouse",
          "type": "address"
        },
        {
          "internalType": "uint256",
          "name": "_auctionId",
          "type": "uint256"
        },
        {
          "internalType": "uint256",
          "name": "_soldAmount",
          "type": "uint256"
        }
      ],
      "name": "decreaseSoldAmount",
      "outputs": [],
      "stateMutability": "nonpayable",
      "type": "function"
    },
    {
      "inputs": [
        {
          "internalType": "address",
          "name": "_coinJoin",
          "type": "address"
        }
      ],
      "name": "exitAllSystemCoins",
      "outputs": [],
      "stateMutability": "nonpayable",
      "type": "function"
    },
    {
      "inputs": [
        {
          "internalType": "address",
          "name": "_collateralJoin",
          "type": "address"
        },
        {
          "internalType": "uint256",
          "name": "_wad",
          "type": "uint256"
        }
      ],
      "name": "exitCollateral",
      "outputs": [],
      "stateMutability": "nonpayable",
      "type": "function"
    },
    {
      "inputs": [
        {
          "internalType": "address",
          "name": "_coinJoin",
          "type": "address"
        },
        {
          "internalType": "uint256",
          "name": "_coinsToExit",
          "type": "uint256"
        }
      ],
      "name": "exitSystemCoins",
      "outputs": [],
      "stateMutability": "nonpayable",
      "type": "function"
    },
    {
      "inputs": [
        {
          "internalType": "address",
          "name": "_coinJoin",
          "type": "address"
        },
        {
          "internalType": "address",
          "name": "_dst",
          "type": "address"
        },
        {
          "internalType": "uint256",
          "name": "_wad",
          "type": "uint256"
        }
      ],
      "name": "joinSystemCoins",
      "outputs": [],
      "stateMutability": "nonpayable",
      "type": "function"
    },
    {
      "inputs": [
        {
          "internalType": "address",
          "name": "_coinJoin",
          "type": "address"
        },
        {
          "internalType": "address",
          "name": "_debtAuctionHouse",
          "type": "address"
        },
        {
          "internalType": "uint256",
          "name": "_auctionId",
          "type": "uint256"
        }
      ],
      "name": "settleAuction",
      "outputs": [],
      "stateMutability": "nonpayable",
      "type": "function"
    }
  ],
  "bytecode": {
    "object": "0x60a06040523060805234801561001457600080fd5b5060805161188961005a60003960008181610120015281816102a00152818161043f015281816104b80152818161053201528181610926015261099f01526118896000f3fe608060405234801561001057600080fd5b506004361061007d5760003560e01c8063902746d71161005b578063902746d7146100bd578063c576355a146100d0578063d6f25400146100e3578063fdbc9820146100f657600080fd5b80632da46734146100825780634a74e008146100975780634f127f43146100aa575b600080fd5b6100956100903660046114d6565b610109565b005b6100956100a53660046114d6565b610289565b6100956100b83660046114fa565b610428565b6100956100cb366004611526565b6104a1565b6100956100de366004611567565b61051b565b6100956100f13660046114fa565b61090f565b610095610104366004611526565b610988565b73ffffffffffffffffffffffffffffffffffffffff7f0000000000000000000000000000000000000000000000000000000000000000163003610178576040517f0406dd4b00000000000000000000000000000000000000000000000000000000815260040160405180910390fd5b60008173ffffffffffffffffffffffffffffffffffffffff166367aea3136040518163ffffffff1660e01b8152600401602060405180830381865afa1580156101c5573d6000803e3d6000fd5b505050506040513d601f19601f820116820180604052508101906101e991906115ad565b6040517ffabde80c00000000000000000000000000000000000000000000000000000000815230600482015273ffffffffffffffffffffffffffffffffffffffff919091169063fabde80c90602401602060405180830381865afa158015610255573d6000803e3d6000fd5b505050506040513d601f19601f8201168201806040525081019061027991906115ca565b90506102858282610d76565b5050565b73ffffffffffffffffffffffffffffffffffffffff7f00000000000000000000000000000000000000000000000000000000000000001630036102f8576040517f0406dd4b00000000000000000000000000000000000000000000000000000000815260040160405180910390fd5b6040517f70a0823100000000000000000000000000000000000000000000000000000000815230600482015260009073ffffffffffffffffffffffffffffffffffffffff8316906370a0823190602401602060405180830381865afa158015610365573d6000803e3d6000fd5b505050506040513d601f19601f8201168201806040525081019061038991906115ca565b6040517fa9059cbb0000000000000000000000000000000000000000000000000000000081523360048201526024810182905290915073ffffffffffffffffffffffffffffffffffffffff83169063a9059cbb906044016020604051808303816000875af11580156103ff573d6000803e3d6000fd5b505050506040513d601f19601f8201168201806040525081019061042391906115e3565b505050565b73ffffffffffffffffffffffffffffffffffffffff7f0000000000000000000000000000000000000000000000000000000000000000163003610497576040517f0406dd4b00000000000000000000000000000000000000000000000000000000815260040160405180910390fd5b6102858282610d76565b73ffffffffffffffffffffffffffffffffffffffff7f0000000000000000000000000000000000000000000000000000000000000000163003610510576040517f0406dd4b00000000000000000000000000000000000000000000000000000000815260040160405180910390fd5b610423838383610fd5565b73ffffffffffffffffffffffffffffffffffffffff7f000000000000000000000000000000000000000000000000000000000000000016300361058a576040517f0406dd4b00000000000000000000000000000000000000000000000000000000815260040160405180910390fd5b6040517f571a26a00000000000000000000000000000000000000000000000000000000081526004810183905260009073ffffffffffffffffffffffffffffffffffffffff85169063571a26a09060240160a060405180830381865afa1580156105f8573d6000803e3d6000fd5b505050506040513d601f19601f8201168201806040525081019061061c9190611605565b60000151905060008573ffffffffffffffffffffffffffffffffffffffff166367aea3136040518163ffffffff1660e01b8152600401602060405180830381865afa15801561066f573d6000803e3d6000fd5b505050506040513d601f19601f8201168201806040525081019061069391906115ad565b6040517ffabde80c00000000000000000000000000000000000000000000000000000000815230600482015290915060009073ffffffffffffffffffffffffffffffffffffffff83169063fabde80c90602401602060405180830381865afa158015610703573d6000803e3d6000fd5b505050506040513d601f19601f8201168201806040525081019061072791906115ca565b90508281101561075c5761075c87306b033b2e3c9fd0803ce800000061074d85886116d3565b61075791906116ec565b610fd5565b6040517f50de215d00000000000000000000000000000000000000000000000000000000815230600482015273ffffffffffffffffffffffffffffffffffffffff87811660248301528316906350de215d90604401602060405180830381865afa1580156107ce573d6000803e3d6000fd5b505050506040513d601f19601f820116820180604052508101906107f291906115e3565b610878576040517fd94d420800000000000000000000000000000000000000000000000000000000815273ffffffffffffffffffffffffffffffffffffffff878116600483015283169063d94d420890602401600060405180830381600087803b15801561085f57600080fd5b505af1158015610873573d6000803e3d6000fd5b505050505b6040517fff6b7b1c00000000000000000000000000000000000000000000000000000000815260048101869052602481018590526044810184905273ffffffffffffffffffffffffffffffffffffffff87169063ff6b7b1c90606401600060405180830381600087803b1580156108ee57600080fd5b505af1158015610902573d6000803e3d6000fd5b5050505050505050505050565b73ffffffffffffffffffffffffffffffffffffffff7f000000000000000000000000000000000000000000000000000000000000000016300361097e576040517f0406dd4b00000000000000000000000000000000000000000000000000000000815260040160405180910390fd5b61028582826111e9565b73ffffffffffffffffffffffffffffffffffffffff7f00000000000000000000000000000000000000000000000000000000000000001630036109f7576040517f0406dd4b00000000000000000000000000000000000000000000000000000000815260040160405180910390fd5b6040517f571a26a00000000000000000000000000000000000000000000000000000000081526004810182905260009073ffffffffffffffffffffffffffffffffffffffff84169063571a26a09060240160a060405180830381865afa158015610a65573d6000803e3d6000fd5b505050506040513d601f19601f82011682018060405250810190610a899190611605565b6040517f2e9936110000000000000000000000000000000000000000000000000000000081526004810184905290915073ffffffffffffffffffffffffffffffffffffffff841690632e99361190602401600060405180830381600087803b158015610af457600080fd5b505af1158015610b08573d6000803e3d6000fd5b505050503073ffffffffffffffffffffffffffffffffffffffff16816040015173ffffffffffffffffffffffffffffffffffffffff1603610c575760008373ffffffffffffffffffffffffffffffffffffffff16631a465fe16040518163ffffffff1660e01b8152600401602060405180830381865afa158015610b90573d6000803e3d6000fd5b505050506040513d601f19601f82011682018060405250810190610bb491906115ad565b60208301516040517fa9059cbb000000000000000000000000000000000000000000000000000000008152336004820152602481019190915290915073ffffffffffffffffffffffffffffffffffffffff82169063a9059cbb906044016020604051808303816000875af1158015610c30573d6000803e3d6000fd5b505050506040513d601f19601f82011682018060405250810190610c5491906115e3565b50505b60008473ffffffffffffffffffffffffffffffffffffffff166367aea3136040518163ffffffff1660e01b8152600401602060405180830381865afa158015610ca4573d6000803e3d6000fd5b505050506040513d601f19601f82011682018060405250810190610cc891906115ad565b6040517ffabde80c00000000000000000000000000000000000000000000000000000000815230600482015290915060009073ffffffffffffffffffffffffffffffffffffffff83169063fabde80c90602401602060405180830381865afa158015610d38573d6000803e3d6000fd5b505050506040513d601f19601f82011682018060405250810190610d5c91906115ca565b90508015610d6e57610d6e8682610d76565b505050505050565b80600003610d82575050565b600082905060008173ffffffffffffffffffffffffffffffffffffffff166367aea3136040518163ffffffff1660e01b8152600401602060405180830381865afa158015610dd4573d6000803e3d6000fd5b505050506040513d601f19601f82011682018060405250810190610df891906115ad565b6040517f50de215d00000000000000000000000000000000000000000000000000000000815230600482015273ffffffffffffffffffffffffffffffffffffffff8681166024830152919250908216906350de215d90604401602060405180830381865afa158015610e6e573d6000803e3d6000fd5b505050506040513d601f19601f82011682018060405250810190610e9291906115e3565b610f18576040517fd94d420800000000000000000000000000000000000000000000000000000000815273ffffffffffffffffffffffffffffffffffffffff858116600483015282169063d94d420890602401600060405180830381600087803b158015610eff57600080fd5b505af1158015610f13573d6000803e3d6000fd5b505050505b73ffffffffffffffffffffffffffffffffffffffff821663ef693bed33610f4b6b033b2e3c9fd0803ce8000000876116ec565b6040517fffffffff0000000000000000000000000000000000000000000000000000000060e085901b16815273ffffffffffffffffffffffffffffffffffffffff909216600483015260248201526044015b600060405180830381600087803b158015610fb757600080fd5b505af1158015610fcb573d6000803e3d6000fd5b5050505050505050565b80600003610fe257505050565b60008373ffffffffffffffffffffffffffffffffffffffff1663a7e944556040518163ffffffff1660e01b8152600401602060405180830381865afa15801561102f573d6000803e3d6000fd5b505050506040513d601f19601f8201168201806040525081019061105391906115ad565b6040517f23b872dd0000000000000000000000000000000000000000000000000000000081523360048201523060248201526044810184905290915073ffffffffffffffffffffffffffffffffffffffff8216906323b872dd906064016020604051808303816000875af11580156110cf573d6000803e3d6000fd5b505050506040513d601f19601f820116820180604052508101906110f391906115e3565b506040517f095ea7b300000000000000000000000000000000000000000000000000000000815273ffffffffffffffffffffffffffffffffffffffff85811660048301526024820184905282169063095ea7b3906044016020604051808303816000875af1158015611169573d6000803e3d6000fd5b505050506040513d601f19601f8201168201806040525081019061118d91906115e3565b506040517f3b4da69f00000000000000000000000000000000000000000000000000000000815273ffffffffffffffffffffffffffffffffffffffff848116600483015260248201849052851690633b4da69f90604401610f9d565b806000036111f5575050565b600082905060008173ffffffffffffffffffffffffffffffffffffffff166367aea3136040518163ffffffff1660e01b8152600401602060405180830381865afa158015611247573d6000803e3d6000fd5b505050506040513d601f19601f8201168201806040525081019061126b91906115ad565b6040517f50de215d00000000000000000000000000000000000000000000000000000000815230600482015273ffffffffffffffffffffffffffffffffffffffff8681166024830152919250908216906350de215d90604401602060405180830381865afa1580156112e1573d6000803e3d6000fd5b505050506040513d601f19601f8201168201806040525081019061130591906115e3565b61138b576040517fd94d420800000000000000000000000000000000000000000000000000000000815273ffffffffffffffffffffffffffffffffffffffff858116600483015282169063d94d420890602401600060405180830381600087803b15801561137257600080fd5b505af1158015611386573d6000803e3d6000fd5b505050505b60008273ffffffffffffffffffffffffffffffffffffffff1663313ce5676040518163ffffffff1660e01b8152600401602060405180830381865afa1580156113d8573d6000803e3d6000fd5b505050506040513d601f19601f820116820180604052508101906113fc91906115ca565b9050600061140b8260126116d3565b61141690600a611847565b61142090866116ec565b6040517fef693bed0000000000000000000000000000000000000000000000000000000081523360048201526024810182905290915073ffffffffffffffffffffffffffffffffffffffff85169063ef693bed90604401600060405180830381600087803b15801561149157600080fd5b505af11580156114a5573d6000803e3d6000fd5b50505050505050505050565b73ffffffffffffffffffffffffffffffffffffffff811681146114d357600080fd5b50565b6000602082840312156114e857600080fd5b81356114f3816114b1565b9392505050565b6000806040838503121561150d57600080fd5b8235611518816114b1565b946020939093013593505050565b60008060006060848603121561153b57600080fd5b8335611546816114b1565b92506020840135611556816114b1565b929592945050506040919091013590565b6000806000806080858703121561157d57600080fd5b8435611588816114b1565b93506020850135611598816114b1565b93969395505050506040820135916060013590565b6000602082840312156115bf57600080fd5b81516114f3816114b1565b6000602082840312156115dc57600080fd5b5051919050565b6000602082840312156115f557600080fd5b815180151581146114f357600080fd5b600060a0828403121561161757600080fd5b60405160a0810181811067ffffffffffffffff82111715611661577f4e487b7100000000000000000000000000000000000000000000000000000000600052604160045260246000fd5b806040525082518152602083015160208201526040830151611682816114b1565b6040820152606083810151908201526080928301519281019290925250919050565b7f4e487b7100000000000000000000000000000000000000000000000000000000600052601160045260246000fd5b818103818111156116e6576116e66116a4565b92915050565b600082611722577f4e487b7100000000000000000000000000000000000000000000000000000000600052601260045260246000fd5b500490565b600181815b8085111561178057817fffffffffffffffffffffffffffffffffffffffffffffffffffffffffffffffff04821115611766576117666116a4565b8085161561177357918102915b93841c939080029061172c565b509250929050565b600082611797575060016116e6565b816117a4575060006116e6565b81600181146117ba57600281146117c4576117e0565b60019150506116e6565b60ff8411156117d5576117d56116a4565b50506001821b6116e6565b5060208310610133831016604e8410600b8410161715611803575081810a6116e6565b61180d8383611727565b807fffffffffffffffffffffffffffffffffffffffffffffffffffffffffffffffff0482111561183f5761183f6116a4565b029392505050565b60006114f3838361178856fea2646970667358221220d09b2927a071a9ebc5fbe5b3d0bf782a3878e2b95606858a4f3793380aa6d21964736f6c63430008130033",
    "linkReferences": {}
  },
  "methodIdentifiers": {
    "collectProtocolTokens(address)": "4a74e008",
    "decreaseSoldAmount(address,address,uint256,uint256)": "c576355a",
    "exitAllSystemCoins(address)": "2da46734",
    "exitCollateral(address,uint256)": "d6f25400",
    "exitSystemCoins(address,uint256)": "4f127f43",
    "joinSystemCoins(address,address,uint256)": "902746d7",
    "settleAuction(address,address,uint256)": "fdbc9820"
  },
  "id": 127
}