{
  "abi": [
    {
      "inputs": [
        {
          "internalType": "address",
          "name": "_safeEngine",
          "type": "address"
        },
        {
          "internalType": "address",
          "name": "_protocolToken",
          "type": "address"
        },
        {
          "components": [
            {
              "internalType": "uint256",
              "name": "bidDecrease",
              "type": "uint256"
            },
            {
              "internalType": "uint256",
              "name": "amountSoldIncrease",
              "type": "uint256"
            },
            {
              "internalType": "uint256",
              "name": "bidDuration",
              "type": "uint256"
            },
            {
              "internalType": "uint256",
              "name": "totalAuctionLength",
              "type": "uint256"
            }
          ],
          "internalType": "struct IDebtAuctionHouse.DebtAuctionHouseParams",
          "name": "_dahParams",
          "type": "tuple"
        }
      ],
      "stateMutability": "nonpayable",
      "type": "constructor"
    },
    {
      "inputs": [],
      "name": "AlreadyAuthorized",
      "type": "error"
    },
    {
      "inputs": [],
      "name": "ContractIsDisabled",
      "type": "error"
    },
    {
      "inputs": [],
      "name": "ContractIsEnabled",
      "type": "error"
    },
    {
      "inputs": [],
      "name": "DAH_AmountBoughtNotLower",
      "type": "error"
    },
    {
      "inputs": [],
      "name": "DAH_AuctionAlreadyExpired",
      "type": "error"
    },
    {
      "inputs": [],
      "name": "DAH_AuctionNeverStarted",
      "type": "error"
    },
    {
      "inputs": [],
      "name": "DAH_AuctionNotFinished",
      "type": "error"
    },
    {
      "inputs": [],
      "name": "DAH_BidAlreadyExpired",
      "type": "error"
    },
    {
      "inputs": [],
      "name": "DAH_BidAlreadyPlaced",
      "type": "error"
    },
    {
      "inputs": [],
      "name": "DAH_HighBidderNotSet",
      "type": "error"
    },
    {
      "inputs": [],
      "name": "DAH_InsufficientDecrease",
      "type": "error"
    },
    {
      "inputs": [],
      "name": "DAH_NotMatchingBid",
      "type": "error"
    },
    {
      "inputs": [],
      "name": "NonDisableable",
      "type": "error"
    },
    {
      "inputs": [],
      "name": "NotAuthorized",
      "type": "error"
    },
    {
      "inputs": [],
      "name": "NullAddress",
      "type": "error"
    },
    {
      "inputs": [],
      "name": "Unauthorized",
      "type": "error"
    },
    {
      "inputs": [],
      "name": "UnrecognizedCType",
      "type": "error"
    },
    {
      "inputs": [],
      "name": "UnrecognizedParam",
      "type": "error"
    },
    {
      "anonymous": false,
      "inputs": [
        {
          "indexed": false,
          "internalType": "address",
          "name": "_account",
          "type": "address"
        }
      ],
      "name": "AddAuthorization",
      "type": "event"
    },
    {
      "anonymous": false,
      "inputs": [
        {
          "indexed": true,
          "internalType": "uint256",
          "name": "_id",
          "type": "uint256"
        },
        {
          "indexed": false,
          "internalType": "address",
          "name": "_bidder",
          "type": "address"
        },
        {
          "indexed": false,
          "internalType": "uint256",
          "name": "_blockTimestamp",
          "type": "uint256"
        },
        {
          "indexed": false,
          "internalType": "uint256",
          "name": "_raisedAmount",
          "type": "uint256"
        },
        {
          "indexed": false,
          "internalType": "uint256",
          "name": "_soldAmount",
          "type": "uint256"
        },
        {
          "indexed": false,
          "internalType": "uint256",
          "name": "_bidExpiry",
          "type": "uint256"
        }
      ],
      "name": "DecreaseSoldAmount",
      "type": "event"
    },
    {
      "anonymous": false,
      "inputs": [],
      "name": "DisableContract",
      "type": "event"
    },
    {
      "anonymous": false,
      "inputs": [
        {
          "indexed": true,
          "internalType": "bytes32",
          "name": "_param",
          "type": "bytes32"
        },
        {
          "indexed": true,
          "internalType": "bytes32",
          "name": "_cType",
          "type": "bytes32"
        },
        {
          "indexed": false,
          "internalType": "bytes",
          "name": "_data",
          "type": "bytes"
        }
      ],
      "name": "ModifyParameters",
      "type": "event"
    },
    {
      "anonymous": false,
      "inputs": [
        {
          "indexed": false,
          "internalType": "address",
          "name": "_account",
          "type": "address"
        }
      ],
      "name": "RemoveAuthorization",
      "type": "event"
    },
    {
      "anonymous": false,
      "inputs": [
        {
          "indexed": true,
          "internalType": "uint256",
          "name": "_id",
          "type": "uint256"
        },
        {
          "indexed": false,
          "internalType": "uint256",
          "name": "_blockTimestamp",
          "type": "uint256"
        },
        {
          "indexed": false,
          "internalType": "uint256",
          "name": "_auctionDeadline",
          "type": "uint256"
        }
      ],
      "name": "RestartAuction",
      "type": "event"
    },
    {
      "anonymous": false,
      "inputs": [
        {
          "indexed": true,
          "internalType": "uint256",
          "name": "_id",
          "type": "uint256"
        },
        {
          "indexed": false,
          "internalType": "uint256",
          "name": "_blockTimestamp",
          "type": "uint256"
        },
        {
          "indexed": false,
          "internalType": "address",
          "name": "_highBidder",
          "type": "address"
        },
        {
          "indexed": false,
          "internalType": "uint256",
          "name": "_raisedAmount",
          "type": "uint256"
        }
      ],
      "name": "SettleAuction",
      "type": "event"
    },
    {
      "anonymous": false,
      "inputs": [
        {
          "indexed": true,
          "internalType": "uint256",
          "name": "_id",
          "type": "uint256"
        },
        {
          "indexed": true,
          "internalType": "address",
          "name": "_auctioneer",
          "type": "address"
        },
        {
          "indexed": false,
          "internalType": "uint256",
          "name": "_blockTimestamp",
          "type": "uint256"
        },
        {
          "indexed": false,
          "internalType": "uint256",
          "name": "_amountToSell",
          "type": "uint256"
        },
        {
          "indexed": false,
          "internalType": "uint256",
          "name": "_amountToRaise",
          "type": "uint256"
        },
        {
          "indexed": false,
          "internalType": "uint256",
          "name": "_auctionDeadline",
          "type": "uint256"
        }
      ],
      "name": "StartAuction",
      "type": "event"
    },
    {
      "anonymous": false,
      "inputs": [
        {
          "indexed": true,
          "internalType": "uint256",
          "name": "_id",
          "type": "uint256"
        },
        {
          "indexed": false,
          "internalType": "uint256",
          "name": "_blockTimestamp",
          "type": "uint256"
        },
        {
          "indexed": false,
          "internalType": "address",
          "name": "_highBidder",
          "type": "address"
        },
        {
          "indexed": false,
          "internalType": "uint256",
          "name": "_raisedAmount",
          "type": "uint256"
        }
      ],
      "name": "TerminateAuctionPrematurely",
      "type": "event"
    },
    {
      "inputs": [],
      "name": "AUCTION_HOUSE_TYPE",
      "outputs": [
        {
          "internalType": "bytes32",
          "name": "",
          "type": "bytes32"
        }
      ],
      "stateMutability": "view",
      "type": "function"
    },
    {
      "inputs": [
        {
          "internalType": "uint256",
          "name": "",
          "type": "uint256"
        }
      ],
      "name": "_auctions",
      "outputs": [
        {
          "internalType": "uint256",
          "name": "bidAmount",
          "type": "uint256"
        },
        {
          "internalType": "uint256",
          "name": "amountToSell",
          "type": "uint256"
        },
        {
          "internalType": "address",
          "name": "highBidder",
          "type": "address"
        },
        {
          "internalType": "uint256",
          "name": "bidExpiry",
          "type": "uint256"
        },
        {
          "internalType": "uint256",
          "name": "auctionDeadline",
          "type": "uint256"
        }
      ],
      "stateMutability": "view",
      "type": "function"
    },
    {
      "inputs": [],
      "name": "_params",
      "outputs": [
        {
          "internalType": "uint256",
          "name": "bidDecrease",
          "type": "uint256"
        },
        {
          "internalType": "uint256",
          "name": "amountSoldIncrease",
          "type": "uint256"
        },
        {
          "internalType": "uint256",
          "name": "bidDuration",
          "type": "uint256"
        },
        {
          "internalType": "uint256",
          "name": "totalAuctionLength",
          "type": "uint256"
        }
      ],
      "stateMutability": "view",
      "type": "function"
    },
    {
      "inputs": [],
      "name": "accountingEngine",
      "outputs": [
        {
          "internalType": "address",
          "name": "",
          "type": "address"
        }
      ],
      "stateMutability": "view",
      "type": "function"
    },
    {
      "inputs": [],
      "name": "activeDebtAuctions",
      "outputs": [
        {
          "internalType": "uint256",
          "name": "",
          "type": "uint256"
        }
      ],
      "stateMutability": "view",
      "type": "function"
    },
    {
      "inputs": [
        {
          "internalType": "address",
          "name": "_account",
          "type": "address"
        }
      ],
      "name": "addAuthorization",
      "outputs": [],
      "stateMutability": "nonpayable",
      "type": "function"
    },
    {
      "inputs": [
        {
          "internalType": "uint256",
          "name": "_id",
          "type": "uint256"
        }
      ],
      "name": "auctions",
      "outputs": [
        {
          "components": [
            {
              "internalType": "uint256",
              "name": "bidAmount",
              "type": "uint256"
            },
            {
              "internalType": "uint256",
              "name": "amountToSell",
              "type": "uint256"
            },
            {
              "internalType": "address",
              "name": "highBidder",
              "type": "address"
            },
            {
              "internalType": "uint256",
              "name": "bidExpiry",
              "type": "uint256"
            },
            {
              "internalType": "uint256",
              "name": "auctionDeadline",
              "type": "uint256"
            }
          ],
          "internalType": "struct IDebtAuctionHouse.Auction",
          "name": "_auction",
          "type": "tuple"
        }
      ],
      "stateMutability": "view",
      "type": "function"
    },
    {
      "inputs": [],
      "name": "auctionsStarted",
      "outputs": [
        {
          "internalType": "uint256",
          "name": "",
          "type": "uint256"
        }
      ],
      "stateMutability": "view",
      "type": "function"
    },
    {
      "inputs": [
        {
          "internalType": "address",
          "name": "_account",
          "type": "address"
        }
      ],
      "name": "authorizedAccounts",
      "outputs": [
        {
          "internalType": "bool",
          "name": "_authorized",
          "type": "bool"
        }
      ],
      "stateMutability": "view",
      "type": "function"
    },
    {
      "inputs": [],
      "name": "authorizedAccounts",
      "outputs": [
        {
          "internalType": "address[]",
          "name": "_accounts",
          "type": "address[]"
        }
      ],
      "stateMutability": "view",
      "type": "function"
    },
    {
      "inputs": [],
      "name": "contractEnabled",
      "outputs": [
        {
          "internalType": "bool",
          "name": "",
          "type": "bool"
        }
      ],
      "stateMutability": "view",
      "type": "function"
    },
    {
      "inputs": [
        {
          "internalType": "uint256",
          "name": "_id",
          "type": "uint256"
        },
        {
          "internalType": "uint256",
          "name": "_amountToBuy",
          "type": "uint256"
        },
        {
          "internalType": "uint256",
          "name": "_bid",
          "type": "uint256"
        }
      ],
      "name": "decreaseSoldAmount",
      "outputs": [],
      "stateMutability": "nonpayable",
      "type": "function"
    },
    {
      "inputs": [],
      "name": "disableContract",
      "outputs": [],
      "stateMutability": "nonpayable",
      "type": "function"
    },
    {
      "inputs": [
        {
          "internalType": "bytes32",
          "name": "_cType",
          "type": "bytes32"
        },
        {
          "internalType": "bytes32",
          "name": "_param",
          "type": "bytes32"
        },
        {
          "internalType": "bytes",
          "name": "_data",
          "type": "bytes"
        }
      ],
      "name": "modifyParameters",
      "outputs": [],
      "stateMutability": "nonpayable",
      "type": "function"
    },
    {
      "inputs": [
        {
          "internalType": "bytes32",
          "name": "_param",
          "type": "bytes32"
        },
        {
          "internalType": "bytes",
          "name": "_data",
          "type": "bytes"
        }
      ],
      "name": "modifyParameters",
      "outputs": [],
      "stateMutability": "nonpayable",
      "type": "function"
    },
    {
      "inputs": [],
      "name": "params",
      "outputs": [
        {
          "components": [
            {
              "internalType": "uint256",
              "name": "bidDecrease",
              "type": "uint256"
            },
            {
              "internalType": "uint256",
              "name": "amountSoldIncrease",
              "type": "uint256"
            },
            {
              "internalType": "uint256",
              "name": "bidDuration",
              "type": "uint256"
            },
            {
              "internalType": "uint256",
              "name": "totalAuctionLength",
              "type": "uint256"
            }
          ],
          "internalType": "struct IDebtAuctionHouse.DebtAuctionHouseParams",
          "name": "_dahParams",
          "type": "tuple"
        }
      ],
      "stateMutability": "view",
      "type": "function"
    },
    {
      "inputs": [],
      "name": "protocolToken",
      "outputs": [
        {
          "internalType": "contract IProtocolToken",
          "name": "",
          "type": "address"
        }
      ],
      "stateMutability": "view",
      "type": "function"
    },
    {
      "inputs": [
        {
          "internalType": "address",
          "name": "_account",
          "type": "address"
        }
      ],
      "name": "removeAuthorization",
      "outputs": [],
      "stateMutability": "nonpayable",
      "type": "function"
    },
    {
      "inputs": [
        {
          "internalType": "uint256",
          "name": "_id",
          "type": "uint256"
        }
      ],
      "name": "restartAuction",
      "outputs": [],
      "stateMutability": "nonpayable",
      "type": "function"
    },
    {
      "inputs": [],
      "name": "safeEngine",
      "outputs": [
        {
          "internalType": "contract ISAFEEngine",
          "name": "",
          "type": "address"
        }
      ],
      "stateMutability": "view",
      "type": "function"
    },
    {
      "inputs": [
        {
          "internalType": "uint256",
          "name": "_id",
          "type": "uint256"
        }
      ],
      "name": "settleAuction",
      "outputs": [],
      "stateMutability": "nonpayable",
      "type": "function"
    },
    {
      "inputs": [
        {
          "internalType": "address",
          "name": "_incomeReceiver",
          "type": "address"
        },
        {
          "internalType": "uint256",
          "name": "_amountToSell",
          "type": "uint256"
        },
        {
          "internalType": "uint256",
          "name": "_initialBid",
          "type": "uint256"
        }
      ],
      "name": "startAuction",
      "outputs": [
        {
          "internalType": "uint256",
          "name": "_id",
          "type": "uint256"
        }
      ],
      "stateMutability": "nonpayable",
      "type": "function"
    },
    {
      "inputs": [
        {
          "internalType": "uint256",
          "name": "_id",
          "type": "uint256"
        }
      ],
      "name": "terminateAuctionPrematurely",
      "outputs": [],
      "stateMutability": "nonpayable",
      "type": "function"
    }
  ],
  "bytecode": {
    "object": "0x60806040526002805460ff191660011790553480156200001e57600080fd5b506040516200210838038062002108833981016040819052620000419162000203565b336200004d81620000c1565b50620000626001600160a01b0384166200012f565b600680546001600160a01b03199081166001600160a01b03938416179091556007805490911691841691909117905580516009556020810151600a556040810151600b556060810151600c55620000b86200015d565b505050620002b1565b620000ce60008262000174565b1562000113576040516001600160a01b03821681527f599a298163e1678bb1c676052a8930bf0b8a1261ed6e01b8a2391e55f70001029060200160405180910390a150565b604051633013e93f60e11b815260040160405180910390fd5b50565b60006001600160a01b038216620001595760405163e99d5ac560e01b815260040160405180910390fd5b5090565b6007546200012c906001600160a01b03166200012f565b60006200018b836001600160a01b03841662000194565b90505b92915050565b6000818152600183016020526040812054620001dd575081546001818101845560008481526020808220909301849055845484825282860190935260409020919091556200018e565b5060006200018e565b80516001600160a01b0381168114620001fe57600080fd5b919050565b600080600083850360c08112156200021a57600080fd5b6200022585620001e6565b93506200023560208601620001e6565b92506080603f19820112156200024a57600080fd5b50604051608081016001600160401b03811182821017156200027c57634e487b7160e01b600052604160045260246000fd5b806040525060408501518152606085015160208201526080850151604082015260a08501516060820152809150509250925092565b611e4780620002c16000396000f3fe608060405234801561001057600080fd5b506004361061018d5760003560e01c806356dd4755116100e357806394f3f81d1161008c578063d25ccf5311610066578063d25ccf5314610498578063da8a4bb8146104ab578063ff6b7b1c146104be57600080fd5b806394f3f81d1461042a578063961d45c41461043d578063cff0ab961461045d57600080fd5b80638115ba74116100bd5780638115ba7414610406578063894ba8331461040f578063933f76081461041757600080fd5b806356dd475514610368578063571a26a01461037b57806367aea313146103e657600080fd5b80632e3918761161014557806341b3a0d91161011f57806341b3a0d91461031c578063551cb3b114610329578063552b16ab1461033257600080fd5b80632e391876146102e15780632e993611146102f657806335b281531461030957600080fd5b806317dc6bf61161017657806317dc6bf6146101e15780631a465fe11461027957806324ba5884146102be57600080fd5b80631266fb941461019257806312f33526146101cc575b600080fd5b6101b97f444542540000000000000000000000000000000000000000000000000000000081565b6040519081526020015b60405180910390f35b6101df6101da366004611a6d565b6104d1565b005b6102366101ef366004611abd565b6003602081905260009182526040909120805460018201546002830154938301546004909301549193909273ffffffffffffffffffffffffffffffffffffffff9091169185565b60408051958652602086019490945273ffffffffffffffffffffffffffffffffffffffff909216928401929092526060830191909152608082015260a0016101c3565b6007546102999073ffffffffffffffffffffffffffffffffffffffff1681565b60405173ffffffffffffffffffffffffffffffffffffffff90911681526020016101c3565b6102d16102cc366004611aff565b61055c565b60405190151581526020016101c3565b6102e961056d565b6040516101c39190611b1a565b6101df610304366004611abd565b61057e565b6101df610317366004611aff565b6107cd565b6002546102d19060ff1681565b6101b960045481565b600954600a54600b54600c546103489392919084565b6040805194855260208501939093529183015260608201526080016101c3565b6101b9610376366004611b74565b610818565b61038e610389366004611abd565b6109f2565b6040516101c39190600060a082019050825182526020830151602083015273ffffffffffffffffffffffffffffffffffffffff6040840151166040830152606083015160608301526080830151608083015292915050565b6006546102999073ffffffffffffffffffffffffffffffffffffffff1681565b6101b960055481565b6101df610a9e565b6101df610425366004611abd565b610ba0565b6101df610438366004611aff565b610d6e565b6008546102999073ffffffffffffffffffffffffffffffffffffffff1681565b610465610db6565b6040516101c391908151815260208083015190820152604080830151908201526060918201519181019190915260800190565b6101df6104a6366004611abd565b610e0e565b6101df6104b9366004611ba7565b610f5e565b6101df6104cc366004611bee565b610fef565b6104da3361143f565b610510576040517f82b4290000000000000000000000000000000000000000000000000000000000815260040160405180910390fd5b8261051c84848461144b565b83837fe436a8be7dc6aab90b400800ecc86e46fb600f2e18989b5d0389840fdabbf2ed8460405161054d9190611c1a565b60405180910390a35b50505050565b60006105678261143f565b92915050565b6060610579600061147d565b905090565b60025460ff166105ba576040517f7abbf1c900000000000000000000000000000000000000000000000000000000815260040160405180910390fd5b600081815260036020818152604092839020835160a08101855281548152600182015492810192909252600281015473ffffffffffffffffffffffffffffffffffffffff16938201939093529082015460608201819052600490920154608082015290158061063a575042816060015111801561063a5750428160800151115b15610671576040517ffaf797e100000000000000000000000000000000000000000000000000000000815260040160405180910390fd5b600754604082810151602084015191517f40c10f1900000000000000000000000000000000000000000000000000000000815273ffffffffffffffffffffffffffffffffffffffff91821660048201526024810192909252909116906340c10f1990604401600060405180830381600087803b1580156106f057600080fd5b505af1158015610704573d6000803e3d6000fd5b5050505060056000815461071790611cb5565b909155506040818101518251825142815273ffffffffffffffffffffffffffffffffffffffff90921660208301529181019190915282907fce605a43280ed04bb2cf4231276a425e3650af62821a5e1f0c8daf63beba6c34906060015b60405180910390a25060009081526003602081905260408220828155600181018390556002810180547fffffffffffffffffffffffff000000000000000000000000000000000000000016905590810182905560040155565b6107d63361143f565b61080c576040517f82b4290000000000000000000000000000000000000000000000000000000000815260040160405180910390fd5b61081581611491565b50565b60006108233361143f565b610859576040517f82b4290000000000000000000000000000000000000000000000000000000000815260040160405180910390fd5b60025460ff16610895576040517f7abbf1c900000000000000000000000000000000000000000000000000000000815260040160405180910390fd5b6004600081546108a490611cea565b91905081905590506040518060a001604052808381526020018481526020018573ffffffffffffffffffffffffffffffffffffffff16815260200160008152602001600960030154426108f79190611d22565b90526000828152600360208181526040808420855181559185015160018301558401516002820180547fffffffffffffffffffffffff00000000000000000000000000000000000000001673ffffffffffffffffffffffffffffffffffffffff9092169190911790556060840151918101919091556080909201516004909201919091556005805490919061098b90611cea565b9091555060008181526003602090815260409182902060040154825142815291820186905281830185905260608201529051339183917fda2c6648a718e51b6494e6a51a7e7a1bcd0ef390444bd74bcdf291229e9d8dca9181900360800190a39392505050565b610a3a6040518060a001604052806000815260200160008152602001600073ffffffffffffffffffffffffffffffffffffffff16815260200160008152602001600081525090565b50600090815260036020818152604092839020835160a08101855281548152600182015492810192909252600281015473ffffffffffffffffffffffffffffffffffffffff1693820193909352908201546060820152600490910154608082015290565b610aa73361143f565b610add576040517f82b4290000000000000000000000000000000000000000000000000000000000815260040160405180910390fd5b60025460ff16610b19576040517f7abbf1c900000000000000000000000000000000000000000000000000000000815260040160405180910390fd5b600280547fffffffffffffffffffffffffffffffffffffffffffffffffffffffffffffff00169055610b75600880547fffffffffffffffffffffffff000000000000000000000000000000000000000016331790556000600555565b6040517f2d4b4ecff7bd7503135271925520a2f6c0d98c9473ffc1a1e72c92502f51b25e90600090a1565b60025460ff1615610bdd576040517ff59a25d600000000000000000000000000000000000000000000000000000000815260040160405180910390fd5b600081815260036020818152604092839020835160a08101855281548152600182015492810192909252600281015473ffffffffffffffffffffffffffffffffffffffff16938201849052918201546060820152600490910154608082015290610c73576040517f622070ac00000000000000000000000000000000000000000000000000000000815260040160405180910390fd5b600654600854604083810151845191517f1b14282000000000000000000000000000000000000000000000000000000000815273ffffffffffffffffffffffffffffffffffffffff938416600482015290831660248201526044810191909152911690631b14282090606401600060405180830381600087803b158015610cf957600080fd5b505af1158015610d0d573d6000803e3d6000fd5b5050506040808301518351825142815273ffffffffffffffffffffffffffffffffffffffff9092166020830152918101919091528391507f728fcceeefd42b7de1122fe9fef58c0bacd081dcbd7a141315835ba00d29b4b190606001610774565b610d773361143f565b610dad576040517f82b4290000000000000000000000000000000000000000000000000000000000815260040160405180910390fd5b61081581611520565b610de16040518060800160405280600081526020016000815260200160008152602001600081525090565b50604080516080810182526009548152600a546020820152600b5491810191909152600c54606082015290565b6000818152600360205260409020811580610e2a575060045482115b15610e61576040517f42f7d2ab00000000000000000000000000000000000000000000000000000000815260040160405180910390fd5b4281600401541115610e9f576040517ffaf797e100000000000000000000000000000000000000000000000000000000815260040160405180910390fd5b600381015415610edb576040517f8ef6d17000000000000000000000000000000000000000000000000000000000815260040160405180910390fd5b6001810154600a54670de0b6b3a764000091610ef691611d35565b610f009190611d4c565b6001820155600c54610f129042611d22565b6004820181905560405183917f52926b7e2fb12434af05e0b5e28d2b857fc6a23d92f7d7b8ebc6ec6b0fb4419e91610f5291428252602082015260400190565b60405180910390a25050565b610f673361143f565b610f9d576040517f82b4290000000000000000000000000000000000000000000000000000000000815260040160405180910390fd5b610fa782826115a8565b6000801b827fe436a8be7dc6aab90b400800ecc86e46fb600f2e18989b5d0389840fdabbf2ed83604051610fdb9190611c1a565b60405180910390a3610feb6116f6565b5050565b60025460ff1661102b576040517f7abbf1c900000000000000000000000000000000000000000000000000000000815260040160405180910390fd5b6000838152600360205260409020600281015473ffffffffffffffffffffffffffffffffffffffff1661108a576040517f622070ac00000000000000000000000000000000000000000000000000000000815260040160405180910390fd5b428160030154111580156110a15750600381015415155b156110d8576040517f5ea12edd00000000000000000000000000000000000000000000000000000000815260040160405180910390fd5b42816004015411611115576040517f8c64dc1300000000000000000000000000000000000000000000000000000000815260040160405180910390fd5b8054821461114f576040517f3f71141900000000000000000000000000000000000000000000000000000000815260040160405180910390fd5b8060010154831061118c576040517f17282a9b00000000000000000000000000000000000000000000000000000000815260040160405180910390fd5b670de0b6b3a764000081600101546111a49190611d35565b6009546111b2908590611d35565b11156111ea576040517fc145be9e00000000000000000000000000000000000000000000000000000000815260040160405180910390fd5b60065460028201546040517fefabcadc00000000000000000000000000000000000000000000000000000000815233600482015273ffffffffffffffffffffffffffffffffffffffff91821660248201526044810185905291169063efabcadc90606401600060405180830381600087803b15801561126857600080fd5b505af115801561127c573d6000803e3d6000fd5b5050505080600301546000036113a1576002810154604080517f0f44d6bd000000000000000000000000000000000000000000000000000000008152905160009273ffffffffffffffffffffffffffffffffffffffff1691630f44d6bd9160048083019260209291908290030181865afa1580156112fe573d6000803e3d6000fd5b505050506040513d601f19601f820116820180604052508101906113229190611d87565b600283015490915073ffffffffffffffffffffffffffffffffffffffff16633dc4ab1d61134f8584611718565b6040518263ffffffff1660e01b815260040161136d91815260200190565b600060405180830381600087803b15801561138757600080fd5b505af115801561139b573d6000803e3d6000fd5b50505050505b6002810180547fffffffffffffffffffffffff0000000000000000000000000000000000000000163317905560018101839055600b546113e19042611d22565b600382018190556040805133815242602082015290810184905260608101859052608081019190915284907fd03aade43d4f06b149596cb96018f84b1c24e90702238211e21a785f17ff48cf9060a00160405180910390a250505050565b6000610567818361172f565b6040517f9d2ff48000000000000000000000000000000000000000000000000000000000815260040160405180910390fd5b6060600061148a8361175e565b9392505050565b61149c6000826117ba565b156114ee5760405173ffffffffffffffffffffffffffffffffffffffff821681527f599a298163e1678bb1c676052a8930bf0b8a1261ed6e01b8a2391e55f7000102906020015b60405180910390a150565b6040517f6027d27e00000000000000000000000000000000000000000000000000000000815260040160405180910390fd5b61152b6000826117dc565b156115765760405173ffffffffffffffffffffffffffffffffffffffff821681527f8834a87e641e9716be4f34527af5d23e11624f1ddeefede6ad75a9acfc31b903906020016114e3565b6040517fea8e4eb500000000000000000000000000000000000000000000000000000000815260040160405180910390fd5b60006115b5826020015190565b905060006115c4836020015190565b9050837f70726f746f636f6c546f6b656e000000000000000000000000000000000000000361163257600780547fffffffffffffffffffffffff00000000000000000000000000000000000000001673ffffffffffffffffffffffffffffffffffffffff8416179055610556565b837f626964446563726561736500000000000000000000000000000000000000000003611663576009819055610556565b837f616d6f756e74536f6c64496e63726561736500000000000000000000000000000361169457600a819055610556565b837f6269644475726174696f6e000000000000000000000000000000000000000000036116c557600b819055610556565b837f746f74616c41756374696f6e4c656e67746800000000000000000000000000000361144b57600c819055610556565b6007546108159073ffffffffffffffffffffffffffffffffffffffff166117fe565b600081831115611728578161148a565b5090919050565b73ffffffffffffffffffffffffffffffffffffffff81166000908152600183016020526040812054151561148a565b6060816000018054806020026020016040519081016040528092919081815260200182805480156117ae57602002820191906000526020600020905b81548152602001906001019080831161179a575b50505050509050919050565b600061148a8373ffffffffffffffffffffffffffffffffffffffff8416611851565b600061148a8373ffffffffffffffffffffffffffffffffffffffff84166118a0565b600073ffffffffffffffffffffffffffffffffffffffff821661184d576040517fe99d5ac500000000000000000000000000000000000000000000000000000000815260040160405180910390fd5b5090565b600081815260018301602052604081205461189857508154600181810184556000848152602080822090930184905584548482528286019093526040902091909155610567565b506000610567565b600081815260018301602052604081205480156119895760006118c4600183611da0565b85549091506000906118d890600190611da0565b905081811461193d5760008660000182815481106118f8576118f8611db3565b906000526020600020015490508087600001848154811061191b5761191b611db3565b6000918252602080832090910192909255918252600188019052604090208390555b855486908061194e5761194e611de2565b600190038181906000526020600020016000905590558560010160008681526020019081526020016000206000905560019350505050610567565b6000915050610567565b7f4e487b7100000000000000000000000000000000000000000000000000000000600052604160045260246000fd5b600082601f8301126119d357600080fd5b813567ffffffffffffffff808211156119ee576119ee611993565b604051601f83017fffffffffffffffffffffffffffffffffffffffffffffffffffffffffffffffe0908116603f01168101908282118183101715611a3457611a34611993565b81604052838152866020858801011115611a4d57600080fd5b836020870160208301376000602085830101528094505050505092915050565b600080600060608486031215611a8257600080fd5b8335925060208401359150604084013567ffffffffffffffff811115611aa757600080fd5b611ab3868287016119c2565b9150509250925092565b600060208284031215611acf57600080fd5b5035919050565b803573ffffffffffffffffffffffffffffffffffffffff81168114611afa57600080fd5b919050565b600060208284031215611b1157600080fd5b61148a82611ad6565b6020808252825182820181905260009190848201906040850190845b81811015611b6857835173ffffffffffffffffffffffffffffffffffffffff1683529284019291840191600101611b36565b50909695505050505050565b600080600060608486031215611b8957600080fd5b611b9284611ad6565b95602085013595506040909401359392505050565b60008060408385031215611bba57600080fd5b82359150602083013567ffffffffffffffff811115611bd857600080fd5b611be4858286016119c2565b9150509250929050565b600080600060608486031215611c0357600080fd5b505081359360208301359350604090920135919050565b600060208083528351808285015260005b81811015611c4757858101830151858201604001528201611c2b565b5060006040828601015260407fffffffffffffffffffffffffffffffffffffffffffffffffffffffffffffffe0601f8301168501019250505092915050565b7f4e487b7100000000000000000000000000000000000000000000000000000000600052601160045260246000fd5b600081611cc457611cc4611c86565b507fffffffffffffffffffffffffffffffffffffffffffffffffffffffffffffffff0190565b60007fffffffffffffffffffffffffffffffffffffffffffffffffffffffffffffffff8203611d1b57611d1b611c86565b5060010190565b8082018082111561056757610567611c86565b808202811582820484141761056757610567611c86565b600082611d82577f4e487b7100000000000000000000000000000000000000000000000000000000600052601260045260246000fd5b500490565b600060208284031215611d9957600080fd5b5051919050565b8181038181111561056757610567611c86565b7f4e487b7100000000000000000000000000000000000000000000000000000000600052603260045260246000fd5b7f4e487b7100000000000000000000000000000000000000000000000000000000600052603160045260246000fdfea264697066735822122053620b936fd5f2a5cbe364d570ee9fd9c68a86ac10104a5c7610794acbb79d4f64736f6c63430008130033",
    "linkReferences": {}
  },
  "methodIdentifiers": {
    "AUCTION_HOUSE_TYPE()": "1266fb94",
    "_auctions(uint256)": "17dc6bf6",
    "_params()": "552b16ab",
    "accountingEngine()": "961d45c4",
    "activeDebtAuctions()": "8115ba74",
    "addAuthorization(address)": "35b28153",
    "auctions(uint256)": "571a26a0",
    "auctionsStarted()": "551cb3b1",
    "authorizedAccounts()": "2e391876",
    "authorizedAccounts(address)": "24ba5884",
    "contractEnabled()": "41b3a0d9",
    "decreaseSoldAmount(uint256,uint256,uint256)": "ff6b7b1c",
    "disableContract()": "894ba833",
    "modifyParameters(bytes32,bytes)": "da8a4bb8",
    "modifyParameters(bytes32,bytes32,bytes)": "12f33526",
    "params()": "cff0ab96",
    "protocolToken()": "1a465fe1",
    "removeAuthorization(address)": "94f3f81d",
    "restartAuction(uint256)": "d25ccf53",
    "safeEngine()": "67aea313",
    "settleAuction(uint256)": "2e993611",
    "startAuction(address,uint256,uint256)": "56dd4755",
    "terminateAuctionPrematurely(uint256)": "933f7608"
  },
  "id": 53
}