{
  "abi": [
    {
      "inputs": [
        {
          "internalType": "contract IBaseOracle",
          "name": "_priceSource",
          "type": "address"
        },
        {
          "internalType": "uint256",
          "name": "_updateDelay",
          "type": "uint256"
        }
      ],
      "stateMutability": "nonpayable",
      "type": "constructor"
    },
    {
      "inputs": [],
      "name": "DelayedOracle_DelayHasNotElapsed",
      "type": "error"
    },
    {
      "inputs": [],
      "name": "DelayedOracle_NoCurrentValue",
      "type": "error"
    },
    {
      "inputs": [],
      "name": "DelayedOracle_NullDelay",
      "type": "error"
    },
    {
      "inputs": [],
      "name": "DelayedOracle_NullPriceSource",
      "type": "error"
    },
    {
      "inputs": [],
      "name": "InvalidPriceFeed",
      "type": "error"
    },
    {
      "anonymous": false,
      "inputs": [
        {
          "indexed": false,
          "internalType": "uint256",
          "name": "_newMedian",
          "type": "uint256"
        },
        {
          "indexed": false,
          "internalType": "uint256",
          "name": "_lastUpdateTime",
          "type": "uint256"
        }
      ],
      "name": "UpdateResult",
      "type": "event"
    },
    {
      "inputs": [],
      "name": "getNextResultWithValidity",
      "outputs": [
        {
          "internalType": "uint256",
          "name": "_result",
          "type": "uint256"
        },
        {
          "internalType": "bool",
          "name": "_validity",
          "type": "bool"
        }
      ],
      "stateMutability": "view",
      "type": "function"
    },
    {
      "inputs": [],
      "name": "getResultWithValidity",
      "outputs": [
        {
          "internalType": "uint256",
          "name": "_result",
          "type": "uint256"
        },
        {
          "internalType": "bool",
          "name": "_validity",
          "type": "bool"
        }
      ],
      "stateMutability": "view",
      "type": "function"
    },
    {
      "inputs": [],
      "name": "lastUpdateTime",
      "outputs": [
        {
          "internalType": "uint256",
          "name": "",
          "type": "uint256"
        }
      ],
      "stateMutability": "view",
      "type": "function"
    },
    {
      "inputs": [],
      "name": "priceSource",
      "outputs": [
        {
          "internalType": "contract IBaseOracle",
          "name": "",
          "type": "address"
        }
      ],
      "stateMutability": "view",
      "type": "function"
    },
    {
      "inputs": [],
      "name": "read",
      "outputs": [
        {
          "internalType": "uint256",
          "name": "_result",
          "type": "uint256"
        }
      ],
      "stateMutability": "view",
      "type": "function"
    },
    {
      "inputs": [],
      "name": "shouldUpdate",
      "outputs": [
        {
          "internalType": "bool",
          "name": "_ok",
          "type": "bool"
        }
      ],
      "stateMutability": "view",
      "type": "function"
    },
    {
      "inputs": [],
      "name": "symbol",
      "outputs": [
        {
          "internalType": "string",
          "name": "",
          "type": "string"
        }
      ],
      "stateMutability": "view",
      "type": "function"
    },
    {
      "inputs": [],
      "name": "updateDelay",
      "outputs": [
        {
          "internalType": "uint256",
          "name": "",
          "type": "uint256"
        }
      ],
      "stateMutability": "view",
      "type": "function"
    },
    {
      "inputs": [],
      "name": "updateResult",
      "outputs": [
        {
          "internalType": "bool",
          "name": "_success",
          "type": "bool"
        }
      ],
      "stateMutability": "nonpayable",
      "type": "function"
    }
  ],
  "bytecode": {
    "object": "0x60806040523480156200001157600080fd5b5060405162000a6638038062000a66833981016040819052620000349162000229565b6001600160a01b0382166200005c5760405163253d697f60e21b815260040160405180910390fd5b806000036200007e5760405163bb0f771b60e01b815260040160405180910390fd5b600080546001600160a01b0319166001600160a01b038416178155600282905580620000a9620001b4565b9150915080156200012a576040805180820182528381526001602091820181905260068590556007805460ff19908116831790915560048690556005805490911690911790554260038190558251858152918201527ff85e44c6c3597d176b8d59bfbf500dfdb2badfc8cf91e6d960b16583a5807e48910160405180910390a15b60008054604080516395d89b4160e01b815290516001600160a01b03909216926395d89b41926004808401938290030181865afa15801562000170573d6000803e3d6000fd5b505050506040513d6000823e601f3d908101601f191682016040526200019a91908101906200027b565b600190620001a99082620003df565b5050505050620004e2565b60008054604080516309fa15b560e31b8152815184936001600160a01b031692634fd0ada892600480820193918290030181865afa158015620001fb573d6000803e3d6000fd5b505050506040513d601f19601f82011682018060405250810190620002219190620004ab565b915091509091565b600080604083850312156200023d57600080fd5b82516001600160a01b03811681146200025557600080fd5b6020939093015192949293505050565b634e487b7160e01b600052604160045260246000fd5b600060208083850312156200028f57600080fd5b82516001600160401b0380821115620002a757600080fd5b818501915085601f830112620002bc57600080fd5b815181811115620002d157620002d162000265565b604051601f8201601f19908116603f01168101908382118183101715620002fc57620002fc62000265565b8160405282815288868487010111156200031557600080fd5b600093505b828410156200033957848401860151818501870152928501926200031a565b600086848301015280965050505050505092915050565b600181811c908216806200036557607f821691505b6020821081036200038657634e487b7160e01b600052602260045260246000fd5b50919050565b601f821115620003da57600081815260208120601f850160051c81016020861015620003b55750805b601f850160051c820191505b81811015620003d657828155600101620003c1565b5050505b505050565b81516001600160401b03811115620003fb57620003fb62000265565b62000413816200040c845462000350565b846200038c565b602080601f8311600181146200044b5760008415620004325750858301515b600019600386901b1c1916600185901b178555620003d6565b600085815260208120601f198616915b828110156200047c578886015182559484019460019091019084016200045b565b50858210156200049b5787850151600019600388901b60f8161c191681555b5050505050600190811b01905550565b60008060408385031215620004bf57600080fd5b8251915060208301518015158114620004d757600080fd5b809150509250929050565b61057480620004f26000396000f3fe608060405234801561001057600080fd5b50600436106100a35760003560e01c806357de26a41161007657806395d89b411161005b57806395d89b4114610156578063a8c954d81461016b578063c8f33c911461017357600080fd5b806357de26a41461013657806380ebb08e1461013e57600080fd5b806320531bc9146100a85780634f0a32de146100f25780634fd0ada814610111578063554f94db1461011f575b600080fd5b6000546100c89073ffffffffffffffffffffffffffffffffffffffff1681565b60405173ffffffffffffffffffffffffffffffffffffffff90911681526020015b60405180910390f35b60065460075460ff165b604080519283529015156020830152016100e9565b60045460055460ff166100fc565b61012860025481565b6040519081526020016100e9565b61012861017c565b6101466101c2565b60405190151581526020016100e9565b61015e6102c1565b6040516100e99190610410565b61014661034f565b61012860035481565b60055460009060ff166101bb576040517fbbe3b00700000000000000000000000000000000000000000000000000000000815260040160405180910390fd5b5060045490565b60006101cc61035e565b610202576040517f12f5ddd600000000000000000000000000000000000000000000000000000000815260040160405180910390fd5b60008061020d610378565b9150915080156102bb57600680546004819055600780546005805460ff831615157fffffffffffffffffffffffffffffffffffffffffffffffffffffffffffffff009182161790915560408051808201825288815260016020909101819052958890559116909317905542600381905591517ff85e44c6c3597d176b8d59bfbf500dfdb2badfc8cf91e6d960b16583a5807e48926102b2928252602082015260400190565b60405180910390a15b92915050565b600180546102ce9061047c565b80601f01602080910402602001604051908101604052809291908181526020018280546102fa9061047c565b80156103475780601f1061031c57610100808354040283529160200191610347565b820191906000526020600020905b81548152906001019060200180831161032a57829003601f168201915b505050505081565b600061035961035e565b905090565b600060025460035461037091906104cf565b421015905090565b60008054604080517f4fd0ada80000000000000000000000000000000000000000000000000000000081528151849373ffffffffffffffffffffffffffffffffffffffff1692634fd0ada892600480820193918290030181865afa1580156103e4573d6000803e3d6000fd5b505050506040513d601f19601f820116820180604052508101906104089190610509565b915091509091565b600060208083528351808285015260005b8181101561043d57858101830151858201604001528201610421565b5060006040828601015260407fffffffffffffffffffffffffffffffffffffffffffffffffffffffffffffffe0601f8301168501019250505092915050565b600181811c9082168061049057607f821691505b6020821081036104c9577f4e487b7100000000000000000000000000000000000000000000000000000000600052602260045260246000fd5b50919050565b808201808211156102bb577f4e487b7100000000000000000000000000000000000000000000000000000000600052601160045260246000fd5b6000806040838503121561051c57600080fd5b825191506020830151801515811461053357600080fd5b80915050925092905056fea2646970667358221220aaff39ffbd81d92e0d37c935780a27eb9190c77cf15718a88a2adef60a9a579364736f6c63430008130033",
    "linkReferences": {}
  },
  "methodIdentifiers": {
    "getNextResultWithValidity()": "4f0a32de",
    "getResultWithValidity()": "4fd0ada8",
    "lastUpdateTime()": "c8f33c91",
    "priceSource()": "20531bc9",
    "read()": "57de26a4",
    "shouldUpdate()": "a8c954d8",
    "symbol()": "95d89b41",
    "updateDelay()": "554f94db",
    "updateResult()": "80ebb08e"
  },
  "id": 115
}