{
  "abi": [
    {
      "inputs": [
        {
          "internalType": "address",
          "name": "_safeEngine",
          "type": "address"
        },
        {
          "internalType": "address",
          "name": "_liquidationEngine",
          "type": "address"
        },
        {
          "internalType": "address",
          "name": "_oracleRelayer",
          "type": "address"
        },
        {
          "internalType": "address",
          "name": "_coinJoin",
          "type": "address"
        },
        {
          "internalType": "address",
          "name": "_collateralJoinFactory",
          "type": "address"
        },
        {
          "internalType": "address",
          "name": "_collateralAuctionHouseFactory",
          "type": "address"
        },
        {
          "internalType": "address",
          "name": "_stabilityFeeTreasury",
          "type": "address"
        },
        {
          "internalType": "address",
          "name": "_accountingEngine",
          "type": "address"
        },
        {
          "components": [
            {
              "internalType": "uint256",
              "name": "shutdownCooldown",
              "type": "uint256"
            }
          ],
          "internalType": "struct IGlobalSettlement.GlobalSettlementParams",
          "name": "_gsParams",
          "type": "tuple"
        }
      ],
      "stateMutability": "nonpayable",
      "type": "constructor"
    },
    {
      "inputs": [],
      "name": "AlreadyAuthorized",
      "type": "error"
    },
    {
      "inputs": [],
      "name": "ContractIsDisabled",
      "type": "error"
    },
    {
      "inputs": [],
      "name": "ContractIsEnabled",
      "type": "error"
    },
    {
      "inputs": [],
      "name": "GS_CollateralCashPriceAlreadyDefined",
      "type": "error"
    },
    {
      "inputs": [],
      "name": "GS_CollateralCashPriceNotDefined",
      "type": "error"
    },
    {
      "inputs": [],
      "name": "GS_FinalCollateralPriceAlreadyDefined",
      "type": "error"
    },
    {
      "inputs": [],
      "name": "GS_FinalCollateralPriceNotDefined",
      "type": "error"
    },
    {
      "inputs": [],
      "name": "GS_InsufficientBagBalance",
      "type": "error"
    },
    {
      "inputs": [],
      "name": "GS_OutstandingCoinSupplyNotZero",
      "type": "error"
    },
    {
      "inputs": [],
      "name": "GS_OutstandingCoinSupplyZero",
      "type": "error"
    },
    {
      "inputs": [],
      "name": "GS_SafeDebtNotZero",
      "type": "error"
    },
    {
      "inputs": [],
      "name": "GS_ShutdownCooldownNotFinished",
      "type": "error"
    },
    {
      "inputs": [],
      "name": "GS_SurplusNotZero",
      "type": "error"
    },
    {
      "inputs": [],
      "name": "IntOverflow",
      "type": "error"
    },
    {
      "inputs": [],
      "name": "NonDisableable",
      "type": "error"
    },
    {
      "inputs": [],
      "name": "NotAuthorized",
      "type": "error"
    },
    {
      "inputs": [],
      "name": "NullAddress",
      "type": "error"
    },
    {
      "inputs": [],
      "name": "Unauthorized",
      "type": "error"
    },
    {
      "inputs": [],
      "name": "UnrecognizedCType",
      "type": "error"
    },
    {
      "inputs": [],
      "name": "UnrecognizedParam",
      "type": "error"
    },
    {
      "anonymous": false,
      "inputs": [
        {
          "indexed": false,
          "internalType": "address",
          "name": "_account",
          "type": "address"
        }
      ],
      "name": "AddAuthorization",
      "type": "event"
    },
    {
      "anonymous": false,
      "inputs": [
        {
          "indexed": true,
          "internalType": "bytes32",
          "name": "_cType",
          "type": "bytes32"
        },
        {
          "indexed": false,
          "internalType": "uint256",
          "name": "_collateralCashPrice",
          "type": "uint256"
        }
      ],
      "name": "CalculateCashPrice",
      "type": "event"
    },
    {
      "anonymous": false,
      "inputs": [],
      "name": "DisableContract",
      "type": "event"
    },
    {
      "anonymous": false,
      "inputs": [
        {
          "indexed": true,
          "internalType": "bytes32",
          "name": "_cType",
          "type": "bytes32"
        },
        {
          "indexed": true,
          "internalType": "uint256",
          "name": "_auctionId",
          "type": "uint256"
        },
        {
          "indexed": false,
          "internalType": "uint256",
          "name": "_collateralTotalDebt",
          "type": "uint256"
        }
      ],
      "name": "FastTrackAuction",
      "type": "event"
    },
    {
      "anonymous": false,
      "inputs": [
        {
          "indexed": true,
          "internalType": "bytes32",
          "name": "_cType",
          "type": "bytes32"
        },
        {
          "indexed": true,
          "internalType": "address",
          "name": "_sender",
          "type": "address"
        },
        {
          "indexed": false,
          "internalType": "uint256",
          "name": "_collateralAmount",
          "type": "uint256"
        }
      ],
      "name": "FreeCollateral",
      "type": "event"
    },
    {
      "anonymous": false,
      "inputs": [
        {
          "indexed": true,
          "internalType": "bytes32",
          "name": "_cType",
          "type": "bytes32"
        },
        {
          "indexed": false,
          "internalType": "uint256",
          "name": "_finalCoinPerCollateralPrice",
          "type": "uint256"
        }
      ],
      "name": "FreezeCollateralType",
      "type": "event"
    },
    {
      "anonymous": false,
      "inputs": [
        {
          "indexed": true,
          "internalType": "bytes32",
          "name": "_param",
          "type": "bytes32"
        },
        {
          "indexed": true,
          "internalType": "bytes32",
          "name": "_cType",
          "type": "bytes32"
        },
        {
          "indexed": false,
          "internalType": "bytes",
          "name": "_data",
          "type": "bytes"
        }
      ],
      "name": "ModifyParameters",
      "type": "event"
    },
    {
      "anonymous": false,
      "inputs": [
        {
          "indexed": true,
          "internalType": "address",
          "name": "_sender",
          "type": "address"
        },
        {
          "indexed": false,
          "internalType": "uint256",
          "name": "_coinBag",
          "type": "uint256"
        }
      ],
      "name": "PrepareCoinsForRedeeming",
      "type": "event"
    },
    {
      "anonymous": false,
      "inputs": [
        {
          "indexed": true,
          "internalType": "bytes32",
          "name": "_cType",
          "type": "bytes32"
        },
        {
          "indexed": true,
          "internalType": "address",
          "name": "_safe",
          "type": "address"
        },
        {
          "indexed": false,
          "internalType": "uint256",
          "name": "_collateralShortfall",
          "type": "uint256"
        }
      ],
      "name": "ProcessSAFE",
      "type": "event"
    },
    {
      "anonymous": false,
      "inputs": [
        {
          "indexed": true,
          "internalType": "bytes32",
          "name": "_cType",
          "type": "bytes32"
        },
        {
          "indexed": true,
          "internalType": "address",
          "name": "_sender",
          "type": "address"
        },
        {
          "indexed": false,
          "internalType": "uint256",
          "name": "_coinsAmount",
          "type": "uint256"
        },
        {
          "indexed": false,
          "internalType": "uint256",
          "name": "_collateralAmount",
          "type": "uint256"
        }
      ],
      "name": "RedeemCollateral",
      "type": "event"
    },
    {
      "anonymous": false,
      "inputs": [
        {
          "indexed": false,
          "internalType": "address",
          "name": "_account",
          "type": "address"
        }
      ],
      "name": "RemoveAuthorization",
      "type": "event"
    },
    {
      "anonymous": false,
      "inputs": [
        {
          "indexed": false,
          "internalType": "uint256",
          "name": "_outstandingCoinSupply",
          "type": "uint256"
        }
      ],
      "name": "SetOutstandingCoinSupply",
      "type": "event"
    },
    {
      "anonymous": false,
      "inputs": [],
      "name": "ShutdownSystem",
      "type": "event"
    },
    {
      "inputs": [],
      "name": "_params",
      "outputs": [
        {
          "internalType": "uint256",
          "name": "shutdownCooldown",
          "type": "uint256"
        }
      ],
      "stateMutability": "view",
      "type": "function"
    },
    {
      "inputs": [],
      "name": "accountingEngine",
      "outputs": [
        {
          "internalType": "contract IDisableable",
          "name": "",
          "type": "address"
        }
      ],
      "stateMutability": "view",
      "type": "function"
    },
    {
      "inputs": [
        {
          "internalType": "address",
          "name": "_account",
          "type": "address"
        }
      ],
      "name": "addAuthorization",
      "outputs": [],
      "stateMutability": "nonpayable",
      "type": "function"
    },
    {
      "inputs": [
        {
          "internalType": "address",
          "name": "_account",
          "type": "address"
        }
      ],
      "name": "authorizedAccounts",
      "outputs": [
        {
          "internalType": "bool",
          "name": "_authorized",
          "type": "bool"
        }
      ],
      "stateMutability": "view",
      "type": "function"
    },
    {
      "inputs": [],
      "name": "authorizedAccounts",
      "outputs": [
        {
          "internalType": "address[]",
          "name": "_accounts",
          "type": "address[]"
        }
      ],
      "stateMutability": "view",
      "type": "function"
    },
    {
      "inputs": [
        {
          "internalType": "bytes32",
          "name": "_cType",
          "type": "bytes32"
        }
      ],
      "name": "calculateCashPrice",
      "outputs": [],
      "stateMutability": "nonpayable",
      "type": "function"
    },
    {
      "inputs": [
        {
          "internalType": "address",
          "name": "_usr",
          "type": "address"
        }
      ],
      "name": "coinBag",
      "outputs": [
        {
          "internalType": "uint256",
          "name": "_wad",
          "type": "uint256"
        }
      ],
      "stateMutability": "view",
      "type": "function"
    },
    {
      "inputs": [],
      "name": "coinJoin",
      "outputs": [
        {
          "internalType": "contract IDisableable",
          "name": "",
          "type": "address"
        }
      ],
      "stateMutability": "view",
      "type": "function"
    },
    {
      "inputs": [
        {
          "internalType": "bytes32",
          "name": "_cType",
          "type": "bytes32"
        },
        {
          "internalType": "address",
          "name": "_usr",
          "type": "address"
        }
      ],
      "name": "coinsUsedToRedeem",
      "outputs": [
        {
          "internalType": "uint256",
          "name": "_wad",
          "type": "uint256"
        }
      ],
      "stateMutability": "view",
      "type": "function"
    },
    {
      "inputs": [],
      "name": "collateralAuctionHouseFactory",
      "outputs": [
        {
          "internalType": "contract IDisableable",
          "name": "",
          "type": "address"
        }
      ],
      "stateMutability": "view",
      "type": "function"
    },
    {
      "inputs": [
        {
          "internalType": "bytes32",
          "name": "_cType",
          "type": "bytes32"
        }
      ],
      "name": "collateralCashPrice",
      "outputs": [
        {
          "internalType": "uint256",
          "name": "_ray",
          "type": "uint256"
        }
      ],
      "stateMutability": "view",
      "type": "function"
    },
    {
      "inputs": [],
      "name": "collateralJoinFactory",
      "outputs": [
        {
          "internalType": "contract IDisableable",
          "name": "",
          "type": "address"
        }
      ],
      "stateMutability": "view",
      "type": "function"
    },
    {
      "inputs": [
        {
          "internalType": "bytes32",
          "name": "_cType",
          "type": "bytes32"
        }
      ],
      "name": "collateralShortfall",
      "outputs": [
        {
          "internalType": "uint256",
          "name": "_wad",
          "type": "uint256"
        }
      ],
      "stateMutability": "view",
      "type": "function"
    },
    {
      "inputs": [
        {
          "internalType": "bytes32",
          "name": "_cType",
          "type": "bytes32"
        }
      ],
      "name": "collateralTotalDebt",
      "outputs": [
        {
          "internalType": "uint256",
          "name": "_wad",
          "type": "uint256"
        }
      ],
      "stateMutability": "view",
      "type": "function"
    },
    {
      "inputs": [],
      "name": "contractEnabled",
      "outputs": [
        {
          "internalType": "bool",
          "name": "",
          "type": "bool"
        }
      ],
      "stateMutability": "view",
      "type": "function"
    },
    {
      "inputs": [],
      "name": "disableContract",
      "outputs": [],
      "stateMutability": "nonpayable",
      "type": "function"
    },
    {
      "inputs": [
        {
          "internalType": "bytes32",
          "name": "_cType",
          "type": "bytes32"
        },
        {
          "internalType": "uint256",
          "name": "_auctionId",
          "type": "uint256"
        }
      ],
      "name": "fastTrackAuction",
      "outputs": [],
      "stateMutability": "nonpayable",
      "type": "function"
    },
    {
      "inputs": [
        {
          "internalType": "bytes32",
          "name": "_cType",
          "type": "bytes32"
        }
      ],
      "name": "finalCoinPerCollateralPrice",
      "outputs": [
        {
          "internalType": "uint256",
          "name": "_ray",
          "type": "uint256"
        }
      ],
      "stateMutability": "view",
      "type": "function"
    },
    {
      "inputs": [
        {
          "internalType": "bytes32",
          "name": "_cType",
          "type": "bytes32"
        }
      ],
      "name": "freeCollateral",
      "outputs": [],
      "stateMutability": "nonpayable",
      "type": "function"
    },
    {
      "inputs": [
        {
          "internalType": "bytes32",
          "name": "_cType",
          "type": "bytes32"
        }
      ],
      "name": "freezeCollateralType",
      "outputs": [],
      "stateMutability": "nonpayable",
      "type": "function"
    },
    {
      "inputs": [],
      "name": "liquidationEngine",
      "outputs": [
        {
          "internalType": "contract ILiquidationEngine",
          "name": "",
          "type": "address"
        }
      ],
      "stateMutability": "view",
      "type": "function"
    },
    {
      "inputs": [
        {
          "internalType": "bytes32",
          "name": "_cType",
          "type": "bytes32"
        },
        {
          "internalType": "bytes32",
          "name": "_param",
          "type": "bytes32"
        },
        {
          "internalType": "bytes",
          "name": "_data",
          "type": "bytes"
        }
      ],
      "name": "modifyParameters",
      "outputs": [],
      "stateMutability": "nonpayable",
      "type": "function"
    },
    {
      "inputs": [
        {
          "internalType": "bytes32",
          "name": "_param",
          "type": "bytes32"
        },
        {
          "internalType": "bytes",
          "name": "_data",
          "type": "bytes"
        }
      ],
      "name": "modifyParameters",
      "outputs": [],
      "stateMutability": "nonpayable",
      "type": "function"
    },
    {
      "inputs": [],
      "name": "oracleRelayer",
      "outputs": [
        {
          "internalType": "contract IOracleRelayer",
          "name": "",
          "type": "address"
        }
      ],
      "stateMutability": "view",
      "type": "function"
    },
    {
      "inputs": [],
      "name": "outstandingCoinSupply",
      "outputs": [
        {
          "internalType": "uint256",
          "name": "",
          "type": "uint256"
        }
      ],
      "stateMutability": "view",
      "type": "function"
    },
    {
      "inputs": [],
      "name": "params",
      "outputs": [
        {
          "components": [
            {
              "internalType": "uint256",
              "name": "shutdownCooldown",
              "type": "uint256"
            }
          ],
          "internalType": "struct IGlobalSettlement.GlobalSettlementParams",
          "name": "_globalSettlementParams",
          "type": "tuple"
        }
      ],
      "stateMutability": "view",
      "type": "function"
    },
    {
      "inputs": [
        {
          "internalType": "uint256",
          "name": "_coinAmount",
          "type": "uint256"
        }
      ],
      "name": "prepareCoinsForRedeeming",
      "outputs": [],
      "stateMutability": "nonpayable",
      "type": "function"
    },
    {
      "inputs": [
        {
          "internalType": "bytes32",
          "name": "_cType",
          "type": "bytes32"
        },
        {
          "internalType": "address",
          "name": "_safe",
          "type": "address"
        }
      ],
      "name": "processSAFE",
      "outputs": [],
      "stateMutability": "nonpayable",
      "type": "function"
    },
    {
      "inputs": [
        {
          "internalType": "bytes32",
          "name": "_cType",
          "type": "bytes32"
        },
        {
          "internalType": "uint256",
          "name": "_coinsAmount",
          "type": "uint256"
        }
      ],
      "name": "redeemCollateral",
      "outputs": [],
      "stateMutability": "nonpayable",
      "type": "function"
    },
    {
      "inputs": [
        {
          "internalType": "address",
          "name": "_account",
          "type": "address"
        }
      ],
      "name": "removeAuthorization",
      "outputs": [],
      "stateMutability": "nonpayable",
      "type": "function"
    },
    {
      "inputs": [],
      "name": "safeEngine",
      "outputs": [
        {
          "internalType": "contract ISAFEEngine",
          "name": "",
          "type": "address"
        }
      ],
      "stateMutability": "view",
      "type": "function"
    },
    {
      "inputs": [],
      "name": "setOutstandingCoinSupply",
      "outputs": [],
      "stateMutability": "nonpayable",
      "type": "function"
    },
    {
      "inputs": [],
      "name": "shutdownSystem",
      "outputs": [],
      "stateMutability": "nonpayable",
      "type": "function"
    },
    {
      "inputs": [],
      "name": "shutdownTime",
      "outputs": [
        {
          "internalType": "uint256",
          "name": "",
          "type": "uint256"
        }
      ],
      "stateMutability": "view",
      "type": "function"
    },
    {
      "inputs": [],
      "name": "stabilityFeeTreasury",
      "outputs": [
        {
          "internalType": "contract IDisableable",
          "name": "",
          "type": "address"
        }
      ],
      "stateMutability": "view",
      "type": "function"
    }
  ],
  "bytecode": {
    "object": "0x60806040526002805460ff191660011790553480156200001e57600080fd5b5060405162003106380380620031068339810160408190526200004191620002c9565b336200004d81620000f7565b50620000626001600160a01b038a1662000165565b600b80546001600160a01b03199081166001600160a01b0393841617909155600c805482168b8416179055600d805482168a8416179055600e80548216898416179055600f80548216888416179055601080548216878416179055601180548216868416179055601280549091169184169190911790558051601355620000e862000193565b505050505050505050620003ca565b620001046000826200023a565b1562000149576040516001600160a01b03821681527f599a298163e1678bb1c676052a8930bf0b8a1261ed6e01b8a2391e55f70001029060200160405180910390a150565b604051633013e93f60e11b815260040160405180910390fd5b50565b60006001600160a01b0382166200018f5760405163e99d5ac560e01b815260040160405180910390fd5b5090565b600c54620001aa906001600160a01b031662000165565b50600d54620001c2906001600160a01b031662000165565b50600e54620001da906001600160a01b031662000165565b50600f54620001f2906001600160a01b031662000165565b506010546200020a906001600160a01b031662000165565b5060115462000222906001600160a01b031662000165565b5060125462000162906001600160a01b031662000165565b600062000251836001600160a01b0384166200025a565b90505b92915050565b6000818152600183016020526040812054620002a35750815460018181018455600084815260208082209093018490558454848252828601909352604090209190915562000254565b50600062000254565b80516001600160a01b0381168114620002c457600080fd5b919050565b6000806000806000806000806000898b03610120811215620002ea57600080fd5b620002f58b620002ac565b99506200030560208c01620002ac565b98506200031560408c01620002ac565b97506200032560608c01620002ac565b96506200033560808c01620002ac565b95506200034560a08c01620002ac565b94506200035560c08c01620002ac565b93506200036560e08c01620002ac565b9250602060ff19820112156200037a57600080fd5b50604051602081016001600160401b0381118282101715620003ac57634e487b7160e01b600052604160045260246000fd5b80604052506101008b01518152809150509295985092959850929598565b612d2c80620003da6000396000f3fe608060405234801561001057600080fd5b50600436106102415760003560e01c806367aea31311610145578063a3d291ba116100bd578063cff0ab961161008c578063da0f90d711610071578063da0f90d714610503578063da8a4bb814610516578063f42029c81461052957600080fd5b8063cff0ab96146104c7578063d8f28cf1146104f057600080fd5b8063a3d291ba1461046e578063bff717731461048e578063c0fb6e51146104a1578063c7eb5bd9146104b457600080fd5b806392cb6eef11610114578063961d45c4116100f9578063961d45c41461041b57806399ab8ae21461042e5780639d7db94e1461044e57600080fd5b806392cb6eef146103f557806394f3f81d1461040857600080fd5b806367aea3131461039c5780636d82962a146103af57806372b6f12a146103da578063894ba833146103ed57600080fd5b806335b28153116101d85780634faf61ab116101a7578063552b16ab1161018c578063552b16ab1461037657806358569081146103805780635da6a9ff1461038957600080fd5b80634faf61ab1461035057806353467d221461036357600080fd5b806335b28153146102fd5780633e81afc51461031057806341b3a0d91461033057806344bf3c721461033d57600080fd5b806329309d5e1161021457806329309d5e1461029e5780632e391876146102b557806330413a2a146102ca578063354af919146102f557600080fd5b806306a4bb0c1461024657806310231d121461025b57806312f335261461026357806324ba588414610276575b600080fd5b61025961025436600461274b565b610549565b005b610259610718565b61025961027136600461288a565b61094a565b6102896102843660046128ef565b6109d4565b60405190151581526020015b60405180910390f35b6102a760045481565b604051908152602001610295565b6102bd6109e5565b604051610295919061290c565b600e546102dd906001600160a01b031681565b6040516001600160a01b039091168152602001610295565b6102596109f6565b61025961030b3660046128ef565b610e17565b6102a761031e36600461274b565b60076020526000908152604090205481565b6002546102899060ff1681565b600c546102dd906001600160a01b031681565b600d546102dd906001600160a01b031681565b61025961037136600461274b565b610e62565b6013546102a79081565b6102a760035481565b61025961039736600461274b565b610fba565b600b546102dd906001600160a01b031681565b6102a76103bd366004612959565b600a60209081526000928352604080842090915290825290205481565b6011546102dd906001600160a01b031681565b6102596111c9565b6010546102dd906001600160a01b031681565b6102596104163660046128ef565b61129f565b6012546102dd906001600160a01b031681565b6102a761043c36600461274b565b60066020526000908152604090205481565b6102a761045c36600461274b565b60086020526000908152604090205481565b6102a761047c3660046128ef565b60096020526000908152604090205481565b600f546102dd906001600160a01b031681565b6102596104af36600461274b565b6112e7565b6102596104c2366004612989565b6115c3565b604080516020808201835260009091528151808201835260135490819052915191825201610295565b6102596104fe366004612959565b611780565b610259610511366004612989565b611a8a565b6102596105243660046129ab565b611eb1565b6102a761053736600461274b565b60056020526000908152604090205481565b600454600003610585576040517f769cf70700000000000000000000000000000000000000000000000000000000815260040160405180910390fd5b600081815260086020526040902054156105cb576040517fe9eb398900000000000000000000000000000000000000000000000000000000815260040160405180910390fd5b600b546040517fb6e05a2e000000000000000000000000000000000000000000000000000000008152600481018390526000916001600160a01b03169063b6e05a2e9060240160a060405180830381865afa15801561062e573d6000803e3d6000fd5b505050506040513d601f19601f8201168201806040525081019061065291906129f2565b6040908101516000848152600560209081528382205460079091529281205491935091610689916106839085611f42565b90611f42565b90506106c76b033b2e3c9fd0803ce80000006004546106a89190612a71565b6000858152600660205260409020546106c19084612aac565b90611f6c565b600084815260086020526040908190208290555184917fd848235429b00d20885d01b7a28d4a5c534460ce965226128a6411ed9a2616b19161070b91815260200190565b60405180910390a2505050565b60025460ff1615610755576040517ff59a25d600000000000000000000000000000000000000000000000000000000815260040160405180910390fd5b6004541561078f576040517f156bd48900000000000000000000000000000000000000000000000000000000815260040160405180910390fd5b600b546012546040517ffabde80c0000000000000000000000000000000000000000000000000000000081526001600160a01b03918216600482015291169063fabde80c90602401602060405180830381865afa1580156107f4573d6000803e3d6000fd5b505050506040513d601f19601f820116820180604052508101906108189190612abf565b1561084f576040517f6b28570100000000000000000000000000000000000000000000000000000000815260040160405180910390fd5b60135460035461085f9190612ad8565b421015610898576040517fa771699500000000000000000000000000000000000000000000000000000000815260040160405180910390fd5b600b60009054906101000a90046001600160a01b03166001600160a01b0316638543d5e06040518163ffffffff1660e01b81526004016020604051808303816000875af11580156108ed573d6000803e3d6000fd5b505050506040513d601f19601f820116820180604052508101906109119190612abf565b60048190556040519081527e1fcf1f022b5e84afd6a87cb33e553137cac8c8d8e0a940c417e63a61674ab89060200160405180910390a1565b61095333611f85565b610989576040517f82b4290000000000000000000000000000000000000000000000000000000000815260040160405180910390fd5b82610995848484611f91565b83837fe436a8be7dc6aab90b400800ecc86e46fb600f2e18989b5d0389840fdabbf2ed846040516109c69190612aeb565b60405180910390a350505050565b60006109df82611f85565b92915050565b60606109f16000611fc3565b905090565b6109ff33611f85565b610a35576040517f82b4290000000000000000000000000000000000000000000000000000000000815260040160405180910390fd5b60025460ff16610a71576040517f7abbf1c900000000000000000000000000000000000000000000000000000000815260040160405180910390fd5b42600355600280547fffffffffffffffffffffffffffffffffffffffffffffffffffffffffffffff00169055600b54604080517f894ba83300000000000000000000000000000000000000000000000000000000815290516001600160a01b039092169163894ba8339160048082019260009290919082900301818387803b158015610afc57600080fd5b505af1158015610b10573d6000803e3d6000fd5b50505050600d60009054906101000a90046001600160a01b03166001600160a01b031663894ba8336040518163ffffffff1660e01b8152600401600060405180830381600087803b158015610b6457600080fd5b505af1158015610b78573d6000803e3d6000fd5b50505050600c60009054906101000a90046001600160a01b03166001600160a01b031663894ba8336040518163ffffffff1660e01b8152600401600060405180830381600087803b158015610bcc57600080fd5b505af1158015610be0573d6000803e3d6000fd5b50505050601060009054906101000a90046001600160a01b03166001600160a01b031663894ba8336040518163ffffffff1660e01b8152600401600060405180830381600087803b158015610c3457600080fd5b505af1158015610c48573d6000803e3d6000fd5b50505050600e60009054906101000a90046001600160a01b03166001600160a01b031663894ba8336040518163ffffffff1660e01b8152600401600060405180830381600087803b158015610c9c57600080fd5b505af1158015610cb0573d6000803e3d6000fd5b50505050600f60009054906101000a90046001600160a01b03166001600160a01b031663894ba8336040518163ffffffff1660e01b8152600401600060405180830381600087803b158015610d0457600080fd5b505af1158015610d18573d6000803e3d6000fd5b50505050601160009054906101000a90046001600160a01b03166001600160a01b031663894ba8336040518163ffffffff1660e01b8152600401600060405180830381600087803b158015610d6c57600080fd5b505af1158015610d80573d6000803e3d6000fd5b50505050601260009054906101000a90046001600160a01b03166001600160a01b031663894ba8336040518163ffffffff1660e01b8152600401600060405180830381600087803b158015610dd457600080fd5b505af1158015610de8573d6000803e3d6000fd5b50506040517ff3cf538e02532541ddf87ca981c158e18dbac102c31a0c481d3033e9de7f0fea925060009150a1565b610e2033611f85565b610e56576040517f82b4290000000000000000000000000000000000000000000000000000000000815260040160405180910390fd5b610e5f81611fd0565b50565b600454600003610e9e576040517f769cf70700000000000000000000000000000000000000000000000000000000815260040160405180910390fd5b600b546012546001600160a01b039182169163efabcadc91339116610ecf6b033b2e3c9fd0803ce800000086612b57565b6040517fffffffff0000000000000000000000000000000000000000000000000000000060e086901b1681526001600160a01b0393841660048201529290911660248301526044820152606401600060405180830381600087803b158015610f3657600080fd5b505af1158015610f4a573d6000803e3d6000fd5b50503360009081526009602052604081208054859450909250610f6e908490612ad8565b9091555050336000818152600960209081526040918290205491519182527fc30fd1506396e0b631b304a1c052ef0d31bd680846d9a48de24e25364377418f910160405180910390a250565b60025460ff1615610ff7576040517ff59a25d600000000000000000000000000000000000000000000000000000000815260040160405180910390fd5b600b546040517f3d422504000000000000000000000000000000000000000000000000000000008152600481018390523360248201526000916001600160a01b031690633d422504906044016040805180830381865afa15801561105f573d6000803e3d6000fd5b505050506040513d601f19601f820116820180604052508101906110839190612b6e565b905080602001516000146110c3576040517f21d8b8da00000000000000000000000000000000000000000000000000000000815260040160405180910390fd5b600b5460125482516001600160a01b0392831692634e14a9679286923392839216906110ee90612052565b6110f790612bbd565b60405160e087901b7fffffffff0000000000000000000000000000000000000000000000000000000016815260048101959095526001600160a01b039384166024860152918316604485015290911660648301526084820152600060a482015260c401600060405180830381600087803b15801561117457600080fd5b505af1158015611188573d6000803e3d6000fd5b505082516040519081523392508491507f3557be968c9b5e1138181ad1af4592cdde59d72b42a1fe32250c3e67748208da9060200160405180910390a35050565b6111d233611f85565b611208576040517f82b4290000000000000000000000000000000000000000000000000000000000815260040160405180910390fd5b60025460ff16611244576040517f7abbf1c900000000000000000000000000000000000000000000000000000000815260040160405180910390fd5b600280547fffffffffffffffffffffffffffffffffffffffffffffffffffffffffffffff00169055611274612093565b6040517f2d4b4ecff7bd7503135271925520a2f6c0d98c9473ffc1a1e72c92502f51b25e90600090a1565b6112a833611f85565b6112de576040517f82b4290000000000000000000000000000000000000000000000000000000000815260040160405180910390fd5b610e5f816120c5565b60025460ff1615611324576040517ff59a25d600000000000000000000000000000000000000000000000000000000815260040160405180910390fd5b6000818152600560205260409020541561136a576040517f50db165a00000000000000000000000000000000000000000000000000000000815260040160405180910390fd5b600b546040517fb6e05a2e000000000000000000000000000000000000000000000000000000008152600481018390526001600160a01b039091169063b6e05a2e9060240160a060405180830381865afa1580156113cc573d6000803e3d6000fd5b505050506040513d601f19601f820116820180604052508101906113f091906129f2565b5160008281526007602052604080822092909255600d5491517fe54201f60000000000000000000000000000000000000000000000000000000081526004810184905290916001600160a01b03169063e54201f690602401606060405180830381865afa158015611465573d6000803e3d6000fd5b505050506040513d601f19601f820116820180604052508101906114899190612bf5565b600001519050611573816001600160a01b03166357de26a46040518163ffffffff1660e01b8152600401602060405180830381865afa1580156114d0573d6000803e3d6000fd5b505050506040513d601f19601f820116820180604052508101906114f49190612abf565b600d60009054906101000a90046001600160a01b03166001600160a01b031663c5b748c06040518163ffffffff1660e01b81526004016020604051808303816000875af1158015611549573d6000803e3d6000fd5b505050506040513d601f19601f8201168201806040525081019061156d9190612abf565b90612140565b600083815260056020526040908190208290555183917f3d95ab876931faa65df8d1540fbf92d188012936ec873c86e1b53de242de540b916115b791815260200190565b60405180910390a25050565b600082815260086020526040812054900361160a576040517f08f6ec7000000000000000000000000000000000000000000000000000000000815260040160405180910390fd5b600082815260086020526040812054611624908390611f42565b600b546040517f4e5111a600000000000000000000000000000000000000000000000000000000815260048101869052306024820152336044820152606481018390529192506001600160a01b031690634e5111a690608401600060405180830381600087803b15801561169757600080fd5b505af11580156116ab573d6000803e3d6000fd5b5050506000848152600a60209081526040808320338452909152812080548593509091906116da908490612ad8565b909155505033600081815260096020908152604080832054878452600a835281842094845293909152902054111561173e576040517f8678da8700000000000000000000000000000000000000000000000000000000815260040160405180910390fd5b6040805183815260208101839052339185917f89c89edec8e0ee71b9e33d9839f47624e63469c2e905beacf808a1328831a5e2910160405180910390a3505050565b60008281526005602052604081205490036117c7576040517faefdc9ab00000000000000000000000000000000000000000000000000000000815260040160405180910390fd5b600b546040517f3d422504000000000000000000000000000000000000000000000000000000008152600481018490526001600160a01b0383811660248301526000921690633d422504906044016040805180830381865afa158015611831573d6000803e3d6000fd5b505050506040513d601f19601f820116820180604052508101906118559190612b6e565b600b546040517fb6e05a2e000000000000000000000000000000000000000000000000000000008152600481018690529192506000916001600160a01b039091169063b6e05a2e9060240160a060405180830381865afa1580156118bd573d6000803e3d6000fd5b505050506040513d601f19601f820116820180604052508101906118e191906129f2565b60400151905060006119176005600087815260200190815260200160002054610683848660200151611f4290919063ffffffff16565b90506000611929846000015183612155565b90506119358183612aac565b60008781526006602052604081208054909190611953908490612ad8565b9091555050600b546012546001600160a01b0391821691634e14a967918991899130911661198087612bbd565b61198d8b60200151612052565b61199690612bbd565b6040517fffffffff0000000000000000000000000000000000000000000000000000000060e089901b16815260048101969096526001600160a01b039485166024870152928416604486015292166064840152608483019190915260a482015260c401600060405180830381600087803b158015611a1357600080fd5b505af1158015611a27573d6000803e3d6000fd5b50505050846001600160a01b0316867fd77929653e21635d2a3c6d6d56ab6ae74a9ea5906417bc24868492c54dc7e23c600660008a815260200190815260200160002054604051611a7a91815260200190565b60405180910390a3505050505050565b6000828152600560205260408120549003611ad1576040517faefdc9ab00000000000000000000000000000000000000000000000000000000815260040160405180910390fd5b600c546040517fe54201f6000000000000000000000000000000000000000000000000000000008152600481018490526000916001600160a01b03169063e54201f690602401606060405180830381865afa158015611b34573d6000803e3d6000fd5b505050506040513d601f19601f82011682018060405250810190611b589190612bf5565b51600b546040517fb6e05a2e000000000000000000000000000000000000000000000000000000008152600481018690529192506000916001600160a01b039091169063b6e05a2e9060240160a060405180830381865afa158015611bc1573d6000803e3d6000fd5b505050506040513d601f19601f82011682018060405250810190611be591906129f2565b6040015190506000826001600160a01b031663571a26a0856040518263ffffffff1660e01b8152600401611c1b91815260200190565b60a060405180830381865afa158015611c38573d6000803e3d6000fd5b505050506040513d601f19601f82011682018060405250810190611c5c9190612c39565b600b5460125460208301516040517f1b1428200000000000000000000000000000000000000000000000000000000081526001600160a01b0392831660048201819052602482015260448101919091529293501690631b14282090606401600060405180830381600087803b158015611cd457600080fd5b505af1158015611ce8573d6000803e3d6000fd5b50506040517f933f7608000000000000000000000000000000000000000000000000000000008152600481018790526001600160a01b038616925063933f76089150602401600060405180830381600087803b158015611d4757600080fd5b505af1158015611d5b573d6000803e3d6000fd5b505050506000828260200151611d719190612a71565b905080600760008881526020019081526020016000206000828254611d969190612ad8565b9091555050600b54606083015160125484516001600160a01b0393841693634e14a967938b939092309290911690611dcd90612052565b611dd688612052565b6040517fffffffff0000000000000000000000000000000000000000000000000000000060e089901b16815260048101969096526001600160a01b039485166024870152928416604486015292166064840152608483019190915260a482015260c401600060405180830381600087803b158015611e5357600080fd5b505af1158015611e67573d6000803e3d6000fd5b5050505084867f7d784e3e4a9b69d510aac038e3c3ba7c6ee1cc96fbbdae4a958349313cca9cd4600760008a815260200190815260200160002054604051611a7a91815260200190565b611eba33611f85565b611ef0576040517f82b4290000000000000000000000000000000000000000000000000000000000815260040160405180910390fd5b611efa828261216c565b6000801b827fe436a8be7dc6aab90b400800ecc86e46fb600f2e18989b5d0389840fdabbf2ed83604051611f2e9190612aeb565b60405180910390a3611f3e612482565b5050565b60006b033b2e3c9fd0803ce8000000611f5b8385612b57565b611f659190612a71565b9392505050565b600081611f5b6b033b2e3c9fd0803ce800000085612b57565b60006109df818361251b565b6040517f9d2ff48000000000000000000000000000000000000000000000000000000000815260040160405180910390fd5b60606000611f658361253d565b611fdb600082612599565b15612020576040516001600160a01b03821681527f599a298163e1678bb1c676052a8930bf0b8a1261ed6e01b8a2391e55f7000102906020015b60405180910390a150565b6040517f6027d27e00000000000000000000000000000000000000000000000000000000815260040160405180910390fd5b80600081121561208e576040517f44dddea200000000000000000000000000000000000000000000000000000000815260040160405180910390fd5b919050565b6040517f0bcab2f100000000000000000000000000000000000000000000000000000000815260040160405180910390fd5b6120d06000826125ae565b1561210e576040516001600160a01b03821681527f8834a87e641e9716be4f34527af5d23e11624f1ddeefede6ad75a9acfc31b90390602001612015565b6040517fea8e4eb500000000000000000000000000000000000000000000000000000000815260040160405180910390fd5b600081611f5b670de0b6b3a764000085612b57565b6000818311156121655781611f65565b5090919050565b60025460ff166121a8576040517f7abbf1c900000000000000000000000000000000000000000000000000000000815260040160405180910390fd5b60006121b5826020015190565b9050827f6f7261636c6552656c61796572000000000000000000000000000000000000000361221657600d80547fffffffffffffffffffffffff0000000000000000000000000000000000000000166001600160a01b038316179055505050565b827f6c69717569646174696f6e456e67696e650000000000000000000000000000000361227557600c80547fffffffffffffffffffffffff0000000000000000000000000000000000000000166001600160a01b038316179055505050565b827f636f696e4a6f696e000000000000000000000000000000000000000000000000036122d457600e80547fffffffffffffffffffffffff0000000000000000000000000000000000000000166001600160a01b038316179055505050565b827f636f6c6c61746572616c4a6f696e466163746f727900000000000000000000000361233357600f80547fffffffffffffffffffffffff0000000000000000000000000000000000000000166001600160a01b038316179055505050565b827f636f6c6c61746572616c41756374696f6e486f757365466163746f72790000000361239257601080547fffffffffffffffffffffffff0000000000000000000000000000000000000000166001600160a01b038316179055505050565b827f73746162696c6974794665655472656173757279000000000000000000000000036123f157601180547fffffffffffffffffffffffff0000000000000000000000000000000000000000166001600160a01b038316179055505050565b827f6163636f756e74696e67456e67696e65000000000000000000000000000000000361245057601280547fffffffffffffffffffffffff0000000000000000000000000000000000000000166001600160a01b038316179055505050565b827f73687574646f776e436f6f6c646f776e0000000000000000000000000000000003611f9157506020015160135550565b600c54612497906001600160a01b03166125c3565b50600d546124ad906001600160a01b03166125c3565b50600e546124c3906001600160a01b03166125c3565b50600f546124d9906001600160a01b03166125c3565b506010546124ef906001600160a01b03166125c3565b50601154612505906001600160a01b03166125c3565b50601254610e5f906001600160a01b03166125c3565b6001600160a01b03811660009081526001830160205260408120541515611f65565b60608160000180548060200260200160405190810160405280929190818152602001828054801561258d57602002820191906000526020600020905b815481526020019060010190808311612579575b50505050509050919050565b6000611f65836001600160a01b038416612609565b6000611f65836001600160a01b038416612658565b60006001600160a01b038216612605576040517fe99d5ac500000000000000000000000000000000000000000000000000000000815260040160405180910390fd5b5090565b6000818152600183016020526040812054612650575081546001818101845560008481526020808220909301849055845484825282860190935260409020919091556109df565b5060006109df565b6000818152600183016020526040812054801561274157600061267c600183612aac565b855490915060009061269090600190612aac565b90508181146126f55760008660000182815481106126b0576126b0612c98565b90600052602060002001549050808760000184815481106126d3576126d3612c98565b6000918252602080832090910192909255918252600188019052604090208390555b855486908061270657612706612cc7565b6001900381819060005260206000200160009055905585600101600086815260200190815260200160002060009055600193505050506109df565b60009150506109df565b60006020828403121561275d57600080fd5b5035919050565b7f4e487b7100000000000000000000000000000000000000000000000000000000600052604160045260246000fd5b60405160a0810167ffffffffffffffff811182821017156127b6576127b6612764565b60405290565b6040516060810167ffffffffffffffff811182821017156127b6576127b6612764565b600082601f8301126127f057600080fd5b813567ffffffffffffffff8082111561280b5761280b612764565b604051601f83017fffffffffffffffffffffffffffffffffffffffffffffffffffffffffffffffe0908116603f0116810190828211818310171561285157612851612764565b8160405283815286602085880101111561286a57600080fd5b836020870160208301376000602085830101528094505050505092915050565b60008060006060848603121561289f57600080fd5b8335925060208401359150604084013567ffffffffffffffff8111156128c457600080fd5b6128d0868287016127df565b9150509250925092565b6001600160a01b0381168114610e5f57600080fd5b60006020828403121561290157600080fd5b8135611f65816128da565b6020808252825182820181905260009190848201906040850190845b8181101561294d5783516001600160a01b031683529284019291840191600101612928565b50909695505050505050565b6000806040838503121561296c57600080fd5b82359150602083013561297e816128da565b809150509250929050565b6000806040838503121561299c57600080fd5b50508035926020909101359150565b600080604083850312156129be57600080fd5b82359150602083013567ffffffffffffffff8111156129dc57600080fd5b6129e8858286016127df565b9150509250929050565b600060a08284031215612a0457600080fd5b612a0c612793565b82518152602083015160208201526040830151604082015260608301516060820152608083015160808201528091505092915050565b7f4e487b7100000000000000000000000000000000000000000000000000000000600052601160045260246000fd5b600082612aa7577f4e487b7100000000000000000000000000000000000000000000000000000000600052601260045260246000fd5b500490565b818103818111156109df576109df612a42565b600060208284031215612ad157600080fd5b5051919050565b808201808211156109df576109df612a42565b600060208083528351808285015260005b81811015612b1857858101830151858201604001528201612afc565b5060006040828601015260407fffffffffffffffffffffffffffffffffffffffffffffffffffffffffffffffe0601f8301168501019250505092915050565b80820281158282048414176109df576109df612a42565b600060408284031215612b8057600080fd5b6040516040810181811067ffffffffffffffff82111715612ba357612ba3612764565b604052825181526020928301519281019290925250919050565b60007f80000000000000000000000000000000000000000000000000000000000000008203612bee57612bee612a42565b5060000390565b600060608284031215612c0757600080fd5b612c0f6127bc565b8251612c1a816128da565b8152602083810151908201526040928301519281019290925250919050565b600060a08284031215612c4b57600080fd5b612c53612793565b8251815260208301516020820152604083015160408201526060830151612c79816128da565b60608201526080830151612c8c816128da565b60808201529392505050565b7f4e487b7100000000000000000000000000000000000000000000000000000000600052603260045260246000fd5b7f4e487b7100000000000000000000000000000000000000000000000000000000600052603160045260246000fdfea26469706673582212208305886f6203112dc96da389eea9d889d2ddf79e7a23d295a01d7078e54614eb64736f6c63430008130033",
    "linkReferences": {}
  },
  "methodIdentifiers": {
    "_params()": "552b16ab",
    "accountingEngine()": "961d45c4",
    "addAuthorization(address)": "35b28153",
    "authorizedAccounts()": "2e391876",
    "authorizedAccounts(address)": "24ba5884",
    "calculateCashPrice(bytes32)": "06a4bb0c",
    "coinBag(address)": "a3d291ba",
    "coinJoin()": "30413a2a",
    "coinsUsedToRedeem(bytes32,address)": "6d82962a",
    "collateralAuctionHouseFactory()": "92cb6eef",
    "collateralCashPrice(bytes32)": "9d7db94e",
    "collateralJoinFactory()": "bff71773",
    "collateralShortfall(bytes32)": "99ab8ae2",
    "collateralTotalDebt(bytes32)": "3e81afc5",
    "contractEnabled()": "41b3a0d9",
    "disableContract()": "894ba833",
    "fastTrackAuction(bytes32,uint256)": "da0f90d7",
    "finalCoinPerCollateralPrice(bytes32)": "f42029c8",
    "freeCollateral(bytes32)": "5da6a9ff",
    "freezeCollateralType(bytes32)": "c0fb6e51",
    "liquidationEngine()": "44bf3c72",
    "modifyParameters(bytes32,bytes)": "da8a4bb8",
    "modifyParameters(bytes32,bytes32,bytes)": "12f33526",
    "oracleRelayer()": "4faf61ab",
    "outstandingCoinSupply()": "29309d5e",
    "params()": "cff0ab96",
    "prepareCoinsForRedeeming(uint256)": "53467d22",
    "processSAFE(bytes32,address)": "d8f28cf1",
    "redeemCollateral(bytes32,uint256)": "c7eb5bd9",
    "removeAuthorization(address)": "94f3f81d",
    "safeEngine()": "67aea313",
    "setOutstandingCoinSupply()": "10231d12",
    "shutdownSystem()": "354af919",
    "shutdownTime()": "58569081",
    "stabilityFeeTreasury()": "72b6f12a"
  },
  "id": 132
}