{
  "abi": [
    {
      "inputs": [],
      "name": "OnlyDelegateCalls",
      "type": "error"
    },
    {
      "inputs": [
        {
          "internalType": "address",
          "name": "_coinJoin",
          "type": "address"
        }
      ],
      "name": "exitAllSystemCoins",
      "outputs": [],
      "stateMutability": "nonpayable",
      "type": "function"
    },
    {
      "inputs": [
        {
          "internalType": "address",
          "name": "_collateralJoin",
          "type": "address"
        },
        {
          "internalType": "uint256",
          "name": "_wad",
          "type": "uint256"
        }
      ],
      "name": "exitCollateral",
      "outputs": [],
      "stateMutability": "nonpayable",
      "type": "function"
    },
    {
      "inputs": [
        {
          "internalType": "address",
          "name": "_coinJoin",
          "type": "address"
        },
        {
          "internalType": "uint256",
          "name": "_coinsToExit",
          "type": "uint256"
        }
      ],
      "name": "exitSystemCoins",
      "outputs": [],
      "stateMutability": "nonpayable",
      "type": "function"
    },
    {
      "inputs": [
        {
          "internalType": "address",
          "name": "_manager",
          "type": "address"
        },
        {
          "internalType": "address",
          "name": "_globalSettlement",
          "type": "address"
        },
        {
          "internalType": "address",
          "name": "_collateralJoin",
          "type": "address"
        },
        {
          "internalType": "uint256",
          "name": "_safeId",
          "type": "uint256"
        }
      ],
      "name": "freeCollateral",
      "outputs": [
        {
          "internalType": "uint256",
          "name": "_collateralAmount",
          "type": "uint256"
        }
      ],
      "stateMutability": "nonpayable",
      "type": "function"
    },
    {
      "inputs": [
        {
          "internalType": "address",
          "name": "_coinJoin",
          "type": "address"
        },
        {
          "internalType": "address",
          "name": "_dst",
          "type": "address"
        },
        {
          "internalType": "uint256",
          "name": "_wad",
          "type": "uint256"
        }
      ],
      "name": "joinSystemCoins",
      "outputs": [],
      "stateMutability": "nonpayable",
      "type": "function"
    },
    {
      "inputs": [
        {
          "internalType": "address",
          "name": "_globalSettlement",
          "type": "address"
        },
        {
          "internalType": "address",
          "name": "_coinJoin",
          "type": "address"
        },
        {
          "internalType": "uint256",
          "name": "_coinAmount",
          "type": "uint256"
        }
      ],
      "name": "prepareCoinsForRedeeming",
      "outputs": [],
      "stateMutability": "nonpayable",
      "type": "function"
    },
    {
      "inputs": [
        {
          "internalType": "address",
          "name": "_globalSettlement",
          "type": "address"
        },
        {
          "internalType": "address",
          "name": "_collateralJoin",
          "type": "address"
        }
      ],
      "name": "redeemCollateral",
      "outputs": [
        {
          "internalType": "uint256",
          "name": "_collateralAmount",
          "type": "uint256"
        }
      ],
      "stateMutability": "nonpayable",
      "type": "function"
    }
  ],
  "bytecode": {
    "object": "0x60a06040523060805234801561001457600080fd5b50608051611c8261005a60003960008181610132015281816102b4015281816109110152818161098a01528181610c1f01528181610c9e0152610d190152611c826000f3fe608060405234801561001057600080fd5b506004361061007d5760003560e01c806374ac10e31161005b57806374ac10e3146100cf578063902746d7146100e2578063d6f25400146100f5578063f23bf6651461010857600080fd5b80632da467341461008257806331c1f766146100975780634f127f43146100bc575b600080fd5b610095610090366004611822565b61011b565b005b6100aa6100a5366004611846565b61029b565b60405190815260200160405180910390f35b6100956100ca366004611897565b6108fa565b6100956100dd3660046118c3565b610973565b6100956100f03660046118c3565b610c08565b610095610103366004611897565b610c87565b6100aa610116366004611904565b610d00565b73ffffffffffffffffffffffffffffffffffffffff7f000000000000000000000000000000000000000000000000000000000000000016300361018a576040517f0406dd4b00000000000000000000000000000000000000000000000000000000815260040160405180910390fd5b60008173ffffffffffffffffffffffffffffffffffffffff166367aea3136040518163ffffffff1660e01b8152600401602060405180830381865afa1580156101d7573d6000803e3d6000fd5b505050506040513d601f19601f820116820180604052508101906101fb919061193d565b6040517ffabde80c00000000000000000000000000000000000000000000000000000000815230600482015273ffffffffffffffffffffffffffffffffffffffff919091169063fabde80c90602401602060405180830381865afa158015610267573d6000803e3d6000fd5b505050506040513d601f19601f8201168201806040525081019061028b919061195a565b905061029782826110c2565b5050565b600073ffffffffffffffffffffffffffffffffffffffff7f000000000000000000000000000000000000000000000000000000000000000016300361030c576040517f0406dd4b00000000000000000000000000000000000000000000000000000000815260040160405180910390fd5b6040517f35c9c6e9000000000000000000000000000000000000000000000000000000008152600481018390528490869060009073ffffffffffffffffffffffffffffffffffffffff8316906335c9c6e990602401606060405180830381865afa15801561037e573d6000803e3d6000fd5b505050506040513d601f19601f820116820180604052508101906103a29190611973565b905060008273ffffffffffffffffffffffffffffffffffffffff166367aea3136040518163ffffffff1660e01b8152600401602060405180830381865afa1580156103f1573d6000803e3d6000fd5b505050506040513d601f19601f82011682018060405250810190610415919061193d565b905060008173ffffffffffffffffffffffffffffffffffffffff16633d422504846040015185602001516040518363ffffffff1660e01b815260040161047b92919091825273ffffffffffffffffffffffffffffffffffffffff16602082015260400190565b6040805180830381865afa158015610497573d6000803e3d6000fd5b505050506040513d601f19601f820116820180604052508101906104bb9190611a05565b60208101519091501561061957604080840151602085015191517fd8f28cf1000000000000000000000000000000000000000000000000000000008152600481019190915273ffffffffffffffffffffffffffffffffffffffff91821660248201529086169063d8f28cf190604401600060405180830381600087803b15801561054457600080fd5b505af1158015610558573d6000803e3d6000fd5b505050604080850151602086015191517f3d42250400000000000000000000000000000000000000000000000000000000815273ffffffffffffffffffffffffffffffffffffffff86169350633d422504926105d6929160040191825273ffffffffffffffffffffffffffffffffffffffff16602082015260400190565b6040805180830381865afa1580156105f2573d6000803e3d6000fd5b505050506040513d601f19601f820116820180604052508101906106169190611a05565b90505b6040517f50de215d00000000000000000000000000000000000000000000000000000000815230600482015273ffffffffffffffffffffffffffffffffffffffff8b811660248301528316906350de215d90604401602060405180830381865afa15801561068b573d6000803e3d6000fd5b505050506040513d601f19601f820116820180604052508101906106af9190611a7b565b610735576040517fd94d420800000000000000000000000000000000000000000000000000000000815273ffffffffffffffffffffffffffffffffffffffff8b8116600483015283169063d94d420890602401600060405180830381600087803b15801561071c57600080fd5b505af1158015610730573d6000803e3d6000fd5b505050505b6040517fa26292db0000000000000000000000000000000000000000000000000000000081526004810188905230602482015273ffffffffffffffffffffffffffffffffffffffff85169063a26292db90604401600060405180830381600087803b1580156107a357600080fd5b505af11580156107b7573d6000803e3d6000fd5b50505060408085015190517f5da6a9ff00000000000000000000000000000000000000000000000000000000815273ffffffffffffffffffffffffffffffffffffffff88169250635da6a9ff916108149160040190815260200190565b600060405180830381600087803b15801561082e57600080fd5b505af1158015610842573d6000803e3d6000fd5b5050505060408381015190517f76e0b4ca000000000000000000000000000000000000000000000000000000008152600481019190915230602482015273ffffffffffffffffffffffffffffffffffffffff8316906376e0b4ca90604401602060405180830381865afa1580156108bd573d6000803e3d6000fd5b505050506040513d601f19601f820116820180604052508101906108e1919061195a565b95506108ed8887611321565b5050505050949350505050565b73ffffffffffffffffffffffffffffffffffffffff7f0000000000000000000000000000000000000000000000000000000000000000163003610969576040517f0406dd4b00000000000000000000000000000000000000000000000000000000815260040160405180910390fd5b61029782826110c2565b73ffffffffffffffffffffffffffffffffffffffff7f00000000000000000000000000000000000000000000000000000000000000001630036109e2576040517f0406dd4b00000000000000000000000000000000000000000000000000000000815260040160405180910390fd5b600083905060008173ffffffffffffffffffffffffffffffffffffffff166367aea3136040518163ffffffff1660e01b8152600401602060405180830381865afa158015610a34573d6000803e3d6000fd5b505050506040513d601f19601f82011682018060405250810190610a58919061193d565b9050610a658430856115e9565b6040517f50de215d00000000000000000000000000000000000000000000000000000000815230600482015273ffffffffffffffffffffffffffffffffffffffff86811660248301528216906350de215d90604401602060405180830381865afa158015610ad7573d6000803e3d6000fd5b505050506040513d601f19601f82011682018060405250810190610afb9190611a7b565b610b81576040517fd94d420800000000000000000000000000000000000000000000000000000000815273ffffffffffffffffffffffffffffffffffffffff868116600483015282169063d94d420890602401600060405180830381600087803b158015610b6857600080fd5b505af1158015610b7c573d6000803e3d6000fd5b505050505b6040517f53467d220000000000000000000000000000000000000000000000000000000081526004810184905273ffffffffffffffffffffffffffffffffffffffff8616906353467d2290602401600060405180830381600087803b158015610be957600080fd5b505af1158015610bfd573d6000803e3d6000fd5b505050505050505050565b73ffffffffffffffffffffffffffffffffffffffff7f0000000000000000000000000000000000000000000000000000000000000000163003610c77576040517f0406dd4b00000000000000000000000000000000000000000000000000000000815260040160405180910390fd5b610c828383836115e9565b505050565b73ffffffffffffffffffffffffffffffffffffffff7f0000000000000000000000000000000000000000000000000000000000000000163003610cf6576040517f0406dd4b00000000000000000000000000000000000000000000000000000000815260040160405180910390fd5b6102978282611321565b600073ffffffffffffffffffffffffffffffffffffffff7f0000000000000000000000000000000000000000000000000000000000000000163003610d71576040517f0406dd4b00000000000000000000000000000000000000000000000000000000815260040160405180910390fd5b600083905060008173ffffffffffffffffffffffffffffffffffffffff166367aea3136040518163ffffffff1660e01b8152600401602060405180830381865afa158015610dc3573d6000803e3d6000fd5b505050506040513d601f19601f82011682018060405250810190610de7919061193d565b905060008473ffffffffffffffffffffffffffffffffffffffff1663e824600f6040518163ffffffff1660e01b8152600401602060405180830381865afa158015610e36573d6000803e3d6000fd5b505050506040513d601f19601f82011682018060405250810190610e5a919061195a565b6040517f6d82962a0000000000000000000000000000000000000000000000000000000081526004810182905230602482015290915060009073ffffffffffffffffffffffffffffffffffffffff851690636d82962a90604401602060405180830381865afa158015610ed1573d6000803e3d6000fd5b505050506040513d601f19601f82011682018060405250810190610ef5919061195a565b6040517fa3d291ba00000000000000000000000000000000000000000000000000000000815230600482015273ffffffffffffffffffffffffffffffffffffffff86169063a3d291ba90602401602060405180830381865afa158015610f5f573d6000803e3d6000fd5b505050506040513d601f19601f82011682018060405250810190610f83919061195a565b610f8d9190611acc565b6040517fc7eb5bd9000000000000000000000000000000000000000000000000000000008152600481018490526024810182905290915073ffffffffffffffffffffffffffffffffffffffff85169063c7eb5bd990604401600060405180830381600087803b158015610fff57600080fd5b505af1158015611013573d6000803e3d6000fd5b50506040517f76e0b4ca0000000000000000000000000000000000000000000000000000000081526004810185905230602482015273ffffffffffffffffffffffffffffffffffffffff861692506376e0b4ca9150604401602060405180830381865afa158015611088573d6000803e3d6000fd5b505050506040513d601f19601f820116820180604052508101906110ac919061195a565b94506110b88686611321565b5050505092915050565b806000036110ce575050565b600082905060008173ffffffffffffffffffffffffffffffffffffffff166367aea3136040518163ffffffff1660e01b8152600401602060405180830381865afa158015611120573d6000803e3d6000fd5b505050506040513d601f19601f82011682018060405250810190611144919061193d565b6040517f50de215d00000000000000000000000000000000000000000000000000000000815230600482015273ffffffffffffffffffffffffffffffffffffffff8681166024830152919250908216906350de215d90604401602060405180830381865afa1580156111ba573d6000803e3d6000fd5b505050506040513d601f19601f820116820180604052508101906111de9190611a7b565b611264576040517fd94d420800000000000000000000000000000000000000000000000000000000815273ffffffffffffffffffffffffffffffffffffffff858116600483015282169063d94d420890602401600060405180830381600087803b15801561124b57600080fd5b505af115801561125f573d6000803e3d6000fd5b505050505b73ffffffffffffffffffffffffffffffffffffffff821663ef693bed336112976b033b2e3c9fd0803ce800000087611ae5565b6040517fffffffff0000000000000000000000000000000000000000000000000000000060e085901b16815273ffffffffffffffffffffffffffffffffffffffff909216600483015260248201526044015b600060405180830381600087803b15801561130357600080fd5b505af1158015611317573d6000803e3d6000fd5b5050505050505050565b8060000361132d575050565b600082905060008173ffffffffffffffffffffffffffffffffffffffff166367aea3136040518163ffffffff1660e01b8152600401602060405180830381865afa15801561137f573d6000803e3d6000fd5b505050506040513d601f19601f820116820180604052508101906113a3919061193d565b6040517f50de215d00000000000000000000000000000000000000000000000000000000815230600482015273ffffffffffffffffffffffffffffffffffffffff8681166024830152919250908216906350de215d90604401602060405180830381865afa158015611419573d6000803e3d6000fd5b505050506040513d601f19601f8201168201806040525081019061143d9190611a7b565b6114c3576040517fd94d420800000000000000000000000000000000000000000000000000000000815273ffffffffffffffffffffffffffffffffffffffff858116600483015282169063d94d420890602401600060405180830381600087803b1580156114aa57600080fd5b505af11580156114be573d6000803e3d6000fd5b505050505b60008273ffffffffffffffffffffffffffffffffffffffff1663313ce5676040518163ffffffff1660e01b8152600401602060405180830381865afa158015611510573d6000803e3d6000fd5b505050506040513d601f19601f82011682018060405250810190611534919061195a565b90506000611543826012611acc565b61154e90600a611c40565b6115589086611ae5565b6040517fef693bed0000000000000000000000000000000000000000000000000000000081523360048201526024810182905290915073ffffffffffffffffffffffffffffffffffffffff85169063ef693bed90604401600060405180830381600087803b1580156115c957600080fd5b505af11580156115dd573d6000803e3d6000fd5b50505050505050505050565b806000036115f657505050565b60008373ffffffffffffffffffffffffffffffffffffffff1663a7e944556040518163ffffffff1660e01b8152600401602060405180830381865afa158015611643573d6000803e3d6000fd5b505050506040513d601f19601f82011682018060405250810190611667919061193d565b6040517f23b872dd0000000000000000000000000000000000000000000000000000000081523360048201523060248201526044810184905290915073ffffffffffffffffffffffffffffffffffffffff8216906323b872dd906064016020604051808303816000875af11580156116e3573d6000803e3d6000fd5b505050506040513d601f19601f820116820180604052508101906117079190611a7b565b506040517f095ea7b300000000000000000000000000000000000000000000000000000000815273ffffffffffffffffffffffffffffffffffffffff85811660048301526024820184905282169063095ea7b3906044016020604051808303816000875af115801561177d573d6000803e3d6000fd5b505050506040513d601f19601f820116820180604052508101906117a19190611a7b565b506040517f3b4da69f00000000000000000000000000000000000000000000000000000000815273ffffffffffffffffffffffffffffffffffffffff848116600483015260248201849052851690633b4da69f906044016112e9565b73ffffffffffffffffffffffffffffffffffffffff8116811461181f57600080fd5b50565b60006020828403121561183457600080fd5b813561183f816117fd565b9392505050565b6000806000806080858703121561185c57600080fd5b8435611867816117fd565b93506020850135611877816117fd565b92506040850135611887816117fd565b9396929550929360600135925050565b600080604083850312156118aa57600080fd5b82356118b5816117fd565b946020939093013593505050565b6000806000606084860312156118d857600080fd5b83356118e3816117fd565b925060208401356118f3816117fd565b929592945050506040919091013590565b6000806040838503121561191757600080fd5b8235611922816117fd565b91506020830135611932816117fd565b809150509250929050565b60006020828403121561194f57600080fd5b815161183f816117fd565b60006020828403121561196c57600080fd5b5051919050565b60006060828403121561198557600080fd5b6040516060810181811067ffffffffffffffff821117156119cf577f4e487b7100000000000000000000000000000000000000000000000000000000600052604160045260246000fd5b60405282516119dd816117fd565b815260208301516119ed816117fd565b60208201526040928301519281019290925250919050565b600060408284031215611a1757600080fd5b6040516040810181811067ffffffffffffffff82111715611a61577f4e487b7100000000000000000000000000000000000000000000000000000000600052604160045260246000fd5b604052825181526020928301519281019290925250919050565b600060208284031215611a8d57600080fd5b8151801515811461183f57600080fd5b7f4e487b7100000000000000000000000000000000000000000000000000000000600052601160045260246000fd5b81810381811115611adf57611adf611a9d565b92915050565b600082611b1b577f4e487b7100000000000000000000000000000000000000000000000000000000600052601260045260246000fd5b500490565b600181815b80851115611b7957817fffffffffffffffffffffffffffffffffffffffffffffffffffffffffffffffff04821115611b5f57611b5f611a9d565b80851615611b6c57918102915b93841c9390800290611b25565b509250929050565b600082611b9057506001611adf565b81611b9d57506000611adf565b8160018114611bb35760028114611bbd57611bd9565b6001915050611adf565b60ff841115611bce57611bce611a9d565b50506001821b611adf565b5060208310610133831016604e8410600b8410161715611bfc575081810a611adf565b611c068383611b20565b807fffffffffffffffffffffffffffffffffffffffffffffffffffffffffffffffff04821115611c3857611c38611a9d565b029392505050565b600061183f8383611b8156fea26469706673582212201d85d369ff3c2886cbbc5ba950e9c8f68fff9c200edbd643e18f028dfd6aa40e64736f6c63430008130033",
    "linkReferences": {}
  },
  "methodIdentifiers": {
    "exitAllSystemCoins(address)": "2da46734",
    "exitCollateral(address,uint256)": "d6f25400",
    "exitSystemCoins(address,uint256)": "4f127f43",
    "freeCollateral(address,address,address,uint256)": "31c1f766",
    "joinSystemCoins(address,address,uint256)": "902746d7",
    "prepareCoinsForRedeeming(address,address,uint256)": "74ac10e3",
    "redeemCollateral(address,address)": "f23bf665"
  },
  "id": 109
}