{
  "abi": [
    {
      "inputs": [],
      "name": "OnlyDelegateCalls",
      "type": "error"
    },
    {
      "inputs": [
        {
          "internalType": "address",
          "name": "_coinJoin",
          "type": "address"
        }
      ],
      "name": "exitAllSystemCoins",
      "outputs": [],
      "stateMutability": "nonpayable",
      "type": "function"
    },
    {
      "inputs": [
        {
          "internalType": "address",
          "name": "_collateralJoin",
          "type": "address"
        },
        {
          "internalType": "uint256",
          "name": "_wad",
          "type": "uint256"
        }
      ],
      "name": "exitCollateral",
      "outputs": [],
      "stateMutability": "nonpayable",
      "type": "function"
    },
    {
      "inputs": [
        {
          "internalType": "address",
          "name": "_coinJoin",
          "type": "address"
        },
        {
          "internalType": "uint256",
          "name": "_coinsToExit",
          "type": "uint256"
        }
      ],
      "name": "exitSystemCoins",
      "outputs": [],
      "stateMutability": "nonpayable",
      "type": "function"
    },
    {
      "inputs": [
        {
          "internalType": "address",
          "name": "_manager",
          "type": "address"
        },
        {
          "internalType": "address",
          "name": "_globalSettlement",
          "type": "address"
        },
        {
          "internalType": "address",
          "name": "_collateralJoin",
          "type": "address"
        },
        {
          "internalType": "uint256",
          "name": "_safeId",
          "type": "uint256"
        }
      ],
      "name": "freeCollateral",
      "outputs": [
        {
          "internalType": "uint256",
          "name": "_collateralAmount",
          "type": "uint256"
        }
      ],
      "stateMutability": "nonpayable",
      "type": "function"
    },
    {
      "inputs": [
        {
          "internalType": "address",
          "name": "_coinJoin",
          "type": "address"
        },
        {
          "internalType": "address",
          "name": "_dst",
          "type": "address"
        },
        {
          "internalType": "uint256",
          "name": "_wad",
          "type": "uint256"
        }
      ],
      "name": "joinSystemCoins",
      "outputs": [],
      "stateMutability": "nonpayable",
      "type": "function"
    },
    {
      "inputs": [
        {
          "internalType": "address",
          "name": "_globalSettlement",
          "type": "address"
        },
        {
          "internalType": "address",
          "name": "_coinJoin",
          "type": "address"
        },
        {
          "internalType": "uint256",
          "name": "_coinAmount",
          "type": "uint256"
        }
      ],
      "name": "prepareCoinsForRedeeming",
      "outputs": [],
      "stateMutability": "nonpayable",
      "type": "function"
    },
    {
      "inputs": [
        {
          "internalType": "address",
          "name": "_globalSettlement",
          "type": "address"
        },
        {
          "internalType": "address",
          "name": "_collateralJoin",
          "type": "address"
        }
      ],
      "name": "redeemCollateral",
      "outputs": [
        {
          "internalType": "uint256",
          "name": "_collateralAmount",
          "type": "uint256"
        }
      ],
      "stateMutability": "nonpayable",
      "type": "function"
    }
  ],
  "bytecode": {
    "object": "0x60a06040523060805234801561001457600080fd5b50608051611aeb61005a600039600081816101250152818161028001528181610834015281816108a001528181610bb301528181610c250152610c930152611aeb6000f3fe608060405234801561001057600080fd5b506004361061007d5760003560e01c806374ac10e31161005b57806374ac10e3146100cf578063902746d7146100e2578063d6f25400146100f5578063f23bf6651461010857600080fd5b80632da467341461008257806331c1f766146100975780634f127f43146100bc575b600080fd5b61009561009036600461168b565b61011b565b005b6100aa6100a53660046116af565b610274565b60405190815260200160405180910390f35b6100956100ca366004611700565b61082a565b6100956100dd36600461172c565b610896565b6100956100f036600461172c565b610ba9565b610095610103366004611700565b610c1b565b6100aa61011636600461176d565b610c87565b6001600160a01b037f000000000000000000000000000000000000000000000000000000000000000016300361017d576040517f0406dd4b00000000000000000000000000000000000000000000000000000000815260040160405180910390fd5b6000816001600160a01b03166367aea3136040518163ffffffff1660e01b8152600401602060405180830381865afa1580156101bd573d6000803e3d6000fd5b505050506040513d601f19601f820116820180604052508101906101e191906117a6565b6040517ffabde80c0000000000000000000000000000000000000000000000000000000081523060048201526001600160a01b03919091169063fabde80c90602401602060405180830381865afa158015610240573d6000803e3d6000fd5b505050506040513d601f19601f8201168201806040525081019061026491906117c3565b90506102708282610fee565b5050565b60006001600160a01b037f00000000000000000000000000000000000000000000000000000000000000001630036102d8576040517f0406dd4b00000000000000000000000000000000000000000000000000000000815260040160405180910390fd5b6040517f35c9c6e900000000000000000000000000000000000000000000000000000000815260048101839052849086906000906001600160a01b038316906335c9c6e990602401606060405180830381865afa15801561033d573d6000803e3d6000fd5b505050506040513d601f19601f8201168201806040525081019061036191906117dc565b90506000826001600160a01b03166367aea3136040518163ffffffff1660e01b8152600401602060405180830381865afa1580156103a3573d6000803e3d6000fd5b505050506040513d601f19601f820116820180604052508101906103c791906117a6565b90506000816001600160a01b0316633d422504846040015185602001516040518363ffffffff1660e01b81526004016104139291909182526001600160a01b0316602082015260400190565b6040805180830381865afa15801561042f573d6000803e3d6000fd5b505050506040513d601f19601f82011682018060405250810190610453919061186e565b60208101519091501561058a57604080840151602085015191517fd8f28cf100000000000000000000000000000000000000000000000000000000815260048101919091526001600160a01b0391821660248201529086169063d8f28cf190604401600060405180830381600087803b1580156104cf57600080fd5b505af11580156104e3573d6000803e3d6000fd5b505050604080850151602086015191517f3d4225040000000000000000000000000000000000000000000000000000000081526001600160a01b0386169350633d4225049261054792916004019182526001600160a01b0316602082015260400190565b6040805180830381865afa158015610563573d6000803e3d6000fd5b505050506040513d601f19601f82011682018060405250810190610587919061186e565b90505b6040517f50de215d0000000000000000000000000000000000000000000000000000000081523060048201526001600160a01b038b811660248301528316906350de215d90604401602060405180830381865afa1580156105ef573d6000803e3d6000fd5b505050506040513d601f19601f8201168201806040525081019061061391906118e4565b61068c576040517fd94d42080000000000000000000000000000000000000000000000000000000081526001600160a01b038b8116600483015283169063d94d420890602401600060405180830381600087803b15801561067357600080fd5b505af1158015610687573d6000803e3d6000fd5b505050505b6040517fa26292db000000000000000000000000000000000000000000000000000000008152600481018890523060248201526001600160a01b0385169063a26292db90604401600060405180830381600087803b1580156106ed57600080fd5b505af1158015610701573d6000803e3d6000fd5b50505060408085015190517f5da6a9ff0000000000000000000000000000000000000000000000000000000081526001600160a01b0388169250635da6a9ff916107519160040190815260200190565b600060405180830381600087803b15801561076b57600080fd5b505af115801561077f573d6000803e3d6000fd5b5050505060408381015190517f76e0b4ca00000000000000000000000000000000000000000000000000000000815260048101919091523060248201526001600160a01b038316906376e0b4ca90604401602060405180830381865afa1580156107ed573d6000803e3d6000fd5b505050506040513d601f19601f8201168201806040525081019061081191906117c3565b955061081d888761120c565b5050505050949350505050565b6001600160a01b037f000000000000000000000000000000000000000000000000000000000000000016300361088c576040517f0406dd4b00000000000000000000000000000000000000000000000000000000815260040160405180910390fd5b6102708282610fee565b6001600160a01b037f00000000000000000000000000000000000000000000000000000000000000001630036108f8576040517f0406dd4b00000000000000000000000000000000000000000000000000000000815260040160405180910390fd5b60008390506000816001600160a01b03166367aea3136040518163ffffffff1660e01b8152600401602060405180830381865afa15801561093d573d6000803e3d6000fd5b505050506040513d601f19601f8201168201806040525081019061096191906117a6565b6040517ffabde80c0000000000000000000000000000000000000000000000000000000081523060048201529091506000906b033b2e3c9fd0803ce8000000906001600160a01b0384169063fabde80c90602401602060405180830381865afa1580156109d2573d6000803e3d6000fd5b505050506040513d601f19601f820116820180604052508101906109f691906117c3565b610a009190611935565b9050600084821015610a1b57610a168286611970565b610a1e565b60005b9050610a2b863083611493565b6040517f50de215d0000000000000000000000000000000000000000000000000000000081523060048201526001600160a01b0388811660248301528416906350de215d90604401602060405180830381865afa158015610a90573d6000803e3d6000fd5b505050506040513d601f19601f82011682018060405250810190610ab491906118e4565b610b2d576040517fd94d42080000000000000000000000000000000000000000000000000000000081526001600160a01b03888116600483015284169063d94d420890602401600060405180830381600087803b158015610b1457600080fd5b505af1158015610b28573d6000803e3d6000fd5b505050505b6040517f53467d22000000000000000000000000000000000000000000000000000000008152600481018690526001600160a01b038816906353467d2290602401600060405180830381600087803b158015610b8857600080fd5b505af1158015610b9c573d6000803e3d6000fd5b5050505050505050505050565b6001600160a01b037f0000000000000000000000000000000000000000000000000000000000000000163003610c0b576040517f0406dd4b00000000000000000000000000000000000000000000000000000000815260040160405180910390fd5b610c16838383611493565b505050565b6001600160a01b037f0000000000000000000000000000000000000000000000000000000000000000163003610c7d576040517f0406dd4b00000000000000000000000000000000000000000000000000000000815260040160405180910390fd5b610270828261120c565b60006001600160a01b037f0000000000000000000000000000000000000000000000000000000000000000163003610ceb576040517f0406dd4b00000000000000000000000000000000000000000000000000000000815260040160405180910390fd5b60008390506000816001600160a01b03166367aea3136040518163ffffffff1660e01b8152600401602060405180830381865afa158015610d30573d6000803e3d6000fd5b505050506040513d601f19601f82011682018060405250810190610d5491906117a6565b90506000846001600160a01b031663e824600f6040518163ffffffff1660e01b8152600401602060405180830381865afa158015610d96573d6000803e3d6000fd5b505050506040513d601f19601f82011682018060405250810190610dba91906117c3565b6040517f6d82962a000000000000000000000000000000000000000000000000000000008152600481018290523060248201529091506000906001600160a01b03851690636d82962a90604401602060405180830381865afa158015610e24573d6000803e3d6000fd5b505050506040513d601f19601f82011682018060405250810190610e4891906117c3565b6040517fa3d291ba0000000000000000000000000000000000000000000000000000000081523060048201526001600160a01b0386169063a3d291ba90602401602060405180830381865afa158015610ea5573d6000803e3d6000fd5b505050506040513d601f19601f82011682018060405250810190610ec991906117c3565b610ed39190611970565b6040517fc7eb5bd900000000000000000000000000000000000000000000000000000000815260048101849052602481018290529091506001600160a01b0385169063c7eb5bd990604401600060405180830381600087803b158015610f3857600080fd5b505af1158015610f4c573d6000803e3d6000fd5b50506040517f76e0b4ca000000000000000000000000000000000000000000000000000000008152600481018590523060248201526001600160a01b03861692506376e0b4ca9150604401602060405180830381865afa158015610fb4573d6000803e3d6000fd5b505050506040513d601f19601f82011682018060405250810190610fd891906117c3565b9450610fe4868661120c565b5050505092915050565b80600003610ffa575050565b60008290506000816001600160a01b03166367aea3136040518163ffffffff1660e01b8152600401602060405180830381865afa15801561103f573d6000803e3d6000fd5b505050506040513d601f19601f8201168201806040525081019061106391906117a6565b6040517f50de215d0000000000000000000000000000000000000000000000000000000081523060048201526001600160a01b038681166024830152919250908216906350de215d90604401602060405180830381865afa1580156110cc573d6000803e3d6000fd5b505050506040513d601f19601f820116820180604052508101906110f091906118e4565b611169576040517fd94d42080000000000000000000000000000000000000000000000000000000081526001600160a01b03858116600483015282169063d94d420890602401600060405180830381600087803b15801561115057600080fd5b505af1158015611164573d6000803e3d6000fd5b505050505b6001600160a01b03821663ef693bed3361118f6b033b2e3c9fd0803ce800000087611935565b6040517fffffffff0000000000000000000000000000000000000000000000000000000060e085901b1681526001600160a01b03909216600483015260248201526044015b600060405180830381600087803b1580156111ee57600080fd5b505af1158015611202573d6000803e3d6000fd5b5050505050505050565b80600003611218575050565b60008290506000816001600160a01b03166367aea3136040518163ffffffff1660e01b8152600401602060405180830381865afa15801561125d573d6000803e3d6000fd5b505050506040513d601f19601f8201168201806040525081019061128191906117a6565b6040517f50de215d0000000000000000000000000000000000000000000000000000000081523060048201526001600160a01b038681166024830152919250908216906350de215d90604401602060405180830381865afa1580156112ea573d6000803e3d6000fd5b505050506040513d601f19601f8201168201806040525081019061130e91906118e4565b611387576040517fd94d42080000000000000000000000000000000000000000000000000000000081526001600160a01b03858116600483015282169063d94d420890602401600060405180830381600087803b15801561136e57600080fd5b505af1158015611382573d6000803e3d6000fd5b505050505b6000826001600160a01b031663313ce5676040518163ffffffff1660e01b8152600401602060405180830381865afa1580156113c7573d6000803e3d6000fd5b505050506040513d601f19601f820116820180604052508101906113eb91906117c3565b905060006113fa826012611970565b61140590600a611aa9565b61140f9086611935565b6040517fef693bed000000000000000000000000000000000000000000000000000000008152336004820152602481018290529091506001600160a01b0385169063ef693bed90604401600060405180830381600087803b15801561147357600080fd5b505af1158015611487573d6000803e3d6000fd5b50505050505050505050565b806000036114a057505050565b6000836001600160a01b031663a7e944556040518163ffffffff1660e01b8152600401602060405180830381865afa1580156114e0573d6000803e3d6000fd5b505050506040513d601f19601f8201168201806040525081019061150491906117a6565b6040517f23b872dd000000000000000000000000000000000000000000000000000000008152336004820152306024820152604481018490529091506001600160a01b038216906323b872dd906064016020604051808303816000875af1158015611573573d6000803e3d6000fd5b505050506040513d601f19601f8201168201806040525081019061159791906118e4565b506040517f095ea7b30000000000000000000000000000000000000000000000000000000081526001600160a01b0385811660048301526024820184905282169063095ea7b3906044016020604051808303816000875af1158015611600573d6000803e3d6000fd5b505050506040513d601f19601f8201168201806040525081019061162491906118e4565b506040517f3b4da69f0000000000000000000000000000000000000000000000000000000081526001600160a01b03848116600483015260248201849052851690633b4da69f906044016111d4565b6001600160a01b038116811461168857600080fd5b50565b60006020828403121561169d57600080fd5b81356116a881611673565b9392505050565b600080600080608085870312156116c557600080fd5b84356116d081611673565b935060208501356116e081611673565b925060408501356116f081611673565b9396929550929360600135925050565b6000806040838503121561171357600080fd5b823561171e81611673565b946020939093013593505050565b60008060006060848603121561174157600080fd5b833561174c81611673565b9250602084013561175c81611673565b929592945050506040919091013590565b6000806040838503121561178057600080fd5b823561178b81611673565b9150602083013561179b81611673565b809150509250929050565b6000602082840312156117b857600080fd5b81516116a881611673565b6000602082840312156117d557600080fd5b5051919050565b6000606082840312156117ee57600080fd5b6040516060810181811067ffffffffffffffff82111715611838577f4e487b7100000000000000000000000000000000000000000000000000000000600052604160045260246000fd5b604052825161184681611673565b8152602083015161185681611673565b60208201526040928301519281019290925250919050565b60006040828403121561188057600080fd5b6040516040810181811067ffffffffffffffff821117156118ca577f4e487b7100000000000000000000000000000000000000000000000000000000600052604160045260246000fd5b604052825181526020928301519281019290925250919050565b6000602082840312156118f657600080fd5b815180151581146116a857600080fd5b7f4e487b7100000000000000000000000000000000000000000000000000000000600052601160045260246000fd5b60008261196b577f4e487b7100000000000000000000000000000000000000000000000000000000600052601260045260246000fd5b500490565b8181038181111561198357611983611906565b92915050565b600181815b808511156119e257817fffffffffffffffffffffffffffffffffffffffffffffffffffffffffffffffff048211156119c8576119c8611906565b808516156119d557918102915b93841c939080029061198e565b509250929050565b6000826119f957506001611983565b81611a0657506000611983565b8160018114611a1c5760028114611a2657611a42565b6001915050611983565b60ff841115611a3757611a37611906565b50506001821b611983565b5060208310610133831016604e8410600b8410161715611a65575081810a611983565b611a6f8383611989565b807fffffffffffffffffffffffffffffffffffffffffffffffffffffffffffffffff04821115611aa157611aa1611906565b029392505050565b60006116a883836119ea56fea2646970667358221220488a93bae9874b2614d59ee2e518f503967f013ccdcf1872784a68524d809e3564736f6c63430008130033",
    "linkReferences": {}
  },
  "methodIdentifiers": {
    "exitAllSystemCoins(address)": "2da46734",
    "exitCollateral(address,uint256)": "d6f25400",
    "exitSystemCoins(address,uint256)": "4f127f43",
    "freeCollateral(address,address,address,uint256)": "31c1f766",
    "joinSystemCoins(address,address,uint256)": "902746d7",
    "prepareCoinsForRedeeming(address,address,uint256)": "74ac10e3",
    "redeemCollateral(address,address)": "f23bf665"
  },
  "id": 128
}