{
  "abi": [
    {
      "inputs": [],
      "stateMutability": "nonpayable",
      "type": "constructor"
    },
    {
      "inputs": [],
      "name": "AlreadyAuthorized",
      "type": "error"
    },
    {
      "inputs": [],
      "name": "ContractIsDisabled",
      "type": "error"
    },
    {
      "inputs": [],
      "name": "ContractIsEnabled",
      "type": "error"
    },
    {
      "inputs": [],
      "name": "GS_CollateralCashPriceAlreadyDefined",
      "type": "error"
    },
    {
      "inputs": [],
      "name": "GS_CollateralCashPriceNotDefined",
      "type": "error"
    },
    {
      "inputs": [],
      "name": "GS_FinalCollateralPriceAlreadyDefined",
      "type": "error"
    },
    {
      "inputs": [],
      "name": "GS_FinalCollateralPriceNotDefined",
      "type": "error"
    },
    {
      "inputs": [],
      "name": "GS_InsufficientBagBalance",
      "type": "error"
    },
    {
      "inputs": [],
      "name": "GS_OutstandingCoinSupplyNotZero",
      "type": "error"
    },
    {
      "inputs": [],
      "name": "GS_OutstandingCoinSupplyZero",
      "type": "error"
    },
    {
      "inputs": [],
      "name": "GS_SafeDebtNotZero",
      "type": "error"
    },
    {
      "inputs": [],
      "name": "GS_ShutdownCooldownNotFinished",
      "type": "error"
    },
    {
      "inputs": [],
      "name": "GS_SurplusNotZero",
      "type": "error"
    },
    {
      "inputs": [],
      "name": "IntOverflow",
      "type": "error"
    },
    {
      "inputs": [],
      "name": "NonDisableable",
      "type": "error"
    },
    {
      "inputs": [],
      "name": "NotAuthorized",
      "type": "error"
    },
    {
      "inputs": [],
      "name": "Unauthorized",
      "type": "error"
    },
    {
      "inputs": [],
      "name": "UnrecognizedCType",
      "type": "error"
    },
    {
      "inputs": [],
      "name": "UnrecognizedParam",
      "type": "error"
    },
    {
      "anonymous": false,
      "inputs": [
        {
          "indexed": false,
          "internalType": "address",
          "name": "_account",
          "type": "address"
        }
      ],
      "name": "AddAuthorization",
      "type": "event"
    },
    {
      "anonymous": false,
      "inputs": [
        {
          "indexed": true,
          "internalType": "bytes32",
          "name": "_cType",
          "type": "bytes32"
        },
        {
          "indexed": false,
          "internalType": "uint256",
          "name": "_collateralCashPrice",
          "type": "uint256"
        }
      ],
      "name": "CalculateCashPrice",
      "type": "event"
    },
    {
      "anonymous": false,
      "inputs": [],
      "name": "DisableContract",
      "type": "event"
    },
    {
      "anonymous": false,
      "inputs": [
        {
          "indexed": true,
          "internalType": "bytes32",
          "name": "_cType",
          "type": "bytes32"
        },
        {
          "indexed": true,
          "internalType": "uint256",
          "name": "_auctionId",
          "type": "uint256"
        },
        {
          "indexed": false,
          "internalType": "uint256",
          "name": "_collateralTotalDebt",
          "type": "uint256"
        }
      ],
      "name": "FastTrackAuction",
      "type": "event"
    },
    {
      "anonymous": false,
      "inputs": [
        {
          "indexed": true,
          "internalType": "bytes32",
          "name": "_cType",
          "type": "bytes32"
        },
        {
          "indexed": true,
          "internalType": "address",
          "name": "_sender",
          "type": "address"
        },
        {
          "indexed": false,
          "internalType": "uint256",
          "name": "_collateralAmount",
          "type": "uint256"
        }
      ],
      "name": "FreeCollateral",
      "type": "event"
    },
    {
      "anonymous": false,
      "inputs": [
        {
          "indexed": true,
          "internalType": "bytes32",
          "name": "_cType",
          "type": "bytes32"
        },
        {
          "indexed": false,
          "internalType": "uint256",
          "name": "_finalCoinPerCollateralPrice",
          "type": "uint256"
        }
      ],
      "name": "FreezeCollateralType",
      "type": "event"
    },
    {
      "anonymous": false,
      "inputs": [
        {
          "indexed": true,
          "internalType": "bytes32",
          "name": "_param",
          "type": "bytes32"
        },
        {
          "indexed": true,
          "internalType": "bytes32",
          "name": "_cType",
          "type": "bytes32"
        },
        {
          "indexed": false,
          "internalType": "bytes",
          "name": "_data",
          "type": "bytes"
        }
      ],
      "name": "ModifyParameters",
      "type": "event"
    },
    {
      "anonymous": false,
      "inputs": [
        {
          "indexed": true,
          "internalType": "address",
          "name": "_sender",
          "type": "address"
        },
        {
          "indexed": false,
          "internalType": "uint256",
          "name": "_coinBag",
          "type": "uint256"
        }
      ],
      "name": "PrepareCoinsForRedeeming",
      "type": "event"
    },
    {
      "anonymous": false,
      "inputs": [
        {
          "indexed": true,
          "internalType": "bytes32",
          "name": "_cType",
          "type": "bytes32"
        },
        {
          "indexed": true,
          "internalType": "address",
          "name": "_safe",
          "type": "address"
        },
        {
          "indexed": false,
          "internalType": "uint256",
          "name": "_collateralShortfall",
          "type": "uint256"
        }
      ],
      "name": "ProcessSAFE",
      "type": "event"
    },
    {
      "anonymous": false,
      "inputs": [
        {
          "indexed": true,
          "internalType": "bytes32",
          "name": "_cType",
          "type": "bytes32"
        },
        {
          "indexed": true,
          "internalType": "address",
          "name": "_sender",
          "type": "address"
        },
        {
          "indexed": false,
          "internalType": "uint256",
          "name": "_coinsAmount",
          "type": "uint256"
        },
        {
          "indexed": false,
          "internalType": "uint256",
          "name": "_collateralAmount",
          "type": "uint256"
        }
      ],
      "name": "RedeemCollateral",
      "type": "event"
    },
    {
      "anonymous": false,
      "inputs": [
        {
          "indexed": false,
          "internalType": "address",
          "name": "_account",
          "type": "address"
        }
      ],
      "name": "RemoveAuthorization",
      "type": "event"
    },
    {
      "anonymous": false,
      "inputs": [
        {
          "indexed": false,
          "internalType": "uint256",
          "name": "_outstandingCoinSupply",
          "type": "uint256"
        }
      ],
      "name": "SetOutstandingCoinSupply",
      "type": "event"
    },
    {
      "anonymous": false,
      "inputs": [],
      "name": "ShutdownSystem",
      "type": "event"
    },
    {
      "inputs": [],
      "name": "_params",
      "outputs": [
        {
          "internalType": "uint256",
          "name": "shutdownCooldown",
          "type": "uint256"
        }
      ],
      "stateMutability": "view",
      "type": "function"
    },
    {
      "inputs": [],
      "name": "accountingEngine",
      "outputs": [
        {
          "internalType": "contract IAccountingEngine",
          "name": "",
          "type": "address"
        }
      ],
      "stateMutability": "view",
      "type": "function"
    },
    {
      "inputs": [
        {
          "internalType": "address",
          "name": "_account",
          "type": "address"
        }
      ],
      "name": "addAuthorization",
      "outputs": [],
      "stateMutability": "nonpayable",
      "type": "function"
    },
    {
      "inputs": [
        {
          "internalType": "address",
          "name": "_account",
          "type": "address"
        }
      ],
      "name": "authorizedAccounts",
      "outputs": [
        {
          "internalType": "bool",
          "name": "_authorized",
          "type": "bool"
        }
      ],
      "stateMutability": "view",
      "type": "function"
    },
    {
      "inputs": [],
      "name": "authorizedAccounts",
      "outputs": [
        {
          "internalType": "address[]",
          "name": "_accounts",
          "type": "address[]"
        }
      ],
      "stateMutability": "view",
      "type": "function"
    },
    {
      "inputs": [
        {
          "internalType": "bytes32",
          "name": "_cType",
          "type": "bytes32"
        }
      ],
      "name": "calculateCashPrice",
      "outputs": [],
      "stateMutability": "nonpayable",
      "type": "function"
    },
    {
      "inputs": [
        {
          "internalType": "address",
          "name": "",
          "type": "address"
        }
      ],
      "name": "coinBag",
      "outputs": [
        {
          "internalType": "uint256",
          "name": "",
          "type": "uint256"
        }
      ],
      "stateMutability": "view",
      "type": "function"
    },
    {
      "inputs": [
        {
          "internalType": "bytes32",
          "name": "",
          "type": "bytes32"
        },
        {
          "internalType": "address",
          "name": "",
          "type": "address"
        }
      ],
      "name": "coinsUsedToRedeem",
      "outputs": [
        {
          "internalType": "uint256",
          "name": "",
          "type": "uint256"
        }
      ],
      "stateMutability": "view",
      "type": "function"
    },
    {
      "inputs": [
        {
          "internalType": "bytes32",
          "name": "",
          "type": "bytes32"
        }
      ],
      "name": "collateralCashPrice",
      "outputs": [
        {
          "internalType": "uint256",
          "name": "",
          "type": "uint256"
        }
      ],
      "stateMutability": "view",
      "type": "function"
    },
    {
      "inputs": [
        {
          "internalType": "bytes32",
          "name": "",
          "type": "bytes32"
        }
      ],
      "name": "collateralShortfall",
      "outputs": [
        {
          "internalType": "uint256",
          "name": "",
          "type": "uint256"
        }
      ],
      "stateMutability": "view",
      "type": "function"
    },
    {
      "inputs": [
        {
          "internalType": "bytes32",
          "name": "",
          "type": "bytes32"
        }
      ],
      "name": "collateralTotalDebt",
      "outputs": [
        {
          "internalType": "uint256",
          "name": "",
          "type": "uint256"
        }
      ],
      "stateMutability": "view",
      "type": "function"
    },
    {
      "inputs": [],
      "name": "contractEnabled",
      "outputs": [
        {
          "internalType": "bool",
          "name": "",
          "type": "bool"
        }
      ],
      "stateMutability": "view",
      "type": "function"
    },
    {
      "inputs": [],
      "name": "disableContract",
      "outputs": [],
      "stateMutability": "nonpayable",
      "type": "function"
    },
    {
      "inputs": [
        {
          "internalType": "bytes32",
          "name": "_cType",
          "type": "bytes32"
        },
        {
          "internalType": "uint256",
          "name": "_auctionId",
          "type": "uint256"
        }
      ],
      "name": "fastTrackAuction",
      "outputs": [],
      "stateMutability": "nonpayable",
      "type": "function"
    },
    {
      "inputs": [
        {
          "internalType": "bytes32",
          "name": "",
          "type": "bytes32"
        }
      ],
      "name": "finalCoinPerCollateralPrice",
      "outputs": [
        {
          "internalType": "uint256",
          "name": "",
          "type": "uint256"
        }
      ],
      "stateMutability": "view",
      "type": "function"
    },
    {
      "inputs": [
        {
          "internalType": "bytes32",
          "name": "_cType",
          "type": "bytes32"
        }
      ],
      "name": "freeCollateral",
      "outputs": [],
      "stateMutability": "nonpayable",
      "type": "function"
    },
    {
      "inputs": [
        {
          "internalType": "bytes32",
          "name": "_cType",
          "type": "bytes32"
        }
      ],
      "name": "freezeCollateralType",
      "outputs": [],
      "stateMutability": "nonpayable",
      "type": "function"
    },
    {
      "inputs": [],
      "name": "liquidationEngine",
      "outputs": [
        {
          "internalType": "contract ILiquidationEngine",
          "name": "",
          "type": "address"
        }
      ],
      "stateMutability": "view",
      "type": "function"
    },
    {
      "inputs": [
        {
          "internalType": "bytes32",
          "name": "_cType",
          "type": "bytes32"
        },
        {
          "internalType": "bytes32",
          "name": "_param",
          "type": "bytes32"
        },
        {
          "internalType": "bytes",
          "name": "_data",
          "type": "bytes"
        }
      ],
      "name": "modifyParameters",
      "outputs": [],
      "stateMutability": "nonpayable",
      "type": "function"
    },
    {
      "inputs": [
        {
          "internalType": "bytes32",
          "name": "_param",
          "type": "bytes32"
        },
        {
          "internalType": "bytes",
          "name": "_data",
          "type": "bytes"
        }
      ],
      "name": "modifyParameters",
      "outputs": [],
      "stateMutability": "nonpayable",
      "type": "function"
    },
    {
      "inputs": [],
      "name": "oracleRelayer",
      "outputs": [
        {
          "internalType": "contract IOracleRelayer",
          "name": "",
          "type": "address"
        }
      ],
      "stateMutability": "view",
      "type": "function"
    },
    {
      "inputs": [],
      "name": "outstandingCoinSupply",
      "outputs": [
        {
          "internalType": "uint256",
          "name": "",
          "type": "uint256"
        }
      ],
      "stateMutability": "view",
      "type": "function"
    },
    {
      "inputs": [],
      "name": "params",
      "outputs": [
        {
          "components": [
            {
              "internalType": "uint256",
              "name": "shutdownCooldown",
              "type": "uint256"
            }
          ],
          "internalType": "struct IGlobalSettlement.GlobalSettlementParams",
          "name": "_globalSettlementParams",
          "type": "tuple"
        }
      ],
      "stateMutability": "view",
      "type": "function"
    },
    {
      "inputs": [
        {
          "internalType": "uint256",
          "name": "_coinAmount",
          "type": "uint256"
        }
      ],
      "name": "prepareCoinsForRedeeming",
      "outputs": [],
      "stateMutability": "nonpayable",
      "type": "function"
    },
    {
      "inputs": [
        {
          "internalType": "bytes32",
          "name": "_cType",
          "type": "bytes32"
        },
        {
          "internalType": "address",
          "name": "_safe",
          "type": "address"
        }
      ],
      "name": "processSAFE",
      "outputs": [],
      "stateMutability": "nonpayable",
      "type": "function"
    },
    {
      "inputs": [
        {
          "internalType": "bytes32",
          "name": "_cType",
          "type": "bytes32"
        },
        {
          "internalType": "uint256",
          "name": "_coinsAmount",
          "type": "uint256"
        }
      ],
      "name": "redeemCollateral",
      "outputs": [],
      "stateMutability": "nonpayable",
      "type": "function"
    },
    {
      "inputs": [
        {
          "internalType": "address",
          "name": "_account",
          "type": "address"
        }
      ],
      "name": "removeAuthorization",
      "outputs": [],
      "stateMutability": "nonpayable",
      "type": "function"
    },
    {
      "inputs": [],
      "name": "safeEngine",
      "outputs": [
        {
          "internalType": "contract ISAFEEngine",
          "name": "",
          "type": "address"
        }
      ],
      "stateMutability": "view",
      "type": "function"
    },
    {
      "inputs": [],
      "name": "setOutstandingCoinSupply",
      "outputs": [],
      "stateMutability": "nonpayable",
      "type": "function"
    },
    {
      "inputs": [],
      "name": "shutdownSystem",
      "outputs": [],
      "stateMutability": "nonpayable",
      "type": "function"
    },
    {
      "inputs": [],
      "name": "shutdownTime",
      "outputs": [
        {
          "internalType": "uint256",
          "name": "",
          "type": "uint256"
        }
      ],
      "stateMutability": "view",
      "type": "function"
    },
    {
      "inputs": [],
      "name": "stabilityFeeTreasury",
      "outputs": [
        {
          "internalType": "contract IStabilityFeeTreasury",
          "name": "",
          "type": "address"
        }
      ],
      "stateMutability": "view",
      "type": "function"
    }
  ],
  "bytecode": {
    "object": "0x60806040526002805460ff191660011790553480156200001e57600080fd5b50336200002b8162000032565b506200010f565b6200003f6000826200009d565b1562000084576040516001600160a01b03821681527f599a298163e1678bb1c676052a8930bf0b8a1261ed6e01b8a2391e55f70001029060200160405180910390a150565b604051633013e93f60e11b815260040160405180910390fd5b6000620000b4836001600160a01b038416620000bd565b90505b92915050565b60008181526001830160205260408120546200010657508154600181810184556000848152602080822090930184905584548482528286019093526040902091909155620000b7565b506000620000b7565b612cd2806200011f6000396000f3fe608060405234801561001057600080fd5b50600436106101f05760003560e01c806367aea3131161010f578063a3d291ba116100a2578063d8f28cf111610071578063d8f28cf114610466578063da0f90d714610479578063da8a4bb81461048c578063f42029c81461049f57600080fd5b8063a3d291ba146103f7578063c0fb6e5114610417578063c7eb5bd91461042a578063cff0ab961461043d57600080fd5b806394f3f81d116100de57806394f3f81d14610391578063961d45c4146103a457806399ab8ae2146103b75780639d7db94e146103d757600080fd5b806367aea313146103385780636d82962a1461034b57806372b6f12a14610376578063894ba8331461038957600080fd5b80633e81afc51161018757806353467d221161015657806353467d22146102ff578063552b16ab14610312578063585690811461031c5780635da6a9ff1461032557600080fd5b80633e81afc51461029457806341b3a0d9146102b457806344bf3c72146102c15780634faf61ab146102ec57600080fd5b806329309d5e116101c357806329309d5e1461024d5780632e39187614610264578063354af9191461027957806335b281531461028157600080fd5b806306a4bb0c146101f557806310231d121461020a57806312f335261461021257806324ba588414610225575b600080fd5b610208610203366004612736565b6104bf565b005b6102086106a7565b610208610220366004612852565b6108d9565b6102386102333660046128b7565b610963565b60405190151581526020015b60405180910390f35b61025660045481565b604051908152602001610244565b61026c610974565b60405161024491906128d4565b610208610985565b61020861028f3660046128b7565b610c82565b6102566102a2366004612736565b60076020526000908152604090205481565b6002546102389060ff1681565b600c546102d4906001600160a01b031681565b6040516001600160a01b039091168152602001610244565b600e546102d4906001600160a01b031681565b61020861030d366004612736565b610ccd565b6010546102569081565b61025660035481565b610208610333366004612736565b610e25565b600b546102d4906001600160a01b031681565b610256610359366004612921565b600a60209081526000928352604080842090915290825290205481565b600f546102d4906001600160a01b031681565b610208611035565b61020861039f3660046128b7565b61110b565b600d546102d4906001600160a01b031681565b6102566103c5366004612736565b60066020526000908152604090205481565b6102566103e5366004612736565b60086020526000908152604090205481565b6102566104053660046128b7565b60096020526000908152604090205481565b610208610425366004612736565b611153565b610208610438366004612951565b61142f565b604080516020808201835260009091528151808201835260105490819052915191825201610244565b610208610474366004612921565b6115ec565b610208610487366004612951565b6118f8565b61020861049a366004612973565b612066565b6102566104ad366004612736565b60056020526000908152604090205481565b6004546000036104fb576040517f769cf70700000000000000000000000000000000000000000000000000000000815260040160405180910390fd5b60008181526008602052604090205415610541576040517fe9eb398900000000000000000000000000000000000000000000000000000000815260040160405180910390fd5b600b546040517fb6e05a2e000000000000000000000000000000000000000000000000000000008152600481018390526000916001600160a01b03169063b6e05a2e9060240160a060405180830381865afa1580156105a4573d6000803e3d6000fd5b505050506040513d601f19601f820116820180604052508101906105c891906129ba565b60409081015160008481526005602090815283822054600790915292812054919350916105ff916105f990856120e3565b906120e3565b90506b033b2e3c9fd0803ce800000060045461061b9190612a59565b6000848152600660205260409020546b033b2e3c9fd0803ce8000000906106429084612a94565b61064c9190612aa7565b6106569190612a59565b600084815260086020526040908190208290555184917fd848235429b00d20885d01b7a28d4a5c534460ce965226128a6411ed9a2616b19161069a91815260200190565b60405180910390a2505050565b60025460ff16156106e4576040517ff59a25d600000000000000000000000000000000000000000000000000000000815260040160405180910390fd5b6004541561071e576040517f156bd48900000000000000000000000000000000000000000000000000000000815260040160405180910390fd5b600b54600d546040517ffabde80c0000000000000000000000000000000000000000000000000000000081526001600160a01b03918216600482015291169063fabde80c90602401602060405180830381865afa158015610783573d6000803e3d6000fd5b505050506040513d601f19601f820116820180604052508101906107a79190612abe565b156107de576040517f6b28570100000000000000000000000000000000000000000000000000000000815260040160405180910390fd5b6010546003546107ee9190612ad7565b421015610827576040517fa771699500000000000000000000000000000000000000000000000000000000815260040160405180910390fd5b600b60009054906101000a90046001600160a01b03166001600160a01b0316638543d5e06040518163ffffffff1660e01b81526004016020604051808303816000875af115801561087c573d6000803e3d6000fd5b505050506040513d601f19601f820116820180604052508101906108a09190612abe565b60048190556040519081527e1fcf1f022b5e84afd6a87cb33e553137cac8c8d8e0a940c417e63a61674ab89060200160405180910390a1565b6108e23361210d565b610918576040517f82b4290000000000000000000000000000000000000000000000000000000000815260040160405180910390fd5b82610924848484612119565b83837fe436a8be7dc6aab90b400800ecc86e46fb600f2e18989b5d0389840fdabbf2ed846040516109559190612aea565b60405180910390a350505050565b600061096e8261210d565b92915050565b6060610980600061214b565b905090565b61098e3361210d565b6109c4576040517f82b4290000000000000000000000000000000000000000000000000000000000815260040160405180910390fd5b60025460ff16610a00576040517f7abbf1c900000000000000000000000000000000000000000000000000000000815260040160405180910390fd5b42600355600280547fffffffffffffffffffffffffffffffffffffffffffffffffffffffffffffff00169055600b54604080517f894ba83300000000000000000000000000000000000000000000000000000000815290516001600160a01b039092169163894ba8339160048082019260009290919082900301818387803b158015610a8b57600080fd5b505af1158015610a9f573d6000803e3d6000fd5b50505050600c60009054906101000a90046001600160a01b03166001600160a01b031663894ba8336040518163ffffffff1660e01b8152600401600060405180830381600087803b158015610af357600080fd5b505af1158015610b07573d6000803e3d6000fd5b5050600f546001600160a01b0316159150610b87905057600f60009054906101000a90046001600160a01b03166001600160a01b031663894ba8336040518163ffffffff1660e01b8152600401600060405180830381600087803b158015610b6e57600080fd5b505af1158015610b82573d6000803e3d6000fd5b505050505b600d60009054906101000a90046001600160a01b03166001600160a01b031663894ba8336040518163ffffffff1660e01b8152600401600060405180830381600087803b158015610bd757600080fd5b505af1158015610beb573d6000803e3d6000fd5b50505050600e60009054906101000a90046001600160a01b03166001600160a01b031663894ba8336040518163ffffffff1660e01b8152600401600060405180830381600087803b158015610c3f57600080fd5b505af1158015610c53573d6000803e3d6000fd5b50506040517ff3cf538e02532541ddf87ca981c158e18dbac102c31a0c481d3033e9de7f0fea925060009150a1565b610c8b3361210d565b610cc1576040517f82b4290000000000000000000000000000000000000000000000000000000000815260040160405180910390fd5b610cca81612158565b50565b600454600003610d09576040517f769cf70700000000000000000000000000000000000000000000000000000000815260040160405180910390fd5b600b54600d546001600160a01b039182169163efabcadc91339116610d3a6b033b2e3c9fd0803ce800000086612aa7565b6040517fffffffff0000000000000000000000000000000000000000000000000000000060e086901b1681526001600160a01b0393841660048201529290911660248301526044820152606401600060405180830381600087803b158015610da157600080fd5b505af1158015610db5573d6000803e3d6000fd5b50503360009081526009602052604081208054859450909250610dd9908490612ad7565b9091555050336000818152600960209081526040918290205491519182527fc30fd1506396e0b631b304a1c052ef0d31bd680846d9a48de24e25364377418f910160405180910390a250565b60025460ff1615610e62576040517ff59a25d600000000000000000000000000000000000000000000000000000000815260040160405180910390fd5b600b546040517f3d422504000000000000000000000000000000000000000000000000000000008152600481018390523360248201526000916001600160a01b031690633d422504906044016040805180830381865afa158015610eca573d6000803e3d6000fd5b505050506040513d601f19601f82011682018060405250810190610eee9190612b56565b90508060200151600014610f2e576040517f21d8b8da00000000000000000000000000000000000000000000000000000000815260040160405180910390fd5b600b54600d5482516001600160a01b0392831692634e14a967928692339283921690610f59906121da565b610f6290612ba5565b60405160e087901b7fffffffff0000000000000000000000000000000000000000000000000000000016815260048101959095526001600160a01b039384166024860152918316604485015290911660648301526084820152600060a482015260c401600060405180830381600087803b158015610fdf57600080fd5b505af1158015610ff3573d6000803e3d6000fd5b505082516040519081523392508491507f3557be968c9b5e1138181ad1af4592cdde59d72b42a1fe32250c3e67748208da906020015b60405180910390a35050565b61103e3361210d565b611074576040517f82b4290000000000000000000000000000000000000000000000000000000000815260040160405180910390fd5b60025460ff166110b0576040517f7abbf1c900000000000000000000000000000000000000000000000000000000815260040160405180910390fd5b600280547fffffffffffffffffffffffffffffffffffffffffffffffffffffffffffffff001690556110e061221b565b6040517f2d4b4ecff7bd7503135271925520a2f6c0d98c9473ffc1a1e72c92502f51b25e90600090a1565b6111143361210d565b61114a576040517f82b4290000000000000000000000000000000000000000000000000000000000815260040160405180910390fd5b610cca8161224d565b60025460ff1615611190576040517ff59a25d600000000000000000000000000000000000000000000000000000000815260040160405180910390fd5b600081815260056020526040902054156111d6576040517f50db165a00000000000000000000000000000000000000000000000000000000815260040160405180910390fd5b600b546040517fb6e05a2e000000000000000000000000000000000000000000000000000000008152600481018390526001600160a01b039091169063b6e05a2e9060240160a060405180830381865afa158015611238573d6000803e3d6000fd5b505050506040513d601f19601f8201168201806040525081019061125c91906129ba565b5160008281526007602052604080822092909255600e5491517fe54201f60000000000000000000000000000000000000000000000000000000081526004810184905290916001600160a01b03169063e54201f690602401606060405180830381865afa1580156112d1573d6000803e3d6000fd5b505050506040513d601f19601f820116820180604052508101906112f59190612bdd565b6000015190506113df816001600160a01b03166357de26a46040518163ffffffff1660e01b8152600401602060405180830381865afa15801561133c573d6000803e3d6000fd5b505050506040513d601f19601f820116820180604052508101906113609190612abe565b600e60009054906101000a90046001600160a01b03166001600160a01b031663c5b748c06040518163ffffffff1660e01b81526004016020604051808303816000875af11580156113b5573d6000803e3d6000fd5b505050506040513d601f19601f820116820180604052508101906113d99190612abe565b906122c8565b600083815260056020526040908190208290555183917f3d95ab876931faa65df8d1540fbf92d188012936ec873c86e1b53de242de540b9161142391815260200190565b60405180910390a25050565b6000828152600860205260408120549003611476576040517f08f6ec7000000000000000000000000000000000000000000000000000000000815260040160405180910390fd5b6000828152600860205260408120546114909083906120e3565b600b546040517f4e5111a600000000000000000000000000000000000000000000000000000000815260048101869052306024820152336044820152606481018390529192506001600160a01b031690634e5111a690608401600060405180830381600087803b15801561150357600080fd5b505af1158015611517573d6000803e3d6000fd5b5050506000848152600a6020908152604080832033845290915281208054859350909190611546908490612ad7565b909155505033600081815260096020908152604080832054878452600a83528184209484529390915290205411156115aa576040517f8678da8700000000000000000000000000000000000000000000000000000000815260040160405180910390fd5b6040805183815260208101839052339185917f89c89edec8e0ee71b9e33d9839f47624e63469c2e905beacf808a1328831a5e2910160405180910390a3505050565b6000828152600560205260408120549003611633576040517faefdc9ab00000000000000000000000000000000000000000000000000000000815260040160405180910390fd5b600b546040517fb6e05a2e000000000000000000000000000000000000000000000000000000008152600481018490526000916001600160a01b03169063b6e05a2e9060240160a060405180830381865afa158015611696573d6000803e3d6000fd5b505050506040513d601f19601f820116820180604052508101906116ba91906129ba565b604090810151600b5491517f3d422504000000000000000000000000000000000000000000000000000000008152600481018690526001600160a01b0385811660248301529193506000929190911690633d422504906044016040805180830381865afa15801561172f573d6000803e3d6000fd5b505050506040513d601f19601f820116820180604052508101906117539190612b56565b9050600061178560056000878152602001908152602001600020546105f98585602001516120e390919063ffffffff16565b905060006117978360000151836122dd565b90506117a38183612a94565b600087815260066020526040812080549091906117c1908490612ad7565b9091555050600b54600d546001600160a01b0391821691634e14a96791899189913091166117ee87612ba5565b6117fb8a602001516121da565b61180490612ba5565b6040517fffffffff0000000000000000000000000000000000000000000000000000000060e089901b16815260048101969096526001600160a01b039485166024870152928416604486015292166064840152608483019190915260a482015260c401600060405180830381600087803b15801561188157600080fd5b505af1158015611895573d6000803e3d6000fd5b50505050846001600160a01b0316867fd77929653e21635d2a3c6d6d56ab6ae74a9ea5906417bc24868492c54dc7e23c600660008a8152602001908152602001600020546040516118e891815260200190565b60405180910390a3505050505050565b600082815260056020526040812054900361193f576040517faefdc9ab00000000000000000000000000000000000000000000000000000000815260040160405180910390fd5b600c546040517fe54201f6000000000000000000000000000000000000000000000000000000008152600481018490526000916001600160a01b03169063e54201f690602401606060405180830381865afa1580156119a2573d6000803e3d6000fd5b505050506040513d601f19601f820116820180604052508101906119c69190612bdd565b51600b546040517fb6e05a2e0000000000000000000000000000000000000000000000000000000081526004810186905291925082916000916001600160a01b03169063b6e05a2e9060240160a060405180830381865afa158015611a2f573d6000803e3d6000fd5b505050506040513d601f19601f82011682018060405250810190611a5391906129ba565b6040015190506000826001600160a01b03166348d9be16866040518263ffffffff1660e01b8152600401611a8991815260200190565b602060405180830381865afa158015611aa6573d6000803e3d6000fd5b505050506040513d601f19601f82011682018060405250810190611aca9190612abe565b6040517f76353627000000000000000000000000000000000000000000000000000000008152600481018790529091506000906001600160a01b03851690637635362790602401602060405180830381865afa158015611b2e573d6000803e3d6000fd5b505050506040513d601f19601f82011682018060405250810190611b529190612abe565b6040517ff16e0fc1000000000000000000000000000000000000000000000000000000008152600481018890529091506000906001600160a01b0386169063f16e0fc190602401602060405180830381865afa158015611bb6573d6000803e3d6000fd5b505050506040513d601f19601f82011682018060405250810190611bda9190612abe565b6040517f45edd29b000000000000000000000000000000000000000000000000000000008152600481018990529091506000906001600160a01b038716906345edd29b90602401602060405180830381865afa158015611c3e573d6000803e3d6000fd5b505050506040513d601f19601f82011682018060405250810190611c629190612c21565b6040517f5e3a02cb000000000000000000000000000000000000000000000000000000008152600481018a90529091506000906001600160a01b03881690635e3a02cb90602401602060405180830381865afa158015611cc6573d6000803e3d6000fd5b505050506040513d601f19601f82011682018060405250810190611cea9190612abe565b600b54600d549192506001600160a01b0390811691631b142820911680611d118886612a94565b6040517fffffffff0000000000000000000000000000000000000000000000000000000060e086901b1681526001600160a01b0393841660048201529290911660248301526044820152606401600060405180830381600087803b158015611d7857600080fd5b505af1158015611d8c573d6000803e3d6000fd5b5050600b54600d546040517f1b1428200000000000000000000000000000000000000000000000000000000081526001600160a01b039182166004820152306024820152604481018a905291169250631b1428209150606401600060405180830381600087803b158015611dff57600080fd5b505af1158015611e13573d6000803e3d6000fd5b5050600b546040517fd94d42080000000000000000000000000000000000000000000000000000000081526001600160a01b038b81166004830152909116925063d94d42089150602401600060405180830381600087803b158015611e7757600080fd5b505af1158015611e8b573d6000803e3d6000fd5b50506040517f933f7608000000000000000000000000000000000000000000000000000000008152600481018c90526001600160a01b038a16925063933f76089150602401600060405180830381600087803b158015611eea57600080fd5b505af1158015611efe573d6000803e3d6000fd5b505050506000868583611f119190612a94565b611f1b9190612a59565b905080600760008d81526020019081526020016000206000828254611f409190612ad7565b9091555050600b54600d546001600160a01b0391821691634e14a967918e918791309116611f6d8a6121da565b611f76886121da565b6040517fffffffff0000000000000000000000000000000000000000000000000000000060e089901b16815260048101969096526001600160a01b039485166024870152928416604486015292166064840152608483019190915260a482015260c401600060405180830381600087803b158015611ff357600080fd5b505af1158015612007573d6000803e3d6000fd5b50505050898b7f7d784e3e4a9b69d510aac038e3c3ba7c6ee1cc96fbbdae4a958349313cca9cd4600760008f81526020019081526020016000205460405161205191815260200190565b60405180910390a35050505050505050505050565b61206f3361210d565b6120a5576040517f82b4290000000000000000000000000000000000000000000000000000000000815260040160405180910390fd5b6120af82826122f4565b6000801b827fe436a8be7dc6aab90b400800ecc86e46fb600f2e18989b5d0389840fdabbf2ed836040516110299190612aea565b60006b033b2e3c9fd0803ce80000006120fc8385612aa7565b6121069190612a59565b9392505050565b600061096e818361254c565b6040517f9d2ff48000000000000000000000000000000000000000000000000000000000815260040160405180910390fd5b606060006121068361256e565b6121636000826125ca565b156121a8576040516001600160a01b03821681527f599a298163e1678bb1c676052a8930bf0b8a1261ed6e01b8a2391e55f7000102906020015b60405180910390a150565b6040517f6027d27e00000000000000000000000000000000000000000000000000000000815260040160405180910390fd5b806000811215612216576040517f44dddea200000000000000000000000000000000000000000000000000000000815260040160405180910390fd5b919050565b6040517f0bcab2f100000000000000000000000000000000000000000000000000000000815260040160405180910390fd5b6122586000826125df565b15612296576040516001600160a01b03821681527f8834a87e641e9716be4f34527af5d23e11624f1ddeefede6ad75a9acfc31b9039060200161219d565b6040517fea8e4eb500000000000000000000000000000000000000000000000000000000815260040160405180910390fd5b6000816120fc670de0b6b3a764000085612aa7565b6000818311156122ed5781612106565b5090919050565b60025460ff16612330576040517f7abbf1c900000000000000000000000000000000000000000000000000000000815260040160405180910390fd5b600061233d826020015190565b9050827f73616665456e67696e65000000000000000000000000000000000000000000000361239e57600b80547fffffffffffffffffffffffff0000000000000000000000000000000000000000166001600160a01b038316179055505050565b827f6c69717569646174696f6e456e67696e65000000000000000000000000000000036123fd57600c80547fffffffffffffffffffffffff0000000000000000000000000000000000000000166001600160a01b038316179055505050565b827f6163636f756e74696e67456e67696e65000000000000000000000000000000000361245c57600d80547fffffffffffffffffffffffff0000000000000000000000000000000000000000166001600160a01b038316179055505050565b827f6f7261636c6552656c6179657200000000000000000000000000000000000000036124bb57600e80547fffffffffffffffffffffffff0000000000000000000000000000000000000000166001600160a01b038316179055505050565b827f73746162696c69747946656554726561737572790000000000000000000000000361251a57600f80547fffffffffffffffffffffffff0000000000000000000000000000000000000000166001600160a01b038316179055505050565b827f73687574646f776e436f6f6c646f776e000000000000000000000000000000000361211957506020015160105550565b6001600160a01b03811660009081526001830160205260408120541515612106565b6060816000018054806020026020016040519081016040528092919081815260200182805480156125be57602002820191906000526020600020905b8154815260200190600101908083116125aa575b50505050509050919050565b6000612106836001600160a01b0384166125f4565b6000612106836001600160a01b038416612643565b600081815260018301602052604081205461263b5750815460018181018455600084815260208082209093018490558454848252828601909352604090209190915561096e565b50600061096e565b6000818152600183016020526040812054801561272c576000612667600183612a94565b855490915060009061267b90600190612a94565b90508181146126e057600086600001828154811061269b5761269b612c3e565b90600052602060002001549050808760000184815481106126be576126be612c3e565b6000918252602080832090910192909255918252600188019052604090208390555b85548690806126f1576126f1612c6d565b60019003818190600052602060002001600090559055856001016000868152602001908152602001600020600090556001935050505061096e565b600091505061096e565b60006020828403121561274857600080fd5b5035919050565b7f4e487b7100000000000000000000000000000000000000000000000000000000600052604160045260246000fd5b6040516060810167ffffffffffffffff811182821017156127a1576127a161274f565b60405290565b600082601f8301126127b857600080fd5b813567ffffffffffffffff808211156127d3576127d361274f565b604051601f83017fffffffffffffffffffffffffffffffffffffffffffffffffffffffffffffffe0908116603f011681019082821181831017156128195761281961274f565b8160405283815286602085880101111561283257600080fd5b836020870160208301376000602085830101528094505050505092915050565b60008060006060848603121561286757600080fd5b8335925060208401359150604084013567ffffffffffffffff81111561288c57600080fd5b612898868287016127a7565b9150509250925092565b6001600160a01b0381168114610cca57600080fd5b6000602082840312156128c957600080fd5b8135612106816128a2565b6020808252825182820181905260009190848201906040850190845b818110156129155783516001600160a01b0316835292840192918401916001016128f0565b50909695505050505050565b6000806040838503121561293457600080fd5b823591506020830135612946816128a2565b809150509250929050565b6000806040838503121561296457600080fd5b50508035926020909101359150565b6000806040838503121561298657600080fd5b82359150602083013567ffffffffffffffff8111156129a457600080fd5b6129b0858286016127a7565b9150509250929050565b600060a082840312156129cc57600080fd5b60405160a0810181811067ffffffffffffffff821117156129ef576129ef61274f565b806040525082518152602083015160208201526040830151604082015260608301516060820152608083015160808201528091505092915050565b7f4e487b7100000000000000000000000000000000000000000000000000000000600052601160045260246000fd5b600082612a8f577f4e487b7100000000000000000000000000000000000000000000000000000000600052601260045260246000fd5b500490565b8181038181111561096e5761096e612a2a565b808202811582820484141761096e5761096e612a2a565b600060208284031215612ad057600080fd5b5051919050565b8082018082111561096e5761096e612a2a565b600060208083528351808285015260005b81811015612b1757858101830151858201604001528201612afb565b5060006040828601015260407fffffffffffffffffffffffffffffffffffffffffffffffffffffffffffffffe0601f8301168501019250505092915050565b600060408284031215612b6857600080fd5b6040516040810181811067ffffffffffffffff82111715612b8b57612b8b61274f565b604052825181526020928301519281019290925250919050565b60007f80000000000000000000000000000000000000000000000000000000000000008203612bd657612bd6612a2a565b5060000390565b600060608284031215612bef57600080fd5b612bf761277e565b8251612c02816128a2565b8152602083810151908201526040928301519281019290925250919050565b600060208284031215612c3357600080fd5b8151612106816128a2565b7f4e487b7100000000000000000000000000000000000000000000000000000000600052603260045260246000fd5b7f4e487b7100000000000000000000000000000000000000000000000000000000600052603160045260246000fdfea26469706673582212205221b7619c62dc2c39b1ccc03af21b2a0ef899c2525c1933a961c194319e376f64736f6c63430008130033",
    "linkReferences": {}
  },
  "methodIdentifiers": {
    "_params()": "552b16ab",
    "accountingEngine()": "961d45c4",
    "addAuthorization(address)": "35b28153",
    "authorizedAccounts()": "2e391876",
    "authorizedAccounts(address)": "24ba5884",
    "calculateCashPrice(bytes32)": "06a4bb0c",
    "coinBag(address)": "a3d291ba",
    "coinsUsedToRedeem(bytes32,address)": "6d82962a",
    "collateralCashPrice(bytes32)": "9d7db94e",
    "collateralShortfall(bytes32)": "99ab8ae2",
    "collateralTotalDebt(bytes32)": "3e81afc5",
    "contractEnabled()": "41b3a0d9",
    "disableContract()": "894ba833",
    "fastTrackAuction(bytes32,uint256)": "da0f90d7",
    "finalCoinPerCollateralPrice(bytes32)": "f42029c8",
    "freeCollateral(bytes32)": "5da6a9ff",
    "freezeCollateralType(bytes32)": "c0fb6e51",
    "liquidationEngine()": "44bf3c72",
    "modifyParameters(bytes32,bytes)": "da8a4bb8",
    "modifyParameters(bytes32,bytes32,bytes)": "12f33526",
    "oracleRelayer()": "4faf61ab",
    "outstandingCoinSupply()": "29309d5e",
    "params()": "cff0ab96",
    "prepareCoinsForRedeeming(uint256)": "53467d22",
    "processSAFE(bytes32,address)": "d8f28cf1",
    "redeemCollateral(bytes32,uint256)": "c7eb5bd9",
    "removeAuthorization(address)": "94f3f81d",
    "safeEngine()": "67aea313",
    "setOutstandingCoinSupply()": "10231d12",
    "shutdownSystem()": "354af919",
    "shutdownTime()": "58569081",
    "stabilityFeeTreasury()": "72b6f12a"
  },
  "id": 129
}