{
  "abi": [
    {
      "inputs": [
        {
          "internalType": "address",
          "name": "_factory",
          "type": "address"
        }
      ],
      "stateMutability": "nonpayable",
      "type": "constructor"
    },
    {
      "inputs": [],
      "name": "NullAddress",
      "type": "error"
    },
    {
      "anonymous": false,
      "inputs": [
        {
          "indexed": false,
          "internalType": "address",
          "name": "_usr",
          "type": "address"
        },
        {
          "indexed": false,
          "internalType": "address",
          "name": "_proxy",
          "type": "address"
        }
      ],
      "name": "Build",
      "type": "event"
    },
    {
      "inputs": [],
      "name": "build",
      "outputs": [
        {
          "internalType": "address payable",
          "name": "_proxy",
          "type": "address"
        }
      ],
      "stateMutability": "nonpayable",
      "type": "function"
    },
    {
      "inputs": [
        {
          "internalType": "address",
          "name": "_owner",
          "type": "address"
        }
      ],
      "name": "build",
      "outputs": [
        {
          "internalType": "address payable",
          "name": "_proxy",
          "type": "address"
        }
      ],
      "stateMutability": "nonpayable",
      "type": "function"
    },
    {
      "inputs": [],
      "name": "factory",
      "outputs": [
        {
          "internalType": "contract HaiProxyFactory",
          "name": "",
          "type": "address"
        }
      ],
      "stateMutability": "view",
      "type": "function"
    },
    {
      "inputs": [
        {
          "internalType": "address",
          "name": "_owner",
          "type": "address"
        }
      ],
      "name": "getProxy",
      "outputs": [
        {
          "internalType": "contract HaiProxy",
          "name": "",
          "type": "address"
        }
      ],
      "stateMutability": "view",
      "type": "function"
    }
  ],
  "bytecode": {
    "object": "0x608060405234801561001057600080fd5b5060405161049538038061049583398101604081905261002f91610094565b6100416001600160a01b038216610067565b600180546001600160a01b0319166001600160a01b0392909216919091179055506100c4565b60006001600160a01b0382166100905760405163e99d5ac560e01b815260040160405180910390fd5b5090565b6000602082840312156100a657600080fd5b81516001600160a01b03811681146100bd57600080fd5b9392505050565b6103c2806100d36000396000f3fe608060405234801561001057600080fd5b506004361061004c5760003560e01c80638e1a55fc14610051578063c455279114610082578063c45a0155146100b8578063f3701da2146100d8575b600080fd5b6100596100eb565b60405173ffffffffffffffffffffffffffffffffffffffff909116815260200160405180910390f35b61005961009036600461034b565b60006020819052908152604090205473ffffffffffffffffffffffffffffffffffffffff1681565b6001546100599073ffffffffffffffffffffffffffffffffffffffff1681565b6100596100e636600461034b565b6100fb565b60006100f63361010c565b905090565b60006101068261010c565b92915050565b73ffffffffffffffffffffffffffffffffffffffff81811660009081526020819052604081205490911615806101f5575073ffffffffffffffffffffffffffffffffffffffff808316600081815260208181526040918290205482517f8da5cb5b000000000000000000000000000000000000000000000000000000008152925193941692638da5cb5b9260048082019392918290030181865afa1580156101b8573d6000803e3d6000fd5b505050506040513d601f19601f820116820180604052508101906101dc919061036f565b73ffffffffffffffffffffffffffffffffffffffff1614155b6101fe57600080fd5b6001546040517ff3701da200000000000000000000000000000000000000000000000000000000815273ffffffffffffffffffffffffffffffffffffffff84811660048301529091169063f3701da2906024016020604051808303816000875af1158015610270573d6000803e3d6000fd5b505050506040513d601f19601f82011682018060405250810190610294919061036f565b73ffffffffffffffffffffffffffffffffffffffff8381166000818152602081815260409182902080547fffffffffffffffffffffffff000000000000000000000000000000000000000016948616948517905581519283528201929092529192507f7dc7288b571724fc253653469146b103ac7feda79b8525a533f3c008a94ba963910160405180910390a1919050565b73ffffffffffffffffffffffffffffffffffffffff8116811461034857600080fd5b50565b60006020828403121561035d57600080fd5b813561036881610326565b9392505050565b60006020828403121561038157600080fd5b81516103688161032656fea264697066735822122011bc75a6fae709afb69a954038cc108d8274223b29ead89b76aa87b3437d728164736f6c63430008130033",
    "linkReferences": {}
  },
  "methodIdentifiers": {
    "build()": "8e1a55fc",
    "build(address)": "f3701da2",
    "factory()": "c45a0155",
    "getProxy(address)": "c4552791"
  },
  "id": 120
}