{
  "abi": [
    {
      "anonymous": false,
      "inputs": [
        {
          "indexed": true,
          "internalType": "address",
          "name": "_sender",
          "type": "address"
        },
        {
          "indexed": true,
          "internalType": "address",
          "name": "_owner",
          "type": "address"
        },
        {
          "indexed": false,
          "internalType": "address",
          "name": "_proxy",
          "type": "address"
        }
      ],
      "name": "Created",
      "type": "event"
    },
    {
      "inputs": [],
      "name": "build",
      "outputs": [
        {
          "internalType": "address payable",
          "name": "_proxy",
          "type": "address"
        }
      ],
      "stateMutability": "nonpayable",
      "type": "function"
    },
    {
      "inputs": [
        {
          "internalType": "address",
          "name": "_owner",
          "type": "address"
        }
      ],
      "name": "build",
      "outputs": [
        {
          "internalType": "address payable",
          "name": "_proxy",
          "type": "address"
        }
      ],
      "stateMutability": "nonpayable",
      "type": "function"
    },
    {
      "inputs": [
        {
          "internalType": "address",
          "name": "",
          "type": "address"
        }
      ],
      "name": "isProxy",
      "outputs": [
        {
          "internalType": "bool",
          "name": "",
          "type": "bool"
        }
      ],
      "stateMutability": "view",
      "type": "function"
    }
  ],
  "bytecode": {
    "object": "0x608060405234801561001057600080fd5b5061082d806100206000396000f3fe608060405234801561001057600080fd5b50600436106100415760003560e01c806329710388146100465780638e1a55fc1461007e578063f3701da2146100ab575b600080fd5b6100696100543660046101c4565b60006020819052908152604090205460ff1681565b60405190151581526020015b60405180910390f35b6100866100be565b60405173ffffffffffffffffffffffffffffffffffffffff9091168152602001610075565b6100866100b93660046101c4565b6100ce565b60006100c9336100df565b905090565b60006100d9826100df565b92915050565b6000816040516100ee906101b7565b73ffffffffffffffffffffffffffffffffffffffff9091168152602001604051809103906000f080158015610127573d6000803e3d6000fd5b5073ffffffffffffffffffffffffffffffffffffffff8181166000818152602081815260409182902080547fffffffffffffffffffffffffffffffffffffffffffffffffffffffffffffff0016600117905590519182529293509084169133917f454b0172f64812df0cd504c2bd7df7aab8ff328a54d946b4bd0fa7c527adf9cc910160405180910390a3919050565b6105f68061020283390190565b6000602082840312156101d657600080fd5b813573ffffffffffffffffffffffffffffffffffffffff811681146101fa57600080fd5b939250505056fe608060405234801561001057600080fd5b506040516105f63803806105f683398101604081905261002f91610094565b8061003981610040565b50506100c4565b600080546001600160a01b0319166001600160a01b0383169081179091556040519081527f167d3e9c1016ab80e58802ca9da10ce5c6a0f4debc46a2e7a2cd9e56899a4fb59060200160405180910390a150565b6000602082840312156100a657600080fd5b81516001600160a01b03811681146100bd57600080fd5b9392505050565b610523806100d36000396000f3fe6080604052600436106100345760003560e01c806313af4035146100395780631cff79cd1461005b5780638da5cb5b14610084575b600080fd5b34801561004557600080fd5b5061005961005436600461032b565b6100d6565b005b61006e61006936600461037c565b610133565b60405161007b9190610480565b60405180910390f35b34801561009057600080fd5b506000546100b19073ffffffffffffffffffffffffffffffffffffffff1681565b60405173ffffffffffffffffffffffffffffffffffffffff909116815260200161007b565b60005473ffffffffffffffffffffffffffffffffffffffff163314610127576040517f5fc483c500000000000000000000000000000000000000000000000000000000815260040160405180910390fd5b61013081610289565b50565b60005460609073ffffffffffffffffffffffffffffffffffffffff163314610187576040517f5fc483c500000000000000000000000000000000000000000000000000000000815260040160405180910390fd5b73ffffffffffffffffffffffffffffffffffffffff83166101d4576040517f8de42c8300000000000000000000000000000000000000000000000000000000815260040160405180910390fd5b60008373ffffffffffffffffffffffffffffffffffffffff16836040516101fb91906104d1565b600060405180830381855af49150503d8060008114610236576040519150601f19603f3d011682016040523d82523d6000602084013e61023b565b606091505b50925090508061028257816040517fa932c97a0000000000000000000000000000000000000000000000000000000081526004016102799190610480565b60405180910390fd5b5092915050565b600080547fffffffffffffffffffffffff00000000000000000000000000000000000000001673ffffffffffffffffffffffffffffffffffffffff83169081179091556040519081527f167d3e9c1016ab80e58802ca9da10ce5c6a0f4debc46a2e7a2cd9e56899a4fb59060200160405180910390a150565b803573ffffffffffffffffffffffffffffffffffffffff8116811461032657600080fd5b919050565b60006020828403121561033d57600080fd5b61034682610302565b9392505050565b7f4e487b7100000000000000000000000000000000000000000000000000000000600052604160045260246000fd5b6000806040838503121561038f57600080fd5b61039883610302565b9150602083013567ffffffffffffffff808211156103b557600080fd5b818501915085601f8301126103c957600080fd5b8135818111156103db576103db61034d565b604051601f82017fffffffffffffffffffffffffffffffffffffffffffffffffffffffffffffffe0908116603f011681019083821181831017156104215761042161034d565b8160405282815288602084870101111561043a57600080fd5b8260208601602083013760006020848301015280955050505050509250929050565b60005b8381101561047757818101518382015260200161045f565b50506000910152565b602081526000825180602084015261049f81604085016020870161045c565b601f017fffffffffffffffffffffffffffffffffffffffffffffffffffffffffffffffe0169190910160400192915050565b600082516104e381846020870161045c565b919091019291505056fea2646970667358221220244a0b3d1ad181c52305d745429888e20728e997801d1626af4d45e9e7ba44a964736f6c63430008130033a2646970667358221220a383836739a00ca84590bbff69869932c096b64b01366703cf29f8229c3521c464736f6c63430008130033",
    "linkReferences": {}
  },
  "methodIdentifiers": {
    "build()": "8e1a55fc",
    "build(address)": "f3701da2",
    "isProxy(address)": "29710388"
  },
  "id": 119
}