{
  "abi": [
    {
      "inputs": [
        {
          "internalType": "address",
          "name": "_safeEngine",
          "type": "address"
        }
      ],
      "stateMutability": "nonpayable",
      "type": "constructor"
    },
    {
      "inputs": [],
      "name": "AlreadySafeOwner",
      "type": "error"
    },
    {
      "inputs": [],
      "name": "CollateralTypesMismatch",
      "type": "error"
    },
    {
      "inputs": [],
      "name": "HandlerNotAllowed",
      "type": "error"
    },
    {
      "inputs": [],
      "name": "IntOverflow",
      "type": "error"
    },
    {
      "inputs": [],
      "name": "NullAddress",
      "type": "error"
    },
    {
      "inputs": [],
      "name": "SafeNotAllowed",
      "type": "error"
    },
    {
      "inputs": [],
      "name": "ZeroAddress",
      "type": "error"
    },
    {
      "anonymous": false,
      "inputs": [
        {
          "indexed": false,
          "internalType": "address",
          "name": "_sender",
          "type": "address"
        },
        {
          "indexed": false,
          "internalType": "address",
          "name": "_usr",
          "type": "address"
        },
        {
          "indexed": false,
          "internalType": "uint256",
          "name": "_ok",
          "type": "uint256"
        }
      ],
      "name": "AllowHandler",
      "type": "event"
    },
    {
      "anonymous": false,
      "inputs": [
        {
          "indexed": false,
          "internalType": "address",
          "name": "_sender",
          "type": "address"
        },
        {
          "indexed": false,
          "internalType": "uint256",
          "name": "_safe",
          "type": "uint256"
        },
        {
          "indexed": false,
          "internalType": "address",
          "name": "_usr",
          "type": "address"
        },
        {
          "indexed": false,
          "internalType": "uint256",
          "name": "_ok",
          "type": "uint256"
        }
      ],
      "name": "AllowSAFE",
      "type": "event"
    },
    {
      "anonymous": false,
      "inputs": [
        {
          "indexed": false,
          "internalType": "address",
          "name": "_sender",
          "type": "address"
        },
        {
          "indexed": false,
          "internalType": "address",
          "name": "_src",
          "type": "address"
        },
        {
          "indexed": false,
          "internalType": "uint256",
          "name": "_safe",
          "type": "uint256"
        }
      ],
      "name": "EnterSystem",
      "type": "event"
    },
    {
      "anonymous": false,
      "inputs": [
        {
          "indexed": false,
          "internalType": "address",
          "name": "_sender",
          "type": "address"
        },
        {
          "indexed": false,
          "internalType": "uint256",
          "name": "_safe",
          "type": "uint256"
        },
        {
          "indexed": false,
          "internalType": "int256",
          "name": "_deltaCollateral",
          "type": "int256"
        },
        {
          "indexed": false,
          "internalType": "int256",
          "name": "_deltaDebt",
          "type": "int256"
        }
      ],
      "name": "ModifySAFECollateralization",
      "type": "event"
    },
    {
      "anonymous": false,
      "inputs": [
        {
          "indexed": false,
          "internalType": "address",
          "name": "_sender",
          "type": "address"
        },
        {
          "indexed": false,
          "internalType": "uint256",
          "name": "_safeSrc",
          "type": "uint256"
        },
        {
          "indexed": false,
          "internalType": "uint256",
          "name": "_safeDst",
          "type": "uint256"
        }
      ],
      "name": "MoveSAFE",
      "type": "event"
    },
    {
      "anonymous": false,
      "inputs": [
        {
          "indexed": true,
          "internalType": "address",
          "name": "_sender",
          "type": "address"
        },
        {
          "indexed": true,
          "internalType": "address",
          "name": "_own",
          "type": "address"
        },
        {
          "indexed": true,
          "internalType": "uint256",
          "name": "_safe",
          "type": "uint256"
        }
      ],
      "name": "OpenSAFE",
      "type": "event"
    },
    {
      "anonymous": false,
      "inputs": [
        {
          "indexed": false,
          "internalType": "address",
          "name": "_sender",
          "type": "address"
        },
        {
          "indexed": false,
          "internalType": "uint256",
          "name": "_safe",
          "type": "uint256"
        },
        {
          "indexed": false,
          "internalType": "address",
          "name": "_liquidationEngine",
          "type": "address"
        },
        {
          "indexed": false,
          "internalType": "address",
          "name": "_saviour",
          "type": "address"
        }
      ],
      "name": "ProtectSAFE",
      "type": "event"
    },
    {
      "anonymous": false,
      "inputs": [
        {
          "indexed": false,
          "internalType": "address",
          "name": "_sender",
          "type": "address"
        },
        {
          "indexed": false,
          "internalType": "uint256",
          "name": "_safe",
          "type": "uint256"
        },
        {
          "indexed": false,
          "internalType": "address",
          "name": "_dst",
          "type": "address"
        }
      ],
      "name": "QuitSystem",
      "type": "event"
    },
    {
      "anonymous": false,
      "inputs": [
        {
          "indexed": false,
          "internalType": "address",
          "name": "_sender",
          "type": "address"
        },
        {
          "indexed": false,
          "internalType": "uint256",
          "name": "_safe",
          "type": "uint256"
        },
        {
          "indexed": false,
          "internalType": "address",
          "name": "_dst",
          "type": "address"
        },
        {
          "indexed": false,
          "internalType": "uint256",
          "name": "_wad",
          "type": "uint256"
        }
      ],
      "name": "TransferCollateral",
      "type": "event"
    },
    {
      "anonymous": false,
      "inputs": [
        {
          "indexed": false,
          "internalType": "address",
          "name": "_sender",
          "type": "address"
        },
        {
          "indexed": false,
          "internalType": "bytes32",
          "name": "_cType",
          "type": "bytes32"
        },
        {
          "indexed": false,
          "internalType": "uint256",
          "name": "_safe",
          "type": "uint256"
        },
        {
          "indexed": false,
          "internalType": "address",
          "name": "_dst",
          "type": "address"
        },
        {
          "indexed": false,
          "internalType": "uint256",
          "name": "_wad",
          "type": "uint256"
        }
      ],
      "name": "TransferCollateral",
      "type": "event"
    },
    {
      "anonymous": false,
      "inputs": [
        {
          "indexed": false,
          "internalType": "address",
          "name": "_sender",
          "type": "address"
        },
        {
          "indexed": false,
          "internalType": "uint256",
          "name": "_safe",
          "type": "uint256"
        },
        {
          "indexed": false,
          "internalType": "address",
          "name": "_dst",
          "type": "address"
        },
        {
          "indexed": false,
          "internalType": "uint256",
          "name": "_rad",
          "type": "uint256"
        }
      ],
      "name": "TransferInternalCoins",
      "type": "event"
    },
    {
      "anonymous": false,
      "inputs": [
        {
          "indexed": false,
          "internalType": "address",
          "name": "_sender",
          "type": "address"
        },
        {
          "indexed": false,
          "internalType": "uint256",
          "name": "_safe",
          "type": "uint256"
        },
        {
          "indexed": false,
          "internalType": "address",
          "name": "_dst",
          "type": "address"
        }
      ],
      "name": "TransferSAFEOwnership",
      "type": "event"
    },
    {
      "inputs": [
        {
          "internalType": "uint256",
          "name": "_safe",
          "type": "uint256"
        }
      ],
      "name": "addSAFE",
      "outputs": [],
      "stateMutability": "nonpayable",
      "type": "function"
    },
    {
      "inputs": [
        {
          "internalType": "address",
          "name": "_usr",
          "type": "address"
        },
        {
          "internalType": "uint256",
          "name": "_ok",
          "type": "uint256"
        }
      ],
      "name": "allowHandler",
      "outputs": [],
      "stateMutability": "nonpayable",
      "type": "function"
    },
    {
      "inputs": [
        {
          "internalType": "uint256",
          "name": "_safe",
          "type": "uint256"
        },
        {
          "internalType": "address",
          "name": "_usr",
          "type": "address"
        },
        {
          "internalType": "uint256",
          "name": "_ok",
          "type": "uint256"
        }
      ],
      "name": "allowSAFE",
      "outputs": [],
      "stateMutability": "nonpayable",
      "type": "function"
    },
    {
      "inputs": [
        {
          "internalType": "address",
          "name": "_src",
          "type": "address"
        },
        {
          "internalType": "uint256",
          "name": "_safe",
          "type": "uint256"
        }
      ],
      "name": "enterSystem",
      "outputs": [],
      "stateMutability": "nonpayable",
      "type": "function"
    },
    {
      "inputs": [
        {
          "internalType": "address",
          "name": "_usr",
          "type": "address"
        }
      ],
      "name": "getSafes",
      "outputs": [
        {
          "internalType": "uint256[]",
          "name": "_safes",
          "type": "uint256[]"
        }
      ],
      "stateMutability": "view",
      "type": "function"
    },
    {
      "inputs": [
        {
          "internalType": "address",
          "name": "_usr",
          "type": "address"
        },
        {
          "internalType": "bytes32",
          "name": "_cType",
          "type": "bytes32"
        }
      ],
      "name": "getSafes",
      "outputs": [
        {
          "internalType": "uint256[]",
          "name": "_safes",
          "type": "uint256[]"
        }
      ],
      "stateMutability": "view",
      "type": "function"
    },
    {
      "inputs": [
        {
          "internalType": "address",
          "name": "_usr",
          "type": "address"
        }
      ],
      "name": "getSafesData",
      "outputs": [
        {
          "internalType": "uint256[]",
          "name": "_safes",
          "type": "uint256[]"
        },
        {
          "internalType": "address[]",
          "name": "_safeHandlers",
          "type": "address[]"
        },
        {
          "internalType": "bytes32[]",
          "name": "_cTypes",
          "type": "bytes32[]"
        }
      ],
      "stateMutability": "view",
      "type": "function"
    },
    {
      "inputs": [
        {
          "internalType": "address",
          "name": "_safeHandler",
          "type": "address"
        },
        {
          "internalType": "address",
          "name": "_caller",
          "type": "address"
        }
      ],
      "name": "handlerCan",
      "outputs": [
        {
          "internalType": "uint256",
          "name": "_ok",
          "type": "uint256"
        }
      ],
      "stateMutability": "view",
      "type": "function"
    },
    {
      "inputs": [
        {
          "internalType": "uint256",
          "name": "_safe",
          "type": "uint256"
        },
        {
          "internalType": "int256",
          "name": "_deltaCollateral",
          "type": "int256"
        },
        {
          "internalType": "int256",
          "name": "_deltaDebt",
          "type": "int256"
        }
      ],
      "name": "modifySAFECollateralization",
      "outputs": [],
      "stateMutability": "nonpayable",
      "type": "function"
    },
    {
      "inputs": [
        {
          "internalType": "uint256",
          "name": "_safeSrc",
          "type": "uint256"
        },
        {
          "internalType": "uint256",
          "name": "_safeDst",
          "type": "uint256"
        }
      ],
      "name": "moveSAFE",
      "outputs": [],
      "stateMutability": "nonpayable",
      "type": "function"
    },
    {
      "inputs": [
        {
          "internalType": "bytes32",
          "name": "_cType",
          "type": "bytes32"
        },
        {
          "internalType": "address",
          "name": "_usr",
          "type": "address"
        }
      ],
      "name": "openSAFE",
      "outputs": [
        {
          "internalType": "uint256",
          "name": "_id",
          "type": "uint256"
        }
      ],
      "stateMutability": "nonpayable",
      "type": "function"
    },
    {
      "inputs": [
        {
          "internalType": "uint256",
          "name": "_safe",
          "type": "uint256"
        },
        {
          "internalType": "address",
          "name": "_liquidationEngine",
          "type": "address"
        },
        {
          "internalType": "address",
          "name": "_saviour",
          "type": "address"
        }
      ],
      "name": "protectSAFE",
      "outputs": [],
      "stateMutability": "nonpayable",
      "type": "function"
    },
    {
      "inputs": [
        {
          "internalType": "uint256",
          "name": "_safe",
          "type": "uint256"
        },
        {
          "internalType": "address",
          "name": "_dst",
          "type": "address"
        }
      ],
      "name": "quitSystem",
      "outputs": [],
      "stateMutability": "nonpayable",
      "type": "function"
    },
    {
      "inputs": [
        {
          "internalType": "uint256",
          "name": "_safe",
          "type": "uint256"
        }
      ],
      "name": "removeSAFE",
      "outputs": [],
      "stateMutability": "nonpayable",
      "type": "function"
    },
    {
      "inputs": [
        {
          "internalType": "address",
          "name": "_owner",
          "type": "address"
        },
        {
          "internalType": "uint256",
          "name": "_safeId",
          "type": "uint256"
        },
        {
          "internalType": "address",
          "name": "_caller",
          "type": "address"
        }
      ],
      "name": "safeCan",
      "outputs": [
        {
          "internalType": "uint256",
          "name": "_ok",
          "type": "uint256"
        }
      ],
      "stateMutability": "view",
      "type": "function"
    },
    {
      "inputs": [
        {
          "internalType": "uint256",
          "name": "_safe",
          "type": "uint256"
        }
      ],
      "name": "safeData",
      "outputs": [
        {
          "components": [
            {
              "internalType": "address",
              "name": "owner",
              "type": "address"
            },
            {
              "internalType": "address",
              "name": "safeHandler",
              "type": "address"
            },
            {
              "internalType": "bytes32",
              "name": "collateralType",
              "type": "bytes32"
            }
          ],
          "internalType": "struct HaiSafeManager.SAFEData",
          "name": "_sData",
          "type": "tuple"
        }
      ],
      "stateMutability": "view",
      "type": "function"
    },
    {
      "inputs": [],
      "name": "safeEngine",
      "outputs": [
        {
          "internalType": "address",
          "name": "",
          "type": "address"
        }
      ],
      "stateMutability": "view",
      "type": "function"
    },
    {
      "inputs": [
        {
          "internalType": "uint256",
          "name": "_safe",
          "type": "uint256"
        },
        {
          "internalType": "address",
          "name": "_dst",
          "type": "address"
        },
        {
          "internalType": "uint256",
          "name": "_wad",
          "type": "uint256"
        }
      ],
      "name": "transferCollateral",
      "outputs": [],
      "stateMutability": "nonpayable",
      "type": "function"
    },
    {
      "inputs": [
        {
          "internalType": "bytes32",
          "name": "_cType",
          "type": "bytes32"
        },
        {
          "internalType": "uint256",
          "name": "_safe",
          "type": "uint256"
        },
        {
          "internalType": "address",
          "name": "_dst",
          "type": "address"
        },
        {
          "internalType": "uint256",
          "name": "_wad",
          "type": "uint256"
        }
      ],
      "name": "transferCollateral",
      "outputs": [],
      "stateMutability": "nonpayable",
      "type": "function"
    },
    {
      "inputs": [
        {
          "internalType": "uint256",
          "name": "_safe",
          "type": "uint256"
        },
        {
          "internalType": "address",
          "name": "_dst",
          "type": "address"
        },
        {
          "internalType": "uint256",
          "name": "_rad",
          "type": "uint256"
        }
      ],
      "name": "transferInternalCoins",
      "outputs": [],
      "stateMutability": "nonpayable",
      "type": "function"
    },
    {
      "inputs": [
        {
          "internalType": "uint256",
          "name": "_safe",
          "type": "uint256"
        },
        {
          "internalType": "address",
          "name": "_dst",
          "type": "address"
        }
      ],
      "name": "transferSAFEOwnership",
      "outputs": [],
      "stateMutability": "nonpayable",
      "type": "function"
    }
  ],
  "bytecode": {
    "object": "0x60806040523480156200001157600080fd5b50604051620028e9380380620028e983398101604081905262000034916200009d565b620000486001600160a01b0382166200006f565b600080546001600160a01b0319166001600160a01b039290921691909117905550620000cf565b60006001600160a01b038216620000995760405163e99d5ac560e01b815260040160405180910390fd5b5090565b600060208284031215620000b057600080fd5b81516001600160a01b0381168114620000c857600080fd5b9392505050565b61280a80620000df6000396000f3fe60806040523480156200001157600080fd5b5060043610620001955760003560e01c80636f0942a411620000e9578063a26292db1162000097578063ce05264d116200006e578063ce05264d1462000422578063d983ff951462000450578063e0decbcd146200046757600080fd5b8063a26292db14620003dd578063aa1d8d8114620003f4578063c78101f8146200040b57600080fd5b80637896835e11620000cc5780637896835e146200039857806380bdb6b214620003af578063871581a214620003c657600080fd5b80636f0942a4146200036a5780636ffdabbf146200038157600080fd5b80634e1db2bb116200014757806361120929116200012a578063611209291462000300578063660e1607146200032657806367aea313146200033d57600080fd5b80634e1db2bb14620002955780634fa053b114620002bd57600080fd5b806335c9c6e9116200017c57806335c9c6e914620001ca578063391735c114620002675780633a164433146200027e57600080fd5b8063018477a5146200019a578063111d354114620001b3575b600080fd5b620001b1620001ab36600462002240565b6200047e565b005b620001b1620001c436600462002263565b62000851565b62000232620001db36600462002263565b60408051606080820183526000808352602080840182905292840181905293845260048252928290208251938401835280546001600160a01b03908116855260018201541691840191909152600201549082015290565b6040805182516001600160a01b0390811682526020808501519091169082015291810151908201526060015b60405180910390f35b620001b16200027836600462002295565b6200096a565b620001b16200028f36600462002263565b620009d5565b620002ac620002a6366004620022c2565b62000a54565b6040516200025e939291906200231d565b620002f1620002ce366004620023bb565b600560209081526000938452604080852082529284528284209052825290205481565b6040519081526020016200025e565b6200031762000311366004620022c2565b62000c0c565b6040516200025e9190620023fc565b620001b16200033736600462002411565b62000c38565b60005462000351906001600160a01b031681565b6040516001600160a01b0390911681526020016200025e565b620001b16200037b36600462002449565b62000ddc565b620001b16200039236600462002295565b62000f7a565b62000317620003a936600462002295565b6200125f565b620001b1620003c036600462002481565b62001297565b620001b1620003d736600462002411565b62001522565b620001b1620003ee36600462002481565b620016c5565b620001b162000405366004620024b0565b620019f9565b620001b16200041c366004620024f0565b62001ba8565b620002f1620004333660046200251d565b600660209081526000928352604080842090915290825290205481565b620002f16200046136600462002481565b62001d4d565b620001b16200047836600462002411565b62001f05565b60008281526004602052604090205482906001600160a01b0316338114801590620004d257506001600160a01b03811660009081526005602090815260408083208584528252808320338452909152902054155b156200050a576040517fdba06d6500000000000000000000000000000000000000000000000000000000815260040160405180910390fd5b60008381526004602052604090205483906001600160a01b03163381148015906200055e57506001600160a01b03811660009081526005602090815260408083208584528252808320338452909152902054155b1562000596576040517fdba06d6500000000000000000000000000000000000000000000000000000000815260040160405180910390fd5b600086815260046020818152604080842081516060808201845282546001600160a01b0390811683526001808501548216848801526002948501548487019081528e8a52978752978590208551928301865280548216835297880154169481019490945294015490820181905291519091146200063f576040517fd79967b700000000000000000000000000000000000000000000000000000000815260040160405180910390fd5b60008054604084810151602086015191517f3d42250400000000000000000000000000000000000000000000000000000000815260048101919091526001600160a01b039182166024820152911690633d422504906044016040805180830381865afa158015620006b4573d6000803e3d6000fd5b505050506040513d601f19601f82011682018060405250810190620006da91906200257b565b90506000620006ed826000015162002011565b9050600062000700836020015162002011565b6000546040878101516020808a01519089015192517f476bb6ef00000000000000000000000000000000000000000000000000000000815260048101929092526001600160a01b03908116602483015291821660448201526064810186905260848101849052929350169063476bb6ef9060a401600060405180830381600087803b1580156200078f57600080fd5b505af1158015620007a4573d6000803e3d6000fd5b505086516001600160a01b03166000908152600260205260409020620007ce925090508c62002053565b5084516001600160a01b03166000908152600360209081526040808320818901518452909152902062000802908c62002053565b5060408051338152602081018d90529081018b90527fa97fba7e365c0128f8b08a83e0818826957948356accc061289463915f4aef699060600160405180910390a15050505050505050505050565b60008181526004602052604090205481906001600160a01b0316338114801590620008a557506001600160a01b03811660009081526005602090815260408083208584528252808320338452909152902054155b15620008dd576040517fdba06d6500000000000000000000000000000000000000000000000000000000815260040160405180910390fd5b6000838152600460209081526040808320815160608101835281546001600160a01b0390811680835260018401549091168286015260029283015482850152855292529091206200092f908562002053565b5080516001600160a01b03166000908152600360209081526040808320818501518452909152902062000963908562002053565b5050505050565b3360008181526006602090815260408083206001600160a01b0387168085529083529281902085905580519384529083019190915281018290527faa78deb20213efe10f6ff8128a962635826ed67c51a5f7bf318dd1c37ceabbd09060600160405180910390a15050565b6000818152600460209081526040808320815160608101835281546001600160a01b0390811682526001830154168185015260029182015481840152338552925290912062000a25908362002061565b50336000908152600360209081526040808320848201518452909152902062000a4f908362002061565b505050565b6001600160a01b03811660009081526002602052604090206060908190819062000a7e906200206f565b9250825167ffffffffffffffff81111562000a9d5762000a9d6200254c565b60405190808252806020026020018201604052801562000ac7578160200160208202803683370190505b509150825167ffffffffffffffff81111562000ae75762000ae76200254c565b60405190808252806020026020018201604052801562000b11578160200160208202803683370190505b50905060005b835181101562000c04576004600085838151811062000b3a5762000b3a620025f3565b6020026020010151815260200190815260200160002060010160009054906101000a90046001600160a01b031683828151811062000b7c5762000b7c620025f3565b60200260200101906001600160a01b031690816001600160a01b0316815250506004600085838151811062000bb55762000bb5620025f3565b602002602001015181526020019081526020016000206002015482828151811062000be45762000be4620025f3565b60209081029190910101528062000bfb8162002651565b91505062000b17565b509193909250565b6001600160a01b038116600090815260026020526040902060609062000c32906200206f565b92915050565b60008381526004602052604090205483906001600160a01b031633811480159062000c8c57506001600160a01b03811660009081526005602090815260408083208584528252808320338452909152902054155b1562000cc4576040517fdba06d6500000000000000000000000000000000000000000000000000000000815260040160405180910390fd5b6000858152600460208181526040808420815160608101835281546001600160a01b0390811682526001830154811694820185905260029092015481840152945491517fefabcadc00000000000000000000000000000000000000000000000000000000815293840192909252878216602484015260448301879052169063efabcadc90606401600060405180830381600087803b15801562000d6657600080fd5b505af115801562000d7b573d6000803e3d6000fd5b505060408051338152602081018a90526001600160a01b03891691810191909152606081018790527f4bcf3a338d8f80224ef2faba6a44cf6740cc4ba448c950d7c99bbe02da4b710b925060800190505b60405180910390a1505050505050565b60008381526004602052604090205483906001600160a01b031633811480159062000e3057506001600160a01b03811660009081526005602090815260408083208584528252808320338452909152902054155b1562000e68576040517fdba06d6500000000000000000000000000000000000000000000000000000000815260040160405180910390fd5b600085815260046020818152604092839020835160608101855281546001600160a01b0390811682526001830154811693820184905260029092015481860181905294517f3896a3840000000000000000000000000000000000000000000000000000000081529384019490945260248301919091528581166044830152861690633896a38490606401600060405180830381600087803b15801562000f0d57600080fd5b505af115801562000f22573d6000803e3d6000fd5b505060408051338152602081018a90526001600160a01b03808a169282019290925290871660608201527f2dd35b03a7c5d91157bc84411fbe9950d393a57972a764a09c74fdc2316ad29d9250608001905062000dcc565b81336001600160a01b0382161480159062000fb657506001600160a01b0381166000908152600660209081526040808320338452909152902054155b1562000fee576040517fbd853b6600000000000000000000000000000000000000000000000000000000815260040160405180910390fd5b60008281526004602052604090205482906001600160a01b03163381148015906200104257506001600160a01b03811660009081526005602090815260408083208584528252808320338452909152902054155b156200107a576040517fdba06d6500000000000000000000000000000000000000000000000000000000815260040160405180910390fd5b6000848152600460208181526040808420815160608101835281546001600160a01b03908116825260018301548116948201859052600290920154818401819052865493517f3d422504000000000000000000000000000000000000000000000000000000008152958601526024850193909352919392911690633d422504906044016040805180830381865afa1580156200111a573d6000803e3d6000fd5b505050506040513d601f19601f820116820180604052508101906200114091906200257b565b9050600062001153826000015162002011565b9050600062001166836020015162002011565b600054604086810151602088015191517f476bb6ef00000000000000000000000000000000000000000000000000000000815260048101919091526001600160a01b038d8116602483015291821660448201526064810186905260848101849052929350169063476bb6ef9060a401600060405180830381600087803b158015620011f057600080fd5b505af115801562001205573d6000803e3d6000fd5b5050604080513381526001600160a01b038d1660208201529081018b90527f218e81d047133e990e0c3fef0ae3fdbc9b1de4b9775baac9b011b45f585cd64a925060600190505b60405180910390a1505050505050505050565b6001600160a01b0382166000908152600360209081526040808320848452909152902060609062001290906200206f565b9392505050565b60008281526004602052604090205482906001600160a01b0316338114801590620012eb57506001600160a01b03811660009081526005602090815260408083208584528252808320338452909152902054155b1562001323576040517fdba06d6500000000000000000000000000000000000000000000000000000000815260040160405180910390fd5b6001600160a01b03831662001364576040517fd92e233d00000000000000000000000000000000000000000000000000000000815260040160405180910390fd5b600084815260046020908152604091829020825160608101845281546001600160a01b03908116808352600184015482169483019490945260029092015493810193909352851603620013e3576040517f9637214200000000000000000000000000000000000000000000000000000000815260040160405180910390fd5b80516001600160a01b0316600090815260026020526040902062001408908662002053565b5060015481516001600160a01b0316600090815260036020908152604080832081860151845290915290206200143e9162002053565b506001600160a01b038416600090815260026020526040902062001463908662002061565b506001546001600160a01b03851660009081526003602090815260408083208582015184529091529020620014989162002061565b5060008581526004602090815260409182902080546001600160a01b0388167fffffffffffffffffffffffff0000000000000000000000000000000000000000909116811790915582513381529182018890528183015290517f53a4da6d15fe50375abfb512358024b4a99422da4c26736d2ed0f9540ddb27969181900360600190a15050505050565b60008381526004602052604090205483906001600160a01b03163381148015906200157657506001600160a01b03811660009081526005602090815260408083208584528252808320338452909152902054155b15620015ae576040517fdba06d6500000000000000000000000000000000000000000000000000000000815260040160405180910390fd5b6000858152600460208181526040808420815160608101835281546001600160a01b03908116825260018301548116948201859052600290920154818401819052955492517f4e5111a60000000000000000000000000000000000000000000000000000000081529485019590955260248401929092528782166044840152606483018790521690634e5111a690608401600060405180830381600087803b1580156200165a57600080fd5b505af11580156200166f573d6000803e3d6000fd5b505060408051338152602081018a90526001600160a01b03891691810191909152606081018790527fc0db7defff3210677ded74d20a6b47a7e48901c4ca7a5978dbed3826f4870d309250608001905062000dcc565b60008281526004602052604090205482906001600160a01b03163381148015906200171957506001600160a01b03811660009081526005602090815260408083208584528252808320338452909152902054155b1562001751576040517fdba06d6500000000000000000000000000000000000000000000000000000000815260040160405180910390fd5b82336001600160a01b038216148015906200178d57506001600160a01b0381166000908152600660209081526040808320338452909152902054155b15620017c5576040517fbd853b6600000000000000000000000000000000000000000000000000000000815260040160405180910390fd5b6000858152600460208181526040808420815160608101835281546001600160a01b03908116825260018301548116948201859052600290920154818401819052865493517f3d422504000000000000000000000000000000000000000000000000000000008152958601526024850193909352919392911690633d422504906044016040805180830381865afa15801562001865573d6000803e3d6000fd5b505050506040513d601f19601f820116820180604052508101906200188b91906200257b565b905060006200189e826000015162002011565b90506000620018b1836020015162002011565b600054604086810151602088015191517f476bb6ef00000000000000000000000000000000000000000000000000000000815260048101919091526001600160a01b0391821660248201528b821660448201526064810186905260848101849052929350169063476bb6ef9060a401600060405180830381600087803b1580156200193b57600080fd5b505af115801562001950573d6000803e3d6000fd5b505085516001600160a01b031660009081526002602052604090206200197a925090508a62002053565b5083516001600160a01b031660009081526003602090815260408083208188015184529091529020620019ae908a62002053565b5060408051338152602081018b90526001600160a01b038a16918101919091527fc819508e420d88636175642d4552e0689efcf0f97db14737c1f4224ed66323cd906060016200124c565b60008381526004602052604090205483906001600160a01b031633811480159062001a4d57506001600160a01b03811660009081526005602090815260408083208584528252808320338452909152902054155b1562001a85576040517fdba06d6500000000000000000000000000000000000000000000000000000000815260040160405180910390fd5b6000858152600460208181526040808420815160608101835281546001600160a01b0390811682526001830154811694820185905260029092015481840152945491517f4e5111a60000000000000000000000000000000000000000000000000000000081529384018b905260248401929092528782166044840152606483018790521690634e5111a690608401600060405180830381600087803b15801562001b2e57600080fd5b505af115801562001b43573d6000803e3d6000fd5b505060408051338152602081018b90529081018990526001600160a01b0388166060820152608081018790527f0be149ca022ee027e452e448a55a6b15da9081ab45afecbc8715ca1626c9cdf3925060a001905060405180910390a150505050505050565b60008381526004602052604090205483906001600160a01b031633811480159062001bfc57506001600160a01b03811660009081526005602090815260408083208584528252808320338452909152902054155b1562001c34576040517fdba06d6500000000000000000000000000000000000000000000000000000000815260040160405180910390fd5b6000858152600460208181526040808420815160608101835281546001600160a01b03908116825260018301548116948201859052600290920154818401819052955492517f99bec31500000000000000000000000000000000000000000000000000000000815294850195909552602484018390526044840183905260648401929092526084830188905260a4830187905216906399bec3159060c401600060405180830381600087803b15801562001ced57600080fd5b505af115801562001d02573d6000803e3d6000fd5b505060408051338152602081018a9052908101889052606081018790527f4a1d86235388d42bee8b26817295ba354feb351780a0005e14a02303ac302df89250608001905062000dcc565b60006001600160a01b03821662001d90576040517fd92e233d00000000000000000000000000000000000000000000000000000000815260040160405180910390fd5b60016000815462001da19062002651565b90915550600080546040516001600160a01b039091169062001dc39062002232565b6001600160a01b039091168152602001604051809103906000f08015801562001df0573d6000803e3d6000fd5b50604080516060810182526001600160a01b0380871680835281851660208085019182528486018b815260018054600090815260048452888120975188549088167fffffffffffffffffffffffff000000000000000000000000000000000000000091821617895594518883018054919098169516949094179095555160029586015592549181529290915291902091925062001e8e919062002061565b506001546001600160a01b0384166000908152600360209081526040808320888452909152902062001ec09162002061565b506001546040516001600160a01b0385169033907fec2d798cbd6c16b0081feb29a63dd41e115efa1047e86d08fff4b1739865bcf790600090a4505060015492915050565b60008381526004602052604090205483906001600160a01b031633811480159062001f5957506001600160a01b03811660009081526005602090815260408083208584528252808320338452909152902054155b1562001f91576040517fdba06d6500000000000000000000000000000000000000000000000000000000815260040160405180910390fd5b6000858152600460209081526040808320546001600160a01b03908116808552600584528285208a8652845282852091891680865291845293829020879055815133815292830189905290820152606081018590527f3795e85c6a36b093c1600285f715dc4692d9f81b9b39778a16dacb483eed249a9060800162000dcc565b8060008112156200204e576040517f44dddea200000000000000000000000000000000000000000000000000000000815260040160405180910390fd5b919050565b60006200129083836200207e565b600062001290838362002182565b606060006200129083620021d4565b6000818152600183016020526040812054801562002177576000620020a56001836200268c565b8554909150600090620020bb906001906200268c565b905081811462002127576000866000018281548110620020df57620020df620025f3565b9060005260206000200154905080876000018481548110620021055762002105620025f3565b6000918252602080832090910192909255918252600188019052604090208390555b85548690806200213b576200213b620026a2565b60019003818190600052602060002001600090559055856001016000868152602001908152602001600020600090556001935050505062000c32565b600091505062000c32565b6000818152600183016020526040812054620021cb5750815460018181018455600084815260208082209093018490558454848252828601909352604090209190915562000c32565b50600062000c32565b6060816000018054806020026020016040519081016040528092919081815260200182805480156200222657602002820191906000526020600020905b81548152602001906001019080831162002211575b50505050509050919050565b61010380620026d283390190565b600080604083850312156200225457600080fd5b50508035926020909101359150565b6000602082840312156200227657600080fd5b5035919050565b80356001600160a01b03811681146200204e57600080fd5b60008060408385031215620022a957600080fd5b620022b4836200227d565b946020939093013593505050565b600060208284031215620022d557600080fd5b62001290826200227d565b600081518084526020808501945080840160005b838110156200231257815187529582019590820190600101620022f4565b509495945050505050565b606081526000620023326060830186620022e0565b82810360208481019190915285518083528682019282019060005b81811015620023745784516001600160a01b0316835293830193918301916001016200234d565b50508481036040860152855180825290820192508186019060005b81811015620023ad578251855293830193918301916001016200238f565b509298975050505050505050565b600080600060608486031215620023d157600080fd5b620023dc846200227d565b925060208401359150620023f3604085016200227d565b90509250925092565b602081526000620012906020830184620022e0565b6000806000606084860312156200242757600080fd5b8335925062002439602085016200227d565b9150604084013590509250925092565b6000806000606084860312156200245f57600080fd5b8335925062002471602085016200227d565b9150620023f3604085016200227d565b600080604083850312156200249557600080fd5b82359150620024a7602084016200227d565b90509250929050565b60008060008060808587031215620024c757600080fd5b8435935060208501359250620024e0604086016200227d565b9396929550929360600135925050565b6000806000606084860312156200250657600080fd5b505081359360208301359350604090920135919050565b600080604083850312156200253157600080fd5b6200253c836200227d565b9150620024a7602084016200227d565b7f4e487b7100000000000000000000000000000000000000000000000000000000600052604160045260246000fd5b6000604082840312156200258e57600080fd5b6040516040810181811067ffffffffffffffff82111715620025d9577f4e487b7100000000000000000000000000000000000000000000000000000000600052604160045260246000fd5b604052825181526020928301519281019290925250919050565b7f4e487b7100000000000000000000000000000000000000000000000000000000600052603260045260246000fd5b7f4e487b7100000000000000000000000000000000000000000000000000000000600052601160045260246000fd5b60007fffffffffffffffffffffffffffffffffffffffffffffffffffffffffffffffff820362002685576200268562002622565b5060010190565b8181038181111562000c325762000c3262002622565b7f4e487b7100000000000000000000000000000000000000000000000000000000600052603160045260246000fdfe6080604052348015600f57600080fd5b50604051610103380380610103833981016040819052602c916088565b604051631b29a84160e31b81523360048201526001600160a01b0382169063d94d420890602401600060405180830381600087803b158015606c57600080fd5b505af1158015607f573d6000803e3d6000fd5b505050505060b6565b600060208284031215609957600080fd5b81516001600160a01b038116811460af57600080fd5b9392505050565b603f806100c46000396000f3fe6080604052600080fdfea2646970667358221220eebf97546c6b41e6e6c94a3bfd348b6b930572f969183b9a36d499003223985c64736f6c63430008130033a2646970667358221220e12a4b7aa1d571cef568460ee6b7e47e2d98b2ed5e07a0551ac22e44c22c26d564736f6c63430008130033",
    "linkReferences": {}
  },
  "methodIdentifiers": {
    "addSAFE(uint256)": "3a164433",
    "allowHandler(address,uint256)": "391735c1",
    "allowSAFE(uint256,address,uint256)": "e0decbcd",
    "enterSystem(address,uint256)": "6ffdabbf",
    "getSafes(address)": "61120929",
    "getSafes(address,bytes32)": "7896835e",
    "getSafesData(address)": "4e1db2bb",
    "handlerCan(address,address)": "ce05264d",
    "modifySAFECollateralization(uint256,int256,int256)": "c78101f8",
    "moveSAFE(uint256,uint256)": "018477a5",
    "openSAFE(bytes32,address)": "d983ff95",
    "protectSAFE(uint256,address,address)": "6f0942a4",
    "quitSystem(uint256,address)": "a26292db",
    "removeSAFE(uint256)": "111d3541",
    "safeCan(address,uint256,address)": "4fa053b1",
    "safeData(uint256)": "35c9c6e9",
    "safeEngine()": "67aea313",
    "transferCollateral(bytes32,uint256,address,uint256)": "aa1d8d81",
    "transferCollateral(uint256,address,uint256)": "871581a2",
    "transferInternalCoins(uint256,address,uint256)": "660e1607",
    "transferSAFEOwnership(uint256,address)": "80bdb6b2"
  },
  "id": 122
}