{
  "abi": [
    {
      "inputs": [
        {
          "internalType": "address",
          "name": "_safeEngine",
          "type": "address"
        },
        {
          "internalType": "address",
          "name": "_accountingEngine",
          "type": "address"
        },
        {
          "components": [
            {
              "internalType": "uint256",
              "name": "onAuctionSystemCoinLimit",
              "type": "uint256"
            }
          ],
          "internalType": "struct ILiquidationEngine.LiquidationEngineParams",
          "name": "_liqEngineParams",
          "type": "tuple"
        }
      ],
      "stateMutability": "nonpayable",
      "type": "constructor"
    },
    {
      "inputs": [],
      "name": "AlreadyAuthorized",
      "type": "error"
    },
    {
      "inputs": [],
      "name": "ContractIsDisabled",
      "type": "error"
    },
    {
      "inputs": [],
      "name": "ContractIsEnabled",
      "type": "error"
    },
    {
      "inputs": [],
      "name": "IntOverflow",
      "type": "error"
    },
    {
      "inputs": [],
      "name": "LiqEng_CannotModifySAFE",
      "type": "error"
    },
    {
      "inputs": [],
      "name": "LiqEng_CollateralTypeAlreadyInitialized",
      "type": "error"
    },
    {
      "inputs": [],
      "name": "LiqEng_DustySAFE",
      "type": "error"
    },
    {
      "inputs": [],
      "name": "LiqEng_InvalidAmounts",
      "type": "error"
    },
    {
      "inputs": [],
      "name": "LiqEng_InvalidSAFESaviourOperation",
      "type": "error"
    },
    {
      "inputs": [],
      "name": "LiqEng_LiquidationLimitHit",
      "type": "error"
    },
    {
      "inputs": [],
      "name": "LiqEng_NullAuction",
      "type": "error"
    },
    {
      "inputs": [],
      "name": "LiqEng_NullCollateralToSell",
      "type": "error"
    },
    {
      "inputs": [],
      "name": "LiqEng_SAFENotUnsafe",
      "type": "error"
    },
    {
      "inputs": [],
      "name": "LiqEng_SaviourNotAuthorized",
      "type": "error"
    },
    {
      "inputs": [],
      "name": "LiqEng_SaviourNotOk",
      "type": "error"
    },
    {
      "inputs": [],
      "name": "NonDisableable",
      "type": "error"
    },
    {
      "inputs": [],
      "name": "NotAuthorized",
      "type": "error"
    },
    {
      "inputs": [
        {
          "internalType": "uint256",
          "name": "_x",
          "type": "uint256"
        },
        {
          "internalType": "uint256",
          "name": "_y",
          "type": "uint256"
        }
      ],
      "name": "NotLesserOrEqualThan",
      "type": "error"
    },
    {
      "inputs": [],
      "name": "NullAddress",
      "type": "error"
    },
    {
      "inputs": [],
      "name": "Unauthorized",
      "type": "error"
    },
    {
      "inputs": [],
      "name": "UnrecognizedCType",
      "type": "error"
    },
    {
      "inputs": [],
      "name": "UnrecognizedParam",
      "type": "error"
    },
    {
      "anonymous": false,
      "inputs": [
        {
          "indexed": false,
          "internalType": "address",
          "name": "_account",
          "type": "address"
        }
      ],
      "name": "AddAuthorization",
      "type": "event"
    },
    {
      "anonymous": false,
      "inputs": [
        {
          "indexed": false,
          "internalType": "address",
          "name": "_saviour",
          "type": "address"
        }
      ],
      "name": "ConnectSAFESaviour",
      "type": "event"
    },
    {
      "anonymous": false,
      "inputs": [],
      "name": "DisableContract",
      "type": "event"
    },
    {
      "anonymous": false,
      "inputs": [
        {
          "indexed": false,
          "internalType": "address",
          "name": "_saviour",
          "type": "address"
        }
      ],
      "name": "DisconnectSAFESaviour",
      "type": "event"
    },
    {
      "anonymous": false,
      "inputs": [
        {
          "indexed": false,
          "internalType": "bytes",
          "name": "_failReason",
          "type": "bytes"
        }
      ],
      "name": "FailedSAFESave",
      "type": "event"
    },
    {
      "anonymous": false,
      "inputs": [
        {
          "indexed": true,
          "internalType": "bytes32",
          "name": "_cType",
          "type": "bytes32"
        },
        {
          "indexed": true,
          "internalType": "address",
          "name": "_safe",
          "type": "address"
        },
        {
          "indexed": false,
          "internalType": "uint256",
          "name": "_collateralAmount",
          "type": "uint256"
        },
        {
          "indexed": false,
          "internalType": "uint256",
          "name": "_debtAmount",
          "type": "uint256"
        },
        {
          "indexed": false,
          "internalType": "uint256",
          "name": "_amountToRaise",
          "type": "uint256"
        },
        {
          "indexed": false,
          "internalType": "address",
          "name": "_collateralAuctioneer",
          "type": "address"
        },
        {
          "indexed": false,
          "internalType": "uint256",
          "name": "_auctionId",
          "type": "uint256"
        }
      ],
      "name": "Liquidate",
      "type": "event"
    },
    {
      "anonymous": false,
      "inputs": [
        {
          "indexed": true,
          "internalType": "bytes32",
          "name": "_param",
          "type": "bytes32"
        },
        {
          "indexed": true,
          "internalType": "bytes32",
          "name": "_cType",
          "type": "bytes32"
        },
        {
          "indexed": false,
          "internalType": "bytes",
          "name": "_data",
          "type": "bytes"
        }
      ],
      "name": "ModifyParameters",
      "type": "event"
    },
    {
      "anonymous": false,
      "inputs": [
        {
          "indexed": true,
          "internalType": "bytes32",
          "name": "_cType",
          "type": "bytes32"
        },
        {
          "indexed": true,
          "internalType": "address",
          "name": "_safe",
          "type": "address"
        },
        {
          "indexed": false,
          "internalType": "address",
          "name": "_saviour",
          "type": "address"
        }
      ],
      "name": "ProtectSAFE",
      "type": "event"
    },
    {
      "anonymous": false,
      "inputs": [
        {
          "indexed": false,
          "internalType": "address",
          "name": "_account",
          "type": "address"
        }
      ],
      "name": "RemoveAuthorization",
      "type": "event"
    },
    {
      "anonymous": false,
      "inputs": [
        {
          "indexed": true,
          "internalType": "bytes32",
          "name": "_cType",
          "type": "bytes32"
        },
        {
          "indexed": true,
          "internalType": "address",
          "name": "_safe",
          "type": "address"
        },
        {
          "indexed": false,
          "internalType": "uint256",
          "name": "_collateralAddedOrDebtRepaid",
          "type": "uint256"
        }
      ],
      "name": "SaveSAFE",
      "type": "event"
    },
    {
      "anonymous": false,
      "inputs": [
        {
          "indexed": false,
          "internalType": "uint256",
          "name": "_currentOnAuctionSystemCoins",
          "type": "uint256"
        }
      ],
      "name": "UpdateCurrentOnAuctionSystemCoins",
      "type": "event"
    },
    {
      "inputs": [
        {
          "internalType": "bytes32",
          "name": "_cType",
          "type": "bytes32"
        }
      ],
      "name": "_cParams",
      "outputs": [
        {
          "internalType": "address",
          "name": "collateralAuctionHouse",
          "type": "address"
        },
        {
          "internalType": "uint256",
          "name": "liquidationPenalty",
          "type": "uint256"
        },
        {
          "internalType": "uint256",
          "name": "liquidationQuantity",
          "type": "uint256"
        }
      ],
      "stateMutability": "view",
      "type": "function"
    },
    {
      "inputs": [],
      "name": "_params",
      "outputs": [
        {
          "internalType": "uint256",
          "name": "onAuctionSystemCoinLimit",
          "type": "uint256"
        }
      ],
      "stateMutability": "view",
      "type": "function"
    },
    {
      "inputs": [],
      "name": "accountingEngine",
      "outputs": [
        {
          "internalType": "contract IAccountingEngine",
          "name": "",
          "type": "address"
        }
      ],
      "stateMutability": "view",
      "type": "function"
    },
    {
      "inputs": [
        {
          "internalType": "address",
          "name": "_account",
          "type": "address"
        }
      ],
      "name": "addAuthorization",
      "outputs": [],
      "stateMutability": "nonpayable",
      "type": "function"
    },
    {
      "inputs": [
        {
          "internalType": "address",
          "name": "_account",
          "type": "address"
        }
      ],
      "name": "authorizedAccounts",
      "outputs": [
        {
          "internalType": "bool",
          "name": "_authorized",
          "type": "bool"
        }
      ],
      "stateMutability": "view",
      "type": "function"
    },
    {
      "inputs": [],
      "name": "authorizedAccounts",
      "outputs": [
        {
          "internalType": "address[]",
          "name": "_accounts",
          "type": "address[]"
        }
      ],
      "stateMutability": "view",
      "type": "function"
    },
    {
      "inputs": [
        {
          "internalType": "bytes32",
          "name": "_cType",
          "type": "bytes32"
        }
      ],
      "name": "cParams",
      "outputs": [
        {
          "components": [
            {
              "internalType": "address",
              "name": "collateralAuctionHouse",
              "type": "address"
            },
            {
              "internalType": "uint256",
              "name": "liquidationPenalty",
              "type": "uint256"
            },
            {
              "internalType": "uint256",
              "name": "liquidationQuantity",
              "type": "uint256"
            }
          ],
          "internalType": "struct ILiquidationEngine.LiquidationEngineCollateralParams",
          "name": "_liqEngineCParams",
          "type": "tuple"
        }
      ],
      "stateMutability": "view",
      "type": "function"
    },
    {
      "inputs": [
        {
          "internalType": "bytes32",
          "name": "",
          "type": "bytes32"
        },
        {
          "internalType": "address",
          "name": "",
          "type": "address"
        }
      ],
      "name": "chosenSAFESaviour",
      "outputs": [
        {
          "internalType": "address",
          "name": "",
          "type": "address"
        }
      ],
      "stateMutability": "view",
      "type": "function"
    },
    {
      "inputs": [],
      "name": "collateralList",
      "outputs": [
        {
          "internalType": "bytes32[]",
          "name": "__collateralList",
          "type": "bytes32[]"
        }
      ],
      "stateMutability": "view",
      "type": "function"
    },
    {
      "inputs": [
        {
          "internalType": "address",
          "name": "_saviour",
          "type": "address"
        }
      ],
      "name": "connectSAFESaviour",
      "outputs": [],
      "stateMutability": "nonpayable",
      "type": "function"
    },
    {
      "inputs": [],
      "name": "contractEnabled",
      "outputs": [
        {
          "internalType": "bool",
          "name": "",
          "type": "bool"
        }
      ],
      "stateMutability": "view",
      "type": "function"
    },
    {
      "inputs": [],
      "name": "currentOnAuctionSystemCoins",
      "outputs": [
        {
          "internalType": "uint256",
          "name": "",
          "type": "uint256"
        }
      ],
      "stateMutability": "view",
      "type": "function"
    },
    {
      "inputs": [],
      "name": "disableContract",
      "outputs": [],
      "stateMutability": "nonpayable",
      "type": "function"
    },
    {
      "inputs": [
        {
          "internalType": "address",
          "name": "_saviour",
          "type": "address"
        }
      ],
      "name": "disconnectSAFESaviour",
      "outputs": [],
      "stateMutability": "nonpayable",
      "type": "function"
    },
    {
      "inputs": [
        {
          "internalType": "bytes32",
          "name": "_cType",
          "type": "bytes32"
        },
        {
          "internalType": "address",
          "name": "_safe",
          "type": "address"
        }
      ],
      "name": "getLimitAdjustedDebtToCover",
      "outputs": [
        {
          "internalType": "uint256",
          "name": "_limitAdjustedDebtToCover",
          "type": "uint256"
        }
      ],
      "stateMutability": "view",
      "type": "function"
    },
    {
      "inputs": [
        {
          "internalType": "bytes32",
          "name": "_cType",
          "type": "bytes32"
        },
        {
          "components": [
            {
              "internalType": "address",
              "name": "collateralAuctionHouse",
              "type": "address"
            },
            {
              "internalType": "uint256",
              "name": "liquidationPenalty",
              "type": "uint256"
            },
            {
              "internalType": "uint256",
              "name": "liquidationQuantity",
              "type": "uint256"
            }
          ],
          "internalType": "struct ILiquidationEngine.LiquidationEngineCollateralParams",
          "name": "_liqEngineCParams",
          "type": "tuple"
        }
      ],
      "name": "initializeCollateralType",
      "outputs": [],
      "stateMutability": "nonpayable",
      "type": "function"
    },
    {
      "inputs": [
        {
          "internalType": "bytes32",
          "name": "_cType",
          "type": "bytes32"
        },
        {
          "internalType": "address",
          "name": "_safe",
          "type": "address"
        }
      ],
      "name": "liquidateSAFE",
      "outputs": [
        {
          "internalType": "uint256",
          "name": "_auctionId",
          "type": "uint256"
        }
      ],
      "stateMutability": "nonpayable",
      "type": "function"
    },
    {
      "inputs": [
        {
          "internalType": "bytes32",
          "name": "_cType",
          "type": "bytes32"
        },
        {
          "internalType": "bytes32",
          "name": "_param",
          "type": "bytes32"
        },
        {
          "internalType": "bytes",
          "name": "_data",
          "type": "bytes"
        }
      ],
      "name": "modifyParameters",
      "outputs": [],
      "stateMutability": "nonpayable",
      "type": "function"
    },
    {
      "inputs": [
        {
          "internalType": "bytes32",
          "name": "_param",
          "type": "bytes32"
        },
        {
          "internalType": "bytes",
          "name": "_data",
          "type": "bytes"
        }
      ],
      "name": "modifyParameters",
      "outputs": [],
      "stateMutability": "nonpayable",
      "type": "function"
    },
    {
      "inputs": [],
      "name": "params",
      "outputs": [
        {
          "components": [
            {
              "internalType": "uint256",
              "name": "onAuctionSystemCoinLimit",
              "type": "uint256"
            }
          ],
          "internalType": "struct ILiquidationEngine.LiquidationEngineParams",
          "name": "_liqEngineParams",
          "type": "tuple"
        }
      ],
      "stateMutability": "view",
      "type": "function"
    },
    {
      "inputs": [
        {
          "internalType": "bytes32",
          "name": "_cType",
          "type": "bytes32"
        },
        {
          "internalType": "address",
          "name": "_safe",
          "type": "address"
        },
        {
          "internalType": "address",
          "name": "_saviour",
          "type": "address"
        }
      ],
      "name": "protectSAFE",
      "outputs": [],
      "stateMutability": "nonpayable",
      "type": "function"
    },
    {
      "inputs": [
        {
          "internalType": "address",
          "name": "_account",
          "type": "address"
        }
      ],
      "name": "removeAuthorization",
      "outputs": [],
      "stateMutability": "nonpayable",
      "type": "function"
    },
    {
      "inputs": [
        {
          "internalType": "uint256",
          "name": "_rad",
          "type": "uint256"
        }
      ],
      "name": "removeCoinsFromAuction",
      "outputs": [],
      "stateMutability": "nonpayable",
      "type": "function"
    },
    {
      "inputs": [],
      "name": "safeEngine",
      "outputs": [
        {
          "internalType": "contract ISAFEEngine",
          "name": "",
          "type": "address"
        }
      ],
      "stateMutability": "view",
      "type": "function"
    },
    {
      "inputs": [
        {
          "internalType": "address",
          "name": "",
          "type": "address"
        }
      ],
      "name": "safeSaviours",
      "outputs": [
        {
          "internalType": "uint256",
          "name": "",
          "type": "uint256"
        }
      ],
      "stateMutability": "view",
      "type": "function"
    }
  ],
  "bytecode": {
    "object": "0x60806040526002805460ff191660011790553480156200001e57600080fd5b5060405162002b5e38038062002b5e8339810160408190526200004191620001f0565b336200004d81620000ae565b506001600355620000676001600160a01b0384166200011c565b600780546001600160a01b03199081166001600160a01b0393841617909155600880549091169184169190911790558051600955620000a56200014a565b5050506200027d565b620000bb60008262000161565b1562000100576040516001600160a01b03821681527f599a298163e1678bb1c676052a8930bf0b8a1261ed6e01b8a2391e55f70001029060200160405180910390a150565b604051633013e93f60e11b815260040160405180910390fd5b50565b60006001600160a01b038216620001465760405163e99d5ac560e01b815260040160405180910390fd5b5090565b60085462000119906001600160a01b03166200011c565b600062000178836001600160a01b03841662000181565b90505b92915050565b6000818152600183016020526040812054620001ca575081546001818101845560008481526020808220909301849055845484825282860190935260409020919091556200017b565b5060006200017b565b80516001600160a01b0381168114620001eb57600080fd5b919050565b600080600083850360608112156200020757600080fd5b6200021285620001d3565b93506200022260208601620001d3565b92506020603f19820112156200023757600080fd5b50604051602081016001600160401b03811182821017156200026957634e487b7160e01b600052604160045260246000fd5b604090815294909401518452509093909250565b6128d1806200028d6000396000f3fe608060405234801561001057600080fd5b50600436106101a35760003560e01c80634c28be57116100ee578063894ba83311610097578063961d45c411610071578063961d45c4146103cd578063cff0ab96146103e0578063da8a4bb814610409578063e54201f61461041c57600080fd5b8063894ba8331461039f57806394f3f81d146103a757806395ffa802146103ba57600080fd5b80635626da24116100c85780635626da241461035757806367aea31314610377578063802503411461038a57600080fd5b80634c28be57146103275780634faeff1d1461033a578063552b16ab1461034d57600080fd5b80632e391876116101505780633896a3841161012a5780633896a384146102fe5780633c7999571461031157806341b3a0d91461031a57600080fd5b80632e391876146102c3578063332bef11146102d857806335b28153146102eb57600080fd5b80632082961311610181578063208296131461024157806324ba5884146102545780632c20afc41461027757600080fd5b8063049c9279146101a857806312f33526146101ce5780631d674705146101e3575b600080fd5b6101bb6101b6366004612270565b61045a565b6040519081526020015b60405180910390f35b6101e16101dc366004612376565b610606565b005b61021c6101f13660046123c6565b600a602052600090815260409020805460018201546002909201546001600160a01b03909116919083565b604080516001600160a01b0390941684526020840192909252908201526060016101c5565b6101e161024f3660046123df565b610699565b61026761026236600461247b565b6107cb565b60405190151581526020016101c5565b6102ab610285366004612270565b60056020908152600092835260408084209091529082529020546001600160a01b031681565b6040516001600160a01b0390911681526020016101c5565b6102cb6107d6565b6040516101c59190612496565b6101e16102e63660046123c6565b6107e7565b6101e16102f936600461247b565b610877565b6101e161030c3660046124e3565b6108c2565b6101bb60065481565b6002546102679060ff1681565b6101bb610335366004612270565b610a6f565b6101e161034836600461247b565b611503565b6009546101bb9081565b6101bb61036536600461247b565b60046020526000908152604090205481565b6007546102ab906001600160a01b031681565b61039261158e565b6040516101c5919061251f565b6101e161159a565b6101e16103b536600461247b565b611668565b6101e16103c836600461247b565b6116b0565b6008546102ab906001600160a01b031681565b6040805160208082018352600090915281518082018352600954908190529151918252016101c5565b6101e1610417366004612557565b6118a0565b61042f61042a3660046123c6565b611931565b6040805182516001600160a01b031681526020808401519082015291810151908201526060016101c5565b6007546040517fb6e05a2e0000000000000000000000000000000000000000000000000000000081526004810184905260009182916001600160a01b039091169063b6e05a2e9060240160a060405180830381865afa1580156104c1573d6000803e3d6000fd5b505050506040513d601f19601f820116820180604052508101906104e5919061259e565b60409081015160075491517f3d422504000000000000000000000000000000000000000000000000000000008152600481018790526001600160a01b0386811660248301529193506000929190911690633d422504906044016040805180830381865afa15801561055a573d6000803e3d6000fd5b505050506040513d601f19601f8201168201806040525081019061057e919061265d565b6020908101516000878152600a8352604090819020815160608101835281546001600160a01b03168152600182015494810185905260029091015491810182905260065460095493955090936105fa93869391926105f09289926105ea926105e5916126a8565b6119a0565b906119b9565b6105e591906126bb565b93505050505b92915050565b61060f336119d8565b610645576040517f82b4290000000000000000000000000000000000000000000000000000000000815260040160405180910390fd5b826106518484846119e4565b83837fe436a8be7dc6aab90b400800ecc86e46fb600f2e18989b5d0389840fdabbf2ed8460405161068291906126f6565b60405180910390a361069381611b62565b50505050565b6106a2336119d8565b6106d8576040517f82b4290000000000000000000000000000000000000000000000000000000000815260040160405180910390fd5b60025460ff16610714576040517f7abbf1c900000000000000000000000000000000000000000000000000000000815260040160405180910390fd5b81610720600b82611bf1565b610756576040517f685c318700000000000000000000000000000000000000000000000000000000815260040160405180910390fd5b610764838360000151611bfd565b6000838152600a6020908152604091829020845181547fffffffffffffffffffffffff0000000000000000000000000000000000000000166001600160a01b03909116178155908401516001820155908301516002909101556107c681611b62565b505050565b6000610600826119d8565b60606107e26000611d54565b905090565b6107f0336119d8565b610826576040517f82b4290000000000000000000000000000000000000000000000000000000000815260040160405180910390fd5b806006600082825461083891906126a8565b90915550506006546040519081527fe1bbac4c69a9c7825ff4f220089a412e2349521ceba06c7f07c3764522ef0414906020015b60405180910390a150565b610880336119d8565b6108b6576040517f82b4290000000000000000000000000000000000000000000000000000000000815260040160405180910390fd5b6108bf81611d61565b50565b6001600160a01b038116156109e5576007546040517f50de215d0000000000000000000000000000000000000000000000000000000081526001600160a01b038481166004830152336024830152909116906350de215d90604401602060405180830381865afa15801561093a573d6000803e3d6000fd5b505050506040513d601f19601f8201168201806040525081019061095e9190612772565b610994576040517fa4d3e56500000000000000000000000000000000000000000000000000000000815260040160405180910390fd5b6001600160a01b03811660009081526004602052604081205490036109e5576040517f350b056700000000000000000000000000000000000000000000000000000000815260040160405180910390fd5b60008381526005602090815260408083206001600160a01b038681168086529184529382902080547fffffffffffffffffffffffff000000000000000000000000000000000000000016948616948517905590519283529185917f9c0c3b2f97315fb268638262f83f63de4f645ad9ae8ea84e2182f67e7d28d8f7910160405180910390a3505050565b6000610a7d60025460ff1690565b610ab3576040517f7abbf1c900000000000000000000000000000000000000000000000000000000815260040160405180910390fd5b610abb611ddc565b6007546040517fe54201f6000000000000000000000000000000000000000000000000000000008152600481018590526000916001600160a01b03169063e54201f6906024016040805180830381865afa158015610b1d573d6000803e3d6000fd5b505050506040513d601f19601f82011682018060405250810190610b41919061265d565b602001516007546040517fb6e05a2e000000000000000000000000000000000000000000000000000000008152600481018790529192506000916001600160a01b039091169063b6e05a2e9060240160a060405180830381865afa158015610bad573d6000803e3d6000fd5b505050506040513d601f19601f82011682018060405250810190610bd1919061259e565b6007546040517f3d422504000000000000000000000000000000000000000000000000000000008152600481018890526001600160a01b03878116602483015292935060009290911690633d422504906044016040805180830381865afa158015610c40573d6000803e3d6000fd5b505050506040513d601f19601f82011682018060405250810190610c64919061265d565b9050816080015160001480610c9c575081604001518160200151610c88919061278d565b60808301518251610c99919061278d565b10155b15610cd3576040517f660f68af00000000000000000000000000000000000000000000000000000000815260040160405180910390fd5b600954600654101580610cf457506006546009548491610cf2916126a8565b105b15610d2b576040517f1baf9c1c00000000000000000000000000000000000000000000000000000000815260040160405180910390fd5b60008681526005602090815260408083206001600160a01b0389811685529252909120541615801590610d8d575060008681526005602090815260408083206001600160a01b03808a1685529083528184205416835260049091529020546001145b1561108f5760008681526005602090815260408083206001600160a01b0389811680865291909352928190205490517fb9b0bb39000000000000000000000000000000000000000000000000000000008152336004820152602481018a90526044810193909352169063b9b0bb39906064016060604051808303816000875af1925050508015610e58575060408051601f3d9081017fffffffffffffffffffffffffffffffffffffffffffffffffffffffffffffffe0168201909252610e55918101906127a4565b60015b610ec9573d808015610e86576040519150601f19603f3d011682016040523d82523d6000602084013e610e8b565b606091505b507fe7862113e21c9c96e382110b92dfc08242b5c58f90259305fe30adc0d77e2a4381604051610ebb91906126f6565b60405180910390a15061108f565b828015610ed65750600082115b1561108b576007546040517f3d422504000000000000000000000000000000000000000000000000000000008152600481018b90526001600160a01b038a811660248301526000921690633d422504906044016040805180830381865afa158015610f45573d6000803e3d6000fd5b505050506040513d601f19601f82011682018060405250810190610f69919061265d565b855181519192501180610f83575084602001518160200151115b15610fba576040517fc9b2fb0000000000000000000000000000000000000000000000000000000000815260040160405180910390fd5b6007546040517fb6e05a2e000000000000000000000000000000000000000000000000000000008152600481018c90526001600160a01b039091169063b6e05a2e9060240160a060405180830381865afa15801561101c573d6000803e3d6000fd5b505050506040513d601f19601f82011682018060405250810190611040919061259e565b9550809450886001600160a01b03168a7f7afee8680e1a5395600115d5fc996ecb20b450ca793815c08c9b19d2dc6663d78560405161108191815260200190565b60405180910390a3505b5050505b816040015181602001516110a3919061278d565b608083015182516110b4919061278d565b10156114f6576000868152600a60209081526040808320815160608101835281546001600160a01b03168152600182015481850181905260029092015481840181905293860151928701516006546009549296956111229594936105f093926105ea92916105e591906126a8565b8351602085015191925060009161113e91906105f0858361278d565b90506000611160846020015187604001518561115a919061278d565b90611e54565b90508260000361119c576040517fe86d5e0800000000000000000000000000000000000000000000000000000000815260040160405180910390fd5b816000036111d6576040517f2a9afcc300000000000000000000000000000000000000000000000000000000815260040160405180910390fd5b8460200151831415801561120757508686604001518487602001516111fb91906126a8565b611205919061278d565b105b1561123e576040517f5484d59800000000000000000000000000000000000000000000000000000000815260040160405180910390fd5b6007546008546001600160a01b0391821691634e14a967918d918d9130911661126688611e69565b61126f906127d9565b6112788a611e69565b611281906127d9565b6040517fffffffff0000000000000000000000000000000000000000000000000000000060e089901b16815260048101969096526001600160a01b039485166024870152928416604486015292166064840152608483019190915260a482015260c401600060405180830381600087803b1580156112fe57600080fd5b505af1158015611312573d6000803e3d6000fd5b505060085460408901516001600160a01b03909116925063a8b30a9f915061133a908661278d565b6040518263ffffffff1660e01b815260040161135891815260200190565b600060405180830381600087803b15801561137257600080fd5b505af1158015611386573d6000803e3d6000fd5b50505050806006600082825461139c9190612811565b909155505083516008546040517f4c33b2230000000000000000000000000000000000000000000000000000000081526001600160a01b038c8116600483015291821660248201526044810184905260648101859052911690634c33b223906084016020604051808303816000875af115801561141d573d6000803e3d6000fd5b505050506040513d601f19601f820116820180604052508101906114419190612824565b97507fe1bbac4c69a9c7825ff4f220089a412e2349521ceba06c7f07c3764522ef041460065460405161147691815260200190565b60405180910390a1886001600160a01b03168a7f72d3864f233703680912d39433c137e816d579e8785e5245274ca9f95bea896784868a60400151886114bc919061278d565b8951604080519485526020850193909352918301526001600160a01b03166060820152608081018c905260a00160405180910390a3505050505b5050506106006001600355565b61150c336119d8565b611542576040517f82b4290000000000000000000000000000000000000000000000000000000000815260040160405180910390fd5b6001600160a01b03811660008181526004602090815260408083209290925590519182527ffce504fd9d349038183fa936cbbfadf867e63406485f0f4f9f45f7f2856f813f910161086c565b60606107e2600b611d54565b6115a3336119d8565b6115d9576040517f82b4290000000000000000000000000000000000000000000000000000000000815260040160405180910390fd5b60025460ff16611615576040517f7abbf1c900000000000000000000000000000000000000000000000000000000815260040160405180910390fd5b600280547fffffffffffffffffffffffffffffffffffffffffffffffffffffffffffffff001690556040517f2d4b4ecff7bd7503135271925520a2f6c0d98c9473ffc1a1e72c92502f51b25e90600090a1565b611671336119d8565b6116a7576040517f82b4290000000000000000000000000000000000000000000000000000000000815260040160405180910390fd5b6108bf81611eaa565b6116b9336119d8565b6116ef576040517f82b4290000000000000000000000000000000000000000000000000000000000815260040160405180910390fd5b6040517fb9b0bb390000000000000000000000000000000000000000000000000000000081523060048201526000602482018190526044820181905290819081906001600160a01b0385169063b9b0bb39906064016060604051808303816000875af1158015611763573d6000803e3d6000fd5b505050506040513d601f19601f8201168201806040525081019061178791906127a4565b925092509250826117c4576040517fca81df2f00000000000000000000000000000000000000000000000000000000815260040160405180910390fd5b7fffffffffffffffffffffffffffffffffffffffffffffffffffffffffffffffff8214158061181357507fffffffffffffffffffffffffffffffffffffffffffffffffffffffffffffffff8114155b1561184a576040517fa2eb037c00000000000000000000000000000000000000000000000000000000815260040160405180910390fd5b6001600160a01b0384166000818152600460209081526040918290206001905590519182527fc2553257d1b78c297941723c1913912f9161a830e997b56133a669b3a3de6a1e910160405180910390a150505050565b6118a9336119d8565b6118df576040517f82b4290000000000000000000000000000000000000000000000000000000000815260040160405180910390fd5b6118e98282611f25565b6000801b827fe436a8be7dc6aab90b400800ecc86e46fb600f2e18989b5d0389840fdabbf2ed8360405161191d91906126f6565b60405180910390a361192d611fbb565b5050565b61195e604051806060016040528060006001600160a01b0316815260200160008152602001600081525090565b506000908152600a6020908152604091829020825160608101845281546001600160a01b03168152600182015492810192909252600201549181019190915290565b6000818311156119b057816119b2565b825b9392505050565b6000816119ce670de0b6b3a76400008561278d565b6119b291906126bb565b60006106008183611fd0565b60025460ff16611a20576040517f7abbf1c900000000000000000000000000000000000000000000000000000000815260040160405180910390fd5b6000611a2d826020015190565b9050611a3a600b85611ff2565b611a70576040517f98fc17bd00000000000000000000000000000000000000000000000000000000815260040160405180910390fd5b827f6c69717569646174696f6e50656e616c7479000000000000000000000000000003611ab0576000848152600a60205260409020600101819055610693565b827f6c69717569646174696f6e5175616e746974790000000000000000000000000003611af0576000848152600a60205260409020600201819055610693565b827f636f6c6c61746572616c41756374696f6e486f7573650000000000000000000003611b3057611b2b84611b26846020015190565b611bfd565b610693565b6040517f9d2ff48000000000000000000000000000000000000000000000000000000000815260040160405180910390fd5b6000818152600a6020908152604091829020825160608101845281546001600160a01b031680825260018301549382019390935260029091015492810192909252611bac9061200a565b506107c6611be66b033b2e3c9fd0803ce80000007fffffffffffffffffffffffffffffffffffffffffffffffffffffffffffffffff6126bb565b604083015190612050565b60006119b28383612096565b6000828152600a6020526040902080546001600160a01b031615611ca95760075481546040517fd49d78670000000000000000000000000000000000000000000000000000000081526001600160a01b03918216600482015291169063d49d786790602401600060405180830381600087803b158015611c7c57600080fd5b505af1158015611c90573d6000803e3d6000fd5b50508254611ca992506001600160a01b03169050611eaa565b80547fffffffffffffffffffffffff0000000000000000000000000000000000000000166001600160a01b0383811691821783556007546040517fd94d42080000000000000000000000000000000000000000000000000000000081526004810193909352169063d94d420890602401600060405180830381600087803b158015611d3357600080fd5b505af1158015611d47573d6000803e3d6000fd5b505050506107c682611d61565b606060006119b2836120e5565b611d6c600082612141565b15611daa576040516001600160a01b03821681527f599a298163e1678bb1c676052a8930bf0b8a1261ed6e01b8a2391e55f70001029060200161086c565b6040517f6027d27e00000000000000000000000000000000000000000000000000000000815260040160405180910390fd5b600260035403611e4d576040517f08c379a000000000000000000000000000000000000000000000000000000000815260206004820152601f60248201527f5265656e7472616e637947756172643a207265656e7472616e742063616c6c0060448201526064015b60405180910390fd5b6002600355565b6000670de0b6b3a76400006119ce838561278d565b806000811215611ea5576040517f44dddea200000000000000000000000000000000000000000000000000000000815260040160405180910390fd5b919050565b611eb5600082612156565b15611ef3576040516001600160a01b03821681527f8834a87e641e9716be4f34527af5d23e11624f1ddeefede6ad75a9acfc31b9039060200161086c565b6040517fea8e4eb500000000000000000000000000000000000000000000000000000000815260040160405180910390fd5b817f6f6e41756374696f6e53797374656d436f696e4c696d6974000000000000000003611f56576020015160095550565b817f6163636f756e74696e67456e67696e650000000000000000000000000000000003611b305760200151600880547fffffffffffffffffffffffff0000000000000000000000000000000000000000166001600160a01b0390921691909117905550565b6008546108bf906001600160a01b031661200a565b6001600160a01b038116600090815260018301602052604081205415156119b2565b600081815260018301602052604081205415156119b2565b60006001600160a01b03821661204c576040517fe99d5ac500000000000000000000000000000000000000000000000000000000815260040160405180910390fd5b5090565b6000818311156119b0576040517f47df8ef30000000000000000000000000000000000000000000000000000000081526004810184905260248101839052604401611e44565b60008181526001830160205260408120546120dd57508154600181810184556000848152602080822090930184905584548482528286019093526040902091909155610600565b506000610600565b60608160000180548060200260200160405190810160405280929190818152602001828054801561213557602002820191906000526020600020905b815481526020019060010190808311612121575b50505050509050919050565b60006119b2836001600160a01b038416612096565b60006119b2836001600160a01b0384166000818152600183016020526040812054801561224f57600061218a6001836126a8565b855490915060009061219e906001906126a8565b90508181146122035760008660000182815481106121be576121be61283d565b90600052602060002001549050808760000184815481106121e1576121e161283d565b6000918252602080832090910192909255918252600188019052604090208390555b85548690806122145761221461286c565b600190038181906000526020600020016000905590558560010160008681526020019081526020016000206000905560019350505050610600565b6000915050610600565b80356001600160a01b0381168114611ea557600080fd5b6000806040838503121561228357600080fd5b8235915061229360208401612259565b90509250929050565b7f4e487b7100000000000000000000000000000000000000000000000000000000600052604160045260246000fd5b600082601f8301126122dc57600080fd5b813567ffffffffffffffff808211156122f7576122f761229c565b604051601f83017fffffffffffffffffffffffffffffffffffffffffffffffffffffffffffffffe0908116603f0116810190828211818310171561233d5761233d61229c565b8160405283815286602085880101111561235657600080fd5b836020870160208301376000602085830101528094505050505092915050565b60008060006060848603121561238b57600080fd5b8335925060208401359150604084013567ffffffffffffffff8111156123b057600080fd5b6123bc868287016122cb565b9150509250925092565b6000602082840312156123d857600080fd5b5035919050565b60008082840360808112156123f357600080fd5b8335925060607fffffffffffffffffffffffffffffffffffffffffffffffffffffffffffffffe08201121561242757600080fd5b506040516060810181811067ffffffffffffffff8211171561244b5761244b61229c565b60405261245a60208501612259565b81526040840135602082015260608401356040820152809150509250929050565b60006020828403121561248d57600080fd5b6119b282612259565b6020808252825182820181905260009190848201906040850190845b818110156124d75783516001600160a01b0316835292840192918401916001016124b2565b50909695505050505050565b6000806000606084860312156124f857600080fd5b8335925061250860208501612259565b915061251660408501612259565b90509250925092565b6020808252825182820181905260009190848201906040850190845b818110156124d75783518352928401929184019160010161253b565b6000806040838503121561256a57600080fd5b82359150602083013567ffffffffffffffff81111561258857600080fd5b612594858286016122cb565b9150509250929050565b600060a082840312156125b057600080fd5b60405160a0810181811067ffffffffffffffff821117156125d3576125d361229c565b806040525082518152602083015160208201526040830151604082015260608301516060820152608083015160808201528091505092915050565b60006040828403121561262057600080fd5b6040516040810181811067ffffffffffffffff821117156126435761264361229c565b604052825181526020928301519281019290925250919050565b60006040828403121561266f57600080fd5b6119b2838361260e565b7f4e487b7100000000000000000000000000000000000000000000000000000000600052601160045260246000fd5b8181038181111561060057610600612679565b6000826126f1577f4e487b7100000000000000000000000000000000000000000000000000000000600052601260045260246000fd5b500490565b600060208083528351808285015260005b8181101561272357858101830151858201604001528201612707565b5060006040828601015260407fffffffffffffffffffffffffffffffffffffffffffffffffffffffffffffffe0601f8301168501019250505092915050565b80518015158114611ea557600080fd5b60006020828403121561278457600080fd5b6119b282612762565b808202811582820484141761060057610600612679565b6000806000606084860312156127b957600080fd5b6127c284612762565b925060208401519150604084015190509250925092565b60007f8000000000000000000000000000000000000000000000000000000000000000820361280a5761280a612679565b5060000390565b8082018082111561060057610600612679565b60006020828403121561283657600080fd5b5051919050565b7f4e487b7100000000000000000000000000000000000000000000000000000000600052603260045260246000fd5b7f4e487b7100000000000000000000000000000000000000000000000000000000600052603160045260246000fdfea264697066735822122053d1ed3feb0df315c2e16b12ec9f53a9e9317739fc1184eef3cd9b9c43fdd55964736f6c63430008130033",
    "linkReferences": {}
  },
  "methodIdentifiers": {
    "_cParams(bytes32)": "1d674705",
    "_params()": "552b16ab",
    "accountingEngine()": "961d45c4",
    "addAuthorization(address)": "35b28153",
    "authorizedAccounts()": "2e391876",
    "authorizedAccounts(address)": "24ba5884",
    "cParams(bytes32)": "e54201f6",
    "chosenSAFESaviour(bytes32,address)": "2c20afc4",
    "collateralList()": "80250341",
    "connectSAFESaviour(address)": "95ffa802",
    "contractEnabled()": "41b3a0d9",
    "currentOnAuctionSystemCoins()": "3c799957",
    "disableContract()": "894ba833",
    "disconnectSAFESaviour(address)": "4faeff1d",
    "getLimitAdjustedDebtToCover(bytes32,address)": "049c9279",
    "initializeCollateralType(bytes32,(address,uint256,uint256))": "20829613",
    "liquidateSAFE(bytes32,address)": "4c28be57",
    "modifyParameters(bytes32,bytes)": "da8a4bb8",
    "modifyParameters(bytes32,bytes32,bytes)": "12f33526",
    "params()": "cff0ab96",
    "protectSAFE(bytes32,address,address)": "3896a384",
    "removeAuthorization(address)": "94f3f81d",
    "removeCoinsFromAuction(uint256)": "332bef11",
    "safeEngine()": "67aea313",
    "safeSaviours(address)": "5626da24"
  },
  "id": 54
}