{
  "abi": [
    {
      "inputs": [
        {
          "internalType": "address",
          "name": "_safeEngine",
          "type": "address"
        },
        {
          "internalType": "address",
          "name": "_accountingEngine",
          "type": "address"
        },
        {
          "components": [
            {
              "internalType": "uint256",
              "name": "onAuctionSystemCoinLimit",
              "type": "uint256"
            }
          ],
          "internalType": "struct ILiquidationEngine.LiquidationEngineParams",
          "name": "_liqEngineParams",
          "type": "tuple"
        }
      ],
      "stateMutability": "nonpayable",
      "type": "constructor"
    },
    {
      "inputs": [],
      "name": "AlreadyAuthorized",
      "type": "error"
    },
    {
      "inputs": [],
      "name": "ContractIsDisabled",
      "type": "error"
    },
    {
      "inputs": [],
      "name": "ContractIsEnabled",
      "type": "error"
    },
    {
      "inputs": [],
      "name": "IntOverflow",
      "type": "error"
    },
    {
      "inputs": [],
      "name": "LiqEng_CannotModifySAFE",
      "type": "error"
    },
    {
      "inputs": [],
      "name": "LiqEng_CollateralTypeAlreadyInitialized",
      "type": "error"
    },
    {
      "inputs": [],
      "name": "LiqEng_DustySAFE",
      "type": "error"
    },
    {
      "inputs": [],
      "name": "LiqEng_InvalidAmounts",
      "type": "error"
    },
    {
      "inputs": [],
      "name": "LiqEng_InvalidSAFESaviourOperation",
      "type": "error"
    },
    {
      "inputs": [],
      "name": "LiqEng_LiquidationLimitHit",
      "type": "error"
    },
    {
      "inputs": [],
      "name": "LiqEng_NullAuction",
      "type": "error"
    },
    {
      "inputs": [],
      "name": "LiqEng_NullCollateralToSell",
      "type": "error"
    },
    {
      "inputs": [],
      "name": "LiqEng_SAFENotUnsafe",
      "type": "error"
    },
    {
      "inputs": [],
      "name": "LiqEng_SaviourNotAuthorized",
      "type": "error"
    },
    {
      "inputs": [],
      "name": "LiqEng_SaviourNotOk",
      "type": "error"
    },
    {
      "inputs": [],
      "name": "NonDisableable",
      "type": "error"
    },
    {
      "inputs": [],
      "name": "NotAuthorized",
      "type": "error"
    },
    {
      "inputs": [
        {
          "internalType": "uint256",
          "name": "_x",
          "type": "uint256"
        },
        {
          "internalType": "uint256",
          "name": "_y",
          "type": "uint256"
        }
      ],
      "name": "NotLesserOrEqualThan",
      "type": "error"
    },
    {
      "inputs": [],
      "name": "NullAddress",
      "type": "error"
    },
    {
      "inputs": [],
      "name": "Unauthorized",
      "type": "error"
    },
    {
      "inputs": [],
      "name": "UnrecognizedCType",
      "type": "error"
    },
    {
      "inputs": [],
      "name": "UnrecognizedParam",
      "type": "error"
    },
    {
      "anonymous": false,
      "inputs": [
        {
          "indexed": false,
          "internalType": "address",
          "name": "_account",
          "type": "address"
        }
      ],
      "name": "AddAuthorization",
      "type": "event"
    },
    {
      "anonymous": false,
      "inputs": [
        {
          "indexed": false,
          "internalType": "address",
          "name": "_saviour",
          "type": "address"
        }
      ],
      "name": "ConnectSAFESaviour",
      "type": "event"
    },
    {
      "anonymous": false,
      "inputs": [],
      "name": "DisableContract",
      "type": "event"
    },
    {
      "anonymous": false,
      "inputs": [
        {
          "indexed": false,
          "internalType": "address",
          "name": "_saviour",
          "type": "address"
        }
      ],
      "name": "DisconnectSAFESaviour",
      "type": "event"
    },
    {
      "anonymous": false,
      "inputs": [
        {
          "indexed": false,
          "internalType": "bytes",
          "name": "_failReason",
          "type": "bytes"
        }
      ],
      "name": "FailedSAFESave",
      "type": "event"
    },
    {
      "anonymous": false,
      "inputs": [
        {
          "indexed": true,
          "internalType": "bytes32",
          "name": "_cType",
          "type": "bytes32"
        },
        {
          "indexed": true,
          "internalType": "address",
          "name": "_safe",
          "type": "address"
        },
        {
          "indexed": false,
          "internalType": "uint256",
          "name": "_collateralAmount",
          "type": "uint256"
        },
        {
          "indexed": false,
          "internalType": "uint256",
          "name": "_debtAmount",
          "type": "uint256"
        },
        {
          "indexed": false,
          "internalType": "uint256",
          "name": "_amountToRaise",
          "type": "uint256"
        },
        {
          "indexed": false,
          "internalType": "address",
          "name": "_collateralAuctioneer",
          "type": "address"
        },
        {
          "indexed": false,
          "internalType": "uint256",
          "name": "_auctionId",
          "type": "uint256"
        }
      ],
      "name": "Liquidate",
      "type": "event"
    },
    {
      "anonymous": false,
      "inputs": [
        {
          "indexed": true,
          "internalType": "bytes32",
          "name": "_param",
          "type": "bytes32"
        },
        {
          "indexed": true,
          "internalType": "bytes32",
          "name": "_cType",
          "type": "bytes32"
        },
        {
          "indexed": false,
          "internalType": "bytes",
          "name": "_data",
          "type": "bytes"
        }
      ],
      "name": "ModifyParameters",
      "type": "event"
    },
    {
      "anonymous": false,
      "inputs": [
        {
          "indexed": true,
          "internalType": "bytes32",
          "name": "_cType",
          "type": "bytes32"
        },
        {
          "indexed": true,
          "internalType": "address",
          "name": "_safe",
          "type": "address"
        },
        {
          "indexed": false,
          "internalType": "address",
          "name": "_saviour",
          "type": "address"
        }
      ],
      "name": "ProtectSAFE",
      "type": "event"
    },
    {
      "anonymous": false,
      "inputs": [
        {
          "indexed": false,
          "internalType": "address",
          "name": "_account",
          "type": "address"
        }
      ],
      "name": "RemoveAuthorization",
      "type": "event"
    },
    {
      "anonymous": false,
      "inputs": [
        {
          "indexed": true,
          "internalType": "bytes32",
          "name": "_cType",
          "type": "bytes32"
        },
        {
          "indexed": true,
          "internalType": "address",
          "name": "_safe",
          "type": "address"
        },
        {
          "indexed": false,
          "internalType": "uint256",
          "name": "_collateralAddedOrDebtRepaid",
          "type": "uint256"
        }
      ],
      "name": "SaveSAFE",
      "type": "event"
    },
    {
      "anonymous": false,
      "inputs": [
        {
          "indexed": false,
          "internalType": "uint256",
          "name": "_currentOnAuctionSystemCoins",
          "type": "uint256"
        }
      ],
      "name": "UpdateCurrentOnAuctionSystemCoins",
      "type": "event"
    },
    {
      "inputs": [
        {
          "internalType": "bytes32",
          "name": "_cType",
          "type": "bytes32"
        }
      ],
      "name": "_cParams",
      "outputs": [
        {
          "internalType": "address",
          "name": "collateralAuctionHouse",
          "type": "address"
        },
        {
          "internalType": "uint256",
          "name": "liquidationPenalty",
          "type": "uint256"
        },
        {
          "internalType": "uint256",
          "name": "liquidationQuantity",
          "type": "uint256"
        }
      ],
      "stateMutability": "view",
      "type": "function"
    },
    {
      "inputs": [],
      "name": "_params",
      "outputs": [
        {
          "internalType": "uint256",
          "name": "onAuctionSystemCoinLimit",
          "type": "uint256"
        }
      ],
      "stateMutability": "view",
      "type": "function"
    },
    {
      "inputs": [],
      "name": "accountingEngine",
      "outputs": [
        {
          "internalType": "contract IAccountingEngine",
          "name": "",
          "type": "address"
        }
      ],
      "stateMutability": "view",
      "type": "function"
    },
    {
      "inputs": [
        {
          "internalType": "address",
          "name": "_account",
          "type": "address"
        }
      ],
      "name": "addAuthorization",
      "outputs": [],
      "stateMutability": "nonpayable",
      "type": "function"
    },
    {
      "inputs": [
        {
          "internalType": "address",
          "name": "_account",
          "type": "address"
        }
      ],
      "name": "authorizedAccounts",
      "outputs": [
        {
          "internalType": "bool",
          "name": "_authorized",
          "type": "bool"
        }
      ],
      "stateMutability": "view",
      "type": "function"
    },
    {
      "inputs": [],
      "name": "authorizedAccounts",
      "outputs": [
        {
          "internalType": "address[]",
          "name": "_accounts",
          "type": "address[]"
        }
      ],
      "stateMutability": "view",
      "type": "function"
    },
    {
      "inputs": [
        {
          "internalType": "bytes32",
          "name": "_cType",
          "type": "bytes32"
        }
      ],
      "name": "cParams",
      "outputs": [
        {
          "components": [
            {
              "internalType": "address",
              "name": "collateralAuctionHouse",
              "type": "address"
            },
            {
              "internalType": "uint256",
              "name": "liquidationPenalty",
              "type": "uint256"
            },
            {
              "internalType": "uint256",
              "name": "liquidationQuantity",
              "type": "uint256"
            }
          ],
          "internalType": "struct ILiquidationEngine.LiquidationEngineCollateralParams",
          "name": "_liqEngineCParams",
          "type": "tuple"
        }
      ],
      "stateMutability": "view",
      "type": "function"
    },
    {
      "inputs": [
        {
          "internalType": "bytes32",
          "name": "",
          "type": "bytes32"
        },
        {
          "internalType": "address",
          "name": "",
          "type": "address"
        }
      ],
      "name": "chosenSAFESaviour",
      "outputs": [
        {
          "internalType": "address",
          "name": "",
          "type": "address"
        }
      ],
      "stateMutability": "view",
      "type": "function"
    },
    {
      "inputs": [],
      "name": "collateralList",
      "outputs": [
        {
          "internalType": "bytes32[]",
          "name": "__collateralList",
          "type": "bytes32[]"
        }
      ],
      "stateMutability": "view",
      "type": "function"
    },
    {
      "inputs": [
        {
          "internalType": "address",
          "name": "_saviour",
          "type": "address"
        }
      ],
      "name": "connectSAFESaviour",
      "outputs": [],
      "stateMutability": "nonpayable",
      "type": "function"
    },
    {
      "inputs": [],
      "name": "contractEnabled",
      "outputs": [
        {
          "internalType": "bool",
          "name": "",
          "type": "bool"
        }
      ],
      "stateMutability": "view",
      "type": "function"
    },
    {
      "inputs": [],
      "name": "currentOnAuctionSystemCoins",
      "outputs": [
        {
          "internalType": "uint256",
          "name": "",
          "type": "uint256"
        }
      ],
      "stateMutability": "view",
      "type": "function"
    },
    {
      "inputs": [],
      "name": "disableContract",
      "outputs": [],
      "stateMutability": "nonpayable",
      "type": "function"
    },
    {
      "inputs": [
        {
          "internalType": "address",
          "name": "_saviour",
          "type": "address"
        }
      ],
      "name": "disconnectSAFESaviour",
      "outputs": [],
      "stateMutability": "nonpayable",
      "type": "function"
    },
    {
      "inputs": [
        {
          "internalType": "bytes32",
          "name": "_cType",
          "type": "bytes32"
        },
        {
          "internalType": "address",
          "name": "_safe",
          "type": "address"
        }
      ],
      "name": "getLimitAdjustedDebtToCover",
      "outputs": [
        {
          "internalType": "uint256",
          "name": "_limitAdjustedDebtToCover",
          "type": "uint256"
        }
      ],
      "stateMutability": "view",
      "type": "function"
    },
    {
      "inputs": [
        {
          "internalType": "bytes32",
          "name": "_cType",
          "type": "bytes32"
        },
        {
          "components": [
            {
              "internalType": "address",
              "name": "collateralAuctionHouse",
              "type": "address"
            },
            {
              "internalType": "uint256",
              "name": "liquidationPenalty",
              "type": "uint256"
            },
            {
              "internalType": "uint256",
              "name": "liquidationQuantity",
              "type": "uint256"
            }
          ],
          "internalType": "struct ILiquidationEngine.LiquidationEngineCollateralParams",
          "name": "_liqEngineCParams",
          "type": "tuple"
        }
      ],
      "name": "initializeCollateralType",
      "outputs": [],
      "stateMutability": "nonpayable",
      "type": "function"
    },
    {
      "inputs": [
        {
          "internalType": "bytes32",
          "name": "_cType",
          "type": "bytes32"
        },
        {
          "internalType": "address",
          "name": "_safe",
          "type": "address"
        }
      ],
      "name": "liquidateSAFE",
      "outputs": [
        {
          "internalType": "uint256",
          "name": "_auctionId",
          "type": "uint256"
        }
      ],
      "stateMutability": "nonpayable",
      "type": "function"
    },
    {
      "inputs": [
        {
          "internalType": "bytes32",
          "name": "_cType",
          "type": "bytes32"
        },
        {
          "internalType": "bytes32",
          "name": "_param",
          "type": "bytes32"
        },
        {
          "internalType": "bytes",
          "name": "_data",
          "type": "bytes"
        }
      ],
      "name": "modifyParameters",
      "outputs": [],
      "stateMutability": "nonpayable",
      "type": "function"
    },
    {
      "inputs": [
        {
          "internalType": "bytes32",
          "name": "_param",
          "type": "bytes32"
        },
        {
          "internalType": "bytes",
          "name": "_data",
          "type": "bytes"
        }
      ],
      "name": "modifyParameters",
      "outputs": [],
      "stateMutability": "nonpayable",
      "type": "function"
    },
    {
      "inputs": [],
      "name": "params",
      "outputs": [
        {
          "components": [
            {
              "internalType": "uint256",
              "name": "onAuctionSystemCoinLimit",
              "type": "uint256"
            }
          ],
          "internalType": "struct ILiquidationEngine.LiquidationEngineParams",
          "name": "_liqEngineParams",
          "type": "tuple"
        }
      ],
      "stateMutability": "view",
      "type": "function"
    },
    {
      "inputs": [
        {
          "internalType": "bytes32",
          "name": "_cType",
          "type": "bytes32"
        },
        {
          "internalType": "address",
          "name": "_safe",
          "type": "address"
        },
        {
          "internalType": "address",
          "name": "_saviour",
          "type": "address"
        }
      ],
      "name": "protectSAFE",
      "outputs": [],
      "stateMutability": "nonpayable",
      "type": "function"
    },
    {
      "inputs": [
        {
          "internalType": "address",
          "name": "_account",
          "type": "address"
        }
      ],
      "name": "removeAuthorization",
      "outputs": [],
      "stateMutability": "nonpayable",
      "type": "function"
    },
    {
      "inputs": [
        {
          "internalType": "uint256",
          "name": "_rad",
          "type": "uint256"
        }
      ],
      "name": "removeCoinsFromAuction",
      "outputs": [],
      "stateMutability": "nonpayable",
      "type": "function"
    },
    {
      "inputs": [],
      "name": "safeEngine",
      "outputs": [
        {
          "internalType": "contract ISAFEEngine",
          "name": "",
          "type": "address"
        }
      ],
      "stateMutability": "view",
      "type": "function"
    },
    {
      "inputs": [
        {
          "internalType": "address",
          "name": "",
          "type": "address"
        }
      ],
      "name": "safeSaviours",
      "outputs": [
        {
          "internalType": "uint256",
          "name": "",
          "type": "uint256"
        }
      ],
      "stateMutability": "view",
      "type": "function"
    }
  ],
  "bytecode": {
    "object": "0x60806040526002805460ff191660011790553480156200001e57600080fd5b5060405162002aed38038062002aed8339810160408190526200004191620001f0565b336200004d81620000ae565b506001600355620000676001600160a01b0384166200011c565b600780546001600160a01b03199081166001600160a01b0393841617909155600880549091169184169190911790558051600955620000a56200014a565b5050506200027d565b620000bb60008262000161565b1562000100576040516001600160a01b03821681527f599a298163e1678bb1c676052a8930bf0b8a1261ed6e01b8a2391e55f70001029060200160405180910390a150565b604051633013e93f60e11b815260040160405180910390fd5b50565b60006001600160a01b038216620001465760405163e99d5ac560e01b815260040160405180910390fd5b5090565b60085462000119906001600160a01b03166200011c565b600062000178836001600160a01b03841662000181565b90505b92915050565b6000818152600183016020526040812054620001ca575081546001818101845560008481526020808220909301849055845484825282860190935260409020919091556200017b565b5060006200017b565b80516001600160a01b0381168114620001eb57600080fd5b919050565b600080600083850360608112156200020757600080fd5b6200021285620001d3565b93506200022260208601620001d3565b92506020603f19820112156200023757600080fd5b50604051602081016001600160401b03811182821017156200026957634e487b7160e01b600052604160045260246000fd5b604090815294909401518452509093909250565b612860806200028d6000396000f3fe608060405234801561001057600080fd5b50600436106101a35760003560e01c80634c28be57116100ee578063894ba83311610097578063961d45c411610071578063961d45c4146103cd578063cff0ab96146103e0578063da8a4bb814610409578063e54201f61461041c57600080fd5b8063894ba8331461039f57806394f3f81d146103a757806395ffa802146103ba57600080fd5b80635626da24116100c85780635626da241461035757806367aea31314610377578063802503411461038a57600080fd5b80634c28be57146103275780634faeff1d1461033a578063552b16ab1461034d57600080fd5b80632e391876116101505780633896a3841161012a5780633896a384146102fe5780633c7999571461031157806341b3a0d91461031a57600080fd5b80632e391876146102c3578063332bef11146102d857806335b28153146102eb57600080fd5b80632082961311610181578063208296131461024157806324ba5884146102545780632c20afc41461027757600080fd5b8063049c9279146101a857806312f33526146101ce5780631d674705146101e3575b600080fd5b6101bb6101b63660046121ff565b61045a565b6040519081526020015b60405180910390f35b6101e16101dc366004612305565b61061a565b005b61021c6101f1366004612355565b600a602052600090815260409020805460018201546002909201546001600160a01b03909116919083565b604080516001600160a01b0390941684526020840192909252908201526060016101c5565b6101e161024f36600461236e565b6106ad565b61026761026236600461240a565b6107a3565b60405190151581526020016101c5565b6102ab6102853660046121ff565b60056020908152600092835260408084209091529082529020546001600160a01b031681565b6040516001600160a01b0390911681526020016101c5565b6102cb6107ae565b6040516101c59190612425565b6101e16102e6366004612355565b6107bf565b6101e16102f936600461240a565b61084f565b6101e161030c366004612472565b61089a565b6101bb60065481565b6002546102679060ff1681565b6101bb6103353660046121ff565b610a47565b6101e161034836600461240a565b611502565b6009546101bb9081565b6101bb61036536600461240a565b60046020526000908152604090205481565b6007546102ab906001600160a01b031681565b61039261158d565b6040516101c591906124ae565b6101e1611599565b6101e16103b536600461240a565b611667565b6101e16103c836600461240a565b6116af565b6008546102ab906001600160a01b031681565b6040805160208082018352600090915281518082018352600954908190529151918252016101c5565b6101e16104173660046124e6565b61189f565b61042f61042a366004612355565b611930565b6040805182516001600160a01b031681526020808401519082015291810151908201526060016101c5565b6007546040517fb6e05a2e0000000000000000000000000000000000000000000000000000000081526004810184905260009182916001600160a01b039091169063b6e05a2e9060240160a060405180830381865afa1580156104c1573d6000803e3d6000fd5b505050506040513d601f19601f820116820180604052508101906104e5919061252d565b60409081015160075491517f3d422504000000000000000000000000000000000000000000000000000000008152600481018790526001600160a01b0386811660248301529193506000929190911690633d422504906044016040805180830381865afa15801561055a573d6000803e3d6000fd5b505050506040513d601f19601f8201168201806040525081019061057e91906125ec565b6020908101516000878152600a8352604090819020815160608101835281546001600160a01b031681526001820154948101859052600290910154918101829052600654600954939550909361060e93869391928892670de0b6b3a7640000926105f0926105eb91612637565b61199f565b6105fa919061264a565b6106049190612661565b6105eb9190612661565b93505050505b92915050565b610623336119b8565b610659576040517f82b4290000000000000000000000000000000000000000000000000000000000815260040160405180910390fd5b826106658484846119c4565b83837fe436a8be7dc6aab90b400800ecc86e46fb600f2e18989b5d0389840fdabbf2ed84604051610696919061269c565b60405180910390a36106a781611b06565b50505050565b6106b6336119b8565b6106ec576040517f82b4290000000000000000000000000000000000000000000000000000000000815260040160405180910390fd5b816106f8600b82611b95565b61072e576040517f685c318700000000000000000000000000000000000000000000000000000000815260040160405180910390fd5b61073c838360000151611ba1565b6000838152600a6020908152604091829020845181547fffffffffffffffffffffffff0000000000000000000000000000000000000000166001600160a01b039091161781559084015160018201559083015160029091015561079e81611b06565b505050565b6000610614826119b8565b60606107ba6000611cf8565b905090565b6107c8336119b8565b6107fe576040517f82b4290000000000000000000000000000000000000000000000000000000000815260040160405180910390fd5b80600660008282546108109190612637565b90915550506006546040519081527fe1bbac4c69a9c7825ff4f220089a412e2349521ceba06c7f07c3764522ef0414906020015b60405180910390a150565b610858336119b8565b61088e576040517f82b4290000000000000000000000000000000000000000000000000000000000815260040160405180910390fd5b61089781611d05565b50565b6001600160a01b038116156109bd576007546040517f50de215d0000000000000000000000000000000000000000000000000000000081526001600160a01b038481166004830152336024830152909116906350de215d90604401602060405180830381865afa158015610912573d6000803e3d6000fd5b505050506040513d601f19601f820116820180604052508101906109369190612718565b61096c576040517fa4d3e56500000000000000000000000000000000000000000000000000000000815260040160405180910390fd5b6001600160a01b03811660009081526004602052604081205490036109bd576040517f350b056700000000000000000000000000000000000000000000000000000000815260040160405180910390fd5b60008381526005602090815260408083206001600160a01b038681168086529184529382902080547fffffffffffffffffffffffff000000000000000000000000000000000000000016948616948517905590519283529185917f9c0c3b2f97315fb268638262f83f63de4f645ad9ae8ea84e2182f67e7d28d8f7910160405180910390a3505050565b6000610a5560025460ff1690565b610a8b576040517f7abbf1c900000000000000000000000000000000000000000000000000000000815260040160405180910390fd5b610a93611d80565b6007546040517fe54201f6000000000000000000000000000000000000000000000000000000008152600481018590526000916001600160a01b03169063e54201f6906024016040805180830381865afa158015610af5573d6000803e3d6000fd5b505050506040513d601f19601f82011682018060405250810190610b1991906125ec565b602001516007546040517fb6e05a2e000000000000000000000000000000000000000000000000000000008152600481018790529192506000916001600160a01b039091169063b6e05a2e9060240160a060405180830381865afa158015610b85573d6000803e3d6000fd5b505050506040513d601f19601f82011682018060405250810190610ba9919061252d565b6007546040517f3d422504000000000000000000000000000000000000000000000000000000008152600481018890526001600160a01b03878116602483015292935060009290911690633d422504906044016040805180830381865afa158015610c18573d6000803e3d6000fd5b505050506040513d601f19601f82011682018060405250810190610c3c91906125ec565b9050816080015160001480610c74575081604001518160200151610c60919061264a565b60808301518251610c71919061264a565b10155b15610cab576040517f660f68af00000000000000000000000000000000000000000000000000000000815260040160405180910390fd5b600954600654101580610ccc57506006546009548491610cca91612637565b105b15610d03576040517f1baf9c1c00000000000000000000000000000000000000000000000000000000815260040160405180910390fd5b60008681526005602090815260408083206001600160a01b0389811685529252909120541615801590610d65575060008681526005602090815260408083206001600160a01b03808a1685529083528184205416835260049091529020546001145b156110675760008681526005602090815260408083206001600160a01b0389811680865291909352928190205490517fb9b0bb39000000000000000000000000000000000000000000000000000000008152336004820152602481018a90526044810193909352169063b9b0bb39906064016060604051808303816000875af1925050508015610e30575060408051601f3d9081017fffffffffffffffffffffffffffffffffffffffffffffffffffffffffffffffe0168201909252610e2d91810190612733565b60015b610ea1573d808015610e5e576040519150601f19603f3d011682016040523d82523d6000602084013e610e63565b606091505b507fe7862113e21c9c96e382110b92dfc08242b5c58f90259305fe30adc0d77e2a4381604051610e93919061269c565b60405180910390a150611067565b828015610eae5750600082115b15611063576007546040517f3d422504000000000000000000000000000000000000000000000000000000008152600481018b90526001600160a01b038a811660248301526000921690633d422504906044016040805180830381865afa158015610f1d573d6000803e3d6000fd5b505050506040513d601f19601f82011682018060405250810190610f4191906125ec565b855181519192501180610f5b575084602001518160200151115b15610f92576040517fc9b2fb0000000000000000000000000000000000000000000000000000000000815260040160405180910390fd5b6007546040517fb6e05a2e000000000000000000000000000000000000000000000000000000008152600481018c90526001600160a01b039091169063b6e05a2e9060240160a060405180830381865afa158015610ff4573d6000803e3d6000fd5b505050506040513d601f19601f82011682018060405250810190611018919061252d565b9550809450886001600160a01b03168a7f7afee8680e1a5395600115d5fc996ecb20b450ca793815c08c9b19d2dc6663d78560405161105991815260200190565b60405180910390a3505b5050505b6000826080015111801561109d57508160400151816020015161108a919061264a565b6080830151825161109b919061264a565b105b156114f5576000868152600a60209081526040808320815160608101835281546001600160a01b031681526001820154818501819052600290920154818401819052938601519287015160065460095492969561110f959493670de0b6b3a7640000926105f092916105eb9190612637565b90508060000361114b576040517fe86d5e0800000000000000000000000000000000000000000000000000000000815260040160405180910390fd5b8260200151811415801561117c57508484604001518285602001516111709190612637565b61117a919061264a565b105b156111b3576040517f5484d59800000000000000000000000000000000000000000000000000000000815260040160405180910390fd5b825160208401516000916111cb91610604858361264a565b905080600003611207576040517f2a9afcc300000000000000000000000000000000000000000000000000000000815260040160405180910390fd5b6007546008546001600160a01b0391821691634e14a967918c918c9130911661122f87611df8565b61123890612768565b61124189611df8565b61124a90612768565b6040517fffffffff0000000000000000000000000000000000000000000000000000000060e089901b16815260048101969096526001600160a01b039485166024870152928416604486015292166064840152608483019190915260a482015260c401600060405180830381600087803b1580156112c757600080fd5b505af11580156112db573d6000803e3d6000fd5b505060085460408801516001600160a01b03909116925063a8b30a9f9150611303908561264a565b6040518263ffffffff1660e01b815260040161132191815260200190565b600060405180830381600087803b15801561133b57600080fd5b505af115801561134f573d6000803e3d6000fd5b505050506000670de0b6b3a76400008460200151876040015185611373919061264a565b61137d919061264a565b6113879190612661565b9050806006600082825461139b91906127a0565b909155505083516008546040517f4c33b2230000000000000000000000000000000000000000000000000000000081526001600160a01b038c8116600483015291821660248201526044810184905260648101859052911690634c33b223906084016020604051808303816000875af115801561141c573d6000803e3d6000fd5b505050506040513d601f19601f8201168201806040525081019061144091906127b3565b97507fe1bbac4c69a9c7825ff4f220089a412e2349521ceba06c7f07c3764522ef041460065460405161147591815260200190565b60405180910390a1886001600160a01b03168a7f72d3864f233703680912d39433c137e816d579e8785e5245274ca9f95bea896784868a60400151886114bb919061264a565b8951604080519485526020850193909352918301526001600160a01b03166060820152608081018c905260a00160405180910390a3505050505b5050506106146001600355565b61150b336119b8565b611541576040517f82b4290000000000000000000000000000000000000000000000000000000000815260040160405180910390fd5b6001600160a01b03811660008181526004602090815260408083209290925590519182527ffce504fd9d349038183fa936cbbfadf867e63406485f0f4f9f45f7f2856f813f9101610844565b60606107ba600b611cf8565b6115a2336119b8565b6115d8576040517f82b4290000000000000000000000000000000000000000000000000000000000815260040160405180910390fd5b60025460ff16611614576040517f7abbf1c900000000000000000000000000000000000000000000000000000000815260040160405180910390fd5b600280547fffffffffffffffffffffffffffffffffffffffffffffffffffffffffffffff001690556040517f2d4b4ecff7bd7503135271925520a2f6c0d98c9473ffc1a1e72c92502f51b25e90600090a1565b611670336119b8565b6116a6576040517f82b4290000000000000000000000000000000000000000000000000000000000815260040160405180910390fd5b61089781611e39565b6116b8336119b8565b6116ee576040517f82b4290000000000000000000000000000000000000000000000000000000000815260040160405180910390fd5b6040517fb9b0bb390000000000000000000000000000000000000000000000000000000081523060048201526000602482018190526044820181905290819081906001600160a01b0385169063b9b0bb39906064016060604051808303816000875af1158015611762573d6000803e3d6000fd5b505050506040513d601f19601f820116820180604052508101906117869190612733565b925092509250826117c3576040517fca81df2f00000000000000000000000000000000000000000000000000000000815260040160405180910390fd5b7fffffffffffffffffffffffffffffffffffffffffffffffffffffffffffffffff8214158061181257507fffffffffffffffffffffffffffffffffffffffffffffffffffffffffffffffff8114155b15611849576040517fa2eb037c00000000000000000000000000000000000000000000000000000000815260040160405180910390fd5b6001600160a01b0384166000818152600460209081526040918290206001905590519182527fc2553257d1b78c297941723c1913912f9161a830e997b56133a669b3a3de6a1e910160405180910390a150505050565b6118a8336119b8565b6118de576040517f82b4290000000000000000000000000000000000000000000000000000000000815260040160405180910390fd5b6118e88282611eb4565b6000801b827fe436a8be7dc6aab90b400800ecc86e46fb600f2e18989b5d0389840fdabbf2ed8360405161191c919061269c565b60405180910390a361192c611f4a565b5050565b61195d604051806060016040528060006001600160a01b0316815260200160008152602001600081525090565b506000908152600a6020908152604091829020825160608101845281546001600160a01b03168152600182015492810192909252600201549181019190915290565b6000818311156119af57816119b1565b825b9392505050565b60006106148183611f5f565b60006119d1826020015190565b90506119de600b85611f81565b611a14576040517f98fc17bd00000000000000000000000000000000000000000000000000000000815260040160405180910390fd5b827f6c69717569646174696f6e50656e616c7479000000000000000000000000000003611a54576000848152600a602052604090206001018190556106a7565b827f6c69717569646174696f6e5175616e746974790000000000000000000000000003611a94576000848152600a602052604090206002018190556106a7565b827f636f6c6c61746572616c41756374696f6e486f7573650000000000000000000003611ad457611acf84611aca846020015190565b611ba1565b6106a7565b6040517f9d2ff48000000000000000000000000000000000000000000000000000000000815260040160405180910390fd5b6000818152600a6020908152604091829020825160608101845281546001600160a01b031680825260018301549382019390935260029091015492810192909252611b5090611f99565b5061079e611b8a6b033b2e3c9fd0803ce80000007fffffffffffffffffffffffffffffffffffffffffffffffffffffffffffffffff612661565b604083015190611fdf565b60006119b18383612025565b6000828152600a6020526040902080546001600160a01b031615611c4d5760075481546040517fd49d78670000000000000000000000000000000000000000000000000000000081526001600160a01b03918216600482015291169063d49d786790602401600060405180830381600087803b158015611c2057600080fd5b505af1158015611c34573d6000803e3d6000fd5b50508254611c4d92506001600160a01b03169050611e39565b80547fffffffffffffffffffffffff0000000000000000000000000000000000000000166001600160a01b0383811691821783556007546040517fd94d42080000000000000000000000000000000000000000000000000000000081526004810193909352169063d94d420890602401600060405180830381600087803b158015611cd757600080fd5b505af1158015611ceb573d6000803e3d6000fd5b5050505061079e82611d05565b606060006119b183612074565b611d106000826120d0565b15611d4e576040516001600160a01b03821681527f599a298163e1678bb1c676052a8930bf0b8a1261ed6e01b8a2391e55f700010290602001610844565b6040517f6027d27e00000000000000000000000000000000000000000000000000000000815260040160405180910390fd5b600260035403611df1576040517f08c379a000000000000000000000000000000000000000000000000000000000815260206004820152601f60248201527f5265656e7472616e637947756172643a207265656e7472616e742063616c6c0060448201526064015b60405180910390fd5b6002600355565b806000811215611e34576040517f44dddea200000000000000000000000000000000000000000000000000000000815260040160405180910390fd5b919050565b611e446000826120e5565b15611e82576040516001600160a01b03821681527f8834a87e641e9716be4f34527af5d23e11624f1ddeefede6ad75a9acfc31b90390602001610844565b6040517fea8e4eb500000000000000000000000000000000000000000000000000000000815260040160405180910390fd5b817f6f6e41756374696f6e53797374656d436f696e4c696d6974000000000000000003611ee5576020015160095550565b817f6163636f756e74696e67456e67696e650000000000000000000000000000000003611ad45760200151600880547fffffffffffffffffffffffff0000000000000000000000000000000000000000166001600160a01b0390921691909117905550565b600854610897906001600160a01b0316611f99565b6001600160a01b038116600090815260018301602052604081205415156119b1565b600081815260018301602052604081205415156119b1565b60006001600160a01b038216611fdb576040517fe99d5ac500000000000000000000000000000000000000000000000000000000815260040160405180910390fd5b5090565b6000818311156119af576040517f47df8ef30000000000000000000000000000000000000000000000000000000081526004810184905260248101839052604401611de8565b600081815260018301602052604081205461206c57508154600181810184556000848152602080822090930184905584548482528286019093526040902091909155610614565b506000610614565b6060816000018054806020026020016040519081016040528092919081815260200182805480156120c457602002820191906000526020600020905b8154815260200190600101908083116120b0575b50505050509050919050565b60006119b1836001600160a01b038416612025565b60006119b1836001600160a01b038416600081815260018301602052604081205480156121de576000612119600183612637565b855490915060009061212d90600190612637565b905081811461219257600086600001828154811061214d5761214d6127cc565b9060005260206000200154905080876000018481548110612170576121706127cc565b6000918252602080832090910192909255918252600188019052604090208390555b85548690806121a3576121a36127fb565b600190038181906000526020600020016000905590558560010160008681526020019081526020016000206000905560019350505050610614565b6000915050610614565b80356001600160a01b0381168114611e3457600080fd5b6000806040838503121561221257600080fd5b82359150612222602084016121e8565b90509250929050565b7f4e487b7100000000000000000000000000000000000000000000000000000000600052604160045260246000fd5b600082601f83011261226b57600080fd5b813567ffffffffffffffff808211156122865761228661222b565b604051601f83017fffffffffffffffffffffffffffffffffffffffffffffffffffffffffffffffe0908116603f011681019082821181831017156122cc576122cc61222b565b816040528381528660208588010111156122e557600080fd5b836020870160208301376000602085830101528094505050505092915050565b60008060006060848603121561231a57600080fd5b8335925060208401359150604084013567ffffffffffffffff81111561233f57600080fd5b61234b8682870161225a565b9150509250925092565b60006020828403121561236757600080fd5b5035919050565b600080828403608081121561238257600080fd5b8335925060607fffffffffffffffffffffffffffffffffffffffffffffffffffffffffffffffe0820112156123b657600080fd5b506040516060810181811067ffffffffffffffff821117156123da576123da61222b565b6040526123e9602085016121e8565b81526040840135602082015260608401356040820152809150509250929050565b60006020828403121561241c57600080fd5b6119b1826121e8565b6020808252825182820181905260009190848201906040850190845b818110156124665783516001600160a01b031683529284019291840191600101612441565b50909695505050505050565b60008060006060848603121561248757600080fd5b83359250612497602085016121e8565b91506124a5604085016121e8565b90509250925092565b6020808252825182820181905260009190848201906040850190845b81811015612466578351835292840192918401916001016124ca565b600080604083850312156124f957600080fd5b82359150602083013567ffffffffffffffff81111561251757600080fd5b6125238582860161225a565b9150509250929050565b600060a0828403121561253f57600080fd5b60405160a0810181811067ffffffffffffffff821117156125625761256261222b565b806040525082518152602083015160208201526040830151604082015260608301516060820152608083015160808201528091505092915050565b6000604082840312156125af57600080fd5b6040516040810181811067ffffffffffffffff821117156125d2576125d261222b565b604052825181526020928301519281019290925250919050565b6000604082840312156125fe57600080fd5b6119b1838361259d565b7f4e487b7100000000000000000000000000000000000000000000000000000000600052601160045260246000fd5b8181038181111561061457610614612608565b808202811582820484141761061457610614612608565b600082612697577f4e487b7100000000000000000000000000000000000000000000000000000000600052601260045260246000fd5b500490565b600060208083528351808285015260005b818110156126c9578581018301518582016040015282016126ad565b5060006040828601015260407fffffffffffffffffffffffffffffffffffffffffffffffffffffffffffffffe0601f8301168501019250505092915050565b80518015158114611e3457600080fd5b60006020828403121561272a57600080fd5b6119b182612708565b60008060006060848603121561274857600080fd5b61275184612708565b925060208401519150604084015190509250925092565b60007f8000000000000000000000000000000000000000000000000000000000000000820361279957612799612608565b5060000390565b8082018082111561061457610614612608565b6000602082840312156127c557600080fd5b5051919050565b7f4e487b7100000000000000000000000000000000000000000000000000000000600052603260045260246000fd5b7f4e487b7100000000000000000000000000000000000000000000000000000000600052603160045260246000fdfea26469706673582212207aee67777c20418fb8a397c2f2463d45e6ff8e5cad9898d7f0d7d3e686b5c72664736f6c63430008130033",
    "linkReferences": {}
  },
  "methodIdentifiers": {
    "_cParams(bytes32)": "1d674705",
    "_params()": "552b16ab",
    "accountingEngine()": "961d45c4",
    "addAuthorization(address)": "35b28153",
    "authorizedAccounts()": "2e391876",
    "authorizedAccounts(address)": "24ba5884",
    "cParams(bytes32)": "e54201f6",
    "chosenSAFESaviour(bytes32,address)": "2c20afc4",
    "collateralList()": "80250341",
    "connectSAFESaviour(address)": "95ffa802",
    "contractEnabled()": "41b3a0d9",
    "currentOnAuctionSystemCoins()": "3c799957",
    "disableContract()": "894ba833",
    "disconnectSAFESaviour(address)": "4faeff1d",
    "getLimitAdjustedDebtToCover(bytes32,address)": "049c9279",
    "initializeCollateralType(bytes32,(address,uint256,uint256))": "20829613",
    "liquidateSAFE(bytes32,address)": "4c28be57",
    "modifyParameters(bytes32,bytes)": "da8a4bb8",
    "modifyParameters(bytes32,bytes32,bytes)": "12f33526",
    "params()": "cff0ab96",
    "protectSAFE(bytes32,address,address)": "3896a384",
    "removeAuthorization(address)": "94f3f81d",
    "removeCoinsFromAuction(uint256)": "332bef11",
    "safeEngine()": "67aea313",
    "safeSaviours(address)": "5626da24"
  },
  "id": 54
}