{
  "abi": [
    {
      "inputs": [
        {
          "internalType": "address",
          "name": "_liquidationEngine",
          "type": "address"
        },
        {
          "internalType": "address",
          "name": "_stabilityFeeTreasury",
          "type": "address"
        },
        {
          "internalType": "uint256",
          "name": "_rewardAmount",
          "type": "uint256"
        }
      ],
      "stateMutability": "nonpayable",
      "type": "constructor"
    },
    {
      "inputs": [],
      "name": "AlreadyAuthorized",
      "type": "error"
    },
    {
      "inputs": [],
      "name": "NotAuthorized",
      "type": "error"
    },
    {
      "inputs": [],
      "name": "NotWorkable",
      "type": "error"
    },
    {
      "inputs": [],
      "name": "Unauthorized",
      "type": "error"
    },
    {
      "inputs": [],
      "name": "UnrecognizedCType",
      "type": "error"
    },
    {
      "inputs": [],
      "name": "UnrecognizedParam",
      "type": "error"
    },
    {
      "anonymous": false,
      "inputs": [
        {
          "indexed": false,
          "internalType": "address",
          "name": "_account",
          "type": "address"
        }
      ],
      "name": "AddAuthorization",
      "type": "event"
    },
    {
      "anonymous": false,
      "inputs": [
        {
          "indexed": true,
          "internalType": "bytes32",
          "name": "_param",
          "type": "bytes32"
        },
        {
          "indexed": true,
          "internalType": "bytes32",
          "name": "_cType",
          "type": "bytes32"
        },
        {
          "indexed": false,
          "internalType": "bytes",
          "name": "_data",
          "type": "bytes"
        }
      ],
      "name": "ModifyParameters",
      "type": "event"
    },
    {
      "anonymous": false,
      "inputs": [
        {
          "indexed": false,
          "internalType": "address",
          "name": "_account",
          "type": "address"
        }
      ],
      "name": "RemoveAuthorization",
      "type": "event"
    },
    {
      "anonymous": false,
      "inputs": [
        {
          "indexed": false,
          "internalType": "address",
          "name": "_rewardedAccount",
          "type": "address"
        },
        {
          "indexed": false,
          "internalType": "uint256",
          "name": "_rewardAmount",
          "type": "uint256"
        }
      ],
      "name": "Rewarded",
      "type": "event"
    },
    {
      "inputs": [
        {
          "internalType": "address",
          "name": "_account",
          "type": "address"
        }
      ],
      "name": "addAuthorization",
      "outputs": [],
      "stateMutability": "nonpayable",
      "type": "function"
    },
    {
      "inputs": [
        {
          "internalType": "address",
          "name": "_account",
          "type": "address"
        }
      ],
      "name": "authorizedAccounts",
      "outputs": [
        {
          "internalType": "bool",
          "name": "_authorized",
          "type": "bool"
        }
      ],
      "stateMutability": "view",
      "type": "function"
    },
    {
      "inputs": [],
      "name": "authorizedAccounts",
      "outputs": [
        {
          "internalType": "address[]",
          "name": "_accounts",
          "type": "address[]"
        }
      ],
      "stateMutability": "view",
      "type": "function"
    },
    {
      "inputs": [],
      "name": "liquidationEngine",
      "outputs": [
        {
          "internalType": "contract ILiquidationEngine",
          "name": "",
          "type": "address"
        }
      ],
      "stateMutability": "view",
      "type": "function"
    },
    {
      "inputs": [
        {
          "internalType": "bytes32",
          "name": "_cType",
          "type": "bytes32"
        },
        {
          "internalType": "bytes32",
          "name": "_param",
          "type": "bytes32"
        },
        {
          "internalType": "bytes",
          "name": "_data",
          "type": "bytes"
        }
      ],
      "name": "modifyParameters",
      "outputs": [],
      "stateMutability": "nonpayable",
      "type": "function"
    },
    {
      "inputs": [
        {
          "internalType": "bytes32",
          "name": "_param",
          "type": "bytes32"
        },
        {
          "internalType": "bytes",
          "name": "_data",
          "type": "bytes"
        }
      ],
      "name": "modifyParameters",
      "outputs": [],
      "stateMutability": "nonpayable",
      "type": "function"
    },
    {
      "inputs": [
        {
          "internalType": "address",
          "name": "_account",
          "type": "address"
        }
      ],
      "name": "removeAuthorization",
      "outputs": [],
      "stateMutability": "nonpayable",
      "type": "function"
    },
    {
      "inputs": [],
      "name": "rewardAmount",
      "outputs": [
        {
          "internalType": "uint256",
          "name": "",
          "type": "uint256"
        }
      ],
      "stateMutability": "view",
      "type": "function"
    },
    {
      "inputs": [],
      "name": "shouldWork",
      "outputs": [
        {
          "internalType": "bool",
          "name": "",
          "type": "bool"
        }
      ],
      "stateMutability": "view",
      "type": "function"
    },
    {
      "inputs": [],
      "name": "stabilityFeeTreasury",
      "outputs": [
        {
          "internalType": "contract IStabilityFeeTreasury",
          "name": "",
          "type": "address"
        }
      ],
      "stateMutability": "view",
      "type": "function"
    },
    {
      "inputs": [
        {
          "internalType": "bytes32",
          "name": "_cType",
          "type": "bytes32"
        },
        {
          "internalType": "address",
          "name": "_safe",
          "type": "address"
        }
      ],
      "name": "workLiquidation",
      "outputs": [],
      "stateMutability": "nonpayable",
      "type": "function"
    }
  ],
  "bytecode": {
    "object": "0x60806040523480156200001157600080fd5b5060405162000fcb38038062000fcb833981016040819052620000349162000193565b600180546001600160a01b0319166001600160a01b038416179055600081905533620000608162000099565b50506004805460ff196001600160a01b0390941661010002939093166001600160a81b03199093169290921760011790915550620001d4565b620000a660028262000104565b15620000eb576040516001600160a01b03821681527f599a298163e1678bb1c676052a8930bf0b8a1261ed6e01b8a2391e55f70001029060200160405180910390a150565b604051633013e93f60e11b815260040160405180910390fd5b60006200011b836001600160a01b03841662000124565b90505b92915050565b60008181526001830160205260408120546200016d575081546001818101845560008481526020808220909301849055845484825282860190935260409020919091556200011e565b5060006200011e565b80516001600160a01b03811681146200018e57600080fd5b919050565b600080600060608486031215620001a957600080fd5b620001b48462000176565b9250620001c46020850162000176565b9150604084015190509250925092565b610de780620001e46000396000f3fe608060405234801561001057600080fd5b50600436106100c95760003560e01c8063480782701161008157806394f3f81d1161005b57806394f3f81d146101bd578063da8a4bb8146101d0578063f7b2a7be146101e357600080fd5b8063480782701461017d57806372b6f12a1461019057806383ed1b0d146101b057600080fd5b80632e391876116100b25780632e3918761461010b57806335b281531461012057806344bf3c721461013357600080fd5b806312f33526146100ce57806324ba5884146100e3575b600080fd5b6100e16100dc366004610b33565b6101fa565b005b6100f66100f1366004610bac565b610284565b60405190151581526020015b60405180910390f35b610113610295565b6040516101029190610bc7565b6100e161012e366004610bac565b6102a6565b60045461015890610100900473ffffffffffffffffffffffffffffffffffffffff1681565b60405173ffffffffffffffffffffffffffffffffffffffff9091168152602001610102565b6100e161018b366004610c21565b6102f1565b6001546101589073ffffffffffffffffffffffffffffffffffffffff1681565b6004546100f69060ff1681565b6100e16101cb366004610bac565b61049f565b6100e16101de366004610c4d565b6104e7565b6101ec60005481565b604051908152602001610102565b61020333610570565b610239576040517f82b4290000000000000000000000000000000000000000000000000000000000815260040160405180910390fd5b8261024584848461059d565b83837fe436a8be7dc6aab90b400800ecc86e46fb600f2e18989b5d0389840fdabbf2ed846040516102769190610c94565b60405180910390a350505050565b600061028f82610570565b92915050565b60606102a160026105cf565b905090565b6102af33610570565b6102e5576040517f82b4290000000000000000000000000000000000000000000000000000000000815260040160405180910390fd5b6102ee816105e3565b50565b60045460ff1661032d576040517f3bf5822400000000000000000000000000000000000000000000000000000000815260040160405180910390fd5b600480546040517f4c28be5700000000000000000000000000000000000000000000000000000000815291820184905273ffffffffffffffffffffffffffffffffffffffff83811660248401526101009091041690634c28be57906044016020604051808303816000875af11580156103aa573d6000803e3d6000fd5b505050506040513d601f19601f820116820180604052508101906103ce9190610d00565b506001546000546040517fc6cdbcbb000000000000000000000000000000000000000000000000000000008152336004820152602481019190915273ffffffffffffffffffffffffffffffffffffffff9091169063c6cdbcbb90604401600060405180830381600087803b15801561044557600080fd5b505af1158015610459573d6000803e3d6000fd5b50506000546040805133815260208101929092527fb3b7a071186534c03b40695710096f289fd4ed6c1a374aff0bb648955e4fe563935001905060405180910390a15050565b6104a833610570565b6104de576040517f82b4290000000000000000000000000000000000000000000000000000000000815260040160405180910390fd5b6102ee81610672565b6104f033610570565b610526576040517f82b4290000000000000000000000000000000000000000000000000000000000815260040160405180910390fd5b61053082826106fa565b6000801b827fe436a8be7dc6aab90b400800ecc86e46fb600f2e18989b5d0389840fdabbf2ed836040516105649190610c94565b60405180910390a35050565b73ffffffffffffffffffffffffffffffffffffffff8116600090815260036020526040812054151561028f565b6040517f9d2ff48000000000000000000000000000000000000000000000000000000000815260040160405180910390fd5b606060006105dc83610877565b9392505050565b6105ee6002826108d3565b156106405760405173ffffffffffffffffffffffffffffffffffffffff821681527f599a298163e1678bb1c676052a8930bf0b8a1261ed6e01b8a2391e55f7000102906020015b60405180910390a150565b6040517f6027d27e00000000000000000000000000000000000000000000000000000000815260040160405180910390fd5b61067d6002826108f5565b156106c85760405173ffffffffffffffffffffffffffffffffffffffff821681527f8834a87e641e9716be4f34527af5d23e11624f1ddeefede6ad75a9acfc31b90390602001610635565b6040517fea8e4eb500000000000000000000000000000000000000000000000000000000815260040160405180910390fd5b6000610707826020015190565b9050827f6c69717569646174696f6e456e67696e650000000000000000000000000000000361077957600480547fffffffffffffffffffffff0000000000000000000000000000000000000000ff1661010073ffffffffffffffffffffffffffffffffffffffff841602179055505050565b827f73746162696c6974794665655472656173757279000000000000000000000000036107e557600180547fffffffffffffffffffffffff00000000000000000000000000000000000000001673ffffffffffffffffffffffffffffffffffffffff8316179055505050565b827f73686f756c64576f726b0000000000000000000000000000000000000000000003610845576020820151600480547fffffffffffffffffffffffffffffffffffffffffffffffffffffffffffffff0016911515919091179055505050565b827f726577617264416d6f756e7400000000000000000000000000000000000000000361059d57506020015160005550565b6060816000018054806020026020016040519081016040528092919081815260200182805480156108c757602002820191906000526020600020905b8154815260200190600101908083116108b3575b50505050509050919050565b60006105dc8373ffffffffffffffffffffffffffffffffffffffff8416610917565b60006105dc8373ffffffffffffffffffffffffffffffffffffffff8416610966565b600081815260018301602052604081205461095e5750815460018181018455600084815260208082209093018490558454848252828601909352604090209190915561028f565b50600061028f565b60008181526001830160205260408120548015610a4f57600061098a600183610d19565b855490915060009061099e90600190610d19565b9050818114610a035760008660000182815481106109be576109be610d53565b90600052602060002001549050808760000184815481106109e1576109e1610d53565b6000918252602080832090910192909255918252600188019052604090208390555b8554869080610a1457610a14610d82565b60019003818190600052602060002001600090559055856001016000868152602001908152602001600020600090556001935050505061028f565b600091505061028f565b7f4e487b7100000000000000000000000000000000000000000000000000000000600052604160045260246000fd5b600082601f830112610a9957600080fd5b813567ffffffffffffffff80821115610ab457610ab4610a59565b604051601f83017fffffffffffffffffffffffffffffffffffffffffffffffffffffffffffffffe0908116603f01168101908282118183101715610afa57610afa610a59565b81604052838152866020858801011115610b1357600080fd5b836020870160208301376000602085830101528094505050505092915050565b600080600060608486031215610b4857600080fd5b8335925060208401359150604084013567ffffffffffffffff811115610b6d57600080fd5b610b7986828701610a88565b9150509250925092565b803573ffffffffffffffffffffffffffffffffffffffff81168114610ba757600080fd5b919050565b600060208284031215610bbe57600080fd5b6105dc82610b83565b6020808252825182820181905260009190848201906040850190845b81811015610c1557835173ffffffffffffffffffffffffffffffffffffffff1683529284019291840191600101610be3565b50909695505050505050565b60008060408385031215610c3457600080fd5b82359150610c4460208401610b83565b90509250929050565b60008060408385031215610c6057600080fd5b82359150602083013567ffffffffffffffff811115610c7e57600080fd5b610c8a85828601610a88565b9150509250929050565b600060208083528351808285015260005b81811015610cc157858101830151858201604001528201610ca5565b5060006040828601015260407fffffffffffffffffffffffffffffffffffffffffffffffffffffffffffffffe0601f8301168501019250505092915050565b600060208284031215610d1257600080fd5b5051919050565b8181038181111561028f577f4e487b7100000000000000000000000000000000000000000000000000000000600052601160045260246000fd5b7f4e487b7100000000000000000000000000000000000000000000000000000000600052603260045260246000fd5b7f4e487b7100000000000000000000000000000000000000000000000000000000600052603160045260246000fdfea2646970667358221220f70adc3891b41ab82fa5c17144c2c27ad55e43474c11a31c1e9295d60a56757464736f6c63430008130033",
    "linkReferences": {}
  },
  "methodIdentifiers": {
    "addAuthorization(address)": "35b28153",
    "authorizedAccounts()": "2e391876",
    "authorizedAccounts(address)": "24ba5884",
    "liquidationEngine()": "44bf3c72",
    "modifyParameters(bytes32,bytes)": "da8a4bb8",
    "modifyParameters(bytes32,bytes32,bytes)": "12f33526",
    "removeAuthorization(address)": "94f3f81d",
    "rewardAmount()": "f7b2a7be",
    "shouldWork()": "83ed1b0d",
    "stabilityFeeTreasury()": "72b6f12a",
    "workLiquidation(bytes32,address)": "48078270"
  },
  "id": 113
}