{
  "abi": [
    {
      "inputs": [
        {
          "internalType": "address",
          "name": "_safeEngine",
          "type": "address"
        },
        {
          "internalType": "contract IBaseOracle",
          "name": "_systemCoinOracle",
          "type": "address"
        },
        {
          "components": [
            {
              "internalType": "uint256",
              "name": "redemptionRateUpperBound",
              "type": "uint256"
            },
            {
              "internalType": "uint256",
              "name": "redemptionRateLowerBound",
              "type": "uint256"
            }
          ],
          "internalType": "struct IOracleRelayer.OracleRelayerParams",
          "name": "_oracleRelayerParams",
          "type": "tuple"
        }
      ],
      "stateMutability": "nonpayable",
      "type": "constructor"
    },
    {
      "inputs": [],
      "name": "AlreadyAuthorized",
      "type": "error"
    },
    {
      "inputs": [],
      "name": "ContractIsDisabled",
      "type": "error"
    },
    {
      "inputs": [],
      "name": "ContractIsEnabled",
      "type": "error"
    },
    {
      "inputs": [],
      "name": "NonDisableable",
      "type": "error"
    },
    {
      "inputs": [],
      "name": "NotAuthorized",
      "type": "error"
    },
    {
      "inputs": [
        {
          "internalType": "uint256",
          "name": "_x",
          "type": "uint256"
        },
        {
          "internalType": "uint256",
          "name": "_y",
          "type": "uint256"
        }
      ],
      "name": "NotGreaterOrEqualThan",
      "type": "error"
    },
    {
      "inputs": [
        {
          "internalType": "uint256",
          "name": "_x",
          "type": "uint256"
        },
        {
          "internalType": "uint256",
          "name": "_y",
          "type": "uint256"
        }
      ],
      "name": "NotGreaterThan",
      "type": "error"
    },
    {
      "inputs": [
        {
          "internalType": "uint256",
          "name": "_x",
          "type": "uint256"
        },
        {
          "internalType": "uint256",
          "name": "_y",
          "type": "uint256"
        }
      ],
      "name": "NotLesserThan",
      "type": "error"
    },
    {
      "inputs": [],
      "name": "NullAddress",
      "type": "error"
    },
    {
      "inputs": [],
      "name": "OracleRelayer_CollateralTypeAlreadyInitialized",
      "type": "error"
    },
    {
      "inputs": [],
      "name": "OracleRelayer_RedemptionPriceNotUpdated",
      "type": "error"
    },
    {
      "inputs": [],
      "name": "Unauthorized",
      "type": "error"
    },
    {
      "inputs": [],
      "name": "UnrecognizedCType",
      "type": "error"
    },
    {
      "inputs": [],
      "name": "UnrecognizedParam",
      "type": "error"
    },
    {
      "anonymous": false,
      "inputs": [
        {
          "indexed": false,
          "internalType": "address",
          "name": "_account",
          "type": "address"
        }
      ],
      "name": "AddAuthorization",
      "type": "event"
    },
    {
      "anonymous": false,
      "inputs": [],
      "name": "DisableContract",
      "type": "event"
    },
    {
      "anonymous": false,
      "inputs": [
        {
          "indexed": true,
          "internalType": "bytes32",
          "name": "_param",
          "type": "bytes32"
        },
        {
          "indexed": true,
          "internalType": "bytes32",
          "name": "_cType",
          "type": "bytes32"
        },
        {
          "indexed": false,
          "internalType": "bytes",
          "name": "_data",
          "type": "bytes"
        }
      ],
      "name": "ModifyParameters",
      "type": "event"
    },
    {
      "anonymous": false,
      "inputs": [
        {
          "indexed": false,
          "internalType": "address",
          "name": "_account",
          "type": "address"
        }
      ],
      "name": "RemoveAuthorization",
      "type": "event"
    },
    {
      "anonymous": false,
      "inputs": [
        {
          "indexed": true,
          "internalType": "bytes32",
          "name": "_cType",
          "type": "bytes32"
        },
        {
          "indexed": false,
          "internalType": "uint256",
          "name": "_priceFeedValue",
          "type": "uint256"
        },
        {
          "indexed": false,
          "internalType": "uint256",
          "name": "_safetyPrice",
          "type": "uint256"
        },
        {
          "indexed": false,
          "internalType": "uint256",
          "name": "_liquidationPrice",
          "type": "uint256"
        }
      ],
      "name": "UpdateCollateralPrice",
      "type": "event"
    },
    {
      "anonymous": false,
      "inputs": [
        {
          "indexed": false,
          "internalType": "uint256",
          "name": "_redemptionPrice",
          "type": "uint256"
        }
      ],
      "name": "UpdateRedemptionPrice",
      "type": "event"
    },
    {
      "inputs": [
        {
          "internalType": "bytes32",
          "name": "",
          "type": "bytes32"
        }
      ],
      "name": "_cParams",
      "outputs": [
        {
          "internalType": "contract IDelayedOracle",
          "name": "oracle",
          "type": "address"
        },
        {
          "internalType": "uint256",
          "name": "safetyCRatio",
          "type": "uint256"
        },
        {
          "internalType": "uint256",
          "name": "liquidationCRatio",
          "type": "uint256"
        }
      ],
      "stateMutability": "view",
      "type": "function"
    },
    {
      "inputs": [],
      "name": "_params",
      "outputs": [
        {
          "internalType": "uint256",
          "name": "redemptionRateUpperBound",
          "type": "uint256"
        },
        {
          "internalType": "uint256",
          "name": "redemptionRateLowerBound",
          "type": "uint256"
        }
      ],
      "stateMutability": "view",
      "type": "function"
    },
    {
      "inputs": [
        {
          "internalType": "address",
          "name": "_account",
          "type": "address"
        }
      ],
      "name": "addAuthorization",
      "outputs": [],
      "stateMutability": "nonpayable",
      "type": "function"
    },
    {
      "inputs": [
        {
          "internalType": "address",
          "name": "_account",
          "type": "address"
        }
      ],
      "name": "authorizedAccounts",
      "outputs": [
        {
          "internalType": "bool",
          "name": "_authorized",
          "type": "bool"
        }
      ],
      "stateMutability": "view",
      "type": "function"
    },
    {
      "inputs": [],
      "name": "authorizedAccounts",
      "outputs": [
        {
          "internalType": "address[]",
          "name": "_accounts",
          "type": "address[]"
        }
      ],
      "stateMutability": "view",
      "type": "function"
    },
    {
      "inputs": [
        {
          "internalType": "bytes32",
          "name": "_cType",
          "type": "bytes32"
        }
      ],
      "name": "cParams",
      "outputs": [
        {
          "components": [
            {
              "internalType": "contract IDelayedOracle",
              "name": "oracle",
              "type": "address"
            },
            {
              "internalType": "uint256",
              "name": "safetyCRatio",
              "type": "uint256"
            },
            {
              "internalType": "uint256",
              "name": "liquidationCRatio",
              "type": "uint256"
            }
          ],
          "internalType": "struct IOracleRelayer.OracleRelayerCollateralParams",
          "name": "_oracleRelayerCParams",
          "type": "tuple"
        }
      ],
      "stateMutability": "view",
      "type": "function"
    },
    {
      "inputs": [],
      "name": "collateralList",
      "outputs": [
        {
          "internalType": "bytes32[]",
          "name": "__collateralList",
          "type": "bytes32[]"
        }
      ],
      "stateMutability": "view",
      "type": "function"
    },
    {
      "inputs": [],
      "name": "contractEnabled",
      "outputs": [
        {
          "internalType": "bool",
          "name": "",
          "type": "bool"
        }
      ],
      "stateMutability": "view",
      "type": "function"
    },
    {
      "inputs": [],
      "name": "disableContract",
      "outputs": [],
      "stateMutability": "nonpayable",
      "type": "function"
    },
    {
      "inputs": [
        {
          "internalType": "bytes32",
          "name": "_cType",
          "type": "bytes32"
        },
        {
          "components": [
            {
              "internalType": "contract IDelayedOracle",
              "name": "oracle",
              "type": "address"
            },
            {
              "internalType": "uint256",
              "name": "safetyCRatio",
              "type": "uint256"
            },
            {
              "internalType": "uint256",
              "name": "liquidationCRatio",
              "type": "uint256"
            }
          ],
          "internalType": "struct IOracleRelayer.OracleRelayerCollateralParams",
          "name": "_oracleRelayerCParams",
          "type": "tuple"
        }
      ],
      "name": "initializeCollateralType",
      "outputs": [],
      "stateMutability": "nonpayable",
      "type": "function"
    },
    {
      "inputs": [],
      "name": "lastRedemptionPrice",
      "outputs": [
        {
          "internalType": "uint256",
          "name": "_lastRedemptionPrice",
          "type": "uint256"
        }
      ],
      "stateMutability": "view",
      "type": "function"
    },
    {
      "inputs": [],
      "name": "marketPrice",
      "outputs": [
        {
          "internalType": "uint256",
          "name": "_marketPrice",
          "type": "uint256"
        }
      ],
      "stateMutability": "view",
      "type": "function"
    },
    {
      "inputs": [
        {
          "internalType": "bytes32",
          "name": "_cType",
          "type": "bytes32"
        },
        {
          "internalType": "bytes32",
          "name": "_param",
          "type": "bytes32"
        },
        {
          "internalType": "bytes",
          "name": "_data",
          "type": "bytes"
        }
      ],
      "name": "modifyParameters",
      "outputs": [],
      "stateMutability": "nonpayable",
      "type": "function"
    },
    {
      "inputs": [
        {
          "internalType": "bytes32",
          "name": "_param",
          "type": "bytes32"
        },
        {
          "internalType": "bytes",
          "name": "_data",
          "type": "bytes"
        }
      ],
      "name": "modifyParameters",
      "outputs": [],
      "stateMutability": "nonpayable",
      "type": "function"
    },
    {
      "inputs": [],
      "name": "params",
      "outputs": [
        {
          "components": [
            {
              "internalType": "uint256",
              "name": "redemptionRateUpperBound",
              "type": "uint256"
            },
            {
              "internalType": "uint256",
              "name": "redemptionRateLowerBound",
              "type": "uint256"
            }
          ],
          "internalType": "struct IOracleRelayer.OracleRelayerParams",
          "name": "_oracleRelayerParams",
          "type": "tuple"
        }
      ],
      "stateMutability": "view",
      "type": "function"
    },
    {
      "inputs": [],
      "name": "redemptionPrice",
      "outputs": [
        {
          "internalType": "uint256",
          "name": "_updatedPrice",
          "type": "uint256"
        }
      ],
      "stateMutability": "nonpayable",
      "type": "function"
    },
    {
      "inputs": [],
      "name": "redemptionPriceUpdateTime",
      "outputs": [
        {
          "internalType": "uint256",
          "name": "",
          "type": "uint256"
        }
      ],
      "stateMutability": "view",
      "type": "function"
    },
    {
      "inputs": [],
      "name": "redemptionRate",
      "outputs": [
        {
          "internalType": "uint256",
          "name": "",
          "type": "uint256"
        }
      ],
      "stateMutability": "view",
      "type": "function"
    },
    {
      "inputs": [
        {
          "internalType": "address",
          "name": "_account",
          "type": "address"
        }
      ],
      "name": "removeAuthorization",
      "outputs": [],
      "stateMutability": "nonpayable",
      "type": "function"
    },
    {
      "inputs": [],
      "name": "safeEngine",
      "outputs": [
        {
          "internalType": "contract ISAFEEngine",
          "name": "",
          "type": "address"
        }
      ],
      "stateMutability": "view",
      "type": "function"
    },
    {
      "inputs": [],
      "name": "systemCoinOracle",
      "outputs": [
        {
          "internalType": "contract IBaseOracle",
          "name": "",
          "type": "address"
        }
      ],
      "stateMutability": "view",
      "type": "function"
    },
    {
      "inputs": [
        {
          "internalType": "bytes32",
          "name": "_cType",
          "type": "bytes32"
        }
      ],
      "name": "updateCollateralPrice",
      "outputs": [],
      "stateMutability": "nonpayable",
      "type": "function"
    },
    {
      "inputs": [
        {
          "internalType": "uint256",
          "name": "_redemptionRate",
          "type": "uint256"
        }
      ],
      "name": "updateRedemptionRate",
      "outputs": [],
      "stateMutability": "nonpayable",
      "type": "function"
    }
  ],
  "bytecode": {
    "object": "0x60806040526002805460ff191660011790553480156200001e57600080fd5b5060405162001f8c38038062001f8c8339810160408190526200004191620002bc565b336200004d81620000d3565b50620000626001600160a01b03841662000141565b60028054610100600160a81b0319166101006001600160a01b0393841602179055600380546001600160a01b0319169184169190911790556b033b2e3c9fd0803ce80000006009819055600a5542600b5580516004556020810151600555620000ca6200016f565b50505062000357565b620000e0600082620001cd565b1562000125576040516001600160a01b03821681527f599a298163e1678bb1c676052a8930bf0b8a1261ed6e01b8a2391e55f70001029060200160405180910390a150565b604051633013e93f60e11b815260040160405180910390fd5b50565b60006001600160a01b0382166200016b5760405163e99d5ac560e01b815260040160405180910390fd5b5090565b6004546200018a906b033b2e3c9fd0803ce8000000620001ed565b50600554620001b5906b033b2e3c9fd0803ce800000090620001ae906000620001ed565b9062000226565b506003546200013e906001600160a01b031662000141565b6000620001e4836001600160a01b03841662000254565b90505b92915050565b60008183116200021f5760405163130ac85760e21b815260048101849052602481018390526044015b60405180910390fd5b5090919050565b60008183106200021f5760405163fecef28360e01b8152600481018490526024810183905260440162000216565b60008181526001830160205260408120546200029d57508154600181810184556000848152602080822090930184905584548482528286019093526040902091909155620001e7565b506000620001e7565b6001600160a01b03811681146200013e57600080fd5b60008060008385036080811215620002d357600080fd5b8451620002e081620002a6565b6020860151909450620002f381620002a6565b92506040603f19820112156200030857600080fd5b50604080519081016001600160401b03811182821017156200033a57634e487b7160e01b600052604160045260246000fd5b604090815285015181526060909401516020850152509093909250565b611c2580620003676000396000f3fe608060405234801561001057600080fd5b506004361061018d5760003560e01c806367aea313116100e35780639a0976281161008c578063da8a4bb811610066578063da8a4bb8146103c4578063e54201f6146103d7578063e818ac211461042257600080fd5b80639a0976281461036b578063c5b748c01461037e578063cff0ab961461038657600080fd5b8063894ba833116100bd578063894ba833146103475780638b5a7dba1461034f57806394f3f81d1461035857600080fd5b806367aea313146102d55780636d530fb31461031f578063802503411461033257600080fd5b80632e3918761161014557806345a153881161011f57806345a15388146102a1578063540385a3146102a9578063552b16ab146102b257600080fd5b80632e3918761461026c57806335b281531461028157806341b3a0d91461029457600080fd5b80631d674705116101765780631d674705146101be578063208296131461023657806324ba58841461024957600080fd5b806312f3352614610192578063143ae4ee146101a7575b600080fd5b6101a56101a0366004611820565b610442565b005b6009545b6040519081526020015b60405180910390f35b6102046101cc366004611870565b60066020526000908152604090208054600182015460029092015473ffffffffffffffffffffffffffffffffffffffff909116919083565b6040805173ffffffffffffffffffffffffffffffffffffffff90941684526020840192909252908201526060016101b5565b6101a56102443660046118ab565b6104d5565b61025c610257366004611949565b6105d6565b60405190151581526020016101b5565b6102746105e7565b6040516101b59190611966565b6101a561028f366004611949565b6105f8565b60025461025c9060ff1681565b6101ab610643565b6101ab600a5481565b6004546005546102c0919082565b604080519283526020830191909152016101b5565b6002546102fa90610100900473ffffffffffffffffffffffffffffffffffffffff1681565b60405173ffffffffffffffffffffffffffffffffffffffff90911681526020016101b5565b6101a561032d366004611870565b6106ed565b61033a610928565b6040516101b591906119c0565b6101a5610934565b6101ab600b5481565b6101a5610366366004611949565b610a17565b6101a5610379366004611870565b610a5f565b6101ab610b3c565b6040805180820182526000808252602091820152815180830183526004548082526005549183019182528351908152905191810191909152016101b5565b6101a56103d23660046119f8565b610b46565b6103ea6103e5366004611870565b610bd7565b60408051825173ffffffffffffffffffffffffffffffffffffffff1681526020808401519082015291810151908201526060016101b5565b6003546102fa9073ffffffffffffffffffffffffffffffffffffffff1681565b61044b33610c60565b610481576040517f82b4290000000000000000000000000000000000000000000000000000000000815260040160405180910390fd5b8261048d848484610c6c565b83837fe436a8be7dc6aab90b400800ecc86e46fb600f2e18989b5d0389840fdabbf2ed846040516104be9190611a3f565b60405180910390a36104cf81610e25565b50505050565b6104de33610c60565b610514576040517f82b4290000000000000000000000000000000000000000000000000000000000815260040160405180910390fd5b81610520600782610eb9565b610556576040517f56294ccb00000000000000000000000000000000000000000000000000000000815260040160405180910390fd5b815161056190610ecc565b50600083815260066020908152604091829020845181547fffffffffffffffffffffffff00000000000000000000000000000000000000001673ffffffffffffffffffffffffffffffffffffffff909116178155908401516001820155908301516002909101556105d181610e25565b505050565b60006105e182610c60565b92915050565b60606105f36000610f64565b905090565b61060133610c60565b610637576040517f82b4290000000000000000000000000000000000000000000000000000000000815260040160405180910390fd5b61064081610f71565b50565b6000806000600360009054906101000a900473ffffffffffffffffffffffffffffffffffffffff1673ffffffffffffffffffffffffffffffffffffffff16634fd0ada86040518163ffffffff1660e01b81526004016040805180830381865afa1580156106b4573d6000803e3d6000fd5b505050506040513d601f19601f820116820180604052508101906106d89190611aab565b9150915080156106e85750919050565b505090565b60025460ff16610729576040517f7abbf1c900000000000000000000000000000000000000000000000000000000815260040160405180910390fd5b6000818152600660205260408082205481517f4fd0ada80000000000000000000000000000000000000000000000000000000081528251849373ffffffffffffffffffffffffffffffffffffffff90931692634fd0ada892600480820193918290030181865afa1580156107a1573d6000803e3d6000fd5b505050506040513d601f19601f820116820180604052508101906107c59190611aab565b9150915060006107d3611000565b90506000826107e357600061080f565b60008581526006602052604090206001015461080f906108098481633b9aca0089611b0f565b9061101b565b905060008361081f576000610845565b600086815260066020526040902060020154610845906108098581633b9aca008a611b0f565b6002546040517f1529c3e9000000000000000000000000000000000000000000000000000000008152600481018990526024810185905260448101839052919250610100900473ffffffffffffffffffffffffffffffffffffffff1690631529c3e990606401600060405180830381600087803b1580156108c557600080fd5b505af11580156108d9573d6000803e3d6000fd5b505060408051888152602081018690529081018490528892507f37f13f22a2174c79144ffda4c6b7ad416951d5a41171bec961f53ef4c049014e915060600160405180910390a2505050505050565b60606105f36007610f64565b61093d33610c60565b610973576040517f82b4290000000000000000000000000000000000000000000000000000000000815260040160405180910390fd5b60025460ff166109af576040517f7abbf1c900000000000000000000000000000000000000000000000000000000815260040160405180910390fd5b600280547fffffffffffffffffffffffffffffffffffffffffffffffffffffffffffffff001690556109ec6b033b2e3c9fd0803ce8000000600a55565b6040517f2d4b4ecff7bd7503135271925520a2f6c0d98c9473ffc1a1e72c92502f51b25e90600090a1565b610a2033610c60565b610a56576040517f82b4290000000000000000000000000000000000000000000000000000000000815260040160405180910390fd5b6106408161103e565b610a6833610c60565b610a9e576040517f82b4290000000000000000000000000000000000000000000000000000000000815260040160405180910390fd5b60025460ff16610ada576040517f7abbf1c900000000000000000000000000000000000000000000000000000000815260040160405180910390fd5b600b544214610b15576040517fbcbbe8cf00000000000000000000000000000000000000000000000000000000815260040160405180910390fd5b600454811115610b285750600454600a55565b600554811015610b3757506005545b600a55565b60006105f3611000565b610b4f33610c60565b610b85576040517f82b4290000000000000000000000000000000000000000000000000000000000815260040160405180910390fd5b610b8f82826110c6565b6000801b827fe436a8be7dc6aab90b400800ecc86e46fb600f2e18989b5d0389840fdabbf2ed83604051610bc39190611a3f565b60405180910390a3610bd3611207565b5050565b610c116040518060600160405280600073ffffffffffffffffffffffffffffffffffffffff16815260200160008152602001600081525090565b506000908152600660209081526040918290208251606081018452815473ffffffffffffffffffffffffffffffffffffffff168152600182015492810192909252600201549181019190915290565b60006105e1818361126a565b60025460ff16610ca8576040517f7abbf1c900000000000000000000000000000000000000000000000000000000815260040160405180910390fd5b6000610cb5826020015190565b6000858152600660205260409020909150610cd1600786611299565b610d07576040517f98fc17bd00000000000000000000000000000000000000000000000000000000815260040160405180910390fd5b837f73616665747943526174696f000000000000000000000000000000000000000003610d3a5760018101829055610e1e565b837f6c69717569646174696f6e43526174696f00000000000000000000000000000003610d6d5760028101829055610e1e565b837f6f7261636c65000000000000000000000000000000000000000000000000000003610dec57610da7610da2846020015190565b610ecc565b81547fffffffffffffffffffffffff00000000000000000000000000000000000000001673ffffffffffffffffffffffffffffffffffffffff91909116178155610e1e565b6040517f9d2ff48000000000000000000000000000000000000000000000000000000000815260040160405180910390fd5b5050505050565b6000818152600660209081526040918290208251606081018452815473ffffffffffffffffffffffffffffffffffffffff168152600182015492810183905260029091015492810183905291610e7b91906112b1565b506040810151610e97906b033b2e3c9fd0803ce80000006112b1565b5080516105d19073ffffffffffffffffffffffffffffffffffffffff16611303565b6000610ec58383611356565b9392505050565b6000610eed8273ffffffffffffffffffffffffffffffffffffffff16611303565b90508073ffffffffffffffffffffffffffffffffffffffff166320531bc96040518163ffffffff1660e01b8152600401602060405180830381865afa158015610f3a573d6000803e3d6000fd5b505050506040513d601f19601f82011682018060405250810190610f5e9190611b26565b50919050565b60606000610ec5836113a5565b610f7c600082611401565b15610fce5760405173ffffffffffffffffffffffffffffffffffffffff821681527f599a298163e1678bb1c676052a8930bf0b8a1261ed6e01b8a2391e55f7000102906020015b60405180910390a150565b6040517f6027d27e00000000000000000000000000000000000000000000000000000000815260040160405180910390fd5b6000600b54421115611014576105f3611423565b5060095490565b6000816110346b033b2e3c9fd0803ce800000085611b0f565b610ec59190611b43565b611049600082611498565b156110945760405173ffffffffffffffffffffffffffffffffffffffff821681527f8834a87e641e9716be4f34527af5d23e11624f1ddeefede6ad75a9acfc31b90390602001610fc3565b6040517fea8e4eb500000000000000000000000000000000000000000000000000000000815260040160405180910390fd5b60025460ff16611102576040517f7abbf1c900000000000000000000000000000000000000000000000000000000815260040160405180910390fd5b600061110f826020015190565b9050827f73797374656d436f696e4f7261636c6500000000000000000000000000000000036111ab57611161611146836020015190565b73ffffffffffffffffffffffffffffffffffffffff16611303565b600380547fffffffffffffffffffffffff00000000000000000000000000000000000000001673ffffffffffffffffffffffffffffffffffffffff92909216919091179055505050565b827f726564656d7074696f6e526174655570706572426f756e640000000000000000036111d9576004555050565b827f726564656d7074696f6e526174654c6f776572426f756e64000000000000000003610dec576005555050565b600454611220906b033b2e3c9fd0803ce80000006114ba565b50600554611247906b033b2e3c9fd0803ce8000000906112419060006114ba565b906114ff565b506003546106409073ffffffffffffffffffffffffffffffffffffffff16611303565b73ffffffffffffffffffffffffffffffffffffffff811660009081526001830160205260408120541515610ec5565b60008181526001830160205260408120541515610ec5565b6000818310156112fc576040517f1d7ee3a300000000000000000000000000000000000000000000000000000000815260048101849052602481018390526044015b60405180910390fd5b5090919050565b600073ffffffffffffffffffffffffffffffffffffffff8216611352576040517fe99d5ac500000000000000000000000000000000000000000000000000000000815260040160405180910390fd5b5090565b600081815260018301602052604081205461139d575081546001818101845560008481526020808220909301849055845484825282860190935260409020919091556105e1565b5060006105e1565b6060816000018054806020026020016040519081016040528092919081815260200182805480156113f557602002820191906000526020600020905b8154815260200190600101908083116113e1575b50505050509050919050565b6000610ec58373ffffffffffffffffffffffffffffffffffffffff8416611356565b600061144b600954611445600b544261143c9190611b7e565b600a5490611544565b9061163a565b905080600003611459575060015b600981905542600b556040518181527f9e2c1201748a5c10b659169e27843c246931edf32ccc126c79505db2352fbc3b9060200160405180910390a190565b6000610ec58373ffffffffffffffffffffffffffffffffffffffff8416611653565b60008183116112fc576040517f4c2b215c00000000000000000000000000000000000000000000000000000000815260048101849052602481018390526044016112f3565b60008183106112fc576040517ffecef28300000000000000000000000000000000000000000000000000000000815260048101849052602481018390526044016112f3565b60008280156116115760018316801561155f5784925061156f565b6b033b2e3c9fd0803ce800000092505b506002909204916b019d971e4fe8401e740000005b831561160b57848502858682041461159b57600080fd5b818101818110156115ab57600080fd5b6b033b2e3c9fd0803ce8000000900495505060018416156116005784830283868204141586151516156115dd57600080fd5b818101818110156115ed57600080fd5b6b033b2e3c9fd0803ce800000090049350505b600284049350611584565b50611633565b8280156116215760009250611631565b6b033b2e3c9fd0803ce800000092505b505b5092915050565b60006b033b2e3c9fd0803ce80000006110348385611b0f565b6000818152600183016020526040812054801561173c576000611677600183611b7e565b855490915060009061168b90600190611b7e565b90508181146116f05760008660000182815481106116ab576116ab611b91565b90600052602060002001549050808760000184815481106116ce576116ce611b91565b6000918252602080832090910192909255918252600188019052604090208390555b855486908061170157611701611bc0565b6001900381819060005260206000200160009055905585600101600086815260200190815260200160002060009055600193505050506105e1565b60009150506105e1565b7f4e487b7100000000000000000000000000000000000000000000000000000000600052604160045260246000fd5b600082601f83011261178657600080fd5b813567ffffffffffffffff808211156117a1576117a1611746565b604051601f83017fffffffffffffffffffffffffffffffffffffffffffffffffffffffffffffffe0908116603f011681019082821181831017156117e7576117e7611746565b8160405283815286602085880101111561180057600080fd5b836020870160208301376000602085830101528094505050505092915050565b60008060006060848603121561183557600080fd5b8335925060208401359150604084013567ffffffffffffffff81111561185a57600080fd5b61186686828701611775565b9150509250925092565b60006020828403121561188257600080fd5b5035919050565b73ffffffffffffffffffffffffffffffffffffffff8116811461064057600080fd5b60008082840360808112156118bf57600080fd5b8335925060607fffffffffffffffffffffffffffffffffffffffffffffffffffffffffffffffe0820112156118f357600080fd5b506040516060810181811067ffffffffffffffff8211171561191757611917611746565b604052602084013561192881611889565b81526040848101356020830152606090940135938101939093525092909150565b60006020828403121561195b57600080fd5b8135610ec581611889565b6020808252825182820181905260009190848201906040850190845b818110156119b457835173ffffffffffffffffffffffffffffffffffffffff1683529284019291840191600101611982565b50909695505050505050565b6020808252825182820181905260009190848201906040850190845b818110156119b4578351835292840192918401916001016119dc565b60008060408385031215611a0b57600080fd5b82359150602083013567ffffffffffffffff811115611a2957600080fd5b611a3585828601611775565b9150509250929050565b600060208083528351808285015260005b81811015611a6c57858101830151858201604001528201611a50565b5060006040828601015260407fffffffffffffffffffffffffffffffffffffffffffffffffffffffffffffffe0601f8301168501019250505092915050565b60008060408385031215611abe57600080fd5b8251915060208301518015158114611ad557600080fd5b809150509250929050565b7f4e487b7100000000000000000000000000000000000000000000000000000000600052601160045260246000fd5b80820281158282048414176105e1576105e1611ae0565b600060208284031215611b3857600080fd5b8151610ec581611889565b600082611b79577f4e487b7100000000000000000000000000000000000000000000000000000000600052601260045260246000fd5b500490565b818103818111156105e1576105e1611ae0565b7f4e487b7100000000000000000000000000000000000000000000000000000000600052603260045260246000fd5b7f4e487b7100000000000000000000000000000000000000000000000000000000600052603160045260246000fdfea264697066735822122049eee42429de7681f9588bbb126bd7d64614808314dd97def5748951732c591364736f6c63430008130033",
    "linkReferences": {}
  },
  "methodIdentifiers": {
    "_cParams(bytes32)": "1d674705",
    "_params()": "552b16ab",
    "addAuthorization(address)": "35b28153",
    "authorizedAccounts()": "2e391876",
    "authorizedAccounts(address)": "24ba5884",
    "cParams(bytes32)": "e54201f6",
    "collateralList()": "80250341",
    "contractEnabled()": "41b3a0d9",
    "disableContract()": "894ba833",
    "initializeCollateralType(bytes32,(address,uint256,uint256))": "20829613",
    "lastRedemptionPrice()": "143ae4ee",
    "marketPrice()": "45a15388",
    "modifyParameters(bytes32,bytes)": "da8a4bb8",
    "modifyParameters(bytes32,bytes32,bytes)": "12f33526",
    "params()": "cff0ab96",
    "redemptionPrice()": "c5b748c0",
    "redemptionPriceUpdateTime()": "8b5a7dba",
    "redemptionRate()": "540385a3",
    "removeAuthorization(address)": "94f3f81d",
    "safeEngine()": "67aea313",
    "systemCoinOracle()": "e818ac21",
    "updateCollateralPrice(bytes32)": "6d530fb3",
    "updateRedemptionRate(uint256)": "9a097628"
  },
  "id": 55
}