{
  "abi": [
    {
      "inputs": [
        {
          "internalType": "address",
          "name": "_oracleRelayer",
          "type": "address"
        },
        {
          "internalType": "address",
          "name": "_pidRateSetter",
          "type": "address"
        },
        {
          "internalType": "address",
          "name": "_stabilityFeeTreasury",
          "type": "address"
        },
        {
          "internalType": "uint256",
          "name": "_rewardAmount",
          "type": "uint256"
        }
      ],
      "stateMutability": "nonpayable",
      "type": "constructor"
    },
    {
      "inputs": [],
      "name": "AlreadyAuthorized",
      "type": "error"
    },
    {
      "inputs": [],
      "name": "NotAuthorized",
      "type": "error"
    },
    {
      "inputs": [],
      "name": "NotWorkable",
      "type": "error"
    },
    {
      "inputs": [],
      "name": "OracleJob_InvalidPrice",
      "type": "error"
    },
    {
      "inputs": [],
      "name": "Unauthorized",
      "type": "error"
    },
    {
      "inputs": [],
      "name": "UnrecognizedCType",
      "type": "error"
    },
    {
      "inputs": [],
      "name": "UnrecognizedParam",
      "type": "error"
    },
    {
      "anonymous": false,
      "inputs": [
        {
          "indexed": false,
          "internalType": "address",
          "name": "_account",
          "type": "address"
        }
      ],
      "name": "AddAuthorization",
      "type": "event"
    },
    {
      "anonymous": false,
      "inputs": [
        {
          "indexed": true,
          "internalType": "bytes32",
          "name": "_param",
          "type": "bytes32"
        },
        {
          "indexed": true,
          "internalType": "bytes32",
          "name": "_cType",
          "type": "bytes32"
        },
        {
          "indexed": false,
          "internalType": "bytes",
          "name": "_data",
          "type": "bytes"
        }
      ],
      "name": "ModifyParameters",
      "type": "event"
    },
    {
      "anonymous": false,
      "inputs": [
        {
          "indexed": false,
          "internalType": "address",
          "name": "_account",
          "type": "address"
        }
      ],
      "name": "RemoveAuthorization",
      "type": "event"
    },
    {
      "anonymous": false,
      "inputs": [
        {
          "indexed": false,
          "internalType": "address",
          "name": "_rewardedAccount",
          "type": "address"
        },
        {
          "indexed": false,
          "internalType": "uint256",
          "name": "_rewardAmount",
          "type": "uint256"
        }
      ],
      "name": "Rewarded",
      "type": "event"
    },
    {
      "inputs": [
        {
          "internalType": "address",
          "name": "_account",
          "type": "address"
        }
      ],
      "name": "addAuthorization",
      "outputs": [],
      "stateMutability": "nonpayable",
      "type": "function"
    },
    {
      "inputs": [
        {
          "internalType": "address",
          "name": "_account",
          "type": "address"
        }
      ],
      "name": "authorizedAccounts",
      "outputs": [
        {
          "internalType": "bool",
          "name": "_authorized",
          "type": "bool"
        }
      ],
      "stateMutability": "view",
      "type": "function"
    },
    {
      "inputs": [],
      "name": "authorizedAccounts",
      "outputs": [
        {
          "internalType": "address[]",
          "name": "_accounts",
          "type": "address[]"
        }
      ],
      "stateMutability": "view",
      "type": "function"
    },
    {
      "inputs": [
        {
          "internalType": "bytes32",
          "name": "_cType",
          "type": "bytes32"
        },
        {
          "internalType": "bytes32",
          "name": "_param",
          "type": "bytes32"
        },
        {
          "internalType": "bytes",
          "name": "_data",
          "type": "bytes"
        }
      ],
      "name": "modifyParameters",
      "outputs": [],
      "stateMutability": "nonpayable",
      "type": "function"
    },
    {
      "inputs": [
        {
          "internalType": "bytes32",
          "name": "_param",
          "type": "bytes32"
        },
        {
          "internalType": "bytes",
          "name": "_data",
          "type": "bytes"
        }
      ],
      "name": "modifyParameters",
      "outputs": [],
      "stateMutability": "nonpayable",
      "type": "function"
    },
    {
      "inputs": [],
      "name": "oracleRelayer",
      "outputs": [
        {
          "internalType": "contract IOracleRelayer",
          "name": "",
          "type": "address"
        }
      ],
      "stateMutability": "view",
      "type": "function"
    },
    {
      "inputs": [],
      "name": "pidRateSetter",
      "outputs": [
        {
          "internalType": "contract IPIDRateSetter",
          "name": "",
          "type": "address"
        }
      ],
      "stateMutability": "view",
      "type": "function"
    },
    {
      "inputs": [
        {
          "internalType": "address",
          "name": "_account",
          "type": "address"
        }
      ],
      "name": "removeAuthorization",
      "outputs": [],
      "stateMutability": "nonpayable",
      "type": "function"
    },
    {
      "inputs": [],
      "name": "rewardAmount",
      "outputs": [
        {
          "internalType": "uint256",
          "name": "",
          "type": "uint256"
        }
      ],
      "stateMutability": "view",
      "type": "function"
    },
    {
      "inputs": [],
      "name": "shouldWorkUpdateCollateralPrice",
      "outputs": [
        {
          "internalType": "bool",
          "name": "",
          "type": "bool"
        }
      ],
      "stateMutability": "view",
      "type": "function"
    },
    {
      "inputs": [],
      "name": "shouldWorkUpdateRate",
      "outputs": [
        {
          "internalType": "bool",
          "name": "",
          "type": "bool"
        }
      ],
      "stateMutability": "view",
      "type": "function"
    },
    {
      "inputs": [],
      "name": "stabilityFeeTreasury",
      "outputs": [
        {
          "internalType": "contract IStabilityFeeTreasury",
          "name": "",
          "type": "address"
        }
      ],
      "stateMutability": "view",
      "type": "function"
    },
    {
      "inputs": [
        {
          "internalType": "bytes32",
          "name": "_cType",
          "type": "bytes32"
        }
      ],
      "name": "workUpdateCollateralPrice",
      "outputs": [],
      "stateMutability": "nonpayable",
      "type": "function"
    },
    {
      "inputs": [],
      "name": "workUpdateRate",
      "outputs": [],
      "stateMutability": "nonpayable",
      "type": "function"
    }
  ],
  "bytecode": {
    "object": "0x60806040523480156200001157600080fd5b506040516200143a3803806200143a8339810160408190526200003491620001b5565b600180546001600160a01b0319166001600160a01b0384161790556000819055336200006081620000bb565b505060048054600580546001600160a01b0319166001600160a01b0395861617905561010061ff01600160b01b031990911662010000959094169490940260ff19169290921760011761ff0019169290921790555062000207565b620000c860028262000126565b156200010d576040516001600160a01b03821681527f599a298163e1678bb1c676052a8930bf0b8a1261ed6e01b8a2391e55f70001029060200160405180910390a150565b604051633013e93f60e11b815260040160405180910390fd5b60006200013d836001600160a01b03841662000146565b90505b92915050565b60008181526001830160205260408120546200018f5750815460018181018455600084815260208082209093018490558454848252828601909352604090209190915562000140565b50600062000140565b80516001600160a01b0381168114620001b057600080fd5b919050565b60008060008060808587031215620001cc57600080fd5b620001d78562000198565b9350620001e76020860162000198565b9250620001f76040860162000198565b6060959095015193969295505050565b61122380620002176000396000f3fe608060405234801561001057600080fd5b50600436106100ea5760003560e01c806372b6f12a1161008c578063ca071fe511610066578063ca071fe514610212578063da8a4bb814610224578063dbbb74d514610237578063f7b2a7be1461023f57600080fd5b806372b6f12a146101bf57806394f3f81d146101df578063c48a0699146101f257600080fd5b806335b28153116100c857806335b28153146101415780634e6669ed146101545780634faf61ab1461016757806362b2c1ec146101b257600080fd5b806312f33526146100ef57806324ba5884146101045780632e3918761461012c575b600080fd5b6101026100fd366004610f1c565b610256565b005b610117610112366004610f8e565b6102e1565b60405190151581526020015b60405180910390f35b6101346102f2565b6040516101239190610fab565b61010261014f366004610f8e565b610303565b610102610162366004611005565b61034e565b60045461018d9062010000900473ffffffffffffffffffffffffffffffffffffffff1681565b60405173ffffffffffffffffffffffffffffffffffffffff9091168152602001610123565b6004546101179060ff1681565b60015461018d9073ffffffffffffffffffffffffffffffffffffffff1681565b6101026101ed366004610f8e565b61062c565b60055461018d9073ffffffffffffffffffffffffffffffffffffffff1681565b60045461011790610100900460ff1681565b61010261023236600461101e565b610674565b6101026106fd565b61024860005481565b604051908152602001610123565b61025f3361088e565b610295576040517f82b4290000000000000000000000000000000000000000000000000000000000815260040160405180910390fd5b826102a18484846108bb565b83837fe436a8be7dc6aab90b400800ecc86e46fb600f2e18989b5d0389840fdabbf2ed846040516102d29190611065565b60405180910390a35b50505050565b60006102ec8261088e565b92915050565b60606102fe60026108ed565b905090565b61030c3361088e565b610342576040517f82b4290000000000000000000000000000000000000000000000000000000000815260040160405180910390fd5b61034b81610901565b50565b60045460ff1661038a576040517f3bf5822400000000000000000000000000000000000000000000000000000000815260040160405180910390fd5b600480546040517fe54201f60000000000000000000000000000000000000000000000000000000081529182018390526000916201000090910473ffffffffffffffffffffffffffffffffffffffff169063e54201f690602401606060405180830381865afa158015610401573d6000803e3d6000fd5b505050506040513d601f19601f8201168201806040525081019061042591906110d1565b6000015190508073ffffffffffffffffffffffffffffffffffffffff166380ebb08e6040518163ffffffff1660e01b81526004016020604051808303816000875af1158015610478573d6000803e3d6000fd5b505050506040513d601f19601f8201168201806040525081019061049c9190611133565b6104d2576040517f6291310e00000000000000000000000000000000000000000000000000000000815260040160405180910390fd5b600480546040517f6d530fb300000000000000000000000000000000000000000000000000000000815291820184905262010000900473ffffffffffffffffffffffffffffffffffffffff1690636d530fb390602401600060405180830381600087803b15801561054257600080fd5b505af1158015610556573d6000803e3d6000fd5b50506001546000546040517fc6cdbcbb000000000000000000000000000000000000000000000000000000008152336004820152602481019190915273ffffffffffffffffffffffffffffffffffffffff909116935063c6cdbcbb92506044019050600060405180830381600087803b1580156105d257600080fd5b505af11580156105e6573d6000803e3d6000fd5b50506000546040805133815260208101929092527fb3b7a071186534c03b40695710096f289fd4ed6c1a374aff0bb648955e4fe56393500190505b60405180910390a150565b6106353361088e565b61066b576040517f82b4290000000000000000000000000000000000000000000000000000000000815260040160405180910390fd5b61034b81610989565b61067d3361088e565b6106b3576040517f82b4290000000000000000000000000000000000000000000000000000000000815260040160405180910390fd5b6106bd8282610a11565b6000801b827fe436a8be7dc6aab90b400800ecc86e46fb600f2e18989b5d0389840fdabbf2ed836040516106f19190611065565b60405180910390a35050565b600454610100900460ff1661073e576040517f3bf5822400000000000000000000000000000000000000000000000000000000815260040160405180910390fd5b600560009054906101000a900473ffffffffffffffffffffffffffffffffffffffff1673ffffffffffffffffffffffffffffffffffffffff1663c7fee63e6040518163ffffffff1660e01b8152600401600060405180830381600087803b1580156107a857600080fd5b505af11580156107bc573d6000803e3d6000fd5b50506001546000546040517fc6cdbcbb000000000000000000000000000000000000000000000000000000008152336004820152602481019190915273ffffffffffffffffffffffffffffffffffffffff909116925063c6cdbcbb9150604401600060405180830381600087803b15801561083657600080fd5b505af115801561084a573d6000803e3d6000fd5b50506000546040805133815260208101929092527fb3b7a071186534c03b40695710096f289fd4ed6c1a374aff0bb648955e4fe563935001905060405180910390a1565b73ffffffffffffffffffffffffffffffffffffffff811660009081526003602052604081205415156102ec565b6040517f9d2ff48000000000000000000000000000000000000000000000000000000000815260040160405180910390fd5b606060006108fa83610c60565b9392505050565b61090c600282610cbc565b156109575760405173ffffffffffffffffffffffffffffffffffffffff821681527f599a298163e1678bb1c676052a8930bf0b8a1261ed6e01b8a2391e55f700010290602001610621565b6040517f6027d27e00000000000000000000000000000000000000000000000000000000815260040160405180910390fd5b610994600282610cde565b156109df5760405173ffffffffffffffffffffffffffffffffffffffff821681527f8834a87e641e9716be4f34527af5d23e11624f1ddeefede6ad75a9acfc31b90390602001610621565b6040517fea8e4eb500000000000000000000000000000000000000000000000000000000815260040160405180910390fd5b6000610a1e826020015190565b90506000610a2d836020015190565b9050837f6f7261636c6552656c617965720000000000000000000000000000000000000003610aa057600480547fffffffffffffffffffff0000000000000000000000000000000000000000ffff166201000073ffffffffffffffffffffffffffffffffffffffff8516021790556102db565b837f706964526174655365747465720000000000000000000000000000000000000003610b0c57600580547fffffffffffffffffffffffff00000000000000000000000000000000000000001673ffffffffffffffffffffffffffffffffffffffff84161790556102db565b837f73746162696c697479466565547265617375727900000000000000000000000003610b7857600180547fffffffffffffffffffffffff00000000000000000000000000000000000000001673ffffffffffffffffffffffffffffffffffffffff84161790556102db565b837f73686f756c64576f726b557064617465436f6c6c61746572616c50726963650003610bd057600480547fffffffffffffffffffffffffffffffffffffffffffffffffffffffffffffff00168215151790556102db565b837f73686f756c64576f726b5570646174655261746500000000000000000000000003610c2c57600480547fffffffffffffffffffffffffffffffffffffffffffffffffffffffffffff00ff16610100831515021790556102db565b837f726577617264416d6f756e740000000000000000000000000000000000000000036108bb5760208301516000556102db565b606081600001805480602002602001604051908101604052809291908181526020018280548015610cb057602002820191906000526020600020905b815481526020019060010190808311610c9c575b50505050509050919050565b60006108fa8373ffffffffffffffffffffffffffffffffffffffff8416610d00565b60006108fa8373ffffffffffffffffffffffffffffffffffffffff8416610d4f565b6000818152600183016020526040812054610d47575081546001818101845560008481526020808220909301849055845484825282860190935260409020919091556102ec565b5060006102ec565b60008181526001830160205260408120548015610e38576000610d73600183611155565b8554909150600090610d8790600190611155565b9050818114610dec576000866000018281548110610da757610da761118f565b9060005260206000200154905080876000018481548110610dca57610dca61118f565b6000918252602080832090910192909255918252600188019052604090208390555b8554869080610dfd57610dfd6111be565b6001900381819060005260206000200160009055905585600101600086815260200190815260200160002060009055600193505050506102ec565b60009150506102ec565b7f4e487b7100000000000000000000000000000000000000000000000000000000600052604160045260246000fd5b600082601f830112610e8257600080fd5b813567ffffffffffffffff80821115610e9d57610e9d610e42565b604051601f83017fffffffffffffffffffffffffffffffffffffffffffffffffffffffffffffffe0908116603f01168101908282118183101715610ee357610ee3610e42565b81604052838152866020858801011115610efc57600080fd5b836020870160208301376000602085830101528094505050505092915050565b600080600060608486031215610f3157600080fd5b8335925060208401359150604084013567ffffffffffffffff811115610f5657600080fd5b610f6286828701610e71565b9150509250925092565b73ffffffffffffffffffffffffffffffffffffffff8116811461034b57600080fd5b600060208284031215610fa057600080fd5b81356108fa81610f6c565b6020808252825182820181905260009190848201906040850190845b81811015610ff957835173ffffffffffffffffffffffffffffffffffffffff1683529284019291840191600101610fc7565b50909695505050505050565b60006020828403121561101757600080fd5b5035919050565b6000806040838503121561103157600080fd5b82359150602083013567ffffffffffffffff81111561104f57600080fd5b61105b85828601610e71565b9150509250929050565b600060208083528351808285015260005b8181101561109257858101830151858201604001528201611076565b5060006040828601015260407fffffffffffffffffffffffffffffffffffffffffffffffffffffffffffffffe0601f8301168501019250505092915050565b6000606082840312156110e357600080fd5b6040516060810181811067ffffffffffffffff8211171561110657611106610e42565b604052825161111481610f6c565b8152602083810151908201526040928301519281019290925250919050565b60006020828403121561114557600080fd5b815180151581146108fa57600080fd5b818103818111156102ec577f4e487b7100000000000000000000000000000000000000000000000000000000600052601160045260246000fd5b7f4e487b7100000000000000000000000000000000000000000000000000000000600052603260045260246000fd5b7f4e487b7100000000000000000000000000000000000000000000000000000000600052603160045260246000fdfea2646970667358221220da4122943c461f71dc21c898ca927cf5ba876f9cc572432d1ca48514c405dbdf64736f6c63430008130033",
    "linkReferences": {}
  },
  "methodIdentifiers": {
    "addAuthorization(address)": "35b28153",
    "authorizedAccounts()": "2e391876",
    "authorizedAccounts(address)": "24ba5884",
    "modifyParameters(bytes32,bytes)": "da8a4bb8",
    "modifyParameters(bytes32,bytes32,bytes)": "12f33526",
    "oracleRelayer()": "4faf61ab",
    "pidRateSetter()": "c48a0699",
    "removeAuthorization(address)": "94f3f81d",
    "rewardAmount()": "f7b2a7be",
    "shouldWorkUpdateCollateralPrice()": "62b2c1ec",
    "shouldWorkUpdateRate()": "ca071fe5",
    "stabilityFeeTreasury()": "72b6f12a",
    "workUpdateCollateralPrice(bytes32)": "4e6669ed",
    "workUpdateRate()": "dbbb74d5"
  },
  "id": 114
}