{
  "abi": [
    {
      "inputs": [
        {
          "internalType": "address",
          "name": "_safeEngine",
          "type": "address"
        },
        {
          "internalType": "contract IBaseOracle",
          "name": "_systemCoinOracle",
          "type": "address"
        },
        {
          "components": [
            {
              "internalType": "uint256",
              "name": "redemptionRateUpperBound",
              "type": "uint256"
            },
            {
              "internalType": "uint256",
              "name": "redemptionRateLowerBound",
              "type": "uint256"
            }
          ],
          "internalType": "struct IOracleRelayer.OracleRelayerParams",
          "name": "_oracleRelayerParams",
          "type": "tuple"
        }
      ],
      "stateMutability": "nonpayable",
      "type": "constructor"
    },
    {
      "inputs": [],
      "name": "AlreadyAuthorized",
      "type": "error"
    },
    {
      "inputs": [],
      "name": "ContractIsDisabled",
      "type": "error"
    },
    {
      "inputs": [],
      "name": "ContractIsEnabled",
      "type": "error"
    },
    {
      "inputs": [],
      "name": "NonDisableable",
      "type": "error"
    },
    {
      "inputs": [],
      "name": "NotAuthorized",
      "type": "error"
    },
    {
      "inputs": [
        {
          "internalType": "uint256",
          "name": "_x",
          "type": "uint256"
        },
        {
          "internalType": "uint256",
          "name": "_y",
          "type": "uint256"
        }
      ],
      "name": "NotGreaterOrEqualThan",
      "type": "error"
    },
    {
      "inputs": [
        {
          "internalType": "uint256",
          "name": "_x",
          "type": "uint256"
        },
        {
          "internalType": "uint256",
          "name": "_y",
          "type": "uint256"
        }
      ],
      "name": "NotGreaterThan",
      "type": "error"
    },
    {
      "inputs": [
        {
          "internalType": "uint256",
          "name": "_x",
          "type": "uint256"
        },
        {
          "internalType": "uint256",
          "name": "_y",
          "type": "uint256"
        }
      ],
      "name": "NotLesserThan",
      "type": "error"
    },
    {
      "inputs": [],
      "name": "NullAddress",
      "type": "error"
    },
    {
      "inputs": [],
      "name": "OracleRelayer_CollateralTypeAlreadyInitialized",
      "type": "error"
    },
    {
      "inputs": [],
      "name": "OracleRelayer_RedemptionPriceNotUpdated",
      "type": "error"
    },
    {
      "inputs": [],
      "name": "Unauthorized",
      "type": "error"
    },
    {
      "inputs": [],
      "name": "UnrecognizedCType",
      "type": "error"
    },
    {
      "inputs": [],
      "name": "UnrecognizedParam",
      "type": "error"
    },
    {
      "anonymous": false,
      "inputs": [
        {
          "indexed": false,
          "internalType": "address",
          "name": "_account",
          "type": "address"
        }
      ],
      "name": "AddAuthorization",
      "type": "event"
    },
    {
      "anonymous": false,
      "inputs": [],
      "name": "DisableContract",
      "type": "event"
    },
    {
      "anonymous": false,
      "inputs": [
        {
          "indexed": true,
          "internalType": "bytes32",
          "name": "_param",
          "type": "bytes32"
        },
        {
          "indexed": true,
          "internalType": "bytes32",
          "name": "_cType",
          "type": "bytes32"
        },
        {
          "indexed": false,
          "internalType": "bytes",
          "name": "_data",
          "type": "bytes"
        }
      ],
      "name": "ModifyParameters",
      "type": "event"
    },
    {
      "anonymous": false,
      "inputs": [
        {
          "indexed": false,
          "internalType": "address",
          "name": "_account",
          "type": "address"
        }
      ],
      "name": "RemoveAuthorization",
      "type": "event"
    },
    {
      "anonymous": false,
      "inputs": [
        {
          "indexed": true,
          "internalType": "bytes32",
          "name": "_cType",
          "type": "bytes32"
        },
        {
          "indexed": false,
          "internalType": "uint256",
          "name": "_priceFeedValue",
          "type": "uint256"
        },
        {
          "indexed": false,
          "internalType": "uint256",
          "name": "_safetyPrice",
          "type": "uint256"
        },
        {
          "indexed": false,
          "internalType": "uint256",
          "name": "_liquidationPrice",
          "type": "uint256"
        }
      ],
      "name": "UpdateCollateralPrice",
      "type": "event"
    },
    {
      "anonymous": false,
      "inputs": [
        {
          "indexed": false,
          "internalType": "uint256",
          "name": "_redemptionPrice",
          "type": "uint256"
        }
      ],
      "name": "UpdateRedemptionPrice",
      "type": "event"
    },
    {
      "inputs": [
        {
          "internalType": "bytes32",
          "name": "",
          "type": "bytes32"
        }
      ],
      "name": "_cParams",
      "outputs": [
        {
          "internalType": "contract IDelayedOracle",
          "name": "oracle",
          "type": "address"
        },
        {
          "internalType": "uint256",
          "name": "safetyCRatio",
          "type": "uint256"
        },
        {
          "internalType": "uint256",
          "name": "liquidationCRatio",
          "type": "uint256"
        }
      ],
      "stateMutability": "view",
      "type": "function"
    },
    {
      "inputs": [],
      "name": "_params",
      "outputs": [
        {
          "internalType": "uint256",
          "name": "redemptionRateUpperBound",
          "type": "uint256"
        },
        {
          "internalType": "uint256",
          "name": "redemptionRateLowerBound",
          "type": "uint256"
        }
      ],
      "stateMutability": "view",
      "type": "function"
    },
    {
      "inputs": [
        {
          "internalType": "address",
          "name": "_account",
          "type": "address"
        }
      ],
      "name": "addAuthorization",
      "outputs": [],
      "stateMutability": "nonpayable",
      "type": "function"
    },
    {
      "inputs": [
        {
          "internalType": "address",
          "name": "_account",
          "type": "address"
        }
      ],
      "name": "authorizedAccounts",
      "outputs": [
        {
          "internalType": "bool",
          "name": "_authorized",
          "type": "bool"
        }
      ],
      "stateMutability": "view",
      "type": "function"
    },
    {
      "inputs": [],
      "name": "authorizedAccounts",
      "outputs": [
        {
          "internalType": "address[]",
          "name": "_accounts",
          "type": "address[]"
        }
      ],
      "stateMutability": "view",
      "type": "function"
    },
    {
      "inputs": [
        {
          "internalType": "bytes32",
          "name": "_cType",
          "type": "bytes32"
        }
      ],
      "name": "cParams",
      "outputs": [
        {
          "components": [
            {
              "internalType": "contract IDelayedOracle",
              "name": "oracle",
              "type": "address"
            },
            {
              "internalType": "uint256",
              "name": "safetyCRatio",
              "type": "uint256"
            },
            {
              "internalType": "uint256",
              "name": "liquidationCRatio",
              "type": "uint256"
            }
          ],
          "internalType": "struct IOracleRelayer.OracleRelayerCollateralParams",
          "name": "_oracleRelayerCParams",
          "type": "tuple"
        }
      ],
      "stateMutability": "view",
      "type": "function"
    },
    {
      "inputs": [],
      "name": "calcRedemptionPrice",
      "outputs": [
        {
          "internalType": "uint256",
          "name": "_virtualRedemptionPrice",
          "type": "uint256"
        }
      ],
      "stateMutability": "view",
      "type": "function"
    },
    {
      "inputs": [],
      "name": "collateralList",
      "outputs": [
        {
          "internalType": "bytes32[]",
          "name": "__collateralList",
          "type": "bytes32[]"
        }
      ],
      "stateMutability": "view",
      "type": "function"
    },
    {
      "inputs": [],
      "name": "contractEnabled",
      "outputs": [
        {
          "internalType": "bool",
          "name": "",
          "type": "bool"
        }
      ],
      "stateMutability": "view",
      "type": "function"
    },
    {
      "inputs": [],
      "name": "disableContract",
      "outputs": [],
      "stateMutability": "nonpayable",
      "type": "function"
    },
    {
      "inputs": [
        {
          "internalType": "bytes32",
          "name": "_cType",
          "type": "bytes32"
        },
        {
          "components": [
            {
              "internalType": "contract IDelayedOracle",
              "name": "oracle",
              "type": "address"
            },
            {
              "internalType": "uint256",
              "name": "safetyCRatio",
              "type": "uint256"
            },
            {
              "internalType": "uint256",
              "name": "liquidationCRatio",
              "type": "uint256"
            }
          ],
          "internalType": "struct IOracleRelayer.OracleRelayerCollateralParams",
          "name": "_oracleRelayerCParams",
          "type": "tuple"
        }
      ],
      "name": "initializeCollateralType",
      "outputs": [],
      "stateMutability": "nonpayable",
      "type": "function"
    },
    {
      "inputs": [],
      "name": "marketPrice",
      "outputs": [
        {
          "internalType": "uint256",
          "name": "_marketPrice",
          "type": "uint256"
        }
      ],
      "stateMutability": "view",
      "type": "function"
    },
    {
      "inputs": [
        {
          "internalType": "bytes32",
          "name": "_cType",
          "type": "bytes32"
        },
        {
          "internalType": "bytes32",
          "name": "_param",
          "type": "bytes32"
        },
        {
          "internalType": "bytes",
          "name": "_data",
          "type": "bytes"
        }
      ],
      "name": "modifyParameters",
      "outputs": [],
      "stateMutability": "nonpayable",
      "type": "function"
    },
    {
      "inputs": [
        {
          "internalType": "bytes32",
          "name": "_param",
          "type": "bytes32"
        },
        {
          "internalType": "bytes",
          "name": "_data",
          "type": "bytes"
        }
      ],
      "name": "modifyParameters",
      "outputs": [],
      "stateMutability": "nonpayable",
      "type": "function"
    },
    {
      "inputs": [],
      "name": "params",
      "outputs": [
        {
          "components": [
            {
              "internalType": "uint256",
              "name": "redemptionRateUpperBound",
              "type": "uint256"
            },
            {
              "internalType": "uint256",
              "name": "redemptionRateLowerBound",
              "type": "uint256"
            }
          ],
          "internalType": "struct IOracleRelayer.OracleRelayerParams",
          "name": "_oracleRelayerParams",
          "type": "tuple"
        }
      ],
      "stateMutability": "view",
      "type": "function"
    },
    {
      "inputs": [],
      "name": "redemptionPrice",
      "outputs": [
        {
          "internalType": "uint256",
          "name": "_updatedPrice",
          "type": "uint256"
        }
      ],
      "stateMutability": "nonpayable",
      "type": "function"
    },
    {
      "inputs": [],
      "name": "redemptionPriceUpdateTime",
      "outputs": [
        {
          "internalType": "uint256",
          "name": "",
          "type": "uint256"
        }
      ],
      "stateMutability": "view",
      "type": "function"
    },
    {
      "inputs": [],
      "name": "redemptionRate",
      "outputs": [
        {
          "internalType": "uint256",
          "name": "",
          "type": "uint256"
        }
      ],
      "stateMutability": "view",
      "type": "function"
    },
    {
      "inputs": [
        {
          "internalType": "address",
          "name": "_account",
          "type": "address"
        }
      ],
      "name": "removeAuthorization",
      "outputs": [],
      "stateMutability": "nonpayable",
      "type": "function"
    },
    {
      "inputs": [],
      "name": "safeEngine",
      "outputs": [
        {
          "internalType": "contract ISAFEEngine",
          "name": "",
          "type": "address"
        }
      ],
      "stateMutability": "view",
      "type": "function"
    },
    {
      "inputs": [],
      "name": "systemCoinOracle",
      "outputs": [
        {
          "internalType": "contract IBaseOracle",
          "name": "",
          "type": "address"
        }
      ],
      "stateMutability": "view",
      "type": "function"
    },
    {
      "inputs": [
        {
          "internalType": "bytes32",
          "name": "_cType",
          "type": "bytes32"
        }
      ],
      "name": "updateCollateralPrice",
      "outputs": [],
      "stateMutability": "nonpayable",
      "type": "function"
    },
    {
      "inputs": [
        {
          "internalType": "uint256",
          "name": "_redemptionRate",
          "type": "uint256"
        }
      ],
      "name": "updateRedemptionRate",
      "outputs": [],
      "stateMutability": "nonpayable",
      "type": "function"
    }
  ],
  "bytecode": {
    "object": "0x60806040526002805460ff191660011790553480156200001e57600080fd5b5060405162001fa938038062001fa98339810160408190526200004191620002bc565b336200004d81620000d3565b50620000626001600160a01b03841662000141565b60028054610100600160a81b0319166101006001600160a01b0393841602179055600380546001600160a01b0319169184169190911790556b033b2e3c9fd0803ce80000006009819055600a5542600b5580516004556020810151600555620000ca6200016f565b50505062000357565b620000e0600082620001cd565b1562000125576040516001600160a01b03821681527f599a298163e1678bb1c676052a8930bf0b8a1261ed6e01b8a2391e55f70001029060200160405180910390a150565b604051633013e93f60e11b815260040160405180910390fd5b50565b60006001600160a01b0382166200016b5760405163e99d5ac560e01b815260040160405180910390fd5b5090565b6004546200018a906b033b2e3c9fd0803ce8000000620001ed565b50600554620001b5906b033b2e3c9fd0803ce800000090620001ae906000620001ed565b9062000226565b506003546200013e906001600160a01b031662000141565b6000620001e4836001600160a01b03841662000254565b90505b92915050565b60008183116200021f5760405163130ac85760e21b815260048101849052602481018390526044015b60405180910390fd5b5090919050565b60008183106200021f5760405163fecef28360e01b8152600481018490526024810183905260440162000216565b60008181526001830160205260408120546200029d57508154600181810184556000848152602080822090930184905584548482528286019093526040902091909155620001e7565b506000620001e7565b6001600160a01b03811681146200013e57600080fd5b60008060008385036080811215620002d357600080fd5b8451620002e081620002a6565b6020860151909450620002f381620002a6565b92506040603f19820112156200030857600080fd5b50604080519081016001600160401b03811182821017156200033a57634e487b7160e01b600052604160045260246000fd5b604090815285015181526060909401516020850152509093909250565b611c4280620003676000396000f3fe608060405234801561001057600080fd5b506004361061018d5760003560e01c80636d530fb3116100e3578063b65fdaf81161008c578063da8a4bb811610066578063da8a4bb8146103c8578063e54201f6146103db578063e818ac211461042657600080fd5b8063b65fdaf81461037a578063c5b748c014610382578063cff0ab961461038a57600080fd5b80638b5a7dba116100bd5780638b5a7dba1461034b57806394f3f81d146103545780639a0976281461036757600080fd5b80636d530fb31461031b578063802503411461032e578063894ba8331461034357600080fd5b806335b2815311610145578063540385a31161011f578063540385a3146102a5578063552b16ab146102ae57806367aea313146102d157600080fd5b806335b281531461026f57806341b3a0d91461028257806345a153881461028f57600080fd5b80632082961311610176578063208296131461022457806324ba5884146102375780632e3918761461025a57600080fd5b806312f33526146101925780631d674705146101a7575b600080fd5b6101a56101a036600461183d565b610446565b005b6101ed6101b536600461188d565b60066020526000908152604090208054600182015460029092015473ffffffffffffffffffffffffffffffffffffffff909116919083565b6040805173ffffffffffffffffffffffffffffffffffffffff90941684526020840192909252908201526060015b60405180910390f35b6101a56102323660046118c8565b6104d9565b61024a610245366004611966565b6105da565b604051901515815260200161021b565b6102626105eb565b60405161021b9190611983565b6101a561027d366004611966565b6105fc565b60025461024a9060ff1681565b610297610647565b60405190815260200161021b565b610297600a5481565b6004546005546102bc919082565b6040805192835260208301919091520161021b565b6002546102f690610100900473ffffffffffffffffffffffffffffffffffffffff1681565b60405173ffffffffffffffffffffffffffffffffffffffff909116815260200161021b565b6101a561032936600461188d565b6106f1565b61033661092c565b60405161021b91906119dd565b6101a5610938565b610297600b5481565b6101a5610362366004611966565b610a1b565b6101a561037536600461188d565b610a63565b610297610b40565b610297610b68565b60408051808201825260008082526020918201528151808301835260045480825260055491830191825283519081529051918101919091520161021b565b6101a56103d6366004611a15565b610b72565b6103ee6103e936600461188d565b610c03565b60408051825173ffffffffffffffffffffffffffffffffffffffff16815260208084015190820152918101519082015260600161021b565b6003546102f69073ffffffffffffffffffffffffffffffffffffffff1681565b61044f33610c8c565b610485576040517f82b4290000000000000000000000000000000000000000000000000000000000815260040160405180910390fd5b82610491848484610c98565b83837fe436a8be7dc6aab90b400800ecc86e46fb600f2e18989b5d0389840fdabbf2ed846040516104c29190611a5c565b60405180910390a36104d381610e51565b50505050565b6104e233610c8c565b610518576040517f82b4290000000000000000000000000000000000000000000000000000000000815260040160405180910390fd5b81610524600782610ee5565b61055a576040517f56294ccb00000000000000000000000000000000000000000000000000000000815260040160405180910390fd5b815161056590610ef8565b50600083815260066020908152604091829020845181547fffffffffffffffffffffffff00000000000000000000000000000000000000001673ffffffffffffffffffffffffffffffffffffffff909116178155908401516001820155908301516002909101556105d581610e51565b505050565b60006105e582610c8c565b92915050565b60606105f76000610f90565b905090565b61060533610c8c565b61063b576040517f82b4290000000000000000000000000000000000000000000000000000000000815260040160405180910390fd5b61064481610f9d565b50565b6000806000600360009054906101000a900473ffffffffffffffffffffffffffffffffffffffff1673ffffffffffffffffffffffffffffffffffffffff16634fd0ada86040518163ffffffff1660e01b81526004016040805180830381865afa1580156106b8573d6000803e3d6000fd5b505050506040513d601f19601f820116820180604052508101906106dc9190611ac8565b9150915080156106ec5750919050565b505090565b60025460ff1661072d576040517f7abbf1c900000000000000000000000000000000000000000000000000000000815260040160405180910390fd5b6000818152600660205260408082205481517f4fd0ada80000000000000000000000000000000000000000000000000000000081528251849373ffffffffffffffffffffffffffffffffffffffff90931692634fd0ada892600480820193918290030181865afa1580156107a5573d6000803e3d6000fd5b505050506040513d601f19601f820116820180604052508101906107c99190611ac8565b9150915060006107d761102c565b90506000826107e7576000610813565b6000858152600660205260409020600101546108139061080d848188633b9aca00611b2c565b90611047565b9050600083610823576000610849565b6000868152600660205260409020600201546108499061080d858189633b9aca00611b2c565b6002546040517f1529c3e9000000000000000000000000000000000000000000000000000000008152600481018990526024810185905260448101839052919250610100900473ffffffffffffffffffffffffffffffffffffffff1690631529c3e990606401600060405180830381600087803b1580156108c957600080fd5b505af11580156108dd573d6000803e3d6000fd5b505060408051888152602081018690529081018490528892507f37f13f22a2174c79144ffda4c6b7ad416951d5a41171bec961f53ef4c049014e915060600160405180910390a2505050505050565b60606105f76007610f90565b61094133610c8c565b610977576040517f82b4290000000000000000000000000000000000000000000000000000000000815260040160405180910390fd5b60025460ff166109b3576040517f7abbf1c900000000000000000000000000000000000000000000000000000000815260040160405180910390fd5b600280547fffffffffffffffffffffffffffffffffffffffffffffffffffffffffffffff001690556109f06b033b2e3c9fd0803ce8000000600a55565b6040517f2d4b4ecff7bd7503135271925520a2f6c0d98c9473ffc1a1e72c92502f51b25e90600090a1565b610a2433610c8c565b610a5a576040517f82b4290000000000000000000000000000000000000000000000000000000000815260040160405180910390fd5b6106448161106a565b610a6c33610c8c565b610aa2576040517f82b4290000000000000000000000000000000000000000000000000000000000815260040160405180910390fd5b60025460ff16610ade576040517f7abbf1c900000000000000000000000000000000000000000000000000000000815260040160405180910390fd5b600b544214610b19576040517fbcbbe8cf00000000000000000000000000000000000000000000000000000000815260040160405180910390fd5b600454811115610b2c5750600454600a55565b600554811015610b3b57506005545b600a55565b60006105f7600954610b62600b5442610b599190611b43565b600a54906110f2565b906111e8565b60006105f761102c565b610b7b33610c8c565b610bb1576040517f82b4290000000000000000000000000000000000000000000000000000000000815260040160405180910390fd5b610bbb8282611201565b6000801b827fe436a8be7dc6aab90b400800ecc86e46fb600f2e18989b5d0389840fdabbf2ed83604051610bef9190611a5c565b60405180910390a3610bff611342565b5050565b610c3d6040518060600160405280600073ffffffffffffffffffffffffffffffffffffffff16815260200160008152602001600081525090565b506000908152600660209081526040918290208251606081018452815473ffffffffffffffffffffffffffffffffffffffff168152600182015492810192909252600201549181019190915290565b60006105e581836113a5565b60025460ff16610cd4576040517f7abbf1c900000000000000000000000000000000000000000000000000000000815260040160405180910390fd5b6000610ce1826020015190565b6000858152600660205260409020909150610cfd6007866113d4565b610d33576040517f98fc17bd00000000000000000000000000000000000000000000000000000000815260040160405180910390fd5b837f73616665747943526174696f000000000000000000000000000000000000000003610d665760018101829055610e4a565b837f6c69717569646174696f6e43526174696f00000000000000000000000000000003610d995760028101829055610e4a565b837f6f7261636c65000000000000000000000000000000000000000000000000000003610e1857610dd3610dce846020015190565b610ef8565b81547fffffffffffffffffffffffff00000000000000000000000000000000000000001673ffffffffffffffffffffffffffffffffffffffff91909116178155610e4a565b6040517f9d2ff48000000000000000000000000000000000000000000000000000000000815260040160405180910390fd5b5050505050565b6000818152600660209081526040918290208251606081018452815473ffffffffffffffffffffffffffffffffffffffff168152600182015492810183905260029091015492810183905291610ea791906113ec565b506040810151610ec3906b033b2e3c9fd0803ce80000006113ec565b5080516105d59073ffffffffffffffffffffffffffffffffffffffff1661143e565b6000610ef18383611491565b9392505050565b6000610f198273ffffffffffffffffffffffffffffffffffffffff1661143e565b90508073ffffffffffffffffffffffffffffffffffffffff166320531bc96040518163ffffffff1660e01b8152600401602060405180830381865afa158015610f66573d6000803e3d6000fd5b505050506040513d601f19601f82011682018060405250810190610f8a9190611b56565b50919050565b60606000610ef1836114e0565b610fa860008261153c565b15610ffa5760405173ffffffffffffffffffffffffffffffffffffffff821681527f599a298163e1678bb1c676052a8930bf0b8a1261ed6e01b8a2391e55f7000102906020015b60405180910390a150565b6040517f6027d27e00000000000000000000000000000000000000000000000000000000815260040160405180910390fd5b6000600b54421115611040576105f761155e565b5060095490565b6000816110606b033b2e3c9fd0803ce800000085611b2c565b610ef19190611b73565b6110756000826115c4565b156110c05760405173ffffffffffffffffffffffffffffffffffffffff821681527f8834a87e641e9716be4f34527af5d23e11624f1ddeefede6ad75a9acfc31b90390602001610fef565b6040517fea8e4eb500000000000000000000000000000000000000000000000000000000815260040160405180910390fd5b60008280156111bf5760018316801561110d5784925061111d565b6b033b2e3c9fd0803ce800000092505b506002909204916b019d971e4fe8401e740000005b83156111b957848502858682041461114957600080fd5b8181018181101561115957600080fd5b6b033b2e3c9fd0803ce8000000900495505060018416156111ae57848302838682041415861515161561118b57600080fd5b8181018181101561119b57600080fd5b6b033b2e3c9fd0803ce800000090049350505b600284049350611132565b506111e1565b8280156111cf57600092506111df565b6b033b2e3c9fd0803ce800000092505b505b5092915050565b60006b033b2e3c9fd0803ce80000006110608385611b2c565b60025460ff1661123d576040517f7abbf1c900000000000000000000000000000000000000000000000000000000815260040160405180910390fd5b600061124a826020015190565b9050827f73797374656d436f696e4f7261636c6500000000000000000000000000000000036112e65761129c611281836020015190565b73ffffffffffffffffffffffffffffffffffffffff1661143e565b600380547fffffffffffffffffffffffff00000000000000000000000000000000000000001673ffffffffffffffffffffffffffffffffffffffff92909216919091179055505050565b827f726564656d7074696f6e526174655570706572426f756e64000000000000000003611314576004555050565b827f726564656d7074696f6e526174654c6f776572426f756e64000000000000000003610e18576005555050565b60045461135b906b033b2e3c9fd0803ce80000006115e6565b50600554611382906b033b2e3c9fd0803ce80000009061137c9060006115e6565b9061162b565b506003546106449073ffffffffffffffffffffffffffffffffffffffff1661143e565b73ffffffffffffffffffffffffffffffffffffffff811660009081526001830160205260408120541515610ef1565b60008181526001830160205260408120541515610ef1565b600081831015611437576040517f1d7ee3a300000000000000000000000000000000000000000000000000000000815260048101849052602481018390526044015b60405180910390fd5b5090919050565b600073ffffffffffffffffffffffffffffffffffffffff821661148d576040517fe99d5ac500000000000000000000000000000000000000000000000000000000815260040160405180910390fd5b5090565b60008181526001830160205260408120546114d8575081546001818101845560008481526020808220909301849055845484825282860190935260409020919091556105e5565b5060006105e5565b60608160000180548060200260200160405190810160405280929190818152602001828054801561153057602002820191906000526020600020905b81548152602001906001019080831161151c575b50505050509050919050565b6000610ef18373ffffffffffffffffffffffffffffffffffffffff8416611491565b6000611577600954610b62600b5442610b599190611b43565b905080600003611585575060015b600981905542600b556040518181527f9e2c1201748a5c10b659169e27843c246931edf32ccc126c79505db2352fbc3b9060200160405180910390a190565b6000610ef18373ffffffffffffffffffffffffffffffffffffffff8416611670565b6000818311611437576040517f4c2b215c000000000000000000000000000000000000000000000000000000008152600481018490526024810183905260440161142e565b6000818310611437576040517ffecef283000000000000000000000000000000000000000000000000000000008152600481018490526024810183905260440161142e565b60008181526001830160205260408120548015611759576000611694600183611b43565b85549091506000906116a890600190611b43565b905081811461170d5760008660000182815481106116c8576116c8611bae565b90600052602060002001549050808760000184815481106116eb576116eb611bae565b6000918252602080832090910192909255918252600188019052604090208390555b855486908061171e5761171e611bdd565b6001900381819060005260206000200160009055905585600101600086815260200190815260200160002060009055600193505050506105e5565b60009150506105e5565b7f4e487b7100000000000000000000000000000000000000000000000000000000600052604160045260246000fd5b600082601f8301126117a357600080fd5b813567ffffffffffffffff808211156117be576117be611763565b604051601f83017fffffffffffffffffffffffffffffffffffffffffffffffffffffffffffffffe0908116603f0116810190828211818310171561180457611804611763565b8160405283815286602085880101111561181d57600080fd5b836020870160208301376000602085830101528094505050505092915050565b60008060006060848603121561185257600080fd5b8335925060208401359150604084013567ffffffffffffffff81111561187757600080fd5b61188386828701611792565b9150509250925092565b60006020828403121561189f57600080fd5b5035919050565b73ffffffffffffffffffffffffffffffffffffffff8116811461064457600080fd5b60008082840360808112156118dc57600080fd5b8335925060607fffffffffffffffffffffffffffffffffffffffffffffffffffffffffffffffe08201121561191057600080fd5b506040516060810181811067ffffffffffffffff8211171561193457611934611763565b6040526020840135611945816118a6565b81526040848101356020830152606090940135938101939093525092909150565b60006020828403121561197857600080fd5b8135610ef1816118a6565b6020808252825182820181905260009190848201906040850190845b818110156119d157835173ffffffffffffffffffffffffffffffffffffffff168352928401929184019160010161199f565b50909695505050505050565b6020808252825182820181905260009190848201906040850190845b818110156119d1578351835292840192918401916001016119f9565b60008060408385031215611a2857600080fd5b82359150602083013567ffffffffffffffff811115611a4657600080fd5b611a5285828601611792565b9150509250929050565b600060208083528351808285015260005b81811015611a8957858101830151858201604001528201611a6d565b5060006040828601015260407fffffffffffffffffffffffffffffffffffffffffffffffffffffffffffffffe0601f8301168501019250505092915050565b60008060408385031215611adb57600080fd5b8251915060208301518015158114611af257600080fd5b809150509250929050565b7f4e487b7100000000000000000000000000000000000000000000000000000000600052601160045260246000fd5b80820281158282048414176105e5576105e5611afd565b818103818111156105e5576105e5611afd565b600060208284031215611b6857600080fd5b8151610ef1816118a6565b600082611ba9577f4e487b7100000000000000000000000000000000000000000000000000000000600052601260045260246000fd5b500490565b7f4e487b7100000000000000000000000000000000000000000000000000000000600052603260045260246000fd5b7f4e487b7100000000000000000000000000000000000000000000000000000000600052603160045260246000fdfea2646970667358221220e9c6f8c1aa89203da87210544d5d0067e34c41701c360626e8619c861a2fffa964736f6c63430008130033",
    "linkReferences": {}
  },
  "methodIdentifiers": {
    "_cParams(bytes32)": "1d674705",
    "_params()": "552b16ab",
    "addAuthorization(address)": "35b28153",
    "authorizedAccounts()": "2e391876",
    "authorizedAccounts(address)": "24ba5884",
    "cParams(bytes32)": "e54201f6",
    "calcRedemptionPrice()": "b65fdaf8",
    "collateralList()": "80250341",
    "contractEnabled()": "41b3a0d9",
    "disableContract()": "894ba833",
    "initializeCollateralType(bytes32,(address,uint256,uint256))": "20829613",
    "marketPrice()": "45a15388",
    "modifyParameters(bytes32,bytes)": "da8a4bb8",
    "modifyParameters(bytes32,bytes32,bytes)": "12f33526",
    "params()": "cff0ab96",
    "redemptionPrice()": "c5b748c0",
    "redemptionPriceUpdateTime()": "8b5a7dba",
    "redemptionRate()": "540385a3",
    "removeAuthorization(address)": "94f3f81d",
    "safeEngine()": "67aea313",
    "systemCoinOracle()": "e818ac21",
    "updateCollateralPrice(bytes32)": "6d530fb3",
    "updateRedemptionRate(uint256)": "9a097628"
  },
  "id": 55
}