{
  "abi": [
    {
      "inputs": [
        {
          "components": [
            {
              "internalType": "int256",
              "name": "kp",
              "type": "int256"
            },
            {
              "internalType": "int256",
              "name": "ki",
              "type": "int256"
            }
          ],
          "internalType": "struct IPIDController.ControllerGains",
          "name": "_cGains",
          "type": "tuple"
        },
        {
          "components": [
            {
              "internalType": "uint256",
              "name": "integralPeriodSize",
              "type": "uint256"
            },
            {
              "internalType": "uint256",
              "name": "perSecondCumulativeLeak",
              "type": "uint256"
            },
            {
              "internalType": "uint256",
              "name": "noiseBarrier",
              "type": "uint256"
            },
            {
              "internalType": "uint256",
              "name": "feedbackOutputUpperBound",
              "type": "uint256"
            },
            {
              "internalType": "int256",
              "name": "feedbackOutputLowerBound",
              "type": "int256"
            }
          ],
          "internalType": "struct IPIDController.PIDControllerParams",
          "name": "_pidParams",
          "type": "tuple"
        },
        {
          "components": [
            {
              "internalType": "uint256",
              "name": "timestamp",
              "type": "uint256"
            },
            {
              "internalType": "int256",
              "name": "proportional",
              "type": "int256"
            },
            {
              "internalType": "int256",
              "name": "integral",
              "type": "int256"
            }
          ],
          "internalType": "struct IPIDController.DeviationObservation",
          "name": "_importedState",
          "type": "tuple"
        }
      ],
      "stateMutability": "nonpayable",
      "type": "constructor"
    },
    {
      "inputs": [],
      "name": "AlreadyAuthorized",
      "type": "error"
    },
    {
      "inputs": [
        {
          "internalType": "int256",
          "name": "_x",
          "type": "int256"
        },
        {
          "internalType": "int256",
          "name": "_y",
          "type": "int256"
        }
      ],
      "name": "IntNotGreaterOrEqualThan",
      "type": "error"
    },
    {
      "inputs": [
        {
          "internalType": "int256",
          "name": "_x",
          "type": "int256"
        },
        {
          "internalType": "int256",
          "name": "_y",
          "type": "int256"
        }
      ],
      "name": "IntNotLesserOrEqualThan",
      "type": "error"
    },
    {
      "inputs": [
        {
          "internalType": "int256",
          "name": "_x",
          "type": "int256"
        },
        {
          "internalType": "int256",
          "name": "_y",
          "type": "int256"
        }
      ],
      "name": "IntNotLesserThan",
      "type": "error"
    },
    {
      "inputs": [],
      "name": "IntOverflow",
      "type": "error"
    },
    {
      "inputs": [],
      "name": "NotAuthorized",
      "type": "error"
    },
    {
      "inputs": [
        {
          "internalType": "uint256",
          "name": "_x",
          "type": "uint256"
        },
        {
          "internalType": "uint256",
          "name": "_y",
          "type": "uint256"
        }
      ],
      "name": "NotLesserOrEqualThan",
      "type": "error"
    },
    {
      "inputs": [],
      "name": "NullAddress",
      "type": "error"
    },
    {
      "inputs": [],
      "name": "NullAmount",
      "type": "error"
    },
    {
      "inputs": [],
      "name": "PIDController_CannotSetPriceDeviationCumulative",
      "type": "error"
    },
    {
      "inputs": [],
      "name": "PIDController_ComputeRateCooldown",
      "type": "error"
    },
    {
      "inputs": [],
      "name": "PIDController_OnlySeedProposer",
      "type": "error"
    },
    {
      "inputs": [],
      "name": "Unauthorized",
      "type": "error"
    },
    {
      "inputs": [],
      "name": "UnrecognizedCType",
      "type": "error"
    },
    {
      "inputs": [],
      "name": "UnrecognizedParam",
      "type": "error"
    },
    {
      "anonymous": false,
      "inputs": [
        {
          "indexed": false,
          "internalType": "address",
          "name": "_account",
          "type": "address"
        }
      ],
      "name": "AddAuthorization",
      "type": "event"
    },
    {
      "anonymous": false,
      "inputs": [
        {
          "indexed": true,
          "internalType": "bytes32",
          "name": "_param",
          "type": "bytes32"
        },
        {
          "indexed": true,
          "internalType": "bytes32",
          "name": "_cType",
          "type": "bytes32"
        },
        {
          "indexed": false,
          "internalType": "bytes",
          "name": "_data",
          "type": "bytes"
        }
      ],
      "name": "ModifyParameters",
      "type": "event"
    },
    {
      "anonymous": false,
      "inputs": [
        {
          "indexed": false,
          "internalType": "address",
          "name": "_account",
          "type": "address"
        }
      ],
      "name": "RemoveAuthorization",
      "type": "event"
    },
    {
      "anonymous": false,
      "inputs": [
        {
          "indexed": false,
          "internalType": "int256",
          "name": "_proportionalDeviation",
          "type": "int256"
        },
        {
          "indexed": false,
          "internalType": "int256",
          "name": "_integralDeviation",
          "type": "int256"
        },
        {
          "indexed": false,
          "internalType": "int256",
          "name": "_deltaIntegralDeviation",
          "type": "int256"
        }
      ],
      "name": "UpdateDeviation",
      "type": "event"
    },
    {
      "inputs": [],
      "name": "_controllerGains",
      "outputs": [
        {
          "internalType": "int256",
          "name": "kp",
          "type": "int256"
        },
        {
          "internalType": "int256",
          "name": "ki",
          "type": "int256"
        }
      ],
      "stateMutability": "view",
      "type": "function"
    },
    {
      "inputs": [],
      "name": "_deviationObservation",
      "outputs": [
        {
          "internalType": "uint256",
          "name": "timestamp",
          "type": "uint256"
        },
        {
          "internalType": "int256",
          "name": "proportional",
          "type": "int256"
        },
        {
          "internalType": "int256",
          "name": "integral",
          "type": "int256"
        }
      ],
      "stateMutability": "view",
      "type": "function"
    },
    {
      "inputs": [],
      "name": "_params",
      "outputs": [
        {
          "internalType": "uint256",
          "name": "integralPeriodSize",
          "type": "uint256"
        },
        {
          "internalType": "uint256",
          "name": "perSecondCumulativeLeak",
          "type": "uint256"
        },
        {
          "internalType": "uint256",
          "name": "noiseBarrier",
          "type": "uint256"
        },
        {
          "internalType": "uint256",
          "name": "feedbackOutputUpperBound",
          "type": "uint256"
        },
        {
          "internalType": "int256",
          "name": "feedbackOutputLowerBound",
          "type": "int256"
        }
      ],
      "stateMutability": "view",
      "type": "function"
    },
    {
      "inputs": [
        {
          "internalType": "address",
          "name": "_account",
          "type": "address"
        }
      ],
      "name": "addAuthorization",
      "outputs": [],
      "stateMutability": "nonpayable",
      "type": "function"
    },
    {
      "inputs": [
        {
          "internalType": "address",
          "name": "_account",
          "type": "address"
        }
      ],
      "name": "authorizedAccounts",
      "outputs": [
        {
          "internalType": "bool",
          "name": "_authorized",
          "type": "bool"
        }
      ],
      "stateMutability": "view",
      "type": "function"
    },
    {
      "inputs": [],
      "name": "authorizedAccounts",
      "outputs": [
        {
          "internalType": "address[]",
          "name": "_accounts",
          "type": "address[]"
        }
      ],
      "stateMutability": "view",
      "type": "function"
    },
    {
      "inputs": [
        {
          "internalType": "uint256",
          "name": "_piSum",
          "type": "uint256"
        },
        {
          "internalType": "uint256",
          "name": "_redemptionPrice",
          "type": "uint256"
        }
      ],
      "name": "breaksNoiseBarrier",
      "outputs": [
        {
          "internalType": "bool",
          "name": "_breaksNb",
          "type": "bool"
        }
      ],
      "stateMutability": "view",
      "type": "function"
    },
    {
      "inputs": [
        {
          "internalType": "uint256",
          "name": "_marketPrice",
          "type": "uint256"
        },
        {
          "internalType": "uint256",
          "name": "_redemptionPrice",
          "type": "uint256"
        }
      ],
      "name": "computeRate",
      "outputs": [
        {
          "internalType": "uint256",
          "name": "_newRedemptionRate",
          "type": "uint256"
        }
      ],
      "stateMutability": "nonpayable",
      "type": "function"
    },
    {
      "inputs": [],
      "name": "controllerGains",
      "outputs": [
        {
          "components": [
            {
              "internalType": "int256",
              "name": "kp",
              "type": "int256"
            },
            {
              "internalType": "int256",
              "name": "ki",
              "type": "int256"
            }
          ],
          "internalType": "struct IPIDController.ControllerGains",
          "name": "_cGains",
          "type": "tuple"
        }
      ],
      "stateMutability": "view",
      "type": "function"
    },
    {
      "inputs": [],
      "name": "deviationObservation",
      "outputs": [
        {
          "components": [
            {
              "internalType": "uint256",
              "name": "timestamp",
              "type": "uint256"
            },
            {
              "internalType": "int256",
              "name": "proportional",
              "type": "int256"
            },
            {
              "internalType": "int256",
              "name": "integral",
              "type": "int256"
            }
          ],
          "internalType": "struct IPIDController.DeviationObservation",
          "name": "__deviationObservation",
          "type": "tuple"
        }
      ],
      "stateMutability": "view",
      "type": "function"
    },
    {
      "inputs": [
        {
          "internalType": "int256",
          "name": "_piOutput",
          "type": "int256"
        }
      ],
      "name": "getBoundedRedemptionRate",
      "outputs": [
        {
          "internalType": "uint256",
          "name": "_newRedemptionRate",
          "type": "uint256"
        }
      ],
      "stateMutability": "view",
      "type": "function"
    },
    {
      "inputs": [
        {
          "internalType": "int256",
          "name": "_proportionalTerm",
          "type": "int256"
        },
        {
          "internalType": "int256",
          "name": "_integralTerm",
          "type": "int256"
        }
      ],
      "name": "getGainAdjustedPIOutput",
      "outputs": [
        {
          "internalType": "int256",
          "name": "_gainAdjustedPIOutput",
          "type": "int256"
        }
      ],
      "stateMutability": "view",
      "type": "function"
    },
    {
      "inputs": [
        {
          "internalType": "int256",
          "name": "_proportionalTerm",
          "type": "int256"
        },
        {
          "internalType": "int256",
          "name": "_integralTerm",
          "type": "int256"
        }
      ],
      "name": "getGainAdjustedTerms",
      "outputs": [
        {
          "internalType": "int256",
          "name": "_ajustedProportionalTerm",
          "type": "int256"
        },
        {
          "internalType": "int256",
          "name": "_adjustedIntegralTerm",
          "type": "int256"
        }
      ],
      "stateMutability": "view",
      "type": "function"
    },
    {
      "inputs": [
        {
          "internalType": "int256",
          "name": "_proportionalTerm",
          "type": "int256"
        },
        {
          "internalType": "uint256",
          "name": "_accumulatedLeak",
          "type": "uint256"
        }
      ],
      "name": "getNextDeviationCumulative",
      "outputs": [
        {
          "internalType": "int256",
          "name": "_nextDeviationCumulative",
          "type": "int256"
        },
        {
          "internalType": "int256",
          "name": "_appliedDeviation",
          "type": "int256"
        }
      ],
      "stateMutability": "view",
      "type": "function"
    },
    {
      "inputs": [
        {
          "internalType": "uint256",
          "name": "_marketPrice",
          "type": "uint256"
        },
        {
          "internalType": "uint256",
          "name": "_redemptionPrice",
          "type": "uint256"
        },
        {
          "internalType": "uint256",
          "name": "_accumulatedLeak",
          "type": "uint256"
        }
      ],
      "name": "getNextRedemptionRate",
      "outputs": [
        {
          "internalType": "uint256",
          "name": "_redemptionRate",
          "type": "uint256"
        },
        {
          "internalType": "int256",
          "name": "_proportionalTerm",
          "type": "int256"
        },
        {
          "internalType": "int256",
          "name": "_integralTerm",
          "type": "int256"
        }
      ],
      "stateMutability": "view",
      "type": "function"
    },
    {
      "inputs": [
        {
          "internalType": "bytes32",
          "name": "_cType",
          "type": "bytes32"
        },
        {
          "internalType": "bytes32",
          "name": "_param",
          "type": "bytes32"
        },
        {
          "internalType": "bytes",
          "name": "_data",
          "type": "bytes"
        }
      ],
      "name": "modifyParameters",
      "outputs": [],
      "stateMutability": "nonpayable",
      "type": "function"
    },
    {
      "inputs": [
        {
          "internalType": "bytes32",
          "name": "_param",
          "type": "bytes32"
        },
        {
          "internalType": "bytes",
          "name": "_data",
          "type": "bytes"
        }
      ],
      "name": "modifyParameters",
      "outputs": [],
      "stateMutability": "nonpayable",
      "type": "function"
    },
    {
      "inputs": [],
      "name": "params",
      "outputs": [
        {
          "components": [
            {
              "internalType": "uint256",
              "name": "integralPeriodSize",
              "type": "uint256"
            },
            {
              "internalType": "uint256",
              "name": "perSecondCumulativeLeak",
              "type": "uint256"
            },
            {
              "internalType": "uint256",
              "name": "noiseBarrier",
              "type": "uint256"
            },
            {
              "internalType": "uint256",
              "name": "feedbackOutputUpperBound",
              "type": "uint256"
            },
            {
              "internalType": "int256",
              "name": "feedbackOutputLowerBound",
              "type": "int256"
            }
          ],
          "internalType": "struct IPIDController.PIDControllerParams",
          "name": "_pidParams",
          "type": "tuple"
        }
      ],
      "stateMutability": "view",
      "type": "function"
    },
    {
      "inputs": [
        {
          "internalType": "address",
          "name": "_account",
          "type": "address"
        }
      ],
      "name": "removeAuthorization",
      "outputs": [],
      "stateMutability": "nonpayable",
      "type": "function"
    },
    {
      "inputs": [],
      "name": "seedProposer",
      "outputs": [
        {
          "internalType": "address",
          "name": "",
          "type": "address"
        }
      ],
      "stateMutability": "view",
      "type": "function"
    },
    {
      "inputs": [],
      "name": "timeSinceLastUpdate",
      "outputs": [
        {
          "internalType": "uint256",
          "name": "_elapsed",
          "type": "uint256"
        }
      ],
      "stateMutability": "view",
      "type": "function"
    }
  ],
  "bytecode": {
    "object": "0x60806040523480156200001157600080fd5b506040516200205738038062002057833981016040819052620000349162000474565b336200004081620000d2565b5081516003556020808301516004556040830151600555606083015160065560808301516007558351600b55830151600c55805115620000bf5760408051606081019091528151819062000095904262000140565b8152602083810151818301526040808501519281019290925282516008558201516009550151600a555b620000c96200017c565b50505062000569565b620000df6000826200027d565b1562000124576040516001600160a01b03821681527f599a298163e1678bb1c676052a8930bf0b8a1261ed6e01b8a2391e55f70001029060200160405180910390a150565b604051633013e93f60e11b815260040160405180910390fd5b50565b60008183111562000173576040516347df8ef360e01b815260048101849052602481018390526044015b60405180910390fd5b50815b92915050565b6003546200018a906200029b565b50600554620001af90670de0b6b3a764000090620001a8906200029b565b9062000140565b50600654620001cc906001600160ff1b0390620001a8906200029b565b506200020c620001ea60016b033b2e3c9fd0803ce800000062000534565b620001f5906200054a565b60075462000205906000620002c3565b90620002f1565b5060045462000228906b033b2e3c9fd0803ce800000062000140565b5062000256670de0b6b3a76400006200024f62000245826200054a565b600b5490620002f1565b9062000320565b506200013d670de0b6b3a76400006200024f62000273826200054a565b600c5490620002f1565b600062000294836001600160a01b0384166200034f565b9392505050565b600081600003620002bf57604051630e5a744960e41b815260040160405180910390fd5b5090565b600081831262000173576040516304697a9d60e41b815260048101849052602481018390526044016200016a565b600081831215620001735760405163ed45b90160e01b815260048101849052602481018390526044016200016a565b60008183131562000173576040516303c7842b60e61b815260048101849052602481018390526044016200016a565b6000818152600183016020526040812054620003985750815460018181018455600084815260208082209093018490558454848252828601909352604090209190915562000176565b50600062000176565b604080519081016001600160401b0381118282101715620003d257634e487b7160e01b600052604160045260246000fd5b60405290565b60405160a081016001600160401b0381118282101715620003d257634e487b7160e01b600052604160045260246000fd5b6000606082840312156200041c57600080fd5b604051606081016001600160401b03811182821017156200044d57634e487b7160e01b600052604160045260246000fd5b80604052508091508251815260208301516020820152604083015160408201525092915050565b60008060008385036101408112156200048c57600080fd5b60408112156200049b57600080fd5b620004a5620003a1565b8551815260208087015190820152935060a0603f1982011215620004c857600080fd5b50620004d3620003d8565b60408501518152606085015160208201526080850151604082015260a0850151606082015260c0850151608082015280925050620005158560e0860162000409565b90509250925092565b634e487b7160e01b600052601160045260246000fd5b818103818111156200017657620001766200051e565b6000600160ff1b82016200056257620005626200051e565b5060000390565b611ade80620005796000396000f3fe608060405234801561001057600080fd5b50600436106101775760003560e01c806350473b68116100d8578063ac87dc0f1161008c578063da8a4bb811610066578063da8a4bb8146103c7578063f167a1b8146103da578063f23bc6d1146103ed57600080fd5b8063ac87dc0f14610358578063c1b800831461036a578063cff0ab961461037d57600080fd5b806369cb9945116100bd57806369cb9945146102f857806394f3f81d1461033d57806398d4102f1461035057600080fd5b806350473b68146102a3578063552b16ab146102b657600080fd5b806324ba58841161012f57806335b281531161011457806335b281531461024f5780633d24d2b0146102625780634635a4f41461027557600080fd5b806324ba5884146102175780632e3918761461023a57600080fd5b806314de6a3c1161016057806314de6a3c146101b957806316331c76146101cc5780631f5b3005146101f657600080fd5b80630c2e314f1461017c57806312f33526146101a4575b600080fd5b600b54600c5461018a919082565b604080519283526020830191909152015b60405180910390f35b6101b76101b2366004611675565b61042b565b005b61018a6101c73660046116c5565b6104b6565b6101d46104ce565b604080518251815260208084015190820152918101519082015260600161019b565b6102096102043660046116e7565b610517565b60405190815260200161019b565b61022a610225366004611700565b610528565b604051901515815260200161019b565b610242610533565b60405161019b9190611736565b6101b761025d366004611700565b610544565b6102096102703660046116c5565b61058f565b610288610283366004611790565b6106b8565b6040805193845260208401929092529082015260600161019b565b61018a6102b13660046116c5565b610720565b6003546004546005546006546007546102d0949392919085565b604080519586526020860194909452928401919091526060830152608082015260a00161019b565b6002546103189073ffffffffffffffffffffffffffffffffffffffff1681565b60405173ffffffffffffffffffffffffffffffffffffffff909116815260200161019b565b6101b761034b366004611700565b61072d565b610209610775565b600854600954600a5461028892919083565b61022a6103783660046116c5565b61077f565b610385610792565b60405161019b9190600060a082019050825182526020830151602083015260408301516040830152606083015160608301526080830151608083015292915050565b6101b76103d53660046117bc565b6107f9565b6102096103e83660046116c5565b61088a565b604080518082018252600080825260209182015281518083018352600b54808252600c5491830191825283519081529051918101919091520161019b565b61043433610896565b61046a576040517f82b4290000000000000000000000000000000000000000000000000000000000815260040160405180910390fd5b826104768484846108a2565b83837fe436a8be7dc6aab90b400800ecc86e46fb600f2e18989b5d0389840fdabbf2ed846040516104a79190611803565b60405180910390a35b50505050565b6000806104c384846108d4565b915091509250929050565b6104f260405180606001604052806000815260200160008152602001600081525090565b506040805160608101825260085481526009546020820152600a549181019190915290565b60006105228261092c565b92915050565b600061052282610896565b606061053f6000610987565b905090565b61054d33610896565b610583576040517f82b4290000000000000000000000000000000000000000000000000000000000815260040160405180910390fd5b61058c81610994565b50565b60025460009073ffffffffffffffffffffffffffffffffffffffff1633146105e3576040517fe1adbdbf00000000000000000000000000000000000000000000000000000000815260040160405180910390fd5b6003546105ee610a23565b1080156105fc575060085415155b15610633576040517fc80800bb00000000000000000000000000000000000000000000000000000000815260040160405180910390fd5b600061063f8484610a41565b9050600061065761064e610a23565b60045490610a70565b905060006106658383610b66565b905060006106738483610be6565b905061068761068182610c0d565b87610c25565b156106a0576106958161092c565b945050505050610522565b506b033b2e3c9fd0803ce80000009695505050505050565b60008060006106c78686610a41565b91506106d382856108d4565b50905060006106e28383610be6565b90506106f061068182610c0d565b15610706576106fe8161092c565b935050610717565b6b033b2e3c9fd0803ce80000009350505b93509350939050565b6000806104c38484610c7c565b61073633610896565b61076c576040517f82b4290000000000000000000000000000000000000000000000000000000000815260040160405180910390fd5b61058c81610c9b565b600061053f610a23565b600061078b8383610c25565b9392505050565b6107c46040518060a0016040528060008152602001600081526020016000815260200160008152602001600081525090565b506040805160a08101825260035481526004546020820152600554918101919091526006546060820152600754608082015290565b61080233610896565b610838576040517f82b4290000000000000000000000000000000000000000000000000000000000815260040160405180910390fd5b6108428282610d23565b6000801b827fe436a8be7dc6aab90b400800ecc86e46fb600f2e18989b5d0389840fdabbf2ed836040516108769190611803565b60405180910390a3610886610f9d565b5050565b600061078b8383610be6565b60006105228183611098565b6040517f9d2ff48000000000000000000000000000000000000000000000000000000000815260040160405180910390fd5b6009546000908190816108e5610a23565b90506000816108f488856110c7565b6108fe919061189e565b600a549091506000906109129088906110df565b905061091e82826118ea565b989197509095505050505050565b60008061093883611102565b905061094f6b033b2e3c9fd0803ce800000061190a565b81126109705761096b6b033b2e3c9fd0803ce800000082611133565b61078b565b61078b60016b033b2e3c9fd0803ce8000000611942565b6060600061078b83611160565b61099f6000826111bc565b156109f15760405173ffffffffffffffffffffffffffffffffffffffff821681527f599a298163e1678bb1c676052a8930bf0b8a1261ed6e01b8a2391e55f7000102906020015b60405180910390a150565b6040517f6027d27e00000000000000000000000000000000000000000000000000000000815260040160405180910390fd5b60085460009015610a3b5760085461053f9042611942565b50600090565b600080610a5284633b9aca00611955565b9050610a6883610a6281846111de565b906111fc565b949350505050565b6000828015610b3d57600183168015610a8b57849250610a9b565b6b033b2e3c9fd0803ce800000092505b506002909204916b019d971e4fe8401e740000005b8315610b37578485028586820414610ac757600080fd5b81810181811015610ad757600080fd5b6b033b2e3c9fd0803ce800000090049550506001841615610b2c578483028386820414158615151615610b0957600080fd5b81810181811015610b1957600080fd5b6b033b2e3c9fd0803ce800000090049350505b600284049350610ab0565b50610b5f565b828015610b4d5760009250610b5d565b6b033b2e3c9fd0803ce800000092505b505b5092915050565b600080610b7384846108d4565b60408051606080820183524280835260208084018b90529284018690526008556009899055600a85905582518981529182018590529181018390529294509092507fb24e60632a907a694f34dbda7fa4f725ad505b8a61ce2734afb986f9fe6edf1f910160405180910390a15092915050565b6000806000610bf58585610c7c565b9092509050610c0481836118ea565b95945050505050565b6000808212610c1c5781610522565b6105228261190a565b600082600003610c3757506000610522565b600554600090610c50670de0b6b3a76400006002611955565b610c5a9190611942565b905082610c678183611215565b610c719190611942565b909310159392505050565b600b546000908190610c8e9085611234565b600c546104c39085611234565b610ca6600082611249565b15610cf15760405173ffffffffffffffffffffffffffffffffffffffff821681527f8834a87e641e9716be4f34527af5d23e11624f1ddeefede6ad75a9acfc31b903906020016109e6565b6040517fea8e4eb500000000000000000000000000000000000000000000000000000000815260040160405180910390fd5b6000610d30826020015190565b90506000610d3f836020015190565b9050837f7365656450726f706f736572000000000000000000000000000000000000000003610ddb57610d91610d76846020015190565b73ffffffffffffffffffffffffffffffffffffffff1661126b565b600280547fffffffffffffffffffffffff00000000000000000000000000000000000000001673ffffffffffffffffffffffffffffffffffffffff929092169190911790556104b0565b837f6e6f69736542617272696572000000000000000000000000000000000000000003610e0c5760058290556104b0565b837f696e74656772616c506572696f6453697a65000000000000000000000000000003610e3d5760038290556104b0565b837f666565646261636b4f75747075745570706572426f756e64000000000000000003610e6e5760068290556104b0565b837f666565646261636b4f75747075744c6f776572426f756e64000000000000000003610e9f5760078190556104b0565b837f7065725365636f6e6443756d756c61746976654c65616b00000000000000000003610ed05760048290556104b0565b837f6b7000000000000000000000000000000000000000000000000000000000000003610f0157600b8190556104b0565b837f6b6900000000000000000000000000000000000000000000000000000000000003610f3257600c8190556104b0565b837f7072696365446576696174696f6e43756d756c61746976650000000000000000036108a257600c5415610f93576040517fb6de0fa400000000000000000000000000000000000000000000000000000000815260040160405180910390fd5b600a8190556104b0565b600354610fa9906112be565b50610fca670de0b6b3a7640000610fc46003600201546112be565b906112fa565b50610ffc7f7fffffffffffffffffffffffffffffffffffffffffffffffffffffffffffffff610fc460038001546112be565b5061103461101760016b033b2e3c9fd0803ce8000000611942565b6110209061190a565b60075461102e90600061134c565b90611391565b5060045461104e906b033b2e3c9fd0803ce80000006112fa565b50611076670de0b6b3a76400006110706110678261190a565b600b5490611391565b906113d7565b5061058c670de0b6b3a764000061107061108f8261190a565b600c5490611391565b73ffffffffffffffffffffffffffffffffffffffff81166000908152600183016020526040812054151561078b565b600060026110d583856118ea565b61078b919061199b565b60006b033b2e3c9fd0803ce8000000826110f88561141d565b6110d5919061189e565b600754819081121561111657505060075490565b6006546111229061141d565b82131561112e57506006545b919050565b600080821261114d576111468284611a03565b9050610522565b6111568261190a565b6111469084611942565b6060816000018054806020026020016040519081016040528092919081815260200182805480156111b057602002820191906000526020600020905b81548152602001906001019080831161119c575b50505050509050919050565b600061078b8373ffffffffffffffffffffffffffffffffffffffff8416611459565b60006111e98261141d565b6111f28461141d565b61078b9190611a16565b6000816110d56b033b2e3c9fd0803ce80000008561189e565b6000670de0b6b3a764000061122a8385611955565b61078b9190611a36565b6000670de0b6b3a76400006110d5838561189e565b600061078b8373ffffffffffffffffffffffffffffffffffffffff84166114a8565b600073ffffffffffffffffffffffffffffffffffffffff82166112ba576040517fe99d5ac500000000000000000000000000000000000000000000000000000000815260040160405180910390fd5b5090565b6000816000036112ba576040517fe5a7449000000000000000000000000000000000000000000000000000000000815260040160405180910390fd5b600081831115611345576040517f47df8ef300000000000000000000000000000000000000000000000000000000815260048101849052602481018390526044015b60405180910390fd5b5090919050565b6000818312611345576040517f4697a9d0000000000000000000000000000000000000000000000000000000008152600481018490526024810183905260440161133c565b600081831215611345576040517fed45b901000000000000000000000000000000000000000000000000000000008152600481018490526024810183905260440161133c565b600081831315611345576040517ff1e10ac0000000000000000000000000000000000000000000000000000000008152600481018490526024810183905260440161133c565b80600081121561112e576040517f44dddea200000000000000000000000000000000000000000000000000000000815260040160405180910390fd5b60008181526001830160205260408120546114a057508154600181810184556000848152602080822090930184905584548482528286019093526040902091909155610522565b506000610522565b600081815260018301602052604081205480156115915760006114cc600183611942565b85549091506000906114e090600190611942565b905081811461154557600086600001828154811061150057611500611a4a565b906000526020600020015490508087600001848154811061152357611523611a4a565b6000918252602080832090910192909255918252600188019052604090208390555b855486908061155657611556611a79565b600190038181906000526020600020016000905590558560010160008681526020019081526020016000206000905560019350505050610522565b6000915050610522565b7f4e487b7100000000000000000000000000000000000000000000000000000000600052604160045260246000fd5b600082601f8301126115db57600080fd5b813567ffffffffffffffff808211156115f6576115f661159b565b604051601f83017fffffffffffffffffffffffffffffffffffffffffffffffffffffffffffffffe0908116603f0116810190828211818310171561163c5761163c61159b565b8160405283815286602085880101111561165557600080fd5b836020870160208301376000602085830101528094505050505092915050565b60008060006060848603121561168a57600080fd5b8335925060208401359150604084013567ffffffffffffffff8111156116af57600080fd5b6116bb868287016115ca565b9150509250925092565b600080604083850312156116d857600080fd5b50508035926020909101359150565b6000602082840312156116f957600080fd5b5035919050565b60006020828403121561171257600080fd5b813573ffffffffffffffffffffffffffffffffffffffff8116811461078b57600080fd5b6020808252825182820181905260009190848201906040850190845b8181101561178457835173ffffffffffffffffffffffffffffffffffffffff1683529284019291840191600101611752565b50909695505050505050565b6000806000606084860312156117a557600080fd5b505081359360208301359350604090920135919050565b600080604083850312156117cf57600080fd5b82359150602083013567ffffffffffffffff8111156117ed57600080fd5b6117f9858286016115ca565b9150509250929050565b600060208083528351808285015260005b8181101561183057858101830151858201604001528201611814565b5060006040828601015260407fffffffffffffffffffffffffffffffffffffffffffffffffffffffffffffffe0601f8301168501019250505092915050565b7f4e487b7100000000000000000000000000000000000000000000000000000000600052601160045260246000fd5b808202600082127f8000000000000000000000000000000000000000000000000000000000000000841416156118d6576118d661186f565b81810583148215176105225761052261186f565b8082018281126000831280158216821582161715610b5d57610b5d61186f565b60007f8000000000000000000000000000000000000000000000000000000000000000820361193b5761193b61186f565b5060000390565b818103818111156105225761052261186f565b80820281158282048414176105225761052261186f565b7f4e487b7100000000000000000000000000000000000000000000000000000000600052601260045260246000fd5b6000826119aa576119aa61196c565b7fffffffffffffffffffffffffffffffffffffffffffffffffffffffffffffffff83147f8000000000000000000000000000000000000000000000000000000000000000831416156119fe576119fe61186f565b500590565b808201808211156105225761052261186f565b8181036000831280158383131683831282161715610b5f57610b5f61186f565b600082611a4557611a4561196c565b500490565b7f4e487b7100000000000000000000000000000000000000000000000000000000600052603260045260246000fd5b7f4e487b7100000000000000000000000000000000000000000000000000000000600052603160045260246000fdfea2646970667358221220bc6795071eebabac5a99631714f518be54bf9db74d74e410f6b145ce9ffd5fc164736f6c63430008130033",
    "linkReferences": {}
  },
  "methodIdentifiers": {
    "_controllerGains()": "0c2e314f",
    "_deviationObservation()": "ac87dc0f",
    "_params()": "552b16ab",
    "addAuthorization(address)": "35b28153",
    "authorizedAccounts()": "2e391876",
    "authorizedAccounts(address)": "24ba5884",
    "breaksNoiseBarrier(uint256,uint256)": "c1b80083",
    "computeRate(uint256,uint256)": "3d24d2b0",
    "controllerGains()": "f23bc6d1",
    "deviationObservation()": "16331c76",
    "getBoundedRedemptionRate(int256)": "1f5b3005",
    "getGainAdjustedPIOutput(int256,int256)": "f167a1b8",
    "getGainAdjustedTerms(int256,int256)": "50473b68",
    "getNextDeviationCumulative(int256,uint256)": "14de6a3c",
    "getNextRedemptionRate(uint256,uint256,uint256)": "4635a4f4",
    "modifyParameters(bytes32,bytes)": "da8a4bb8",
    "modifyParameters(bytes32,bytes32,bytes)": "12f33526",
    "params()": "cff0ab96",
    "removeAuthorization(address)": "94f3f81d",
    "seedProposer()": "69cb9945",
    "timeSinceLastUpdate()": "98d4102f"
  },
  "id": 56
}