{
  "abi": [
    {
      "inputs": [
        {
          "internalType": "address",
          "name": "_oracleRelayer",
          "type": "address"
        },
        {
          "internalType": "address",
          "name": "_pidCalculator",
          "type": "address"
        },
        {
          "components": [
            {
              "internalType": "uint256",
              "name": "updateRateDelay",
              "type": "uint256"
            }
          ],
          "internalType": "struct IPIDRateSetter.PIDRateSetterParams",
          "name": "_pidRateSetterParams",
          "type": "tuple"
        }
      ],
      "stateMutability": "nonpayable",
      "type": "constructor"
    },
    {
      "inputs": [],
      "name": "AlreadyAuthorized",
      "type": "error"
    },
    {
      "inputs": [],
      "name": "NotAuthorized",
      "type": "error"
    },
    {
      "inputs": [
        {
          "internalType": "uint256",
          "name": "_x",
          "type": "uint256"
        },
        {
          "internalType": "uint256",
          "name": "_y",
          "type": "uint256"
        }
      ],
      "name": "NotGreaterThan",
      "type": "error"
    },
    {
      "inputs": [],
      "name": "NullAddress",
      "type": "error"
    },
    {
      "inputs": [],
      "name": "PIDRateSetter_InvalidPriceFeed",
      "type": "error"
    },
    {
      "inputs": [],
      "name": "PIDRateSetter_RateSetterCooldown",
      "type": "error"
    },
    {
      "inputs": [],
      "name": "Unauthorized",
      "type": "error"
    },
    {
      "inputs": [],
      "name": "UnrecognizedCType",
      "type": "error"
    },
    {
      "inputs": [],
      "name": "UnrecognizedParam",
      "type": "error"
    },
    {
      "anonymous": false,
      "inputs": [
        {
          "indexed": false,
          "internalType": "address",
          "name": "_account",
          "type": "address"
        }
      ],
      "name": "AddAuthorization",
      "type": "event"
    },
    {
      "anonymous": false,
      "inputs": [
        {
          "indexed": false,
          "internalType": "uint256",
          "name": "_marketPrice",
          "type": "uint256"
        },
        {
          "indexed": false,
          "internalType": "uint256",
          "name": "_redemptionPrice",
          "type": "uint256"
        },
        {
          "indexed": false,
          "internalType": "uint256",
          "name": "_redemptionRate",
          "type": "uint256"
        },
        {
          "indexed": false,
          "internalType": "bytes",
          "name": "_reason",
          "type": "bytes"
        }
      ],
      "name": "FailUpdateRedemptionRate",
      "type": "event"
    },
    {
      "anonymous": false,
      "inputs": [
        {
          "indexed": true,
          "internalType": "bytes32",
          "name": "_param",
          "type": "bytes32"
        },
        {
          "indexed": true,
          "internalType": "bytes32",
          "name": "_cType",
          "type": "bytes32"
        },
        {
          "indexed": false,
          "internalType": "bytes",
          "name": "_data",
          "type": "bytes"
        }
      ],
      "name": "ModifyParameters",
      "type": "event"
    },
    {
      "anonymous": false,
      "inputs": [
        {
          "indexed": false,
          "internalType": "address",
          "name": "_account",
          "type": "address"
        }
      ],
      "name": "RemoveAuthorization",
      "type": "event"
    },
    {
      "anonymous": false,
      "inputs": [
        {
          "indexed": false,
          "internalType": "uint256",
          "name": "_marketPrice",
          "type": "uint256"
        },
        {
          "indexed": false,
          "internalType": "uint256",
          "name": "_redemptionPrice",
          "type": "uint256"
        },
        {
          "indexed": false,
          "internalType": "uint256",
          "name": "_redemptionRate",
          "type": "uint256"
        }
      ],
      "name": "UpdateRedemptionRate",
      "type": "event"
    },
    {
      "inputs": [],
      "name": "_params",
      "outputs": [
        {
          "internalType": "uint256",
          "name": "updateRateDelay",
          "type": "uint256"
        }
      ],
      "stateMutability": "view",
      "type": "function"
    },
    {
      "inputs": [
        {
          "internalType": "address",
          "name": "_account",
          "type": "address"
        }
      ],
      "name": "addAuthorization",
      "outputs": [],
      "stateMutability": "nonpayable",
      "type": "function"
    },
    {
      "inputs": [
        {
          "internalType": "address",
          "name": "_account",
          "type": "address"
        }
      ],
      "name": "authorizedAccounts",
      "outputs": [
        {
          "internalType": "bool",
          "name": "_authorized",
          "type": "bool"
        }
      ],
      "stateMutability": "view",
      "type": "function"
    },
    {
      "inputs": [],
      "name": "authorizedAccounts",
      "outputs": [
        {
          "internalType": "address[]",
          "name": "_accounts",
          "type": "address[]"
        }
      ],
      "stateMutability": "view",
      "type": "function"
    },
    {
      "inputs": [],
      "name": "lastUpdateTime",
      "outputs": [
        {
          "internalType": "uint256",
          "name": "",
          "type": "uint256"
        }
      ],
      "stateMutability": "view",
      "type": "function"
    },
    {
      "inputs": [
        {
          "internalType": "bytes32",
          "name": "_cType",
          "type": "bytes32"
        },
        {
          "internalType": "bytes32",
          "name": "_param",
          "type": "bytes32"
        },
        {
          "internalType": "bytes",
          "name": "_data",
          "type": "bytes"
        }
      ],
      "name": "modifyParameters",
      "outputs": [],
      "stateMutability": "nonpayable",
      "type": "function"
    },
    {
      "inputs": [
        {
          "internalType": "bytes32",
          "name": "_param",
          "type": "bytes32"
        },
        {
          "internalType": "bytes",
          "name": "_data",
          "type": "bytes"
        }
      ],
      "name": "modifyParameters",
      "outputs": [],
      "stateMutability": "nonpayable",
      "type": "function"
    },
    {
      "inputs": [],
      "name": "oracleRelayer",
      "outputs": [
        {
          "internalType": "contract IOracleRelayer",
          "name": "",
          "type": "address"
        }
      ],
      "stateMutability": "view",
      "type": "function"
    },
    {
      "inputs": [],
      "name": "params",
      "outputs": [
        {
          "components": [
            {
              "internalType": "uint256",
              "name": "updateRateDelay",
              "type": "uint256"
            }
          ],
          "internalType": "struct IPIDRateSetter.PIDRateSetterParams",
          "name": "_pidRateSetterParams",
          "type": "tuple"
        }
      ],
      "stateMutability": "view",
      "type": "function"
    },
    {
      "inputs": [],
      "name": "pidCalculator",
      "outputs": [
        {
          "internalType": "contract IPIDController",
          "name": "",
          "type": "address"
        }
      ],
      "stateMutability": "view",
      "type": "function"
    },
    {
      "inputs": [
        {
          "internalType": "address",
          "name": "_account",
          "type": "address"
        }
      ],
      "name": "removeAuthorization",
      "outputs": [],
      "stateMutability": "nonpayable",
      "type": "function"
    },
    {
      "inputs": [],
      "name": "updateRate",
      "outputs": [],
      "stateMutability": "nonpayable",
      "type": "function"
    }
  ],
  "bytecode": {
    "object": "0x60806040523480156200001157600080fd5b50604051620012703803806200127083398101604081905262000034916200022c565b33620000408162000089565b50600280546001600160a01b038086166001600160a01b0319928316179092556003805492851692909116919091179055805160045562000080620000f7565b505050620002b9565b6200009660008262000137565b15620000db576040516001600160a01b03821681527f599a298163e1678bb1c676052a8930bf0b8a1261ed6e01b8a2391e55f70001029060200160405180910390a150565b604051633013e93f60e11b815260040160405180910390fd5b50565b6004546200010790600062000157565b506002546200011f906001600160a01b03166200018f565b50600354620000f4906001600160a01b03166200018f565b60006200014e836001600160a01b038416620001bd565b90505b92915050565b6000818311620001885760405163130ac85760e21b8152600481018490526024810183905260440160405180910390fd5b5090919050565b60006001600160a01b038216620001b95760405163e99d5ac560e01b815260040160405180910390fd5b5090565b6000818152600183016020526040812054620002065750815460018181018455600084815260208082209093018490558454848252828601909352604090209190915562000151565b50600062000151565b80516001600160a01b03811681146200022757600080fd5b919050565b600080600083850360608112156200024357600080fd5b6200024e856200020f565b93506200025e602086016200020f565b92506020603f19820112156200027357600080fd5b50604051602081016001600160401b0381118282101715620002a557634e487b7160e01b600052604160045260246000fd5b604090815294909401518452509093909250565b610fa780620002c96000396000f3fe608060405234801561001057600080fd5b50600436106100d45760003560e01c8063552b16ab11610081578063c8f33c911161005b578063c8f33c91146101d6578063cff0ab96146101df578063da8a4bb81461020857600080fd5b8063552b16ab146101a357806394f3f81d146101bb578063c7fee63e146101ce57600080fd5b806335b28153116100b257806335b281531461012b578063448a26381461013e5780634faf61ab1461018357600080fd5b806312f33526146100d957806324ba5884146100ee5780632e39187614610116575b600080fd5b6100ec6100e7366004610d2d565b61021b565b005b6101016100fc366004610d7d565b6102a6565b60405190151581526020015b60405180910390f35b61011e6102b7565b60405161010d9190610db3565b6100ec610139366004610d7d565b6102c8565b60035461015e9073ffffffffffffffffffffffffffffffffffffffff1681565b60405173ffffffffffffffffffffffffffffffffffffffff909116815260200161010d565b60025461015e9073ffffffffffffffffffffffffffffffffffffffff1681565b6004546101ad9081565b60405190815260200161010d565b6100ec6101c9366004610d7d565b610313565b6100ec61035b565b6101ad60055481565b60408051602080820183526000909152815180820183526004549081905291519182520161010d565b6100ec610216366004610e0d565b610638565b610224336106c9565b61025a576040517f82b4290000000000000000000000000000000000000000000000000000000000815260040160405180910390fd5b826102668484846106f6565b83837fe436a8be7dc6aab90b400800ecc86e46fb600f2e18989b5d0389840fdabbf2ed846040516102979190610e54565b60405180910390a35b50505050565b60006102b1826106c9565b92915050565b60606102c36000610728565b905090565b6102d1336106c9565b610307576040517f82b4290000000000000000000000000000000000000000000000000000000000815260040160405180910390fd5b6103108161073c565b50565b61031c336106c9565b610352576040517f82b4290000000000000000000000000000000000000000000000000000000000815260040160405180910390fd5b610310816107cb565b60045460055461036b9042610ec0565b10156103a3576040517f72606dd200000000000000000000000000000000000000000000000000000000815260040160405180910390fd5b600254604080517f45a15388000000000000000000000000000000000000000000000000000000008152905160009273ffffffffffffffffffffffffffffffffffffffff16916345a153889160048083019260209291908290030181865afa158015610413573d6000803e3d6000fd5b505050506040513d601f19601f820116820180604052508101906104379190610efa565b905080600003610473576040517fe24dbf0400000000000000000000000000000000000000000000000000000000815260040160405180910390fd5b600254604080517fc5b748c0000000000000000000000000000000000000000000000000000000008152905160009273ffffffffffffffffffffffffffffffffffffffff169163c5b748c0916004808301926020929190829003018187875af11580156104e4573d6000803e3d6000fd5b505050506040513d601f19601f820116820180604052508101906105089190610efa565b6003546040517f3d24d2b0000000000000000000000000000000000000000000000000000000008152600481018590526024810183905291925060009173ffffffffffffffffffffffffffffffffffffffff90911690633d24d2b0906044016020604051808303816000875af1158015610586573d6000803e3d6000fd5b505050506040513d601f19601f820116820180604052508101906105aa9190610efa565b426005556002546040517f9a0976280000000000000000000000000000000000000000000000000000000081526004810183905291925073ffffffffffffffffffffffffffffffffffffffff1690639a09762890602401600060405180830381600087803b15801561061b57600080fd5b505af115801561062f573d6000803e3d6000fd5b50505050505050565b610641336106c9565b610677576040517f82b4290000000000000000000000000000000000000000000000000000000000815260040160405180910390fd5b6106818282610853565b6000801b827fe436a8be7dc6aab90b400800ecc86e46fb600f2e18989b5d0389840fdabbf2ed836040516106b59190610e54565b60405180910390a36106c561097a565b5050565b73ffffffffffffffffffffffffffffffffffffffff811660009081526001602052604081205415156102b1565b6040517f9d2ff48000000000000000000000000000000000000000000000000000000000815260040160405180910390fd5b60606000610735836109ce565b9392505050565b610747600082610a2a565b156107995760405173ffffffffffffffffffffffffffffffffffffffff821681527f599a298163e1678bb1c676052a8930bf0b8a1261ed6e01b8a2391e55f7000102906020015b60405180910390a150565b6040517f6027d27e00000000000000000000000000000000000000000000000000000000815260040160405180910390fd5b6107d6600082610a4c565b156108215760405173ffffffffffffffffffffffffffffffffffffffff821681527f8834a87e641e9716be4f34527af5d23e11624f1ddeefede6ad75a9acfc31b9039060200161078e565b6040517fea8e4eb500000000000000000000000000000000000000000000000000000000815260040160405180910390fd5b6000610860826020015190565b9050600061086f836020015190565b9050837f6f7261636c6552656c6179657200000000000000000000000000000000000000036108dd57600280547fffffffffffffffffffffffff00000000000000000000000000000000000000001673ffffffffffffffffffffffffffffffffffffffff84161790556102a0565b837f70696443616c63756c61746f72000000000000000000000000000000000000000361094957600380547fffffffffffffffffffffffff00000000000000000000000000000000000000001673ffffffffffffffffffffffffffffffffffffffff84161790556102a0565b837f7570646174655261746544656c61790000000000000000000000000000000000036106f65760048190556102a0565b600454610988906000610a6e565b506002546109ab9073ffffffffffffffffffffffffffffffffffffffff16610abe565b506003546103109073ffffffffffffffffffffffffffffffffffffffff16610abe565b606081600001805480602002602001604051908101604052809291908181526020018280548015610a1e57602002820191906000526020600020905b815481526020019060010190808311610a0a575b50505050509050919050565b60006107358373ffffffffffffffffffffffffffffffffffffffff8416610b11565b60006107358373ffffffffffffffffffffffffffffffffffffffff8416610b60565b6000818311610ab7576040517f4c2b215c000000000000000000000000000000000000000000000000000000008152600481018490526024810183905260440160405180910390fd5b5090919050565b600073ffffffffffffffffffffffffffffffffffffffff8216610b0d576040517fe99d5ac500000000000000000000000000000000000000000000000000000000815260040160405180910390fd5b5090565b6000818152600183016020526040812054610b58575081546001818101845560008481526020808220909301849055845484825282860190935260409020919091556102b1565b5060006102b1565b60008181526001830160205260408120548015610c49576000610b84600183610ec0565b8554909150600090610b9890600190610ec0565b9050818114610bfd576000866000018281548110610bb857610bb8610f13565b9060005260206000200154905080876000018481548110610bdb57610bdb610f13565b6000918252602080832090910192909255918252600188019052604090208390555b8554869080610c0e57610c0e610f42565b6001900381819060005260206000200160009055905585600101600086815260200190815260200160002060009055600193505050506102b1565b60009150506102b1565b7f4e487b7100000000000000000000000000000000000000000000000000000000600052604160045260246000fd5b600082601f830112610c9357600080fd5b813567ffffffffffffffff80821115610cae57610cae610c53565b604051601f83017fffffffffffffffffffffffffffffffffffffffffffffffffffffffffffffffe0908116603f01168101908282118183101715610cf457610cf4610c53565b81604052838152866020858801011115610d0d57600080fd5b836020870160208301376000602085830101528094505050505092915050565b600080600060608486031215610d4257600080fd5b8335925060208401359150604084013567ffffffffffffffff811115610d6757600080fd5b610d7386828701610c82565b9150509250925092565b600060208284031215610d8f57600080fd5b813573ffffffffffffffffffffffffffffffffffffffff8116811461073557600080fd5b6020808252825182820181905260009190848201906040850190845b81811015610e0157835173ffffffffffffffffffffffffffffffffffffffff1683529284019291840191600101610dcf565b50909695505050505050565b60008060408385031215610e2057600080fd5b82359150602083013567ffffffffffffffff811115610e3e57600080fd5b610e4a85828601610c82565b9150509250929050565b600060208083528351808285015260005b81811015610e8157858101830151858201604001528201610e65565b5060006040828601015260407fffffffffffffffffffffffffffffffffffffffffffffffffffffffffffffffe0601f8301168501019250505092915050565b818103818111156102b1577f4e487b7100000000000000000000000000000000000000000000000000000000600052601160045260246000fd5b600060208284031215610f0c57600080fd5b5051919050565b7f4e487b7100000000000000000000000000000000000000000000000000000000600052603260045260246000fd5b7f4e487b7100000000000000000000000000000000000000000000000000000000600052603160045260246000fdfea2646970667358221220b8c05dfd50046b86fe2feaeed2cee43b2a9f5a289577a528dae2ac50163ef98e64736f6c63430008130033",
    "linkReferences": {}
  },
  "methodIdentifiers": {
    "_params()": "552b16ab",
    "addAuthorization(address)": "35b28153",
    "authorizedAccounts()": "2e391876",
    "authorizedAccounts(address)": "24ba5884",
    "lastUpdateTime()": "c8f33c91",
    "modifyParameters(bytes32,bytes)": "da8a4bb8",
    "modifyParameters(bytes32,bytes32,bytes)": "12f33526",
    "oracleRelayer()": "4faf61ab",
    "params()": "cff0ab96",
    "pidCalculator()": "448a2638",
    "removeAuthorization(address)": "94f3f81d",
    "updateRate()": "c7fee63e"
  },
  "id": 57
}