{
  "abi": [
    {
      "inputs": [
        {
          "internalType": "address",
          "name": "_safeEngine",
          "type": "address"
        },
        {
          "internalType": "address",
          "name": "_protocolToken",
          "type": "address"
        },
        {
          "components": [
            {
              "internalType": "uint256",
              "name": "bidIncrease",
              "type": "uint256"
            },
            {
              "internalType": "uint256",
              "name": "bidDuration",
              "type": "uint256"
            },
            {
              "internalType": "uint256",
              "name": "totalAuctionLength",
              "type": "uint256"
            }
          ],
          "internalType": "struct IPostSettlementSurplusAuctionHouse.PostSettlementSAHParams",
          "name": "_pssahParams",
          "type": "tuple"
        }
      ],
      "stateMutability": "nonpayable",
      "type": "constructor"
    },
    {
      "inputs": [],
      "name": "AlreadyAuthorized",
      "type": "error"
    },
    {
      "inputs": [],
      "name": "NotAuthorized",
      "type": "error"
    },
    {
      "inputs": [],
      "name": "NullAddress",
      "type": "error"
    },
    {
      "inputs": [],
      "name": "PSSAH_AmountsNotMatching",
      "type": "error"
    },
    {
      "inputs": [],
      "name": "PSSAH_AuctionAlreadyExpired",
      "type": "error"
    },
    {
      "inputs": [],
      "name": "PSSAH_AuctionNeverStarted",
      "type": "error"
    },
    {
      "inputs": [],
      "name": "PSSAH_AuctionNotFinished",
      "type": "error"
    },
    {
      "inputs": [],
      "name": "PSSAH_BidAlreadyExpired",
      "type": "error"
    },
    {
      "inputs": [],
      "name": "PSSAH_BidAlreadyPlaced",
      "type": "error"
    },
    {
      "inputs": [],
      "name": "PSSAH_BidNotHigher",
      "type": "error"
    },
    {
      "inputs": [],
      "name": "PSSAH_HighBidderNotSet",
      "type": "error"
    },
    {
      "inputs": [],
      "name": "PSSAH_InsufficientIncrease",
      "type": "error"
    },
    {
      "inputs": [],
      "name": "Unauthorized",
      "type": "error"
    },
    {
      "inputs": [],
      "name": "UnrecognizedCType",
      "type": "error"
    },
    {
      "inputs": [],
      "name": "UnrecognizedParam",
      "type": "error"
    },
    {
      "anonymous": false,
      "inputs": [
        {
          "indexed": false,
          "internalType": "address",
          "name": "_account",
          "type": "address"
        }
      ],
      "name": "AddAuthorization",
      "type": "event"
    },
    {
      "anonymous": false,
      "inputs": [
        {
          "indexed": true,
          "internalType": "uint256",
          "name": "_id",
          "type": "uint256"
        },
        {
          "indexed": false,
          "internalType": "address",
          "name": "_bidder",
          "type": "address"
        },
        {
          "indexed": false,
          "internalType": "uint256",
          "name": "_blockTimestamp",
          "type": "uint256"
        },
        {
          "indexed": false,
          "internalType": "uint256",
          "name": "_raisedAmount",
          "type": "uint256"
        },
        {
          "indexed": false,
          "internalType": "uint256",
          "name": "_soldAmount",
          "type": "uint256"
        },
        {
          "indexed": false,
          "internalType": "uint256",
          "name": "_bidExpiry",
          "type": "uint256"
        }
      ],
      "name": "IncreaseBidSize",
      "type": "event"
    },
    {
      "anonymous": false,
      "inputs": [
        {
          "indexed": true,
          "internalType": "bytes32",
          "name": "_param",
          "type": "bytes32"
        },
        {
          "indexed": true,
          "internalType": "bytes32",
          "name": "_cType",
          "type": "bytes32"
        },
        {
          "indexed": false,
          "internalType": "bytes",
          "name": "_data",
          "type": "bytes"
        }
      ],
      "name": "ModifyParameters",
      "type": "event"
    },
    {
      "anonymous": false,
      "inputs": [
        {
          "indexed": false,
          "internalType": "address",
          "name": "_account",
          "type": "address"
        }
      ],
      "name": "RemoveAuthorization",
      "type": "event"
    },
    {
      "anonymous": false,
      "inputs": [
        {
          "indexed": true,
          "internalType": "uint256",
          "name": "_id",
          "type": "uint256"
        },
        {
          "indexed": false,
          "internalType": "uint256",
          "name": "_blockTimestamp",
          "type": "uint256"
        },
        {
          "indexed": false,
          "internalType": "uint256",
          "name": "_auctionDeadline",
          "type": "uint256"
        }
      ],
      "name": "RestartAuction",
      "type": "event"
    },
    {
      "anonymous": false,
      "inputs": [
        {
          "indexed": true,
          "internalType": "uint256",
          "name": "_id",
          "type": "uint256"
        },
        {
          "indexed": false,
          "internalType": "uint256",
          "name": "_blockTimestamp",
          "type": "uint256"
        },
        {
          "indexed": false,
          "internalType": "address",
          "name": "_highBidder",
          "type": "address"
        },
        {
          "indexed": false,
          "internalType": "uint256",
          "name": "_raisedAmount",
          "type": "uint256"
        }
      ],
      "name": "SettleAuction",
      "type": "event"
    },
    {
      "anonymous": false,
      "inputs": [
        {
          "indexed": true,
          "internalType": "uint256",
          "name": "_id",
          "type": "uint256"
        },
        {
          "indexed": false,
          "internalType": "uint256",
          "name": "_blockTimestamp",
          "type": "uint256"
        },
        {
          "indexed": false,
          "internalType": "uint256",
          "name": "_amountToSell",
          "type": "uint256"
        },
        {
          "indexed": false,
          "internalType": "uint256",
          "name": "_amountToRaise",
          "type": "uint256"
        },
        {
          "indexed": false,
          "internalType": "uint256",
          "name": "_auctionDeadline",
          "type": "uint256"
        }
      ],
      "name": "StartAuction",
      "type": "event"
    },
    {
      "inputs": [],
      "name": "AUCTION_HOUSE_TYPE",
      "outputs": [
        {
          "internalType": "bytes32",
          "name": "",
          "type": "bytes32"
        }
      ],
      "stateMutability": "view",
      "type": "function"
    },
    {
      "inputs": [],
      "name": "SURPLUS_AUCTION_TYPE",
      "outputs": [
        {
          "internalType": "bytes32",
          "name": "",
          "type": "bytes32"
        }
      ],
      "stateMutability": "view",
      "type": "function"
    },
    {
      "inputs": [
        {
          "internalType": "uint256",
          "name": "",
          "type": "uint256"
        }
      ],
      "name": "_auctions",
      "outputs": [
        {
          "internalType": "uint256",
          "name": "bidAmount",
          "type": "uint256"
        },
        {
          "internalType": "uint256",
          "name": "amountToSell",
          "type": "uint256"
        },
        {
          "internalType": "address",
          "name": "highBidder",
          "type": "address"
        },
        {
          "internalType": "uint256",
          "name": "bidExpiry",
          "type": "uint256"
        },
        {
          "internalType": "uint256",
          "name": "auctionDeadline",
          "type": "uint256"
        }
      ],
      "stateMutability": "view",
      "type": "function"
    },
    {
      "inputs": [],
      "name": "_params",
      "outputs": [
        {
          "internalType": "uint256",
          "name": "bidIncrease",
          "type": "uint256"
        },
        {
          "internalType": "uint256",
          "name": "bidDuration",
          "type": "uint256"
        },
        {
          "internalType": "uint256",
          "name": "totalAuctionLength",
          "type": "uint256"
        }
      ],
      "stateMutability": "view",
      "type": "function"
    },
    {
      "inputs": [
        {
          "internalType": "address",
          "name": "_account",
          "type": "address"
        }
      ],
      "name": "addAuthorization",
      "outputs": [],
      "stateMutability": "nonpayable",
      "type": "function"
    },
    {
      "inputs": [
        {
          "internalType": "uint256",
          "name": "_id",
          "type": "uint256"
        }
      ],
      "name": "auctions",
      "outputs": [
        {
          "components": [
            {
              "internalType": "uint256",
              "name": "bidAmount",
              "type": "uint256"
            },
            {
              "internalType": "uint256",
              "name": "amountToSell",
              "type": "uint256"
            },
            {
              "internalType": "address",
              "name": "highBidder",
              "type": "address"
            },
            {
              "internalType": "uint256",
              "name": "bidExpiry",
              "type": "uint256"
            },
            {
              "internalType": "uint256",
              "name": "auctionDeadline",
              "type": "uint256"
            }
          ],
          "internalType": "struct IPostSettlementSurplusAuctionHouse.Auction",
          "name": "_auction",
          "type": "tuple"
        }
      ],
      "stateMutability": "view",
      "type": "function"
    },
    {
      "inputs": [],
      "name": "auctionsStarted",
      "outputs": [
        {
          "internalType": "uint256",
          "name": "",
          "type": "uint256"
        }
      ],
      "stateMutability": "view",
      "type": "function"
    },
    {
      "inputs": [
        {
          "internalType": "address",
          "name": "_account",
          "type": "address"
        }
      ],
      "name": "authorizedAccounts",
      "outputs": [
        {
          "internalType": "bool",
          "name": "_authorized",
          "type": "bool"
        }
      ],
      "stateMutability": "view",
      "type": "function"
    },
    {
      "inputs": [],
      "name": "authorizedAccounts",
      "outputs": [
        {
          "internalType": "address[]",
          "name": "_accounts",
          "type": "address[]"
        }
      ],
      "stateMutability": "view",
      "type": "function"
    },
    {
      "inputs": [
        {
          "internalType": "uint256",
          "name": "_id",
          "type": "uint256"
        },
        {
          "internalType": "uint256",
          "name": "_amountToBuy",
          "type": "uint256"
        },
        {
          "internalType": "uint256",
          "name": "_bid",
          "type": "uint256"
        }
      ],
      "name": "increaseBidSize",
      "outputs": [],
      "stateMutability": "nonpayable",
      "type": "function"
    },
    {
      "inputs": [
        {
          "internalType": "bytes32",
          "name": "_cType",
          "type": "bytes32"
        },
        {
          "internalType": "bytes32",
          "name": "_param",
          "type": "bytes32"
        },
        {
          "internalType": "bytes",
          "name": "_data",
          "type": "bytes"
        }
      ],
      "name": "modifyParameters",
      "outputs": [],
      "stateMutability": "nonpayable",
      "type": "function"
    },
    {
      "inputs": [
        {
          "internalType": "bytes32",
          "name": "_param",
          "type": "bytes32"
        },
        {
          "internalType": "bytes",
          "name": "_data",
          "type": "bytes"
        }
      ],
      "name": "modifyParameters",
      "outputs": [],
      "stateMutability": "nonpayable",
      "type": "function"
    },
    {
      "inputs": [],
      "name": "params",
      "outputs": [
        {
          "components": [
            {
              "internalType": "uint256",
              "name": "bidIncrease",
              "type": "uint256"
            },
            {
              "internalType": "uint256",
              "name": "bidDuration",
              "type": "uint256"
            },
            {
              "internalType": "uint256",
              "name": "totalAuctionLength",
              "type": "uint256"
            }
          ],
          "internalType": "struct IPostSettlementSurplusAuctionHouse.PostSettlementSAHParams",
          "name": "_pssahParams",
          "type": "tuple"
        }
      ],
      "stateMutability": "view",
      "type": "function"
    },
    {
      "inputs": [],
      "name": "protocolToken",
      "outputs": [
        {
          "internalType": "contract IProtocolToken",
          "name": "",
          "type": "address"
        }
      ],
      "stateMutability": "view",
      "type": "function"
    },
    {
      "inputs": [
        {
          "internalType": "address",
          "name": "_account",
          "type": "address"
        }
      ],
      "name": "removeAuthorization",
      "outputs": [],
      "stateMutability": "nonpayable",
      "type": "function"
    },
    {
      "inputs": [
        {
          "internalType": "uint256",
          "name": "_id",
          "type": "uint256"
        }
      ],
      "name": "restartAuction",
      "outputs": [],
      "stateMutability": "nonpayable",
      "type": "function"
    },
    {
      "inputs": [],
      "name": "safeEngine",
      "outputs": [
        {
          "internalType": "contract ISAFEEngine",
          "name": "",
          "type": "address"
        }
      ],
      "stateMutability": "view",
      "type": "function"
    },
    {
      "inputs": [
        {
          "internalType": "uint256",
          "name": "_id",
          "type": "uint256"
        }
      ],
      "name": "settleAuction",
      "outputs": [],
      "stateMutability": "nonpayable",
      "type": "function"
    },
    {
      "inputs": [
        {
          "internalType": "uint256",
          "name": "_amountToSell",
          "type": "uint256"
        },
        {
          "internalType": "uint256",
          "name": "_initialBid",
          "type": "uint256"
        }
      ],
      "name": "startAuction",
      "outputs": [
        {
          "internalType": "uint256",
          "name": "_id",
          "type": "uint256"
        }
      ],
      "stateMutability": "nonpayable",
      "type": "function"
    }
  ],
  "bytecode": {
    "object": "0x60806040523480156200001157600080fd5b5060405162001f5a38038062001f5a8339810160408190526200003491620001ee565b336200004081620000ac565b50620000556001600160a01b0384166200011a565b600480546001600160a01b03199081166001600160a01b039384161790915560058054909116918416919091179055805160065560208101516007556040810151600855620000a362000148565b50505062000292565b620000b96000826200015f565b15620000fe576040516001600160a01b03821681527f599a298163e1678bb1c676052a8930bf0b8a1261ed6e01b8a2391e55f70001029060200160405180910390a150565b604051633013e93f60e11b815260040160405180910390fd5b50565b60006001600160a01b038216620001445760405163e99d5ac560e01b815260040160405180910390fd5b5090565b60055462000117906001600160a01b03166200011a565b600062000176836001600160a01b0384166200017f565b90505b92915050565b6000818152600183016020526040812054620001c85750815460018181018455600084815260208082209093018490558454848252828601909352604090209190915562000179565b50600062000179565b80516001600160a01b0381168114620001e957600080fd5b919050565b600080600083850360a08112156200020557600080fd5b6200021085620001d1565b93506200022060208601620001d1565b92506060603f19820112156200023557600080fd5b50604051606081016001600160401b03811182821017156200026757634e487b7160e01b600052604160045260246000fd5b8060405250604085015181526060850151602082015260808501516040820152809150509250925092565b611cb880620002a26000396000f3fe608060405234801561001057600080fd5b50600436106101515760003560e01c8063551cb3b1116100cd57806367aea31311610081578063cff0ab9611610066578063cff0ab9614610400578063d25ccf531461042a578063da8a4bb81461043d57600080fd5b806367aea313146103cd57806394f3f81d146103ed57600080fd5b8063571a26a0116100b2578063571a26a0146103285780635a93f03114610393578063619ed1f8146103a657600080fd5b8063551cb3b1146102f2578063552b16ab146102fb57600080fd5b806324ba5884116101245780632e993611116101095780632e993611146102b957806335b28153146102cc5780634fee13fc146102df57600080fd5b806324ba5884146102815780632e391876146102a457600080fd5b80631266fb941461015657806312f335261461019057806317dc6bf6146101a55780631a465fe11461023c575b600080fd5b61017d7f535552504c55530000000000000000000000000000000000000000000000000081565b6040519081526020015b60405180910390f35b6101a361019e366004611933565b610450565b005b6101f96101b3366004611983565b60026020819052600091825260409091208054600182015492820154600383015460049093015491939273ffffffffffffffffffffffffffffffffffffffff9091169185565b60408051958652602086019490945273ffffffffffffffffffffffffffffffffffffffff909216928401929092526060830191909152608082015260a001610187565b60055461025c9073ffffffffffffffffffffffffffffffffffffffff1681565b60405173ffffffffffffffffffffffffffffffffffffffff9091168152602001610187565b61029461028f36600461199c565b6104db565b6040519015158152602001610187565b6102ac6104ec565b60405161018791906119d2565b6101a36102c7366004611983565b6104fd565b6101a36102da36600461199c565b61078b565b61017d6102ed366004611a2c565b6107d6565b61017d60035481565b60065460075460085461030d92919083565b60408051938452602084019290925290820152606001610187565b61033b610336366004611983565b6109cf565b6040516101879190600060a082019050825182526020830151602083015273ffffffffffffffffffffffffffffffffffffffff6040840151166040830152606083015160608301526080830151608083015292915050565b6101a36103a1366004611a4e565b610a79565b61017d7f504f53542d534554544c454d454e54000000000000000000000000000000000081565b60045461025c9073ffffffffffffffffffffffffffffffffffffffff1681565b6101a36103fb36600461199c565b610d59565b610408610da1565b6040805182518152602080840151908201529181015190820152606001610187565b6101a3610438366004611983565b610dea565b6101a361044b366004611a7a565b610f10565b61045933610fa1565b61048f576040517f82b4290000000000000000000000000000000000000000000000000000000000815260040160405180910390fd5b8261049b848484610fce565b83837fe436a8be7dc6aab90b400800ecc86e46fb600f2e18989b5d0389840fdabbf2ed846040516104cc9190611b2f565b60405180910390a35b50505050565b60006104e682610fa1565b92915050565b60606104f86000611000565b905090565b600081815260026020818152604092839020835160a081018552815481526001820154928101929092529182015473ffffffffffffffffffffffffffffffffffffffff16928101929092526003810154606083018190526004909101546080830152158061057c575042816060015111801561057c5750428160800151115b156105b3576040517f214cc90600000000000000000000000000000000000000000000000000000000815260040160405180910390fd5b60048054604083810151602085015191517fefabcadc000000000000000000000000000000000000000000000000000000008152309481019490945273ffffffffffffffffffffffffffffffffffffffff90811660248501526044840191909152169063efabcadc90606401600060405180830381600087803b15801561063957600080fd5b505af115801561064d573d6000803e3d6000fd5b505060055483516040517f42966c6800000000000000000000000000000000000000000000000000000000815273ffffffffffffffffffffffffffffffffffffffff90921693506342966c6892506106ab9160040190815260200190565b600060405180830381600087803b1580156106c557600080fd5b505af11580156106d9573d6000803e3d6000fd5b505050506040818101518251825142815273ffffffffffffffffffffffffffffffffffffffff909216602083015281830152905183917fce605a43280ed04bb2cf4231276a425e3650af62821a5e1f0c8daf63beba6c34919081900360600190a250600090815260026020819052604082208281556001810183905590810180547fffffffffffffffffffffffff00000000000000000000000000000000000000001690556003810182905560040155565b61079433610fa1565b6107ca576040517f82b4290000000000000000000000000000000000000000000000000000000000815260040160405180910390fd5b6107d381611014565b50565b60006107e133610fa1565b610817576040517f82b4290000000000000000000000000000000000000000000000000000000000815260040160405180910390fd5b60036000815461082690611b71565b91905081905590506040518060a001604052808381526020018481526020013373ffffffffffffffffffffffffffffffffffffffff16815260200160008152602001600660020154426108799190611ba9565b9052600082815260026020818152604092839020845181559084015160018201558383015191810180547fffffffffffffffffffffffff00000000000000000000000000000000000000001673ffffffffffffffffffffffffffffffffffffffff93841617905560608401516003820155608090930151600493840155825491517fefabcadc000000000000000000000000000000000000000000000000000000008152339381019390935230602484015260448301869052169063efabcadc90606401600060405180830381600087803b15801561095757600080fd5b505af115801561096b573d6000803e3d6000fd5b505050600082815260026020908152604091829020600401548251428152918201879052818301869052606082015290518392507fa4863af70e77aecfe2769e0569806782ba7c6f86fc9a307290a3816fb8a563e59181900360800190a292915050565b610a176040518060a001604052806000815260200160008152602001600073ffffffffffffffffffffffffffffffffffffffff16815260200160008152602001600081525090565b50600090815260026020818152604092839020835160a081018552815481526001820154928101929092529182015473ffffffffffffffffffffffffffffffffffffffff16928101929092526003810154606083015260040154608082015290565b60008381526002602081905260409091209081015473ffffffffffffffffffffffffffffffffffffffff16610ada576040517fbfea788900000000000000000000000000000000000000000000000000000000815260040160405180910390fd5b42816003015411158015610af15750600381015415155b15610b28576040517fd454907d00000000000000000000000000000000000000000000000000000000815260040160405180910390fd5b42816004015411610b65576040517f1621d28200000000000000000000000000000000000000000000000000000000815260040160405180910390fd5b80600101548314610ba2576040517f4f4f29e500000000000000000000000000000000000000000000000000000000815260040160405180910390fd5b80548211610bdc576040517f4457289a00000000000000000000000000000000000000000000000000000000815260040160405180910390fd5b8054600654610beb9190611bbc565b610bfd670de0b6b3a764000084611bbc565b1015610c35576040517f46cf3c7000000000000000000000000000000000000000000000000000000000815260040160405180910390fd5b600281015473ffffffffffffffffffffffffffffffffffffffff163314610cb55760028101548154600554610c889273ffffffffffffffffffffffffffffffffffffffff918216923392909116906110a3565b6002810180547fffffffffffffffffffffffff000000000000000000000000000000000000000016331790555b610ceb3330836000015485610cca9190611bd3565b60055473ffffffffffffffffffffffffffffffffffffffff169291906110a3565b818155600754610cfb9042611ba9565b600382018190556040805133815242602082015290810184905260608101859052608081019190915284907fbabed4bc302f25a2be9c3286529806aca3c81480ba4b26ee5512277c996e18e99060a00160405180910390a250505050565b610d6233610fa1565b610d98576040517f82b4290000000000000000000000000000000000000000000000000000000000815260040160405180910390fd5b6107d381611138565b610dc560405180606001604052806000815260200160008152602001600081525090565b5060408051606081018252600654815260075460208201526008549181019190915290565b801580610df8575060035481115b15610e2f576040517fed1c4e4800000000000000000000000000000000000000000000000000000000815260040160405180910390fd5b60008181526002602052604090206004810154421015610e7b576040517f214cc90600000000000000000000000000000000000000000000000000000000815260040160405180910390fd5b600381015415610eb7576040517fdef7aa4d00000000000000000000000000000000000000000000000000000000815260040160405180910390fd5b600854610ec49042611ba9565b6004820181905560405183917f52926b7e2fb12434af05e0b5e28d2b857fc6a23d92f7d7b8ebc6ec6b0fb4419e91610f0491428252602082015260400190565b60405180910390a25050565b610f1933610fa1565b610f4f576040517f82b4290000000000000000000000000000000000000000000000000000000000815260040160405180910390fd5b610f5982826111c0565b6000801b827fe436a8be7dc6aab90b400800ecc86e46fb600f2e18989b5d0389840fdabbf2ed83604051610f8d9190611b2f565b60405180910390a3610f9d6112dd565b5050565b73ffffffffffffffffffffffffffffffffffffffff811660009081526001602052604081205415156104e6565b6040517f9d2ff48000000000000000000000000000000000000000000000000000000000815260040160405180910390fd5b6060600061100d836112ff565b9392505050565b61101f60008261135b565b156110715760405173ffffffffffffffffffffffffffffffffffffffff821681527f599a298163e1678bb1c676052a8930bf0b8a1261ed6e01b8a2391e55f7000102906020015b60405180910390a150565b6040517f6027d27e00000000000000000000000000000000000000000000000000000000815260040160405180910390fd5b6040805173ffffffffffffffffffffffffffffffffffffffff85811660248301528416604482015260648082018490528251808303909101815260849091019091526020810180517bffffffffffffffffffffffffffffffffffffffffffffffffffffffff167f23b872dd000000000000000000000000000000000000000000000000000000001790526104d590859061137d565b611143600082611493565b1561118e5760405173ffffffffffffffffffffffffffffffffffffffff821681527f8834a87e641e9716be4f34527af5d23e11624f1ddeefede6ad75a9acfc31b90390602001611066565b6040517fea8e4eb500000000000000000000000000000000000000000000000000000000815260040160405180910390fd5b60006111cd826020015190565b905060006111dc836020015190565b9050837f70726f746f636f6c546f6b656e000000000000000000000000000000000000000361124a57600580547fffffffffffffffffffffffff00000000000000000000000000000000000000001673ffffffffffffffffffffffffffffffffffffffff84161790556104d5565b837f626964496e6372656173650000000000000000000000000000000000000000000361127b5760068190556104d5565b837f6269644475726174696f6e000000000000000000000000000000000000000000036112ac5760078190556104d5565b837f746f74616c41756374696f6e4c656e677468000000000000000000000000000003610fce5760088190556104d5565b6005546107d39073ffffffffffffffffffffffffffffffffffffffff166114b5565b60608160000180548060200260200160405190810160405280929190818152602001828054801561134f57602002820191906000526020600020905b81548152602001906001019080831161133b575b50505050509050919050565b600061100d8373ffffffffffffffffffffffffffffffffffffffff8416611508565b60006113df826040518060400160405280602081526020017f5361666545524332303a206c6f772d6c6576656c2063616c6c206661696c65648152508573ffffffffffffffffffffffffffffffffffffffff166115579092919063ffffffff16565b80519091501561148e57808060200190518101906113fd9190611be6565b61148e576040517f08c379a000000000000000000000000000000000000000000000000000000000815260206004820152602a60248201527f5361666545524332303a204552433230206f7065726174696f6e20646964206e60448201527f6f7420737563636565640000000000000000000000000000000000000000000060648201526084015b60405180910390fd5b505050565b600061100d8373ffffffffffffffffffffffffffffffffffffffff841661156e565b600073ffffffffffffffffffffffffffffffffffffffff8216611504576040517fe99d5ac500000000000000000000000000000000000000000000000000000000815260040160405180910390fd5b5090565b600081815260018301602052604081205461154f575081546001818101845560008481526020808220909301849055845484825282860190935260409020919091556104e6565b5060006104e6565b60606115668484600085611661565b949350505050565b60008181526001830160205260408120548015611657576000611592600183611bd3565b85549091506000906115a690600190611bd3565b905081811461160b5760008660000182815481106115c6576115c6611c08565b90600052602060002001549050808760000184815481106115e9576115e9611c08565b6000918252602080832090910192909255918252600188019052604090208390555b855486908061161c5761161c611c37565b6001900381819060005260206000200160009055905585600101600086815260200190815260200160002060009055600193505050506104e6565b60009150506104e6565b6060824710156116f3576040517f08c379a000000000000000000000000000000000000000000000000000000000815260206004820152602660248201527f416464726573733a20696e73756666696369656e742062616c616e636520666f60448201527f722063616c6c00000000000000000000000000000000000000000000000000006064820152608401611485565b6000808673ffffffffffffffffffffffffffffffffffffffff16858760405161171c9190611c66565b60006040518083038185875af1925050503d8060008114611759576040519150601f19603f3d011682016040523d82523d6000602084013e61175e565b606091505b509150915061176f8783838761177a565b979650505050505050565b606083156118105782516000036118095773ffffffffffffffffffffffffffffffffffffffff85163b611809576040517f08c379a000000000000000000000000000000000000000000000000000000000815260206004820152601d60248201527f416464726573733a2063616c6c20746f206e6f6e2d636f6e74726163740000006044820152606401611485565b5081611566565b61156683838151156118255781518083602001fd5b806040517f08c379a00000000000000000000000000000000000000000000000000000000081526004016114859190611b2f565b7f4e487b7100000000000000000000000000000000000000000000000000000000600052604160045260246000fd5b600082601f83011261189957600080fd5b813567ffffffffffffffff808211156118b4576118b4611859565b604051601f83017fffffffffffffffffffffffffffffffffffffffffffffffffffffffffffffffe0908116603f011681019082821181831017156118fa576118fa611859565b8160405283815286602085880101111561191357600080fd5b836020870160208301376000602085830101528094505050505092915050565b60008060006060848603121561194857600080fd5b8335925060208401359150604084013567ffffffffffffffff81111561196d57600080fd5b61197986828701611888565b9150509250925092565b60006020828403121561199557600080fd5b5035919050565b6000602082840312156119ae57600080fd5b813573ffffffffffffffffffffffffffffffffffffffff8116811461100d57600080fd5b6020808252825182820181905260009190848201906040850190845b81811015611a2057835173ffffffffffffffffffffffffffffffffffffffff16835292840192918401916001016119ee565b50909695505050505050565b60008060408385031215611a3f57600080fd5b50508035926020909101359150565b600080600060608486031215611a6357600080fd5b505081359360208301359350604090920135919050565b60008060408385031215611a8d57600080fd5b82359150602083013567ffffffffffffffff811115611aab57600080fd5b611ab785828601611888565b9150509250929050565b60005b83811015611adc578181015183820152602001611ac4565b50506000910152565b60008151808452611afd816020860160208601611ac1565b601f017fffffffffffffffffffffffffffffffffffffffffffffffffffffffffffffffe0169290920160200192915050565b60208152600061100d6020830184611ae5565b7f4e487b7100000000000000000000000000000000000000000000000000000000600052601160045260246000fd5b60007fffffffffffffffffffffffffffffffffffffffffffffffffffffffffffffffff8203611ba257611ba2611b42565b5060010190565b808201808211156104e6576104e6611b42565b80820281158282048414176104e6576104e6611b42565b818103818111156104e6576104e6611b42565b600060208284031215611bf857600080fd5b8151801515811461100d57600080fd5b7f4e487b7100000000000000000000000000000000000000000000000000000000600052603260045260246000fd5b7f4e487b7100000000000000000000000000000000000000000000000000000000600052603160045260246000fd5b60008251611c78818460208701611ac1565b919091019291505056fea2646970667358221220341b56b1d51fc7b2461687d7024e8d15db6c08fe564c606fe3df16d31b6c994a64736f6c63430008130033",
    "linkReferences": {}
  },
  "methodIdentifiers": {
    "AUCTION_HOUSE_TYPE()": "1266fb94",
    "SURPLUS_AUCTION_TYPE()": "619ed1f8",
    "_auctions(uint256)": "17dc6bf6",
    "_params()": "552b16ab",
    "addAuthorization(address)": "35b28153",
    "auctions(uint256)": "571a26a0",
    "auctionsStarted()": "551cb3b1",
    "authorizedAccounts()": "2e391876",
    "authorizedAccounts(address)": "24ba5884",
    "increaseBidSize(uint256,uint256,uint256)": "5a93f031",
    "modifyParameters(bytes32,bytes)": "da8a4bb8",
    "modifyParameters(bytes32,bytes32,bytes)": "12f33526",
    "params()": "cff0ab96",
    "protocolToken()": "1a465fe1",
    "removeAuthorization(address)": "94f3f81d",
    "restartAuction(uint256)": "d25ccf53",
    "safeEngine()": "67aea313",
    "settleAuction(uint256)": "2e993611",
    "startAuction(uint256,uint256)": "4fee13fc"
  },
  "id": 130
}