{
  "abi": [
    {
      "inputs": [
        {
          "internalType": "address",
          "name": "_safeEngine",
          "type": "address"
        },
        {
          "internalType": "address",
          "name": "_protocolToken",
          "type": "address"
        },
        {
          "components": [
            {
              "internalType": "uint256",
              "name": "bidIncrease",
              "type": "uint256"
            },
            {
              "internalType": "uint256",
              "name": "bidDuration",
              "type": "uint256"
            },
            {
              "internalType": "uint256",
              "name": "totalAuctionLength",
              "type": "uint256"
            }
          ],
          "internalType": "struct IPostSettlementSurplusAuctionHouse.PostSettlementSAHParams",
          "name": "_pssahParams",
          "type": "tuple"
        }
      ],
      "stateMutability": "nonpayable",
      "type": "constructor"
    },
    {
      "inputs": [],
      "name": "AlreadyAuthorized",
      "type": "error"
    },
    {
      "inputs": [],
      "name": "NotAuthorized",
      "type": "error"
    },
    {
      "inputs": [],
      "name": "NullAddress",
      "type": "error"
    },
    {
      "inputs": [],
      "name": "SAH_AmountsNotMatching",
      "type": "error"
    },
    {
      "inputs": [],
      "name": "SAH_AuctionAlreadyExpired",
      "type": "error"
    },
    {
      "inputs": [],
      "name": "SAH_AuctionNeverStarted",
      "type": "error"
    },
    {
      "inputs": [],
      "name": "SAH_AuctionNotFinished",
      "type": "error"
    },
    {
      "inputs": [],
      "name": "SAH_BidAlreadyExpired",
      "type": "error"
    },
    {
      "inputs": [],
      "name": "SAH_BidAlreadyPlaced",
      "type": "error"
    },
    {
      "inputs": [],
      "name": "SAH_BidNotHigher",
      "type": "error"
    },
    {
      "inputs": [],
      "name": "SAH_HighBidderNotSet",
      "type": "error"
    },
    {
      "inputs": [],
      "name": "SAH_InsufficientIncrease",
      "type": "error"
    },
    {
      "inputs": [],
      "name": "Unauthorized",
      "type": "error"
    },
    {
      "inputs": [],
      "name": "UnrecognizedCType",
      "type": "error"
    },
    {
      "inputs": [],
      "name": "UnrecognizedParam",
      "type": "error"
    },
    {
      "anonymous": false,
      "inputs": [
        {
          "indexed": false,
          "internalType": "address",
          "name": "_account",
          "type": "address"
        }
      ],
      "name": "AddAuthorization",
      "type": "event"
    },
    {
      "anonymous": false,
      "inputs": [
        {
          "indexed": true,
          "internalType": "uint256",
          "name": "_id",
          "type": "uint256"
        },
        {
          "indexed": false,
          "internalType": "address",
          "name": "_bidder",
          "type": "address"
        },
        {
          "indexed": false,
          "internalType": "uint256",
          "name": "_blockTimestamp",
          "type": "uint256"
        },
        {
          "indexed": false,
          "internalType": "uint256",
          "name": "_raisedAmount",
          "type": "uint256"
        },
        {
          "indexed": false,
          "internalType": "uint256",
          "name": "_soldAmount",
          "type": "uint256"
        },
        {
          "indexed": false,
          "internalType": "uint256",
          "name": "_bidExpiry",
          "type": "uint256"
        }
      ],
      "name": "IncreaseBidSize",
      "type": "event"
    },
    {
      "anonymous": false,
      "inputs": [
        {
          "indexed": true,
          "internalType": "bytes32",
          "name": "_param",
          "type": "bytes32"
        },
        {
          "indexed": true,
          "internalType": "bytes32",
          "name": "_cType",
          "type": "bytes32"
        },
        {
          "indexed": false,
          "internalType": "bytes",
          "name": "_data",
          "type": "bytes"
        }
      ],
      "name": "ModifyParameters",
      "type": "event"
    },
    {
      "anonymous": false,
      "inputs": [
        {
          "indexed": false,
          "internalType": "address",
          "name": "_account",
          "type": "address"
        }
      ],
      "name": "RemoveAuthorization",
      "type": "event"
    },
    {
      "anonymous": false,
      "inputs": [
        {
          "indexed": true,
          "internalType": "uint256",
          "name": "_id",
          "type": "uint256"
        },
        {
          "indexed": false,
          "internalType": "uint256",
          "name": "_blockTimestamp",
          "type": "uint256"
        },
        {
          "indexed": false,
          "internalType": "uint256",
          "name": "_auctionDeadline",
          "type": "uint256"
        }
      ],
      "name": "RestartAuction",
      "type": "event"
    },
    {
      "anonymous": false,
      "inputs": [
        {
          "indexed": true,
          "internalType": "uint256",
          "name": "_id",
          "type": "uint256"
        },
        {
          "indexed": false,
          "internalType": "uint256",
          "name": "_blockTimestamp",
          "type": "uint256"
        },
        {
          "indexed": false,
          "internalType": "address",
          "name": "_highBidder",
          "type": "address"
        },
        {
          "indexed": false,
          "internalType": "uint256",
          "name": "_raisedAmount",
          "type": "uint256"
        }
      ],
      "name": "SettleAuction",
      "type": "event"
    },
    {
      "anonymous": false,
      "inputs": [
        {
          "indexed": true,
          "internalType": "uint256",
          "name": "_id",
          "type": "uint256"
        },
        {
          "indexed": true,
          "internalType": "address",
          "name": "_auctioneer",
          "type": "address"
        },
        {
          "indexed": false,
          "internalType": "uint256",
          "name": "_blockTimestamp",
          "type": "uint256"
        },
        {
          "indexed": false,
          "internalType": "uint256",
          "name": "_amountToSell",
          "type": "uint256"
        },
        {
          "indexed": false,
          "internalType": "uint256",
          "name": "_amountToRaise",
          "type": "uint256"
        },
        {
          "indexed": false,
          "internalType": "uint256",
          "name": "_auctionDeadline",
          "type": "uint256"
        }
      ],
      "name": "StartAuction",
      "type": "event"
    },
    {
      "inputs": [],
      "name": "AUCTION_HOUSE_TYPE",
      "outputs": [
        {
          "internalType": "bytes32",
          "name": "",
          "type": "bytes32"
        }
      ],
      "stateMutability": "view",
      "type": "function"
    },
    {
      "inputs": [
        {
          "internalType": "uint256",
          "name": "",
          "type": "uint256"
        }
      ],
      "name": "_auctions",
      "outputs": [
        {
          "internalType": "uint256",
          "name": "bidAmount",
          "type": "uint256"
        },
        {
          "internalType": "uint256",
          "name": "amountToSell",
          "type": "uint256"
        },
        {
          "internalType": "address",
          "name": "highBidder",
          "type": "address"
        },
        {
          "internalType": "uint256",
          "name": "bidExpiry",
          "type": "uint256"
        },
        {
          "internalType": "uint256",
          "name": "auctionDeadline",
          "type": "uint256"
        }
      ],
      "stateMutability": "view",
      "type": "function"
    },
    {
      "inputs": [],
      "name": "_params",
      "outputs": [
        {
          "internalType": "uint256",
          "name": "bidIncrease",
          "type": "uint256"
        },
        {
          "internalType": "uint256",
          "name": "bidDuration",
          "type": "uint256"
        },
        {
          "internalType": "uint256",
          "name": "totalAuctionLength",
          "type": "uint256"
        }
      ],
      "stateMutability": "view",
      "type": "function"
    },
    {
      "inputs": [
        {
          "internalType": "address",
          "name": "_account",
          "type": "address"
        }
      ],
      "name": "addAuthorization",
      "outputs": [],
      "stateMutability": "nonpayable",
      "type": "function"
    },
    {
      "inputs": [
        {
          "internalType": "uint256",
          "name": "_id",
          "type": "uint256"
        }
      ],
      "name": "auctions",
      "outputs": [
        {
          "components": [
            {
              "internalType": "uint256",
              "name": "bidAmount",
              "type": "uint256"
            },
            {
              "internalType": "uint256",
              "name": "amountToSell",
              "type": "uint256"
            },
            {
              "internalType": "address",
              "name": "highBidder",
              "type": "address"
            },
            {
              "internalType": "uint256",
              "name": "bidExpiry",
              "type": "uint256"
            },
            {
              "internalType": "uint256",
              "name": "auctionDeadline",
              "type": "uint256"
            }
          ],
          "internalType": "struct ICommonSurplusAuctionHouse.Auction",
          "name": "_auction",
          "type": "tuple"
        }
      ],
      "stateMutability": "view",
      "type": "function"
    },
    {
      "inputs": [],
      "name": "auctionsStarted",
      "outputs": [
        {
          "internalType": "uint256",
          "name": "",
          "type": "uint256"
        }
      ],
      "stateMutability": "view",
      "type": "function"
    },
    {
      "inputs": [
        {
          "internalType": "address",
          "name": "_account",
          "type": "address"
        }
      ],
      "name": "authorizedAccounts",
      "outputs": [
        {
          "internalType": "bool",
          "name": "_authorized",
          "type": "bool"
        }
      ],
      "stateMutability": "view",
      "type": "function"
    },
    {
      "inputs": [],
      "name": "authorizedAccounts",
      "outputs": [
        {
          "internalType": "address[]",
          "name": "_accounts",
          "type": "address[]"
        }
      ],
      "stateMutability": "view",
      "type": "function"
    },
    {
      "inputs": [
        {
          "internalType": "uint256",
          "name": "_id",
          "type": "uint256"
        },
        {
          "internalType": "uint256",
          "name": "_amountToBuy",
          "type": "uint256"
        },
        {
          "internalType": "uint256",
          "name": "_bid",
          "type": "uint256"
        }
      ],
      "name": "increaseBidSize",
      "outputs": [],
      "stateMutability": "nonpayable",
      "type": "function"
    },
    {
      "inputs": [
        {
          "internalType": "bytes32",
          "name": "_cType",
          "type": "bytes32"
        },
        {
          "internalType": "bytes32",
          "name": "_param",
          "type": "bytes32"
        },
        {
          "internalType": "bytes",
          "name": "_data",
          "type": "bytes"
        }
      ],
      "name": "modifyParameters",
      "outputs": [],
      "stateMutability": "nonpayable",
      "type": "function"
    },
    {
      "inputs": [
        {
          "internalType": "bytes32",
          "name": "_param",
          "type": "bytes32"
        },
        {
          "internalType": "bytes",
          "name": "_data",
          "type": "bytes"
        }
      ],
      "name": "modifyParameters",
      "outputs": [],
      "stateMutability": "nonpayable",
      "type": "function"
    },
    {
      "inputs": [],
      "name": "params",
      "outputs": [
        {
          "components": [
            {
              "internalType": "uint256",
              "name": "bidIncrease",
              "type": "uint256"
            },
            {
              "internalType": "uint256",
              "name": "bidDuration",
              "type": "uint256"
            },
            {
              "internalType": "uint256",
              "name": "totalAuctionLength",
              "type": "uint256"
            }
          ],
          "internalType": "struct IPostSettlementSurplusAuctionHouse.PostSettlementSAHParams",
          "name": "_pssahParams",
          "type": "tuple"
        }
      ],
      "stateMutability": "view",
      "type": "function"
    },
    {
      "inputs": [],
      "name": "protocolToken",
      "outputs": [
        {
          "internalType": "contract IProtocolToken",
          "name": "",
          "type": "address"
        }
      ],
      "stateMutability": "view",
      "type": "function"
    },
    {
      "inputs": [
        {
          "internalType": "address",
          "name": "_account",
          "type": "address"
        }
      ],
      "name": "removeAuthorization",
      "outputs": [],
      "stateMutability": "nonpayable",
      "type": "function"
    },
    {
      "inputs": [
        {
          "internalType": "uint256",
          "name": "_id",
          "type": "uint256"
        }
      ],
      "name": "restartAuction",
      "outputs": [],
      "stateMutability": "nonpayable",
      "type": "function"
    },
    {
      "inputs": [],
      "name": "safeEngine",
      "outputs": [
        {
          "internalType": "contract ISAFEEngine",
          "name": "",
          "type": "address"
        }
      ],
      "stateMutability": "view",
      "type": "function"
    },
    {
      "inputs": [
        {
          "internalType": "uint256",
          "name": "_id",
          "type": "uint256"
        }
      ],
      "name": "settleAuction",
      "outputs": [],
      "stateMutability": "nonpayable",
      "type": "function"
    },
    {
      "inputs": [
        {
          "internalType": "uint256",
          "name": "_amountToSell",
          "type": "uint256"
        },
        {
          "internalType": "uint256",
          "name": "_initialBid",
          "type": "uint256"
        }
      ],
      "name": "startAuction",
      "outputs": [
        {
          "internalType": "uint256",
          "name": "_id",
          "type": "uint256"
        }
      ],
      "stateMutability": "nonpayable",
      "type": "function"
    }
  ],
  "bytecode": {
    "object": "0x60806040523480156200001157600080fd5b5060405162001f1b38038062001f1b8339810160408190526200003491620001ee565b336200004081620000ac565b50620000556001600160a01b0384166200011a565b600480546001600160a01b03199081166001600160a01b039384161790915560058054909116918416919091179055805160065560208101516007556040810151600855620000a362000148565b50505062000292565b620000b96000826200015f565b15620000fe576040516001600160a01b03821681527f599a298163e1678bb1c676052a8930bf0b8a1261ed6e01b8a2391e55f70001029060200160405180910390a150565b604051633013e93f60e11b815260040160405180910390fd5b50565b60006001600160a01b038216620001445760405163e99d5ac560e01b815260040160405180910390fd5b5090565b60055462000117906001600160a01b03166200011a565b600062000176836001600160a01b0384166200017f565b90505b92915050565b6000818152600183016020526040812054620001c85750815460018181018455600084815260208082209093018490558454848252828601909352604090209190915562000179565b50600062000179565b80516001600160a01b0381168114620001e957600080fd5b919050565b600080600083850360a08112156200020557600080fd5b6200021085620001d1565b93506200022060208601620001d1565b92506060603f19820112156200023557600080fd5b50604051606081016001600160401b03811182821017156200026757634e487b7160e01b600052604160045260246000fd5b8060405250604085015181526060850151602082015260808501516040820152809150509250925092565b611c7980620002a26000396000f3fe608060405234801561001057600080fd5b50600436106101365760003560e01c8063551cb3b1116100b257806367aea31311610081578063cff0ab9611610066578063cff0ab96146103be578063d25ccf53146103e8578063da8a4bb8146103fb57600080fd5b806367aea3131461038b57806394f3f81d146103ab57600080fd5b8063551cb3b1146102d7578063552b16ab146102e0578063571a26a01461030d5780635a93f0311461037857600080fd5b806324ba5884116101095780632e993611116100ee5780632e9936111461029e57806335b28153146102b15780634fee13fc146102c457600080fd5b806324ba5884146102665780632e3918761461028957600080fd5b80631266fb941461013b57806312f335261461017557806317dc6bf61461018a5780631a465fe114610221575b600080fd5b6101627f535552504c55530000000000000000000000000000000000000000000000000081565b6040519081526020015b60405180910390f35b6101886101833660046118f4565b61040e565b005b6101de610198366004611944565b60026020819052600091825260409091208054600182015492820154600383015460049093015491939273ffffffffffffffffffffffffffffffffffffffff9091169185565b60408051958652602086019490945273ffffffffffffffffffffffffffffffffffffffff909216928401929092526060830191909152608082015260a00161016c565b6005546102419073ffffffffffffffffffffffffffffffffffffffff1681565b60405173ffffffffffffffffffffffffffffffffffffffff909116815260200161016c565b61027961027436600461195d565b610499565b604051901515815260200161016c565b6102916104aa565b60405161016c9190611993565b6101886102ac366004611944565b6104bb565b6101886102bf36600461195d565b610749565b6101626102d23660046119ed565b610794565b61016260035481565b6006546007546008546102f292919083565b6040805193845260208401929092529082015260600161016c565b61032061031b366004611944565b610990565b60405161016c9190600060a082019050825182526020830151602083015273ffffffffffffffffffffffffffffffffffffffff6040840151166040830152606083015160608301526080830151608083015292915050565b610188610386366004611a0f565b610a3a565b6004546102419073ffffffffffffffffffffffffffffffffffffffff1681565b6101886103b936600461195d565b610d1a565b6103c6610d62565b604080518251815260208084015190820152918101519082015260600161016c565b6101886103f6366004611944565b610dab565b610188610409366004611a3b565b610ed1565b61041733610f62565b61044d576040517f82b4290000000000000000000000000000000000000000000000000000000000815260040160405180910390fd5b82610459848484610f8f565b83837fe436a8be7dc6aab90b400800ecc86e46fb600f2e18989b5d0389840fdabbf2ed8460405161048a9190611af0565b60405180910390a35b50505050565b60006104a482610f62565b92915050565b60606104b66000610fc1565b905090565b600081815260026020818152604092839020835160a081018552815481526001820154928101929092529182015473ffffffffffffffffffffffffffffffffffffffff16928101929092526003810154606083018190526004909101546080830152158061053a575042816060015111801561053a5750428160800151115b15610571576040517f8a9fdc6a00000000000000000000000000000000000000000000000000000000815260040160405180910390fd5b60048054604083810151602085015191517fefabcadc000000000000000000000000000000000000000000000000000000008152309481019490945273ffffffffffffffffffffffffffffffffffffffff90811660248501526044840191909152169063efabcadc90606401600060405180830381600087803b1580156105f757600080fd5b505af115801561060b573d6000803e3d6000fd5b505060055483516040517f42966c6800000000000000000000000000000000000000000000000000000000815273ffffffffffffffffffffffffffffffffffffffff90921693506342966c6892506106699160040190815260200190565b600060405180830381600087803b15801561068357600080fd5b505af1158015610697573d6000803e3d6000fd5b505050506040818101518251825142815273ffffffffffffffffffffffffffffffffffffffff909216602083015281830152905183917fce605a43280ed04bb2cf4231276a425e3650af62821a5e1f0c8daf63beba6c34919081900360600190a250600090815260026020819052604082208281556001810183905590810180547fffffffffffffffffffffffff00000000000000000000000000000000000000001690556003810182905560040155565b61075233610f62565b610788576040517f82b4290000000000000000000000000000000000000000000000000000000000815260040160405180910390fd5b61079181610fd5565b50565b600061079f33610f62565b6107d5576040517f82b4290000000000000000000000000000000000000000000000000000000000815260040160405180910390fd5b6003600081546107e490611b32565b91905081905590506040518060a001604052808381526020018481526020013373ffffffffffffffffffffffffffffffffffffffff16815260200160008152602001600660020154426108379190611b6a565b9052600082815260026020818152604092839020845181559084015160018201558383015191810180547fffffffffffffffffffffffff00000000000000000000000000000000000000001673ffffffffffffffffffffffffffffffffffffffff93841617905560608401516003820155608090930151600493840155825491517fefabcadc000000000000000000000000000000000000000000000000000000008152339381019390935230602484015260448301869052169063efabcadc90606401600060405180830381600087803b15801561091557600080fd5b505af1158015610929573d6000803e3d6000fd5b5050506000828152600260209081526040918290206004015482514281529182018790528183018690526060820152905133925083917fda2c6648a718e51b6494e6a51a7e7a1bcd0ef390444bd74bcdf291229e9d8dca919081900360800190a392915050565b6109d86040518060a001604052806000815260200160008152602001600073ffffffffffffffffffffffffffffffffffffffff16815260200160008152602001600081525090565b50600090815260026020818152604092839020835160a081018552815481526001820154928101929092529182015473ffffffffffffffffffffffffffffffffffffffff16928101929092526003810154606083015260040154608082015290565b60008381526002602081905260409091209081015473ffffffffffffffffffffffffffffffffffffffff16610a9b576040517f3f7caeae00000000000000000000000000000000000000000000000000000000815260040160405180910390fd5b42816003015411158015610ab25750600381015415155b15610ae9576040517fc3e4393200000000000000000000000000000000000000000000000000000000815260040160405180910390fd5b42816004015411610b26576040517f9203423800000000000000000000000000000000000000000000000000000000815260040160405180910390fd5b80600101548314610b63576040517fbda58db600000000000000000000000000000000000000000000000000000000815260040160405180910390fd5b80548211610b9d576040517f88020a0a00000000000000000000000000000000000000000000000000000000815260040160405180910390fd5b8054600654610bac9190611b7d565b610bbe670de0b6b3a764000084611b7d565b1015610bf6576040517fe08b005b00000000000000000000000000000000000000000000000000000000815260040160405180910390fd5b600281015473ffffffffffffffffffffffffffffffffffffffff163314610c765760028101548154600554610c499273ffffffffffffffffffffffffffffffffffffffff91821692339290911690611064565b6002810180547fffffffffffffffffffffffff000000000000000000000000000000000000000016331790555b610cac3330836000015485610c8b9190611b94565b60055473ffffffffffffffffffffffffffffffffffffffff16929190611064565b818155600754610cbc9042611b6a565b600382018190556040805133815242602082015290810184905260608101859052608081019190915284907fbabed4bc302f25a2be9c3286529806aca3c81480ba4b26ee5512277c996e18e99060a00160405180910390a250505050565b610d2333610f62565b610d59576040517f82b4290000000000000000000000000000000000000000000000000000000000815260040160405180910390fd5b610791816110f9565b610d8660405180606001604052806000815260200160008152602001600081525090565b5060408051606081018252600654815260075460208201526008549181019190915290565b801580610db9575060035481115b15610df0576040517f67374ccd00000000000000000000000000000000000000000000000000000000815260040160405180910390fd5b60008181526002602052604090206004810154421015610e3c576040517f8a9fdc6a00000000000000000000000000000000000000000000000000000000815260040160405180910390fd5b600381015415610e78576040517f10cff0e800000000000000000000000000000000000000000000000000000000815260040160405180910390fd5b600854610e859042611b6a565b6004820181905560405183917f52926b7e2fb12434af05e0b5e28d2b857fc6a23d92f7d7b8ebc6ec6b0fb4419e91610ec591428252602082015260400190565b60405180910390a25050565b610eda33610f62565b610f10576040517f82b4290000000000000000000000000000000000000000000000000000000000815260040160405180910390fd5b610f1a8282611181565b6000801b827fe436a8be7dc6aab90b400800ecc86e46fb600f2e18989b5d0389840fdabbf2ed83604051610f4e9190611af0565b60405180910390a3610f5e61129e565b5050565b73ffffffffffffffffffffffffffffffffffffffff811660009081526001602052604081205415156104a4565b6040517f9d2ff48000000000000000000000000000000000000000000000000000000000815260040160405180910390fd5b60606000610fce836112c0565b9392505050565b610fe060008261131c565b156110325760405173ffffffffffffffffffffffffffffffffffffffff821681527f599a298163e1678bb1c676052a8930bf0b8a1261ed6e01b8a2391e55f7000102906020015b60405180910390a150565b6040517f6027d27e00000000000000000000000000000000000000000000000000000000815260040160405180910390fd5b6040805173ffffffffffffffffffffffffffffffffffffffff85811660248301528416604482015260648082018490528251808303909101815260849091019091526020810180517bffffffffffffffffffffffffffffffffffffffffffffffffffffffff167f23b872dd0000000000000000000000000000000000000000000000000000000017905261049390859061133e565b611104600082611454565b1561114f5760405173ffffffffffffffffffffffffffffffffffffffff821681527f8834a87e641e9716be4f34527af5d23e11624f1ddeefede6ad75a9acfc31b90390602001611027565b6040517fea8e4eb500000000000000000000000000000000000000000000000000000000815260040160405180910390fd5b600061118e826020015190565b9050600061119d836020015190565b9050837f70726f746f636f6c546f6b656e000000000000000000000000000000000000000361120b57600580547fffffffffffffffffffffffff00000000000000000000000000000000000000001673ffffffffffffffffffffffffffffffffffffffff8416179055610493565b837f626964496e6372656173650000000000000000000000000000000000000000000361123c576006819055610493565b837f6269644475726174696f6e0000000000000000000000000000000000000000000361126d576007819055610493565b837f746f74616c41756374696f6e4c656e677468000000000000000000000000000003610f8f576008819055610493565b6005546107919073ffffffffffffffffffffffffffffffffffffffff16611476565b60608160000180548060200260200160405190810160405280929190818152602001828054801561131057602002820191906000526020600020905b8154815260200190600101908083116112fc575b50505050509050919050565b6000610fce8373ffffffffffffffffffffffffffffffffffffffff84166114c9565b60006113a0826040518060400160405280602081526020017f5361666545524332303a206c6f772d6c6576656c2063616c6c206661696c65648152508573ffffffffffffffffffffffffffffffffffffffff166115189092919063ffffffff16565b80519091501561144f57808060200190518101906113be9190611ba7565b61144f576040517f08c379a000000000000000000000000000000000000000000000000000000000815260206004820152602a60248201527f5361666545524332303a204552433230206f7065726174696f6e20646964206e60448201527f6f7420737563636565640000000000000000000000000000000000000000000060648201526084015b60405180910390fd5b505050565b6000610fce8373ffffffffffffffffffffffffffffffffffffffff841661152f565b600073ffffffffffffffffffffffffffffffffffffffff82166114c5576040517fe99d5ac500000000000000000000000000000000000000000000000000000000815260040160405180910390fd5b5090565b6000818152600183016020526040812054611510575081546001818101845560008481526020808220909301849055845484825282860190935260409020919091556104a4565b5060006104a4565b60606115278484600085611622565b949350505050565b60008181526001830160205260408120548015611618576000611553600183611b94565b855490915060009061156790600190611b94565b90508181146115cc57600086600001828154811061158757611587611bc9565b90600052602060002001549050808760000184815481106115aa576115aa611bc9565b6000918252602080832090910192909255918252600188019052604090208390555b85548690806115dd576115dd611bf8565b6001900381819060005260206000200160009055905585600101600086815260200190815260200160002060009055600193505050506104a4565b60009150506104a4565b6060824710156116b4576040517f08c379a000000000000000000000000000000000000000000000000000000000815260206004820152602660248201527f416464726573733a20696e73756666696369656e742062616c616e636520666f60448201527f722063616c6c00000000000000000000000000000000000000000000000000006064820152608401611446565b6000808673ffffffffffffffffffffffffffffffffffffffff1685876040516116dd9190611c27565b60006040518083038185875af1925050503d806000811461171a576040519150601f19603f3d011682016040523d82523d6000602084013e61171f565b606091505b50915091506117308783838761173b565b979650505050505050565b606083156117d15782516000036117ca5773ffffffffffffffffffffffffffffffffffffffff85163b6117ca576040517f08c379a000000000000000000000000000000000000000000000000000000000815260206004820152601d60248201527f416464726573733a2063616c6c20746f206e6f6e2d636f6e74726163740000006044820152606401611446565b5081611527565b61152783838151156117e65781518083602001fd5b806040517f08c379a00000000000000000000000000000000000000000000000000000000081526004016114469190611af0565b7f4e487b7100000000000000000000000000000000000000000000000000000000600052604160045260246000fd5b600082601f83011261185a57600080fd5b813567ffffffffffffffff808211156118755761187561181a565b604051601f83017fffffffffffffffffffffffffffffffffffffffffffffffffffffffffffffffe0908116603f011681019082821181831017156118bb576118bb61181a565b816040528381528660208588010111156118d457600080fd5b836020870160208301376000602085830101528094505050505092915050565b60008060006060848603121561190957600080fd5b8335925060208401359150604084013567ffffffffffffffff81111561192e57600080fd5b61193a86828701611849565b9150509250925092565b60006020828403121561195657600080fd5b5035919050565b60006020828403121561196f57600080fd5b813573ffffffffffffffffffffffffffffffffffffffff81168114610fce57600080fd5b6020808252825182820181905260009190848201906040850190845b818110156119e157835173ffffffffffffffffffffffffffffffffffffffff16835292840192918401916001016119af565b50909695505050505050565b60008060408385031215611a0057600080fd5b50508035926020909101359150565b600080600060608486031215611a2457600080fd5b505081359360208301359350604090920135919050565b60008060408385031215611a4e57600080fd5b82359150602083013567ffffffffffffffff811115611a6c57600080fd5b611a7885828601611849565b9150509250929050565b60005b83811015611a9d578181015183820152602001611a85565b50506000910152565b60008151808452611abe816020860160208601611a82565b601f017fffffffffffffffffffffffffffffffffffffffffffffffffffffffffffffffe0169290920160200192915050565b602081526000610fce6020830184611aa6565b7f4e487b7100000000000000000000000000000000000000000000000000000000600052601160045260246000fd5b60007fffffffffffffffffffffffffffffffffffffffffffffffffffffffffffffffff8203611b6357611b63611b03565b5060010190565b808201808211156104a4576104a4611b03565b80820281158282048414176104a4576104a4611b03565b818103818111156104a4576104a4611b03565b600060208284031215611bb957600080fd5b81518015158114610fce57600080fd5b7f4e487b7100000000000000000000000000000000000000000000000000000000600052603260045260246000fd5b7f4e487b7100000000000000000000000000000000000000000000000000000000600052603160045260246000fd5b60008251611c39818460208701611a82565b919091019291505056fea264697066735822122014de9d40252865b4160baff93f588378d95c83f9978cc0e737e16f37556a12b664736f6c63430008130033",
    "linkReferences": {}
  },
  "methodIdentifiers": {
    "AUCTION_HOUSE_TYPE()": "1266fb94",
    "_auctions(uint256)": "17dc6bf6",
    "_params()": "552b16ab",
    "addAuthorization(address)": "35b28153",
    "auctions(uint256)": "571a26a0",
    "auctionsStarted()": "551cb3b1",
    "authorizedAccounts()": "2e391876",
    "authorizedAccounts(address)": "24ba5884",
    "increaseBidSize(uint256,uint256,uint256)": "5a93f031",
    "modifyParameters(bytes32,bytes)": "da8a4bb8",
    "modifyParameters(bytes32,bytes32,bytes)": "12f33526",
    "params()": "cff0ab96",
    "protocolToken()": "1a465fe1",
    "removeAuthorization(address)": "94f3f81d",
    "restartAuction(uint256)": "d25ccf53",
    "safeEngine()": "67aea313",
    "settleAuction(uint256)": "2e993611",
    "startAuction(uint256,uint256)": "4fee13fc"
  },
  "id": 133
}