{
  "abi": [
    {
      "inputs": [],
      "name": "OnlyDelegateCalls",
      "type": "error"
    },
    {
      "inputs": [
        {
          "internalType": "address",
          "name": "_coinJoin",
          "type": "address"
        }
      ],
      "name": "exitAllSystemCoins",
      "outputs": [],
      "stateMutability": "nonpayable",
      "type": "function"
    },
    {
      "inputs": [
        {
          "internalType": "address",
          "name": "_collateralJoin",
          "type": "address"
        },
        {
          "internalType": "uint256",
          "name": "_wad",
          "type": "uint256"
        }
      ],
      "name": "exitCollateral",
      "outputs": [],
      "stateMutability": "nonpayable",
      "type": "function"
    },
    {
      "inputs": [
        {
          "internalType": "address",
          "name": "_coinJoin",
          "type": "address"
        },
        {
          "internalType": "uint256",
          "name": "_coinsToExit",
          "type": "uint256"
        }
      ],
      "name": "exitSystemCoins",
      "outputs": [],
      "stateMutability": "nonpayable",
      "type": "function"
    },
    {
      "inputs": [
        {
          "internalType": "address",
          "name": "_coinJoin",
          "type": "address"
        },
        {
          "internalType": "address",
          "name": "_dst",
          "type": "address"
        },
        {
          "internalType": "uint256",
          "name": "_wad",
          "type": "uint256"
        }
      ],
      "name": "joinSystemCoins",
      "outputs": [],
      "stateMutability": "nonpayable",
      "type": "function"
    },
    {
      "inputs": [
        {
          "internalType": "address",
          "name": "_liquidationJob",
          "type": "address"
        },
        {
          "internalType": "address",
          "name": "_coinJoin",
          "type": "address"
        },
        {
          "internalType": "bytes32",
          "name": "_cType",
          "type": "bytes32"
        },
        {
          "internalType": "address",
          "name": "_safe",
          "type": "address"
        }
      ],
      "name": "liquidateSAFE",
      "outputs": [],
      "stateMutability": "nonpayable",
      "type": "function"
    },
    {
      "inputs": [
        {
          "internalType": "address",
          "name": "_accountingJob",
          "type": "address"
        },
        {
          "internalType": "address",
          "name": "_coinJoin",
          "type": "address"
        },
        {
          "internalType": "uint256",
          "name": "_debtTimestamp",
          "type": "uint256"
        }
      ],
      "name": "popDebtFromQueue",
      "outputs": [],
      "stateMutability": "nonpayable",
      "type": "function"
    },
    {
      "inputs": [
        {
          "internalType": "address",
          "name": "_accountingJob",
          "type": "address"
        },
        {
          "internalType": "address",
          "name": "_coinJoin",
          "type": "address"
        }
      ],
      "name": "startDebtAuction",
      "outputs": [],
      "stateMutability": "nonpayable",
      "type": "function"
    },
    {
      "inputs": [
        {
          "internalType": "address",
          "name": "_accountingJob",
          "type": "address"
        },
        {
          "internalType": "address",
          "name": "_coinJoin",
          "type": "address"
        }
      ],
      "name": "startSurplusAuction",
      "outputs": [],
      "stateMutability": "nonpayable",
      "type": "function"
    },
    {
      "inputs": [
        {
          "internalType": "address",
          "name": "_accountingJob",
          "type": "address"
        },
        {
          "internalType": "address",
          "name": "_coinJoin",
          "type": "address"
        }
      ],
      "name": "transferExtraSurplus",
      "outputs": [],
      "stateMutability": "nonpayable",
      "type": "function"
    },
    {
      "inputs": [
        {
          "internalType": "address",
          "name": "_oracleJob",
          "type": "address"
        },
        {
          "internalType": "address",
          "name": "_coinJoin",
          "type": "address"
        },
        {
          "internalType": "bytes32",
          "name": "_cType",
          "type": "bytes32"
        }
      ],
      "name": "updateCollateralPrice",
      "outputs": [],
      "stateMutability": "nonpayable",
      "type": "function"
    },
    {
      "inputs": [
        {
          "internalType": "address",
          "name": "_oracleJob",
          "type": "address"
        },
        {
          "internalType": "address",
          "name": "_coinJoin",
          "type": "address"
        }
      ],
      "name": "updateRedemptionRate",
      "outputs": [],
      "stateMutability": "nonpayable",
      "type": "function"
    }
  ],
  "bytecode": {
    "object": "0x60a06040523060805234801561001457600080fd5b50608051611586610076600039600081816101b8015281816102950152818161039c01528181610518015281816105cf015281816106ce01528181610747015281816107fe015281816108b50152818161092f01526109f101526115866000f3fe608060405234801561001057600080fd5b50600436106100c95760003560e01c80634f127f4311610081578063902746d71161005b578063902746d714610168578063a6ab77361461017b578063d6f254001461018e57600080fd5b80634f127f431461012f578063652050251461014257806375f940861461015557600080fd5b80632da46734116100b25780632da46734146100f65780632f234f27146101095780633a7e013f1461011c57600080fd5b8063072a368f146100ce578063248ca36c146100e3575b600080fd5b6100e16100dc36600461122c565b6101a1565b005b6100e16100f1366004611265565b61027e565b6100e16101043660046112b8565b610385565b6100e161011736600461122c565b610501565b6100e161012a3660046112dc565b6105b8565b6100e161013d36600461131d565b6106b7565b6100e161015036600461122c565b610730565b6100e161016336600461122c565b6107e7565b6100e16101763660046112dc565b61089e565b6100e16101893660046112dc565b610918565b6100e161019c36600461131d565b6109da565b73ffffffffffffffffffffffffffffffffffffffff7f0000000000000000000000000000000000000000000000000000000000000000163003610210576040517f0406dd4b00000000000000000000000000000000000000000000000000000000815260040160405180910390fd5b8173ffffffffffffffffffffffffffffffffffffffff16632781ef1c6040518163ffffffff1660e01b8152600401600060405180830381600087803b15801561025857600080fd5b505af115801561026c573d6000803e3d6000fd5b5050505061027a8282610a53565b5050565b73ffffffffffffffffffffffffffffffffffffffff7f00000000000000000000000000000000000000000000000000000000000000001630036102ed576040517f0406dd4b00000000000000000000000000000000000000000000000000000000815260040160405180910390fd5b6040517f480782700000000000000000000000000000000000000000000000000000000081526004810183905273ffffffffffffffffffffffffffffffffffffffff8281166024830152851690634807827090604401600060405180830381600087803b15801561035d57600080fd5b505af1158015610371573d6000803e3d6000fd5b5050505061037f8484610a53565b50505050565b73ffffffffffffffffffffffffffffffffffffffff7f00000000000000000000000000000000000000000000000000000000000000001630036103f4576040517f0406dd4b00000000000000000000000000000000000000000000000000000000815260040160405180910390fd5b60008173ffffffffffffffffffffffffffffffffffffffff166367aea3136040518163ffffffff1660e01b8152600401602060405180830381865afa158015610441573d6000803e3d6000fd5b505050506040513d601f19601f820116820180604052508101906104659190611349565b6040517ffabde80c00000000000000000000000000000000000000000000000000000000815230600482015273ffffffffffffffffffffffffffffffffffffffff919091169063fabde80c90602401602060405180830381865afa1580156104d1573d6000803e3d6000fd5b505050506040513d601f19601f820116820180604052508101906104f59190611366565b905061027a8282610acc565b73ffffffffffffffffffffffffffffffffffffffff7f0000000000000000000000000000000000000000000000000000000000000000163003610570576040517f0406dd4b00000000000000000000000000000000000000000000000000000000815260040160405180910390fd5b8173ffffffffffffffffffffffffffffffffffffffff1663dbbb74d56040518163ffffffff1660e01b8152600401600060405180830381600087803b15801561025857600080fd5b73ffffffffffffffffffffffffffffffffffffffff7f0000000000000000000000000000000000000000000000000000000000000000163003610627576040517f0406dd4b00000000000000000000000000000000000000000000000000000000815260040160405180910390fd5b6040517f5eadae8e0000000000000000000000000000000000000000000000000000000081526004810182905273ffffffffffffffffffffffffffffffffffffffff841690635eadae8e906024015b600060405180830381600087803b15801561069057600080fd5b505af11580156106a4573d6000803e3d6000fd5b505050506106b28383610a53565b505050565b73ffffffffffffffffffffffffffffffffffffffff7f0000000000000000000000000000000000000000000000000000000000000000163003610726576040517f0406dd4b00000000000000000000000000000000000000000000000000000000815260040160405180910390fd5b61027a8282610acc565b73ffffffffffffffffffffffffffffffffffffffff7f000000000000000000000000000000000000000000000000000000000000000016300361079f576040517f0406dd4b00000000000000000000000000000000000000000000000000000000815260040160405180910390fd5b8173ffffffffffffffffffffffffffffffffffffffff1663848208146040518163ffffffff1660e01b8152600401600060405180830381600087803b15801561025857600080fd5b73ffffffffffffffffffffffffffffffffffffffff7f0000000000000000000000000000000000000000000000000000000000000000163003610856576040517f0406dd4b00000000000000000000000000000000000000000000000000000000815260040160405180910390fd5b8173ffffffffffffffffffffffffffffffffffffffff1663063501fa6040518163ffffffff1660e01b8152600401600060405180830381600087803b15801561025857600080fd5b73ffffffffffffffffffffffffffffffffffffffff7f000000000000000000000000000000000000000000000000000000000000000016300361090d576040517f0406dd4b00000000000000000000000000000000000000000000000000000000815260040160405180910390fd5b6106b2838383610d2b565b73ffffffffffffffffffffffffffffffffffffffff7f0000000000000000000000000000000000000000000000000000000000000000163003610987576040517f0406dd4b00000000000000000000000000000000000000000000000000000000815260040160405180910390fd5b6040517f4e6669ed0000000000000000000000000000000000000000000000000000000081526004810182905273ffffffffffffffffffffffffffffffffffffffff841690634e6669ed90602401610676565b73ffffffffffffffffffffffffffffffffffffffff7f0000000000000000000000000000000000000000000000000000000000000000163003610a49576040517f0406dd4b00000000000000000000000000000000000000000000000000000000815260040160405180910390fd5b61027a8282610f3f565b60008273ffffffffffffffffffffffffffffffffffffffff1663f7b2a7be6040518163ffffffff1660e01b8152600401602060405180830381865afa158015610aa0573d6000803e3d6000fd5b505050506040513d601f19601f82011682018060405250810190610ac49190611366565b90506106b282825b80600003610ad8575050565b600082905060008173ffffffffffffffffffffffffffffffffffffffff166367aea3136040518163ffffffff1660e01b8152600401602060405180830381865afa158015610b2a573d6000803e3d6000fd5b505050506040513d601f19601f82011682018060405250810190610b4e9190611349565b6040517f50de215d00000000000000000000000000000000000000000000000000000000815230600482015273ffffffffffffffffffffffffffffffffffffffff8681166024830152919250908216906350de215d90604401602060405180830381865afa158015610bc4573d6000803e3d6000fd5b505050506040513d601f19601f82011682018060405250810190610be8919061137f565b610c6e576040517fd94d420800000000000000000000000000000000000000000000000000000000815273ffffffffffffffffffffffffffffffffffffffff858116600483015282169063d94d420890602401600060405180830381600087803b158015610c5557600080fd5b505af1158015610c69573d6000803e3d6000fd5b505050505b73ffffffffffffffffffffffffffffffffffffffff821663ef693bed33610ca16b033b2e3c9fd0803ce8000000876113d0565b6040517fffffffff0000000000000000000000000000000000000000000000000000000060e085901b16815273ffffffffffffffffffffffffffffffffffffffff909216600483015260248201526044015b600060405180830381600087803b158015610d0d57600080fd5b505af1158015610d21573d6000803e3d6000fd5b5050505050505050565b80600003610d3857505050565b60008373ffffffffffffffffffffffffffffffffffffffff1663a7e944556040518163ffffffff1660e01b8152600401602060405180830381865afa158015610d85573d6000803e3d6000fd5b505050506040513d601f19601f82011682018060405250810190610da99190611349565b6040517f23b872dd0000000000000000000000000000000000000000000000000000000081523360048201523060248201526044810184905290915073ffffffffffffffffffffffffffffffffffffffff8216906323b872dd906064016020604051808303816000875af1158015610e25573d6000803e3d6000fd5b505050506040513d601f19601f82011682018060405250810190610e49919061137f565b506040517f095ea7b300000000000000000000000000000000000000000000000000000000815273ffffffffffffffffffffffffffffffffffffffff85811660048301526024820184905282169063095ea7b3906044016020604051808303816000875af1158015610ebf573d6000803e3d6000fd5b505050506040513d601f19601f82011682018060405250810190610ee3919061137f565b506040517f3b4da69f00000000000000000000000000000000000000000000000000000000815273ffffffffffffffffffffffffffffffffffffffff848116600483015260248201849052851690633b4da69f90604401610cf3565b80600003610f4b575050565b600082905060008173ffffffffffffffffffffffffffffffffffffffff166367aea3136040518163ffffffff1660e01b8152600401602060405180830381865afa158015610f9d573d6000803e3d6000fd5b505050506040513d601f19601f82011682018060405250810190610fc19190611349565b6040517f50de215d00000000000000000000000000000000000000000000000000000000815230600482015273ffffffffffffffffffffffffffffffffffffffff8681166024830152919250908216906350de215d90604401602060405180830381865afa158015611037573d6000803e3d6000fd5b505050506040513d601f19601f8201168201806040525081019061105b919061137f565b6110e1576040517fd94d420800000000000000000000000000000000000000000000000000000000815273ffffffffffffffffffffffffffffffffffffffff858116600483015282169063d94d420890602401600060405180830381600087803b1580156110c857600080fd5b505af11580156110dc573d6000803e3d6000fd5b505050505b60008273ffffffffffffffffffffffffffffffffffffffff1663313ce5676040518163ffffffff1660e01b8152600401602060405180830381865afa15801561112e573d6000803e3d6000fd5b505050506040513d601f19601f820116820180604052508101906111529190611366565b9050600061116182601261140b565b61116c90600a611544565b61117690866113d0565b6040517fef693bed0000000000000000000000000000000000000000000000000000000081523360048201526024810182905290915073ffffffffffffffffffffffffffffffffffffffff85169063ef693bed90604401600060405180830381600087803b1580156111e757600080fd5b505af11580156111fb573d6000803e3d6000fd5b50505050505050505050565b73ffffffffffffffffffffffffffffffffffffffff8116811461122957600080fd5b50565b6000806040838503121561123f57600080fd5b823561124a81611207565b9150602083013561125a81611207565b809150509250929050565b6000806000806080858703121561127b57600080fd5b843561128681611207565b9350602085013561129681611207565b92506040850135915060608501356112ad81611207565b939692955090935050565b6000602082840312156112ca57600080fd5b81356112d581611207565b9392505050565b6000806000606084860312156112f157600080fd5b83356112fc81611207565b9250602084013561130c81611207565b929592945050506040919091013590565b6000806040838503121561133057600080fd5b823561133b81611207565b946020939093013593505050565b60006020828403121561135b57600080fd5b81516112d581611207565b60006020828403121561137857600080fd5b5051919050565b60006020828403121561139157600080fd5b815180151581146112d557600080fd5b7f4e487b7100000000000000000000000000000000000000000000000000000000600052601160045260246000fd5b600082611406577f4e487b7100000000000000000000000000000000000000000000000000000000600052601260045260246000fd5b500490565b8181038181111561141e5761141e6113a1565b92915050565b600181815b8085111561147d57817fffffffffffffffffffffffffffffffffffffffffffffffffffffffffffffffff04821115611463576114636113a1565b8085161561147057918102915b93841c9390800290611429565b509250929050565b6000826114945750600161141e565b816114a15750600061141e565b81600181146114b757600281146114c1576114dd565b600191505061141e565b60ff8411156114d2576114d26113a1565b50506001821b61141e565b5060208310610133831016604e8410600b8410161715611500575081810a61141e565b61150a8383611424565b807fffffffffffffffffffffffffffffffffffffffffffffffffffffffffffffffff0482111561153c5761153c6113a1565b029392505050565b60006112d5838361148556fea2646970667358221220f66b234a4acf6a26cd16c41480be33f5732fc3dbc4b3f2c94cb8a7e64156fde764736f6c63430008130033",
    "linkReferences": {}
  },
  "methodIdentifiers": {
    "exitAllSystemCoins(address)": "2da46734",
    "exitCollateral(address,uint256)": "d6f25400",
    "exitSystemCoins(address,uint256)": "4f127f43",
    "joinSystemCoins(address,address,uint256)": "902746d7",
    "liquidateSAFE(address,address,bytes32,address)": "248ca36c",
    "popDebtFromQueue(address,address,uint256)": "3a7e013f",
    "startDebtAuction(address,address)": "072a368f",
    "startSurplusAuction(address,address)": "65205025",
    "transferExtraSurplus(address,address)": "75f94086",
    "updateCollateralPrice(address,address,bytes32)": "a6ab7736",
    "updateRedemptionRate(address,address)": "2f234f27"
  },
  "id": 127
}