{
  "abi": [
    {
      "inputs": [
        {
          "components": [
            {
              "internalType": "uint256",
              "name": "safeDebtCeiling",
              "type": "uint256"
            },
            {
              "internalType": "uint256",
              "name": "globalDebtCeiling",
              "type": "uint256"
            }
          ],
          "internalType": "struct ISAFEEngine.SAFEEngineParams",
          "name": "_safeEngineParams",
          "type": "tuple"
        }
      ],
      "stateMutability": "nonpayable",
      "type": "constructor"
    },
    {
      "inputs": [],
      "name": "AlreadyAuthorized",
      "type": "error"
    },
    {
      "inputs": [],
      "name": "ContractIsDisabled",
      "type": "error"
    },
    {
      "inputs": [],
      "name": "ContractIsEnabled",
      "type": "error"
    },
    {
      "inputs": [],
      "name": "IntOverflow",
      "type": "error"
    },
    {
      "inputs": [],
      "name": "NonDisableable",
      "type": "error"
    },
    {
      "inputs": [],
      "name": "NotAuthorized",
      "type": "error"
    },
    {
      "inputs": [],
      "name": "SAFEEng_CollateralDebtCeilingHit",
      "type": "error"
    },
    {
      "inputs": [],
      "name": "SAFEEng_CollateralTypeAlreadyExists",
      "type": "error"
    },
    {
      "inputs": [],
      "name": "SAFEEng_CollateralTypeNotInitialized",
      "type": "error"
    },
    {
      "inputs": [],
      "name": "SAFEEng_DustySAFE",
      "type": "error"
    },
    {
      "inputs": [],
      "name": "SAFEEng_GlobalDebtCeilingHit",
      "type": "error"
    },
    {
      "inputs": [],
      "name": "SAFEEng_NotCollateralSrcAllowed",
      "type": "error"
    },
    {
      "inputs": [],
      "name": "SAFEEng_NotDebtDstAllowed",
      "type": "error"
    },
    {
      "inputs": [],
      "name": "SAFEEng_NotSAFEAllowed",
      "type": "error"
    },
    {
      "inputs": [],
      "name": "SAFEEng_SAFEDebtCeilingHit",
      "type": "error"
    },
    {
      "inputs": [],
      "name": "SAFEEng_SAFENotSafe",
      "type": "error"
    },
    {
      "inputs": [],
      "name": "Unauthorized",
      "type": "error"
    },
    {
      "inputs": [],
      "name": "UnrecognizedCType",
      "type": "error"
    },
    {
      "inputs": [],
      "name": "UnrecognizedParam",
      "type": "error"
    },
    {
      "anonymous": false,
      "inputs": [
        {
          "indexed": false,
          "internalType": "address",
          "name": "_account",
          "type": "address"
        }
      ],
      "name": "AddAuthorization",
      "type": "event"
    },
    {
      "anonymous": false,
      "inputs": [
        {
          "indexed": false,
          "internalType": "address",
          "name": "_sender",
          "type": "address"
        },
        {
          "indexed": false,
          "internalType": "address",
          "name": "_account",
          "type": "address"
        }
      ],
      "name": "ApproveSAFEModification",
      "type": "event"
    },
    {
      "anonymous": false,
      "inputs": [
        {
          "indexed": true,
          "internalType": "bytes32",
          "name": "_cType",
          "type": "bytes32"
        },
        {
          "indexed": true,
          "internalType": "address",
          "name": "_safe",
          "type": "address"
        },
        {
          "indexed": false,
          "internalType": "address",
          "name": "_collateralSource",
          "type": "address"
        },
        {
          "indexed": false,
          "internalType": "address",
          "name": "_debtDestination",
          "type": "address"
        },
        {
          "indexed": false,
          "internalType": "int256",
          "name": "_deltaCollateral",
          "type": "int256"
        },
        {
          "indexed": false,
          "internalType": "int256",
          "name": "_deltaDebt",
          "type": "int256"
        }
      ],
      "name": "ConfiscateSAFECollateralAndDebt",
      "type": "event"
    },
    {
      "anonymous": false,
      "inputs": [
        {
          "indexed": true,
          "internalType": "address",
          "name": "_debtDestination",
          "type": "address"
        },
        {
          "indexed": true,
          "internalType": "address",
          "name": "_coinDestination",
          "type": "address"
        },
        {
          "indexed": false,
          "internalType": "uint256",
          "name": "_rad",
          "type": "uint256"
        }
      ],
      "name": "CreateUnbackedDebt",
      "type": "event"
    },
    {
      "anonymous": false,
      "inputs": [
        {
          "indexed": false,
          "internalType": "address",
          "name": "_sender",
          "type": "address"
        },
        {
          "indexed": false,
          "internalType": "address",
          "name": "_account",
          "type": "address"
        }
      ],
      "name": "DenySAFEModification",
      "type": "event"
    },
    {
      "anonymous": false,
      "inputs": [],
      "name": "DisableContract",
      "type": "event"
    },
    {
      "anonymous": false,
      "inputs": [
        {
          "indexed": false,
          "internalType": "bytes32",
          "name": "_cType",
          "type": "bytes32"
        }
      ],
      "name": "InitializeCollateralType",
      "type": "event"
    },
    {
      "anonymous": false,
      "inputs": [
        {
          "indexed": true,
          "internalType": "bytes32",
          "name": "_param",
          "type": "bytes32"
        },
        {
          "indexed": true,
          "internalType": "bytes32",
          "name": "_cType",
          "type": "bytes32"
        },
        {
          "indexed": false,
          "internalType": "bytes",
          "name": "_data",
          "type": "bytes"
        }
      ],
      "name": "ModifyParameters",
      "type": "event"
    },
    {
      "anonymous": false,
      "inputs": [
        {
          "indexed": true,
          "internalType": "bytes32",
          "name": "_cType",
          "type": "bytes32"
        },
        {
          "indexed": true,
          "internalType": "address",
          "name": "_safe",
          "type": "address"
        },
        {
          "indexed": false,
          "internalType": "address",
          "name": "_collateralSource",
          "type": "address"
        },
        {
          "indexed": false,
          "internalType": "address",
          "name": "_debtDestination",
          "type": "address"
        },
        {
          "indexed": false,
          "internalType": "int256",
          "name": "_deltaCollateral",
          "type": "int256"
        },
        {
          "indexed": false,
          "internalType": "int256",
          "name": "_deltaDebt",
          "type": "int256"
        }
      ],
      "name": "ModifySAFECollateralization",
      "type": "event"
    },
    {
      "anonymous": false,
      "inputs": [
        {
          "indexed": false,
          "internalType": "address",
          "name": "_account",
          "type": "address"
        }
      ],
      "name": "RemoveAuthorization",
      "type": "event"
    },
    {
      "anonymous": false,
      "inputs": [
        {
          "indexed": true,
          "internalType": "address",
          "name": "_account",
          "type": "address"
        },
        {
          "indexed": false,
          "internalType": "uint256",
          "name": "_rad",
          "type": "uint256"
        }
      ],
      "name": "SettleDebt",
      "type": "event"
    },
    {
      "anonymous": false,
      "inputs": [
        {
          "indexed": true,
          "internalType": "bytes32",
          "name": "_cType",
          "type": "bytes32"
        },
        {
          "indexed": true,
          "internalType": "address",
          "name": "_src",
          "type": "address"
        },
        {
          "indexed": true,
          "internalType": "address",
          "name": "_dst",
          "type": "address"
        },
        {
          "indexed": false,
          "internalType": "uint256",
          "name": "_wad",
          "type": "uint256"
        }
      ],
      "name": "TransferCollateral",
      "type": "event"
    },
    {
      "anonymous": false,
      "inputs": [
        {
          "indexed": true,
          "internalType": "address",
          "name": "_src",
          "type": "address"
        },
        {
          "indexed": true,
          "internalType": "address",
          "name": "_dst",
          "type": "address"
        },
        {
          "indexed": false,
          "internalType": "uint256",
          "name": "_rad",
          "type": "uint256"
        }
      ],
      "name": "TransferInternalCoins",
      "type": "event"
    },
    {
      "anonymous": false,
      "inputs": [
        {
          "indexed": true,
          "internalType": "bytes32",
          "name": "_cType",
          "type": "bytes32"
        },
        {
          "indexed": true,
          "internalType": "address",
          "name": "_src",
          "type": "address"
        },
        {
          "indexed": true,
          "internalType": "address",
          "name": "_dst",
          "type": "address"
        },
        {
          "indexed": false,
          "internalType": "int256",
          "name": "_deltaCollateral",
          "type": "int256"
        },
        {
          "indexed": false,
          "internalType": "int256",
          "name": "_deltaDebt",
          "type": "int256"
        }
      ],
      "name": "TransferSAFECollateralAndDebt",
      "type": "event"
    },
    {
      "anonymous": false,
      "inputs": [
        {
          "indexed": true,
          "internalType": "bytes32",
          "name": "_cType",
          "type": "bytes32"
        },
        {
          "indexed": false,
          "internalType": "address",
          "name": "_surplusDst",
          "type": "address"
        },
        {
          "indexed": false,
          "internalType": "int256",
          "name": "_rateMultiplier",
          "type": "int256"
        }
      ],
      "name": "UpdateAccumulatedRate",
      "type": "event"
    },
    {
      "anonymous": false,
      "inputs": [
        {
          "indexed": true,
          "internalType": "bytes32",
          "name": "_cType",
          "type": "bytes32"
        },
        {
          "indexed": false,
          "internalType": "uint256",
          "name": "_safetyPrice",
          "type": "uint256"
        },
        {
          "indexed": false,
          "internalType": "uint256",
          "name": "_liquidationPrice",
          "type": "uint256"
        }
      ],
      "name": "UpdateCollateralPrice",
      "type": "event"
    },
    {
      "inputs": [
        {
          "internalType": "bytes32",
          "name": "_cType",
          "type": "bytes32"
        }
      ],
      "name": "_cData",
      "outputs": [
        {
          "internalType": "uint256",
          "name": "debtAmount",
          "type": "uint256"
        },
        {
          "internalType": "uint256",
          "name": "lockedAmount",
          "type": "uint256"
        },
        {
          "internalType": "uint256",
          "name": "accumulatedRate",
          "type": "uint256"
        },
        {
          "internalType": "uint256",
          "name": "safetyPrice",
          "type": "uint256"
        },
        {
          "internalType": "uint256",
          "name": "liquidationPrice",
          "type": "uint256"
        }
      ],
      "stateMutability": "view",
      "type": "function"
    },
    {
      "inputs": [
        {
          "internalType": "bytes32",
          "name": "_cType",
          "type": "bytes32"
        }
      ],
      "name": "_cParams",
      "outputs": [
        {
          "internalType": "uint256",
          "name": "debtCeiling",
          "type": "uint256"
        },
        {
          "internalType": "uint256",
          "name": "debtFloor",
          "type": "uint256"
        }
      ],
      "stateMutability": "view",
      "type": "function"
    },
    {
      "inputs": [],
      "name": "_params",
      "outputs": [
        {
          "internalType": "uint256",
          "name": "safeDebtCeiling",
          "type": "uint256"
        },
        {
          "internalType": "uint256",
          "name": "globalDebtCeiling",
          "type": "uint256"
        }
      ],
      "stateMutability": "view",
      "type": "function"
    },
    {
      "inputs": [
        {
          "internalType": "bytes32",
          "name": "_cType",
          "type": "bytes32"
        },
        {
          "internalType": "address",
          "name": "_safe",
          "type": "address"
        }
      ],
      "name": "_safes",
      "outputs": [
        {
          "internalType": "uint256",
          "name": "lockedCollateral",
          "type": "uint256"
        },
        {
          "internalType": "uint256",
          "name": "generatedDebt",
          "type": "uint256"
        }
      ],
      "stateMutability": "view",
      "type": "function"
    },
    {
      "inputs": [
        {
          "internalType": "address",
          "name": "_account",
          "type": "address"
        }
      ],
      "name": "addAuthorization",
      "outputs": [],
      "stateMutability": "nonpayable",
      "type": "function"
    },
    {
      "inputs": [
        {
          "internalType": "address",
          "name": "_account",
          "type": "address"
        }
      ],
      "name": "approveSAFEModification",
      "outputs": [],
      "stateMutability": "nonpayable",
      "type": "function"
    },
    {
      "inputs": [
        {
          "internalType": "address",
          "name": "_account",
          "type": "address"
        }
      ],
      "name": "authorizedAccounts",
      "outputs": [
        {
          "internalType": "bool",
          "name": "_authorized",
          "type": "bool"
        }
      ],
      "stateMutability": "view",
      "type": "function"
    },
    {
      "inputs": [],
      "name": "authorizedAccounts",
      "outputs": [
        {
          "internalType": "address[]",
          "name": "_accounts",
          "type": "address[]"
        }
      ],
      "stateMutability": "view",
      "type": "function"
    },
    {
      "inputs": [
        {
          "internalType": "bytes32",
          "name": "_cType",
          "type": "bytes32"
        }
      ],
      "name": "cData",
      "outputs": [
        {
          "components": [
            {
              "internalType": "uint256",
              "name": "debtAmount",
              "type": "uint256"
            },
            {
              "internalType": "uint256",
              "name": "lockedAmount",
              "type": "uint256"
            },
            {
              "internalType": "uint256",
              "name": "accumulatedRate",
              "type": "uint256"
            },
            {
              "internalType": "uint256",
              "name": "safetyPrice",
              "type": "uint256"
            },
            {
              "internalType": "uint256",
              "name": "liquidationPrice",
              "type": "uint256"
            }
          ],
          "internalType": "struct ISAFEEngine.SAFEEngineCollateralData",
          "name": "_safeEngineCData",
          "type": "tuple"
        }
      ],
      "stateMutability": "view",
      "type": "function"
    },
    {
      "inputs": [
        {
          "internalType": "bytes32",
          "name": "_cType",
          "type": "bytes32"
        }
      ],
      "name": "cParams",
      "outputs": [
        {
          "components": [
            {
              "internalType": "uint256",
              "name": "debtCeiling",
              "type": "uint256"
            },
            {
              "internalType": "uint256",
              "name": "debtFloor",
              "type": "uint256"
            }
          ],
          "internalType": "struct ISAFEEngine.SAFEEngineCollateralParams",
          "name": "_safeEngineCParams",
          "type": "tuple"
        }
      ],
      "stateMutability": "view",
      "type": "function"
    },
    {
      "inputs": [
        {
          "internalType": "address",
          "name": "_safe",
          "type": "address"
        },
        {
          "internalType": "address",
          "name": "_account",
          "type": "address"
        }
      ],
      "name": "canModifySAFE",
      "outputs": [
        {
          "internalType": "bool",
          "name": "_canModifySafe",
          "type": "bool"
        }
      ],
      "stateMutability": "view",
      "type": "function"
    },
    {
      "inputs": [
        {
          "internalType": "address",
          "name": "_safe",
          "type": "address"
        }
      ],
      "name": "coinBalance",
      "outputs": [
        {
          "internalType": "uint256",
          "name": "",
          "type": "uint256"
        }
      ],
      "stateMutability": "view",
      "type": "function"
    },
    {
      "inputs": [],
      "name": "collateralList",
      "outputs": [
        {
          "internalType": "bytes32[]",
          "name": "__collateralList",
          "type": "bytes32[]"
        }
      ],
      "stateMutability": "view",
      "type": "function"
    },
    {
      "inputs": [
        {
          "internalType": "bytes32",
          "name": "_cType",
          "type": "bytes32"
        },
        {
          "internalType": "address",
          "name": "_safe",
          "type": "address"
        },
        {
          "internalType": "address",
          "name": "_collateralSource",
          "type": "address"
        },
        {
          "internalType": "address",
          "name": "_debtDestination",
          "type": "address"
        },
        {
          "internalType": "int256",
          "name": "_deltaCollateral",
          "type": "int256"
        },
        {
          "internalType": "int256",
          "name": "_deltaDebt",
          "type": "int256"
        }
      ],
      "name": "confiscateSAFECollateralAndDebt",
      "outputs": [],
      "stateMutability": "nonpayable",
      "type": "function"
    },
    {
      "inputs": [],
      "name": "contractEnabled",
      "outputs": [
        {
          "internalType": "bool",
          "name": "",
          "type": "bool"
        }
      ],
      "stateMutability": "view",
      "type": "function"
    },
    {
      "inputs": [
        {
          "internalType": "address",
          "name": "_debtDestination",
          "type": "address"
        },
        {
          "internalType": "address",
          "name": "_coinDestination",
          "type": "address"
        },
        {
          "internalType": "uint256",
          "name": "_rad",
          "type": "uint256"
        }
      ],
      "name": "createUnbackedDebt",
      "outputs": [],
      "stateMutability": "nonpayable",
      "type": "function"
    },
    {
      "inputs": [
        {
          "internalType": "address",
          "name": "_safe",
          "type": "address"
        }
      ],
      "name": "debtBalance",
      "outputs": [
        {
          "internalType": "uint256",
          "name": "",
          "type": "uint256"
        }
      ],
      "stateMutability": "view",
      "type": "function"
    },
    {
      "inputs": [
        {
          "internalType": "address",
          "name": "_account",
          "type": "address"
        }
      ],
      "name": "denySAFEModification",
      "outputs": [],
      "stateMutability": "nonpayable",
      "type": "function"
    },
    {
      "inputs": [],
      "name": "disableContract",
      "outputs": [],
      "stateMutability": "nonpayable",
      "type": "function"
    },
    {
      "inputs": [],
      "name": "globalDebt",
      "outputs": [
        {
          "internalType": "uint256",
          "name": "",
          "type": "uint256"
        }
      ],
      "stateMutability": "view",
      "type": "function"
    },
    {
      "inputs": [],
      "name": "globalUnbackedDebt",
      "outputs": [
        {
          "internalType": "uint256",
          "name": "",
          "type": "uint256"
        }
      ],
      "stateMutability": "view",
      "type": "function"
    },
    {
      "inputs": [
        {
          "internalType": "bytes32",
          "name": "_cType",
          "type": "bytes32"
        },
        {
          "components": [
            {
              "internalType": "uint256",
              "name": "debtCeiling",
              "type": "uint256"
            },
            {
              "internalType": "uint256",
              "name": "debtFloor",
              "type": "uint256"
            }
          ],
          "internalType": "struct ISAFEEngine.SAFEEngineCollateralParams",
          "name": "_safeEngineCParams",
          "type": "tuple"
        }
      ],
      "name": "initializeCollateralType",
      "outputs": [],
      "stateMutability": "nonpayable",
      "type": "function"
    },
    {
      "inputs": [
        {
          "internalType": "bytes32",
          "name": "_cType",
          "type": "bytes32"
        },
        {
          "internalType": "address",
          "name": "_account",
          "type": "address"
        },
        {
          "internalType": "int256",
          "name": "_wad",
          "type": "int256"
        }
      ],
      "name": "modifyCollateralBalance",
      "outputs": [],
      "stateMutability": "nonpayable",
      "type": "function"
    },
    {
      "inputs": [
        {
          "internalType": "bytes32",
          "name": "_cType",
          "type": "bytes32"
        },
        {
          "internalType": "bytes32",
          "name": "_param",
          "type": "bytes32"
        },
        {
          "internalType": "bytes",
          "name": "_data",
          "type": "bytes"
        }
      ],
      "name": "modifyParameters",
      "outputs": [],
      "stateMutability": "nonpayable",
      "type": "function"
    },
    {
      "inputs": [
        {
          "internalType": "bytes32",
          "name": "_param",
          "type": "bytes32"
        },
        {
          "internalType": "bytes",
          "name": "_data",
          "type": "bytes"
        }
      ],
      "name": "modifyParameters",
      "outputs": [],
      "stateMutability": "nonpayable",
      "type": "function"
    },
    {
      "inputs": [
        {
          "internalType": "bytes32",
          "name": "_cType",
          "type": "bytes32"
        },
        {
          "internalType": "address",
          "name": "_safe",
          "type": "address"
        },
        {
          "internalType": "address",
          "name": "_collateralSource",
          "type": "address"
        },
        {
          "internalType": "address",
          "name": "_debtDestination",
          "type": "address"
        },
        {
          "internalType": "int256",
          "name": "_deltaCollateral",
          "type": "int256"
        },
        {
          "internalType": "int256",
          "name": "_deltaDebt",
          "type": "int256"
        }
      ],
      "name": "modifySAFECollateralization",
      "outputs": [],
      "stateMutability": "nonpayable",
      "type": "function"
    },
    {
      "inputs": [],
      "name": "params",
      "outputs": [
        {
          "components": [
            {
              "internalType": "uint256",
              "name": "safeDebtCeiling",
              "type": "uint256"
            },
            {
              "internalType": "uint256",
              "name": "globalDebtCeiling",
              "type": "uint256"
            }
          ],
          "internalType": "struct ISAFEEngine.SAFEEngineParams",
          "name": "_safeEngineParams",
          "type": "tuple"
        }
      ],
      "stateMutability": "view",
      "type": "function"
    },
    {
      "inputs": [
        {
          "internalType": "address",
          "name": "_account",
          "type": "address"
        }
      ],
      "name": "removeAuthorization",
      "outputs": [],
      "stateMutability": "nonpayable",
      "type": "function"
    },
    {
      "inputs": [
        {
          "internalType": "address",
          "name": "_cType",
          "type": "address"
        },
        {
          "internalType": "address",
          "name": "_safe",
          "type": "address"
        }
      ],
      "name": "safeRights",
      "outputs": [
        {
          "internalType": "uint256",
          "name": "_isAllowed",
          "type": "uint256"
        }
      ],
      "stateMutability": "view",
      "type": "function"
    },
    {
      "inputs": [
        {
          "internalType": "bytes32",
          "name": "_cType",
          "type": "bytes32"
        },
        {
          "internalType": "address",
          "name": "_safe",
          "type": "address"
        }
      ],
      "name": "safes",
      "outputs": [
        {
          "components": [
            {
              "internalType": "uint256",
              "name": "lockedCollateral",
              "type": "uint256"
            },
            {
              "internalType": "uint256",
              "name": "generatedDebt",
              "type": "uint256"
            }
          ],
          "internalType": "struct ISAFEEngine.SAFE",
          "name": "_safeData",
          "type": "tuple"
        }
      ],
      "stateMutability": "view",
      "type": "function"
    },
    {
      "inputs": [
        {
          "internalType": "uint256",
          "name": "_rad",
          "type": "uint256"
        }
      ],
      "name": "settleDebt",
      "outputs": [],
      "stateMutability": "nonpayable",
      "type": "function"
    },
    {
      "inputs": [
        {
          "internalType": "bytes32",
          "name": "_cType",
          "type": "bytes32"
        },
        {
          "internalType": "address",
          "name": "_safe",
          "type": "address"
        }
      ],
      "name": "tokenCollateral",
      "outputs": [
        {
          "internalType": "uint256",
          "name": "",
          "type": "uint256"
        }
      ],
      "stateMutability": "view",
      "type": "function"
    },
    {
      "inputs": [
        {
          "internalType": "bytes32",
          "name": "_cType",
          "type": "bytes32"
        },
        {
          "internalType": "address",
          "name": "_source",
          "type": "address"
        },
        {
          "internalType": "address",
          "name": "_destination",
          "type": "address"
        },
        {
          "internalType": "uint256",
          "name": "_wad",
          "type": "uint256"
        }
      ],
      "name": "transferCollateral",
      "outputs": [],
      "stateMutability": "nonpayable",
      "type": "function"
    },
    {
      "inputs": [
        {
          "internalType": "address",
          "name": "_source",
          "type": "address"
        },
        {
          "internalType": "address",
          "name": "_destination",
          "type": "address"
        },
        {
          "internalType": "uint256",
          "name": "_rad",
          "type": "uint256"
        }
      ],
      "name": "transferInternalCoins",
      "outputs": [],
      "stateMutability": "nonpayable",
      "type": "function"
    },
    {
      "inputs": [
        {
          "internalType": "bytes32",
          "name": "_cType",
          "type": "bytes32"
        },
        {
          "internalType": "address",
          "name": "_src",
          "type": "address"
        },
        {
          "internalType": "address",
          "name": "_dst",
          "type": "address"
        },
        {
          "internalType": "int256",
          "name": "_deltaCollateral",
          "type": "int256"
        },
        {
          "internalType": "int256",
          "name": "_deltaDebt",
          "type": "int256"
        }
      ],
      "name": "transferSAFECollateralAndDebt",
      "outputs": [],
      "stateMutability": "nonpayable",
      "type": "function"
    },
    {
      "inputs": [
        {
          "internalType": "bytes32",
          "name": "_cType",
          "type": "bytes32"
        },
        {
          "internalType": "address",
          "name": "_surplusDst",
          "type": "address"
        },
        {
          "internalType": "int256",
          "name": "_rateMultiplier",
          "type": "int256"
        }
      ],
      "name": "updateAccumulatedRate",
      "outputs": [],
      "stateMutability": "nonpayable",
      "type": "function"
    },
    {
      "inputs": [
        {
          "internalType": "bytes32",
          "name": "_cType",
          "type": "bytes32"
        },
        {
          "internalType": "uint256",
          "name": "_safetyPrice",
          "type": "uint256"
        },
        {
          "internalType": "uint256",
          "name": "_liquidationPrice",
          "type": "uint256"
        }
      ],
      "name": "updateCollateralPrice",
      "outputs": [],
      "stateMutability": "nonpayable",
      "type": "function"
    }
  ],
  "bytecode": {
    "object": "0x60806040526002805460ff191660011790553480156200001e57600080fd5b5060405162002b8238038062002b8283398101604081905262000041916200013d565b336200004d8162000060565b508051600355602001516004556200019b565b6200006d600082620000cb565b15620000b2576040516001600160a01b03821681527f599a298163e1678bb1c676052a8930bf0b8a1261ed6e01b8a2391e55f70001029060200160405180910390a150565b604051633013e93f60e11b815260040160405180910390fd5b6000620000e2836001600160a01b038416620000eb565b90505b92915050565b60008181526001830160205260408120546200013457508154600181810184556000848152602080822090930184905584548482528286019093526040902091909155620000e5565b506000620000e5565b6000604082840312156200015057600080fd5b604080519081016001600160401b03811182821017156200018157634e487b7160e01b600052604160045260246000fd5b604052825181526020928301519281019290925250919050565b6129d780620001ab6000396000f3fe608060405234801561001057600080fd5b50600436106102775760003560e01c80634e14a9671161016057806394f3f81d116100d8578063d94d42081161008c578063e54201f611610071578063e54201f614610688578063efabcadc146106d4578063fabde80c146106e757600080fd5b8063d94d420814610662578063da8a4bb81461067557600080fd5b8063b6e05a2e116100bd578063b6e05a2e146105cd578063cff0ab9614610622578063d49d78671461064f57600080fd5b806394f3f81d146105a757806399bec315146105ba57600080fd5b80636798b3231161012f578063802503411161011457806380250341146105815780638543d5e014610596578063894ba8331461059f57600080fd5b80636798b3231461054357806376e0b4ca1461055657600080fd5b80634e14a967146104fc5780634e5111a61461050f57806350de215d14610522578063552b16ab1461053557600080fd5b80631d674705116101f357806335b28153116101c257806341b3a0d9116101a757806341b3a0d9146104c9578063476bb6ef146104d65780634a11825e146104e957600080fd5b806335b281531461044f5780633d4225041461046257600080fd5b80631d674705146103dd57806324ba58841461040457806327a0bb33146104275780632e3918761461043a57600080fd5b8063142f1ab01161024a5780631a6efcfc1161022f5780631a6efcfc1461037a5780631b142820146103c15780631d2a783d146103d457600080fd5b8063142f1ab0146103025780631529c3e91461036757600080fd5b806306eb54df1461027c5780630e9e11d3146102ba57806311005b07146102cf57806312f33526146102ef575b600080fd5b6102a761028a366004612348565b600860209081526000928352604080842090915290825290205481565b6040519081526020015b60405180910390f35b6102cd6102c836600461237b565b610707565b005b6102a76102dd3660046123b0565b600d6020526000908152604090205481565b6102cd6102fd3660046124a5565b61080a565b61033f6103103660046124f5565b600660205260009081526040902080546001820154600283015460038401546004909401549293919290919085565b604080519586526020860194909452928401919091526060830152608082015260a0016102b1565b6102cd61037536600461250e565b610895565b6103ac61038836600461253a565b60076020908152600092835260408084209091529082529020805460019091015482565b604080519283526020830191909152016102b1565b6102cd6103cf36600461255d565b61096b565b6102a7600f5481565b6103ac6103eb3660046124f5565b6005602052600090815260409020805460019091015482565b6104176104123660046123b0565b610a55565b60405190151581526020016102b1565b6102cd6104353660046124f5565b610a66565b610442610afa565b6040516102b19190612589565b6102cd61045d3660046123b0565b610b0b565b6104bc61047036600461253a565b60408051808201825260008082526020918201819052938452600781528184206001600160a01b0393909316845291825291829020825180840190935280548352600101549082015290565b6040516102b191906125d6565b6002546104179060ff1681565b6102cd6104e43660046125ed565b610b92565b6102cd6104f736600461237b565b610f3e565b6102cd61050a36600461263b565b610f8d565b6102cd61051d36600461269a565b6110ed565b610417610530366004612348565b6111f5565b6003546004546103ac919082565b6102cd6105513660046126de565b611243565b6102a761056436600461253a565b600b60209081526000928352604080842090915290825290205481565b610589611331565b6040516102b19190612768565b6102a7600e5481565b6102cd61133d565b6102cd6105b53660046123b0565b61140b565b6102cd6105c836600461263b565b61148f565b6105e06105db3660046124f5565b61188d565b6040516102b19190600060a082019050825182526020830151602083015260408301516040830152606083015160608301526080830151608083015292915050565b604080518082018252600080825260209182015281518083019092526003548252600454908201526104bc565b6102cd61065d3660046123b0565b61190e565b6102cd6106703660046123b0565b611972565b6102cd6106833660046127a0565b6119d0565b6104bc6106963660046124f5565b604080518082019091526000808252602082015250600090815260056020908152604091829020825180840190935280548352600101549082015290565b6102cd6106e236600461255d565b611a59565b6102a76106f53660046123b0565b600c6020526000908152604090205481565b61071033611b4b565b610746576040517f82b4290000000000000000000000000000000000000000000000000000000000815260040160405180910390fd5b60025460ff16610782576040517f7abbf1c900000000000000000000000000000000000000000000000000000000815260040160405180910390fd5b6000838152600660205260409020600281015461079f9083611b57565b600282015580546000906107b39084611b84565b90506107bf8482611b9a565b604080516001600160a01b03861681526020810185905286917f41c8972c2d32edd3e129afb3e8efdd94d76649039a2f8e525ffbdaf28d8183fa910160405180910390a25050505050565b61081333611b4b565b610849576040517f82b4290000000000000000000000000000000000000000000000000000000000815260040160405180910390fd5b82610855848484611c71565b83837fe436a8be7dc6aab90b400800ecc86e46fb600f2e18989b5d0389840fdabbf2ed8460405161088691906127e7565b60405180910390a35b50505050565b61089e33611b4b565b6108d4576040517f82b4290000000000000000000000000000000000000000000000000000000000815260040160405180910390fd5b60025460ff16610910576040517f7abbf1c900000000000000000000000000000000000000000000000000000000815260040160405180910390fd5b60008381526006602090815260409182902060038101859055600401839055815184815290810183905284917e5150d8e1bf341ed4649251c05931a71ffd8f857710db3f20fbab3d7abd6af1910160405180910390a2505050565b61097433611b4b565b6109aa576040517f82b4290000000000000000000000000000000000000000000000000000000000815260040160405180910390fd5b6001600160a01b0383166000908152600d6020526040812080548392906109d2908490612882565b909155506109ea9050826109e583611dac565b611b9a565b80600f60008282546109fc9190612882565b92505081905550816001600160a01b0316836001600160a01b03167ff182230004e4ab0b80cf979f234e9b748a02a0d127edcd65602583796a86a6cd83604051610a4891815260200190565b60405180910390a3505050565b6000610a6082611b4b565b92915050565b336000818152600d602052604081208054849290610a85908490612895565b90915550610aa1905081610a9884611dac565b6109e5906128a8565b81600f6000828254610ab39190612895565b90915550506040518281526001600160a01b038216907ff4c701c5e94d2191e6dd72254be2402d2ce58e44e28803057398bd104066906f9060200160405180910390a25050565b6060610b066000611ded565b905090565b610b1433611b4b565b610b4a576040517f82b4290000000000000000000000000000000000000000000000000000000000815260040160405180910390fd5b60025460ff16610b86576040517f7abbf1c900000000000000000000000000000000000000000000000000000000815260040160405180910390fd5b610b8f81611dfa565b50565b8333610b9e82826111f5565b610bd4576040517f4df694a100000000000000000000000000000000000000000000000000000000815260040160405180910390fd5b8433610be082826111f5565b610c16576040517f4df694a100000000000000000000000000000000000000000000000000000000815260040160405180910390fd5b610c328989610c24896128a8565b610c2d896128a8565b611e75565b610c3e89898989611ecc565b610c4a89888888611e75565b6000600760008b815260200190815260200160002060008a6001600160a01b03166001600160a01b031681526020019081526020016000206040518060400160405290816000820154815260200160018201548152505090506000600760008c815260200190815260200160002060008a6001600160a01b03166001600160a01b031681526020019081526020016000206040518060400160405290816000820154815260200160018201548152505090506000600560008d81526020019081526020016000206040518060400160405290816000820154815260200160018201548152505090506000600660008e81526020019081526020016000206040518060a0016040529081600082015481526020016001820154815260200160028201548152602001600382015481526020016004820154815250509050600081604001518560200151610d9c91906128e0565b9050600082604001518560200151610db491906128e0565b905060036000015486602001511180610dd257506003546020860151115b15610e09576040517f8c77698d00000000000000000000000000000000000000000000000000000000815260040160405180910390fd5b60608301518651610e1a91906128e0565b821180610e36575060608301518551610e3391906128e0565b81115b15610e6d576040517f1f44179400000000000000000000000000000000000000000000000000000000815260040160405180910390fd5b836020015182108015610e835750602086015115155b80610e9f5750836020015181108015610e9f5750602085015115155b15610ed6576040517fbc8beb5f00000000000000000000000000000000000000000000000000000000815260040160405180910390fd5b505050505050866001600160a01b0316886001600160a01b03168a7f40e09e7e7e72d55a00a19f8799833985349b5d6b98c7e48b06573cbea23d27b78989604051610f2b929190918252602082015260400190565b60405180910390a4505050505050505050565b610f4733611b4b565b610f7d576040517f82b4290000000000000000000000000000000000000000000000000000000000815260040160405180910390fd5b610f88838383611f84565b505050565b610f9633611b4b565b610fcc576040517f82b4290000000000000000000000000000000000000000000000000000000000815260040160405180910390fd5b6000868152600660205260409020610fed8786610fe8866128a8565b611f84565b610ffa8760008886611ecc565b61100687878585611e75565b80546110129083611b57565b815560018101546110239084611b57565b6001820155600281015460009061103a9084611b84565b6001600160a01b0386166000908152600d60205260409020549091506110609082611fe4565b6001600160a01b0386166000908152600d6020526040902055600f546110869082611fe4565b600f55604080516001600160a01b0388811682528781166020830152918101869052606081018590529088169089907fbdf5d594f9e7107dfd834cf97db94fbf81c54b5d37ba2659603102b1a6d1d410906080015b60405180910390a35050505050505050565b82336110f982826111f5565b61112f576040517f4df694a100000000000000000000000000000000000000000000000000000000815260040160405180910390fd5b6000868152600b602090815260408083206001600160a01b038916845290915281208054859290611161908490612895565b90915550506000868152600b602090815260408083206001600160a01b038816845290915281208054859290611198908490612882565b92505081905550836001600160a01b0316856001600160a01b0316877fb08760a077e71005cf3651212fdbd4028d6ebc8e1844c0475f36000f2756c0d7866040516111e591815260200190565b60405180910390a4505050505050565b6000816001600160a01b0316836001600160a01b0316148061123c57506001600160a01b038084166000908152600860209081526040808320938616835292905220546001145b9392505050565b61124c33611b4b565b611282576040517f82b4290000000000000000000000000000000000000000000000000000000000815260040160405180910390fd5b61128d60098361200a565b6112c3576040517fb4669cba00000000000000000000000000000000000000000000000000000000815260040160405180910390fd5b60008281526006602090815260408083206b033b2e3c9fd0803ce80000006002909101556005825291829020835181558382015160019091015590518381527f715b265758bcd4ecd311bede8dcca05c4b5819e0a2a5c4103abd702862ae2c35910160405180910390a15050565b6060610b066009611ded565b61134633611b4b565b61137c576040517f82b4290000000000000000000000000000000000000000000000000000000000815260040160405180910390fd5b60025460ff166113b8576040517f7abbf1c900000000000000000000000000000000000000000000000000000000815260040160405180910390fd5b600280547fffffffffffffffffffffffffffffffffffffffffffffffffffffffffffffff001690556040517f2d4b4ecff7bd7503135271925520a2f6c0d98c9473ffc1a1e72c92502f51b25e90600090a1565b61141433611b4b565b61144a576040517f82b4290000000000000000000000000000000000000000000000000000000000815260040160405180910390fd5b60025460ff16611486576040517f7abbf1c900000000000000000000000000000000000000000000000000000000815260040160405180910390fd5b610b8f81612016565b60025460ff166114cb576040517f7abbf1c900000000000000000000000000000000000000000000000000000000815260040160405180910390fd5b60008681526006602052604081206002810154909103611517576040517fcc8fbb2900000000000000000000000000000000000000000000000000000000815260040160405180910390fd5b6115258786610fe8866128a8565b6115328760008886611ecc565b61153e87878585611e75565b805461154a9083611b57565b8155600181015461155b9084611b57565b600182015560028101546000906115729084611b84565b905061157e8582611b9a565b60008881526005602090815260408083208151808301835281548152600191820154818501528c8552600784528285206001600160a01b038d1686528452828520835180850190945280548452909101549282018390526002860154909391926115e7916128e0565b905060008613156116c057600454600e541115611630576040517f4d0b26ae00000000000000000000000000000000000000000000000000000000815260040160405180910390fd5b82516002860154865461164391906128e0565b111561167b576040517f787cf02c00000000000000000000000000000000000000000000000000000000815260040160405180910390fd5b600354602083015111156116bb576040517f8c77698d00000000000000000000000000000000000000000000000000000000815260040160405180910390fd5b611700565b6116ca88336111f5565b611700576040517f62c26e9a00000000000000000000000000000000000000000000000000000000815260040160405180910390fd5b600086138061170f5750600087125b1561179e576003850154825161172591906128e0565b81111561175e576040517f1f44179400000000000000000000000000000000000000000000000000000000815260040160405180910390fd5b6117688a336111f5565b61179e576040517f4df694a100000000000000000000000000000000000000000000000000000000815260040160405180910390fd5b60008713156117e7576117b189336111f5565b6117e7576040517f3820cfbf00000000000000000000000000000000000000000000000000000000815260040160405180910390fd5b6020820151158015906117fd5750826020015181105b15611834576040517fbc8beb5f00000000000000000000000000000000000000000000000000000000815260040160405180910390fd5b5050604080516001600160a01b038981168252888116602083015291810187905260608101869052908916915089907f492d9125544aeeadf8d92a731108635e3e9dabe4e1ab7d7f57279e28c04a6d17906080016110db565b6118bf6040518060a0016040528060008152602001600081526020016000815260200160008152602001600081525090565b50600090815260066020908152604091829020825160a0810184528154815260018201549281019290925260028101549282019290925260038201546060820152600490910154608082015290565b3360008181526008602090815260408083206001600160a01b038616808552908352818420939093558051938452908301919091527fb1b0368dbc2a1d366ba32be3f455812a3db862c3f52fd3434020a262442b1bb091015b60405180910390a150565b3360008181526008602090815260408083206001600160a01b03861680855290835292819020600190558051938452908301919091527ff7db8b086d1ab5e5802059364bff5428c7622c6d4623f9780947306d492770539101611967565b6119d933611b4b565b611a0f576040517f82b4290000000000000000000000000000000000000000000000000000000000815260040160405180910390fd5b611a198282612091565b6000801b827fe436a8be7dc6aab90b400800ecc86e46fb600f2e18989b5d0389840fdabbf2ed83604051611a4d91906127e7565b60405180910390a35050565b8233611a6582826111f5565b611a9b576040517f4df694a100000000000000000000000000000000000000000000000000000000815260040160405180910390fd5b6001600160a01b0385166000908152600c602052604081208054859290611ac3908490612895565b90915550506001600160a01b0384166000908152600c602052604081208054859290611af0908490612882565b92505081905550836001600160a01b0316856001600160a01b03167f4cd53b0b754082a31f5a6f3dc965c36d1d901c309830e0b4c17949aff97f0b1485604051611b3c91815260200190565b60405180910390a35050505050565b6000610a608183612138565b6000808212611b7157611b6a8284612882565b9050610a60565b611b7a826128a8565b611b6a9084612895565b600081611b9084611dac565b61123c91906128f7565b6001600160a01b0382166000908152600c6020526040902054611bbd9082611b57565b6001600160a01b0383166000908152600c6020526040902055600e54611be39082611b57565b600e556000811315611c2d576040518181526001600160a01b038316906000907f4cd53b0b754082a31f5a6f3dc965c36d1d901c309830e0b4c17949aff97f0b1490602001611a4d565b60006001600160a01b0383167f4cd53b0b754082a31f5a6f3dc965c36d1d901c309830e0b4c17949aff97f0b14611c63846128a8565b604051908152602001611a4d565b60025460ff16611cad576040517f7abbf1c900000000000000000000000000000000000000000000000000000000815260040160405180910390fd5b6000611cba826020015190565b9050611cc760098561215a565b611cfd576040517f98fc17bd00000000000000000000000000000000000000000000000000000000815260040160405180910390fd5b827f646562744365696c696e6700000000000000000000000000000000000000000003611d3a57600084815260056020526040902081905561088f565b827f64656274466c6f6f72000000000000000000000000000000000000000000000003611d7a57600084815260056020526040902060010181905561088f565b6040517f9d2ff48000000000000000000000000000000000000000000000000000000000815260040160405180910390fd5b806000811215611de8576040517f44dddea200000000000000000000000000000000000000000000000000000000815260040160405180910390fd5b919050565b6060600061123c83612172565b611e056000826121ce565b15611e43576040516001600160a01b03821681527f599a298163e1678bb1c676052a8930bf0b8a1261ed6e01b8a2391e55f700010290602001611967565b6040517f6027d27e00000000000000000000000000000000000000000000000000000000815260040160405180910390fd5b60008481526007602090815260408083206001600160a01b038716845290915290208054611ea39084611b57565b81556001810154611eb49083611b57565b6001820155611ec585853086611ecc565b5050505050565b801561088f5760008112611f2d57816001600160a01b0316836001600160a01b0316857fb08760a077e71005cf3651212fdbd4028d6ebc8e1844c0475f36000f2756c0d784604051611f2091815260200190565b60405180910390a461088f565b826001600160a01b0316826001600160a01b0316857fb08760a077e71005cf3651212fdbd4028d6ebc8e1844c0475f36000f2756c0d784611f6d906128a8565b60405190815260200160405180910390a450505050565b6000838152600b602090815260408083206001600160a01b0386168452909152902054611fb19082611b57565b6000848152600b602090815260408083206001600160a01b0387168452909152812091909155610f889084908484611ecc565b6000808212611ff757611b6a8284612895565b612000826128a8565b611b6a9084612882565b600061123c83836121df565b61202160008261222e565b1561205f576040516001600160a01b03821681527f8834a87e641e9716be4f34527af5d23e11624f1ddeefede6ad75a9acfc31b90390602001611967565b6040517fea8e4eb500000000000000000000000000000000000000000000000000000000815260040160405180910390fd5b60025460ff166120cd576040517f7abbf1c900000000000000000000000000000000000000000000000000000000815260040160405180910390fd5b60006120da826020015190565b9050827f676c6f62616c446562744365696c696e670000000000000000000000000000000361210a576004555050565b827f73616665446562744365696c696e67000000000000000000000000000000000003611d7a576003555050565b6001600160a01b0381166000908152600183016020526040812054151561123c565b6000818152600183016020526040812054151561123c565b6060816000018054806020026020016040519081016040528092919081815260200182805480156121c257602002820191906000526020600020905b8154815260200190600101908083116121ae575b50505050509050919050565b600061123c836001600160a01b0384165b600081815260018301602052604081205461222657508154600181810184556000848152602080822090930184905584548482528286019093526040902091909155610a60565b506000610a60565b600061123c836001600160a01b03841660008181526001830160205260408120548015612327576000612262600183612895565b855490915060009061227690600190612895565b90508181146122db57600086600001828154811061229657612296612943565b90600052602060002001549050808760000184815481106122b9576122b9612943565b6000918252602080832090910192909255918252600188019052604090208390555b85548690806122ec576122ec612972565b600190038181906000526020600020016000905590558560010160008681526020019081526020016000206000905560019350505050610a60565b6000915050610a60565b80356001600160a01b0381168114611de857600080fd5b6000806040838503121561235b57600080fd5b61236483612331565b915061237260208401612331565b90509250929050565b60008060006060848603121561239057600080fd5b833592506123a060208501612331565b9150604084013590509250925092565b6000602082840312156123c257600080fd5b61123c82612331565b7f4e487b7100000000000000000000000000000000000000000000000000000000600052604160045260246000fd5b600082601f83011261240b57600080fd5b813567ffffffffffffffff80821115612426576124266123cb565b604051601f83017fffffffffffffffffffffffffffffffffffffffffffffffffffffffffffffffe0908116603f0116810190828211818310171561246c5761246c6123cb565b8160405283815286602085880101111561248557600080fd5b836020870160208301376000602085830101528094505050505092915050565b6000806000606084860312156124ba57600080fd5b8335925060208401359150604084013567ffffffffffffffff8111156124df57600080fd5b6124eb868287016123fa565b9150509250925092565b60006020828403121561250757600080fd5b5035919050565b60008060006060848603121561252357600080fd5b505081359360208301359350604090920135919050565b6000806040838503121561254d57600080fd5b8235915061237260208401612331565b60008060006060848603121561257257600080fd5b61257b84612331565b92506123a060208501612331565b6020808252825182820181905260009190848201906040850190845b818110156125ca5783516001600160a01b0316835292840192918401916001016125a5565b50909695505050505050565b815181526020808301519082015260408101610a60565b600080600080600060a0868803121561260557600080fd5b8535945061261560208701612331565b935061262360408701612331565b94979396509394606081013594506080013592915050565b60008060008060008060c0878903121561265457600080fd5b8635955061266460208801612331565b945061267260408801612331565b935061268060608801612331565b92506080870135915060a087013590509295509295509295565b600080600080608085870312156126b057600080fd5b843593506126c060208601612331565b92506126ce60408601612331565b9396929550929360600135925050565b60008082840360608112156126f257600080fd5b8335925060407fffffffffffffffffffffffffffffffffffffffffffffffffffffffffffffffe08201121561272657600080fd5b506040516040810181811067ffffffffffffffff8211171561274a5761274a6123cb565b60409081526020858101358352940135938101939093525092909150565b6020808252825182820181905260009190848201906040850190845b818110156125ca57835183529284019291840191600101612784565b600080604083850312156127b357600080fd5b82359150602083013567ffffffffffffffff8111156127d157600080fd5b6127dd858286016123fa565b9150509250929050565b600060208083528351808285015260005b81811015612814578581018301518582016040015282016127f8565b5060006040828601015260407fffffffffffffffffffffffffffffffffffffffffffffffffffffffffffffffe0601f8301168501019250505092915050565b7f4e487b7100000000000000000000000000000000000000000000000000000000600052601160045260246000fd5b80820180821115610a6057610a60612853565b81810381811115610a6057610a60612853565b60007f800000000000000000000000000000000000000000000000000000000000000082036128d9576128d9612853565b5060000390565b8082028115828204841417610a6057610a60612853565b808202600082127f80000000000000000000000000000000000000000000000000000000000000008414161561292f5761292f612853565b8181058314821517610a6057610a60612853565b7f4e487b7100000000000000000000000000000000000000000000000000000000600052603260045260246000fd5b7f4e487b7100000000000000000000000000000000000000000000000000000000600052603160045260246000fdfea26469706673582212206ee32e5ecba00645d80f635b237c910ace25686ff61d9b7905c133880c8b1ca864736f6c63430008130033",
    "linkReferences": {}
  },
  "methodIdentifiers": {
    "_cData(bytes32)": "142f1ab0",
    "_cParams(bytes32)": "1d674705",
    "_params()": "552b16ab",
    "_safes(bytes32,address)": "1a6efcfc",
    "addAuthorization(address)": "35b28153",
    "approveSAFEModification(address)": "d94d4208",
    "authorizedAccounts()": "2e391876",
    "authorizedAccounts(address)": "24ba5884",
    "cData(bytes32)": "b6e05a2e",
    "cParams(bytes32)": "e54201f6",
    "canModifySAFE(address,address)": "50de215d",
    "coinBalance(address)": "fabde80c",
    "collateralList()": "80250341",
    "confiscateSAFECollateralAndDebt(bytes32,address,address,address,int256,int256)": "4e14a967",
    "contractEnabled()": "41b3a0d9",
    "createUnbackedDebt(address,address,uint256)": "1b142820",
    "debtBalance(address)": "11005b07",
    "denySAFEModification(address)": "d49d7867",
    "disableContract()": "894ba833",
    "globalDebt()": "8543d5e0",
    "globalUnbackedDebt()": "1d2a783d",
    "initializeCollateralType(bytes32,(uint256,uint256))": "6798b323",
    "modifyCollateralBalance(bytes32,address,int256)": "4a11825e",
    "modifyParameters(bytes32,bytes)": "da8a4bb8",
    "modifyParameters(bytes32,bytes32,bytes)": "12f33526",
    "modifySAFECollateralization(bytes32,address,address,address,int256,int256)": "99bec315",
    "params()": "cff0ab96",
    "removeAuthorization(address)": "94f3f81d",
    "safeRights(address,address)": "06eb54df",
    "safes(bytes32,address)": "3d422504",
    "settleDebt(uint256)": "27a0bb33",
    "tokenCollateral(bytes32,address)": "76e0b4ca",
    "transferCollateral(bytes32,address,address,uint256)": "4e5111a6",
    "transferInternalCoins(address,address,uint256)": "efabcadc",
    "transferSAFECollateralAndDebt(bytes32,address,address,int256,int256)": "476bb6ef",
    "updateAccumulatedRate(bytes32,address,int256)": "0e9e11d3",
    "updateCollateralPrice(bytes32,uint256,uint256)": "1529c3e9"
  },
  "id": 58
}