{
  "abi": [
    {
      "inputs": [
        {
          "internalType": "address",
          "name": "_accountingEngine",
          "type": "address"
        },
        {
          "internalType": "address",
          "name": "_surplusAuctionHouse",
          "type": "address"
        }
      ],
      "stateMutability": "nonpayable",
      "type": "constructor"
    },
    {
      "inputs": [],
      "name": "AlreadyAuthorized",
      "type": "error"
    },
    {
      "inputs": [],
      "name": "NotAuthorized",
      "type": "error"
    },
    {
      "inputs": [],
      "name": "NullAddress",
      "type": "error"
    },
    {
      "inputs": [],
      "name": "SSA_AccountingEngineStillEnabled",
      "type": "error"
    },
    {
      "inputs": [],
      "name": "SSA_SurplusAuctionDelayNotPassed",
      "type": "error"
    },
    {
      "inputs": [],
      "name": "Unauthorized",
      "type": "error"
    },
    {
      "inputs": [],
      "name": "UnrecognizedCType",
      "type": "error"
    },
    {
      "inputs": [],
      "name": "UnrecognizedParam",
      "type": "error"
    },
    {
      "anonymous": false,
      "inputs": [
        {
          "indexed": false,
          "internalType": "address",
          "name": "_account",
          "type": "address"
        }
      ],
      "name": "AddAuthorization",
      "type": "event"
    },
    {
      "anonymous": false,
      "inputs": [
        {
          "indexed": true,
          "internalType": "uint256",
          "name": "_id",
          "type": "uint256"
        },
        {
          "indexed": false,
          "internalType": "uint256",
          "name": "_lastSurplusAuctionTime",
          "type": "uint256"
        },
        {
          "indexed": false,
          "internalType": "uint256",
          "name": "_coinBalance",
          "type": "uint256"
        }
      ],
      "name": "AuctionSurplus",
      "type": "event"
    },
    {
      "anonymous": false,
      "inputs": [
        {
          "indexed": true,
          "internalType": "bytes32",
          "name": "_param",
          "type": "bytes32"
        },
        {
          "indexed": true,
          "internalType": "bytes32",
          "name": "_cType",
          "type": "bytes32"
        },
        {
          "indexed": false,
          "internalType": "bytes",
          "name": "_data",
          "type": "bytes"
        }
      ],
      "name": "ModifyParameters",
      "type": "event"
    },
    {
      "anonymous": false,
      "inputs": [
        {
          "indexed": false,
          "internalType": "address",
          "name": "_account",
          "type": "address"
        }
      ],
      "name": "RemoveAuthorization",
      "type": "event"
    },
    {
      "inputs": [],
      "name": "accountingEngine",
      "outputs": [
        {
          "internalType": "contract IAccountingEngine",
          "name": "",
          "type": "address"
        }
      ],
      "stateMutability": "view",
      "type": "function"
    },
    {
      "inputs": [
        {
          "internalType": "address",
          "name": "_account",
          "type": "address"
        }
      ],
      "name": "addAuthorization",
      "outputs": [],
      "stateMutability": "nonpayable",
      "type": "function"
    },
    {
      "inputs": [],
      "name": "auctionSurplus",
      "outputs": [
        {
          "internalType": "uint256",
          "name": "_id",
          "type": "uint256"
        }
      ],
      "stateMutability": "nonpayable",
      "type": "function"
    },
    {
      "inputs": [
        {
          "internalType": "address",
          "name": "_account",
          "type": "address"
        }
      ],
      "name": "authorizedAccounts",
      "outputs": [
        {
          "internalType": "bool",
          "name": "_authorized",
          "type": "bool"
        }
      ],
      "stateMutability": "view",
      "type": "function"
    },
    {
      "inputs": [],
      "name": "authorizedAccounts",
      "outputs": [
        {
          "internalType": "address[]",
          "name": "_accounts",
          "type": "address[]"
        }
      ],
      "stateMutability": "view",
      "type": "function"
    },
    {
      "inputs": [],
      "name": "lastSurplusTime",
      "outputs": [
        {
          "internalType": "uint256",
          "name": "",
          "type": "uint256"
        }
      ],
      "stateMutability": "view",
      "type": "function"
    },
    {
      "inputs": [
        {
          "internalType": "bytes32",
          "name": "_cType",
          "type": "bytes32"
        },
        {
          "internalType": "bytes32",
          "name": "_param",
          "type": "bytes32"
        },
        {
          "internalType": "bytes",
          "name": "_data",
          "type": "bytes"
        }
      ],
      "name": "modifyParameters",
      "outputs": [],
      "stateMutability": "nonpayable",
      "type": "function"
    },
    {
      "inputs": [
        {
          "internalType": "bytes32",
          "name": "_param",
          "type": "bytes32"
        },
        {
          "internalType": "bytes",
          "name": "_data",
          "type": "bytes"
        }
      ],
      "name": "modifyParameters",
      "outputs": [],
      "stateMutability": "nonpayable",
      "type": "function"
    },
    {
      "inputs": [
        {
          "internalType": "address",
          "name": "_account",
          "type": "address"
        }
      ],
      "name": "removeAuthorization",
      "outputs": [],
      "stateMutability": "nonpayable",
      "type": "function"
    },
    {
      "inputs": [],
      "name": "safeEngine",
      "outputs": [
        {
          "internalType": "contract ISAFEEngine",
          "name": "",
          "type": "address"
        }
      ],
      "stateMutability": "view",
      "type": "function"
    },
    {
      "inputs": [],
      "name": "surplusAuctionHouse",
      "outputs": [
        {
          "internalType": "contract ISurplusAuctionHouse",
          "name": "",
          "type": "address"
        }
      ],
      "stateMutability": "view",
      "type": "function"
    }
  ],
  "bytecode": {
    "object": "0x60806040523480156200001157600080fd5b50604051620013d9380380620013d98339810160408190526200003491620002b4565b3362000040816200018e565b50620000556001600160a01b038316620001fc565b600380546001600160a01b0319166001600160a01b039283161790556200007e908216620001fc565b600480546001600160a01b0319166001600160a01b03928316178155600354604080516367aea31360e01b8152905191909316926367aea31392818101926020929091908290030181865afa158015620000dc573d6000803e3d6000fd5b505050506040513d601f19601f82011682018060405250810190620001029190620002f3565b600580546001600160a01b0319166001600160a01b0392831690811790915560048054604051631b29a84160e31b81529316908301529063d94d420890602401600060405180830381600087803b1580156200015d57600080fd5b505af115801562000172573d6000803e3d6000fd5b50505050620001866200022a60201b60201c565b50506200031a565b6200019b6000826200022c565b15620001e0576040516001600160a01b03821681527f599a298163e1678bb1c676052a8930bf0b8a1261ed6e01b8a2391e55f70001029060200160405180910390a150565b604051633013e93f60e11b815260040160405180910390fd5b50565b60006001600160a01b038216620002265760405163e99d5ac560e01b815260040160405180910390fd5b5090565b565b600062000243836001600160a01b0384166200024c565b90505b92915050565b6000818152600183016020526040812054620002955750815460018181018455600084815260208082209093018490558454848252828601909352604090209190915562000246565b50600062000246565b6001600160a01b0381168114620001f957600080fd5b60008060408385031215620002c857600080fd5b8251620002d5816200029e565b6020840151909250620002e8816200029e565b809150509250929050565b6000602082840312156200030657600080fd5b815162000313816200029e565b9392505050565b6110af806200032a6000396000f3fe608060405234801561001057600080fd5b50600436106100c95760003560e01c806369264ffa11610081578063cdacaaca1161005b578063cdacaaca146101c2578063da8a4bb8146101e2578063ff713a9f146101f557600080fd5b806369264ffa1461017857806394f3f81d1461018f578063961d45c4146101a257600080fd5b80632e391876116100b25780632e3918761461010b57806335b281531461012057806367aea3131461013357600080fd5b806312f33526146100ce57806324ba5884146100e3575b600080fd5b6100e16100dc366004610d68565b6101fd565b005b6100f66100f1366004610db8565b610287565b60405190151581526020015b60405180910390f35b610113610298565b6040516101029190610dee565b6100e161012e366004610db8565b6102a9565b6005546101539073ffffffffffffffffffffffffffffffffffffffff1681565b60405173ffffffffffffffffffffffffffffffffffffffff9091168152602001610102565b61018160025481565b604051908152602001610102565b6100e161019d366004610db8565b6102f4565b6003546101539073ffffffffffffffffffffffffffffffffffffffff1681565b6004546101539073ffffffffffffffffffffffffffffffffffffffff1681565b6100e16101f0366004610e48565b61033c565b6101816103c5565b6102063361070f565b61023c576040517f82b4290000000000000000000000000000000000000000000000000000000000815260040160405180910390fd5b8261024884848461071b565b83837fe436a8be7dc6aab90b400800ecc86e46fb600f2e18989b5d0389840fdabbf2ed846040516102799190610e8f565b60405180910390a350505050565b60006102928261070f565b92915050565b60606102a4600061074d565b905090565b6102b23361070f565b6102e8576040517f82b4290000000000000000000000000000000000000000000000000000000000815260040160405180910390fd5b6102f181610761565b50565b6102fd3361070f565b610333576040517f82b4290000000000000000000000000000000000000000000000000000000000815260040160405180910390fd5b6102f1816107f0565b6103453361070f565b61037b576040517f82b4290000000000000000000000000000000000000000000000000000000000815260040160405180910390fd5b6103858282610878565b6000801b827fe436a8be7dc6aab90b400800ecc86e46fb600f2e18989b5d0389840fdabbf2ed836040516103b99190610e8f565b60405180910390a35050565b600354604080517f41b3a0d9000000000000000000000000000000000000000000000000000000008152905160009273ffffffffffffffffffffffffffffffffffffffff16916341b3a0d99160048083019260209291908290030181865afa158015610435573d6000803e3d6000fd5b505050506040513d601f19601f820116820180604052508101906104599190610efb565b15610490576040517f2765505000000000000000000000000000000000000000000000000000000000815260040160405180910390fd5b600354604080517fcff0ab96000000000000000000000000000000000000000000000000000000008152905160009273ffffffffffffffffffffffffffffffffffffffff169163cff0ab96916004808301926101009291908290030181865afa158015610501573d6000803e3d6000fd5b505050506040513d601f19601f820116820180604052508101906105259190610f1d565b905080602001516002546105399190610fdc565b421015610572576040517f7733930b00000000000000000000000000000000000000000000000000000000815260040160405180910390fd5b426002556005546040517ffabde80c00000000000000000000000000000000000000000000000000000000815230600482015260009173ffffffffffffffffffffffffffffffffffffffff169063fabde80c90602401602060405180830381865afa1580156105e5573d6000803e3d6000fd5b505050506040513d601f19601f820116820180604052508101906106099190610fef565b9050600061061b828460800151610928565b9050801561070957600480546040517f4fee13fc0000000000000000000000000000000000000000000000000000000081529182018390526000602483015273ffffffffffffffffffffffffffffffffffffffff1690634fee13fc906044016020604051808303816000875af1158015610699573d6000803e3d6000fd5b505050506040513d601f19601f820116820180604052508101906106bd9190610fef565b9350837f7d0821ff1f59d07fef9cd0f28753cd787fc228208807379c23b9eecddccd6b0760025483856106f09190611008565b6040805192835260208301919091520160405180910390a25b50505090565b6000610292818361093f565b6040517f9d2ff48000000000000000000000000000000000000000000000000000000000815260040160405180910390fd5b6060600061075a8361096e565b9392505050565b61076c6000826109ca565b156107be5760405173ffffffffffffffffffffffffffffffffffffffff821681527f599a298163e1678bb1c676052a8930bf0b8a1261ed6e01b8a2391e55f7000102906020015b60405180910390a150565b6040517f6027d27e00000000000000000000000000000000000000000000000000000000815260040160405180910390fd5b6107fb6000826109ec565b156108465760405173ffffffffffffffffffffffffffffffffffffffff821681527f8834a87e641e9716be4f34527af5d23e11624f1ddeefede6ad75a9acfc31b903906020016107b3565b6040517fea8e4eb500000000000000000000000000000000000000000000000000000000815260040160405180910390fd5b6000610885826020015190565b9050827f6163636f756e74696e67456e67696e6500000000000000000000000000000000036108f357600380547fffffffffffffffffffffffff00000000000000000000000000000000000000001673ffffffffffffffffffffffffffffffffffffffff8316179055505050565b827f737572706c757341756374696f6e486f757365000000000000000000000000000361071b5761092381610a0e565b505050565b600081831115610938578161075a565b5090919050565b73ffffffffffffffffffffffffffffffffffffffff81166000908152600183016020526040812054151561075a565b6060816000018054806020026020016040519081016040528092919081815260200182805480156109be57602002820191906000526020600020905b8154815260200190600101908083116109aa575b50505050509050919050565b600061075a8373ffffffffffffffffffffffffffffffffffffffff8416610b4c565b600061075a8373ffffffffffffffffffffffffffffffffffffffff8416610b9b565b600554600480546040517fd49d786700000000000000000000000000000000000000000000000000000000815273ffffffffffffffffffffffffffffffffffffffff918216928101929092529091169063d49d786790602401600060405180830381600087803b158015610a8157600080fd5b505af1158015610a95573d6000803e3d6000fd5b5050600480547fffffffffffffffffffffffff00000000000000000000000000000000000000001673ffffffffffffffffffffffffffffffffffffffff85811691821783556005546040517fd94d42080000000000000000000000000000000000000000000000000000000081529384019290925216925063d94d42089150602401600060405180830381600087803b158015610b3157600080fd5b505af1158015610b45573d6000803e3d6000fd5b5050505050565b6000818152600183016020526040812054610b9357508154600181810184556000848152602080822090930184905584548482528286019093526040902091909155610292565b506000610292565b60008181526001830160205260408120548015610c84576000610bbf600183611008565b8554909150600090610bd390600190611008565b9050818114610c38576000866000018281548110610bf357610bf361101b565b9060005260206000200154905080876000018481548110610c1657610c1661101b565b6000918252602080832090910192909255918252600188019052604090208390555b8554869080610c4957610c4961104a565b600190038181906000526020600020016000905590558560010160008681526020019081526020016000206000905560019350505050610292565b6000915050610292565b7f4e487b7100000000000000000000000000000000000000000000000000000000600052604160045260246000fd5b600082601f830112610cce57600080fd5b813567ffffffffffffffff80821115610ce957610ce9610c8e565b604051601f83017fffffffffffffffffffffffffffffffffffffffffffffffffffffffffffffffe0908116603f01168101908282118183101715610d2f57610d2f610c8e565b81604052838152866020858801011115610d4857600080fd5b836020870160208301376000602085830101528094505050505092915050565b600080600060608486031215610d7d57600080fd5b8335925060208401359150604084013567ffffffffffffffff811115610da257600080fd5b610dae86828701610cbd565b9150509250925092565b600060208284031215610dca57600080fd5b813573ffffffffffffffffffffffffffffffffffffffff8116811461075a57600080fd5b6020808252825182820181905260009190848201906040850190845b81811015610e3c57835173ffffffffffffffffffffffffffffffffffffffff1683529284019291840191600101610e0a565b50909695505050505050565b60008060408385031215610e5b57600080fd5b82359150602083013567ffffffffffffffff811115610e7957600080fd5b610e8585828601610cbd565b9150509250929050565b600060208083528351808285015260005b81811015610ebc57858101830151858201604001528201610ea0565b5060006040828601015260407fffffffffffffffffffffffffffffffffffffffffffffffffffffffffffffffe0601f8301168501019250505092915050565b600060208284031215610f0d57600080fd5b8151801515811461075a57600080fd5b6000610100808385031215610f3157600080fd5b6040519081019067ffffffffffffffff82118183101715610f5457610f54610c8e565b81604052835181526020840151602082015260408401516040820152606084015160608201526080840151608082015260a084015160a082015260c084015160c082015260e084015160e0820152809250505092915050565b7f4e487b7100000000000000000000000000000000000000000000000000000000600052601160045260246000fd5b8082018082111561029257610292610fad565b60006020828403121561100157600080fd5b5051919050565b8181038181111561029257610292610fad565b7f4e487b7100000000000000000000000000000000000000000000000000000000600052603260045260246000fd5b7f4e487b7100000000000000000000000000000000000000000000000000000000600052603160045260246000fdfea264697066735822122011e3d7b1e26a11a2f82abbd8e9f9b54013f0c09ab4a8498212c169860e7fb87a64736f6c63430008130033",
    "linkReferences": {}
  },
  "methodIdentifiers": {
    "accountingEngine()": "961d45c4",
    "addAuthorization(address)": "35b28153",
    "auctionSurplus()": "ff713a9f",
    "authorizedAccounts()": "2e391876",
    "authorizedAccounts(address)": "24ba5884",
    "lastSurplusTime()": "69264ffa",
    "modifyParameters(bytes32,bytes)": "da8a4bb8",
    "modifyParameters(bytes32,bytes32,bytes)": "12f33526",
    "removeAuthorization(address)": "94f3f81d",
    "safeEngine()": "67aea313",
    "surplusAuctionHouse()": "cdacaaca"
  },
  "id": 131
}