{
  "abi": [
    {
      "inputs": [
        {
          "internalType": "address",
          "name": "_safeEngine",
          "type": "address"
        },
        {
          "internalType": "address",
          "name": "_extraSurplusReceiver",
          "type": "address"
        },
        {
          "internalType": "address",
          "name": "_coinJoin",
          "type": "address"
        },
        {
          "components": [
            {
              "internalType": "uint256",
              "name": "treasuryCapacity",
              "type": "uint256"
            },
            {
              "internalType": "uint256",
              "name": "pullFundsMinThreshold",
              "type": "uint256"
            },
            {
              "internalType": "uint256",
              "name": "surplusTransferDelay",
              "type": "uint256"
            }
          ],
          "internalType": "struct IStabilityFeeTreasury.StabilityFeeTreasuryParams",
          "name": "_sfTreasuryParams",
          "type": "tuple"
        }
      ],
      "stateMutability": "nonpayable",
      "type": "constructor"
    },
    {
      "inputs": [],
      "name": "AlreadyAuthorized",
      "type": "error"
    },
    {
      "inputs": [],
      "name": "ContractIsDisabled",
      "type": "error"
    },
    {
      "inputs": [],
      "name": "ContractIsEnabled",
      "type": "error"
    },
    {
      "inputs": [],
      "name": "NonDisableable",
      "type": "error"
    },
    {
      "inputs": [],
      "name": "NotAuthorized",
      "type": "error"
    },
    {
      "inputs": [],
      "name": "NullAddress",
      "type": "error"
    },
    {
      "inputs": [],
      "name": "SFTreasury_AccountCannotBeTreasury",
      "type": "error"
    },
    {
      "inputs": [],
      "name": "SFTreasury_BelowPullFundsMinThreshold",
      "type": "error"
    },
    {
      "inputs": [],
      "name": "SFTreasury_DstCannotBeAccounting",
      "type": "error"
    },
    {
      "inputs": [],
      "name": "SFTreasury_NotAllowed",
      "type": "error"
    },
    {
      "inputs": [],
      "name": "SFTreasury_NotEnoughFunds",
      "type": "error"
    },
    {
      "inputs": [],
      "name": "SFTreasury_NotEnoughSurplus",
      "type": "error"
    },
    {
      "inputs": [],
      "name": "SFTreasury_NullTransferAmount",
      "type": "error"
    },
    {
      "inputs": [],
      "name": "SFTreasury_OutstandingBadDebt",
      "type": "error"
    },
    {
      "inputs": [],
      "name": "SFTreasury_PerHourLimitExceeded",
      "type": "error"
    },
    {
      "inputs": [],
      "name": "SFTreasury_TransferCooldownNotPassed",
      "type": "error"
    },
    {
      "inputs": [],
      "name": "Unauthorized",
      "type": "error"
    },
    {
      "inputs": [],
      "name": "UnrecognizedCType",
      "type": "error"
    },
    {
      "inputs": [],
      "name": "UnrecognizedParam",
      "type": "error"
    },
    {
      "anonymous": false,
      "inputs": [
        {
          "indexed": false,
          "internalType": "address",
          "name": "_account",
          "type": "address"
        }
      ],
      "name": "AddAuthorization",
      "type": "event"
    },
    {
      "anonymous": false,
      "inputs": [],
      "name": "DisableContract",
      "type": "event"
    },
    {
      "anonymous": false,
      "inputs": [
        {
          "indexed": true,
          "internalType": "address",
          "name": "_account",
          "type": "address"
        },
        {
          "indexed": false,
          "internalType": "uint256",
          "name": "_rad",
          "type": "uint256"
        }
      ],
      "name": "GiveFunds",
      "type": "event"
    },
    {
      "anonymous": false,
      "inputs": [
        {
          "indexed": false,
          "internalType": "uint256",
          "name": "_wad",
          "type": "uint256"
        }
      ],
      "name": "JoinCoins",
      "type": "event"
    },
    {
      "anonymous": false,
      "inputs": [
        {
          "indexed": true,
          "internalType": "bytes32",
          "name": "_param",
          "type": "bytes32"
        },
        {
          "indexed": true,
          "internalType": "bytes32",
          "name": "_cType",
          "type": "bytes32"
        },
        {
          "indexed": false,
          "internalType": "bytes",
          "name": "_data",
          "type": "bytes"
        }
      ],
      "name": "ModifyParameters",
      "type": "event"
    },
    {
      "anonymous": false,
      "inputs": [
        {
          "indexed": true,
          "internalType": "address",
          "name": "_sender",
          "type": "address"
        },
        {
          "indexed": true,
          "internalType": "address",
          "name": "_dstAccount",
          "type": "address"
        },
        {
          "indexed": false,
          "internalType": "uint256",
          "name": "_rad",
          "type": "uint256"
        }
      ],
      "name": "PullFunds",
      "type": "event"
    },
    {
      "anonymous": false,
      "inputs": [
        {
          "indexed": false,
          "internalType": "address",
          "name": "_account",
          "type": "address"
        }
      ],
      "name": "RemoveAuthorization",
      "type": "event"
    },
    {
      "anonymous": false,
      "inputs": [
        {
          "indexed": true,
          "internalType": "address",
          "name": "_account",
          "type": "address"
        },
        {
          "indexed": false,
          "internalType": "uint256",
          "name": "_rad",
          "type": "uint256"
        }
      ],
      "name": "SetPerHourAllowance",
      "type": "event"
    },
    {
      "anonymous": false,
      "inputs": [
        {
          "indexed": true,
          "internalType": "address",
          "name": "_account",
          "type": "address"
        },
        {
          "indexed": false,
          "internalType": "uint256",
          "name": "_rad",
          "type": "uint256"
        }
      ],
      "name": "SetTotalAllowance",
      "type": "event"
    },
    {
      "anonymous": false,
      "inputs": [
        {
          "indexed": false,
          "internalType": "uint256",
          "name": "_rad",
          "type": "uint256"
        }
      ],
      "name": "SettleDebt",
      "type": "event"
    },
    {
      "anonymous": false,
      "inputs": [
        {
          "indexed": true,
          "internalType": "address",
          "name": "_account",
          "type": "address"
        },
        {
          "indexed": false,
          "internalType": "uint256",
          "name": "_rad",
          "type": "uint256"
        }
      ],
      "name": "TakeFunds",
      "type": "event"
    },
    {
      "anonymous": false,
      "inputs": [
        {
          "indexed": false,
          "internalType": "address",
          "name": "_extraSurplusReceiver",
          "type": "address"
        },
        {
          "indexed": false,
          "internalType": "uint256",
          "name": "_fundsToTransfer",
          "type": "uint256"
        }
      ],
      "name": "TransferSurplusFunds",
      "type": "event"
    },
    {
      "inputs": [
        {
          "internalType": "address",
          "name": "",
          "type": "address"
        }
      ],
      "name": "_allowance",
      "outputs": [
        {
          "internalType": "uint256",
          "name": "total",
          "type": "uint256"
        },
        {
          "internalType": "uint256",
          "name": "perHour",
          "type": "uint256"
        }
      ],
      "stateMutability": "view",
      "type": "function"
    },
    {
      "inputs": [],
      "name": "_params",
      "outputs": [
        {
          "internalType": "uint256",
          "name": "treasuryCapacity",
          "type": "uint256"
        },
        {
          "internalType": "uint256",
          "name": "pullFundsMinThreshold",
          "type": "uint256"
        },
        {
          "internalType": "uint256",
          "name": "surplusTransferDelay",
          "type": "uint256"
        }
      ],
      "stateMutability": "view",
      "type": "function"
    },
    {
      "inputs": [
        {
          "internalType": "address",
          "name": "_account",
          "type": "address"
        }
      ],
      "name": "addAuthorization",
      "outputs": [],
      "stateMutability": "nonpayable",
      "type": "function"
    },
    {
      "inputs": [
        {
          "internalType": "address",
          "name": "_account",
          "type": "address"
        }
      ],
      "name": "allowance",
      "outputs": [
        {
          "components": [
            {
              "internalType": "uint256",
              "name": "total",
              "type": "uint256"
            },
            {
              "internalType": "uint256",
              "name": "perHour",
              "type": "uint256"
            }
          ],
          "internalType": "struct IStabilityFeeTreasury.Allowance",
          "name": "__allowance",
          "type": "tuple"
        }
      ],
      "stateMutability": "view",
      "type": "function"
    },
    {
      "inputs": [
        {
          "internalType": "address",
          "name": "_account",
          "type": "address"
        }
      ],
      "name": "authorizedAccounts",
      "outputs": [
        {
          "internalType": "bool",
          "name": "_authorized",
          "type": "bool"
        }
      ],
      "stateMutability": "view",
      "type": "function"
    },
    {
      "inputs": [],
      "name": "authorizedAccounts",
      "outputs": [
        {
          "internalType": "address[]",
          "name": "_accounts",
          "type": "address[]"
        }
      ],
      "stateMutability": "view",
      "type": "function"
    },
    {
      "inputs": [],
      "name": "coinJoin",
      "outputs": [
        {
          "internalType": "contract ICoinJoin",
          "name": "",
          "type": "address"
        }
      ],
      "stateMutability": "view",
      "type": "function"
    },
    {
      "inputs": [],
      "name": "contractEnabled",
      "outputs": [
        {
          "internalType": "bool",
          "name": "",
          "type": "bool"
        }
      ],
      "stateMutability": "view",
      "type": "function"
    },
    {
      "inputs": [],
      "name": "disableContract",
      "outputs": [],
      "stateMutability": "nonpayable",
      "type": "function"
    },
    {
      "inputs": [],
      "name": "extraSurplusReceiver",
      "outputs": [
        {
          "internalType": "address",
          "name": "",
          "type": "address"
        }
      ],
      "stateMutability": "view",
      "type": "function"
    },
    {
      "inputs": [
        {
          "internalType": "address",
          "name": "_account",
          "type": "address"
        },
        {
          "internalType": "uint256",
          "name": "_rad",
          "type": "uint256"
        }
      ],
      "name": "giveFunds",
      "outputs": [],
      "stateMutability": "nonpayable",
      "type": "function"
    },
    {
      "inputs": [],
      "name": "latestSurplusTransferTime",
      "outputs": [
        {
          "internalType": "uint256",
          "name": "",
          "type": "uint256"
        }
      ],
      "stateMutability": "view",
      "type": "function"
    },
    {
      "inputs": [
        {
          "internalType": "bytes32",
          "name": "_cType",
          "type": "bytes32"
        },
        {
          "internalType": "bytes32",
          "name": "_param",
          "type": "bytes32"
        },
        {
          "internalType": "bytes",
          "name": "_data",
          "type": "bytes"
        }
      ],
      "name": "modifyParameters",
      "outputs": [],
      "stateMutability": "nonpayable",
      "type": "function"
    },
    {
      "inputs": [
        {
          "internalType": "bytes32",
          "name": "_param",
          "type": "bytes32"
        },
        {
          "internalType": "bytes",
          "name": "_data",
          "type": "bytes"
        }
      ],
      "name": "modifyParameters",
      "outputs": [],
      "stateMutability": "nonpayable",
      "type": "function"
    },
    {
      "inputs": [],
      "name": "params",
      "outputs": [
        {
          "components": [
            {
              "internalType": "uint256",
              "name": "treasuryCapacity",
              "type": "uint256"
            },
            {
              "internalType": "uint256",
              "name": "pullFundsMinThreshold",
              "type": "uint256"
            },
            {
              "internalType": "uint256",
              "name": "surplusTransferDelay",
              "type": "uint256"
            }
          ],
          "internalType": "struct IStabilityFeeTreasury.StabilityFeeTreasuryParams",
          "name": "_sfTreasuryParams",
          "type": "tuple"
        }
      ],
      "stateMutability": "view",
      "type": "function"
    },
    {
      "inputs": [
        {
          "internalType": "address",
          "name": "_dstAccount",
          "type": "address"
        },
        {
          "internalType": "uint256",
          "name": "_wad",
          "type": "uint256"
        }
      ],
      "name": "pullFunds",
      "outputs": [],
      "stateMutability": "nonpayable",
      "type": "function"
    },
    {
      "inputs": [
        {
          "internalType": "address",
          "name": "",
          "type": "address"
        },
        {
          "internalType": "uint256",
          "name": "",
          "type": "uint256"
        }
      ],
      "name": "pulledPerHour",
      "outputs": [
        {
          "internalType": "uint256",
          "name": "",
          "type": "uint256"
        }
      ],
      "stateMutability": "view",
      "type": "function"
    },
    {
      "inputs": [
        {
          "internalType": "address",
          "name": "_account",
          "type": "address"
        }
      ],
      "name": "removeAuthorization",
      "outputs": [],
      "stateMutability": "nonpayable",
      "type": "function"
    },
    {
      "inputs": [],
      "name": "safeEngine",
      "outputs": [
        {
          "internalType": "contract ISAFEEngine",
          "name": "",
          "type": "address"
        }
      ],
      "stateMutability": "view",
      "type": "function"
    },
    {
      "inputs": [
        {
          "internalType": "address",
          "name": "_account",
          "type": "address"
        },
        {
          "internalType": "uint256",
          "name": "_rad",
          "type": "uint256"
        }
      ],
      "name": "setPerHourAllowance",
      "outputs": [],
      "stateMutability": "nonpayable",
      "type": "function"
    },
    {
      "inputs": [
        {
          "internalType": "address",
          "name": "_account",
          "type": "address"
        },
        {
          "internalType": "uint256",
          "name": "_rad",
          "type": "uint256"
        }
      ],
      "name": "setTotalAllowance",
      "outputs": [],
      "stateMutability": "nonpayable",
      "type": "function"
    },
    {
      "inputs": [],
      "name": "settleDebt",
      "outputs": [
        {
          "internalType": "uint256",
          "name": "_coinBalance",
          "type": "uint256"
        },
        {
          "internalType": "uint256",
          "name": "_debtBalance",
          "type": "uint256"
        }
      ],
      "stateMutability": "nonpayable",
      "type": "function"
    },
    {
      "inputs": [],
      "name": "systemCoin",
      "outputs": [
        {
          "internalType": "contract ISystemCoin",
          "name": "",
          "type": "address"
        }
      ],
      "stateMutability": "view",
      "type": "function"
    },
    {
      "inputs": [
        {
          "internalType": "address",
          "name": "_account",
          "type": "address"
        },
        {
          "internalType": "uint256",
          "name": "_rad",
          "type": "uint256"
        }
      ],
      "name": "takeFunds",
      "outputs": [],
      "stateMutability": "nonpayable",
      "type": "function"
    },
    {
      "inputs": [],
      "name": "transferSurplusFunds",
      "outputs": [],
      "stateMutability": "nonpayable",
      "type": "function"
    }
  ],
  "bytecode": {
    "object": "0x60806040526002805460ff191660011790553480156200001e57600080fd5b50604051620023af380380620023af833981016040819052620000419162000330565b336200004d81620001f5565b50620000626001600160a01b03851662000263565b60028054610100600160a81b0319166101006001600160a01b03938416021790556200009090831662000263565b600480546001600160a01b039283166001600160a01b03199182168117835560058054948816949092169390931790556040805163a7e9445560e01b8152905162000134939263a7e94455928082019260209290918290030181865afa158015620000ff573d6000803e3d6000fd5b505050506040513d601f19601f82011682018060405250810190620001259190620003ef565b6001600160a01b031662000263565b600380546001600160a01b0319166001600160a01b0392831690811790915542600b558251600655602083015160075560408084015160085560048054915163095ea7b360e01b8152919093169281019290925260001960248301529063095ea7b3906044016020604051808303816000875af1158015620001ba573d6000803e3d6000fd5b505050506040513d601f19601f82011682018060405250810190620001e0919062000416565b50620001eb62000291565b505050506200043a565b62000202600082620002a8565b1562000247576040516001600160a01b03821681527f599a298163e1678bb1c676052a8930bf0b8a1261ed6e01b8a2391e55f70001029060200160405180910390a150565b604051633013e93f60e11b815260040160405180910390fd5b50565b60006001600160a01b0382166200028d5760405163e99d5ac560e01b815260040160405180910390fd5b5090565b60055462000260906001600160a01b031662000263565b6000620002bf836001600160a01b038416620002c8565b90505b92915050565b60008181526001830160205260408120546200031157508154600181810184556000848152602080822090930184905584548482528286019093526040902091909155620002c2565b506000620002c2565b6001600160a01b03811681146200026057600080fd5b60008060008084860360c08112156200034857600080fd5b855162000355816200031a565b602087015190955062000368816200031a565b60408701519094506200037b816200031a565b92506060605f19820112156200039057600080fd5b50604051606081016001600160401b0381118282101715620003c257634e487b7160e01b600052604160045260246000fd5b8060405250606086015181526080860151602082015260a086015160408201528091505092959194509250565b6000602082840312156200040257600080fd5b81516200040f816200031a565b9392505050565b6000602082840312156200042957600080fd5b815180151581146200040f57600080fd5b611f65806200044a6000396000f3fe608060405234801561001057600080fd5b50600436106101a35760003560e01c8063552b16ab116100ee578063a7e9445511610097578063c6cdbcbb11610071578063c6cdbcbb14610402578063cff0ab9614610415578063da8a4bb81461043f578063fe3a3b801461045257600080fd5b8063a7e94455146103d4578063aafb96b6146103e7578063c4cc9253146103ef57600080fd5b806379b5f040116100c857806379b5f040146103b0578063894ba833146103b957806394f3f81d146103c157600080fd5b8063552b16ab1461035857806367aea313146103855780636e7dd9171461039d57600080fd5b8063375460cc1161015057806343e9c6b01161012a57806343e9c6b01461032a5780634e6afb9e1461033d578063505239bf1461035057600080fd5b8063375460cc146102715780633e5beab9146102ad57806341b3a0d91461031d57600080fd5b80632e391876116101815780632e3918761461021e57806330413a2a1461023357806335b281531461025e57600080fd5b806310f84099146101a857806312f33526146101e657806324ba5884146101fb575b600080fd5b6101d36101b6366004611ba2565b600a60209081526000928352604080842090915290825290205481565b6040519081526020015b60405180910390f35b6101f96101f4366004611ca6565b610465565b005b61020e610209366004611cf6565b6104ef565b60405190151581526020016101dd565b610226610500565b6040516101dd9190611d11565b600454610246906001600160a01b031681565b6040516001600160a01b0390911681526020016101dd565b6101f961026c366004611cf6565b610511565b61029861027f366004611cf6565b6009602052600090815260409020805460019091015482565b604080519283526020830191909152016101dd565b6103026102bb366004611cf6565b6040805180820190915260008082526020820152506001600160a01b0316600090815260096020908152604091829020825180840190935280548352600101549082015290565b604080518251815260209283015192810192909252016101dd565b60025461020e9060ff1681565b6101f9610338366004611ba2565b61055c565b600554610246906001600160a01b031681565b6101f9610664565b60065460075460085461036a92919083565b604080519384526020840192909252908201526060016101dd565b6002546102469061010090046001600160a01b031681565b6101f96103ab366004611ba2565b610828565b6101d3600b5481565b6101f9610a1d565b6101f96103cf366004611cf6565b610af3565b600354610246906001600160a01b031681565b610298610b3b565b6101f96103fd366004611ba2565b610b4e565b6101f9610410366004611ba2565b610c96565b61041d6110b2565b60408051825181526020808401519082015291810151908201526060016101dd565b6101f961044d366004611d5e565b6110fb565b6101f9610460366004611ba2565b61118c565b61046e33611287565b6104a4576040517f82b4290000000000000000000000000000000000000000000000000000000000815260040160405180910390fd5b826104b08484846112a7565b83837fe436a8be7dc6aab90b400800ecc86e46fb600f2e18989b5d0389840fdabbf2ed846040516104e19190611da5565b60405180910390a350505050565b60006104fa82611287565b92915050565b606061050c60006112d9565b905090565b61051a33611287565b610550576040517f82b4290000000000000000000000000000000000000000000000000000000000815260040160405180910390fd5b610559816112ed565b50565b61056533611287565b61059b576040517f82b4290000000000000000000000000000000000000000000000000000000000815260040160405180910390fd5b81306001600160a01b038216036105de576040517f0864a63200000000000000000000000000000000000000000000000000000000815260040160405180910390fd5b81600960006105f5866001600160a01b031661136f565b6001600160a01b03166001600160a01b0316815260200190815260200160002060000181905550826001600160a01b03167f2c5e94d86b8348fb36d52453e5460c21e506c0fa8a48a721d021490e22ece3eb8360405161065791815260200190565b60405180910390a2505050565b600854600b546106749190611e40565b4210156106ad576040517f2b64676600000000000000000000000000000000000000000000000000000000815260040160405180910390fd5b6106b56113b5565b6000806106c06114f2565b91509150806000146106fe576040517f6c14957d00000000000000000000000000000000000000000000000000000000815260040160405180910390fd5b6006548211610739576040517f310834fc00000000000000000000000000000000000000000000000000000000815260040160405180910390fd5b42600b5560065460009061074d9084611e53565b6002546005546040517fefabcadc0000000000000000000000000000000000000000000000000000000081523060048201526001600160a01b03918216602482015260448101849052929350610100909104169063efabcadc90606401600060405180830381600087803b1580156107c457600080fd5b505af11580156107d8573d6000803e3d6000fd5b5050600554604080516001600160a01b039092168252602082018590527f405ec0d46a8a982eb3d6a307ca6e12b0a8c5b178bd7b41dd6aec3232fccc83c1935001905060405180910390a1505050565b61083133611287565b610867576040517f82b4290000000000000000000000000000000000000000000000000000000000815260040160405180910390fd5b81306001600160a01b038216036108aa576040517f0864a63200000000000000000000000000000000000000000000000000000000815260040160405180910390fd5b6108bc836001600160a01b031661136f565b506108c56113b5565b6000806108d06114f2565b915091508060001461090e576040517f6c14957d00000000000000000000000000000000000000000000000000000000815260040160405180910390fd5b83821015610948576040517f4f3b83ec00000000000000000000000000000000000000000000000000000000815260040160405180910390fd5b6002546040517fefabcadc0000000000000000000000000000000000000000000000000000000081523060048201526001600160a01b038781166024830152604482018790526101009092049091169063efabcadc90606401600060405180830381600087803b1580156109bb57600080fd5b505af11580156109cf573d6000803e3d6000fd5b50505050846001600160a01b03167f1dee639be31fd4861215d4df840404c8ff791bd467d61956d244f9dec039f5a585604051610a0e91815260200190565b60405180910390a25050505050565b610a2633611287565b610a5c576040517f82b4290000000000000000000000000000000000000000000000000000000000815260040160405180910390fd5b60025460ff16610a98576040517f7abbf1c900000000000000000000000000000000000000000000000000000000815260040160405180910390fd5b600280547fffffffffffffffffffffffffffffffffffffffffffffffffffffffffffffff00169055610ac86116f3565b6040517f2d4b4ecff7bd7503135271925520a2f6c0d98c9473ffc1a1e72c92502f51b25e90600090a1565b610afc33611287565b610b32576040517f82b4290000000000000000000000000000000000000000000000000000000000815260040160405180910390fd5b61055981611818565b600080610b466114f2565b915091509091565b610b5733611287565b610b8d576040517f82b4290000000000000000000000000000000000000000000000000000000000815260040160405180910390fd5b81306001600160a01b03821603610bd0576040517f0864a63200000000000000000000000000000000000000000000000000000000815260040160405180910390fd5b6002546040517fefabcadc0000000000000000000000000000000000000000000000000000000081526001600160a01b038581166004830152306024830152604482018590526101009092049091169063efabcadc90606401600060405180830381600087803b158015610c4357600080fd5b505af1158015610c57573d6000803e3d6000fd5b50505050826001600160a01b03167fbbf79e146587871d724f2a0ff9c8beff1c42b3d5ef6ea6a7ba1990b104be51e48360405161065791815260200190565b30610ca96001600160a01b03841661136f565b6001600160a01b031603610cbb575050565b6005546001600160a01b0390811690831603610d03576040517fe4948e1000000000000000000000000000000000000000000000000000000000815260040160405180910390fd5b80600003610d3d576040517faf928e7100000000000000000000000000000000000000000000000000000000815260040160405180910390fd5b610d536b033b2e3c9fd0803ce800000082611e66565b336000908152600960205260409020541015610d9b576040517f378c536400000000000000000000000000000000000000000000000000000000815260040160405180910390fd5b3360009081526009602052604090206001015415610e4957610dc96b033b2e3c9fd0803ce800000082611e66565b336000908152600a6020526040812090610de5610e1042611e7d565b815260200190815260200160002054610dfe9190611e40565b336000908152600960205260409020600101541015610e49576040517f2829301b00000000000000000000000000000000000000000000000000000000815260040160405180910390fd5b610e5f6b033b2e3c9fd0803ce800000082611e66565b336000908152600a6020526040812090610e7b610e1042611e7d565b81526020019081526020016000206000828254610e989190611e40565b90915550610ea690506113b5565b600080610eb16114f2565b9150915080600014610eef576040517f6c14957d00000000000000000000000000000000000000000000000000000000815260040160405180910390fd5b610f056b033b2e3c9fd0803ce800000084611e66565b821015610f3e576040517f4f3b83ec00000000000000000000000000000000000000000000000000000000815260040160405180910390fd5b600754821015610f7a576040517f6c7b713400000000000000000000000000000000000000000000000000000000815260040160405180910390fd5b610f906b033b2e3c9fd0803ce800000084611e66565b3360009081526009602052604081208054909190610faf908490611e53565b909155505060025461010090046001600160a01b031663efabcadc3086610fe26b033b2e3c9fd0803ce800000088611e66565b6040517fffffffff0000000000000000000000000000000000000000000000000000000060e086901b1681526001600160a01b0393841660048201529290911660248301526044820152606401600060405180830381600087803b15801561104957600080fd5b505af115801561105d573d6000803e3d6000fd5b5050506001600160a01b0385169050337f6eabe0062d288bbd31a8fbe9e0e348d58729ce4df05118bd1dd476bdbb9c41766110a46b033b2e3c9fd0803ce800000087611e66565b6040519081526020016104e1565b6110d660405180606001604052806000815260200160008152602001600081525090565b5060408051606081018252600654815260075460208201526008549181019190915290565b61110433611287565b61113a576040517f82b4290000000000000000000000000000000000000000000000000000000000815260040160405180910390fd5b6111448282611893565b6000801b827fe436a8be7dc6aab90b400800ecc86e46fb600f2e18989b5d0389840fdabbf2ed836040516111789190611da5565b60405180910390a3611188611992565b5050565b61119533611287565b6111cb576040517f82b4290000000000000000000000000000000000000000000000000000000000815260040160405180910390fd5b81306001600160a01b0382160361120e576040517f0864a63200000000000000000000000000000000000000000000000000000000815260040160405180910390fd5b8160096000611225866001600160a01b031661136f565b6001600160a01b03166001600160a01b0316815260200190815260200160002060010181905550826001600160a01b03167fa932a06b3890527888ac4618dff799bcc3c0a67c3bb59fe56d1c63b6b0fe6e618360405161065791815260200190565b6001600160a01b03811660009081526001602052604081205415156104fa565b6040517f9d2ff48000000000000000000000000000000000000000000000000000000000815260040160405180910390fd5b606060006112e6836119a7565b9392505050565b6112f8600082611a03565b1561133d576040516001600160a01b03821681527f599a298163e1678bb1c676052a8930bf0b8a1261ed6e01b8a2391e55f7000102906020015b60405180910390a150565b6040517f6027d27e00000000000000000000000000000000000000000000000000000000815260040160405180910390fd5b60006001600160a01b0382166113b1576040517fe99d5ac500000000000000000000000000000000000000000000000000000000815260040160405180910390fd5b5090565b6003546040517f70a082310000000000000000000000000000000000000000000000000000000081523060048201526000916001600160a01b0316906370a0823190602401602060405180830381865afa158015611417573d6000803e3d6000fd5b505050506040513d601f19601f8201168201806040525081019061143b9190611eb8565b9050801561055957600480546040517f3b4da69f0000000000000000000000000000000000000000000000000000000081523092810192909252602482018390526001600160a01b031690633b4da69f90604401600060405180830381600087803b1580156114a957600080fd5b505af11580156114bd573d6000803e3d6000fd5b505050507f578817a673c2f180ec547193bb39c7d5d901256f634943d08c79eedf70a74f0b8160405161133291815260200190565b6002546040517ffabde80c00000000000000000000000000000000000000000000000000000000815230600482015260009182916101009091046001600160a01b03169063fabde80c90602401602060405180830381865afa15801561155c573d6000803e3d6000fd5b505050506040513d601f19601f820116820180604052508101906115809190611eb8565b6002546040517f11005b0700000000000000000000000000000000000000000000000000000000815230600482015291935061010090046001600160a01b0316906311005b0790602401602060405180830381865afa1580156115e7573d6000803e3d6000fd5b505050506040513d601f19601f8201168201806040525081019061160b9190611eb8565b905080156116ef57600061161f8383611a18565b905061162b8184611e53565b92506116378183611e53565b6002546040517f27a0bb330000000000000000000000000000000000000000000000000000000081526004810184905291935061010090046001600160a01b0316906327a0bb3390602401600060405180830381600087803b15801561169c57600080fd5b505af11580156116b0573d6000803e3d6000fd5b505050507f5b5d911bd2a8a4832606408367e167dd6131ee6e9312c4481539fc85935c1382816040516116e591815260200190565b60405180910390a1505b9091565b6116fb6113b5565b6002546040517ffabde80c00000000000000000000000000000000000000000000000000000000815230600482015260009161010090046001600160a01b03169063fabde80c90602401602060405180830381865afa158015611762573d6000803e3d6000fd5b505050506040513d601f19601f820116820180604052508101906117869190611eb8565b6002546005546040517fefabcadc0000000000000000000000000000000000000000000000000000000081523060048201526001600160a01b03918216602482015260448101849052929350610100909104169063efabcadc90606401600060405180830381600087803b1580156117fd57600080fd5b505af1158015611811573d6000803e3d6000fd5b5050505050565b611823600082611a2f565b15611861576040516001600160a01b03821681527f8834a87e641e9716be4f34527af5d23e11624f1ddeefede6ad75a9acfc31b90390602001611332565b6040517fea8e4eb500000000000000000000000000000000000000000000000000000000815260040160405180910390fd5b60006118a0826020015190565b9050827f6578747261537572706c7573526563656976657200000000000000000000000003611908575060200151600580547fffffffffffffffffffffffff0000000000000000000000000000000000000000166001600160a01b0390921691909117905550565b827f747265617375727943617061636974790000000000000000000000000000000003611936576006555050565b827f70756c6c46756e64734d696e5468726573686f6c64000000000000000000000003611964576007555050565b827f737572706c75735472616e7366657244656c6179000000000000000000000000036112a7576008555050565b600554610559906001600160a01b031661136f565b6060816000018054806020026020016040519081016040528092919081815260200182805480156119f757602002820191906000526020600020905b8154815260200190600101908083116119e3575b50505050509050919050565b60006112e6836001600160a01b038416611a44565b600081831115611a2857816112e6565b5090919050565b60006112e6836001600160a01b038416611a93565b6000818152600183016020526040812054611a8b575081546001818101845560008481526020808220909301849055845484825282860190935260409020919091556104fa565b5060006104fa565b60008181526001830160205260408120548015611b7c576000611ab7600183611e53565b8554909150600090611acb90600190611e53565b9050818114611b30576000866000018281548110611aeb57611aeb611ed1565b9060005260206000200154905080876000018481548110611b0e57611b0e611ed1565b6000918252602080832090910192909255918252600188019052604090208390555b8554869080611b4157611b41611f00565b6001900381819060005260206000200160009055905585600101600086815260200190815260200160002060009055600193505050506104fa565b60009150506104fa565b80356001600160a01b0381168114611b9d57600080fd5b919050565b60008060408385031215611bb557600080fd5b611bbe83611b86565b946020939093013593505050565b7f4e487b7100000000000000000000000000000000000000000000000000000000600052604160045260246000fd5b600082601f830112611c0c57600080fd5b813567ffffffffffffffff80821115611c2757611c27611bcc565b604051601f83017fffffffffffffffffffffffffffffffffffffffffffffffffffffffffffffffe0908116603f01168101908282118183101715611c6d57611c6d611bcc565b81604052838152866020858801011115611c8657600080fd5b836020870160208301376000602085830101528094505050505092915050565b600080600060608486031215611cbb57600080fd5b8335925060208401359150604084013567ffffffffffffffff811115611ce057600080fd5b611cec86828701611bfb565b9150509250925092565b600060208284031215611d0857600080fd5b6112e682611b86565b6020808252825182820181905260009190848201906040850190845b81811015611d525783516001600160a01b031683529284019291840191600101611d2d565b50909695505050505050565b60008060408385031215611d7157600080fd5b82359150602083013567ffffffffffffffff811115611d8f57600080fd5b611d9b85828601611bfb565b9150509250929050565b600060208083528351808285015260005b81811015611dd257858101830151858201604001528201611db6565b5060006040828601015260407fffffffffffffffffffffffffffffffffffffffffffffffffffffffffffffffe0601f8301168501019250505092915050565b7f4e487b7100000000000000000000000000000000000000000000000000000000600052601160045260246000fd5b808201808211156104fa576104fa611e11565b818103818111156104fa576104fa611e11565b80820281158282048414176104fa576104fa611e11565b600082611eb3577f4e487b7100000000000000000000000000000000000000000000000000000000600052601260045260246000fd5b500490565b600060208284031215611eca57600080fd5b5051919050565b7f4e487b7100000000000000000000000000000000000000000000000000000000600052603260045260246000fd5b7f4e487b7100000000000000000000000000000000000000000000000000000000600052603160045260246000fdfea2646970667358221220413b164c706fd4af5605966e8948575a25efe45fa8ddfcf5fd7594fd9a4bb65164736f6c63430008130033",
    "linkReferences": {}
  },
  "methodIdentifiers": {
    "_allowance(address)": "375460cc",
    "_params()": "552b16ab",
    "addAuthorization(address)": "35b28153",
    "allowance(address)": "3e5beab9",
    "authorizedAccounts()": "2e391876",
    "authorizedAccounts(address)": "24ba5884",
    "coinJoin()": "30413a2a",
    "contractEnabled()": "41b3a0d9",
    "disableContract()": "894ba833",
    "extraSurplusReceiver()": "4e6afb9e",
    "giveFunds(address,uint256)": "6e7dd917",
    "latestSurplusTransferTime()": "79b5f040",
    "modifyParameters(bytes32,bytes)": "da8a4bb8",
    "modifyParameters(bytes32,bytes32,bytes)": "12f33526",
    "params()": "cff0ab96",
    "pullFunds(address,uint256)": "c6cdbcbb",
    "pulledPerHour(address,uint256)": "10f84099",
    "removeAuthorization(address)": "94f3f81d",
    "safeEngine()": "67aea313",
    "setPerHourAllowance(address,uint256)": "fe3a3b80",
    "setTotalAllowance(address,uint256)": "43e9c6b0",
    "settleDebt()": "aafb96b6",
    "systemCoin()": "a7e94455",
    "takeFunds(address,uint256)": "c4cc9253",
    "transferSurplusFunds()": "505239bf"
  },
  "id": 59
}