{
  "abi": [
    {
      "inputs": [],
      "name": "OnlyDelegateCalls",
      "type": "error"
    },
    {
      "inputs": [
        {
          "internalType": "address",
          "name": "_collateralJoin",
          "type": "address"
        },
        {
          "internalType": "uint256",
          "name": "_wad",
          "type": "uint256"
        }
      ],
      "name": "exitCollateral",
      "outputs": [],
      "stateMutability": "nonpayable",
      "type": "function"
    },
    {
      "inputs": [
        {
          "internalType": "address",
          "name": "_coinJoin",
          "type": "address"
        },
        {
          "internalType": "uint256",
          "name": "_coinsToExit",
          "type": "uint256"
        }
      ],
      "name": "exitSystemCoins",
      "outputs": [],
      "stateMutability": "nonpayable",
      "type": "function"
    },
    {
      "inputs": [
        {
          "internalType": "address",
          "name": "_surplusAuctionHouse",
          "type": "address"
        },
        {
          "internalType": "uint256",
          "name": "_auctionId",
          "type": "uint256"
        },
        {
          "internalType": "uint256",
          "name": "_bidAmount",
          "type": "uint256"
        }
      ],
      "name": "increaseBidSize",
      "outputs": [],
      "stateMutability": "nonpayable",
      "type": "function"
    },
    {
      "inputs": [
        {
          "internalType": "address",
          "name": "_coinJoin",
          "type": "address"
        },
        {
          "internalType": "address",
          "name": "_dst",
          "type": "address"
        },
        {
          "internalType": "uint256",
          "name": "_wad",
          "type": "uint256"
        }
      ],
      "name": "joinSystemCoins",
      "outputs": [],
      "stateMutability": "nonpayable",
      "type": "function"
    },
    {
      "inputs": [
        {
          "internalType": "address",
          "name": "_coinJoin",
          "type": "address"
        },
        {
          "internalType": "address",
          "name": "_surplusAuctionHouse",
          "type": "address"
        },
        {
          "internalType": "uint256",
          "name": "_auctionId",
          "type": "uint256"
        }
      ],
      "name": "settleAuction",
      "outputs": [],
      "stateMutability": "nonpayable",
      "type": "function"
    }
  ],
  "bytecode": {
    "object": "0x60a06040523060805234801561001457600080fd5b5060805161141261004b6000396000818160e40152818161042d015281816104aa0152818161052901526105a201526114126000f3fe608060405234801561001057600080fd5b50600436106100675760003560e01c8063902746d711610050578063902746d714610094578063d6f25400146100a7578063fdbc9820146100ba57600080fd5b80630b08a6141461006c5780634f127f4314610081575b600080fd5b61007f61007a36600461108d565b6100cd565b005b61007f61008f3660046110c2565b610416565b61007f6100a23660046110ee565b610493565b61007f6100b53660046110c2565b610512565b61007f6100c83660046110ee565b61058b565b73ffffffffffffffffffffffffffffffffffffffff7f000000000000000000000000000000000000000000000000000000000000000016300361013c576040517f0406dd4b00000000000000000000000000000000000000000000000000000000815260040160405180910390fd5b6040517f571a26a00000000000000000000000000000000000000000000000000000000081526004810183905260009073ffffffffffffffffffffffffffffffffffffffff85169063571a26a09060240160a060405180830381865afa1580156101aa573d6000803e3d6000fd5b505050506040513d601f19601f820116820180604052508101906101ce919061112f565b60200151905060008473ffffffffffffffffffffffffffffffffffffffff16631a465fe16040518163ffffffff1660e01b8152600401602060405180830381865afa158015610221573d6000803e3d6000fd5b505050506040513d601f19601f8201168201806040525081019061024591906111ce565b6040517f23b872dd0000000000000000000000000000000000000000000000000000000081523360048201523060248201526044810185905290915073ffffffffffffffffffffffffffffffffffffffff8216906323b872dd906064016020604051808303816000875af11580156102c1573d6000803e3d6000fd5b505050506040513d601f19601f820116820180604052508101906102e591906111f2565b506040517f095ea7b300000000000000000000000000000000000000000000000000000000815273ffffffffffffffffffffffffffffffffffffffff86811660048301526024820185905282169063095ea7b3906044016020604051808303816000875af115801561035b573d6000803e3d6000fd5b505050506040513d601f19601f8201168201806040525081019061037f91906111f2565b506040517f5a93f03100000000000000000000000000000000000000000000000000000000815260048101859052602481018390526044810184905273ffffffffffffffffffffffffffffffffffffffff861690635a93f031906064015b600060405180830381600087803b1580156103f757600080fd5b505af115801561040b573d6000803e3d6000fd5b505050505050505050565b73ffffffffffffffffffffffffffffffffffffffff7f0000000000000000000000000000000000000000000000000000000000000000163003610485576040517f0406dd4b00000000000000000000000000000000000000000000000000000000815260040160405180910390fd5b61048f828261092d565b5050565b73ffffffffffffffffffffffffffffffffffffffff7f0000000000000000000000000000000000000000000000000000000000000000163003610502576040517f0406dd4b00000000000000000000000000000000000000000000000000000000815260040160405180910390fd5b61050d838383610b8c565b505050565b73ffffffffffffffffffffffffffffffffffffffff7f0000000000000000000000000000000000000000000000000000000000000000163003610581576040517f0406dd4b00000000000000000000000000000000000000000000000000000000815260040160405180910390fd5b61048f8282610da0565b73ffffffffffffffffffffffffffffffffffffffff7f00000000000000000000000000000000000000000000000000000000000000001630036105fa576040517f0406dd4b00000000000000000000000000000000000000000000000000000000815260040160405180910390fd5b6040517f571a26a00000000000000000000000000000000000000000000000000000000081526004810182905260009073ffffffffffffffffffffffffffffffffffffffff84169063571a26a09060240160a060405180830381865afa158015610668573d6000803e3d6000fd5b505050506040513d601f19601f8201168201806040525081019061068c919061112f565b602001516040517f2e9936110000000000000000000000000000000000000000000000000000000081526004810184905290915073ffffffffffffffffffffffffffffffffffffffff841690632e99361190602401600060405180830381600087803b1580156106fb57600080fd5b505af115801561070f573d6000803e3d6000fd5b5050505060008373ffffffffffffffffffffffffffffffffffffffff166367aea3136040518163ffffffff1660e01b8152600401602060405180830381865afa158015610760573d6000803e3d6000fd5b505050506040513d601f19601f8201168201806040525081019061078491906111ce565b6040517f50de215d00000000000000000000000000000000000000000000000000000000815230600482015273ffffffffffffffffffffffffffffffffffffffff8781166024830152919250908216906350de215d90604401602060405180830381865afa1580156107fa573d6000803e3d6000fd5b505050506040513d601f19601f8201168201806040525081019061081e91906111f2565b6108a4576040517fd94d420800000000000000000000000000000000000000000000000000000000815273ffffffffffffffffffffffffffffffffffffffff868116600483015282169063d94d420890602401600060405180830381600087803b15801561088b57600080fd5b505af115801561089f573d6000803e3d6000fd5b505050505b73ffffffffffffffffffffffffffffffffffffffff851663ef693bed336108d76b033b2e3c9fd0803ce800000086611243565b6040517fffffffff0000000000000000000000000000000000000000000000000000000060e085901b16815273ffffffffffffffffffffffffffffffffffffffff909216600483015260248201526044016103dd565b80600003610939575050565b600082905060008173ffffffffffffffffffffffffffffffffffffffff166367aea3136040518163ffffffff1660e01b8152600401602060405180830381865afa15801561098b573d6000803e3d6000fd5b505050506040513d601f19601f820116820180604052508101906109af91906111ce565b6040517f50de215d00000000000000000000000000000000000000000000000000000000815230600482015273ffffffffffffffffffffffffffffffffffffffff8681166024830152919250908216906350de215d90604401602060405180830381865afa158015610a25573d6000803e3d6000fd5b505050506040513d601f19601f82011682018060405250810190610a4991906111f2565b610acf576040517fd94d420800000000000000000000000000000000000000000000000000000000815273ffffffffffffffffffffffffffffffffffffffff858116600483015282169063d94d420890602401600060405180830381600087803b158015610ab657600080fd5b505af1158015610aca573d6000803e3d6000fd5b505050505b73ffffffffffffffffffffffffffffffffffffffff821663ef693bed33610b026b033b2e3c9fd0803ce800000087611243565b6040517fffffffff0000000000000000000000000000000000000000000000000000000060e085901b16815273ffffffffffffffffffffffffffffffffffffffff909216600483015260248201526044015b600060405180830381600087803b158015610b6e57600080fd5b505af1158015610b82573d6000803e3d6000fd5b5050505050505050565b80600003610b9957505050565b60008373ffffffffffffffffffffffffffffffffffffffff1663a7e944556040518163ffffffff1660e01b8152600401602060405180830381865afa158015610be6573d6000803e3d6000fd5b505050506040513d601f19601f82011682018060405250810190610c0a91906111ce565b6040517f23b872dd0000000000000000000000000000000000000000000000000000000081523360048201523060248201526044810184905290915073ffffffffffffffffffffffffffffffffffffffff8216906323b872dd906064016020604051808303816000875af1158015610c86573d6000803e3d6000fd5b505050506040513d601f19601f82011682018060405250810190610caa91906111f2565b506040517f095ea7b300000000000000000000000000000000000000000000000000000000815273ffffffffffffffffffffffffffffffffffffffff85811660048301526024820184905282169063095ea7b3906044016020604051808303816000875af1158015610d20573d6000803e3d6000fd5b505050506040513d601f19601f82011682018060405250810190610d4491906111f2565b506040517f3b4da69f00000000000000000000000000000000000000000000000000000000815273ffffffffffffffffffffffffffffffffffffffff848116600483015260248201849052851690633b4da69f90604401610b54565b80600003610dac575050565b600082905060008173ffffffffffffffffffffffffffffffffffffffff166367aea3136040518163ffffffff1660e01b8152600401602060405180830381865afa158015610dfe573d6000803e3d6000fd5b505050506040513d601f19601f82011682018060405250810190610e2291906111ce565b6040517f50de215d00000000000000000000000000000000000000000000000000000000815230600482015273ffffffffffffffffffffffffffffffffffffffff8681166024830152919250908216906350de215d90604401602060405180830381865afa158015610e98573d6000803e3d6000fd5b505050506040513d601f19601f82011682018060405250810190610ebc91906111f2565b610f42576040517fd94d420800000000000000000000000000000000000000000000000000000000815273ffffffffffffffffffffffffffffffffffffffff858116600483015282169063d94d420890602401600060405180830381600087803b158015610f2957600080fd5b505af1158015610f3d573d6000803e3d6000fd5b505050505b60008273ffffffffffffffffffffffffffffffffffffffff1663313ce5676040518163ffffffff1660e01b8152600401602060405180830381865afa158015610f8f573d6000803e3d6000fd5b505050506040513d601f19601f82011682018060405250810190610fb3919061127e565b90506000610fc2826012611297565b610fcd90600a6113d0565b610fd79086611243565b6040517fef693bed0000000000000000000000000000000000000000000000000000000081523360048201526024810182905290915073ffffffffffffffffffffffffffffffffffffffff85169063ef693bed90604401600060405180830381600087803b15801561104857600080fd5b505af115801561105c573d6000803e3d6000fd5b50505050505050505050565b73ffffffffffffffffffffffffffffffffffffffff8116811461108a57600080fd5b50565b6000806000606084860312156110a257600080fd5b83356110ad81611068565b95602085013595506040909401359392505050565b600080604083850312156110d557600080fd5b82356110e081611068565b946020939093013593505050565b60008060006060848603121561110357600080fd5b833561110e81611068565b9250602084013561111e81611068565b929592945050506040919091013590565b600060a0828403121561114157600080fd5b60405160a0810181811067ffffffffffffffff8211171561118b577f4e487b7100000000000000000000000000000000000000000000000000000000600052604160045260246000fd5b8060405250825181526020830151602082015260408301516111ac81611068565b6040820152606083810151908201526080928301519281019290925250919050565b6000602082840312156111e057600080fd5b81516111eb81611068565b9392505050565b60006020828403121561120457600080fd5b815180151581146111eb57600080fd5b7f4e487b7100000000000000000000000000000000000000000000000000000000600052601160045260246000fd5b600082611279577f4e487b7100000000000000000000000000000000000000000000000000000000600052601260045260246000fd5b500490565b60006020828403121561129057600080fd5b5051919050565b818103818111156112aa576112aa611214565b92915050565b600181815b8085111561130957817fffffffffffffffffffffffffffffffffffffffffffffffffffffffffffffffff048211156112ef576112ef611214565b808516156112fc57918102915b93841c93908002906112b5565b509250929050565b600082611320575060016112aa565b8161132d575060006112aa565b8160018114611343576002811461134d57611369565b60019150506112aa565b60ff84111561135e5761135e611214565b50506001821b6112aa565b5060208310610133831016604e8410600b841016171561138c575081810a6112aa565b61139683836112b0565b807fffffffffffffffffffffffffffffffffffffffffffffffffffffffffffffffff048211156113c8576113c8611214565b029392505050565b60006111eb838361131156fea2646970667358221220384e86eddc0c3acb47ec53ca62b71cd4ecd15601801fd12d6627afd4343b84a464736f6c63430008130033",
    "linkReferences": {}
  },
  "methodIdentifiers": {
    "exitCollateral(address,uint256)": "d6f25400",
    "exitSystemCoins(address,uint256)": "4f127f43",
    "increaseBidSize(address,uint256,uint256)": "0b08a614",
    "joinSystemCoins(address,address,uint256)": "902746d7",
    "settleAuction(address,address,uint256)": "fdbc9820"
  },
  "id": 128
}