{
  "abi": [
    {
      "inputs": [
        {
          "internalType": "address",
          "name": "_safeEngine",
          "type": "address"
        },
        {
          "internalType": "address",
          "name": "_protocolToken",
          "type": "address"
        },
        {
          "components": [
            {
              "internalType": "uint256",
              "name": "bidIncrease",
              "type": "uint256"
            },
            {
              "internalType": "uint256",
              "name": "bidDuration",
              "type": "uint256"
            },
            {
              "internalType": "uint256",
              "name": "totalAuctionLength",
              "type": "uint256"
            },
            {
              "internalType": "address",
              "name": "bidReceiver",
              "type": "address"
            },
            {
              "internalType": "uint256",
              "name": "recyclingPercentage",
              "type": "uint256"
            }
          ],
          "internalType": "struct ISurplusAuctionHouse.SurplusAuctionHouseParams",
          "name": "_sahParams",
          "type": "tuple"
        }
      ],
      "stateMutability": "nonpayable",
      "type": "constructor"
    },
    {
      "inputs": [],
      "name": "AlreadyAuthorized",
      "type": "error"
    },
    {
      "inputs": [],
      "name": "ContractIsDisabled",
      "type": "error"
    },
    {
      "inputs": [],
      "name": "ContractIsEnabled",
      "type": "error"
    },
    {
      "inputs": [],
      "name": "NonDisableable",
      "type": "error"
    },
    {
      "inputs": [],
      "name": "NotAuthorized",
      "type": "error"
    },
    {
      "inputs": [],
      "name": "NullAddress",
      "type": "error"
    },
    {
      "inputs": [],
      "name": "SAH_AmountsNotMatching",
      "type": "error"
    },
    {
      "inputs": [],
      "name": "SAH_AuctionAlreadyExpired",
      "type": "error"
    },
    {
      "inputs": [],
      "name": "SAH_AuctionNeverStarted",
      "type": "error"
    },
    {
      "inputs": [],
      "name": "SAH_AuctionNotFinished",
      "type": "error"
    },
    {
      "inputs": [],
      "name": "SAH_BidAlreadyExpired",
      "type": "error"
    },
    {
      "inputs": [],
      "name": "SAH_BidAlreadyPlaced",
      "type": "error"
    },
    {
      "inputs": [],
      "name": "SAH_BidNotHigher",
      "type": "error"
    },
    {
      "inputs": [],
      "name": "SAH_HighBidderNotSet",
      "type": "error"
    },
    {
      "inputs": [],
      "name": "SAH_InsufficientIncrease",
      "type": "error"
    },
    {
      "inputs": [],
      "name": "SAH_NullProtTokenReceiver",
      "type": "error"
    },
    {
      "inputs": [],
      "name": "Unauthorized",
      "type": "error"
    },
    {
      "inputs": [],
      "name": "UnrecognizedCType",
      "type": "error"
    },
    {
      "inputs": [],
      "name": "UnrecognizedParam",
      "type": "error"
    },
    {
      "anonymous": false,
      "inputs": [
        {
          "indexed": false,
          "internalType": "address",
          "name": "_account",
          "type": "address"
        }
      ],
      "name": "AddAuthorization",
      "type": "event"
    },
    {
      "anonymous": false,
      "inputs": [],
      "name": "DisableContract",
      "type": "event"
    },
    {
      "anonymous": false,
      "inputs": [
        {
          "indexed": true,
          "internalType": "uint256",
          "name": "_id",
          "type": "uint256"
        },
        {
          "indexed": false,
          "internalType": "address",
          "name": "_bidder",
          "type": "address"
        },
        {
          "indexed": false,
          "internalType": "uint256",
          "name": "_blockTimestamp",
          "type": "uint256"
        },
        {
          "indexed": false,
          "internalType": "uint256",
          "name": "_raisedAmount",
          "type": "uint256"
        },
        {
          "indexed": false,
          "internalType": "uint256",
          "name": "_soldAmount",
          "type": "uint256"
        },
        {
          "indexed": false,
          "internalType": "uint256",
          "name": "_bidExpiry",
          "type": "uint256"
        }
      ],
      "name": "IncreaseBidSize",
      "type": "event"
    },
    {
      "anonymous": false,
      "inputs": [
        {
          "indexed": true,
          "internalType": "bytes32",
          "name": "_param",
          "type": "bytes32"
        },
        {
          "indexed": true,
          "internalType": "bytes32",
          "name": "_cType",
          "type": "bytes32"
        },
        {
          "indexed": false,
          "internalType": "bytes",
          "name": "_data",
          "type": "bytes"
        }
      ],
      "name": "ModifyParameters",
      "type": "event"
    },
    {
      "anonymous": false,
      "inputs": [
        {
          "indexed": false,
          "internalType": "address",
          "name": "_account",
          "type": "address"
        }
      ],
      "name": "RemoveAuthorization",
      "type": "event"
    },
    {
      "anonymous": false,
      "inputs": [
        {
          "indexed": true,
          "internalType": "uint256",
          "name": "_id",
          "type": "uint256"
        },
        {
          "indexed": false,
          "internalType": "uint256",
          "name": "_blockTimestamp",
          "type": "uint256"
        },
        {
          "indexed": false,
          "internalType": "uint256",
          "name": "_auctionDeadline",
          "type": "uint256"
        }
      ],
      "name": "RestartAuction",
      "type": "event"
    },
    {
      "anonymous": false,
      "inputs": [
        {
          "indexed": true,
          "internalType": "uint256",
          "name": "_id",
          "type": "uint256"
        },
        {
          "indexed": false,
          "internalType": "uint256",
          "name": "_blockTimestamp",
          "type": "uint256"
        },
        {
          "indexed": false,
          "internalType": "address",
          "name": "_highBidder",
          "type": "address"
        },
        {
          "indexed": false,
          "internalType": "uint256",
          "name": "_raisedAmount",
          "type": "uint256"
        }
      ],
      "name": "SettleAuction",
      "type": "event"
    },
    {
      "anonymous": false,
      "inputs": [
        {
          "indexed": true,
          "internalType": "uint256",
          "name": "_id",
          "type": "uint256"
        },
        {
          "indexed": false,
          "internalType": "uint256",
          "name": "_blockTimestamp",
          "type": "uint256"
        },
        {
          "indexed": false,
          "internalType": "uint256",
          "name": "_amountToSell",
          "type": "uint256"
        },
        {
          "indexed": false,
          "internalType": "uint256",
          "name": "_amountToRaise",
          "type": "uint256"
        },
        {
          "indexed": false,
          "internalType": "uint256",
          "name": "_auctionDeadline",
          "type": "uint256"
        }
      ],
      "name": "StartAuction",
      "type": "event"
    },
    {
      "anonymous": false,
      "inputs": [
        {
          "indexed": true,
          "internalType": "uint256",
          "name": "_id",
          "type": "uint256"
        },
        {
          "indexed": false,
          "internalType": "uint256",
          "name": "_blockTimestamp",
          "type": "uint256"
        },
        {
          "indexed": false,
          "internalType": "address",
          "name": "_highBidder",
          "type": "address"
        },
        {
          "indexed": false,
          "internalType": "uint256",
          "name": "_raisedAmount",
          "type": "uint256"
        }
      ],
      "name": "TerminateAuctionPrematurely",
      "type": "event"
    },
    {
      "inputs": [],
      "name": "AUCTION_HOUSE_TYPE",
      "outputs": [
        {
          "internalType": "bytes32",
          "name": "",
          "type": "bytes32"
        }
      ],
      "stateMutability": "view",
      "type": "function"
    },
    {
      "inputs": [],
      "name": "SURPLUS_AUCTION_TYPE",
      "outputs": [
        {
          "internalType": "bytes32",
          "name": "",
          "type": "bytes32"
        }
      ],
      "stateMutability": "view",
      "type": "function"
    },
    {
      "inputs": [
        {
          "internalType": "uint256",
          "name": "",
          "type": "uint256"
        }
      ],
      "name": "_auctions",
      "outputs": [
        {
          "internalType": "uint256",
          "name": "bidAmount",
          "type": "uint256"
        },
        {
          "internalType": "uint256",
          "name": "amountToSell",
          "type": "uint256"
        },
        {
          "internalType": "address",
          "name": "highBidder",
          "type": "address"
        },
        {
          "internalType": "uint256",
          "name": "bidExpiry",
          "type": "uint256"
        },
        {
          "internalType": "uint256",
          "name": "auctionDeadline",
          "type": "uint256"
        }
      ],
      "stateMutability": "view",
      "type": "function"
    },
    {
      "inputs": [],
      "name": "_params",
      "outputs": [
        {
          "internalType": "uint256",
          "name": "bidIncrease",
          "type": "uint256"
        },
        {
          "internalType": "uint256",
          "name": "bidDuration",
          "type": "uint256"
        },
        {
          "internalType": "uint256",
          "name": "totalAuctionLength",
          "type": "uint256"
        },
        {
          "internalType": "address",
          "name": "bidReceiver",
          "type": "address"
        },
        {
          "internalType": "uint256",
          "name": "recyclingPercentage",
          "type": "uint256"
        }
      ],
      "stateMutability": "view",
      "type": "function"
    },
    {
      "inputs": [
        {
          "internalType": "address",
          "name": "_account",
          "type": "address"
        }
      ],
      "name": "addAuthorization",
      "outputs": [],
      "stateMutability": "nonpayable",
      "type": "function"
    },
    {
      "inputs": [
        {
          "internalType": "uint256",
          "name": "_id",
          "type": "uint256"
        }
      ],
      "name": "auctions",
      "outputs": [
        {
          "components": [
            {
              "internalType": "uint256",
              "name": "bidAmount",
              "type": "uint256"
            },
            {
              "internalType": "uint256",
              "name": "amountToSell",
              "type": "uint256"
            },
            {
              "internalType": "address",
              "name": "highBidder",
              "type": "address"
            },
            {
              "internalType": "uint256",
              "name": "bidExpiry",
              "type": "uint256"
            },
            {
              "internalType": "uint256",
              "name": "auctionDeadline",
              "type": "uint256"
            }
          ],
          "internalType": "struct ISurplusAuctionHouse.Auction",
          "name": "_auction",
          "type": "tuple"
        }
      ],
      "stateMutability": "view",
      "type": "function"
    },
    {
      "inputs": [],
      "name": "auctionsStarted",
      "outputs": [
        {
          "internalType": "uint256",
          "name": "",
          "type": "uint256"
        }
      ],
      "stateMutability": "view",
      "type": "function"
    },
    {
      "inputs": [
        {
          "internalType": "address",
          "name": "_account",
          "type": "address"
        }
      ],
      "name": "authorizedAccounts",
      "outputs": [
        {
          "internalType": "bool",
          "name": "_authorized",
          "type": "bool"
        }
      ],
      "stateMutability": "view",
      "type": "function"
    },
    {
      "inputs": [],
      "name": "authorizedAccounts",
      "outputs": [
        {
          "internalType": "address[]",
          "name": "_accounts",
          "type": "address[]"
        }
      ],
      "stateMutability": "view",
      "type": "function"
    },
    {
      "inputs": [],
      "name": "contractEnabled",
      "outputs": [
        {
          "internalType": "bool",
          "name": "",
          "type": "bool"
        }
      ],
      "stateMutability": "view",
      "type": "function"
    },
    {
      "inputs": [],
      "name": "disableContract",
      "outputs": [],
      "stateMutability": "nonpayable",
      "type": "function"
    },
    {
      "inputs": [
        {
          "internalType": "uint256",
          "name": "_id",
          "type": "uint256"
        },
        {
          "internalType": "uint256",
          "name": "_amountToBuy",
          "type": "uint256"
        },
        {
          "internalType": "uint256",
          "name": "_bid",
          "type": "uint256"
        }
      ],
      "name": "increaseBidSize",
      "outputs": [],
      "stateMutability": "nonpayable",
      "type": "function"
    },
    {
      "inputs": [
        {
          "internalType": "bytes32",
          "name": "_cType",
          "type": "bytes32"
        },
        {
          "internalType": "bytes32",
          "name": "_param",
          "type": "bytes32"
        },
        {
          "internalType": "bytes",
          "name": "_data",
          "type": "bytes"
        }
      ],
      "name": "modifyParameters",
      "outputs": [],
      "stateMutability": "nonpayable",
      "type": "function"
    },
    {
      "inputs": [
        {
          "internalType": "bytes32",
          "name": "_param",
          "type": "bytes32"
        },
        {
          "internalType": "bytes",
          "name": "_data",
          "type": "bytes"
        }
      ],
      "name": "modifyParameters",
      "outputs": [],
      "stateMutability": "nonpayable",
      "type": "function"
    },
    {
      "inputs": [],
      "name": "params",
      "outputs": [
        {
          "components": [
            {
              "internalType": "uint256",
              "name": "bidIncrease",
              "type": "uint256"
            },
            {
              "internalType": "uint256",
              "name": "bidDuration",
              "type": "uint256"
            },
            {
              "internalType": "uint256",
              "name": "totalAuctionLength",
              "type": "uint256"
            },
            {
              "internalType": "address",
              "name": "bidReceiver",
              "type": "address"
            },
            {
              "internalType": "uint256",
              "name": "recyclingPercentage",
              "type": "uint256"
            }
          ],
          "internalType": "struct ISurplusAuctionHouse.SurplusAuctionHouseParams",
          "name": "_sahParams",
          "type": "tuple"
        }
      ],
      "stateMutability": "view",
      "type": "function"
    },
    {
      "inputs": [],
      "name": "protocolToken",
      "outputs": [
        {
          "internalType": "contract IProtocolToken",
          "name": "",
          "type": "address"
        }
      ],
      "stateMutability": "view",
      "type": "function"
    },
    {
      "inputs": [
        {
          "internalType": "address",
          "name": "_account",
          "type": "address"
        }
      ],
      "name": "removeAuthorization",
      "outputs": [],
      "stateMutability": "nonpayable",
      "type": "function"
    },
    {
      "inputs": [
        {
          "internalType": "uint256",
          "name": "_id",
          "type": "uint256"
        }
      ],
      "name": "restartAuction",
      "outputs": [],
      "stateMutability": "nonpayable",
      "type": "function"
    },
    {
      "inputs": [],
      "name": "safeEngine",
      "outputs": [
        {
          "internalType": "contract ISAFEEngine",
          "name": "",
          "type": "address"
        }
      ],
      "stateMutability": "view",
      "type": "function"
    },
    {
      "inputs": [
        {
          "internalType": "uint256",
          "name": "_id",
          "type": "uint256"
        }
      ],
      "name": "settleAuction",
      "outputs": [],
      "stateMutability": "nonpayable",
      "type": "function"
    },
    {
      "inputs": [
        {
          "internalType": "uint256",
          "name": "_amountToSell",
          "type": "uint256"
        },
        {
          "internalType": "uint256",
          "name": "_initialBid",
          "type": "uint256"
        }
      ],
      "name": "startAuction",
      "outputs": [
        {
          "internalType": "uint256",
          "name": "_id",
          "type": "uint256"
        }
      ],
      "stateMutability": "nonpayable",
      "type": "function"
    },
    {
      "inputs": [
        {
          "internalType": "uint256",
          "name": "_id",
          "type": "uint256"
        }
      ],
      "name": "terminateAuctionPrematurely",
      "outputs": [],
      "stateMutability": "nonpayable",
      "type": "function"
    }
  ],
  "bytecode": {
    "object": "0x60806040526002805460ff191660011790553480156200001e57600080fd5b506040516200255f3803806200255f83398101604081905262000041916200022a565b336200004d81620000d0565b50620000626001600160a01b0384166200013e565b600580546001600160a01b039283166001600160a01b031991821617909155600680548584169083161790558251600755602083015160085560408301516009556060830151600a80549190931691161790556080810151600b55620000c76200016c565b505050620002ea565b620000dd6000826200019b565b1562000122576040516001600160a01b03821681527f599a298163e1678bb1c676052a8930bf0b8a1261ed6e01b8a2391e55f70001029060200160405180910390a150565b604051633013e93f60e11b815260040160405180910390fd5b50565b60006001600160a01b038216620001685760405163e99d5ac560e01b815260040160405180910390fd5b5090565b60065462000183906001600160a01b03166200013e565b50600a546200013b906001600160a01b03166200013e565b6000620001b2836001600160a01b038416620001bb565b90505b92915050565b60008181526001830160205260408120546200020457508154600181810184556000848152602080822090930184905584548482528286019093526040902091909155620001b5565b506000620001b5565b80516001600160a01b03811681146200022557600080fd5b919050565b600080600083850360e08112156200024157600080fd5b6200024c856200020d565b93506200025c602086016200020d565b925060a0603f19820112156200027157600080fd5b5060405160a081016001600160401b0381118282101715620002a357634e487b7160e01b600052604160045260246000fd5b8060405250604085015181526060850151602082015260808501516040820152620002d160a086016200020d565b606082015260c094909401516080850152509093909250565b61226580620002fa6000396000f3fe608060405234801561001057600080fd5b50600436106101825760003560e01c8063552b16ab116100d8578063894ba8331161008c578063cff0ab9611610066578063cff0ab9614610433578063d25ccf5314610486578063da8a4bb81461049957600080fd5b8063894ba83314610405578063933f76081461040d57806394f3f81d1461042057600080fd5b80635a93f031116100bd5780635a93f031146103b8578063619ed1f8146103cb57806367aea313146103f257600080fd5b8063552b16ab14610306578063571a26a01461035a57600080fd5b80632e3918761161013a57806341b3a0d91161011457806341b3a0d9146102dd5780634fee13fc146102ea578063551cb3b1146102fd57600080fd5b80632e391876146102a25780632e993611146102b757806335b28153146102ca57600080fd5b806317dc6bf61161016b57806317dc6bf6146101d65780631a465fe11461025457806324ba58841461027f57600080fd5b80631266fb941461018757806312f33526146101c1575b600080fd5b6101ae7f535552504c55530000000000000000000000000000000000000000000000000081565b6040519081526020015b60405180910390f35b6101d46101cf366004611ea6565b6104ac565b005b61021e6101e4366004611ef6565b600360208190526000918252604090912080546001820154600283015493830154600490930154919390926001600160a01b039091169185565b6040805195865260208601949094526001600160a01b03909216928401929092526060830191909152608082015260a0016101b8565b600654610267906001600160a01b031681565b6040516001600160a01b0390911681526020016101b8565b61029261028d366004611f0f565b610537565b60405190151581526020016101b8565b6102aa610548565b6040516101b89190611f38565b6101d46102c5366004611ef6565b610559565b6101d46102d8366004611f0f565b610839565b6002546102929060ff1681565b6101ae6102f8366004611f85565b610884565b6101ae60045481565b600754600854600954600a54600b54610329949392916001600160a01b03169085565b604080519586526020860194909452928401919091526001600160a01b03166060830152608082015260a0016101b8565b61036d610368366004611ef6565b610af4565b6040516101b89190600060a08201905082518252602083015160208301526001600160a01b036040840151166040830152606083015160608301526080830151608083015292915050565b6101d46103c6366004611fa7565b610b86565b6101ae7f4d495845442d535452415400000000000000000000000000000000000000000081565b600554610267906001600160a01b031681565b6101d4610e6c565b6101d461041b366004611ef6565b610f42565b6101d461042e366004611f0f565b6110c8565b61043b611110565b6040516101b89190600060a0820190508251825260208301516020830152604083015160408301526001600160a01b0360608401511660608301526080830151608083015292915050565b6101d4610494366004611ef6565b611189565b6101d46104a7366004611fd3565b6112af565b6104b533611340565b6104eb576040517f82b4290000000000000000000000000000000000000000000000000000000000815260040160405180910390fd5b826104f784848461134c565b83837fe436a8be7dc6aab90b400800ecc86e46fb600f2e18989b5d0389840fdabbf2ed846040516105289190612088565b60405180910390a35b50505050565b600061054282611340565b92915050565b6060610554600061137e565b905090565b60025460ff16610595576040517f7abbf1c900000000000000000000000000000000000000000000000000000000815260040160405180910390fd5b600081815260036020818152604092839020835160a0810185528154815260018201549281019290925260028101546001600160a01b0316938201939093529082015460608201819052600490920154608082015290158061060857504281606001511180156106085750428160800151115b1561063f576040517f8a9fdc6a00000000000000000000000000000000000000000000000000000000815260040160405180910390fd5b600554604082810151602084015191517fefabcadc0000000000000000000000000000000000000000000000000000000081523060048201526001600160a01b03918216602482015260448101929092529091169063efabcadc90606401600060405180830381600087803b1580156106b757600080fd5b505af11580156106cb573d6000803e3d6000fd5b5050600b548351600093506106e1925090611392565b9050801561070657600a54600654610706916001600160a01b039182169116836113b1565b81516000906107169083906120ca565b90508015610796576006546040517f42966c68000000000000000000000000000000000000000000000000000000008152600481018390526001600160a01b03909116906342966c6890602401600060405180830381600087803b15801561077d57600080fd5b505af1158015610791573d6000803e3d6000fd5b505050505b604083810151845182514281526001600160a01b03909216602083015281830152905185917fce605a43280ed04bb2cf4231276a425e3650af62821a5e1f0c8daf63beba6c34919081900360600190a250505060009081526003602081905260408220828155600181018390556002810180547fffffffffffffffffffffffff000000000000000000000000000000000000000016905590810182905560040155565b61084233611340565b610878576040517f82b4290000000000000000000000000000000000000000000000000000000000815260040160405180910390fd5b6108818161147d565b50565b600061088f33611340565b6108c5576040517f82b4290000000000000000000000000000000000000000000000000000000000815260040160405180910390fd5b60025460ff16610901576040517f7abbf1c900000000000000000000000000000000000000000000000000000000815260040160405180910390fd5b600a546001600160a01b031615801561091b5750600b5415155b15610952576040517f12901a0d00000000000000000000000000000000000000000000000000000000815260040160405180910390fd5b600460008154610961906120dd565b91905081905590506040518060a00160405280838152602001848152602001336001600160a01b0316815260200160008152602001600760020154426109a79190612115565b905260008281526003602081815260409283902084518155908401516001820155838301516002820180547fffffffffffffffffffffffff0000000000000000000000000000000000000000166001600160a01b0392831617905560608501519282019290925560809093015160049384015560055491517fefabcadc000000000000000000000000000000000000000000000000000000008152339381019390935230602484015260448301869052169063efabcadc90606401600060405180830381600087803b158015610a7c57600080fd5b505af1158015610a90573d6000803e3d6000fd5b505050600082815260036020908152604091829020600401548251428152918201879052818301869052606082015290518392507fa4863af70e77aecfe2769e0569806782ba7c6f86fc9a307290a3816fb8a563e59181900360800190a292915050565b610b2f6040518060a00160405280600081526020016000815260200160006001600160a01b0316815260200160008152602001600081525090565b50600090815260036020818152604092839020835160a0810185528154815260018201549281019290925260028101546001600160a01b031693820193909352908201546060820152600490910154608082015290565b60025460ff16610bc2576040517f7abbf1c900000000000000000000000000000000000000000000000000000000815260040160405180910390fd5b600083815260036020526040902060028101546001600160a01b0316610c14576040517f3f7caeae00000000000000000000000000000000000000000000000000000000815260040160405180910390fd5b42816003015411158015610c2b5750600381015415155b15610c62576040517fc3e4393200000000000000000000000000000000000000000000000000000000815260040160405180910390fd5b42816004015411610c9f576040517f9203423800000000000000000000000000000000000000000000000000000000815260040160405180910390fd5b80600101548314610cdc576040517fbda58db600000000000000000000000000000000000000000000000000000000815260040160405180910390fd5b80548211610d16576040517f88020a0a00000000000000000000000000000000000000000000000000000000815260040160405180910390fd5b8054600754610d259190612128565b610d37670de0b6b3a764000084612128565b1015610d6f576040517fe08b005b00000000000000000000000000000000000000000000000000000000815260040160405180910390fd5b60028101546001600160a01b03163314610dd55760028101548154600654610da8926001600160a01b03918216923392909116906114ff565b6002810180547fffffffffffffffffffffffff000000000000000000000000000000000000000016331790555b610dfe3330836000015485610dea91906120ca565b6006546001600160a01b03169291906114ff565b818155600854610e0e9042612115565b600382018190556040805133815242602082015290810184905260608101859052608081019190915284907fbabed4bc302f25a2be9c3286529806aca3c81480ba4b26ee5512277c996e18e99060a00160405180910390a250505050565b610e7533611340565b610eab576040517f82b4290000000000000000000000000000000000000000000000000000000000815260040160405180910390fd5b60025460ff16610ee7576040517f7abbf1c900000000000000000000000000000000000000000000000000000000815260040160405180910390fd5b600280547fffffffffffffffffffffffffffffffffffffffffffffffffffffffffffffff00169055610f17611550565b6040517f2d4b4ecff7bd7503135271925520a2f6c0d98c9473ffc1a1e72c92502f51b25e90600090a1565b60025460ff1615610f7f576040517ff59a25d600000000000000000000000000000000000000000000000000000000815260040160405180910390fd5b600081815260036020818152604092839020835160a0810185528154815260018201549281019290925260028101546001600160a01b0316938201849052918201546060820152600490910154608082015290611008576040517f3f7caeae00000000000000000000000000000000000000000000000000000000815260040160405180910390fd5b60408101518151600654611027926001600160a01b03909116916113b1565b604081810151825182514281526001600160a01b03909216602083015281830152905183917f728fcceeefd42b7de1122fe9fef58c0bacd081dcbd7a141315835ba00d29b4b1919081900360600190a25060009081526003602081905260408220828155600181018390556002810180547fffffffffffffffffffffffff000000000000000000000000000000000000000016905590810182905560040155565b6110d133611340565b611107576040517f82b4290000000000000000000000000000000000000000000000000000000000815260040160405180910390fd5b6108818161165d565b61114b6040518060a0016040528060008152602001600081526020016000815260200160006001600160a01b03168152602001600081525090565b506040805160a0810182526007548152600854602082015260095491810191909152600a546001600160a01b03166060820152600b54608082015290565b801580611197575060045481115b156111ce576040517f67374ccd00000000000000000000000000000000000000000000000000000000815260040160405180910390fd5b6000818152600360205260409020600481015442101561121a576040517f8a9fdc6a00000000000000000000000000000000000000000000000000000000815260040160405180910390fd5b600381015415611256576040517f10cff0e800000000000000000000000000000000000000000000000000000000815260040160405180910390fd5b6009546112639042612115565b6004820181905560405183917f52926b7e2fb12434af05e0b5e28d2b857fc6a23d92f7d7b8ebc6ec6b0fb4419e916112a391428252602082015260400190565b60405180910390a25050565b6112b833611340565b6112ee576040517f82b4290000000000000000000000000000000000000000000000000000000000815260040160405180910390fd5b6112f882826116d8565b6000801b827fe436a8be7dc6aab90b400800ecc86e46fb600f2e18989b5d0389840fdabbf2ed8360405161132c9190612088565b60405180910390a361133c611878565b5050565b600061054281836118a3565b6040517f9d2ff48000000000000000000000000000000000000000000000000000000000815260040160405180910390fd5b6060600061138b836118c5565b9392505050565b6000670de0b6b3a76400006113a78385612128565b61138b919061213f565b6040516001600160a01b0383166024820152604481018290526114789084907fa9059cbb00000000000000000000000000000000000000000000000000000000906064015b604080517fffffffffffffffffffffffffffffffffffffffffffffffffffffffffffffffe08184030181529190526020810180517bffffffffffffffffffffffffffffffffffffffffffffffffffffffff167fffffffff0000000000000000000000000000000000000000000000000000000090931692909217909152611921565b505050565b611488600082611a25565b156114cd576040516001600160a01b03821681527f599a298163e1678bb1c676052a8930bf0b8a1261ed6e01b8a2391e55f7000102906020015b60405180910390a150565b6040517f6027d27e00000000000000000000000000000000000000000000000000000000815260040160405180910390fd5b6040516001600160a01b03808516602483015283166044820152606481018290526105319085907f23b872dd00000000000000000000000000000000000000000000000000000000906084016113f6565b6005546040517ffabde80c0000000000000000000000000000000000000000000000000000000081523060048201526000916001600160a01b03169063fabde80c90602401602060405180830381865afa1580156115b2573d6000803e3d6000fd5b505050506040513d601f19601f820116820180604052508101906115d6919061217a565b6005546040517fefabcadc000000000000000000000000000000000000000000000000000000008152306004820152336024820152604481018390529192506001600160a01b03169063efabcadc90606401600060405180830381600087803b15801561164257600080fd5b505af1158015611656573d6000803e3d6000fd5b5050505050565b611668600082611a3a565b156116a6576040516001600160a01b03821681527f8834a87e641e9716be4f34527af5d23e11624f1ddeefede6ad75a9acfc31b903906020016114c2565b6040517fea8e4eb500000000000000000000000000000000000000000000000000000000815260040160405180910390fd5b60006116e5826020015190565b905060006116f4836020015190565b9050837f70726f746f636f6c546f6b656e000000000000000000000000000000000000000361175557600680547fffffffffffffffffffffffff0000000000000000000000000000000000000000166001600160a01b038416179055610531565b837f626964496e63726561736500000000000000000000000000000000000000000003611786576007819055610531565b837f6269644475726174696f6e000000000000000000000000000000000000000000036117b7576008819055610531565b837f746f74616c41756374696f6e4c656e6774680000000000000000000000000000036117e8576009819055610531565b837f62696452656365697665720000000000000000000000000000000000000000000361184757600a80547fffffffffffffffffffffffff0000000000000000000000000000000000000000166001600160a01b038416179055610531565b837f72656379636c696e6750657263656e74616765000000000000000000000000000361134c57600b819055610531565b60065461188d906001600160a01b0316611a4f565b50600a54610881906001600160a01b0316611a4f565b6001600160a01b0381166000908152600183016020526040812054151561138b565b60608160000180548060200260200160405190810160405280929190818152602001828054801561191557602002820191906000526020600020905b815481526020019060010190808311611901575b50505050509050919050565b6000611976826040518060400160405280602081526020017f5361666545524332303a206c6f772d6c6576656c2063616c6c206661696c6564815250856001600160a01b0316611a959092919063ffffffff16565b80519091501561147857808060200190518101906119949190612193565b611478576040517f08c379a000000000000000000000000000000000000000000000000000000000815260206004820152602a60248201527f5361666545524332303a204552433230206f7065726174696f6e20646964206e60448201527f6f7420737563636565640000000000000000000000000000000000000000000060648201526084015b60405180910390fd5b600061138b836001600160a01b038416611aac565b600061138b836001600160a01b038416611afb565b60006001600160a01b038216611a91576040517fe99d5ac500000000000000000000000000000000000000000000000000000000815260040160405180910390fd5b5090565b6060611aa48484600085611bee565b949350505050565b6000818152600183016020526040812054611af357508154600181810184556000848152602080822090930184905584548482528286019093526040902091909155610542565b506000610542565b60008181526001830160205260408120548015611be4576000611b1f6001836120ca565b8554909150600090611b33906001906120ca565b9050818114611b98576000866000018281548110611b5357611b536121b5565b9060005260206000200154905080876000018481548110611b7657611b766121b5565b6000918252602080832090910192909255918252600188019052604090208390555b8554869080611ba957611ba96121e4565b600190038181906000526020600020016000905590558560010160008681526020019081526020016000206000905560019350505050610542565b6000915050610542565b606082471015611c80576040517f08c379a000000000000000000000000000000000000000000000000000000000815260206004820152602660248201527f416464726573733a20696e73756666696369656e742062616c616e636520666f60448201527f722063616c6c00000000000000000000000000000000000000000000000000006064820152608401611a1c565b600080866001600160a01b03168587604051611c9c9190612213565b60006040518083038185875af1925050503d8060008114611cd9576040519150601f19603f3d011682016040523d82523d6000602084013e611cde565b606091505b5091509150611cef87838387611cfa565b979650505050505050565b60608315611d83578251600003611d7c576001600160a01b0385163b611d7c576040517f08c379a000000000000000000000000000000000000000000000000000000000815260206004820152601d60248201527f416464726573733a2063616c6c20746f206e6f6e2d636f6e74726163740000006044820152606401611a1c565b5081611aa4565b611aa48383815115611d985781518083602001fd5b806040517f08c379a0000000000000000000000000000000000000000000000000000000008152600401611a1c9190612088565b7f4e487b7100000000000000000000000000000000000000000000000000000000600052604160045260246000fd5b600082601f830112611e0c57600080fd5b813567ffffffffffffffff80821115611e2757611e27611dcc565b604051601f83017fffffffffffffffffffffffffffffffffffffffffffffffffffffffffffffffe0908116603f01168101908282118183101715611e6d57611e6d611dcc565b81604052838152866020858801011115611e8657600080fd5b836020870160208301376000602085830101528094505050505092915050565b600080600060608486031215611ebb57600080fd5b8335925060208401359150604084013567ffffffffffffffff811115611ee057600080fd5b611eec86828701611dfb565b9150509250925092565b600060208284031215611f0857600080fd5b5035919050565b600060208284031215611f2157600080fd5b81356001600160a01b038116811461138b57600080fd5b6020808252825182820181905260009190848201906040850190845b81811015611f795783516001600160a01b031683529284019291840191600101611f54565b50909695505050505050565b60008060408385031215611f9857600080fd5b50508035926020909101359150565b600080600060608486031215611fbc57600080fd5b505081359360208301359350604090920135919050565b60008060408385031215611fe657600080fd5b82359150602083013567ffffffffffffffff81111561200457600080fd5b61201085828601611dfb565b9150509250929050565b60005b8381101561203557818101518382015260200161201d565b50506000910152565b6000815180845261205681602086016020860161201a565b601f017fffffffffffffffffffffffffffffffffffffffffffffffffffffffffffffffe0169290920160200192915050565b60208152600061138b602083018461203e565b7f4e487b7100000000000000000000000000000000000000000000000000000000600052601160045260246000fd5b818103818111156105425761054261209b565b60007fffffffffffffffffffffffffffffffffffffffffffffffffffffffffffffffff820361210e5761210e61209b565b5060010190565b808201808211156105425761054261209b565b80820281158282048414176105425761054261209b565b600082612175577f4e487b7100000000000000000000000000000000000000000000000000000000600052601260045260246000fd5b500490565b60006020828403121561218c57600080fd5b5051919050565b6000602082840312156121a557600080fd5b8151801515811461138b57600080fd5b7f4e487b7100000000000000000000000000000000000000000000000000000000600052603260045260246000fd5b7f4e487b7100000000000000000000000000000000000000000000000000000000600052603160045260246000fd5b6000825161222581846020870161201a565b919091019291505056fea26469706673582212201ef92dba130d753937c3f16da6b8a83c97daf44df4e255a9c08122468d0592fd64736f6c63430008130033",
    "linkReferences": {}
  },
  "methodIdentifiers": {
    "AUCTION_HOUSE_TYPE()": "1266fb94",
    "SURPLUS_AUCTION_TYPE()": "619ed1f8",
    "_auctions(uint256)": "17dc6bf6",
    "_params()": "552b16ab",
    "addAuthorization(address)": "35b28153",
    "auctions(uint256)": "571a26a0",
    "auctionsStarted()": "551cb3b1",
    "authorizedAccounts()": "2e391876",
    "authorizedAccounts(address)": "24ba5884",
    "contractEnabled()": "41b3a0d9",
    "disableContract()": "894ba833",
    "increaseBidSize(uint256,uint256,uint256)": "5a93f031",
    "modifyParameters(bytes32,bytes)": "da8a4bb8",
    "modifyParameters(bytes32,bytes32,bytes)": "12f33526",
    "params()": "cff0ab96",
    "protocolToken()": "1a465fe1",
    "removeAuthorization(address)": "94f3f81d",
    "restartAuction(uint256)": "d25ccf53",
    "safeEngine()": "67aea313",
    "settleAuction(uint256)": "2e993611",
    "startAuction(uint256,uint256)": "4fee13fc",
    "terminateAuctionPrematurely(uint256)": "933f7608"
  },
  "id": 60
}