{
  "abi": [
    {
      "inputs": [
        {
          "internalType": "address",
          "name": "_safeEngine",
          "type": "address"
        },
        {
          "internalType": "address",
          "name": "_protocolToken",
          "type": "address"
        },
        {
          "components": [
            {
              "internalType": "uint256",
              "name": "bidIncrease",
              "type": "uint256"
            },
            {
              "internalType": "uint256",
              "name": "bidDuration",
              "type": "uint256"
            },
            {
              "internalType": "uint256",
              "name": "totalAuctionLength",
              "type": "uint256"
            },
            {
              "internalType": "uint256",
              "name": "recyclingPercentage",
              "type": "uint256"
            }
          ],
          "internalType": "struct ISurplusAuctionHouse.SurplusAuctionHouseParams",
          "name": "_sahParams",
          "type": "tuple"
        }
      ],
      "stateMutability": "nonpayable",
      "type": "constructor"
    },
    {
      "inputs": [],
      "name": "AlreadyAuthorized",
      "type": "error"
    },
    {
      "inputs": [],
      "name": "ContractIsDisabled",
      "type": "error"
    },
    {
      "inputs": [],
      "name": "ContractIsEnabled",
      "type": "error"
    },
    {
      "inputs": [],
      "name": "NonDisableable",
      "type": "error"
    },
    {
      "inputs": [],
      "name": "NotAuthorized",
      "type": "error"
    },
    {
      "inputs": [],
      "name": "NullAddress",
      "type": "error"
    },
    {
      "inputs": [],
      "name": "SAH_AmountsNotMatching",
      "type": "error"
    },
    {
      "inputs": [],
      "name": "SAH_AuctionAlreadyExpired",
      "type": "error"
    },
    {
      "inputs": [],
      "name": "SAH_AuctionNeverStarted",
      "type": "error"
    },
    {
      "inputs": [],
      "name": "SAH_AuctionNotFinished",
      "type": "error"
    },
    {
      "inputs": [],
      "name": "SAH_BidAlreadyExpired",
      "type": "error"
    },
    {
      "inputs": [],
      "name": "SAH_BidAlreadyPlaced",
      "type": "error"
    },
    {
      "inputs": [],
      "name": "SAH_BidNotHigher",
      "type": "error"
    },
    {
      "inputs": [],
      "name": "SAH_HighBidderNotSet",
      "type": "error"
    },
    {
      "inputs": [],
      "name": "SAH_InsufficientIncrease",
      "type": "error"
    },
    {
      "inputs": [],
      "name": "SAH_NullProtTokenReceiver",
      "type": "error"
    },
    {
      "inputs": [],
      "name": "Unauthorized",
      "type": "error"
    },
    {
      "inputs": [],
      "name": "UnrecognizedCType",
      "type": "error"
    },
    {
      "inputs": [],
      "name": "UnrecognizedParam",
      "type": "error"
    },
    {
      "anonymous": false,
      "inputs": [
        {
          "indexed": false,
          "internalType": "address",
          "name": "_account",
          "type": "address"
        }
      ],
      "name": "AddAuthorization",
      "type": "event"
    },
    {
      "anonymous": false,
      "inputs": [],
      "name": "DisableContract",
      "type": "event"
    },
    {
      "anonymous": false,
      "inputs": [
        {
          "indexed": true,
          "internalType": "uint256",
          "name": "_id",
          "type": "uint256"
        },
        {
          "indexed": false,
          "internalType": "address",
          "name": "_bidder",
          "type": "address"
        },
        {
          "indexed": false,
          "internalType": "uint256",
          "name": "_blockTimestamp",
          "type": "uint256"
        },
        {
          "indexed": false,
          "internalType": "uint256",
          "name": "_raisedAmount",
          "type": "uint256"
        },
        {
          "indexed": false,
          "internalType": "uint256",
          "name": "_soldAmount",
          "type": "uint256"
        },
        {
          "indexed": false,
          "internalType": "uint256",
          "name": "_bidExpiry",
          "type": "uint256"
        }
      ],
      "name": "IncreaseBidSize",
      "type": "event"
    },
    {
      "anonymous": false,
      "inputs": [
        {
          "indexed": true,
          "internalType": "bytes32",
          "name": "_param",
          "type": "bytes32"
        },
        {
          "indexed": true,
          "internalType": "bytes32",
          "name": "_cType",
          "type": "bytes32"
        },
        {
          "indexed": false,
          "internalType": "bytes",
          "name": "_data",
          "type": "bytes"
        }
      ],
      "name": "ModifyParameters",
      "type": "event"
    },
    {
      "anonymous": false,
      "inputs": [
        {
          "indexed": false,
          "internalType": "address",
          "name": "_account",
          "type": "address"
        }
      ],
      "name": "RemoveAuthorization",
      "type": "event"
    },
    {
      "anonymous": false,
      "inputs": [
        {
          "indexed": true,
          "internalType": "uint256",
          "name": "_id",
          "type": "uint256"
        },
        {
          "indexed": false,
          "internalType": "uint256",
          "name": "_blockTimestamp",
          "type": "uint256"
        },
        {
          "indexed": false,
          "internalType": "uint256",
          "name": "_auctionDeadline",
          "type": "uint256"
        }
      ],
      "name": "RestartAuction",
      "type": "event"
    },
    {
      "anonymous": false,
      "inputs": [
        {
          "indexed": true,
          "internalType": "uint256",
          "name": "_id",
          "type": "uint256"
        },
        {
          "indexed": false,
          "internalType": "uint256",
          "name": "_blockTimestamp",
          "type": "uint256"
        },
        {
          "indexed": false,
          "internalType": "address",
          "name": "_highBidder",
          "type": "address"
        },
        {
          "indexed": false,
          "internalType": "uint256",
          "name": "_raisedAmount",
          "type": "uint256"
        }
      ],
      "name": "SettleAuction",
      "type": "event"
    },
    {
      "anonymous": false,
      "inputs": [
        {
          "indexed": true,
          "internalType": "uint256",
          "name": "_id",
          "type": "uint256"
        },
        {
          "indexed": false,
          "internalType": "uint256",
          "name": "_blockTimestamp",
          "type": "uint256"
        },
        {
          "indexed": false,
          "internalType": "uint256",
          "name": "_amountToSell",
          "type": "uint256"
        },
        {
          "indexed": false,
          "internalType": "uint256",
          "name": "_amountToRaise",
          "type": "uint256"
        },
        {
          "indexed": false,
          "internalType": "uint256",
          "name": "_auctionDeadline",
          "type": "uint256"
        }
      ],
      "name": "StartAuction",
      "type": "event"
    },
    {
      "anonymous": false,
      "inputs": [
        {
          "indexed": true,
          "internalType": "uint256",
          "name": "_id",
          "type": "uint256"
        },
        {
          "indexed": false,
          "internalType": "uint256",
          "name": "_blockTimestamp",
          "type": "uint256"
        },
        {
          "indexed": false,
          "internalType": "address",
          "name": "_highBidder",
          "type": "address"
        },
        {
          "indexed": false,
          "internalType": "uint256",
          "name": "_raisedAmount",
          "type": "uint256"
        }
      ],
      "name": "TerminateAuctionPrematurely",
      "type": "event"
    },
    {
      "inputs": [],
      "name": "AUCTION_HOUSE_TYPE",
      "outputs": [
        {
          "internalType": "bytes32",
          "name": "",
          "type": "bytes32"
        }
      ],
      "stateMutability": "view",
      "type": "function"
    },
    {
      "inputs": [],
      "name": "SURPLUS_AUCTION_TYPE",
      "outputs": [
        {
          "internalType": "bytes32",
          "name": "",
          "type": "bytes32"
        }
      ],
      "stateMutability": "view",
      "type": "function"
    },
    {
      "inputs": [
        {
          "internalType": "uint256",
          "name": "",
          "type": "uint256"
        }
      ],
      "name": "_auctions",
      "outputs": [
        {
          "internalType": "uint256",
          "name": "bidAmount",
          "type": "uint256"
        },
        {
          "internalType": "uint256",
          "name": "amountToSell",
          "type": "uint256"
        },
        {
          "internalType": "address",
          "name": "highBidder",
          "type": "address"
        },
        {
          "internalType": "uint256",
          "name": "bidExpiry",
          "type": "uint256"
        },
        {
          "internalType": "uint256",
          "name": "auctionDeadline",
          "type": "uint256"
        }
      ],
      "stateMutability": "view",
      "type": "function"
    },
    {
      "inputs": [],
      "name": "_params",
      "outputs": [
        {
          "internalType": "uint256",
          "name": "bidIncrease",
          "type": "uint256"
        },
        {
          "internalType": "uint256",
          "name": "bidDuration",
          "type": "uint256"
        },
        {
          "internalType": "uint256",
          "name": "totalAuctionLength",
          "type": "uint256"
        },
        {
          "internalType": "uint256",
          "name": "recyclingPercentage",
          "type": "uint256"
        }
      ],
      "stateMutability": "view",
      "type": "function"
    },
    {
      "inputs": [
        {
          "internalType": "address",
          "name": "_account",
          "type": "address"
        }
      ],
      "name": "addAuthorization",
      "outputs": [],
      "stateMutability": "nonpayable",
      "type": "function"
    },
    {
      "inputs": [
        {
          "internalType": "uint256",
          "name": "_id",
          "type": "uint256"
        }
      ],
      "name": "auctions",
      "outputs": [
        {
          "components": [
            {
              "internalType": "uint256",
              "name": "bidAmount",
              "type": "uint256"
            },
            {
              "internalType": "uint256",
              "name": "amountToSell",
              "type": "uint256"
            },
            {
              "internalType": "address",
              "name": "highBidder",
              "type": "address"
            },
            {
              "internalType": "uint256",
              "name": "bidExpiry",
              "type": "uint256"
            },
            {
              "internalType": "uint256",
              "name": "auctionDeadline",
              "type": "uint256"
            }
          ],
          "internalType": "struct ISurplusAuctionHouse.Auction",
          "name": "_auction",
          "type": "tuple"
        }
      ],
      "stateMutability": "view",
      "type": "function"
    },
    {
      "inputs": [],
      "name": "auctionsStarted",
      "outputs": [
        {
          "internalType": "uint256",
          "name": "",
          "type": "uint256"
        }
      ],
      "stateMutability": "view",
      "type": "function"
    },
    {
      "inputs": [
        {
          "internalType": "address",
          "name": "_account",
          "type": "address"
        }
      ],
      "name": "authorizedAccounts",
      "outputs": [
        {
          "internalType": "bool",
          "name": "_authorized",
          "type": "bool"
        }
      ],
      "stateMutability": "view",
      "type": "function"
    },
    {
      "inputs": [],
      "name": "authorizedAccounts",
      "outputs": [
        {
          "internalType": "address[]",
          "name": "_accounts",
          "type": "address[]"
        }
      ],
      "stateMutability": "view",
      "type": "function"
    },
    {
      "inputs": [],
      "name": "contractEnabled",
      "outputs": [
        {
          "internalType": "bool",
          "name": "",
          "type": "bool"
        }
      ],
      "stateMutability": "view",
      "type": "function"
    },
    {
      "inputs": [],
      "name": "disableContract",
      "outputs": [],
      "stateMutability": "nonpayable",
      "type": "function"
    },
    {
      "inputs": [
        {
          "internalType": "uint256",
          "name": "_id",
          "type": "uint256"
        },
        {
          "internalType": "uint256",
          "name": "_amountToBuy",
          "type": "uint256"
        },
        {
          "internalType": "uint256",
          "name": "_bid",
          "type": "uint256"
        }
      ],
      "name": "increaseBidSize",
      "outputs": [],
      "stateMutability": "nonpayable",
      "type": "function"
    },
    {
      "inputs": [
        {
          "internalType": "bytes32",
          "name": "_cType",
          "type": "bytes32"
        },
        {
          "internalType": "bytes32",
          "name": "_param",
          "type": "bytes32"
        },
        {
          "internalType": "bytes",
          "name": "_data",
          "type": "bytes"
        }
      ],
      "name": "modifyParameters",
      "outputs": [],
      "stateMutability": "nonpayable",
      "type": "function"
    },
    {
      "inputs": [
        {
          "internalType": "bytes32",
          "name": "_param",
          "type": "bytes32"
        },
        {
          "internalType": "bytes",
          "name": "_data",
          "type": "bytes"
        }
      ],
      "name": "modifyParameters",
      "outputs": [],
      "stateMutability": "nonpayable",
      "type": "function"
    },
    {
      "inputs": [],
      "name": "params",
      "outputs": [
        {
          "components": [
            {
              "internalType": "uint256",
              "name": "bidIncrease",
              "type": "uint256"
            },
            {
              "internalType": "uint256",
              "name": "bidDuration",
              "type": "uint256"
            },
            {
              "internalType": "uint256",
              "name": "totalAuctionLength",
              "type": "uint256"
            },
            {
              "internalType": "uint256",
              "name": "recyclingPercentage",
              "type": "uint256"
            }
          ],
          "internalType": "struct ISurplusAuctionHouse.SurplusAuctionHouseParams",
          "name": "_sahParams",
          "type": "tuple"
        }
      ],
      "stateMutability": "view",
      "type": "function"
    },
    {
      "inputs": [],
      "name": "protocolToken",
      "outputs": [
        {
          "internalType": "contract IProtocolToken",
          "name": "",
          "type": "address"
        }
      ],
      "stateMutability": "view",
      "type": "function"
    },
    {
      "inputs": [],
      "name": "protocolTokenBidReceiver",
      "outputs": [
        {
          "internalType": "address",
          "name": "",
          "type": "address"
        }
      ],
      "stateMutability": "view",
      "type": "function"
    },
    {
      "inputs": [
        {
          "internalType": "address",
          "name": "_account",
          "type": "address"
        }
      ],
      "name": "removeAuthorization",
      "outputs": [],
      "stateMutability": "nonpayable",
      "type": "function"
    },
    {
      "inputs": [
        {
          "internalType": "uint256",
          "name": "_id",
          "type": "uint256"
        }
      ],
      "name": "restartAuction",
      "outputs": [],
      "stateMutability": "nonpayable",
      "type": "function"
    },
    {
      "inputs": [],
      "name": "safeEngine",
      "outputs": [
        {
          "internalType": "contract ISAFEEngine",
          "name": "",
          "type": "address"
        }
      ],
      "stateMutability": "view",
      "type": "function"
    },
    {
      "inputs": [
        {
          "internalType": "uint256",
          "name": "_id",
          "type": "uint256"
        }
      ],
      "name": "settleAuction",
      "outputs": [],
      "stateMutability": "nonpayable",
      "type": "function"
    },
    {
      "inputs": [
        {
          "internalType": "uint256",
          "name": "_amountToSell",
          "type": "uint256"
        },
        {
          "internalType": "uint256",
          "name": "_initialBid",
          "type": "uint256"
        }
      ],
      "name": "startAuction",
      "outputs": [
        {
          "internalType": "uint256",
          "name": "_id",
          "type": "uint256"
        }
      ],
      "stateMutability": "nonpayable",
      "type": "function"
    },
    {
      "inputs": [
        {
          "internalType": "uint256",
          "name": "_id",
          "type": "uint256"
        }
      ],
      "name": "terminateAuctionPrematurely",
      "outputs": [],
      "stateMutability": "nonpayable",
      "type": "function"
    }
  ],
  "bytecode": {
    "object": "0x60806040526002805460ff191660011790553480156200001e57600080fd5b506040516200266c3803806200266c8339810160408190526200004191620001f9565b336200004d81620000d1565b50620000626001600160a01b0384166200013c565b600580546001600160a01b0319166001600160a01b039283161790556200008b9083166200013c565b600680546001600160a01b0319166001600160a01b0392909216919091179055805160085560208101516009556040810151600a556060810151600b55505050620002a7565b620000de6000826200016a565b1562000123576040516001600160a01b03821681527f599a298163e1678bb1c676052a8930bf0b8a1261ed6e01b8a2391e55f70001029060200160405180910390a150565b604051633013e93f60e11b815260040160405180910390fd5b60006001600160a01b038216620001665760405163e99d5ac560e01b815260040160405180910390fd5b5090565b600062000181836001600160a01b0384166200018a565b90505b92915050565b6000818152600183016020526040812054620001d35750815460018181018455600084815260208082209093018490558454848252828601909352604090209190915562000184565b50600062000184565b80516001600160a01b0381168114620001f457600080fd5b919050565b600080600083850360c08112156200021057600080fd5b6200021b85620001dc565b93506200022b60208601620001dc565b92506080603f19820112156200024057600080fd5b50604051608081016001600160401b03811182821017156200027257634e487b7160e01b600052604160045260246000fd5b806040525060408501518152606085015160208201526080850151604082015260a08501516060820152809150509250925092565b6123b580620002b76000396000f3fe608060405234801561001057600080fd5b506004361061018d5760003560e01c8063552b16ab116100e3578063933f76081161008c578063d25ccf5311610066578063d25ccf53146104a9578063da8a4bb8146104bc578063f0ed4db0146104cf57600080fd5b8063933f76081461044857806394f3f81d1461045b578063cff0ab961461046e57600080fd5b8063619ed1f8116100bd578063619ed1f8146103f957806367aea31314610420578063894ba8331461044057600080fd5b8063552b16ab14610345578063571a26a01461037b5780635a93f031146103e657600080fd5b80632e3918761161014557806341b3a0d91161011f57806341b3a0d91461031c5780634fee13fc14610329578063551cb3b11461033c57600080fd5b80632e391876146102e15780632e993611146102f657806335b281531461030957600080fd5b806317dc6bf61161017657806317dc6bf6146101e15780631a465fe11461027957806324ba5884146102be57600080fd5b80631266fb941461019257806312f33526146101cc575b600080fd5b6101b97f535552504c55530000000000000000000000000000000000000000000000000081565b6040519081526020015b60405180910390f35b6101df6101da366004611fdc565b6104ef565b005b6102366101ef36600461202c565b6003602081905260009182526040909120805460018201546002830154938301546004909301549193909273ffffffffffffffffffffffffffffffffffffffff9091169185565b60408051958652602086019490945273ffffffffffffffffffffffffffffffffffffffff909216928401929092526060830191909152608082015260a0016101c3565b6006546102999073ffffffffffffffffffffffffffffffffffffffff1681565b60405173ffffffffffffffffffffffffffffffffffffffff90911681526020016101c3565b6102d16102cc366004612045565b61057a565b60405190151581526020016101c3565b6102e961058b565b6040516101c3919061207b565b6101df61030436600461202c565b61059c565b6101df610317366004612045565b6108bd565b6002546102d19060ff1681565b6101b96103373660046120d5565b610908565b6101b960045481565b600854600954600a54600b5461035b9392919084565b6040805194855260208501939093529183015260608201526080016101c3565b61038e61038936600461202c565b610b9f565b6040516101c39190600060a082019050825182526020830151602083015273ffffffffffffffffffffffffffffffffffffffff6040840151166040830152606083015160608301526080830151608083015292915050565b6101df6103f43660046120f7565b610c4b565b6101b97f4d495845442d535452415400000000000000000000000000000000000000000081565b6005546102999073ffffffffffffffffffffffffffffffffffffffff1681565b6101df610f65565b6101df61045636600461202c565b61103b565b6101df610469366004612045565b6111e8565b610476611230565b6040516101c391908151815260208083015190820152604080830151908201526060918201519181019190915260800190565b6101df6104b736600461202c565b611288565b6101df6104ca366004612123565b6113ae565b6007546102999073ffffffffffffffffffffffffffffffffffffffff1681565b6104f833611437565b61052e576040517f82b4290000000000000000000000000000000000000000000000000000000000815260040160405180910390fd5b8261053a848484611443565b83837fe436a8be7dc6aab90b400800ecc86e46fb600f2e18989b5d0389840fdabbf2ed8460405161056b91906121d8565b60405180910390a35b50505050565b600061058582611437565b92915050565b60606105976000611475565b905090565b60025460ff166105d8576040517f7abbf1c900000000000000000000000000000000000000000000000000000000815260040160405180910390fd5b600081815260036020818152604092839020835160a08101855281548152600182015492810192909252600281015473ffffffffffffffffffffffffffffffffffffffff16938201939093529082015460608201819052600490920154608082015290158061065857504281606001511180156106585750428160800151115b1561068f576040517f8a9fdc6a00000000000000000000000000000000000000000000000000000000815260040160405180910390fd5b600554604082810151602084015191517fefabcadc00000000000000000000000000000000000000000000000000000000815230600482015273ffffffffffffffffffffffffffffffffffffffff918216602482015260448101929092529091169063efabcadc90606401600060405180830381600087803b15801561071457600080fd5b505af1158015610728573d6000803e3d6000fd5b5050600b5483516000935061073e925090611489565b90508015610770576007546006546107709173ffffffffffffffffffffffffffffffffffffffff9182169116836114a8565b815160009061078090839061221a565b9050801561080d576006546040517f42966c680000000000000000000000000000000000000000000000000000000081526004810183905273ffffffffffffffffffffffffffffffffffffffff909116906342966c6890602401600060405180830381600087803b1580156107f457600080fd5b505af1158015610808573d6000803e3d6000fd5b505050505b6040838101518451825142815273ffffffffffffffffffffffffffffffffffffffff909216602083015281830152905185917fce605a43280ed04bb2cf4231276a425e3650af62821a5e1f0c8daf63beba6c34919081900360600190a250505060009081526003602081905260408220828155600181018390556002810180547fffffffffffffffffffffffff000000000000000000000000000000000000000016905590810182905560040155565b6108c633611437565b6108fc576040517f82b4290000000000000000000000000000000000000000000000000000000000815260040160405180910390fd5b61090581611581565b50565b600061091333611437565b610949576040517f82b4290000000000000000000000000000000000000000000000000000000000815260040160405180910390fd5b60025460ff16610985576040517f7abbf1c900000000000000000000000000000000000000000000000000000000815260040160405180910390fd5b60075473ffffffffffffffffffffffffffffffffffffffff161580156109ac5750600b5415155b156109e3576040517f12901a0d00000000000000000000000000000000000000000000000000000000815260040160405180910390fd5b6004600081546109f29061222d565b91905081905590506040518060a001604052808381526020018481526020013373ffffffffffffffffffffffffffffffffffffffff1681526020016000815260200160086002015442610a459190612265565b905260008281526003602081815260409283902084518155908401516001820155838301516002820180547fffffffffffffffffffffffff00000000000000000000000000000000000000001673ffffffffffffffffffffffffffffffffffffffff92831617905560608501519282019290925560809093015160049384015560055491517fefabcadc000000000000000000000000000000000000000000000000000000008152339381019390935230602484015260448301869052169063efabcadc90606401600060405180830381600087803b158015610b2757600080fd5b505af1158015610b3b573d6000803e3d6000fd5b505050600082815260036020908152604091829020600401548251428152918201879052818301869052606082015290518392507fa4863af70e77aecfe2769e0569806782ba7c6f86fc9a307290a3816fb8a563e59181900360800190a292915050565b610be76040518060a001604052806000815260200160008152602001600073ffffffffffffffffffffffffffffffffffffffff16815260200160008152602001600081525090565b50600090815260036020818152604092839020835160a08101855281548152600182015492810192909252600281015473ffffffffffffffffffffffffffffffffffffffff1693820193909352908201546060820152600490910154608082015290565b60025460ff16610c87576040517f7abbf1c900000000000000000000000000000000000000000000000000000000815260040160405180910390fd5b6000838152600360205260409020600281015473ffffffffffffffffffffffffffffffffffffffff16610ce6576040517f3f7caeae00000000000000000000000000000000000000000000000000000000815260040160405180910390fd5b42816003015411158015610cfd5750600381015415155b15610d34576040517fc3e4393200000000000000000000000000000000000000000000000000000000815260040160405180910390fd5b42816004015411610d71576040517f9203423800000000000000000000000000000000000000000000000000000000815260040160405180910390fd5b80600101548314610dae576040517fbda58db600000000000000000000000000000000000000000000000000000000815260040160405180910390fd5b80548211610de8576040517f88020a0a00000000000000000000000000000000000000000000000000000000815260040160405180910390fd5b8054600854610df79190612278565b610e09670de0b6b3a764000084612278565b1015610e41576040517fe08b005b00000000000000000000000000000000000000000000000000000000815260040160405180910390fd5b600281015473ffffffffffffffffffffffffffffffffffffffff163314610ec15760028101548154600654610e949273ffffffffffffffffffffffffffffffffffffffff91821692339290911690611610565b6002810180547fffffffffffffffffffffffff000000000000000000000000000000000000000016331790555b610ef73330836000015485610ed6919061221a565b60065473ffffffffffffffffffffffffffffffffffffffff16929190611610565b818155600954610f079042612265565b600382018190556040805133815242602082015290810184905260608101859052608081019190915284907fbabed4bc302f25a2be9c3286529806aca3c81480ba4b26ee5512277c996e18e99060a00160405180910390a250505050565b610f6e33611437565b610fa4576040517f82b4290000000000000000000000000000000000000000000000000000000000815260040160405180910390fd5b60025460ff16610fe0576040517f7abbf1c900000000000000000000000000000000000000000000000000000000815260040160405180910390fd5b600280547fffffffffffffffffffffffffffffffffffffffffffffffffffffffffffffff0016905561101061166e565b6040517f2d4b4ecff7bd7503135271925520a2f6c0d98c9473ffc1a1e72c92502f51b25e90600090a1565b60025460ff1615611078576040517ff59a25d600000000000000000000000000000000000000000000000000000000815260040160405180910390fd5b600081815260036020818152604092839020835160a08101855281548152600182015492810192909252600281015473ffffffffffffffffffffffffffffffffffffffff1693820184905291820154606082015260049091015460808201529061110e576040517f3f7caeae00000000000000000000000000000000000000000000000000000000815260040160405180910390fd5b6040810151815160065461113a9273ffffffffffffffffffffffffffffffffffffffff909116916114a8565b6040818101518251825142815273ffffffffffffffffffffffffffffffffffffffff909216602083015281830152905183917f728fcceeefd42b7de1122fe9fef58c0bacd081dcbd7a141315835ba00d29b4b1919081900360600190a25060009081526003602081905260408220828155600181018390556002810180547fffffffffffffffffffffffff000000000000000000000000000000000000000016905590810182905560040155565b6111f133611437565b611227576040517f82b4290000000000000000000000000000000000000000000000000000000000815260040160405180910390fd5b61090581611795565b61125b6040518060800160405280600081526020016000815260200160008152602001600081525090565b506040805160808101825260085481526009546020820152600a5491810191909152600b54606082015290565b801580611296575060045481115b156112cd576040517f67374ccd00000000000000000000000000000000000000000000000000000000815260040160405180910390fd5b60008181526003602052604090206004810154421015611319576040517f8a9fdc6a00000000000000000000000000000000000000000000000000000000815260040160405180910390fd5b600381015415611355576040517f10cff0e800000000000000000000000000000000000000000000000000000000815260040160405180910390fd5b600a546113629042612265565b6004820181905560405183917f52926b7e2fb12434af05e0b5e28d2b857fc6a23d92f7d7b8ebc6ec6b0fb4419e916113a291428252602082015260400190565b60405180910390a25050565b6113b733611437565b6113ed576040517f82b4290000000000000000000000000000000000000000000000000000000000815260040160405180910390fd5b6113f7828261181d565b6000801b827fe436a8be7dc6aab90b400800ecc86e46fb600f2e18989b5d0389840fdabbf2ed8360405161142b91906121d8565b60405180910390a35050565b6000610585818361197e565b6040517f9d2ff48000000000000000000000000000000000000000000000000000000000815260040160405180910390fd5b60606000611482836119ad565b9392505050565b6000670de0b6b3a764000061149e8385612278565b611482919061228f565b60405173ffffffffffffffffffffffffffffffffffffffff831660248201526044810182905261157c9084907fa9059cbb00000000000000000000000000000000000000000000000000000000906064015b604080517fffffffffffffffffffffffffffffffffffffffffffffffffffffffffffffffe08184030181529190526020810180517bffffffffffffffffffffffffffffffffffffffffffffffffffffffff167fffffffff0000000000000000000000000000000000000000000000000000000090931692909217909152611a09565b505050565b61158c600082611b1a565b156115de5760405173ffffffffffffffffffffffffffffffffffffffff821681527f599a298163e1678bb1c676052a8930bf0b8a1261ed6e01b8a2391e55f7000102906020015b60405180910390a150565b6040517f6027d27e00000000000000000000000000000000000000000000000000000000815260040160405180910390fd5b60405173ffffffffffffffffffffffffffffffffffffffff808516602483015283166044820152606481018290526105749085907f23b872dd00000000000000000000000000000000000000000000000000000000906084016114fa565b6005546040517ffabde80c00000000000000000000000000000000000000000000000000000000815230600482015260009173ffffffffffffffffffffffffffffffffffffffff169063fabde80c90602401602060405180830381865afa1580156116dd573d6000803e3d6000fd5b505050506040513d601f19601f8201168201806040525081019061170191906122ca565b6005546040517fefabcadc0000000000000000000000000000000000000000000000000000000081523060048201523360248201526044810183905291925073ffffffffffffffffffffffffffffffffffffffff169063efabcadc90606401600060405180830381600087803b15801561177a57600080fd5b505af115801561178e573d6000803e3d6000fd5b5050505050565b6117a0600082611b3c565b156117eb5760405173ffffffffffffffffffffffffffffffffffffffff821681527f8834a87e641e9716be4f34527af5d23e11624f1ddeefede6ad75a9acfc31b903906020016115d3565b6040517fea8e4eb500000000000000000000000000000000000000000000000000000000815260040160405180910390fd5b600061182a826020015190565b9050827f70726f746f636f6c546f6b656e42696452656365697665720000000000000000036118c65761187c611861836020015190565b73ffffffffffffffffffffffffffffffffffffffff16611b5e565b600780547fffffffffffffffffffffffff00000000000000000000000000000000000000001673ffffffffffffffffffffffffffffffffffffffff92909216919091179055505050565b827f626964496e637265617365000000000000000000000000000000000000000000036118f4576008555050565b827f6269644475726174696f6e00000000000000000000000000000000000000000003611922576009555050565b827f746f74616c41756374696f6e4c656e67746800000000000000000000000000000361195057600a555050565b827f72656379636c696e6750657263656e74616765000000000000000000000000000361144357600b555050565b73ffffffffffffffffffffffffffffffffffffffff811660009081526001830160205260408120541515611482565b6060816000018054806020026020016040519081016040528092919081815260200182805480156119fd57602002820191906000526020600020905b8154815260200190600101908083116119e9575b50505050509050919050565b6000611a6b826040518060400160405280602081526020017f5361666545524332303a206c6f772d6c6576656c2063616c6c206661696c65648152508573ffffffffffffffffffffffffffffffffffffffff16611bb19092919063ffffffff16565b80519091501561157c5780806020019051810190611a8991906122e3565b61157c576040517f08c379a000000000000000000000000000000000000000000000000000000000815260206004820152602a60248201527f5361666545524332303a204552433230206f7065726174696f6e20646964206e60448201527f6f7420737563636565640000000000000000000000000000000000000000000060648201526084015b60405180910390fd5b60006114828373ffffffffffffffffffffffffffffffffffffffff8416611bc8565b60006114828373ffffffffffffffffffffffffffffffffffffffff8416611c17565b600073ffffffffffffffffffffffffffffffffffffffff8216611bad576040517fe99d5ac500000000000000000000000000000000000000000000000000000000815260040160405180910390fd5b5090565b6060611bc08484600085611d0a565b949350505050565b6000818152600183016020526040812054611c0f57508154600181810184556000848152602080822090930184905584548482528286019093526040902091909155610585565b506000610585565b60008181526001830160205260408120548015611d00576000611c3b60018361221a565b8554909150600090611c4f9060019061221a565b9050818114611cb4576000866000018281548110611c6f57611c6f612305565b9060005260206000200154905080876000018481548110611c9257611c92612305565b6000918252602080832090910192909255918252600188019052604090208390555b8554869080611cc557611cc5612334565b600190038181906000526020600020016000905590558560010160008681526020019081526020016000206000905560019350505050610585565b6000915050610585565b606082471015611d9c576040517f08c379a000000000000000000000000000000000000000000000000000000000815260206004820152602660248201527f416464726573733a20696e73756666696369656e742062616c616e636520666f60448201527f722063616c6c00000000000000000000000000000000000000000000000000006064820152608401611b11565b6000808673ffffffffffffffffffffffffffffffffffffffff168587604051611dc59190612363565b60006040518083038185875af1925050503d8060008114611e02576040519150601f19603f3d011682016040523d82523d6000602084013e611e07565b606091505b5091509150611e1887838387611e23565b979650505050505050565b60608315611eb9578251600003611eb25773ffffffffffffffffffffffffffffffffffffffff85163b611eb2576040517f08c379a000000000000000000000000000000000000000000000000000000000815260206004820152601d60248201527f416464726573733a2063616c6c20746f206e6f6e2d636f6e74726163740000006044820152606401611b11565b5081611bc0565b611bc08383815115611ece5781518083602001fd5b806040517f08c379a0000000000000000000000000000000000000000000000000000000008152600401611b1191906121d8565b7f4e487b7100000000000000000000000000000000000000000000000000000000600052604160045260246000fd5b600082601f830112611f4257600080fd5b813567ffffffffffffffff80821115611f5d57611f5d611f02565b604051601f83017fffffffffffffffffffffffffffffffffffffffffffffffffffffffffffffffe0908116603f01168101908282118183101715611fa357611fa3611f02565b81604052838152866020858801011115611fbc57600080fd5b836020870160208301376000602085830101528094505050505092915050565b600080600060608486031215611ff157600080fd5b8335925060208401359150604084013567ffffffffffffffff81111561201657600080fd5b61202286828701611f31565b9150509250925092565b60006020828403121561203e57600080fd5b5035919050565b60006020828403121561205757600080fd5b813573ffffffffffffffffffffffffffffffffffffffff8116811461148257600080fd5b6020808252825182820181905260009190848201906040850190845b818110156120c957835173ffffffffffffffffffffffffffffffffffffffff1683529284019291840191600101612097565b50909695505050505050565b600080604083850312156120e857600080fd5b50508035926020909101359150565b60008060006060848603121561210c57600080fd5b505081359360208301359350604090920135919050565b6000806040838503121561213657600080fd5b82359150602083013567ffffffffffffffff81111561215457600080fd5b61216085828601611f31565b9150509250929050565b60005b8381101561218557818101518382015260200161216d565b50506000910152565b600081518084526121a681602086016020860161216a565b601f017fffffffffffffffffffffffffffffffffffffffffffffffffffffffffffffffe0169290920160200192915050565b602081526000611482602083018461218e565b7f4e487b7100000000000000000000000000000000000000000000000000000000600052601160045260246000fd5b81810381811115610585576105856121eb565b60007fffffffffffffffffffffffffffffffffffffffffffffffffffffffffffffffff820361225e5761225e6121eb565b5060010190565b80820180821115610585576105856121eb565b8082028115828204841417610585576105856121eb565b6000826122c5577f4e487b7100000000000000000000000000000000000000000000000000000000600052601260045260246000fd5b500490565b6000602082840312156122dc57600080fd5b5051919050565b6000602082840312156122f557600080fd5b8151801515811461148257600080fd5b7f4e487b7100000000000000000000000000000000000000000000000000000000600052603260045260246000fd5b7f4e487b7100000000000000000000000000000000000000000000000000000000600052603160045260246000fd5b6000825161237581846020870161216a565b919091019291505056fea2646970667358221220a0ddaa19a37cbc08c8810098ab571d8cd863fee2e9a4e59f33adf4fa2d69549764736f6c63430008130033",
    "linkReferences": {}
  },
  "methodIdentifiers": {
    "AUCTION_HOUSE_TYPE()": "1266fb94",
    "SURPLUS_AUCTION_TYPE()": "619ed1f8",
    "_auctions(uint256)": "17dc6bf6",
    "_params()": "552b16ab",
    "addAuthorization(address)": "35b28153",
    "auctions(uint256)": "571a26a0",
    "auctionsStarted()": "551cb3b1",
    "authorizedAccounts()": "2e391876",
    "authorizedAccounts(address)": "24ba5884",
    "contractEnabled()": "41b3a0d9",
    "disableContract()": "894ba833",
    "increaseBidSize(uint256,uint256,uint256)": "5a93f031",
    "modifyParameters(bytes32,bytes)": "da8a4bb8",
    "modifyParameters(bytes32,bytes32,bytes)": "12f33526",
    "params()": "cff0ab96",
    "protocolToken()": "1a465fe1",
    "protocolTokenBidReceiver()": "f0ed4db0",
    "removeAuthorization(address)": "94f3f81d",
    "restartAuction(uint256)": "d25ccf53",
    "safeEngine()": "67aea313",
    "settleAuction(uint256)": "2e993611",
    "startAuction(uint256,uint256)": "4fee13fc",
    "terminateAuctionPrematurely(uint256)": "933f7608"
  },
  "id": 59
}