{
  "abi": [
    {
      "inputs": [],
      "name": "OnlyDelegateCalls",
      "type": "error"
    },
    {
      "inputs": [
        {
          "internalType": "address",
          "name": "_coinJoin",
          "type": "address"
        }
      ],
      "name": "exitAllSystemCoins",
      "outputs": [],
      "stateMutability": "nonpayable",
      "type": "function"
    },
    {
      "inputs": [
        {
          "internalType": "address",
          "name": "_collateralJoin",
          "type": "address"
        },
        {
          "internalType": "uint256",
          "name": "_wad",
          "type": "uint256"
        }
      ],
      "name": "exitCollateral",
      "outputs": [],
      "stateMutability": "nonpayable",
      "type": "function"
    },
    {
      "inputs": [
        {
          "internalType": "address",
          "name": "_coinJoin",
          "type": "address"
        },
        {
          "internalType": "uint256",
          "name": "_coinsToExit",
          "type": "uint256"
        }
      ],
      "name": "exitSystemCoins",
      "outputs": [],
      "stateMutability": "nonpayable",
      "type": "function"
    },
    {
      "inputs": [
        {
          "internalType": "address",
          "name": "_surplusAuctionHouse",
          "type": "address"
        },
        {
          "internalType": "uint256",
          "name": "_auctionId",
          "type": "uint256"
        },
        {
          "internalType": "uint256",
          "name": "_bidAmount",
          "type": "uint256"
        }
      ],
      "name": "increaseBidSize",
      "outputs": [],
      "stateMutability": "nonpayable",
      "type": "function"
    },
    {
      "inputs": [
        {
          "internalType": "address",
          "name": "_coinJoin",
          "type": "address"
        },
        {
          "internalType": "address",
          "name": "_dst",
          "type": "address"
        },
        {
          "internalType": "uint256",
          "name": "_wad",
          "type": "uint256"
        }
      ],
      "name": "joinSystemCoins",
      "outputs": [],
      "stateMutability": "nonpayable",
      "type": "function"
    },
    {
      "inputs": [
        {
          "internalType": "address",
          "name": "_coinJoin",
          "type": "address"
        },
        {
          "internalType": "address",
          "name": "_surplusAuctionHouse",
          "type": "address"
        },
        {
          "internalType": "uint256",
          "name": "_auctionId",
          "type": "uint256"
        }
      ],
      "name": "settleAuction",
      "outputs": [],
      "stateMutability": "nonpayable",
      "type": "function"
    }
  ],
  "bytecode": {
    "object": "0x60a06040523060805234801561001457600080fd5b506080516113be610053600039600081816101020152818161044a015281816105ca01528181610643015281816106c2015261073b01526113be6000f3fe608060405234801561001057600080fd5b50600436106100725760003560e01c8063902746d711610050578063902746d7146100b2578063d6f25400146100c5578063fdbc9820146100d857600080fd5b80630b08a614146100775780632da467341461008c5780634f127f431461009f575b600080fd5b61008a61008536600461101c565b6100eb565b005b61008a61009a366004611051565b610433565b61008a6100ad366004611075565b6105b3565b61008a6100c03660046110a1565b61062c565b61008a6100d3366004611075565b6106ab565b61008a6100e63660046110a1565b610724565b73ffffffffffffffffffffffffffffffffffffffff7f000000000000000000000000000000000000000000000000000000000000000016300361015a576040517f0406dd4b00000000000000000000000000000000000000000000000000000000815260040160405180910390fd5b6040517f571a26a00000000000000000000000000000000000000000000000000000000081526004810183905260009073ffffffffffffffffffffffffffffffffffffffff85169063571a26a09060240160a060405180830381865afa1580156101c8573d6000803e3d6000fd5b505050506040513d601f19601f820116820180604052508101906101ec91906110e2565b60200151905060008473ffffffffffffffffffffffffffffffffffffffff16631a465fe16040518163ffffffff1660e01b8152600401602060405180830381865afa15801561023f573d6000803e3d6000fd5b505050506040513d601f19601f820116820180604052508101906102639190611181565b6040517f23b872dd0000000000000000000000000000000000000000000000000000000081523360048201523060248201526044810185905290915073ffffffffffffffffffffffffffffffffffffffff8216906323b872dd906064016020604051808303816000875af11580156102df573d6000803e3d6000fd5b505050506040513d601f19601f82011682018060405250810190610303919061119e565b506040517f095ea7b300000000000000000000000000000000000000000000000000000000815273ffffffffffffffffffffffffffffffffffffffff86811660048301526024820185905282169063095ea7b3906044016020604051808303816000875af1158015610379573d6000803e3d6000fd5b505050506040513d601f19601f8201168201806040525081019061039d919061119e565b506040517f5a93f03100000000000000000000000000000000000000000000000000000000815260048101859052602481018390526044810184905273ffffffffffffffffffffffffffffffffffffffff861690635a93f03190606401600060405180830381600087803b15801561041457600080fd5b505af1158015610428573d6000803e3d6000fd5b505050505050505050565b73ffffffffffffffffffffffffffffffffffffffff7f00000000000000000000000000000000000000000000000000000000000000001630036104a2576040517f0406dd4b00000000000000000000000000000000000000000000000000000000815260040160405180910390fd5b60008173ffffffffffffffffffffffffffffffffffffffff166367aea3136040518163ffffffff1660e01b8152600401602060405180830381865afa1580156104ef573d6000803e3d6000fd5b505050506040513d601f19601f820116820180604052508101906105139190611181565b6040517ffabde80c00000000000000000000000000000000000000000000000000000000815230600482015273ffffffffffffffffffffffffffffffffffffffff919091169063fabde80c90602401602060405180830381865afa15801561057f573d6000803e3d6000fd5b505050506040513d601f19601f820116820180604052508101906105a391906111c0565b90506105af82826108bc565b5050565b73ffffffffffffffffffffffffffffffffffffffff7f0000000000000000000000000000000000000000000000000000000000000000163003610622576040517f0406dd4b00000000000000000000000000000000000000000000000000000000815260040160405180910390fd5b6105af82826108bc565b73ffffffffffffffffffffffffffffffffffffffff7f000000000000000000000000000000000000000000000000000000000000000016300361069b576040517f0406dd4b00000000000000000000000000000000000000000000000000000000815260040160405180910390fd5b6106a6838383610b1b565b505050565b73ffffffffffffffffffffffffffffffffffffffff7f000000000000000000000000000000000000000000000000000000000000000016300361071a576040517f0406dd4b00000000000000000000000000000000000000000000000000000000815260040160405180910390fd5b6105af8282610d2f565b73ffffffffffffffffffffffffffffffffffffffff7f0000000000000000000000000000000000000000000000000000000000000000163003610793576040517f0406dd4b00000000000000000000000000000000000000000000000000000000815260040160405180910390fd5b6040517f571a26a00000000000000000000000000000000000000000000000000000000081526004810182905260009073ffffffffffffffffffffffffffffffffffffffff84169063571a26a09060240160a060405180830381865afa158015610801573d6000803e3d6000fd5b505050506040513d601f19601f8201168201806040525081019061082591906110e2565b602001516040517f2e9936110000000000000000000000000000000000000000000000000000000081526004810184905290915073ffffffffffffffffffffffffffffffffffffffff841690632e99361190602401600060405180830381600087803b15801561089457600080fd5b505af11580156108a8573d6000803e3d6000fd5b505050506108b684826108bc565b50505050565b806000036108c8575050565b600082905060008173ffffffffffffffffffffffffffffffffffffffff166367aea3136040518163ffffffff1660e01b8152600401602060405180830381865afa15801561091a573d6000803e3d6000fd5b505050506040513d601f19601f8201168201806040525081019061093e9190611181565b6040517f50de215d00000000000000000000000000000000000000000000000000000000815230600482015273ffffffffffffffffffffffffffffffffffffffff8681166024830152919250908216906350de215d90604401602060405180830381865afa1580156109b4573d6000803e3d6000fd5b505050506040513d601f19601f820116820180604052508101906109d8919061119e565b610a5e576040517fd94d420800000000000000000000000000000000000000000000000000000000815273ffffffffffffffffffffffffffffffffffffffff858116600483015282169063d94d420890602401600060405180830381600087803b158015610a4557600080fd5b505af1158015610a59573d6000803e3d6000fd5b505050505b73ffffffffffffffffffffffffffffffffffffffff821663ef693bed33610a916b033b2e3c9fd0803ce800000087611208565b6040517fffffffff0000000000000000000000000000000000000000000000000000000060e085901b16815273ffffffffffffffffffffffffffffffffffffffff909216600483015260248201526044015b600060405180830381600087803b158015610afd57600080fd5b505af1158015610b11573d6000803e3d6000fd5b5050505050505050565b80600003610b2857505050565b60008373ffffffffffffffffffffffffffffffffffffffff1663a7e944556040518163ffffffff1660e01b8152600401602060405180830381865afa158015610b75573d6000803e3d6000fd5b505050506040513d601f19601f82011682018060405250810190610b999190611181565b6040517f23b872dd0000000000000000000000000000000000000000000000000000000081523360048201523060248201526044810184905290915073ffffffffffffffffffffffffffffffffffffffff8216906323b872dd906064016020604051808303816000875af1158015610c15573d6000803e3d6000fd5b505050506040513d601f19601f82011682018060405250810190610c39919061119e565b506040517f095ea7b300000000000000000000000000000000000000000000000000000000815273ffffffffffffffffffffffffffffffffffffffff85811660048301526024820184905282169063095ea7b3906044016020604051808303816000875af1158015610caf573d6000803e3d6000fd5b505050506040513d601f19601f82011682018060405250810190610cd3919061119e565b506040517f3b4da69f00000000000000000000000000000000000000000000000000000000815273ffffffffffffffffffffffffffffffffffffffff848116600483015260248201849052851690633b4da69f90604401610ae3565b80600003610d3b575050565b600082905060008173ffffffffffffffffffffffffffffffffffffffff166367aea3136040518163ffffffff1660e01b8152600401602060405180830381865afa158015610d8d573d6000803e3d6000fd5b505050506040513d601f19601f82011682018060405250810190610db19190611181565b6040517f50de215d00000000000000000000000000000000000000000000000000000000815230600482015273ffffffffffffffffffffffffffffffffffffffff8681166024830152919250908216906350de215d90604401602060405180830381865afa158015610e27573d6000803e3d6000fd5b505050506040513d601f19601f82011682018060405250810190610e4b919061119e565b610ed1576040517fd94d420800000000000000000000000000000000000000000000000000000000815273ffffffffffffffffffffffffffffffffffffffff858116600483015282169063d94d420890602401600060405180830381600087803b158015610eb857600080fd5b505af1158015610ecc573d6000803e3d6000fd5b505050505b60008273ffffffffffffffffffffffffffffffffffffffff1663313ce5676040518163ffffffff1660e01b8152600401602060405180830381865afa158015610f1e573d6000803e3d6000fd5b505050506040513d601f19601f82011682018060405250810190610f4291906111c0565b90506000610f51826012611243565b610f5c90600a61137c565b610f669086611208565b6040517fef693bed0000000000000000000000000000000000000000000000000000000081523360048201526024810182905290915073ffffffffffffffffffffffffffffffffffffffff85169063ef693bed90604401600060405180830381600087803b158015610fd757600080fd5b505af1158015610feb573d6000803e3d6000fd5b50505050505050505050565b73ffffffffffffffffffffffffffffffffffffffff8116811461101957600080fd5b50565b60008060006060848603121561103157600080fd5b833561103c81610ff7565b95602085013595506040909401359392505050565b60006020828403121561106357600080fd5b813561106e81610ff7565b9392505050565b6000806040838503121561108857600080fd5b823561109381610ff7565b946020939093013593505050565b6000806000606084860312156110b657600080fd5b83356110c181610ff7565b925060208401356110d181610ff7565b929592945050506040919091013590565b600060a082840312156110f457600080fd5b60405160a0810181811067ffffffffffffffff8211171561113e577f4e487b7100000000000000000000000000000000000000000000000000000000600052604160045260246000fd5b80604052508251815260208301516020820152604083015161115f81610ff7565b6040820152606083810151908201526080928301519281019290925250919050565b60006020828403121561119357600080fd5b815161106e81610ff7565b6000602082840312156111b057600080fd5b8151801515811461106e57600080fd5b6000602082840312156111d257600080fd5b5051919050565b7f4e487b7100000000000000000000000000000000000000000000000000000000600052601160045260246000fd5b60008261123e577f4e487b7100000000000000000000000000000000000000000000000000000000600052601260045260246000fd5b500490565b81810381811115611256576112566111d9565b92915050565b600181815b808511156112b557817fffffffffffffffffffffffffffffffffffffffffffffffffffffffffffffffff0482111561129b5761129b6111d9565b808516156112a857918102915b93841c9390800290611261565b509250929050565b6000826112cc57506001611256565b816112d957506000611256565b81600181146112ef57600281146112f957611315565b6001915050611256565b60ff84111561130a5761130a6111d9565b50506001821b611256565b5060208310610133831016604e8410600b8410161715611338575081810a611256565b611342838361125c565b807fffffffffffffffffffffffffffffffffffffffffffffffffffffffffffffffff04821115611374576113746111d9565b029392505050565b600061106e83836112bd56fea2646970667358221220b13ca5b6750386ad6b348f7272689b5666ffac742c78069b9d1ddc8ce6d9941d64736f6c63430008130033",
    "linkReferences": {}
  },
  "methodIdentifiers": {
    "exitAllSystemCoins(address)": "2da46734",
    "exitCollateral(address,uint256)": "d6f25400",
    "exitSystemCoins(address,uint256)": "4f127f43",
    "increaseBidSize(address,uint256,uint256)": "0b08a614",
    "joinSystemCoins(address,address,uint256)": "902746d7",
    "settleAuction(address,address,uint256)": "fdbc9820"
  },
  "id": 131
}