{
  "abi": [
    {
      "inputs": [
        {
          "internalType": "address",
          "name": "_safeEngine",
          "type": "address"
        },
        {
          "internalType": "address",
          "name": "_protocolToken",
          "type": "address"
        },
        {
          "components": [
            {
              "internalType": "uint256",
              "name": "bidIncrease",
              "type": "uint256"
            },
            {
              "internalType": "uint256",
              "name": "bidDuration",
              "type": "uint256"
            },
            {
              "internalType": "uint256",
              "name": "totalAuctionLength",
              "type": "uint256"
            },
            {
              "internalType": "address",
              "name": "bidReceiver",
              "type": "address"
            },
            {
              "internalType": "uint256",
              "name": "recyclingPercentage",
              "type": "uint256"
            }
          ],
          "internalType": "struct ISurplusAuctionHouse.SurplusAuctionHouseParams",
          "name": "_sahParams",
          "type": "tuple"
        }
      ],
      "stateMutability": "nonpayable",
      "type": "constructor"
    },
    {
      "inputs": [],
      "name": "AlreadyAuthorized",
      "type": "error"
    },
    {
      "inputs": [],
      "name": "ContractIsDisabled",
      "type": "error"
    },
    {
      "inputs": [],
      "name": "ContractIsEnabled",
      "type": "error"
    },
    {
      "inputs": [],
      "name": "NonDisableable",
      "type": "error"
    },
    {
      "inputs": [],
      "name": "NotAuthorized",
      "type": "error"
    },
    {
      "inputs": [],
      "name": "NullAddress",
      "type": "error"
    },
    {
      "inputs": [],
      "name": "SAH_AmountsNotMatching",
      "type": "error"
    },
    {
      "inputs": [],
      "name": "SAH_AuctionAlreadyExpired",
      "type": "error"
    },
    {
      "inputs": [],
      "name": "SAH_AuctionNeverStarted",
      "type": "error"
    },
    {
      "inputs": [],
      "name": "SAH_AuctionNotFinished",
      "type": "error"
    },
    {
      "inputs": [],
      "name": "SAH_BidAlreadyExpired",
      "type": "error"
    },
    {
      "inputs": [],
      "name": "SAH_BidAlreadyPlaced",
      "type": "error"
    },
    {
      "inputs": [],
      "name": "SAH_BidNotHigher",
      "type": "error"
    },
    {
      "inputs": [],
      "name": "SAH_HighBidderNotSet",
      "type": "error"
    },
    {
      "inputs": [],
      "name": "SAH_InsufficientIncrease",
      "type": "error"
    },
    {
      "inputs": [],
      "name": "SAH_NullProtTokenReceiver",
      "type": "error"
    },
    {
      "inputs": [],
      "name": "Unauthorized",
      "type": "error"
    },
    {
      "inputs": [],
      "name": "UnrecognizedCType",
      "type": "error"
    },
    {
      "inputs": [],
      "name": "UnrecognizedParam",
      "type": "error"
    },
    {
      "anonymous": false,
      "inputs": [
        {
          "indexed": false,
          "internalType": "address",
          "name": "_account",
          "type": "address"
        }
      ],
      "name": "AddAuthorization",
      "type": "event"
    },
    {
      "anonymous": false,
      "inputs": [],
      "name": "DisableContract",
      "type": "event"
    },
    {
      "anonymous": false,
      "inputs": [
        {
          "indexed": true,
          "internalType": "uint256",
          "name": "_id",
          "type": "uint256"
        },
        {
          "indexed": false,
          "internalType": "address",
          "name": "_bidder",
          "type": "address"
        },
        {
          "indexed": false,
          "internalType": "uint256",
          "name": "_blockTimestamp",
          "type": "uint256"
        },
        {
          "indexed": false,
          "internalType": "uint256",
          "name": "_raisedAmount",
          "type": "uint256"
        },
        {
          "indexed": false,
          "internalType": "uint256",
          "name": "_soldAmount",
          "type": "uint256"
        },
        {
          "indexed": false,
          "internalType": "uint256",
          "name": "_bidExpiry",
          "type": "uint256"
        }
      ],
      "name": "IncreaseBidSize",
      "type": "event"
    },
    {
      "anonymous": false,
      "inputs": [
        {
          "indexed": true,
          "internalType": "bytes32",
          "name": "_param",
          "type": "bytes32"
        },
        {
          "indexed": true,
          "internalType": "bytes32",
          "name": "_cType",
          "type": "bytes32"
        },
        {
          "indexed": false,
          "internalType": "bytes",
          "name": "_data",
          "type": "bytes"
        }
      ],
      "name": "ModifyParameters",
      "type": "event"
    },
    {
      "anonymous": false,
      "inputs": [
        {
          "indexed": false,
          "internalType": "address",
          "name": "_account",
          "type": "address"
        }
      ],
      "name": "RemoveAuthorization",
      "type": "event"
    },
    {
      "anonymous": false,
      "inputs": [
        {
          "indexed": true,
          "internalType": "uint256",
          "name": "_id",
          "type": "uint256"
        },
        {
          "indexed": false,
          "internalType": "uint256",
          "name": "_blockTimestamp",
          "type": "uint256"
        },
        {
          "indexed": false,
          "internalType": "uint256",
          "name": "_auctionDeadline",
          "type": "uint256"
        }
      ],
      "name": "RestartAuction",
      "type": "event"
    },
    {
      "anonymous": false,
      "inputs": [
        {
          "indexed": true,
          "internalType": "uint256",
          "name": "_id",
          "type": "uint256"
        },
        {
          "indexed": false,
          "internalType": "uint256",
          "name": "_blockTimestamp",
          "type": "uint256"
        },
        {
          "indexed": false,
          "internalType": "address",
          "name": "_highBidder",
          "type": "address"
        },
        {
          "indexed": false,
          "internalType": "uint256",
          "name": "_raisedAmount",
          "type": "uint256"
        }
      ],
      "name": "SettleAuction",
      "type": "event"
    },
    {
      "anonymous": false,
      "inputs": [
        {
          "indexed": true,
          "internalType": "uint256",
          "name": "_id",
          "type": "uint256"
        },
        {
          "indexed": true,
          "internalType": "address",
          "name": "_auctioneer",
          "type": "address"
        },
        {
          "indexed": false,
          "internalType": "uint256",
          "name": "_blockTimestamp",
          "type": "uint256"
        },
        {
          "indexed": false,
          "internalType": "uint256",
          "name": "_amountToSell",
          "type": "uint256"
        },
        {
          "indexed": false,
          "internalType": "uint256",
          "name": "_amountToRaise",
          "type": "uint256"
        },
        {
          "indexed": false,
          "internalType": "uint256",
          "name": "_auctionDeadline",
          "type": "uint256"
        }
      ],
      "name": "StartAuction",
      "type": "event"
    },
    {
      "anonymous": false,
      "inputs": [
        {
          "indexed": true,
          "internalType": "uint256",
          "name": "_id",
          "type": "uint256"
        },
        {
          "indexed": false,
          "internalType": "uint256",
          "name": "_blockTimestamp",
          "type": "uint256"
        },
        {
          "indexed": false,
          "internalType": "address",
          "name": "_highBidder",
          "type": "address"
        },
        {
          "indexed": false,
          "internalType": "uint256",
          "name": "_raisedAmount",
          "type": "uint256"
        }
      ],
      "name": "TerminateAuctionPrematurely",
      "type": "event"
    },
    {
      "inputs": [],
      "name": "AUCTION_HOUSE_TYPE",
      "outputs": [
        {
          "internalType": "bytes32",
          "name": "",
          "type": "bytes32"
        }
      ],
      "stateMutability": "view",
      "type": "function"
    },
    {
      "inputs": [
        {
          "internalType": "uint256",
          "name": "",
          "type": "uint256"
        }
      ],
      "name": "_auctions",
      "outputs": [
        {
          "internalType": "uint256",
          "name": "bidAmount",
          "type": "uint256"
        },
        {
          "internalType": "uint256",
          "name": "amountToSell",
          "type": "uint256"
        },
        {
          "internalType": "address",
          "name": "highBidder",
          "type": "address"
        },
        {
          "internalType": "uint256",
          "name": "bidExpiry",
          "type": "uint256"
        },
        {
          "internalType": "uint256",
          "name": "auctionDeadline",
          "type": "uint256"
        }
      ],
      "stateMutability": "view",
      "type": "function"
    },
    {
      "inputs": [],
      "name": "_params",
      "outputs": [
        {
          "internalType": "uint256",
          "name": "bidIncrease",
          "type": "uint256"
        },
        {
          "internalType": "uint256",
          "name": "bidDuration",
          "type": "uint256"
        },
        {
          "internalType": "uint256",
          "name": "totalAuctionLength",
          "type": "uint256"
        },
        {
          "internalType": "address",
          "name": "bidReceiver",
          "type": "address"
        },
        {
          "internalType": "uint256",
          "name": "recyclingPercentage",
          "type": "uint256"
        }
      ],
      "stateMutability": "view",
      "type": "function"
    },
    {
      "inputs": [
        {
          "internalType": "address",
          "name": "_account",
          "type": "address"
        }
      ],
      "name": "addAuthorization",
      "outputs": [],
      "stateMutability": "nonpayable",
      "type": "function"
    },
    {
      "inputs": [
        {
          "internalType": "uint256",
          "name": "_id",
          "type": "uint256"
        }
      ],
      "name": "auctions",
      "outputs": [
        {
          "components": [
            {
              "internalType": "uint256",
              "name": "bidAmount",
              "type": "uint256"
            },
            {
              "internalType": "uint256",
              "name": "amountToSell",
              "type": "uint256"
            },
            {
              "internalType": "address",
              "name": "highBidder",
              "type": "address"
            },
            {
              "internalType": "uint256",
              "name": "bidExpiry",
              "type": "uint256"
            },
            {
              "internalType": "uint256",
              "name": "auctionDeadline",
              "type": "uint256"
            }
          ],
          "internalType": "struct ICommonSurplusAuctionHouse.Auction",
          "name": "_auction",
          "type": "tuple"
        }
      ],
      "stateMutability": "view",
      "type": "function"
    },
    {
      "inputs": [],
      "name": "auctionsStarted",
      "outputs": [
        {
          "internalType": "uint256",
          "name": "",
          "type": "uint256"
        }
      ],
      "stateMutability": "view",
      "type": "function"
    },
    {
      "inputs": [
        {
          "internalType": "address",
          "name": "_account",
          "type": "address"
        }
      ],
      "name": "authorizedAccounts",
      "outputs": [
        {
          "internalType": "bool",
          "name": "_authorized",
          "type": "bool"
        }
      ],
      "stateMutability": "view",
      "type": "function"
    },
    {
      "inputs": [],
      "name": "authorizedAccounts",
      "outputs": [
        {
          "internalType": "address[]",
          "name": "_accounts",
          "type": "address[]"
        }
      ],
      "stateMutability": "view",
      "type": "function"
    },
    {
      "inputs": [],
      "name": "contractEnabled",
      "outputs": [
        {
          "internalType": "bool",
          "name": "",
          "type": "bool"
        }
      ],
      "stateMutability": "view",
      "type": "function"
    },
    {
      "inputs": [],
      "name": "disableContract",
      "outputs": [],
      "stateMutability": "nonpayable",
      "type": "function"
    },
    {
      "inputs": [
        {
          "internalType": "uint256",
          "name": "_id",
          "type": "uint256"
        },
        {
          "internalType": "uint256",
          "name": "_amountToBuy",
          "type": "uint256"
        },
        {
          "internalType": "uint256",
          "name": "_bid",
          "type": "uint256"
        }
      ],
      "name": "increaseBidSize",
      "outputs": [],
      "stateMutability": "nonpayable",
      "type": "function"
    },
    {
      "inputs": [
        {
          "internalType": "bytes32",
          "name": "_cType",
          "type": "bytes32"
        },
        {
          "internalType": "bytes32",
          "name": "_param",
          "type": "bytes32"
        },
        {
          "internalType": "bytes",
          "name": "_data",
          "type": "bytes"
        }
      ],
      "name": "modifyParameters",
      "outputs": [],
      "stateMutability": "nonpayable",
      "type": "function"
    },
    {
      "inputs": [
        {
          "internalType": "bytes32",
          "name": "_param",
          "type": "bytes32"
        },
        {
          "internalType": "bytes",
          "name": "_data",
          "type": "bytes"
        }
      ],
      "name": "modifyParameters",
      "outputs": [],
      "stateMutability": "nonpayable",
      "type": "function"
    },
    {
      "inputs": [],
      "name": "params",
      "outputs": [
        {
          "components": [
            {
              "internalType": "uint256",
              "name": "bidIncrease",
              "type": "uint256"
            },
            {
              "internalType": "uint256",
              "name": "bidDuration",
              "type": "uint256"
            },
            {
              "internalType": "uint256",
              "name": "totalAuctionLength",
              "type": "uint256"
            },
            {
              "internalType": "address",
              "name": "bidReceiver",
              "type": "address"
            },
            {
              "internalType": "uint256",
              "name": "recyclingPercentage",
              "type": "uint256"
            }
          ],
          "internalType": "struct ISurplusAuctionHouse.SurplusAuctionHouseParams",
          "name": "_sahParams",
          "type": "tuple"
        }
      ],
      "stateMutability": "view",
      "type": "function"
    },
    {
      "inputs": [],
      "name": "protocolToken",
      "outputs": [
        {
          "internalType": "contract IProtocolToken",
          "name": "",
          "type": "address"
        }
      ],
      "stateMutability": "view",
      "type": "function"
    },
    {
      "inputs": [
        {
          "internalType": "address",
          "name": "_account",
          "type": "address"
        }
      ],
      "name": "removeAuthorization",
      "outputs": [],
      "stateMutability": "nonpayable",
      "type": "function"
    },
    {
      "inputs": [
        {
          "internalType": "uint256",
          "name": "_id",
          "type": "uint256"
        }
      ],
      "name": "restartAuction",
      "outputs": [],
      "stateMutability": "nonpayable",
      "type": "function"
    },
    {
      "inputs": [],
      "name": "safeEngine",
      "outputs": [
        {
          "internalType": "contract ISAFEEngine",
          "name": "",
          "type": "address"
        }
      ],
      "stateMutability": "view",
      "type": "function"
    },
    {
      "inputs": [
        {
          "internalType": "uint256",
          "name": "_id",
          "type": "uint256"
        }
      ],
      "name": "settleAuction",
      "outputs": [],
      "stateMutability": "nonpayable",
      "type": "function"
    },
    {
      "inputs": [
        {
          "internalType": "uint256",
          "name": "_amountToSell",
          "type": "uint256"
        },
        {
          "internalType": "uint256",
          "name": "_initialBid",
          "type": "uint256"
        }
      ],
      "name": "startAuction",
      "outputs": [
        {
          "internalType": "uint256",
          "name": "_id",
          "type": "uint256"
        }
      ],
      "stateMutability": "nonpayable",
      "type": "function"
    },
    {
      "inputs": [
        {
          "internalType": "uint256",
          "name": "_id",
          "type": "uint256"
        }
      ],
      "name": "terminateAuctionPrematurely",
      "outputs": [],
      "stateMutability": "nonpayable",
      "type": "function"
    }
  ],
  "bytecode": {
    "object": "0x60806040526002805460ff191660011790553480156200001e57600080fd5b50604051620025303803806200253083398101604081905262000041916200022a565b336200004d81620000d0565b50620000626001600160a01b0384166200013e565b600580546001600160a01b039283166001600160a01b031991821617909155600680548584169083161790558251600755602083015160085560408301516009556060830151600a80549190931691161790556080810151600b55620000c76200016c565b505050620002ea565b620000dd6000826200019b565b1562000122576040516001600160a01b03821681527f599a298163e1678bb1c676052a8930bf0b8a1261ed6e01b8a2391e55f70001029060200160405180910390a150565b604051633013e93f60e11b815260040160405180910390fd5b50565b60006001600160a01b038216620001685760405163e99d5ac560e01b815260040160405180910390fd5b5090565b60065462000183906001600160a01b03166200013e565b50600a546200013b906001600160a01b03166200013e565b6000620001b2836001600160a01b038416620001bb565b90505b92915050565b60008181526001830160205260408120546200020457508154600181810184556000848152602080822090930184905584548482528286019093526040902091909155620001b5565b506000620001b5565b80516001600160a01b03811681146200022557600080fd5b919050565b600080600083850360e08112156200024157600080fd5b6200024c856200020d565b93506200025c602086016200020d565b925060a0603f19820112156200027157600080fd5b5060405160a081016001600160401b0381118282101715620002a357634e487b7160e01b600052604160045260246000fd5b8060405250604085015181526060850151602082015260808501516040820152620002d160a086016200020d565b606082015260c094909401516080850152509093909250565b61223680620002fa6000396000f3fe608060405234801561001057600080fd5b50600436106101775760003560e01c8063551cb3b1116100d8578063894ba8331161008c578063cff0ab9611610066578063cff0ab9614610401578063d25ccf5314610454578063da8a4bb81461046757600080fd5b8063894ba833146103d3578063933f7608146103db57806394f3f81d146103ee57600080fd5b8063571a26a0116100bd578063571a26a01461034f5780635a93f031146103ad57806367aea313146103c057600080fd5b8063551cb3b1146102f2578063552b16ab146102fb57600080fd5b80632e3918761161012f57806335b281531161011457806335b28153146102bf57806341b3a0d9146102d25780634fee13fc146102df57600080fd5b80632e391876146102975780632e993611146102ac57600080fd5b806317dc6bf61161016057806317dc6bf6146101cb5780631a465fe11461024957806324ba58841461027457600080fd5b80631266fb941461017c57806312f33526146101b6575b600080fd5b6101a37f535552504c55530000000000000000000000000000000000000000000000000081565b6040519081526020015b60405180910390f35b6101c96101c4366004611e77565b61047a565b005b6102136101d9366004611ec7565b600360208190526000918252604090912080546001820154600283015493830154600490930154919390926001600160a01b039091169185565b6040805195865260208601949094526001600160a01b03909216928401929092526060830191909152608082015260a0016101ad565b60065461025c906001600160a01b031681565b6040516001600160a01b0390911681526020016101ad565b610287610282366004611ee0565b610505565b60405190151581526020016101ad565b61029f610516565b6040516101ad9190611f09565b6101c96102ba366004611ec7565b610527565b6101c96102cd366004611ee0565b610807565b6002546102879060ff1681565b6101a36102ed366004611f56565b610852565b6101a360045481565b600754600854600954600a54600b5461031e949392916001600160a01b03169085565b604080519586526020860194909452928401919091526001600160a01b03166060830152608082015260a0016101ad565b61036261035d366004611ec7565b610ac5565b6040516101ad9190600060a08201905082518252602083015160208301526001600160a01b036040840151166040830152606083015160608301526080830151608083015292915050565b6101c96103bb366004611f78565b610b57565b60055461025c906001600160a01b031681565b6101c9610e3d565b6101c96103e9366004611ec7565b610f13565b6101c96103fc366004611ee0565b611099565b6104096110e1565b6040516101ad9190600060a0820190508251825260208301516020830152604083015160408301526001600160a01b0360608401511660608301526080830151608083015292915050565b6101c9610462366004611ec7565b61115a565b6101c9610475366004611fa4565b611280565b61048333611311565b6104b9576040517f82b4290000000000000000000000000000000000000000000000000000000000815260040160405180910390fd5b826104c584848461131d565b83837fe436a8be7dc6aab90b400800ecc86e46fb600f2e18989b5d0389840fdabbf2ed846040516104f69190612059565b60405180910390a35b50505050565b600061051082611311565b92915050565b6060610522600061134f565b905090565b60025460ff16610563576040517f7abbf1c900000000000000000000000000000000000000000000000000000000815260040160405180910390fd5b600081815260036020818152604092839020835160a0810185528154815260018201549281019290925260028101546001600160a01b031693820193909352908201546060820181905260049092015460808201529015806105d657504281606001511180156105d65750428160800151115b1561060d576040517f8a9fdc6a00000000000000000000000000000000000000000000000000000000815260040160405180910390fd5b600554604082810151602084015191517fefabcadc0000000000000000000000000000000000000000000000000000000081523060048201526001600160a01b03918216602482015260448101929092529091169063efabcadc90606401600060405180830381600087803b15801561068557600080fd5b505af1158015610699573d6000803e3d6000fd5b5050600b548351600093506106af925090611363565b905080156106d457600a546006546106d4916001600160a01b03918216911683611382565b81516000906106e490839061209b565b90508015610764576006546040517f42966c68000000000000000000000000000000000000000000000000000000008152600481018390526001600160a01b03909116906342966c6890602401600060405180830381600087803b15801561074b57600080fd5b505af115801561075f573d6000803e3d6000fd5b505050505b604083810151845182514281526001600160a01b03909216602083015281830152905185917fce605a43280ed04bb2cf4231276a425e3650af62821a5e1f0c8daf63beba6c34919081900360600190a250505060009081526003602081905260408220828155600181018390556002810180547fffffffffffffffffffffffff000000000000000000000000000000000000000016905590810182905560040155565b61081033611311565b610846576040517f82b4290000000000000000000000000000000000000000000000000000000000815260040160405180910390fd5b61084f8161144e565b50565b600061085d33611311565b610893576040517f82b4290000000000000000000000000000000000000000000000000000000000815260040160405180910390fd5b60025460ff166108cf576040517f7abbf1c900000000000000000000000000000000000000000000000000000000815260040160405180910390fd5b600a546001600160a01b03161580156108e95750600b5415155b15610920576040517f12901a0d00000000000000000000000000000000000000000000000000000000815260040160405180910390fd5b60046000815461092f906120ae565b91905081905590506040518060a00160405280838152602001848152602001336001600160a01b03168152602001600081526020016007600201544261097591906120e6565b905260008281526003602081815260409283902084518155908401516001820155838301516002820180547fffffffffffffffffffffffff0000000000000000000000000000000000000000166001600160a01b0392831617905560608501519282019290925560809093015160049384015560055491517fefabcadc000000000000000000000000000000000000000000000000000000008152339381019390935230602484015260448301869052169063efabcadc90606401600060405180830381600087803b158015610a4a57600080fd5b505af1158015610a5e573d6000803e3d6000fd5b5050506000828152600360209081526040918290206004015482514281529182018790528183018690526060820152905133925083917fda2c6648a718e51b6494e6a51a7e7a1bcd0ef390444bd74bcdf291229e9d8dca919081900360800190a392915050565b610b006040518060a00160405280600081526020016000815260200160006001600160a01b0316815260200160008152602001600081525090565b50600090815260036020818152604092839020835160a0810185528154815260018201549281019290925260028101546001600160a01b031693820193909352908201546060820152600490910154608082015290565b60025460ff16610b93576040517f7abbf1c900000000000000000000000000000000000000000000000000000000815260040160405180910390fd5b600083815260036020526040902060028101546001600160a01b0316610be5576040517f3f7caeae00000000000000000000000000000000000000000000000000000000815260040160405180910390fd5b42816003015411158015610bfc5750600381015415155b15610c33576040517fc3e4393200000000000000000000000000000000000000000000000000000000815260040160405180910390fd5b42816004015411610c70576040517f9203423800000000000000000000000000000000000000000000000000000000815260040160405180910390fd5b80600101548314610cad576040517fbda58db600000000000000000000000000000000000000000000000000000000815260040160405180910390fd5b80548211610ce7576040517f88020a0a00000000000000000000000000000000000000000000000000000000815260040160405180910390fd5b8054600754610cf691906120f9565b610d08670de0b6b3a7640000846120f9565b1015610d40576040517fe08b005b00000000000000000000000000000000000000000000000000000000815260040160405180910390fd5b60028101546001600160a01b03163314610da65760028101548154600654610d79926001600160a01b03918216923392909116906114d0565b6002810180547fffffffffffffffffffffffff000000000000000000000000000000000000000016331790555b610dcf3330836000015485610dbb919061209b565b6006546001600160a01b03169291906114d0565b818155600854610ddf90426120e6565b600382018190556040805133815242602082015290810184905260608101859052608081019190915284907fbabed4bc302f25a2be9c3286529806aca3c81480ba4b26ee5512277c996e18e99060a00160405180910390a250505050565b610e4633611311565b610e7c576040517f82b4290000000000000000000000000000000000000000000000000000000000815260040160405180910390fd5b60025460ff16610eb8576040517f7abbf1c900000000000000000000000000000000000000000000000000000000815260040160405180910390fd5b600280547fffffffffffffffffffffffffffffffffffffffffffffffffffffffffffffff00169055610ee8611521565b6040517f2d4b4ecff7bd7503135271925520a2f6c0d98c9473ffc1a1e72c92502f51b25e90600090a1565b60025460ff1615610f50576040517ff59a25d600000000000000000000000000000000000000000000000000000000815260040160405180910390fd5b600081815260036020818152604092839020835160a0810185528154815260018201549281019290925260028101546001600160a01b0316938201849052918201546060820152600490910154608082015290610fd9576040517f3f7caeae00000000000000000000000000000000000000000000000000000000815260040160405180910390fd5b60408101518151600654610ff8926001600160a01b0390911691611382565b604081810151825182514281526001600160a01b03909216602083015281830152905183917f728fcceeefd42b7de1122fe9fef58c0bacd081dcbd7a141315835ba00d29b4b1919081900360600190a25060009081526003602081905260408220828155600181018390556002810180547fffffffffffffffffffffffff000000000000000000000000000000000000000016905590810182905560040155565b6110a233611311565b6110d8576040517f82b4290000000000000000000000000000000000000000000000000000000000815260040160405180910390fd5b61084f8161162e565b61111c6040518060a0016040528060008152602001600081526020016000815260200160006001600160a01b03168152602001600081525090565b506040805160a0810182526007548152600854602082015260095491810191909152600a546001600160a01b03166060820152600b54608082015290565b801580611168575060045481115b1561119f576040517f67374ccd00000000000000000000000000000000000000000000000000000000815260040160405180910390fd5b600081815260036020526040902060048101544210156111eb576040517f8a9fdc6a00000000000000000000000000000000000000000000000000000000815260040160405180910390fd5b600381015415611227576040517f10cff0e800000000000000000000000000000000000000000000000000000000815260040160405180910390fd5b60095461123490426120e6565b6004820181905560405183917f52926b7e2fb12434af05e0b5e28d2b857fc6a23d92f7d7b8ebc6ec6b0fb4419e9161127491428252602082015260400190565b60405180910390a25050565b61128933611311565b6112bf576040517f82b4290000000000000000000000000000000000000000000000000000000000815260040160405180910390fd5b6112c982826116a9565b6000801b827fe436a8be7dc6aab90b400800ecc86e46fb600f2e18989b5d0389840fdabbf2ed836040516112fd9190612059565b60405180910390a361130d611849565b5050565b60006105108183611874565b6040517f9d2ff48000000000000000000000000000000000000000000000000000000000815260040160405180910390fd5b6060600061135c83611896565b9392505050565b6000670de0b6b3a764000061137883856120f9565b61135c9190612110565b6040516001600160a01b0383166024820152604481018290526114499084907fa9059cbb00000000000000000000000000000000000000000000000000000000906064015b604080517fffffffffffffffffffffffffffffffffffffffffffffffffffffffffffffffe08184030181529190526020810180517bffffffffffffffffffffffffffffffffffffffffffffffffffffffff167fffffffff00000000000000000000000000000000000000000000000000000000909316929092179091526118f2565b505050565b6114596000826119f6565b1561149e576040516001600160a01b03821681527f599a298163e1678bb1c676052a8930bf0b8a1261ed6e01b8a2391e55f7000102906020015b60405180910390a150565b6040517f6027d27e00000000000000000000000000000000000000000000000000000000815260040160405180910390fd5b6040516001600160a01b03808516602483015283166044820152606481018290526104ff9085907f23b872dd00000000000000000000000000000000000000000000000000000000906084016113c7565b6005546040517ffabde80c0000000000000000000000000000000000000000000000000000000081523060048201526000916001600160a01b03169063fabde80c90602401602060405180830381865afa158015611583573d6000803e3d6000fd5b505050506040513d601f19601f820116820180604052508101906115a7919061214b565b6005546040517fefabcadc000000000000000000000000000000000000000000000000000000008152306004820152336024820152604481018390529192506001600160a01b03169063efabcadc90606401600060405180830381600087803b15801561161357600080fd5b505af1158015611627573d6000803e3d6000fd5b5050505050565b611639600082611a0b565b15611677576040516001600160a01b03821681527f8834a87e641e9716be4f34527af5d23e11624f1ddeefede6ad75a9acfc31b90390602001611493565b6040517fea8e4eb500000000000000000000000000000000000000000000000000000000815260040160405180910390fd5b60006116b6826020015190565b905060006116c5836020015190565b9050837f70726f746f636f6c546f6b656e000000000000000000000000000000000000000361172657600680547fffffffffffffffffffffffff0000000000000000000000000000000000000000166001600160a01b0384161790556104ff565b837f626964496e637265617365000000000000000000000000000000000000000000036117575760078190556104ff565b837f6269644475726174696f6e000000000000000000000000000000000000000000036117885760088190556104ff565b837f746f74616c41756374696f6e4c656e6774680000000000000000000000000000036117b95760098190556104ff565b837f62696452656365697665720000000000000000000000000000000000000000000361181857600a80547fffffffffffffffffffffffff0000000000000000000000000000000000000000166001600160a01b0384161790556104ff565b837f72656379636c696e6750657263656e74616765000000000000000000000000000361131d57600b8190556104ff565b60065461185e906001600160a01b0316611a20565b50600a5461084f906001600160a01b0316611a20565b6001600160a01b0381166000908152600183016020526040812054151561135c565b6060816000018054806020026020016040519081016040528092919081815260200182805480156118e657602002820191906000526020600020905b8154815260200190600101908083116118d2575b50505050509050919050565b6000611947826040518060400160405280602081526020017f5361666545524332303a206c6f772d6c6576656c2063616c6c206661696c6564815250856001600160a01b0316611a669092919063ffffffff16565b80519091501561144957808060200190518101906119659190612164565b611449576040517f08c379a000000000000000000000000000000000000000000000000000000000815260206004820152602a60248201527f5361666545524332303a204552433230206f7065726174696f6e20646964206e60448201527f6f7420737563636565640000000000000000000000000000000000000000000060648201526084015b60405180910390fd5b600061135c836001600160a01b038416611a7d565b600061135c836001600160a01b038416611acc565b60006001600160a01b038216611a62576040517fe99d5ac500000000000000000000000000000000000000000000000000000000815260040160405180910390fd5b5090565b6060611a758484600085611bbf565b949350505050565b6000818152600183016020526040812054611ac457508154600181810184556000848152602080822090930184905584548482528286019093526040902091909155610510565b506000610510565b60008181526001830160205260408120548015611bb5576000611af060018361209b565b8554909150600090611b049060019061209b565b9050818114611b69576000866000018281548110611b2457611b24612186565b9060005260206000200154905080876000018481548110611b4757611b47612186565b6000918252602080832090910192909255918252600188019052604090208390555b8554869080611b7a57611b7a6121b5565b600190038181906000526020600020016000905590558560010160008681526020019081526020016000206000905560019350505050610510565b6000915050610510565b606082471015611c51576040517f08c379a000000000000000000000000000000000000000000000000000000000815260206004820152602660248201527f416464726573733a20696e73756666696369656e742062616c616e636520666f60448201527f722063616c6c000000000000000000000000000000000000000000000000000060648201526084016119ed565b600080866001600160a01b03168587604051611c6d91906121e4565b60006040518083038185875af1925050503d8060008114611caa576040519150601f19603f3d011682016040523d82523d6000602084013e611caf565b606091505b5091509150611cc087838387611ccb565b979650505050505050565b60608315611d54578251600003611d4d576001600160a01b0385163b611d4d576040517f08c379a000000000000000000000000000000000000000000000000000000000815260206004820152601d60248201527f416464726573733a2063616c6c20746f206e6f6e2d636f6e747261637400000060448201526064016119ed565b5081611a75565b611a758383815115611d695781518083602001fd5b806040517f08c379a00000000000000000000000000000000000000000000000000000000081526004016119ed9190612059565b7f4e487b7100000000000000000000000000000000000000000000000000000000600052604160045260246000fd5b600082601f830112611ddd57600080fd5b813567ffffffffffffffff80821115611df857611df8611d9d565b604051601f83017fffffffffffffffffffffffffffffffffffffffffffffffffffffffffffffffe0908116603f01168101908282118183101715611e3e57611e3e611d9d565b81604052838152866020858801011115611e5757600080fd5b836020870160208301376000602085830101528094505050505092915050565b600080600060608486031215611e8c57600080fd5b8335925060208401359150604084013567ffffffffffffffff811115611eb157600080fd5b611ebd86828701611dcc565b9150509250925092565b600060208284031215611ed957600080fd5b5035919050565b600060208284031215611ef257600080fd5b81356001600160a01b038116811461135c57600080fd5b6020808252825182820181905260009190848201906040850190845b81811015611f4a5783516001600160a01b031683529284019291840191600101611f25565b50909695505050505050565b60008060408385031215611f6957600080fd5b50508035926020909101359150565b600080600060608486031215611f8d57600080fd5b505081359360208301359350604090920135919050565b60008060408385031215611fb757600080fd5b82359150602083013567ffffffffffffffff811115611fd557600080fd5b611fe185828601611dcc565b9150509250929050565b60005b83811015612006578181015183820152602001611fee565b50506000910152565b60008151808452612027816020860160208601611feb565b601f017fffffffffffffffffffffffffffffffffffffffffffffffffffffffffffffffe0169290920160200192915050565b60208152600061135c602083018461200f565b7f4e487b7100000000000000000000000000000000000000000000000000000000600052601160045260246000fd5b818103818111156105105761051061206c565b60007fffffffffffffffffffffffffffffffffffffffffffffffffffffffffffffffff82036120df576120df61206c565b5060010190565b808201808211156105105761051061206c565b80820281158282048414176105105761051061206c565b600082612146577f4e487b7100000000000000000000000000000000000000000000000000000000600052601260045260246000fd5b500490565b60006020828403121561215d57600080fd5b5051919050565b60006020828403121561217657600080fd5b8151801515811461135c57600080fd5b7f4e487b7100000000000000000000000000000000000000000000000000000000600052603260045260246000fd5b7f4e487b7100000000000000000000000000000000000000000000000000000000600052603160045260246000fd5b600082516121f6818460208701611feb565b919091019291505056fea2646970667358221220e3f61f06b02a8222d654e92fc5d31bec1ef6f8495ac18c68d03f3bba3c72a46564736f6c63430008130033",
    "linkReferences": {}
  },
  "methodIdentifiers": {
    "AUCTION_HOUSE_TYPE()": "1266fb94",
    "_auctions(uint256)": "17dc6bf6",
    "_params()": "552b16ab",
    "addAuthorization(address)": "35b28153",
    "auctions(uint256)": "571a26a0",
    "auctionsStarted()": "551cb3b1",
    "authorizedAccounts()": "2e391876",
    "authorizedAccounts(address)": "24ba5884",
    "contractEnabled()": "41b3a0d9",
    "disableContract()": "894ba833",
    "increaseBidSize(uint256,uint256,uint256)": "5a93f031",
    "modifyParameters(bytes32,bytes)": "da8a4bb8",
    "modifyParameters(bytes32,bytes32,bytes)": "12f33526",
    "params()": "cff0ab96",
    "protocolToken()": "1a465fe1",
    "removeAuthorization(address)": "94f3f81d",
    "restartAuction(uint256)": "d25ccf53",
    "safeEngine()": "67aea313",
    "settleAuction(uint256)": "2e993611",
    "startAuction(uint256,uint256)": "4fee13fc",
    "terminateAuctionPrematurely(uint256)": "933f7608"
  },
  "id": 60
}