{
  "abi": [
    {
      "inputs": [
        {
          "internalType": "address",
          "name": "_safeEngine",
          "type": "address"
        },
        {
          "components": [
            {
              "internalType": "address",
              "name": "primaryTaxReceiver",
              "type": "address"
            },
            {
              "internalType": "uint256",
              "name": "globalStabilityFee",
              "type": "uint256"
            },
            {
              "internalType": "uint256",
              "name": "maxStabilityFeeRange",
              "type": "uint256"
            },
            {
              "internalType": "uint256",
              "name": "maxSecondaryReceivers",
              "type": "uint256"
            }
          ],
          "internalType": "struct ITaxCollector.TaxCollectorParams",
          "name": "_taxCollectorParams",
          "type": "tuple"
        }
      ],
      "stateMutability": "nonpayable",
      "type": "constructor"
    },
    {
      "inputs": [],
      "name": "AlreadyAuthorized",
      "type": "error"
    },
    {
      "inputs": [],
      "name": "IntOverflow",
      "type": "error"
    },
    {
      "inputs": [],
      "name": "NotAuthorized",
      "type": "error"
    },
    {
      "inputs": [
        {
          "internalType": "uint256",
          "name": "_x",
          "type": "uint256"
        },
        {
          "internalType": "uint256",
          "name": "_y",
          "type": "uint256"
        }
      ],
      "name": "NotGreaterOrEqualThan",
      "type": "error"
    },
    {
      "inputs": [
        {
          "internalType": "uint256",
          "name": "_x",
          "type": "uint256"
        },
        {
          "internalType": "uint256",
          "name": "_y",
          "type": "uint256"
        }
      ],
      "name": "NotGreaterThan",
      "type": "error"
    },
    {
      "inputs": [
        {
          "internalType": "uint256",
          "name": "_x",
          "type": "uint256"
        },
        {
          "internalType": "uint256",
          "name": "_y",
          "type": "uint256"
        }
      ],
      "name": "NotLesserOrEqualThan",
      "type": "error"
    },
    {
      "inputs": [
        {
          "internalType": "uint256",
          "name": "_x",
          "type": "uint256"
        },
        {
          "internalType": "uint256",
          "name": "_y",
          "type": "uint256"
        }
      ],
      "name": "NotLesserThan",
      "type": "error"
    },
    {
      "inputs": [],
      "name": "NullAddress",
      "type": "error"
    },
    {
      "inputs": [],
      "name": "TaxCollector_CollateralTypeAlreadyInitialized",
      "type": "error"
    },
    {
      "inputs": [],
      "name": "TaxCollector_CollateralTypeNotInitialized",
      "type": "error"
    },
    {
      "inputs": [],
      "name": "TaxCollector_ExceedsMaxReceiverLimit",
      "type": "error"
    },
    {
      "inputs": [],
      "name": "TaxCollector_InvalidIndexes",
      "type": "error"
    },
    {
      "inputs": [],
      "name": "TaxCollector_NullAccount",
      "type": "error"
    },
    {
      "inputs": [],
      "name": "TaxCollector_NullSF",
      "type": "error"
    },
    {
      "inputs": [],
      "name": "TaxCollector_PrimaryReceiverCannotBeSecondary",
      "type": "error"
    },
    {
      "inputs": [],
      "name": "TaxCollector_TaxCutExceedsHundred",
      "type": "error"
    },
    {
      "inputs": [],
      "name": "TaxCollector_TaxCutTooBig",
      "type": "error"
    },
    {
      "inputs": [],
      "name": "Unauthorized",
      "type": "error"
    },
    {
      "inputs": [],
      "name": "UnrecognizedCType",
      "type": "error"
    },
    {
      "inputs": [],
      "name": "UnrecognizedParam",
      "type": "error"
    },
    {
      "anonymous": false,
      "inputs": [
        {
          "indexed": false,
          "internalType": "address",
          "name": "_account",
          "type": "address"
        }
      ],
      "name": "AddAuthorization",
      "type": "event"
    },
    {
      "anonymous": false,
      "inputs": [
        {
          "indexed": true,
          "internalType": "bytes32",
          "name": "_cType",
          "type": "bytes32"
        },
        {
          "indexed": false,
          "internalType": "uint256",
          "name": "_latestAccumulatedRate",
          "type": "uint256"
        },
        {
          "indexed": false,
          "internalType": "int256",
          "name": "_deltaRate",
          "type": "int256"
        }
      ],
      "name": "CollectTax",
      "type": "event"
    },
    {
      "anonymous": false,
      "inputs": [
        {
          "indexed": true,
          "internalType": "bytes32",
          "name": "_cType",
          "type": "bytes32"
        },
        {
          "indexed": true,
          "internalType": "address",
          "name": "_target",
          "type": "address"
        },
        {
          "indexed": false,
          "internalType": "int256",
          "name": "_taxCut",
          "type": "int256"
        }
      ],
      "name": "DistributeTax",
      "type": "event"
    },
    {
      "anonymous": false,
      "inputs": [
        {
          "indexed": false,
          "internalType": "bytes32",
          "name": "_cType",
          "type": "bytes32"
        }
      ],
      "name": "InitializeCollateralType",
      "type": "event"
    },
    {
      "anonymous": false,
      "inputs": [
        {
          "indexed": true,
          "internalType": "bytes32",
          "name": "_param",
          "type": "bytes32"
        },
        {
          "indexed": true,
          "internalType": "bytes32",
          "name": "_cType",
          "type": "bytes32"
        },
        {
          "indexed": false,
          "internalType": "bytes",
          "name": "_data",
          "type": "bytes"
        }
      ],
      "name": "ModifyParameters",
      "type": "event"
    },
    {
      "anonymous": false,
      "inputs": [
        {
          "indexed": false,
          "internalType": "address",
          "name": "_account",
          "type": "address"
        }
      ],
      "name": "RemoveAuthorization",
      "type": "event"
    },
    {
      "anonymous": false,
      "inputs": [
        {
          "indexed": true,
          "internalType": "bytes32",
          "name": "_cType",
          "type": "bytes32"
        },
        {
          "indexed": true,
          "internalType": "address",
          "name": "_receiver",
          "type": "address"
        }
      ],
      "name": "SetPrimaryReceiver",
      "type": "event"
    },
    {
      "anonymous": false,
      "inputs": [
        {
          "indexed": true,
          "internalType": "bytes32",
          "name": "_cType",
          "type": "bytes32"
        },
        {
          "indexed": true,
          "internalType": "address",
          "name": "_receiver",
          "type": "address"
        },
        {
          "indexed": false,
          "internalType": "uint256",
          "name": "_taxPercentage",
          "type": "uint256"
        },
        {
          "indexed": false,
          "internalType": "bool",
          "name": "_canTakeBackTax",
          "type": "bool"
        }
      ],
      "name": "SetSecondaryReceiver",
      "type": "event"
    },
    {
      "inputs": [
        {
          "internalType": "bytes32",
          "name": "",
          "type": "bytes32"
        }
      ],
      "name": "_cData",
      "outputs": [
        {
          "internalType": "uint256",
          "name": "nextStabilityFee",
          "type": "uint256"
        },
        {
          "internalType": "uint256",
          "name": "updateTime",
          "type": "uint256"
        },
        {
          "internalType": "uint256",
          "name": "secondaryReceiverAllotedTax",
          "type": "uint256"
        }
      ],
      "stateMutability": "view",
      "type": "function"
    },
    {
      "inputs": [
        {
          "internalType": "bytes32",
          "name": "",
          "type": "bytes32"
        }
      ],
      "name": "_cParams",
      "outputs": [
        {
          "internalType": "uint256",
          "name": "stabilityFee",
          "type": "uint256"
        }
      ],
      "stateMutability": "view",
      "type": "function"
    },
    {
      "inputs": [],
      "name": "_params",
      "outputs": [
        {
          "internalType": "address",
          "name": "primaryTaxReceiver",
          "type": "address"
        },
        {
          "internalType": "uint256",
          "name": "globalStabilityFee",
          "type": "uint256"
        },
        {
          "internalType": "uint256",
          "name": "maxStabilityFeeRange",
          "type": "uint256"
        },
        {
          "internalType": "uint256",
          "name": "maxSecondaryReceivers",
          "type": "uint256"
        }
      ],
      "stateMutability": "view",
      "type": "function"
    },
    {
      "inputs": [
        {
          "internalType": "bytes32",
          "name": "",
          "type": "bytes32"
        },
        {
          "internalType": "address",
          "name": "",
          "type": "address"
        }
      ],
      "name": "_secondaryTaxReceivers",
      "outputs": [
        {
          "internalType": "address",
          "name": "receiver",
          "type": "address"
        },
        {
          "internalType": "bool",
          "name": "canTakeBackTax",
          "type": "bool"
        },
        {
          "internalType": "uint256",
          "name": "taxPercentage",
          "type": "uint256"
        }
      ],
      "stateMutability": "view",
      "type": "function"
    },
    {
      "inputs": [
        {
          "internalType": "address",
          "name": "_account",
          "type": "address"
        }
      ],
      "name": "addAuthorization",
      "outputs": [],
      "stateMutability": "nonpayable",
      "type": "function"
    },
    {
      "inputs": [
        {
          "internalType": "address",
          "name": "_account",
          "type": "address"
        }
      ],
      "name": "authorizedAccounts",
      "outputs": [
        {
          "internalType": "bool",
          "name": "_authorized",
          "type": "bool"
        }
      ],
      "stateMutability": "view",
      "type": "function"
    },
    {
      "inputs": [],
      "name": "authorizedAccounts",
      "outputs": [
        {
          "internalType": "address[]",
          "name": "_accounts",
          "type": "address[]"
        }
      ],
      "stateMutability": "view",
      "type": "function"
    },
    {
      "inputs": [
        {
          "internalType": "bytes32",
          "name": "_cType",
          "type": "bytes32"
        }
      ],
      "name": "cData",
      "outputs": [
        {
          "components": [
            {
              "internalType": "uint256",
              "name": "nextStabilityFee",
              "type": "uint256"
            },
            {
              "internalType": "uint256",
              "name": "updateTime",
              "type": "uint256"
            },
            {
              "internalType": "uint256",
              "name": "secondaryReceiverAllotedTax",
              "type": "uint256"
            }
          ],
          "internalType": "struct ITaxCollector.TaxCollectorCollateralData",
          "name": "_taxCollectorCData",
          "type": "tuple"
        }
      ],
      "stateMutability": "view",
      "type": "function"
    },
    {
      "inputs": [
        {
          "internalType": "bytes32",
          "name": "_cType",
          "type": "bytes32"
        }
      ],
      "name": "cParams",
      "outputs": [
        {
          "components": [
            {
              "internalType": "uint256",
              "name": "stabilityFee",
              "type": "uint256"
            }
          ],
          "internalType": "struct ITaxCollector.TaxCollectorCollateralParams",
          "name": "_taxCollectorCParams",
          "type": "tuple"
        }
      ],
      "stateMutability": "view",
      "type": "function"
    },
    {
      "inputs": [],
      "name": "collateralList",
      "outputs": [
        {
          "internalType": "bytes32[]",
          "name": "__collateralList",
          "type": "bytes32[]"
        }
      ],
      "stateMutability": "view",
      "type": "function"
    },
    {
      "inputs": [],
      "name": "collateralListLength",
      "outputs": [
        {
          "internalType": "uint256",
          "name": "_collateralListLength",
          "type": "uint256"
        }
      ],
      "stateMutability": "view",
      "type": "function"
    },
    {
      "inputs": [
        {
          "internalType": "uint256",
          "name": "_start",
          "type": "uint256"
        },
        {
          "internalType": "uint256",
          "name": "_end",
          "type": "uint256"
        }
      ],
      "name": "collectedManyTax",
      "outputs": [
        {
          "internalType": "bool",
          "name": "_ok",
          "type": "bool"
        }
      ],
      "stateMutability": "view",
      "type": "function"
    },
    {
      "inputs": [
        {
          "internalType": "bytes32",
          "name": "_cType",
          "type": "bytes32"
        },
        {
          "components": [
            {
              "internalType": "uint256",
              "name": "stabilityFee",
              "type": "uint256"
            }
          ],
          "internalType": "struct ITaxCollector.TaxCollectorCollateralParams",
          "name": "_taxCollectorCParams",
          "type": "tuple"
        }
      ],
      "name": "initializeCollateralType",
      "outputs": [],
      "stateMutability": "nonpayable",
      "type": "function"
    },
    {
      "inputs": [
        {
          "internalType": "address",
          "name": "_receiver",
          "type": "address"
        }
      ],
      "name": "isSecondaryReceiver",
      "outputs": [
        {
          "internalType": "bool",
          "name": "_isSecondaryReceiver",
          "type": "bool"
        }
      ],
      "stateMutability": "view",
      "type": "function"
    },
    {
      "inputs": [
        {
          "internalType": "bytes32",
          "name": "_cType",
          "type": "bytes32"
        },
        {
          "internalType": "bytes32",
          "name": "_param",
          "type": "bytes32"
        },
        {
          "internalType": "bytes",
          "name": "_data",
          "type": "bytes"
        }
      ],
      "name": "modifyParameters",
      "outputs": [],
      "stateMutability": "nonpayable",
      "type": "function"
    },
    {
      "inputs": [
        {
          "internalType": "bytes32",
          "name": "_param",
          "type": "bytes32"
        },
        {
          "internalType": "bytes",
          "name": "_data",
          "type": "bytes"
        }
      ],
      "name": "modifyParameters",
      "outputs": [],
      "stateMutability": "nonpayable",
      "type": "function"
    },
    {
      "inputs": [],
      "name": "params",
      "outputs": [
        {
          "components": [
            {
              "internalType": "address",
              "name": "primaryTaxReceiver",
              "type": "address"
            },
            {
              "internalType": "uint256",
              "name": "globalStabilityFee",
              "type": "uint256"
            },
            {
              "internalType": "uint256",
              "name": "maxStabilityFeeRange",
              "type": "uint256"
            },
            {
              "internalType": "uint256",
              "name": "maxSecondaryReceivers",
              "type": "uint256"
            }
          ],
          "internalType": "struct ITaxCollector.TaxCollectorParams",
          "name": "_taxCollectorParams",
          "type": "tuple"
        }
      ],
      "stateMutability": "view",
      "type": "function"
    },
    {
      "inputs": [
        {
          "internalType": "address",
          "name": "_account",
          "type": "address"
        }
      ],
      "name": "removeAuthorization",
      "outputs": [],
      "stateMutability": "nonpayable",
      "type": "function"
    },
    {
      "inputs": [],
      "name": "safeEngine",
      "outputs": [
        {
          "internalType": "contract ISAFEEngine",
          "name": "",
          "type": "address"
        }
      ],
      "stateMutability": "view",
      "type": "function"
    },
    {
      "inputs": [
        {
          "internalType": "address",
          "name": "_secondaryReceiver",
          "type": "address"
        }
      ],
      "name": "secondaryReceiverRevenueSourcesList",
      "outputs": [
        {
          "internalType": "bytes32[]",
          "name": "_secondaryReceiverRevenueSourcesList",
          "type": "bytes32[]"
        }
      ],
      "stateMutability": "view",
      "type": "function"
    },
    {
      "inputs": [],
      "name": "secondaryReceiversList",
      "outputs": [
        {
          "internalType": "address[]",
          "name": "_secondaryReceiversList",
          "type": "address[]"
        }
      ],
      "stateMutability": "view",
      "type": "function"
    },
    {
      "inputs": [],
      "name": "secondaryReceiversListLength",
      "outputs": [
        {
          "internalType": "uint256",
          "name": "_secondaryReceiversListLength",
          "type": "uint256"
        }
      ],
      "stateMutability": "view",
      "type": "function"
    },
    {
      "inputs": [
        {
          "internalType": "bytes32",
          "name": "_cType",
          "type": "bytes32"
        },
        {
          "internalType": "address",
          "name": "_receiver",
          "type": "address"
        }
      ],
      "name": "secondaryTaxReceivers",
      "outputs": [
        {
          "components": [
            {
              "internalType": "address",
              "name": "receiver",
              "type": "address"
            },
            {
              "internalType": "bool",
              "name": "canTakeBackTax",
              "type": "bool"
            },
            {
              "internalType": "uint256",
              "name": "taxPercentage",
              "type": "uint256"
            }
          ],
          "internalType": "struct ITaxCollector.TaxReceiver",
          "name": "_secondaryTaxReceiver",
          "type": "tuple"
        }
      ],
      "stateMutability": "view",
      "type": "function"
    },
    {
      "inputs": [
        {
          "internalType": "uint256",
          "name": "_start",
          "type": "uint256"
        },
        {
          "internalType": "uint256",
          "name": "_end",
          "type": "uint256"
        }
      ],
      "name": "taxMany",
      "outputs": [],
      "stateMutability": "nonpayable",
      "type": "function"
    },
    {
      "inputs": [
        {
          "internalType": "uint256",
          "name": "_start",
          "type": "uint256"
        },
        {
          "internalType": "uint256",
          "name": "_end",
          "type": "uint256"
        }
      ],
      "name": "taxManyOutcome",
      "outputs": [
        {
          "internalType": "bool",
          "name": "_ok",
          "type": "bool"
        },
        {
          "internalType": "int256",
          "name": "_rad",
          "type": "int256"
        }
      ],
      "stateMutability": "view",
      "type": "function"
    },
    {
      "inputs": [
        {
          "internalType": "bytes32",
          "name": "_cType",
          "type": "bytes32"
        }
      ],
      "name": "taxSingle",
      "outputs": [
        {
          "internalType": "uint256",
          "name": "_latestAccumulatedRate",
          "type": "uint256"
        }
      ],
      "stateMutability": "nonpayable",
      "type": "function"
    },
    {
      "inputs": [
        {
          "internalType": "bytes32",
          "name": "_cType",
          "type": "bytes32"
        }
      ],
      "name": "taxSingleOutcome",
      "outputs": [
        {
          "internalType": "uint256",
          "name": "_newlyAccumulatedRate",
          "type": "uint256"
        },
        {
          "internalType": "int256",
          "name": "_deltaRate",
          "type": "int256"
        }
      ],
      "stateMutability": "view",
      "type": "function"
    }
  ],
  "bytecode": {
    "object": "0x60806040523480156200001157600080fd5b506040516200312c3803806200312c83398101604081905262000034916200038b565b336200004081620000bb565b50620000556001600160a01b03831662000129565b600280546001600160a01b03199081166001600160a01b0393841617909155825160038054909216928116929092179055602082015160045560408201516005556060820151600655620000a99062000157565b620000b3620001a3565b505062000470565b620000c860008262000237565b156200010d576040516001600160a01b03821681527f599a298163e1678bb1c676052a8930bf0b8a1261ed6e01b8a2391e55f70001029060200160405180910390a150565b604051633013e93f60e11b815260040160405180910390fd5b50565b60006001600160a01b038216620001535760405163e99d5ac560e01b815260040160405180910390fd5b5090565b600380546001600160a01b0319166001600160a01b0383169081179091556040516000907fcce76090d065454b733e7ad387196ea44e51a3b57a084b6c108091ce9ac36496908290a350565b600354620001ba906001600160a01b031662000129565b50600554620001e5906b033b2e3c9fd0803ce800000090620001de90600062000257565b9062000290565b50600554620001269062000206906b033b2e3c9fd0803ce800000062000444565b600554620002309062000226906b033b2e3c9fd0803ce80000006200045a565b60045490620002be565b90620002ed565b60006200024e836001600160a01b0384166200031c565b90505b92915050565b6000818311620002895760405163130ac85760e21b815260048101849052602481018390526044015b60405180910390fd5b5090919050565b6000818310620002895760405163fecef28360e01b8152600481018490526024810183905260440162000280565b6000818310156200028957604051631d7ee3a360e01b8152600481018490526024810183905260440162000280565b60008183111562000289576040516347df8ef360e01b8152600481018490526024810183905260440162000280565b6000818152600183016020526040812054620003655750815460018181018455600084815260208082209093018490558454848252828601909352604090209190915562000251565b50600062000251565b80516001600160a01b03811681146200038657600080fd5b919050565b60008082840360a0811215620003a057600080fd5b620003ab846200036e565b92506080601f1982011215620003c057600080fd5b50604051608081016001600160401b0381118282101715620003f257634e487b7160e01b600052604160045260246000fd5b60405262000403602085016200036e565b8152604084015160208201526060840151604082015260808401516060820152809150509250929050565b634e487b7160e01b600052601160045260246000fd5b808201808211156200025157620002516200042e565b818103818111156200025157620002516200042e565b612cac80620004806000396000f3fe608060405234801561001057600080fd5b50600436106101b95760003560e01c806367aea313116100f9578063c78c829511610097578063dd9dbe3111610071578063dd9dbe31146104f2578063e372ee441461051a578063e54201f61461052d578063f41739791461057357600080fd5b8063c78c82951461047b578063cff0ab961461048e578063da8a4bb8146104df57600080fd5b80638f83629d116100d35780638f83629d1461041857806394f3f81d1461042b578063b6e05a2e1461043e578063b75363641461047357600080fd5b806367aea313146103b85780636c50dbba146103fd578063802503411461041057600080fd5b806324ba58841161016657806335b281531161014057806335b2815314610327578063552b16ab1461033a5780635b7052ee1461039d578063635d0f0d146103a557600080fd5b806324ba5884146102d25780632697dce2146102f55780632e3918761461031f57600080fd5b806312f335261161019757806312f3352614610245578063142f1ab01461025a5780631d674705146102a457600080fd5b806303f4c196146101be5780630613f9711461021057806308646f9e14610225575b600080fd5b6101d16101cc366004612596565b61060b565b60408051825173ffffffffffffffffffffffffffffffffffffffff16815260208084015115159082015291810151908201526060015b60405180910390f35b6102186106a0565b60405161020791906125c6565b610238610233366004612620565b6106b1565b604051610207919061263d565b61025861025336600461274f565b6106e2565b005b61028961026836600461279f565b60086020526000908152604090208054600182015460029092015490919083565b60408051938452602084019290925290820152606001610207565b6102c46102b236600461279f565b60076020526000908152604090205481565b604051908152602001610207565b6102e56102e0366004612620565b610775565b6040519015158152602001610207565b6103086103033660046127b8565b610780565b604080519215158352602083019190915201610207565b6102186109a1565b610258610335366004612620565b6109ad565b6003546004546005546006546103669373ffffffffffffffffffffffffffffffffffffffff1692919084565b6040805173ffffffffffffffffffffffffffffffffffffffff90951685526020850193909352918301526060820152608001610207565b6102c46109f8565b6102586103b33660046127da565b610a04565b6002546103d89073ffffffffffffffffffffffffffffffffffffffff1681565b60405173ffffffffffffffffffffffffffffffffffffffff9091168152602001610207565b6102c461040b36600461279f565b610b18565b610238610dd2565b6102e5610426366004612620565b610dde565b610258610439366004612620565b610deb565b61045161044c36600461279f565b610e33565b6040805182518152602080840151908201529181015190820152606001610207565b6102c4610e90565b6102e56104893660046127b8565b610e9c565b610496610f41565b6040516102079190815173ffffffffffffffffffffffffffffffffffffffff16815260208083015190820152604080830151908201526060918201519181019190915260800190565b6102586104ed366004612859565b610fc5565b61050561050036600461279f565b611056565b60408051928352602083019190915201610207565b6102586105283660046127b8565b611165565b61056461053b36600461279f565b604080516020808201835260009182905292815260078352819020815192830190915254815290565b60405190518152602001610207565b6105d9610581366004612596565b600a6020908152600092835260408084209091529082529020805460019091015473ffffffffffffffffffffffffffffffffffffffff82169174010000000000000000000000000000000000000000900460ff169083565b6040805173ffffffffffffffffffffffffffffffffffffffff9094168452911515602084015290820152606001610207565b6040805160608101825260008082526020820181905291810191909152506000828152600a6020908152604080832073ffffffffffffffffffffffffffffffffffffffff8581168552908352928190208151606081018352815494851681527401000000000000000000000000000000000000000090940460ff16151592840192909252600190910154908201525b92915050565b60606106ac600d6111db565b905090565b73ffffffffffffffffffffffffffffffffffffffff8116600090815260096020526040902060609061069a906111db565b6106eb336111ef565b610721576040517f82b4290000000000000000000000000000000000000000000000000000000000815260040160405180910390fd5b8261072d8484846111fb565b83837fe436a8be7dc6aab90b400800ecc86e46fb600f2e18989b5d0389840fdabbf2ed8460405161075e91906128a0565b60405180910390a361076f816112f2565b50505050565b600061069a826111ef565b6000808284118061079a5750610796600b611347565b8310155b156107d1576040517f0ca0eeb800000000000000000000000000000000000000000000000000000000815260040160405180910390fd5b6002546003546040517ffabde80c00000000000000000000000000000000000000000000000000000000815273ffffffffffffffffffffffffffffffffffffffff918216600482015260009261087392169063fabde80c906024015b602060405180830381865afa15801561084a573d6000803e3d6000fd5b505050506040513d601f19601f8201168201806040525081019061086e919061290c565b611351565b61087c90612954565b905060008080875b87811161097c57610896600b82611392565b60008181526008602052604090206001015490925042111561096c576002546040517fb6e05a2e0000000000000000000000000000000000000000000000000000000081526004810184905273ffffffffffffffffffffffffffffffffffffffff9091169063b6e05a2e9060240160a060405180830381865afa158015610921573d6000803e3d6000fd5b505050506040513d601f19601f82011682018060405250810190610945919061298c565b51925061095182611056565b945061095f9050838561139e565b61096990876129fc565b95505b61097581612a1c565b9050610884565b50600085121561099157838512159550610996565b600195505b505050509250929050565b60606106ac60006111db565b6109b6336111ef565b6109ec576040517f82b4290000000000000000000000000000000000000000000000000000000000815260040160405180910390fd5b6109f5816113b4565b50565b60006106ac600d611347565b610a0d336111ef565b610a43576040517f82b4290000000000000000000000000000000000000000000000000000000000815260040160405180910390fd5b81610a4f600b82611443565b610a85576040517f267656d100000000000000000000000000000000000000000000000000000000815260040160405180910390fd5b604080516060810182526b033b2e3c9fd0803ce8000000815242602080830191825260008385018181528882526008835285822094518555925160018501559151600290930192909255600782528290208451905590518481527f715b265758bcd4ecd311bede8dcca05c4b5819e0a2a5c4103abd702862ae2c35910160405180910390a1610b13816112f2565b505050565b6000818152600860209081526040808320815160608101835281548152600182015493810184905260029091015491810191909152904211610c0e576002546040517fb6e05a2e0000000000000000000000000000000000000000000000000000000081526004810185905273ffffffffffffffffffffffffffffffffffffffff9091169063b6e05a2e9060240160a060405180830381865afa158015610bc3573d6000803e3d6000fd5b505050506040513d601f19601f82011682018060405250810190610be7919061298c565b604001519150610bf68361144f565b60009384526008602052604090932092909255919050565b6000610c1984611056565b6002546040517fb6e05a2e000000000000000000000000000000000000000000000000000000008152600481018890529193506000925073ffffffffffffffffffffffffffffffffffffffff169063b6e05a2e9060240160a060405180830381865afa158015610c8d573d6000803e3d6000fd5b505050506040513d601f19601f82011682018060405250810190610cb1919061298c565b519050610cbf8582846114df565b6002546040517fb6e05a2e0000000000000000000000000000000000000000000000000000000081526004810187905273ffffffffffffffffffffffffffffffffffffffff9091169063b6e05a2e9060240160a060405180830381865afa158015610d2e573d6000803e3d6000fd5b505050506040513d601f19601f82011682018060405250810190610d52919061298c565b604001514260208501529350610d678561144f565b83526000858152600860209081526040918290208551815581860151600182015582860151600290910155815186815290810184905286917f584c2e3a292b065d3d3a0edd7e25bb572b4c171192c33ab9c3b0f5d4448adf8b910160405180910390a2505050919050565b60606106ac600b6111db565b600061069a600d83611585565b610df4336111ef565b610e2a576040517f82b4290000000000000000000000000000000000000000000000000000000000815260040160405180910390fd5b6109f5816115b4565b610e5760405180606001604052806000815260200160008152602001600081525090565b50600090815260086020908152604091829020825160608101845281548152600182015492810192909252600201549181019190915290565b60006106ac600b611347565b600081831180610eb55750610eb1600b611347565b8210155b15610eec576040517f0ca0eeb800000000000000000000000000000000000000000000000000000000815260040160405180910390fd5b825b828111610f375760086000610f04600b84611392565b815260200190815260200160002060010154421115610f2757600091505061069a565b610f3081612a1c565b9050610eee565b5060019392505050565b610f826040518060800160405280600073ffffffffffffffffffffffffffffffffffffffff1681526020016000815260200160008152602001600081525090565b506040805160808101825260035473ffffffffffffffffffffffffffffffffffffffff168152600454602082015260055491810191909152600654606082015290565b610fce336111ef565b611004576040517f82b4290000000000000000000000000000000000000000000000000000000000815260040160405180910390fd5b61100e828261163c565b6000801b827fe436a8be7dc6aab90b400800ecc86e46fb600f2e18989b5d0389840fdabbf2ed8360405161104291906128a0565b60405180910390a361105261170f565b5050565b6002546040517fb6e05a2e000000000000000000000000000000000000000000000000000000008152600481018390526000918291829173ffffffffffffffffffffffffffffffffffffffff169063b6e05a2e9060240160a060405180830381865afa1580156110ca573d6000803e3d6000fd5b505050506040513d601f19601f820116820180604052508101906110ee919061298c565b6040908101516000868152600860209081529083902083516060810185528154815260018201549281018390526002909101549381019390935290925061114d9083906111479061113f9042612a54565b84519061179c565b90611892565b93508361115a81846118b5565b935093505050915091565b8082118061117c5750611178600b611347565b8110155b156111b3576040517f0ca0eeb800000000000000000000000000000000000000000000000000000000815260040160405180910390fd5b815b818111610b13576111ca61040b600b83611392565b506111d481612a1c565b90506111b5565b606060006111e8836118d3565b9392505050565b600061069a8183611585565b611206600b8461192f565b61123c576040517f98fc17bd00000000000000000000000000000000000000000000000000000000815260040160405180910390fd5b817f73746162696c69747946656500000000000000000000000000000000000000000361127c576020810151600084815260076020526040902055505050565b817f7365636f6e646172795461785265636569766572000000000000000000000000036112c057610b1383828060200190518101906112bb9190612a67565b611947565b6040517f9d2ff48000000000000000000000000000000000000000000000000000000000815260040160405180910390fd5b6005546110529061130f906b033b2e3c9fd0803ce8000000612ad7565b6005546113419061132c906b033b2e3c9fd0803ce8000000612a54565b60008581526007602052604090205490611f0f565b90611f61565b600061069a825490565b80600081121561138d576040517f44dddea200000000000000000000000000000000000000000000000000000000815260040160405180910390fd5b919050565b60006111e88383611fa7565b6000816113aa84611351565b6111e89190612aea565b6113bf600082611fd1565b156114115760405173ffffffffffffffffffffffffffffffffffffffff821681527f599a298163e1678bb1c676052a8930bf0b8a1261ed6e01b8a2391e55f7000102906020015b60405180910390a150565b6040517f6027d27e00000000000000000000000000000000000000000000000000000000815260040160405180910390fd5b60006111e88383611fef565b60008181526007602052604081205460045461146a91611892565b600554909150611486906b033b2e3c9fd0803ce8000000612a54565b8110156114a65760055461069a906b033b2e3c9fd0803ce8000000612a54565b6005546114bf906b033b2e3c9fd0803ce8000000612ad7565b81111561138d5760055461069a906b033b2e3c9fd0803ce8000000612ad7565b6000806114ec600d611347565b905060005b8181101561155757611504600d82611392565b73ffffffffffffffffffffffffffffffffffffffff81166000908152600960205260409020909350611536908761192f565b15611547576115478684878761203e565b61155081612a1c565b90506114f1565b5060035461157e90869073ffffffffffffffffffffffffffffffffffffffff16868661203e565b5050505050565b73ffffffffffffffffffffffffffffffffffffffff8116600090815260018301602052604081205415156111e8565b6115bf6000826122dc565b1561160a5760405173ffffffffffffffffffffffffffffffffffffffff821681527f8834a87e641e9716be4f34527af5d23e11624f1ddeefede6ad75a9acfc31b90390602001611406565b6040517fea8e4eb500000000000000000000000000000000000000000000000000000000815260040160405180910390fd5b6000611649826020015190565b9050827f7072696d617279546178526563656976657200000000000000000000000000000361168557610b13611680836020015190565b6122fe565b827f676c6f62616c53746162696c6974794665650000000000000000000000000000036116b3576004555050565b827f6d617853746162696c69747946656552616e6765000000000000000000000000036116e1576005555050565b827f6d61785365636f6e646172795265636569766572730000000000000000000000036112c0576006555050565b6003546117319073ffffffffffffffffffffffffffffffffffffffff1661236f565b50600554611758906b033b2e3c9fd0803ce8000000906117529060006123c2565b90612407565b506005546109f590611776906b033b2e3c9fd0803ce8000000612ad7565b60055461134190611793906b033b2e3c9fd0803ce8000000612a54565b60045490611f0f565b6000828015611869576001831680156117b7578492506117c7565b6b033b2e3c9fd0803ce800000092505b506002909204916b019d971e4fe8401e740000005b83156118635784850285868204146117f357600080fd5b8181018181101561180357600080fd5b6b033b2e3c9fd0803ce80000009004955050600184161561185857848302838682041415861515161561183557600080fd5b8181018181101561184557600080fd5b6b033b2e3c9fd0803ce800000090049350505b6002840493506117dc565b5061188b565b8280156118795760009250611889565b6b033b2e3c9fd0803ce800000092505b505b5092915050565b60006b033b2e3c9fd0803ce80000006118ab8385612b36565b6111e89190612b7c565b60006118c082611351565b6118c984611351565b6111e89190612b90565b60608160000180548060200260200160405190810160405280929190818152602001828054801561192357602002820191906000526020600020905b81548152602001906001019080831161190f575b50505050509050919050565b600081815260018301602052604081205415156111e8565b805173ffffffffffffffffffffffffffffffffffffffff16611995576040517ff04ab24b00000000000000000000000000000000000000000000000000000000815260040160405180910390fd5b600354815173ffffffffffffffffffffffffffffffffffffffff9182169116036119eb576040517fcfda131500000000000000000000000000000000000000000000000000000000815260040160405180910390fd5b6119f6600b8361192f565b611a2c576040517fffbc92ef00000000000000000000000000000000000000000000000000000000815260040160405180910390fd5b8051611a3a90600d90611fd1565b15611c1857600654611a4c600d611347565b1115611a84576040517f2aed1b1900000000000000000000000000000000000000000000000000000000815260040160405180910390fd5b8060400151600003611ac2576040517f2cdbc2c600000000000000000000000000000000000000000000000000000000815260040160405180910390fd5b604080820151600084815260086020529190912060020154670de0b6b3a764000091611aed91612ad7565b1115611b25576040517f81019f1900000000000000000000000000000000000000000000000000000000815260040160405180910390fd5b8060400151600860008481526020019081526020016000206002016000828254611b4f9190612ad7565b9091555050805173ffffffffffffffffffffffffffffffffffffffff166000908152600960205260409020611b849083611443565b506000828152600a60209081526040808320845173ffffffffffffffffffffffffffffffffffffffff9081168552908352928190208451815493860151151574010000000000000000000000000000000000000000027fffffffffffffffffffffff000000000000000000000000000000000000000000909416941693909317919091178255820151600190910155611ea3565b8060400151600003611d51576000828152600a60209081526040808320845173ffffffffffffffffffffffffffffffffffffffff16845282528083206001015485845260089092528220600201805491929091611c76908490612a54565b9091555050805173ffffffffffffffffffffffffffffffffffffffff166000908152600960205260409020611cab908361244c565b50805173ffffffffffffffffffffffffffffffffffffffff166000908152600960205260409020611cdb90611347565b600003611cf2578051611cf090600d906122dc565b505b6000828152600a60209081526040808320845173ffffffffffffffffffffffffffffffffffffffff168452909152812080547fffffffffffffffffffffff00000000000000000000000000000000000000000016815560010155611ea3565b6040808201516000848152600a6020908152838220855173ffffffffffffffffffffffffffffffffffffffff1683528152838220600101548683526008909152928120600201549092611da391612a54565b611dad9190612ad7565b9050670de0b6b3a7640000811115611df1576040517f504bdcbc00000000000000000000000000000000000000000000000000000000815260040160405180910390fd5b6000838152600860209081526040808320600201849055600a8252808320855173ffffffffffffffffffffffffffffffffffffffff90811685529083528184208651815488860151151574010000000000000000000000000000000000000000027fffffffffffffffffffffff0000000000000000000000000000000000000000009091169190931690811792909217815586830151600190910155835260099091529020611ea09084611443565b50505b806000015173ffffffffffffffffffffffffffffffffffffffff16827f2347f154eaaa6c7e96af332804d1548a5eaadbe63704cad892482ed67b23046083604001518460200151604051611f039291909182521515602082015260400190565b60405180910390a35050565b600081831015611f5a576040517f1d7ee3a300000000000000000000000000000000000000000000000000000000815260048101849052602481018390526044015b60405180910390fd5b5090919050565b600081831115611f5a576040517f47df8ef30000000000000000000000000000000000000000000000000000000081526004810184905260248101839052604401611f51565b6000826000018281548110611fbe57611fbe612bb0565b9060005260206000200154905092915050565b60006111e88373ffffffffffffffffffffffffffffffffffffffff84165b60008181526001830160205260408120546120365750815460018181018455600084815260208082209093018490558454848252828601909352604090209190915561069a565b50600061069a565b6002546040517ffabde80c00000000000000000000000000000000000000000000000000000000815273ffffffffffffffffffffffffffffffffffffffff858116600483015260009261209c9291169063fabde80c9060240161082d565b6120a590612954565b905060006120b284611351565b6000878152600a6020908152604080832073ffffffffffffffffffffffffffffffffffffffff8a811680865291845282852083516060810185528154808416825274010000000000000000000000000000000000000000900460ff1615159581019590955260010154928401929092526003549495509193161461214457604082015161213f9086612458565b612174565b60008881526008602052604090206002015461217490869061216e90670de0b6b3a7640000612a54565b90612458565b905060006121828285612aea565b12801561219757506121948184612aea565b84135b6121a157806121ab565b6121ab8385612bdf565b905080156122d25760035473ffffffffffffffffffffffffffffffffffffffff888116911614806121e857506000851215806121e8575081602001515b156122d2576002546040517f0e9e11d3000000000000000000000000000000000000000000000000000000008152600481018a905273ffffffffffffffffffffffffffffffffffffffff89811660248301526044820184905290911690630e9e11d390606401600060405180830381600087803b15801561226857600080fd5b505af115801561227c573d6000803e3d6000fd5b505050508673ffffffffffffffffffffffffffffffffffffffff16887f6d8843b6550b78e189b1bbdd8e46d5163232388e76a545e02013acb1879b3a45836040516122c991815260200190565b60405180910390a35b5050505050505050565b60006111e88373ffffffffffffffffffffffffffffffffffffffff8416612481565b600380547fffffffffffffffffffffffff00000000000000000000000000000000000000001673ffffffffffffffffffffffffffffffffffffffff83169081179091556040516000907fcce76090d065454b733e7ad387196ea44e51a3b57a084b6c108091ce9ac36496908290a350565b600073ffffffffffffffffffffffffffffffffffffffff82166123be576040517fe99d5ac500000000000000000000000000000000000000000000000000000000815260040160405180910390fd5b5090565b6000818311611f5a576040517f4c2b215c0000000000000000000000000000000000000000000000000000000081526004810184905260248101839052604401611f51565b6000818310611f5a576040517ffecef2830000000000000000000000000000000000000000000000000000000081526004810184905260248101839052604401611f51565b60006111e88383612481565b6000670de0b6b3a76400008261246d85611351565b6124779190612aea565b6111e89190612bdf565b6000818152600183016020526040812054801561256a5760006124a5600183612a54565b85549091506000906124b990600190612a54565b905081811461251e5760008660000182815481106124d9576124d9612bb0565b90600052602060002001549050808760000184815481106124fc576124fc612bb0565b6000918252602080832090910192909255918252600188019052604090208390555b855486908061252f5761252f612c47565b60019003818190600052602060002001600090559055856001016000868152602001908152602001600020600090556001935050505061069a565b600091505061069a565b73ffffffffffffffffffffffffffffffffffffffff811681146109f557600080fd5b600080604083850312156125a957600080fd5b8235915060208301356125bb81612574565b809150509250929050565b6020808252825182820181905260009190848201906040850190845b8181101561261457835173ffffffffffffffffffffffffffffffffffffffff16835292840192918401916001016125e2565b50909695505050505050565b60006020828403121561263257600080fd5b81356111e881612574565b6020808252825182820181905260009190848201906040850190845b8181101561261457835183529284019291840191600101612659565b7f4e487b7100000000000000000000000000000000000000000000000000000000600052604160045260246000fd5b600082601f8301126126b557600080fd5b813567ffffffffffffffff808211156126d0576126d0612675565b604051601f83017fffffffffffffffffffffffffffffffffffffffffffffffffffffffffffffffe0908116603f0116810190828211818310171561271657612716612675565b8160405283815286602085880101111561272f57600080fd5b836020870160208301376000602085830101528094505050505092915050565b60008060006060848603121561276457600080fd5b8335925060208401359150604084013567ffffffffffffffff81111561278957600080fd5b612795868287016126a4565b9150509250925092565b6000602082840312156127b157600080fd5b5035919050565b600080604083850312156127cb57600080fd5b50508035926020909101359150565b60008082840360408112156127ee57600080fd5b8335925060207fffffffffffffffffffffffffffffffffffffffffffffffffffffffffffffffe08201121561282257600080fd5b506040516020810181811067ffffffffffffffff8211171561284657612846612675565b6040526020939093013583525092909150565b6000806040838503121561286c57600080fd5b82359150602083013567ffffffffffffffff81111561288a57600080fd5b612896858286016126a4565b9150509250929050565b600060208083528351808285015260005b818110156128cd578581018301518582016040015282016128b1565b5060006040828601015260407fffffffffffffffffffffffffffffffffffffffffffffffffffffffffffffffe0601f8301168501019250505092915050565b60006020828403121561291e57600080fd5b5051919050565b7f4e487b7100000000000000000000000000000000000000000000000000000000600052601160045260246000fd5b60007f8000000000000000000000000000000000000000000000000000000000000000820361298557612985612925565b5060000390565b600060a0828403121561299e57600080fd5b60405160a0810181811067ffffffffffffffff821117156129c1576129c1612675565b806040525082518152602083015160208201526040830151604082015260608301516060820152608083015160808201528091505092915050565b808201828112600083128015821682158216171561188957611889612925565b60007fffffffffffffffffffffffffffffffffffffffffffffffffffffffffffffffff8203612a4d57612a4d612925565b5060010190565b8181038181111561069a5761069a612925565b600060608284031215612a7957600080fd5b6040516060810181811067ffffffffffffffff82111715612a9c57612a9c612675565b6040528251612aaa81612574565b815260208301518015158114612abf57600080fd5b60208201526040928301519281019290925250919050565b8082018082111561069a5761069a612925565b808202600082127f800000000000000000000000000000000000000000000000000000000000000084141615612b2257612b22612925565b818105831482151761069a5761069a612925565b808202811582820484141761069a5761069a612925565b7f4e487b7100000000000000000000000000000000000000000000000000000000600052601260045260246000fd5b600082612b8b57612b8b612b4d565b500490565b818103600083128015838313168383128216171561188b5761188b612925565b7f4e487b7100000000000000000000000000000000000000000000000000000000600052603260045260246000fd5b600082612bee57612bee612b4d565b7fffffffffffffffffffffffffffffffffffffffffffffffffffffffffffffffff83147f800000000000000000000000000000000000000000000000000000000000000083141615612c4257612c42612925565b500590565b7f4e487b7100000000000000000000000000000000000000000000000000000000600052603160045260246000fdfea26469706673582212202a965d7f74e45c1729b7ed000594cfd8b42d2763063c3fd1470f12939573626a64736f6c63430008130033",
    "linkReferences": {}
  },
  "methodIdentifiers": {
    "_cData(bytes32)": "142f1ab0",
    "_cParams(bytes32)": "1d674705",
    "_params()": "552b16ab",
    "_secondaryTaxReceivers(bytes32,address)": "f4173979",
    "addAuthorization(address)": "35b28153",
    "authorizedAccounts()": "2e391876",
    "authorizedAccounts(address)": "24ba5884",
    "cData(bytes32)": "b6e05a2e",
    "cParams(bytes32)": "e54201f6",
    "collateralList()": "80250341",
    "collateralListLength()": "b7536364",
    "collectedManyTax(uint256,uint256)": "c78c8295",
    "initializeCollateralType(bytes32,(uint256))": "635d0f0d",
    "isSecondaryReceiver(address)": "8f83629d",
    "modifyParameters(bytes32,bytes)": "da8a4bb8",
    "modifyParameters(bytes32,bytes32,bytes)": "12f33526",
    "params()": "cff0ab96",
    "removeAuthorization(address)": "94f3f81d",
    "safeEngine()": "67aea313",
    "secondaryReceiverRevenueSourcesList(address)": "08646f9e",
    "secondaryReceiversList()": "0613f971",
    "secondaryReceiversListLength()": "5b7052ee",
    "secondaryTaxReceivers(bytes32,address)": "03f4c196",
    "taxMany(uint256,uint256)": "e372ee44",
    "taxManyOutcome(uint256,uint256)": "2697dce2",
    "taxSingle(bytes32)": "6c50dbba",
    "taxSingleOutcome(bytes32)": "dd9dbe31"
  },
  "id": 61
}