{
  "abi": [
    {
      "inputs": [
        {
          "internalType": "address",
          "name": "_owner",
          "type": "address"
        }
      ],
      "stateMutability": "nonpayable",
      "type": "constructor"
    },
    {
      "inputs": [],
      "name": "OnlyOwner",
      "type": "error"
    },
    {
      "inputs": [],
      "name": "TargetAddressRequired",
      "type": "error"
    },
    {
      "inputs": [
        {
          "internalType": "bytes",
          "name": "_response",
          "type": "bytes"
        }
      ],
      "name": "TargetCallFailed",
      "type": "error"
    },
    {
      "inputs": [],
      "name": "OWNER",
      "outputs": [
        {
          "internalType": "address",
          "name": "",
          "type": "address"
        }
      ],
      "stateMutability": "view",
      "type": "function"
    },
    {
      "inputs": [
        {
          "internalType": "address",
          "name": "_target",
          "type": "address"
        },
        {
          "internalType": "bytes",
          "name": "_data",
          "type": "bytes"
        }
      ],
      "name": "execute",
      "outputs": [
        {
          "internalType": "bytes",
          "name": "_response",
          "type": "bytes"
        }
      ],
      "stateMutability": "payable",
      "type": "function"
    }
  ],
  "bytecode": {
    "object": "0x60a060405234801561001057600080fd5b506040516104a03803806104a083398101604081905261002f91610040565b6001600160a01b0316608052610070565b60006020828403121561005257600080fd5b81516001600160a01b038116811461006957600080fd5b9392505050565b608051610410610090600039600081816040015260c601526104106000f3fe6080604052600436106100295760003560e01c8063117803e31461002e5780631cff79cd1461008c575b600080fd5b34801561003a57600080fd5b506100627f000000000000000000000000000000000000000000000000000000000000000081565b60405173ffffffffffffffffffffffffffffffffffffffff90911681526020015b60405180910390f35b61009f61009a36600461024e565b6100ac565b604051610083919061036d565b60603373ffffffffffffffffffffffffffffffffffffffff7f0000000000000000000000000000000000000000000000000000000000000000161461011d576040517f5fc483c500000000000000000000000000000000000000000000000000000000815260040160405180910390fd5b73ffffffffffffffffffffffffffffffffffffffff831661016a576040517f8de42c8300000000000000000000000000000000000000000000000000000000815260040160405180910390fd5b60008373ffffffffffffffffffffffffffffffffffffffff168360405161019191906103be565b600060405180830381855af49150503d80600081146101cc576040519150601f19603f3d011682016040523d82523d6000602084013e6101d1565b606091505b50925090508061021857816040517fa932c97a00000000000000000000000000000000000000000000000000000000815260040161020f919061036d565b60405180910390fd5b5092915050565b7f4e487b7100000000000000000000000000000000000000000000000000000000600052604160045260246000fd5b6000806040838503121561026157600080fd5b823573ffffffffffffffffffffffffffffffffffffffff8116811461028557600080fd5b9150602083013567ffffffffffffffff808211156102a257600080fd5b818501915085601f8301126102b657600080fd5b8135818111156102c8576102c861021f565b604051601f82017fffffffffffffffffffffffffffffffffffffffffffffffffffffffffffffffe0908116603f0116810190838211818310171561030e5761030e61021f565b8160405282815288602084870101111561032757600080fd5b8260208601602083013760006020848301015280955050505050509250929050565b60005b8381101561036457818101518382015260200161034c565b50506000910152565b602081526000825180602084015261038c816040850160208701610349565b601f017fffffffffffffffffffffffffffffffffffffffffffffffffffffffffffffffe0169190910160400192915050565b600082516103d0818460208701610349565b919091019291505056fea26469706673582212203fb15abba2bd30914ef2337885ce202ef4bab8bcb928f1a10a2b0aa2f1a48e8964736f6c63430008130033",
    "linkReferences": {}
  },
  "methodIdentifiers": {
    "OWNER()": "117803e3",
    "execute(address,bytes)": "1cff79cd"
  },
  "id": 163
}